{"contracts/StablecoinSwitch.sol":{"StablecoinSwitch":{"abi":[{"inputs":[],"stateMutability":"nonpayable","type":"constructor"},{"inputs":[{"internalType":"string","name":"reason","type":"string"}],"name":"BridgeFailed","type":"error"},{"inputs":[],"name":"BridgeNotConfigured","type":"error"},{"inputs":[],"name":"InsufficientBalance","type":"error"},{"inputs":[],"name":"InvalidAmount","type":"error"},{"inputs":[],"name":"InvalidChainId","type":"error"},{"inputs":[],"name":"InvalidPriority","type":"error"},{"inputs":[],"name":"InvalidRecipient","type":"error"},{"inputs":[],"name":"InvalidToken","type":"error"},{"inputs":[],"name":"NoRouteAvailable","type":"error"},{"inputs":[],"name":"TransferFailed","type":"error"},{"anonymous":false,"inputs":[{"indexed":false,"internalType":"string","name":"bridgeType","type":"string"},{"indexed":true,"internalType":"address","name":"adapter","type":"address"},{"indexed":false,"internalType":"uint256","name":"timestamp","type":"uint256"}],"name":"BridgeAdapterSet","type":"event"},{"anonymous":false,"inputs":[{"indexed":true,"internalType":"address","name":"token","type":"address"},{"indexed":false,"internalType":"uint256","name":"amount","type":"uint256"},{"indexed":true,"internalType":"address","name":"recipient","type":"address"},{"indexed":false,"internalType":"uint256","name":"toChainId","type":"uint256"}],"name":"FallbackToChainlink","type":"event"},{"anonymous":false,"inputs":[{"indexed":true,"internalType":"address","name":"token","type":"address"},{"indexed":false,"internalType":"uint256","name":"amount","type":"uint256"},{"indexed":true,"internalType":"address","name":"recipient","type":"address"},{"indexed":false,"internalType":"string","name":"reason","type":"string"}],"name":"LiFiBridgeFailed","type":"event"},{"anonymous":false,"inputs":[{"indexed":true,"internalType":"address","name":"previousOwner","type":"address"},{"indexed":true,"internalType":"address","name":"newOwner","type":"address"}],"name":"OwnershipTransferred","type":"event"},{"anonymous":false,"inputs":[{"indexed":true,"internalType":"address","name":"token","type":"address"},{"indexed":false,"internalType":"uint256","name":"amount","type":"uint256"},{"indexed":true,"internalType":"address","name":"recipient","type":"address"},{"indexed":false,"internalType":"uint256","name":"toChainId","type":"uint256"},{"indexed":false,"internalType":"string","name":"bridge","type":"string"},{"indexed":false,"internalType":"uint256","name":"timestamp","type":"uint256"}],"name":"SettlementExecuted","type":"event"},{"anonymous":false,"inputs":[{"indexed":true,"internalType":"address","name":"user","type":"address"},{"indexed":true,"internalType":"address","name":"fromToken","type":"address"},{"indexed":false,"internalType":"uint256","name":"amount","type":"uint256"},{"indexed":false,"internalType":"uint256","name":"toChainId","type":"uint256"},{"indexed":false,"internalType":"enum StablecoinSwitch.Priority","name":"priority","type":"uint8"},{"components":[{"internalType":"uint256","name":"fromChainId","type":"uint256"},{"internalType":"uint256","name":"toChainId","type":"uint256"},{"internalType":"uint256","name":"cost","type":"uint256"},{"internalType":"uint256","name":"speed","type":"uint256"},{"internalType":"address","name":"bridge","type":"address"},{"internalType":"string","name":"bridgeName","type":"string"}],"indexed":false,"internalType":"struct StablecoinSwitch.OptimalPath","name":"route","type":"tuple"},{"indexed":false,"internalType":"uint256","name":"timestamp","type":"uint256"}],"name":"TransactionRouted","type":"event"},{"inputs":[{"internalType":"address","name":"token","type":"address"},{"internalType":"uint256","name":"amount","type":"uint256"},{"internalType":"address","name":"recipient","type":"address"},{"internalType":"uint256","name":"toChainId","type":"uint256"}],"name":"_executeLiFiBridge","outputs":[],"stateMutability":"nonpayable","type":"function"},{"inputs":[],"name":"chainlinkBridgeAdapter","outputs":[{"internalType":"address","name":"","type":"address"}],"stateMutability":"view","type":"function"},{"inputs":[],"name":"chainlinkRouter","outputs":[{"internalType":"address","name":"","type":"address"}],"stateMutability":"view","type":"function"},{"inputs":[],"name":"currentChainId","outputs":[{"internalType":"uint256","name":"","type":"uint256"}],"stateMutability":"view","type":"function"},{"inputs":[],"name":"customBridgeAdapter","outputs":[{"internalType":"address","name":"","type":"address"}],"stateMutability":"view","type":"function"},{"inputs":[{"internalType":"address","name":"token","type":"address"},{"internalType":"uint256","name":"amount","type":"uint256"}],"name":"emergencyWithdraw","outputs":[],"stateMutability":"nonpayable","type":"function"},{"inputs":[{"internalType":"address","name":"token","type":"address"},{"internalType":"uint256","name":"amount","type":"uint256"},{"internalType":"address","name":"recipient","type":"address"},{"internalType":"uint256","name":"toChainId","type":"uint256"}],"name":"executeSettlement","outputs":[],"stateMutability":"nonpayable","type":"function"},{"inputs":[],"name":"getCurrentChainId","outputs":[{"internalType":"uint256","name":"","type":"uint256"}],"stateMutability":"view","type":"function"},{"inputs":[{"internalType":"address","name":"","type":"address"},{"internalType":"uint256","name":"amount","type":"uint256"},{"internalType":"uint256","name":"toChainId","type":"uint256"},{"internalType":"enum StablecoinSwitch.Priority","name":"priority","type":"uint8"}],"name":"getOptimalPath","outputs":[{"components":[{"internalType":"uint256","name":"fromChainId","type":"uint256"},{"internalType":"uint256","name":"toChainId","type":"uint256"},{"internalType":"uint256","name":"cost","type":"uint256"},{"internalType":"uint256","name":"speed","type":"uint256"},{"internalType":"address","name":"bridge","type":"address"},{"internalType":"string","name":"bridgeName","type":"string"}],"internalType":"struct StablecoinSwitch.OptimalPath","name":"","type":"tuple"}],"stateMutability":"view","type":"function"},{"inputs":[],"name":"liFiBridgeAdapter","outputs":[{"internalType":"address","name":"","type":"address"}],"stateMutability":"view","type":"function"},{"inputs":[],"name":"liFiRouter","outputs":[{"internalType":"address","name":"","type":"address"}],"stateMutability":"view","type":"function"},{"inputs":[{"internalType":"uint256","name":"","type":"uint256"}],"name":"mockRoutes","outputs":[{"internalType":"uint256","name":"costBps","type":"uint256"},{"internalType":"uint256","name":"speedSeconds","type":"uint256"},{"internalType":"bool","name":"active","type":"bool"}],"stateMutability":"view","type":"function"},{"inputs":[],"name":"owner","outputs":[{"internalType":"address","name":"","type":"address"}],"stateMutability":"view","type":"function"},{"inputs":[],"name":"renounceOwnership","outputs":[],"stateMutability":"nonpayable","type":"function"},{"inputs":[{"internalType":"address","name":"fromToken","type":"address"},{"internalType":"uint256","name":"amount","type":"uint256"},{"internalType":"uint256","name":"toChainId","type":"uint256"},{"internalType":"uint8","name":"priority","type":"uint8"}],"name":"routeTransaction","outputs":[],"stateMutability":"nonpayable","type":"function"},{"inputs":[{"internalType":"address","name":"adapter","type":"address"}],"name":"setBridgeAdapter","outputs":[],"stateMutability":"nonpayable","type":"function"},{"inputs":[{"internalType":"address","name":"adapter","type":"address"}],"name":"setChainlinkBridgeAdapter","outputs":[],"stateMutability":"nonpayable","type":"function"},{"inputs":[{"internalType":"address","name":"router","type":"address"}],"name":"setChainlinkRouter","outputs":[],"stateMutability":"nonpayable","type":"function"},{"inputs":[{"internalType":"address","name":"adapter","type":"address"}],"name":"setLiFiBridgeAdapter","outputs":[],"stateMutability":"nonpayable","type":"function"},{"inputs":[{"internalType":"address","name":"router","type":"address"}],"name":"setLiFiRouter","outputs":[],"stateMutability":"nonpayable","type":"function"},{"inputs":[{"internalType":"address","name":"newOwner","type":"address"}],"name":"transferOwnership","outputs":[],"stateMutability":"nonpayable","type":"function"},{"inputs":[{"internalType":"uint256","name":"chainId","type":"uint256"},{"internalType":"uint256","name":"costBps","type":"uint256"},{"internalType":"uint256","name":"speedSeconds","type":"uint256"},{"internalType":"bool","name":"active","type":"bool"}],"name":"updateMockRoute","outputs":[],"stateMutability":"nonpayable","type":"function"}],"evm":{"bytecode":{"linkReferences":{},"object":"60a06040523480156200001157600080fd5b5060016000819055506200003a6200002e6200018c60201b60201c565b6200019460201b60201c565b46608081815250506040518060600160405280601e81526020016102588152602001600115158152506007600060018152602001908152602001600020600082015181600001556020820151816001015560408201518160020160006101000a81548160ff02191690831515021790555090505060405180606001604052806014815260200161012c8152602001600115158152506007600060898152602001908152602001600020600082015181600001556020820151816001015560408201518160020160006101000a81548160ff02191690831515021790555090505060405180606001604052806019815260200161019081526020016001151581525060076000600a8152602001908152602001600020600082015181600001556020820151816001015560408201518160020160006101000a81548160ff0219169083151502179055509050506200025a565b600033905090565b6000600160009054906101000a900473ffffffffffffffffffffffffffffffffffffffff16905081600160006101000a81548173ffffffffffffffffffffffffffffffffffffffff021916908373ffffffffffffffffffffffffffffffffffffffff1602179055508173ffffffffffffffffffffffffffffffffffffffff168173ffffffffffffffffffffffffffffffffffffffff167f8be0079c531659141344cd1fd0a4f28419497f9722a3daafe3b4186f6b6457e060405160405180910390a35050565b608051613d8b62000292600039600081816104a701528181610b5701528181610d3f01528181610de80152610f360152613d8b6000f3fe608060405234801561001057600080fd5b50600436106101425760003560e01c806372e40cd9116100b8578063bfe431021161007c578063bfe431021461032d578063c85fca7514610349578063e8545d4a14610365578063e9b959c514610381578063f2fde38b1461039d578063f8281840146103b957610142565b806372e40cd91461029b5780638199921c146102b75780638da5cb5b146102d557806395ccea67146102f3578063ae9d8d661461030f57610142565b8063575b3fc61161010a578063575b3fc6146101eb5780635cf0e8a4146102075780635fbfcdc91461022557806360ad2526146102575780636cbadbfa14610273578063715018a61461029157610142565b806303265c04146101475780632bc76c4114610165578063301d5af914610181578063321f49a8146101b157806347503089146101cd575b600080fd5b61014f6103d7565b60405161015c91906126a9565b60405180910390f35b61017f600480360381019061017a919061276e565b6103fd565b005b61019b600480360381019061019691906127fa565b610695565b6040516101a89190612998565b60405180910390f35b6101cb60048036038101906101c691906129ba565b610bc0565b005b6101d5610cc9565b6040516101e291906126a9565b60405180910390f35b610205600480360381019061020091906129ba565b610cef565b005b61020f610d3b565b60405161021c91906129f6565b60405180910390f35b61023f600480360381019061023a9190612a11565b610d63565b60405161024e93929190612a59565b60405180910390f35b610271600480360381019061026c91906129ba565b610d9a565b005b61027b610de6565b60405161028891906129f6565b60405180910390f35b610299610e0a565b005b6102b560048036038101906102b09190612a90565b610e1e565b005b6102bf61124a565b6040516102cc91906126a9565b60405180910390f35b6102dd611270565b6040516102ea91906126a9565b60405180910390f35b61030d60048036038101906103089190612af7565b61129a565b005b6103176112d8565b60405161032491906126a9565b60405180910390f35b610347600480360381019061034291906129ba565b6112fe565b005b610363600480360381019061035e9190612b63565b611407565b005b61037f600480360381019061037a9190612a90565b61147c565b005b61039b600480360381019061039691906129ba565b611792565b005b6103b760048036038101906103b291906129ba565b61189b565b005b6103c161191e565b6040516103ce91906126a9565b60405180910390f35b600560009054906101000a900473ffffffffffffffffffffffffffffffffffffffff1681565b610405611944565b6000830361043f576040517f2c5211c600000000000000000000000000000000000000000000000000000000815260040160405180910390fd5b600073ffffffffffffffffffffffffffffffffffffffff168473ffffffffffffffffffffffffffffffffffffffff16036104a5576040517fc1ab6dc100000000000000000000000000000000000000000000000000000000815260040160405180910390fd5b7f000000000000000000000000000000000000000000000000000000000000000082036104fe576040517f7a47c9a200000000000000000000000000000000000000000000000000000000815260040160405180910390fd5b60018160ff16111561053c576040517f6ae0276000000000000000000000000000000000000000000000000000000000815260040160405180910390fd5b600061055f8585858560ff16600181111561055a57610559612bca565b5b610695565b9050600073ffffffffffffffffffffffffffffffffffffffff16816080015173ffffffffffffffffffffffffffffffffffffffff16036105cb576040517f8034b6e500000000000000000000000000000000000000000000000000000000815260040160405180910390fd5b6105f83330868873ffffffffffffffffffffffffffffffffffffffff16611993909392919063ffffffff16565b8473ffffffffffffffffffffffffffffffffffffffff163373ffffffffffffffffffffffffffffffffffffffff167f93adf60a12f02800dc28bdc7f5f9b22c5fc4d4d8425999fed4f4f8586d8b3f6186868660ff16600181111561065f5761065e612bca565b5b8642604051610672959493929190612c41565b60405180910390a361068685853386611a1c565b5061068f611dc2565b50505050565b61069d61261c565b60006007600085815260200190815260200160002060405180606001604052908160008201548152602001600182015481526020016002820160009054906101000a900460ff16151515158152505090508060400151610756576040518060c0016040528060008152602001600081526020016000815260200160008152602001600073ffffffffffffffffffffffffffffffffffffffff16815260200160405180602001604052806000815250815250915050610bb8565b6000606060018081111561076d5761076c612bca565b5b8560018111156107805761077f612bca565b5b0361095957600073ffffffffffffffffffffffffffffffffffffffff16600260009054906101000a900473ffffffffffffffffffffffffffffffffffffffff1673ffffffffffffffffffffffffffffffffffffffff161461083d57600260009054906101000a900473ffffffffffffffffffffffffffffffffffffffff1691506040518060400160405280600481526020017f4c694669000000000000000000000000000000000000000000000000000000008152509050610954565b600073ffffffffffffffffffffffffffffffffffffffff16600360009054906101000a900473ffffffffffffffffffffffffffffffffffffffff1673ffffffffffffffffffffffffffffffffffffffff16146108f557600360009054906101000a900473ffffffffffffffffffffffffffffffffffffffff1691506040518060400160405280600981526020017f436861696e6c696e6b00000000000000000000000000000000000000000000008152509050610953565b600460009054906101000a900473ffffffffffffffffffffffffffffffffffffffff1691506040518060400160405280600681526020017f437573746f6d000000000000000000000000000000000000000000000000000081525090505b5b610b29565b600073ffffffffffffffffffffffffffffffffffffffff16600360009054906101000a900473ffffffffffffffffffffffffffffffffffffffff1673ffffffffffffffffffffffffffffffffffffffff1614610a1157600360009054906101000a900473ffffffffffffffffffffffffffffffffffffffff1691506040518060400160405280600981526020017f436861696e6c696e6b00000000000000000000000000000000000000000000008152509050610b28565b600073ffffffffffffffffffffffffffffffffffffffff16600260009054906101000a900473ffffffffffffffffffffffffffffffffffffffff1673ffffffffffffffffffffffffffffffffffffffff1614610ac957600260009054906101000a900473ffffffffffffffffffffffffffffffffffffffff1691506040518060400160405280600481526020017f4c694669000000000000000000000000000000000000000000000000000000008152509050610b27565b600460009054906101000a900473ffffffffffffffffffffffffffffffffffffffff1691506040518060400160405280600681526020017f437573746f6d000000000000000000000000000000000000000000000000000081525090505b5b5b6000612710846000015189610b3e9190612cca565b610b489190612d3b565b90506040518060c001604052807f00000000000000000000000000000000000000000000000000000000000000008152602001888152602001828152602001856020015181526020018473ffffffffffffffffffffffffffffffffffffffff168152602001838152509450505050505b949350505050565b610bc8611dcc565b600073ffffffffffffffffffffffffffffffffffffffff168173ffffffffffffffffffffffffffffffffffffffff1603610c37576040517f08c379a0000000000000000000000000000000000000000000000000000000008152600401610c2e90612dc9565b60405180910390fd5b80600260006101000a81548173ffffffffffffffffffffffffffffffffffffffff021916908373ffffffffffffffffffffffffffffffffffffffff1602179055508073ffffffffffffffffffffffffffffffffffffffff167f926c127c5ab07efac944e1c2f1ec6e2517058cb5082414bc11f7bef621e55f8242604051610cbe9190612e35565b60405180910390a250565b600460009054906101000a900473ffffffffffffffffffffffffffffffffffffffff1681565b610cf7611dcc565b80600560006101000a81548173ffffffffffffffffffffffffffffffffffffffff021916908373ffffffffffffffffffffffffffffffffffffffff16021790555050565b60007f0000000000000000000000000000000000000000000000000000000000000000905090565b60076020528060005260406000206000915090508060000154908060010154908060020160009054906101000a900460ff16905083565b610da2611dcc565b80600660006101000a81548173ffffffffffffffffffffffffffffffffffffffff021916908373ffffffffffffffffffffffffffffffffffffffff16021790555050565b7f000000000000000000000000000000000000000000000000000000000000000081565b610e12611dcc565b610e1c6000611e4a565b565b610e26611dcc565b610e2e611944565b60008303610e68576040517f2c5211c600000000000000000000000000000000000000000000000000000000815260040160405180910390fd5b600073ffffffffffffffffffffffffffffffffffffffff168473ffffffffffffffffffffffffffffffffffffffff1603610ece576040517fc1ab6dc100000000000000000000000000000000000000000000000000000000815260040160405180910390fd5b600073ffffffffffffffffffffffffffffffffffffffff168273ffffffffffffffffffffffffffffffffffffffff1603610f34576040517f9c8d2cd200000000000000000000000000000000000000000000000000000000815260040160405180910390fd5b7f00000000000000000000000000000000000000000000000000000000000000008103610f8d576040517f7a47c9a200000000000000000000000000000000000000000000000000000000815260040160405180910390fd5b60008473ffffffffffffffffffffffffffffffffffffffff166370a08231306040518263ffffffff1660e01b8152600401610fc891906126a9565b602060405180830381865afa158015610fe5573d6000803e3d6000fd5b505050506040513d601f19601f820116820180604052508101906110099190612e78565b905083811015611045576040517ff4d678b800000000000000000000000000000000000000000000000000000000815260040160405180910390fd5b600073ffffffffffffffffffffffffffffffffffffffff16600460009054906101000a900473ffffffffffffffffffffffffffffffffffffffff1673ffffffffffffffffffffffffffffffffffffffff16146111d2576110e8600460009054906101000a900473ffffffffffffffffffffffffffffffffffffffff16858773ffffffffffffffffffffffffffffffffffffffff16611f109092919063ffffffff16565b6000600460009054906101000a900473ffffffffffffffffffffffffffffffffffffffff1673ffffffffffffffffffffffffffffffffffffffff16635e583a5a878786886040518563ffffffff1660e01b815260040161114b9493929190612ea5565b6020604051808303816000875af115801561116a573d6000803e3d6000fd5b505050506040513d601f19601f8201168201806040525081019061118e9190612eff565b9050806111d0576040517f3cb530b00000000000000000000000000000000000000000000000000000000081526004016111c790612f78565b60405180910390fd5b505b8273ffffffffffffffffffffffffffffffffffffffff168573ffffffffffffffffffffffffffffffffffffffff167f8b75d72a2e34bbfac4999d13f57663a99b5abc93e57e7e49c3f1f572b2b8458586854260405161123393929190612fe4565b60405180910390a350611244611dc2565b50505050565b600360009054906101000a900473ffffffffffffffffffffffffffffffffffffffff1681565b6000600160009054906101000a900473ffffffffffffffffffffffffffffffffffffffff16905090565b6112a2611dcc565b6112d46112ad611270565b828473ffffffffffffffffffffffffffffffffffffffff1661205f9092919063ffffffff16565b5050565b600260009054906101000a900473ffffffffffffffffffffffffffffffffffffffff1681565b611306611dcc565b600073ffffffffffffffffffffffffffffffffffffffff168173ffffffffffffffffffffffffffffffffffffffff1603611375576040517f08c379a000000000000000000000000000000000000000000000000000000000815260040161136c90612dc9565b60405180910390fd5b80600460006101000a81548173ffffffffffffffffffffffffffffffffffffffff021916908373ffffffffffffffffffffffffffffffffffffffff1602179055508073ffffffffffffffffffffffffffffffffffffffff167f926c127c5ab07efac944e1c2f1ec6e2517058cb5082414bc11f7bef621e55f82426040516113fc919061302e565b60405180910390a250565b61140f611dcc565b604051806060016040528084815260200183815260200182151581525060076000868152602001908152602001600020600082015181600001556020820151816001015560408201518160020160006101000a81548160ff02191690831515021790555090505050505050565b3073ffffffffffffffffffffffffffffffffffffffff163373ffffffffffffffffffffffffffffffffffffffff16146114ea576040517f08c379a00000000000000000000000000000000000000000000000000000000081526004016114e1906130a8565b60405180910390fd5b600073ffffffffffffffffffffffffffffffffffffffff16600560009054906101000a900473ffffffffffffffffffffffffffffffffffffffff1673ffffffffffffffffffffffffffffffffffffffff1603611572576040517f7614917a00000000000000000000000000000000000000000000000000000000815260040160405180910390fd5b6115bf600560009054906101000a900473ffffffffffffffffffffffffffffffffffffffff16848673ffffffffffffffffffffffffffffffffffffffff16611f109092919063ffffffff16565b60006040518061014001604052808486426040516020016115e293929190613131565b6040516020818303038152906040528051906020012081526020016040518060400160405280600381526020017f686f70000000000000000000000000000000000000000000000000000000000081525081526020016040518060400160405280601081526020017f537461626c65636f696e537769746368000000000000000000000000000000008152508152602001600073ffffffffffffffffffffffffffffffffffffffff1681526020018673ffffffffffffffffffffffffffffffffffffffff1681526020018473ffffffffffffffffffffffffffffffffffffffff16815260200160646063876116d79190612cca565b6116e19190612d3b565b8152602001838152602001600015158152602001600015158152509050600560009054906101000a900473ffffffffffffffffffffffffffffffffffffffff1673ffffffffffffffffffffffffffffffffffffffff1663449211be826040518263ffffffff1660e01b815260040161175991906132ae565b600060405180830381600087803b15801561177357600080fd5b505af1158015611787573d6000803e3d6000fd5b505050505050505050565b61179a611dcc565b600073ffffffffffffffffffffffffffffffffffffffff168173ffffffffffffffffffffffffffffffffffffffff1603611809576040517f08c379a000000000000000000000000000000000000000000000000000000000815260040161180090612dc9565b60405180910390fd5b80600360006101000a81548173ffffffffffffffffffffffffffffffffffffffff021916908373ffffffffffffffffffffffffffffffffffffffff1602179055508073ffffffffffffffffffffffffffffffffffffffff167f926c127c5ab07efac944e1c2f1ec6e2517058cb5082414bc11f7bef621e55f8242604051611890919061332f565b60405180910390a250565b6118a3611dcc565b600073ffffffffffffffffffffffffffffffffffffffff168173ffffffffffffffffffffffffffffffffffffffff1603611912576040517f08c379a0000000000000000000000000000000000000000000000000000000008152600401611909906133cf565b60405180910390fd5b61191b81611e4a565b50565b600660009054906101000a900473ffffffffffffffffffffffffffffffffffffffff1681565b600260005403611989576040517f08c379a00000000000000000000000000000000000000000000000000000000081526004016119809061343b565b60405180910390fd5b6002600081905550565b611a16846323b872dd60e01b8585856040516024016119b49392919061345b565b604051602081830303815290604052907bffffffffffffffffffffffffffffffffffffffffffffffffffffffff19166020820180517bffffffffffffffffffffffffffffffffffffffffffffffffffffffff83818316178352505050506120e5565b50505050565b60008073ffffffffffffffffffffffffffffffffffffffff16600260009054906101000a900473ffffffffffffffffffffffffffffffffffffffff1673ffffffffffffffffffffffffffffffffffffffff1614611c51573073ffffffffffffffffffffffffffffffffffffffff1663e8545d4a868686866040518563ffffffff1660e01b8152600401611ab29493929190613492565b600060405180830381600087803b158015611acc57600080fd5b505af1925050508015611add575060015b611be257611ae96134e4565b806308c379a003611b755750611afd613566565b80611b085750611b77565b8373ffffffffffffffffffffffffffffffffffffffff168673ffffffffffffffffffffffffffffffffffffffff167f8cba32c64b7980c8f30a180a58d06366543d17bfeb24f77c90d11ccd3fc8a0758784604051611b6792919061362f565b60405180910390a350611bdd565b505b8273ffffffffffffffffffffffffffffffffffffffff168573ffffffffffffffffffffffffffffffffffffffff167f8cba32c64b7980c8f30a180a58d06366543d17bfeb24f77c90d11ccd3fc8a07586604051611bd491906136ab565b60405180910390a35b611c50565b600190508273ffffffffffffffffffffffffffffffffffffffff168573ffffffffffffffffffffffffffffffffffffffff167f8b75d72a2e34bbfac4999d13f57663a99b5abc93e57e7e49c3f1f572b2b84585868542604051611c47939291906136d9565b60405180910390a35b5b80611dbb57600073ffffffffffffffffffffffffffffffffffffffff16600360009054906101000a900473ffffffffffffffffffffffffffffffffffffffff1673ffffffffffffffffffffffffffffffffffffffff1603611cde576040517f7614917a00000000000000000000000000000000000000000000000000000000815260040160405180910390fd5b8273ffffffffffffffffffffffffffffffffffffffff168573ffffffffffffffffffffffffffffffffffffffff167fb6616963bd75c298b7b4034f16d88a70c5587b30a1e6aab2ce50eb0eeb9234ee8685604051611d3d929190613723565b60405180910390a3611d51858585856121ad565b8273ffffffffffffffffffffffffffffffffffffffff168573ffffffffffffffffffffffffffffffffffffffff167f8b75d72a2e34bbfac4999d13f57663a99b5abc93e57e7e49c3f1f572b2b84585868542604051611db29392919061374c565b60405180910390a35b5050505050565b6001600081905550565b611dd4612447565b73ffffffffffffffffffffffffffffffffffffffff16611df2611270565b73ffffffffffffffffffffffffffffffffffffffff1614611e48576040517f08c379a0000000000000000000000000000000000000000000000000000000008152600401611e3f906137e2565b60405180910390fd5b565b6000600160009054906101000a900473ffffffffffffffffffffffffffffffffffffffff16905081600160006101000a81548173ffffffffffffffffffffffffffffffffffffffff021916908373ffffffffffffffffffffffffffffffffffffffff1602179055508173ffffffffffffffffffffffffffffffffffffffff168173ffffffffffffffffffffffffffffffffffffffff167f8be0079c531659141344cd1fd0a4f28419497f9722a3daafe3b4186f6b6457e060405160405180910390a35050565b6000811480611f9a575060008373ffffffffffffffffffffffffffffffffffffffff1663dd62ed3e30856040518363ffffffff1660e01b8152600401611f57929190613802565b602060405180830381865afa158015611f74573d6000803e3d6000fd5b505050506040513d601f19601f82011682018060405250810190611f989190612e78565b145b611fd9576040517f08c379a0000000000000000000000000000000000000000000000000000000008152600401611fd09061389d565b60405180910390fd5b61205a8363095ea7b360e01b8484604051602401611ff89291906138bd565b604051602081830303815290604052907bffffffffffffffffffffffffffffffffffffffffffffffffffffffff19166020820180517bffffffffffffffffffffffffffffffffffffffffffffffffffffffff83818316178352505050506120e5565b505050565b6120e08363a9059cbb60e01b848460405160240161207e9291906138bd565b604051602081830303815290604052907bffffffffffffffffffffffffffffffffffffffffffffffffffffffff19166020820180517bffffffffffffffffffffffffffffffffffffffffffffffffffffffff83818316178352505050506120e5565b505050565b6000612147826040518060400160405280602081526020017f5361666545524332303a206c6f772d6c6576656c2063616c6c206661696c65648152508573ffffffffffffffffffffffffffffffffffffffff1661244f9092919063ffffffff16565b90506000815114806121695750808060200190518101906121689190612eff565b5b6121a8576040517f08c379a000000000000000000000000000000000000000000000000000000000815260040161219f90613958565b60405180910390fd5b505050565b600073ffffffffffffffffffffffffffffffffffffffff16600660009054906101000a900473ffffffffffffffffffffffffffffffffffffffff1673ffffffffffffffffffffffffffffffffffffffff1603612235576040517f7614917a00000000000000000000000000000000000000000000000000000000815260040160405180910390fd5b612282600660009054906101000a900473ffffffffffffffffffffffffffffffffffffffff16848673ffffffffffffffffffffffffffffffffffffffff16611f109092919063ffffffff16565b6000600167ffffffffffffffff81111561229f5761229e613506565b5b6040519080825280602002602001820160405280156122cd5781602001602082028036833780820191505090505b50905084816000815181106122e5576122e4613978565b5b602002602001019073ffffffffffffffffffffffffffffffffffffffff16908173ffffffffffffffffffffffffffffffffffffffff168152505060006040518060a001604052808560405160200161233d91906126a9565b6040516020818303038152906040528152602001604051806020016040528060008152508152602001838152602001600073ffffffffffffffffffffffffffffffffffffffff168152602001604051806020016040528060008152508152509050600660009054906101000a900473ffffffffffffffffffffffffffffffffffffffff1673ffffffffffffffffffffffffffffffffffffffff16636113829884836040518363ffffffff1660e01b81526004016123fb929190613b59565b6020604051808303816000875af115801561241a573d6000803e3d6000fd5b505050506040513d601f19601f8201168201806040525081019061243e9190613bb5565b50505050505050565b600033905090565b606061245e8484600085612467565b90509392505050565b6060824710156124ac576040517f08c379a00000000000000000000000000000000000000000000000000000000081526004016124a390613c54565b60405180910390fd5b6000808673ffffffffffffffffffffffffffffffffffffffff1685876040516124d59190613cb0565b60006040518083038185875af1925050503d8060008114612512576040519150601f19603f3d011682016040523d82523d6000602084013e612517565b606091505b509150915061252887838387612534565b92505050949350505050565b6060831561259657600083510361258e5761254e856125a9565b61258d576040517f08c379a000000000000000000000000000000000000000000000000000000000815260040161258490613d13565b60405180910390fd5b5b8290506125a1565b6125a083836125cc565b5b949350505050565b6000808273ffffffffffffffffffffffffffffffffffffffff163b119050919050565b6000825111156125df5781518083602001fd5b806040517f08c379a00000000000000000000000000000000000000000000000000000000081526004016126139190613d33565b60405180910390fd5b6040518060c0016040528060008152602001600081526020016000815260200160008152602001600073ffffffffffffffffffffffffffffffffffffffff168152602001606081525090565b600073ffffffffffffffffffffffffffffffffffffffff82169050919050565b600061269382612668565b9050919050565b6126a381612688565b82525050565b60006020820190506126be600083018461269a565b92915050565b6000604051905090565b600080fd5b6126dc81612688565b81146126e757600080fd5b50565b6000813590506126f9816126d3565b92915050565b6000819050919050565b612712816126ff565b811461271d57600080fd5b50565b60008135905061272f81612709565b92915050565b600060ff82169050919050565b61274b81612735565b811461275657600080fd5b50565b60008135905061276881612742565b92915050565b60008060008060808587031215612788576127876126ce565b5b6000612796878288016126ea565b94505060206127a787828801612720565b93505060406127b887828801612720565b92505060606127c987828801612759565b91505092959194509250565b600281106127e257600080fd5b50565b6000813590506127f4816127d5565b92915050565b60008060008060808587031215612814576128136126ce565b5b6000612822878288016126ea565b945050602061283387828801612720565b935050604061284487828801612720565b9250506060612855878288016127e5565b91505092959194509250565b61286a816126ff565b82525050565b61287981612688565b82525050565b600081519050919050565b600082825260208201905092915050565b60005b838110156128b957808201518184015260208101905061289e565b60008484015250505050565b6000601f19601f8301169050919050565b60006128e18261287f565b6128eb818561288a565b93506128fb81856020860161289b565b612904816128c5565b840191505092915050565b600060c0830160008301516129276000860182612861565b50602083015161293a6020860182612861565b50604083015161294d6040860182612861565b5060608301516129606060860182612861565b5060808301516129736080860182612870565b5060a083015184820360a086015261298b82826128d6565b9150508091505092915050565b600060208201905081810360008301526129b2818461290f565b905092915050565b6000602082840312156129d0576129cf6126ce565b5b60006129de848285016126ea565b91505092915050565b6129f0816126ff565b82525050565b6000602082019050612a0b60008301846129e7565b92915050565b600060208284031215612a2757612a266126ce565b5b6000612a3584828501612720565b91505092915050565b60008115159050919050565b612a5381612a3e565b82525050565b6000606082019050612a6e60008301866129e7565b612a7b60208301856129e7565b612a886040830184612a4a565b949350505050565b60008060008060808587031215612aaa57612aa96126ce565b5b6000612ab8878288016126ea565b9450506020612ac987828801612720565b9350506040612ada878288016126ea565b9250506060612aeb87828801612720565b91505092959194509250565b60008060408385031215612b0e57612b0d6126ce565b5b6000612b1c858286016126ea565b9250506020612b2d85828601612720565b9150509250929050565b612b4081612a3e565b8114612b4b57600080fd5b50565b600081359050612b5d81612b37565b92915050565b60008060008060808587031215612b7d57612b7c6126ce565b5b6000612b8b87828801612720565b9450506020612b9c87828801612720565b9350506040612bad87828801612720565b9250506060612bbe87828801612b4e565b91505092959194509250565b7f4e487b7100000000000000000000000000000000000000000000000000000000600052602160045260246000fd5b60028110612c0a57612c09612bca565b5b50565b6000819050612c1b82612bf9565b919050565b6000612c2b82612c0d565b9050919050565b612c3b81612c20565b82525050565b600060a082019050612c5660008301886129e7565b612c6360208301876129e7565b612c706040830186612c32565b8181036060830152612c82818561290f565b9050612c9160808301846129e7565b9695505050505050565b7f4e487b7100000000000000000000000000000000000000000000000000000000600052601160045260246000fd5b6000612cd5826126ff565b9150612ce0836126ff565b9250828202612cee816126ff565b91508282048414831517612d0557612d04612c9b565b5b5092915050565b7f4e487b7100000000000000000000000000000000000000000000000000000000600052601260045260246000fd5b6000612d46826126ff565b9150612d51836126ff565b925082612d6157612d60612d0c565b5b828204905092915050565b600082825260208201905092915050565b7f496e76616c696420616464726573730000000000000000000000000000000000600082015250565b6000612db3600f83612d6c565b9150612dbe82612d7d565b602082019050919050565b60006020820190508181036000830152612de281612da6565b9050919050565b7f4c69466900000000000000000000000000000000000000000000000000000000600082015250565b6000612e1f600483612d6c565b9150612e2a82612de9565b602082019050919050565b60006040820190508181036000830152612e4e81612e12565b9050612e5d60208301846129e7565b92915050565b600081519050612e7281612709565b92915050565b600060208284031215612e8e57612e8d6126ce565b5b6000612e9c84828501612e63565b91505092915050565b6000608082019050612eba600083018761269a565b612ec760208301866129e7565b612ed460408301856129e7565b612ee1606083018461269a565b95945050505050565b600081519050612ef981612b37565b92915050565b600060208284031215612f1557612f146126ce565b5b6000612f2384828501612eea565b91505092915050565b7f437573746f6d20627269646765206661696c6564000000000000000000000000600082015250565b6000612f62601483612d6c565b9150612f6d82612f2c565b602082019050919050565b60006020820190508181036000830152612f9181612f55565b9050919050565b7f437573746f6d0000000000000000000000000000000000000000000000000000600082015250565b6000612fce600683612d6c565b9150612fd982612f98565b602082019050919050565b6000608082019050612ff960008301866129e7565b61300660208301856129e7565b818103604083015261301781612fc1565b905061302660608301846129e7565b949350505050565b6000604082019050818103600083015261304781612fc1565b905061305660208301846129e7565b92915050565b7f496e7465726e616c206f6e6c7900000000000000000000000000000000000000600082015250565b6000613092600d83612d6c565b915061309d8261305c565b602082019050919050565b600060208201905081810360008301526130c181613085565b9050919050565b60008160601b9050919050565b60006130e0826130c8565b9050919050565b60006130f2826130d5565b9050919050565b61310a61310582612688565b6130e7565b82525050565b6000819050919050565b61312b613126826126ff565b613110565b82525050565b600061313d82866130f9565b60148201915061314d828561311a565b60208201915061315d828461311a565b602082019150819050949350505050565b6000819050919050565b6131818161316e565b82525050565b61319081612a3e565b82525050565b6000610140830160008301516131af6000860182613178565b50602083015184820360208601526131c782826128d6565b915050604083015184820360408601526131e182826128d6565b91505060608301516131f66060860182612870565b5060808301516132096080860182612870565b5060a083015161321c60a0860182612870565b5060c083015161322f60c0860182612861565b5060e083015161324260e0860182612861565b50610100830151613257610100860182613187565b5061012083015161326c610120860182613187565b508091505092915050565b600082825260208201905092915050565b50565b6000613298600083613277565b91506132a382613288565b600082019050919050565b600060408201905081810360008301526132c88184613196565b905081810360208301526132db8161328b565b905092915050565b7f436861696e6c696e6b0000000000000000000000000000000000000000000000600082015250565b6000613319600983612d6c565b9150613324826132e3565b602082019050919050565b600060408201905081810360008301526133488161330c565b905061335760208301846129e7565b92915050565b7f4f776e61626c653a206e6577206f776e657220697320746865207a65726f206160008201527f6464726573730000000000000000000000000000000000000000000000000000602082015250565b60006133b9602683612d6c565b91506133c48261335d565b604082019050919050565b600060208201905081810360008301526133e8816133ac565b9050919050565b7f5265656e7472616e637947756172643a207265656e7472616e742063616c6c00600082015250565b6000613425601f83612d6c565b9150613430826133ef565b602082019050919050565b6000602082019050818103600083015261345481613418565b9050919050565b6000606082019050613470600083018661269a565b61347d602083018561269a565b61348a60408301846129e7565b949350505050565b60006080820190506134a7600083018761269a565b6134b460208301866129e7565b6134c1604083018561269a565b6134ce60608301846129e7565b95945050505050565b60008160e01c9050919050565b600060033d11156135035760046000803e6135006000516134d7565b90505b90565b7f4e487b7100000000000000000000000000000000000000000000000000000000600052604160045260246000fd5b61353e826128c5565b810181811067ffffffffffffffff8211171561355d5761355c613506565b5b80604052505050565b600060443d106135f3576135786126c4565b60043d036004823e80513d602482011167ffffffffffffffff821117156135a05750506135f3565b808201805167ffffffffffffffff8111156135be57505050506135f3565b80602083010160043d0385018111156135db5750505050506135f3565b6135ea82602001850186613535565b82955050505050505b90565b60006136018261287f565b61360b8185612d6c565b935061361b81856020860161289b565b613624816128c5565b840191505092915050565b600060408201905061364460008301856129e7565b818103602083015261365681846135f6565b90509392505050565b7f556e6b6e6f776e206572726f7200000000000000000000000000000000000000600082015250565b6000613695600d83612d6c565b91506136a08261365f565b602082019050919050565b60006040820190506136c060008301846129e7565b81810360208301526136d181613688565b905092915050565b60006080820190506136ee60008301866129e7565b6136fb60208301856129e7565b818103604083015261370c81612e12565b905061371b60608301846129e7565b949350505050565b600060408201905061373860008301856129e7565b61374560208301846129e7565b9392505050565b600060808201905061376160008301866129e7565b61376e60208301856129e7565b818103604083015261377f8161330c565b905061378e60608301846129e7565b949350505050565b7f4f776e61626c653a2063616c6c6572206973206e6f7420746865206f776e6572600082015250565b60006137cc602083612d6c565b91506137d782613796565b602082019050919050565b600060208201905081810360008301526137fb816137bf565b9050919050565b6000604082019050613817600083018561269a565b613824602083018461269a565b9392505050565b7f5361666545524332303a20617070726f76652066726f6d206e6f6e2d7a65726f60008201527f20746f206e6f6e2d7a65726f20616c6c6f77616e636500000000000000000000602082015250565b6000613887603683612d6c565b91506138928261382b565b604082019050919050565b600060208201905081810360008301526138b68161387a565b9050919050565b60006040820190506138d2600083018561269a565b6138df60208301846129e7565b9392505050565b7f5361666545524332303a204552433230206f7065726174696f6e20646964206e60008201527f6f74207375636365656400000000000000000000000000000000000000000000602082015250565b6000613942602a83612d6c565b915061394d826138e6565b604082019050919050565b6000602082019050818103600083015261397181613935565b9050919050565b7f4e487b7100000000000000000000000000000000000000000000000000000000600052603260045260246000fd5b600067ffffffffffffffff82169050919050565b6139c4816139a7565b82525050565b600081519050919050565b600082825260208201905092915050565b60006139f1826139ca565b6139fb81856139d5565b9350613a0b81856020860161289b565b613a14816128c5565b840191505092915050565b600081519050919050565b600082825260208201905092915050565b6000819050602082019050919050565b6000613a578383612870565b60208301905092915050565b6000602082019050919050565b6000613a7b82613a1f565b613a858185613a2a565b9350613a9083613a3b565b8060005b83811015613ac1578151613aa88882613a4b565b9750613ab383613a63565b925050600181019050613a94565b5085935050505092915050565b600060a0830160008301518482036000860152613aeb82826139e6565b91505060208301518482036020860152613b0582826139e6565b91505060408301518482036040860152613b1f8282613a70565b9150506060830151613b346060860182612870565b5060808301518482036080860152613b4c82826139e6565b9150508091505092915050565b6000604082019050613b6e60008301856139bb565b8181036020830152613b808184613ace565b90509392505050565b613b928161316e565b8114613b9d57600080fd5b50565b600081519050613baf81613b89565b92915050565b600060208284031215613bcb57613bca6126ce565b5b6000613bd984828501613ba0565b91505092915050565b7f416464726573733a20696e73756666696369656e742062616c616e636520666f60008201527f722063616c6c0000000000000000000000000000000000000000000000000000602082015250565b6000613c3e602683612d6c565b9150613c4982613be2565b604082019050919050565b60006020820190508181036000830152613c6d81613c31565b9050919050565b600081905092915050565b6000613c8a826139ca565b613c948185613c74565b9350613ca481856020860161289b565b80840191505092915050565b6000613cbc8284613c7f565b915081905092915050565b7f416464726573733a2063616c6c20746f206e6f6e2d636f6e7472616374000000600082015250565b6000613cfd601d83612d6c565b9150613d0882613cc7565b602082019050919050565b60006020820190508181036000830152613d2c81613cf0565b9050919050565b60006020820190508181036000830152613d4d81846135f6565b90509291505056fea2646970667358221220031d093f43695d170b176cab0f7995f682e1de41514e61376503a900686ed93064736f6c63430008140033","opcodes":"PUSH1 0xA0 PUSH1 0x40 MSTORE CALLVALUE DUP1 ISZERO PUSH3 0x11 JUMPI PUSH1 0x0 DUP1 REVERT JUMPDEST POP PUSH1 0x1 PUSH1 0x0 DUP2 SWAP1 SSTORE POP PUSH3 0x3A PUSH3 0x2E PUSH3 0x18C PUSH1 0x20 SHL PUSH1 0x20 SHR JUMP JUMPDEST PUSH3 0x194 PUSH1 0x20 SHL PUSH1 0x20 SHR JUMP JUMPDEST CHAINID PUSH1 0x80 DUP2 DUP2 MSTORE POP POP PUSH1 0x40 MLOAD DUP1 PUSH1 0x60 ADD PUSH1 0x40 MSTORE DUP1 PUSH1 0x1E DUP2 MSTORE PUSH1 0x20 ADD PUSH2 0x258 DUP2 MSTORE PUSH1 0x20 ADD PUSH1 0x1 ISZERO ISZERO DUP2 MSTORE POP PUSH1 0x7 PUSH1 0x0 PUSH1 0x1 DUP2 MSTORE PUSH1 0x20 ADD SWAP1 DUP2 MSTORE PUSH1 0x20 ADD PUSH1 0x0 KECCAK256 PUSH1 0x0 DUP3 ADD MLOAD DUP2 PUSH1 0x0 ADD SSTORE PUSH1 0x20 DUP3 ADD MLOAD DUP2 PUSH1 0x1 ADD SSTORE PUSH1 0x40 DUP3 ADD MLOAD DUP2 PUSH1 0x2 ADD PUSH1 0x0 PUSH2 0x100 EXP DUP2 SLOAD DUP2 PUSH1 0xFF MUL NOT AND SWAP1 DUP4 ISZERO ISZERO MUL OR SWAP1 SSTORE POP SWAP1 POP POP PUSH1 0x40 MLOAD DUP1 PUSH1 0x60 ADD PUSH1 0x40 MSTORE DUP1 PUSH1 0x14 DUP2 MSTORE PUSH1 0x20 ADD PUSH2 0x12C DUP2 MSTORE PUSH1 0x20 ADD PUSH1 0x1 ISZERO ISZERO DUP2 MSTORE POP PUSH1 0x7 PUSH1 0x0 PUSH1 0x89 DUP2 MSTORE PUSH1 0x20 ADD SWAP1 DUP2 MSTORE PUSH1 0x20 ADD PUSH1 0x0 KECCAK256 PUSH1 0x0 DUP3 ADD MLOAD DUP2 PUSH1 0x0 ADD SSTORE PUSH1 0x20 DUP3 ADD MLOAD DUP2 PUSH1 0x1 ADD SSTORE PUSH1 0x40 DUP3 ADD MLOAD DUP2 PUSH1 0x2 ADD PUSH1 0x0 PUSH2 0x100 EXP DUP2 SLOAD DUP2 PUSH1 0xFF MUL NOT AND SWAP1 DUP4 ISZERO ISZERO MUL OR SWAP1 SSTORE POP SWAP1 POP POP PUSH1 0x40 MLOAD DUP1 PUSH1 0x60 ADD PUSH1 0x40 MSTORE DUP1 PUSH1 0x19 DUP2 MSTORE PUSH1 0x20 ADD PUSH2 0x190 DUP2 MSTORE PUSH1 0x20 ADD PUSH1 0x1 ISZERO ISZERO DUP2 MSTORE POP PUSH1 0x7 PUSH1 0x0 PUSH1 0xA DUP2 MSTORE PUSH1 0x20 ADD SWAP1 DUP2 MSTORE PUSH1 0x20 ADD PUSH1 0x0 KECCAK256 PUSH1 0x0 DUP3 ADD MLOAD DUP2 PUSH1 0x0 ADD SSTORE PUSH1 0x20 DUP3 ADD MLOAD DUP2 PUSH1 0x1 ADD SSTORE PUSH1 0x40 DUP3 ADD MLOAD DUP2 PUSH1 0x2 ADD PUSH1 0x0 PUSH2 0x100 EXP DUP2 SLOAD DUP2 PUSH1 0xFF MUL NOT AND SWAP1 DUP4 ISZERO ISZERO MUL OR SWAP1 SSTORE POP SWAP1 POP POP PUSH3 0x25A JUMP JUMPDEST PUSH1 0x0 CALLER SWAP1 POP SWAP1 JUMP JUMPDEST PUSH1 0x0 PUSH1 0x1 PUSH1 0x0 SWAP1 SLOAD SWAP1 PUSH2 0x100 EXP SWAP1 DIV PUSH20 0xFFFFFFFFFFFFFFFFFFFFFFFFFFFFFFFFFFFFFFFF AND SWAP1 POP DUP2 PUSH1 0x1 PUSH1 0x0 PUSH2 0x100 EXP DUP2 SLOAD DUP2 PUSH20 0xFFFFFFFFFFFFFFFFFFFFFFFFFFFFFFFFFFFFFFFF MUL NOT AND SWAP1 DUP4 PUSH20 0xFFFFFFFFFFFFFFFFFFFFFFFFFFFFFFFFFFFFFFFF AND MUL OR SWAP1 SSTORE POP DUP2 PUSH20 0xFFFFFFFFFFFFFFFFFFFFFFFFFFFFFFFFFFFFFFFF AND DUP2 PUSH20 0xFFFFFFFFFFFFFFFFFFFFFFFFFFFFFFFFFFFFFFFF AND PUSH32 0x8BE0079C531659141344CD1FD0A4F28419497F9722A3DAAFE3B4186F6B6457E0 PUSH1 0x40 MLOAD PUSH1 0x40 MLOAD DUP1 SWAP2 SUB SWAP1 LOG3 POP POP JUMP JUMPDEST PUSH1 0x80 MLOAD PUSH2 0x3D8B PUSH3 0x292 PUSH1 0x0 CODECOPY PUSH1 0x0 DUP2 DUP2 PUSH2 0x4A7 ADD MSTORE DUP2 DUP2 PUSH2 0xB57 ADD MSTORE DUP2 DUP2 PUSH2 0xD3F ADD MSTORE DUP2 DUP2 PUSH2 0xDE8 ADD MSTORE PUSH2 0xF36 ADD MSTORE PUSH2 0x3D8B PUSH1 0x0 RETURN INVALID PUSH1 0x80 PUSH1 0x40 MSTORE CALLVALUE DUP1 ISZERO PUSH2 0x10 JUMPI PUSH1 0x0 DUP1 REVERT JUMPDEST POP PUSH1 0x4 CALLDATASIZE LT PUSH2 0x142 JUMPI PUSH1 0x0 CALLDATALOAD PUSH1 0xE0 SHR DUP1 PUSH4 0x72E40CD9 GT PUSH2 0xB8 JUMPI DUP1 PUSH4 0xBFE43102 GT PUSH2 0x7C JUMPI DUP1 PUSH4 0xBFE43102 EQ PUSH2 0x32D JUMPI DUP1 PUSH4 0xC85FCA75 EQ PUSH2 0x349 JUMPI DUP1 PUSH4 0xE8545D4A EQ PUSH2 0x365 JUMPI DUP1 PUSH4 0xE9B959C5 EQ PUSH2 0x381 JUMPI DUP1 PUSH4 0xF2FDE38B EQ PUSH2 0x39D JUMPI DUP1 PUSH4 0xF8281840 EQ PUSH2 0x3B9 JUMPI PUSH2 0x142 JUMP JUMPDEST DUP1 PUSH4 0x72E40CD9 EQ PUSH2 0x29B JUMPI DUP1 PUSH4 0x8199921C EQ PUSH2 0x2B7 JUMPI DUP1 PUSH4 0x8DA5CB5B EQ PUSH2 0x2D5 JUMPI DUP1 PUSH4 0x95CCEA67 EQ PUSH2 0x2F3 JUMPI DUP1 PUSH4 0xAE9D8D66 EQ PUSH2 0x30F JUMPI PUSH2 0x142 JUMP JUMPDEST DUP1 PUSH4 0x575B3FC6 GT PUSH2 0x10A JUMPI DUP1 PUSH4 0x575B3FC6 EQ PUSH2 0x1EB JUMPI DUP1 PUSH4 0x5CF0E8A4 EQ PUSH2 0x207 JUMPI DUP1 PUSH4 0x5FBFCDC9 EQ PUSH2 0x225 JUMPI DUP1 PUSH4 0x60AD2526 EQ PUSH2 0x257 JUMPI DUP1 PUSH4 0x6CBADBFA EQ PUSH2 0x273 JUMPI DUP1 PUSH4 0x715018A6 EQ PUSH2 0x291 JUMPI PUSH2 0x142 JUMP JUMPDEST DUP1 PUSH4 0x3265C04 EQ PUSH2 0x147 JUMPI DUP1 PUSH4 0x2BC76C41 EQ PUSH2 0x165 JUMPI DUP1 PUSH4 0x301D5AF9 EQ PUSH2 0x181 JUMPI DUP1 PUSH4 0x321F49A8 EQ PUSH2 0x1B1 JUMPI DUP1 PUSH4 0x47503089 EQ PUSH2 0x1CD JUMPI JUMPDEST PUSH1 0x0 DUP1 REVERT JUMPDEST PUSH2 0x14F PUSH2 0x3D7 JUMP JUMPDEST PUSH1 0x40 MLOAD PUSH2 0x15C SWAP2 SWAP1 PUSH2 0x26A9 JUMP JUMPDEST PUSH1 0x40 MLOAD DUP1 SWAP2 SUB SWAP1 RETURN JUMPDEST PUSH2 0x17F PUSH1 0x4 DUP1 CALLDATASIZE SUB DUP2 ADD SWAP1 PUSH2 0x17A SWAP2 SWAP1 PUSH2 0x276E JUMP JUMPDEST PUSH2 0x3FD JUMP JUMPDEST STOP JUMPDEST PUSH2 0x19B PUSH1 0x4 DUP1 CALLDATASIZE SUB DUP2 ADD SWAP1 PUSH2 0x196 SWAP2 SWAP1 PUSH2 0x27FA JUMP JUMPDEST PUSH2 0x695 JUMP JUMPDEST PUSH1 0x40 MLOAD PUSH2 0x1A8 SWAP2 SWAP1 PUSH2 0x2998 JUMP JUMPDEST PUSH1 0x40 MLOAD DUP1 SWAP2 SUB SWAP1 RETURN JUMPDEST PUSH2 0x1CB PUSH1 0x4 DUP1 CALLDATASIZE SUB DUP2 ADD SWAP1 PUSH2 0x1C6 SWAP2 SWAP1 PUSH2 0x29BA JUMP JUMPDEST PUSH2 0xBC0 JUMP JUMPDEST STOP JUMPDEST PUSH2 0x1D5 PUSH2 0xCC9 JUMP JUMPDEST PUSH1 0x40 MLOAD PUSH2 0x1E2 SWAP2 SWAP1 PUSH2 0x26A9 JUMP JUMPDEST PUSH1 0x40 MLOAD DUP1 SWAP2 SUB SWAP1 RETURN JUMPDEST PUSH2 0x205 PUSH1 0x4 DUP1 CALLDATASIZE SUB DUP2 ADD SWAP1 PUSH2 0x200 SWAP2 SWAP1 PUSH2 0x29BA JUMP JUMPDEST PUSH2 0xCEF JUMP JUMPDEST STOP JUMPDEST PUSH2 0x20F PUSH2 0xD3B JUMP JUMPDEST PUSH1 0x40 MLOAD PUSH2 0x21C SWAP2 SWAP1 PUSH2 0x29F6 JUMP JUMPDEST PUSH1 0x40 MLOAD DUP1 SWAP2 SUB SWAP1 RETURN JUMPDEST PUSH2 0x23F PUSH1 0x4 DUP1 CALLDATASIZE SUB DUP2 ADD SWAP1 PUSH2 0x23A SWAP2 SWAP1 PUSH2 0x2A11 JUMP JUMPDEST PUSH2 0xD63 JUMP JUMPDEST PUSH1 0x40 MLOAD PUSH2 0x24E SWAP4 SWAP3 SWAP2 SWAP1 PUSH2 0x2A59 JUMP JUMPDEST PUSH1 0x40 MLOAD DUP1 SWAP2 SUB SWAP1 RETURN JUMPDEST PUSH2 0x271 PUSH1 0x4 DUP1 CALLDATASIZE SUB DUP2 ADD SWAP1 PUSH2 0x26C SWAP2 SWAP1 PUSH2 0x29BA JUMP JUMPDEST PUSH2 0xD9A JUMP JUMPDEST STOP JUMPDEST PUSH2 0x27B PUSH2 0xDE6 JUMP JUMPDEST PUSH1 0x40 MLOAD PUSH2 0x288 SWAP2 SWAP1 PUSH2 0x29F6 JUMP JUMPDEST PUSH1 0x40 MLOAD DUP1 SWAP2 SUB SWAP1 RETURN JUMPDEST PUSH2 0x299 PUSH2 0xE0A JUMP JUMPDEST STOP JUMPDEST PUSH2 0x2B5 PUSH1 0x4 DUP1 CALLDATASIZE SUB DUP2 ADD SWAP1 PUSH2 0x2B0 SWAP2 SWAP1 PUSH2 0x2A90 JUMP JUMPDEST PUSH2 0xE1E JUMP JUMPDEST STOP JUMPDEST PUSH2 0x2BF PUSH2 0x124A JUMP JUMPDEST PUSH1 0x40 MLOAD PUSH2 0x2CC SWAP2 SWAP1 PUSH2 0x26A9 JUMP JUMPDEST PUSH1 0x40 MLOAD DUP1 SWAP2 SUB SWAP1 RETURN JUMPDEST PUSH2 0x2DD PUSH2 0x1270 JUMP JUMPDEST PUSH1 0x40 MLOAD PUSH2 0x2EA SWAP2 SWAP1 PUSH2 0x26A9 JUMP JUMPDEST PUSH1 0x40 MLOAD DUP1 SWAP2 SUB SWAP1 RETURN JUMPDEST PUSH2 0x30D PUSH1 0x4 DUP1 CALLDATASIZE SUB DUP2 ADD SWAP1 PUSH2 0x308 SWAP2 SWAP1 PUSH2 0x2AF7 JUMP JUMPDEST PUSH2 0x129A JUMP JUMPDEST STOP JUMPDEST PUSH2 0x317 PUSH2 0x12D8 JUMP JUMPDEST PUSH1 0x40 MLOAD PUSH2 0x324 SWAP2 SWAP1 PUSH2 0x26A9 JUMP JUMPDEST PUSH1 0x40 MLOAD DUP1 SWAP2 SUB SWAP1 RETURN JUMPDEST PUSH2 0x347 PUSH1 0x4 DUP1 CALLDATASIZE SUB DUP2 ADD SWAP1 PUSH2 0x342 SWAP2 SWAP1 PUSH2 0x29BA JUMP JUMPDEST PUSH2 0x12FE JUMP JUMPDEST STOP JUMPDEST PUSH2 0x363 PUSH1 0x4 DUP1 CALLDATASIZE SUB DUP2 ADD SWAP1 PUSH2 0x35E SWAP2 SWAP1 PUSH2 0x2B63 JUMP JUMPDEST PUSH2 0x1407 JUMP JUMPDEST STOP JUMPDEST PUSH2 0x37F PUSH1 0x4 DUP1 CALLDATASIZE SUB DUP2 ADD SWAP1 PUSH2 0x37A SWAP2 SWAP1 PUSH2 0x2A90 JUMP JUMPDEST PUSH2 0x147C JUMP JUMPDEST STOP JUMPDEST PUSH2 0x39B PUSH1 0x4 DUP1 CALLDATASIZE SUB DUP2 ADD SWAP1 PUSH2 0x396 SWAP2 SWAP1 PUSH2 0x29BA JUMP JUMPDEST PUSH2 0x1792 JUMP JUMPDEST STOP JUMPDEST PUSH2 0x3B7 PUSH1 0x4 DUP1 CALLDATASIZE SUB DUP2 ADD SWAP1 PUSH2 0x3B2 SWAP2 SWAP1 PUSH2 0x29BA JUMP JUMPDEST PUSH2 0x189B JUMP JUMPDEST STOP JUMPDEST PUSH2 0x3C1 PUSH2 0x191E JUMP JUMPDEST PUSH1 0x40 MLOAD PUSH2 0x3CE SWAP2 SWAP1 PUSH2 0x26A9 JUMP JUMPDEST PUSH1 0x40 MLOAD DUP1 SWAP2 SUB SWAP1 RETURN JUMPDEST PUSH1 0x5 PUSH1 0x0 SWAP1 SLOAD SWAP1 PUSH2 0x100 EXP SWAP1 DIV PUSH20 0xFFFFFFFFFFFFFFFFFFFFFFFFFFFFFFFFFFFFFFFF AND DUP2 JUMP JUMPDEST PUSH2 0x405 PUSH2 0x1944 JUMP JUMPDEST PUSH1 0x0 DUP4 SUB PUSH2 0x43F JUMPI PUSH1 0x40 MLOAD PUSH32 0x2C5211C600000000000000000000000000000000000000000000000000000000 DUP2 MSTORE PUSH1 0x4 ADD PUSH1 0x40 MLOAD DUP1 SWAP2 SUB SWAP1 REVERT JUMPDEST PUSH1 0x0 PUSH20 0xFFFFFFFFFFFFFFFFFFFFFFFFFFFFFFFFFFFFFFFF AND DUP5 PUSH20 0xFFFFFFFFFFFFFFFFFFFFFFFFFFFFFFFFFFFFFFFF AND SUB PUSH2 0x4A5 JUMPI PUSH1 0x40 MLOAD PUSH32 0xC1AB6DC100000000000000000000000000000000000000000000000000000000 DUP2 MSTORE PUSH1 0x4 ADD PUSH1 0x40 MLOAD DUP1 SWAP2 SUB SWAP1 REVERT JUMPDEST PUSH32 0x0 DUP3 SUB PUSH2 0x4FE JUMPI PUSH1 0x40 MLOAD PUSH32 0x7A47C9A200000000000000000000000000000000000000000000000000000000 DUP2 MSTORE PUSH1 0x4 ADD PUSH1 0x40 MLOAD DUP1 SWAP2 SUB SWAP1 REVERT JUMPDEST PUSH1 0x1 DUP2 PUSH1 0xFF AND GT ISZERO PUSH2 0x53C JUMPI PUSH1 0x40 MLOAD PUSH32 0x6AE0276000000000000000000000000000000000000000000000000000000000 DUP2 MSTORE PUSH1 0x4 ADD PUSH1 0x40 MLOAD DUP1 SWAP2 SUB SWAP1 REVERT JUMPDEST PUSH1 0x0 PUSH2 0x55F DUP6 DUP6 DUP6 DUP6 PUSH1 0xFF AND PUSH1 0x1 DUP2 GT ISZERO PUSH2 0x55A JUMPI PUSH2 0x559 PUSH2 0x2BCA JUMP JUMPDEST JUMPDEST PUSH2 0x695 JUMP JUMPDEST SWAP1 POP PUSH1 0x0 PUSH20 0xFFFFFFFFFFFFFFFFFFFFFFFFFFFFFFFFFFFFFFFF AND DUP2 PUSH1 0x80 ADD MLOAD PUSH20 0xFFFFFFFFFFFFFFFFFFFFFFFFFFFFFFFFFFFFFFFF AND SUB PUSH2 0x5CB JUMPI PUSH1 0x40 MLOAD PUSH32 0x8034B6E500000000000000000000000000000000000000000000000000000000 DUP2 MSTORE PUSH1 0x4 ADD PUSH1 0x40 MLOAD DUP1 SWAP2 SUB SWAP1 REVERT JUMPDEST PUSH2 0x5F8 CALLER ADDRESS DUP7 DUP9 PUSH20 0xFFFFFFFFFFFFFFFFFFFFFFFFFFFFFFFFFFFFFFFF AND PUSH2 0x1993 SWAP1 SWAP4 SWAP3 SWAP2 SWAP1 PUSH4 0xFFFFFFFF AND JUMP JUMPDEST DUP5 PUSH20 0xFFFFFFFFFFFFFFFFFFFFFFFFFFFFFFFFFFFFFFFF AND CALLER PUSH20 0xFFFFFFFFFFFFFFFFFFFFFFFFFFFFFFFFFFFFFFFF AND PUSH32 0x93ADF60A12F02800DC28BDC7F5F9B22C5FC4D4D8425999FED4F4F8586D8B3F61 DUP7 DUP7 DUP7 PUSH1 0xFF AND PUSH1 0x1 DUP2 GT ISZERO PUSH2 0x65F JUMPI PUSH2 0x65E PUSH2 0x2BCA JUMP JUMPDEST JUMPDEST DUP7 TIMESTAMP PUSH1 0x40 MLOAD PUSH2 0x672 SWAP6 SWAP5 SWAP4 SWAP3 SWAP2 SWAP1 PUSH2 0x2C41 JUMP JUMPDEST PUSH1 0x40 MLOAD DUP1 SWAP2 SUB SWAP1 LOG3 PUSH2 0x686 DUP6 DUP6 CALLER DUP7 PUSH2 0x1A1C JUMP JUMPDEST POP PUSH2 0x68F PUSH2 0x1DC2 JUMP JUMPDEST POP POP POP POP JUMP JUMPDEST PUSH2 0x69D PUSH2 0x261C JUMP JUMPDEST PUSH1 0x0 PUSH1 0x7 PUSH1 0x0 DUP6 DUP2 MSTORE PUSH1 0x20 ADD SWAP1 DUP2 MSTORE PUSH1 0x20 ADD PUSH1 0x0 KECCAK256 PUSH1 0x40 MLOAD DUP1 PUSH1 0x60 ADD PUSH1 0x40 MSTORE SWAP1 DUP2 PUSH1 0x0 DUP3 ADD SLOAD DUP2 MSTORE PUSH1 0x20 ADD PUSH1 0x1 DUP3 ADD SLOAD DUP2 MSTORE PUSH1 0x20 ADD PUSH1 0x2 DUP3 ADD PUSH1 0x0 SWAP1 SLOAD SWAP1 PUSH2 0x100 EXP SWAP1 DIV PUSH1 0xFF AND ISZERO ISZERO ISZERO ISZERO DUP2 MSTORE POP POP SWAP1 POP DUP1 PUSH1 0x40 ADD MLOAD PUSH2 0x756 JUMPI PUSH1 0x40 MLOAD DUP1 PUSH1 0xC0 ADD PUSH1 0x40 MSTORE DUP1 PUSH1 0x0 DUP2 MSTORE PUSH1 0x20 ADD PUSH1 0x0 DUP2 MSTORE PUSH1 0x20 ADD PUSH1 0x0 DUP2 MSTORE PUSH1 0x20 ADD PUSH1 0x0 DUP2 MSTORE PUSH1 0x20 ADD PUSH1 0x0 PUSH20 0xFFFFFFFFFFFFFFFFFFFFFFFFFFFFFFFFFFFFFFFF AND DUP2 MSTORE PUSH1 0x20 ADD PUSH1 0x40 MLOAD DUP1 PUSH1 0x20 ADD PUSH1 0x40 MSTORE DUP1 PUSH1 0x0 DUP2 MSTORE POP DUP2 MSTORE POP SWAP2 POP POP PUSH2 0xBB8 JUMP JUMPDEST PUSH1 0x0 PUSH1 0x60 PUSH1 0x1 DUP1 DUP2 GT ISZERO PUSH2 0x76D JUMPI PUSH2 0x76C PUSH2 0x2BCA JUMP JUMPDEST JUMPDEST DUP6 PUSH1 0x1 DUP2 GT ISZERO PUSH2 0x780 JUMPI PUSH2 0x77F PUSH2 0x2BCA JUMP JUMPDEST JUMPDEST SUB PUSH2 0x959 JUMPI PUSH1 0x0 PUSH20 0xFFFFFFFFFFFFFFFFFFFFFFFFFFFFFFFFFFFFFFFF AND PUSH1 0x2 PUSH1 0x0 SWAP1 SLOAD SWAP1 PUSH2 0x100 EXP SWAP1 DIV PUSH20 0xFFFFFFFFFFFFFFFFFFFFFFFFFFFFFFFFFFFFFFFF AND PUSH20 0xFFFFFFFFFFFFFFFFFFFFFFFFFFFFFFFFFFFFFFFF AND EQ PUSH2 0x83D JUMPI PUSH1 0x2 PUSH1 0x0 SWAP1 SLOAD SWAP1 PUSH2 0x100 EXP SWAP1 DIV PUSH20 0xFFFFFFFFFFFFFFFFFFFFFFFFFFFFFFFFFFFFFFFF AND SWAP2 POP PUSH1 0x40 MLOAD DUP1 PUSH1 0x40 ADD PUSH1 0x40 MSTORE DUP1 PUSH1 0x4 DUP2 MSTORE PUSH1 0x20 ADD PUSH32 0x4C69466900000000000000000000000000000000000000000000000000000000 DUP2 MSTORE POP SWAP1 POP PUSH2 0x954 JUMP JUMPDEST PUSH1 0x0 PUSH20 0xFFFFFFFFFFFFFFFFFFFFFFFFFFFFFFFFFFFFFFFF AND PUSH1 0x3 PUSH1 0x0 SWAP1 SLOAD SWAP1 PUSH2 0x100 EXP SWAP1 DIV PUSH20 0xFFFFFFFFFFFFFFFFFFFFFFFFFFFFFFFFFFFFFFFF AND PUSH20 0xFFFFFFFFFFFFFFFFFFFFFFFFFFFFFFFFFFFFFFFF AND EQ PUSH2 0x8F5 JUMPI PUSH1 0x3 PUSH1 0x0 SWAP1 SLOAD SWAP1 PUSH2 0x100 EXP SWAP1 DIV PUSH20 0xFFFFFFFFFFFFFFFFFFFFFFFFFFFFFFFFFFFFFFFF AND SWAP2 POP PUSH1 0x40 MLOAD DUP1 PUSH1 0x40 ADD PUSH1 0x40 MSTORE DUP1 PUSH1 0x9 DUP2 MSTORE PUSH1 0x20 ADD PUSH32 0x436861696E6C696E6B0000000000000000000000000000000000000000000000 DUP2 MSTORE POP SWAP1 POP PUSH2 0x953 JUMP JUMPDEST PUSH1 0x4 PUSH1 0x0 SWAP1 SLOAD SWAP1 PUSH2 0x100 EXP SWAP1 DIV PUSH20 0xFFFFFFFFFFFFFFFFFFFFFFFFFFFFFFFFFFFFFFFF AND SWAP2 POP PUSH1 0x40 MLOAD DUP1 PUSH1 0x40 ADD PUSH1 0x40 MSTORE DUP1 PUSH1 0x6 DUP2 MSTORE PUSH1 0x20 ADD PUSH32 0x437573746F6D0000000000000000000000000000000000000000000000000000 DUP2 MSTORE POP SWAP1 POP JUMPDEST JUMPDEST PUSH2 0xB29 JUMP JUMPDEST PUSH1 0x0 PUSH20 0xFFFFFFFFFFFFFFFFFFFFFFFFFFFFFFFFFFFFFFFF AND PUSH1 0x3 PUSH1 0x0 SWAP1 SLOAD SWAP1 PUSH2 0x100 EXP SWAP1 DIV PUSH20 0xFFFFFFFFFFFFFFFFFFFFFFFFFFFFFFFFFFFFFFFF AND PUSH20 0xFFFFFFFFFFFFFFFFFFFFFFFFFFFFFFFFFFFFFFFF AND EQ PUSH2 0xA11 JUMPI PUSH1 0x3 PUSH1 0x0 SWAP1 SLOAD SWAP1 PUSH2 0x100 EXP SWAP1 DIV PUSH20 0xFFFFFFFFFFFFFFFFFFFFFFFFFFFFFFFFFFFFFFFF AND SWAP2 POP PUSH1 0x40 MLOAD DUP1 PUSH1 0x40 ADD PUSH1 0x40 MSTORE DUP1 PUSH1 0x9 DUP2 MSTORE PUSH1 0x20 ADD PUSH32 0x436861696E6C696E6B0000000000000000000000000000000000000000000000 DUP2 MSTORE POP SWAP1 POP PUSH2 0xB28 JUMP JUMPDEST PUSH1 0x0 PUSH20 0xFFFFFFFFFFFFFFFFFFFFFFFFFFFFFFFFFFFFFFFF AND PUSH1 0x2 PUSH1 0x0 SWAP1 SLOAD SWAP1 PUSH2 0x100 EXP SWAP1 DIV PUSH20 0xFFFFFFFFFFFFFFFFFFFFFFFFFFFFFFFFFFFFFFFF AND PUSH20 0xFFFFFFFFFFFFFFFFFFFFFFFFFFFFFFFFFFFFFFFF AND EQ PUSH2 0xAC9 JUMPI PUSH1 0x2 PUSH1 0x0 SWAP1 SLOAD SWAP1 PUSH2 0x100 EXP SWAP1 DIV PUSH20 0xFFFFFFFFFFFFFFFFFFFFFFFFFFFFFFFFFFFFFFFF AND SWAP2 POP PUSH1 0x40 MLOAD DUP1 PUSH1 0x40 ADD PUSH1 0x40 MSTORE DUP1 PUSH1 0x4 DUP2 MSTORE PUSH1 0x20 ADD PUSH32 0x4C69466900000000000000000000000000000000000000000000000000000000 DUP2 MSTORE POP SWAP1 POP PUSH2 0xB27 JUMP JUMPDEST PUSH1 0x4 PUSH1 0x0 SWAP1 SLOAD SWAP1 PUSH2 0x100 EXP SWAP1 DIV PUSH20 0xFFFFFFFFFFFFFFFFFFFFFFFFFFFFFFFFFFFFFFFF AND SWAP2 POP PUSH1 0x40 MLOAD DUP1 PUSH1 0x40 ADD PUSH1 0x40 MSTORE DUP1 PUSH1 0x6 DUP2 MSTORE PUSH1 0x20 ADD PUSH32 0x437573746F6D0000000000000000000000000000000000000000000000000000 DUP2 MSTORE POP SWAP1 POP JUMPDEST JUMPDEST JUMPDEST PUSH1 0x0 PUSH2 0x2710 DUP5 PUSH1 0x0 ADD MLOAD DUP10 PUSH2 0xB3E SWAP2 SWAP1 PUSH2 0x2CCA JUMP JUMPDEST PUSH2 0xB48 SWAP2 SWAP1 PUSH2 0x2D3B JUMP JUMPDEST SWAP1 POP PUSH1 0x40 MLOAD DUP1 PUSH1 0xC0 ADD PUSH1 0x40 MSTORE DUP1 PUSH32 0x0 DUP2 MSTORE PUSH1 0x20 ADD DUP9 DUP2 MSTORE PUSH1 0x20 ADD DUP3 DUP2 MSTORE PUSH1 0x20 ADD DUP6 PUSH1 0x20 ADD MLOAD DUP2 MSTORE PUSH1 0x20 ADD DUP5 PUSH20 0xFFFFFFFFFFFFFFFFFFFFFFFFFFFFFFFFFFFFFFFF AND DUP2 MSTORE PUSH1 0x20 ADD DUP4 DUP2 MSTORE POP SWAP5 POP POP POP POP POP JUMPDEST SWAP5 SWAP4 POP POP POP POP JUMP JUMPDEST PUSH2 0xBC8 PUSH2 0x1DCC JUMP JUMPDEST PUSH1 0x0 PUSH20 0xFFFFFFFFFFFFFFFFFFFFFFFFFFFFFFFFFFFFFFFF AND DUP2 PUSH20 0xFFFFFFFFFFFFFFFFFFFFFFFFFFFFFFFFFFFFFFFF AND SUB PUSH2 0xC37 JUMPI PUSH1 0x40 MLOAD PUSH32 0x8C379A000000000000000000000000000000000000000000000000000000000 DUP2 MSTORE PUSH1 0x4 ADD PUSH2 0xC2E SWAP1 PUSH2 0x2DC9 JUMP JUMPDEST PUSH1 0x40 MLOAD DUP1 SWAP2 SUB SWAP1 REVERT JUMPDEST DUP1 PUSH1 0x2 PUSH1 0x0 PUSH2 0x100 EXP DUP2 SLOAD DUP2 PUSH20 0xFFFFFFFFFFFFFFFFFFFFFFFFFFFFFFFFFFFFFFFF MUL NOT AND SWAP1 DUP4 PUSH20 0xFFFFFFFFFFFFFFFFFFFFFFFFFFFFFFFFFFFFFFFF AND MUL OR SWAP1 SSTORE POP DUP1 PUSH20 0xFFFFFFFFFFFFFFFFFFFFFFFFFFFFFFFFFFFFFFFF AND PUSH32 0x926C127C5AB07EFAC944E1C2F1EC6E2517058CB5082414BC11F7BEF621E55F82 TIMESTAMP PUSH1 0x40 MLOAD PUSH2 0xCBE SWAP2 SWAP1 PUSH2 0x2E35 JUMP JUMPDEST PUSH1 0x40 MLOAD DUP1 SWAP2 SUB SWAP1 LOG2 POP JUMP JUMPDEST PUSH1 0x4 PUSH1 0x0 SWAP1 SLOAD SWAP1 PUSH2 0x100 EXP SWAP1 DIV PUSH20 0xFFFFFFFFFFFFFFFFFFFFFFFFFFFFFFFFFFFFFFFF AND DUP2 JUMP JUMPDEST PUSH2 0xCF7 PUSH2 0x1DCC JUMP JUMPDEST DUP1 PUSH1 0x5 PUSH1 0x0 PUSH2 0x100 EXP DUP2 SLOAD DUP2 PUSH20 0xFFFFFFFFFFFFFFFFFFFFFFFFFFFFFFFFFFFFFFFF MUL NOT AND SWAP1 DUP4 PUSH20 0xFFFFFFFFFFFFFFFFFFFFFFFFFFFFFFFFFFFFFFFF AND MUL OR SWAP1 SSTORE POP POP JUMP JUMPDEST PUSH1 0x0 PUSH32 0x0 SWAP1 POP SWAP1 JUMP JUMPDEST PUSH1 0x7 PUSH1 0x20 MSTORE DUP1 PUSH1 0x0 MSTORE PUSH1 0x40 PUSH1 0x0 KECCAK256 PUSH1 0x0 SWAP2 POP SWAP1 POP DUP1 PUSH1 0x0 ADD SLOAD SWAP1 DUP1 PUSH1 0x1 ADD SLOAD SWAP1 DUP1 PUSH1 0x2 ADD PUSH1 0x0 SWAP1 SLOAD SWAP1 PUSH2 0x100 EXP SWAP1 DIV PUSH1 0xFF AND SWAP1 POP DUP4 JUMP JUMPDEST PUSH2 0xDA2 PUSH2 0x1DCC JUMP JUMPDEST DUP1 PUSH1 0x6 PUSH1 0x0 PUSH2 0x100 EXP DUP2 SLOAD DUP2 PUSH20 0xFFFFFFFFFFFFFFFFFFFFFFFFFFFFFFFFFFFFFFFF MUL NOT AND SWAP1 DUP4 PUSH20 0xFFFFFFFFFFFFFFFFFFFFFFFFFFFFFFFFFFFFFFFF AND MUL OR SWAP1 SSTORE POP POP JUMP JUMPDEST PUSH32 0x0 DUP2 JUMP JUMPDEST PUSH2 0xE12 PUSH2 0x1DCC JUMP JUMPDEST PUSH2 0xE1C PUSH1 0x0 PUSH2 0x1E4A JUMP JUMPDEST JUMP JUMPDEST PUSH2 0xE26 PUSH2 0x1DCC JUMP JUMPDEST PUSH2 0xE2E PUSH2 0x1944 JUMP JUMPDEST PUSH1 0x0 DUP4 SUB PUSH2 0xE68 JUMPI PUSH1 0x40 MLOAD PUSH32 0x2C5211C600000000000000000000000000000000000000000000000000000000 DUP2 MSTORE PUSH1 0x4 ADD PUSH1 0x40 MLOAD DUP1 SWAP2 SUB SWAP1 REVERT JUMPDEST PUSH1 0x0 PUSH20 0xFFFFFFFFFFFFFFFFFFFFFFFFFFFFFFFFFFFFFFFF AND DUP5 PUSH20 0xFFFFFFFFFFFFFFFFFFFFFFFFFFFFFFFFFFFFFFFF AND SUB PUSH2 0xECE JUMPI PUSH1 0x40 MLOAD PUSH32 0xC1AB6DC100000000000000000000000000000000000000000000000000000000 DUP2 MSTORE PUSH1 0x4 ADD PUSH1 0x40 MLOAD DUP1 SWAP2 SUB SWAP1 REVERT JUMPDEST PUSH1 0x0 PUSH20 0xFFFFFFFFFFFFFFFFFFFFFFFFFFFFFFFFFFFFFFFF AND DUP3 PUSH20 0xFFFFFFFFFFFFFFFFFFFFFFFFFFFFFFFFFFFFFFFF AND SUB PUSH2 0xF34 JUMPI PUSH1 0x40 MLOAD PUSH32 0x9C8D2CD200000000000000000000000000000000000000000000000000000000 DUP2 MSTORE PUSH1 0x4 ADD PUSH1 0x40 MLOAD DUP1 SWAP2 SUB SWAP1 REVERT JUMPDEST PUSH32 0x0 DUP2 SUB PUSH2 0xF8D JUMPI PUSH1 0x40 MLOAD PUSH32 0x7A47C9A200000000000000000000000000000000000000000000000000000000 DUP2 MSTORE PUSH1 0x4 ADD PUSH1 0x40 MLOAD DUP1 SWAP2 SUB SWAP1 REVERT JUMPDEST PUSH1 0x0 DUP5 PUSH20 0xFFFFFFFFFFFFFFFFFFFFFFFFFFFFFFFFFFFFFFFF AND PUSH4 0x70A08231 ADDRESS PUSH1 0x40 MLOAD DUP3 PUSH4 0xFFFFFFFF AND PUSH1 0xE0 SHL DUP2 MSTORE PUSH1 0x4 ADD PUSH2 0xFC8 SWAP2 SWAP1 PUSH2 0x26A9 JUMP JUMPDEST PUSH1 0x20 PUSH1 0x40 MLOAD DUP1 DUP4 SUB DUP2 DUP7 GAS STATICCALL ISZERO DUP1 ISZERO PUSH2 0xFE5 JUMPI RETURNDATASIZE PUSH1 0x0 DUP1 RETURNDATACOPY RETURNDATASIZE PUSH1 0x0 REVERT JUMPDEST POP POP POP POP PUSH1 0x40 MLOAD RETURNDATASIZE PUSH1 0x1F NOT PUSH1 0x1F DUP3 ADD AND DUP3 ADD DUP1 PUSH1 0x40 MSTORE POP DUP2 ADD SWAP1 PUSH2 0x1009 SWAP2 SWAP1 PUSH2 0x2E78 JUMP JUMPDEST SWAP1 POP DUP4 DUP2 LT ISZERO PUSH2 0x1045 JUMPI PUSH1 0x40 MLOAD PUSH32 0xF4D678B800000000000000000000000000000000000000000000000000000000 DUP2 MSTORE PUSH1 0x4 ADD PUSH1 0x40 MLOAD DUP1 SWAP2 SUB SWAP1 REVERT JUMPDEST PUSH1 0x0 PUSH20 0xFFFFFFFFFFFFFFFFFFFFFFFFFFFFFFFFFFFFFFFF AND PUSH1 0x4 PUSH1 0x0 SWAP1 SLOAD SWAP1 PUSH2 0x100 EXP SWAP1 DIV PUSH20 0xFFFFFFFFFFFFFFFFFFFFFFFFFFFFFFFFFFFFFFFF AND PUSH20 0xFFFFFFFFFFFFFFFFFFFFFFFFFFFFFFFFFFFFFFFF AND EQ PUSH2 0x11D2 JUMPI PUSH2 0x10E8 PUSH1 0x4 PUSH1 0x0 SWAP1 SLOAD SWAP1 PUSH2 0x100 EXP SWAP1 DIV PUSH20 0xFFFFFFFFFFFFFFFFFFFFFFFFFFFFFFFFFFFFFFFF AND DUP6 DUP8 PUSH20 0xFFFFFFFFFFFFFFFFFFFFFFFFFFFFFFFFFFFFFFFF AND PUSH2 0x1F10 SWAP1 SWAP3 SWAP2 SWAP1 PUSH4 0xFFFFFFFF AND JUMP JUMPDEST PUSH1 0x0 PUSH1 0x4 PUSH1 0x0 SWAP1 SLOAD SWAP1 PUSH2 0x100 EXP SWAP1 DIV PUSH20 0xFFFFFFFFFFFFFFFFFFFFFFFFFFFFFFFFFFFFFFFF AND PUSH20 0xFFFFFFFFFFFFFFFFFFFFFFFFFFFFFFFFFFFFFFFF AND PUSH4 0x5E583A5A DUP8 DUP8 DUP7 DUP9 PUSH1 0x40 MLOAD DUP6 PUSH4 0xFFFFFFFF AND PUSH1 0xE0 SHL DUP2 MSTORE PUSH1 0x4 ADD PUSH2 0x114B SWAP5 SWAP4 SWAP3 SWAP2 SWAP1 PUSH2 0x2EA5 JUMP JUMPDEST PUSH1 0x20 PUSH1 0x40 MLOAD DUP1 DUP4 SUB DUP2 PUSH1 0x0 DUP8 GAS CALL ISZERO DUP1 ISZERO PUSH2 0x116A JUMPI RETURNDATASIZE PUSH1 0x0 DUP1 RETURNDATACOPY RETURNDATASIZE PUSH1 0x0 REVERT JUMPDEST POP POP POP POP PUSH1 0x40 MLOAD RETURNDATASIZE PUSH1 0x1F NOT PUSH1 0x1F DUP3 ADD AND DUP3 ADD DUP1 PUSH1 0x40 MSTORE POP DUP2 ADD SWAP1 PUSH2 0x118E SWAP2 SWAP1 PUSH2 0x2EFF JUMP JUMPDEST SWAP1 POP DUP1 PUSH2 0x11D0 JUMPI PUSH1 0x40 MLOAD PUSH32 0x3CB530B000000000000000000000000000000000000000000000000000000000 DUP2 MSTORE PUSH1 0x4 ADD PUSH2 0x11C7 SWAP1 PUSH2 0x2F78 JUMP JUMPDEST PUSH1 0x40 MLOAD DUP1 SWAP2 SUB SWAP1 REVERT JUMPDEST POP JUMPDEST DUP3 PUSH20 0xFFFFFFFFFFFFFFFFFFFFFFFFFFFFFFFFFFFFFFFF AND DUP6 PUSH20 0xFFFFFFFFFFFFFFFFFFFFFFFFFFFFFFFFFFFFFFFF AND PUSH32 0x8B75D72A2E34BBFAC4999D13F57663A99B5ABC93E57E7E49C3F1F572B2B84585 DUP7 DUP6 TIMESTAMP PUSH1 0x40 MLOAD PUSH2 0x1233 SWAP4 SWAP3 SWAP2 SWAP1 PUSH2 0x2FE4 JUMP JUMPDEST PUSH1 0x40 MLOAD DUP1 SWAP2 SUB SWAP1 LOG3 POP PUSH2 0x1244 PUSH2 0x1DC2 JUMP JUMPDEST POP POP POP POP JUMP JUMPDEST PUSH1 0x3 PUSH1 0x0 SWAP1 SLOAD SWAP1 PUSH2 0x100 EXP SWAP1 DIV PUSH20 0xFFFFFFFFFFFFFFFFFFFFFFFFFFFFFFFFFFFFFFFF AND DUP2 JUMP JUMPDEST PUSH1 0x0 PUSH1 0x1 PUSH1 0x0 SWAP1 SLOAD SWAP1 PUSH2 0x100 EXP SWAP1 DIV PUSH20 0xFFFFFFFFFFFFFFFFFFFFFFFFFFFFFFFFFFFFFFFF AND SWAP1 POP SWAP1 JUMP JUMPDEST PUSH2 0x12A2 PUSH2 0x1DCC JUMP JUMPDEST PUSH2 0x12D4 PUSH2 0x12AD PUSH2 0x1270 JUMP JUMPDEST DUP3 DUP5 PUSH20 0xFFFFFFFFFFFFFFFFFFFFFFFFFFFFFFFFFFFFFFFF AND PUSH2 0x205F SWAP1 SWAP3 SWAP2 SWAP1 PUSH4 0xFFFFFFFF AND JUMP JUMPDEST POP POP JUMP JUMPDEST PUSH1 0x2 PUSH1 0x0 SWAP1 SLOAD SWAP1 PUSH2 0x100 EXP SWAP1 DIV PUSH20 0xFFFFFFFFFFFFFFFFFFFFFFFFFFFFFFFFFFFFFFFF AND DUP2 JUMP JUMPDEST PUSH2 0x1306 PUSH2 0x1DCC JUMP JUMPDEST PUSH1 0x0 PUSH20 0xFFFFFFFFFFFFFFFFFFFFFFFFFFFFFFFFFFFFFFFF AND DUP2 PUSH20 0xFFFFFFFFFFFFFFFFFFFFFFFFFFFFFFFFFFFFFFFF AND SUB PUSH2 0x1375 JUMPI PUSH1 0x40 MLOAD PUSH32 0x8C379A000000000000000000000000000000000000000000000000000000000 DUP2 MSTORE PUSH1 0x4 ADD PUSH2 0x136C SWAP1 PUSH2 0x2DC9 JUMP JUMPDEST PUSH1 0x40 MLOAD DUP1 SWAP2 SUB SWAP1 REVERT JUMPDEST DUP1 PUSH1 0x4 PUSH1 0x0 PUSH2 0x100 EXP DUP2 SLOAD DUP2 PUSH20 0xFFFFFFFFFFFFFFFFFFFFFFFFFFFFFFFFFFFFFFFF MUL NOT AND SWAP1 DUP4 PUSH20 0xFFFFFFFFFFFFFFFFFFFFFFFFFFFFFFFFFFFFFFFF AND MUL OR SWAP1 SSTORE POP DUP1 PUSH20 0xFFFFFFFFFFFFFFFFFFFFFFFFFFFFFFFFFFFFFFFF AND PUSH32 0x926C127C5AB07EFAC944E1C2F1EC6E2517058CB5082414BC11F7BEF621E55F82 TIMESTAMP PUSH1 0x40 MLOAD PUSH2 0x13FC SWAP2 SWAP1 PUSH2 0x302E JUMP JUMPDEST PUSH1 0x40 MLOAD DUP1 SWAP2 SUB SWAP1 LOG2 POP JUMP JUMPDEST PUSH2 0x140F PUSH2 0x1DCC JUMP JUMPDEST PUSH1 0x40 MLOAD DUP1 PUSH1 0x60 ADD PUSH1 0x40 MSTORE DUP1 DUP5 DUP2 MSTORE PUSH1 0x20 ADD DUP4 DUP2 MSTORE PUSH1 0x20 ADD DUP3 ISZERO ISZERO DUP2 MSTORE POP PUSH1 0x7 PUSH1 0x0 DUP7 DUP2 MSTORE PUSH1 0x20 ADD SWAP1 DUP2 MSTORE PUSH1 0x20 ADD PUSH1 0x0 KECCAK256 PUSH1 0x0 DUP3 ADD MLOAD DUP2 PUSH1 0x0 ADD SSTORE PUSH1 0x20 DUP3 ADD MLOAD DUP2 PUSH1 0x1 ADD SSTORE PUSH1 0x40 DUP3 ADD MLOAD DUP2 PUSH1 0x2 ADD PUSH1 0x0 PUSH2 0x100 EXP DUP2 SLOAD DUP2 PUSH1 0xFF MUL NOT AND SWAP1 DUP4 ISZERO ISZERO MUL OR SWAP1 SSTORE POP SWAP1 POP POP POP POP POP POP JUMP JUMPDEST ADDRESS PUSH20 0xFFFFFFFFFFFFFFFFFFFFFFFFFFFFFFFFFFFFFFFF AND CALLER PUSH20 0xFFFFFFFFFFFFFFFFFFFFFFFFFFFFFFFFFFFFFFFF AND EQ PUSH2 0x14EA JUMPI PUSH1 0x40 MLOAD PUSH32 0x8C379A000000000000000000000000000000000000000000000000000000000 DUP2 MSTORE PUSH1 0x4 ADD PUSH2 0x14E1 SWAP1 PUSH2 0x30A8 JUMP JUMPDEST PUSH1 0x40 MLOAD DUP1 SWAP2 SUB SWAP1 REVERT JUMPDEST PUSH1 0x0 PUSH20 0xFFFFFFFFFFFFFFFFFFFFFFFFFFFFFFFFFFFFFFFF AND PUSH1 0x5 PUSH1 0x0 SWAP1 SLOAD SWAP1 PUSH2 0x100 EXP SWAP1 DIV PUSH20 0xFFFFFFFFFFFFFFFFFFFFFFFFFFFFFFFFFFFFFFFF AND PUSH20 0xFFFFFFFFFFFFFFFFFFFFFFFFFFFFFFFFFFFFFFFF AND SUB PUSH2 0x1572 JUMPI PUSH1 0x40 MLOAD PUSH32 0x7614917A00000000000000000000000000000000000000000000000000000000 DUP2 MSTORE PUSH1 0x4 ADD PUSH1 0x40 MLOAD DUP1 SWAP2 SUB SWAP1 REVERT JUMPDEST PUSH2 0x15BF PUSH1 0x5 PUSH1 0x0 SWAP1 SLOAD SWAP1 PUSH2 0x100 EXP SWAP1 DIV PUSH20 0xFFFFFFFFFFFFFFFFFFFFFFFFFFFFFFFFFFFFFFFF AND DUP5 DUP7 PUSH20 0xFFFFFFFFFFFFFFFFFFFFFFFFFFFFFFFFFFFFFFFF AND PUSH2 0x1F10 SWAP1 SWAP3 SWAP2 SWAP1 PUSH4 0xFFFFFFFF AND JUMP JUMPDEST PUSH1 0x0 PUSH1 0x40 MLOAD DUP1 PUSH2 0x140 ADD PUSH1 0x40 MSTORE DUP1 DUP5 DUP7 TIMESTAMP PUSH1 0x40 MLOAD PUSH1 0x20 ADD PUSH2 0x15E2 SWAP4 SWAP3 SWAP2 SWAP1 PUSH2 0x3131 JUMP JUMPDEST PUSH1 0x40 MLOAD PUSH1 0x20 DUP2 DUP4 SUB SUB DUP2 MSTORE SWAP1 PUSH1 0x40 MSTORE DUP1 MLOAD SWAP1 PUSH1 0x20 ADD KECCAK256 DUP2 MSTORE PUSH1 0x20 ADD PUSH1 0x40 MLOAD DUP1 PUSH1 0x40 ADD PUSH1 0x40 MSTORE DUP1 PUSH1 0x3 DUP2 MSTORE PUSH1 0x20 ADD PUSH32 0x686F700000000000000000000000000000000000000000000000000000000000 DUP2 MSTORE POP DUP2 MSTORE PUSH1 0x20 ADD PUSH1 0x40 MLOAD DUP1 PUSH1 0x40 ADD PUSH1 0x40 MSTORE DUP1 PUSH1 0x10 DUP2 MSTORE PUSH1 0x20 ADD PUSH32 0x537461626C65636F696E53776974636800000000000000000000000000000000 DUP2 MSTORE POP DUP2 MSTORE PUSH1 0x20 ADD PUSH1 0x0 PUSH20 0xFFFFFFFFFFFFFFFFFFFFFFFFFFFFFFFFFFFFFFFF AND DUP2 MSTORE PUSH1 0x20 ADD DUP7 PUSH20 0xFFFFFFFFFFFFFFFFFFFFFFFFFFFFFFFFFFFFFFFF AND DUP2 MSTORE PUSH1 0x20 ADD DUP5 PUSH20 0xFFFFFFFFFFFFFFFFFFFFFFFFFFFFFFFFFFFFFFFF AND DUP2 MSTORE PUSH1 0x20 ADD PUSH1 0x64 PUSH1 0x63 DUP8 PUSH2 0x16D7 SWAP2 SWAP1 PUSH2 0x2CCA JUMP JUMPDEST PUSH2 0x16E1 SWAP2 SWAP1 PUSH2 0x2D3B JUMP JUMPDEST DUP2 MSTORE PUSH1 0x20 ADD DUP4 DUP2 MSTORE PUSH1 0x20 ADD PUSH1 0x0 ISZERO ISZERO DUP2 MSTORE PUSH1 0x20 ADD PUSH1 0x0 ISZERO ISZERO DUP2 MSTORE POP SWAP1 POP PUSH1 0x5 PUSH1 0x0 SWAP1 SLOAD SWAP1 PUSH2 0x100 EXP SWAP1 DIV PUSH20 0xFFFFFFFFFFFFFFFFFFFFFFFFFFFFFFFFFFFFFFFF AND PUSH20 0xFFFFFFFFFFFFFFFFFFFFFFFFFFFFFFFFFFFFFFFF AND PUSH4 0x449211BE DUP3 PUSH1 0x40 MLOAD DUP3 PUSH4 0xFFFFFFFF AND PUSH1 0xE0 SHL DUP2 MSTORE PUSH1 0x4 ADD PUSH2 0x1759 SWAP2 SWAP1 PUSH2 0x32AE JUMP JUMPDEST PUSH1 0x0 PUSH1 0x40 MLOAD DUP1 DUP4 SUB DUP2 PUSH1 0x0 DUP8 DUP1 EXTCODESIZE ISZERO DUP1 ISZERO PUSH2 0x1773 JUMPI PUSH1 0x0 DUP1 REVERT JUMPDEST POP GAS CALL ISZERO DUP1 ISZERO PUSH2 0x1787 JUMPI RETURNDATASIZE PUSH1 0x0 DUP1 RETURNDATACOPY RETURNDATASIZE PUSH1 0x0 REVERT JUMPDEST POP POP POP POP POP POP POP POP POP JUMP JUMPDEST PUSH2 0x179A PUSH2 0x1DCC JUMP JUMPDEST PUSH1 0x0 PUSH20 0xFFFFFFFFFFFFFFFFFFFFFFFFFFFFFFFFFFFFFFFF AND DUP2 PUSH20 0xFFFFFFFFFFFFFFFFFFFFFFFFFFFFFFFFFFFFFFFF AND SUB PUSH2 0x1809 JUMPI PUSH1 0x40 MLOAD PUSH32 0x8C379A000000000000000000000000000000000000000000000000000000000 DUP2 MSTORE PUSH1 0x4 ADD PUSH2 0x1800 SWAP1 PUSH2 0x2DC9 JUMP JUMPDEST PUSH1 0x40 MLOAD DUP1 SWAP2 SUB SWAP1 REVERT JUMPDEST DUP1 PUSH1 0x3 PUSH1 0x0 PUSH2 0x100 EXP DUP2 SLOAD DUP2 PUSH20 0xFFFFFFFFFFFFFFFFFFFFFFFFFFFFFFFFFFFFFFFF MUL NOT AND SWAP1 DUP4 PUSH20 0xFFFFFFFFFFFFFFFFFFFFFFFFFFFFFFFFFFFFFFFF AND MUL OR SWAP1 SSTORE POP DUP1 PUSH20 0xFFFFFFFFFFFFFFFFFFFFFFFFFFFFFFFFFFFFFFFF AND PUSH32 0x926C127C5AB07EFAC944E1C2F1EC6E2517058CB5082414BC11F7BEF621E55F82 TIMESTAMP PUSH1 0x40 MLOAD PUSH2 0x1890 SWAP2 SWAP1 PUSH2 0x332F JUMP JUMPDEST PUSH1 0x40 MLOAD DUP1 SWAP2 SUB SWAP1 LOG2 POP JUMP JUMPDEST PUSH2 0x18A3 PUSH2 0x1DCC JUMP JUMPDEST PUSH1 0x0 PUSH20 0xFFFFFFFFFFFFFFFFFFFFFFFFFFFFFFFFFFFFFFFF AND DUP2 PUSH20 0xFFFFFFFFFFFFFFFFFFFFFFFFFFFFFFFFFFFFFFFF AND SUB PUSH2 0x1912 JUMPI PUSH1 0x40 MLOAD PUSH32 0x8C379A000000000000000000000000000000000000000000000000000000000 DUP2 MSTORE PUSH1 0x4 ADD PUSH2 0x1909 SWAP1 PUSH2 0x33CF JUMP JUMPDEST PUSH1 0x40 MLOAD DUP1 SWAP2 SUB SWAP1 REVERT JUMPDEST PUSH2 0x191B DUP2 PUSH2 0x1E4A JUMP JUMPDEST POP JUMP JUMPDEST PUSH1 0x6 PUSH1 0x0 SWAP1 SLOAD SWAP1 PUSH2 0x100 EXP SWAP1 DIV PUSH20 0xFFFFFFFFFFFFFFFFFFFFFFFFFFFFFFFFFFFFFFFF AND DUP2 JUMP JUMPDEST PUSH1 0x2 PUSH1 0x0 SLOAD SUB PUSH2 0x1989 JUMPI PUSH1 0x40 MLOAD PUSH32 0x8C379A000000000000000000000000000000000000000000000000000000000 DUP2 MSTORE PUSH1 0x4 ADD PUSH2 0x1980 SWAP1 PUSH2 0x343B JUMP JUMPDEST PUSH1 0x40 MLOAD DUP1 SWAP2 SUB SWAP1 REVERT JUMPDEST PUSH1 0x2 PUSH1 0x0 DUP2 SWAP1 SSTORE POP JUMP JUMPDEST PUSH2 0x1A16 DUP5 PUSH4 0x23B872DD PUSH1 0xE0 SHL DUP6 DUP6 DUP6 PUSH1 0x40 MLOAD PUSH1 0x24 ADD PUSH2 0x19B4 SWAP4 SWAP3 SWAP2 SWAP1 PUSH2 0x345B JUMP JUMPDEST PUSH1 0x40 MLOAD PUSH1 0x20 DUP2 DUP4 SUB SUB DUP2 MSTORE SWAP1 PUSH1 0x40 MSTORE SWAP1 PUSH28 0xFFFFFFFFFFFFFFFFFFFFFFFFFFFFFFFFFFFFFFFFFFFFFFFFFFFFFFFF NOT AND PUSH1 0x20 DUP3 ADD DUP1 MLOAD PUSH28 0xFFFFFFFFFFFFFFFFFFFFFFFFFFFFFFFFFFFFFFFFFFFFFFFFFFFFFFFF DUP4 DUP2 DUP4 AND OR DUP4 MSTORE POP POP POP POP PUSH2 0x20E5 JUMP JUMPDEST POP POP POP POP JUMP JUMPDEST PUSH1 0x0 DUP1 PUSH20 0xFFFFFFFFFFFFFFFFFFFFFFFFFFFFFFFFFFFFFFFF AND PUSH1 0x2 PUSH1 0x0 SWAP1 SLOAD SWAP1 PUSH2 0x100 EXP SWAP1 DIV PUSH20 0xFFFFFFFFFFFFFFFFFFFFFFFFFFFFFFFFFFFFFFFF AND PUSH20 0xFFFFFFFFFFFFFFFFFFFFFFFFFFFFFFFFFFFFFFFF AND EQ PUSH2 0x1C51 JUMPI ADDRESS PUSH20 0xFFFFFFFFFFFFFFFFFFFFFFFFFFFFFFFFFFFFFFFF AND PUSH4 0xE8545D4A DUP7 DUP7 DUP7 DUP7 PUSH1 0x40 MLOAD DUP6 PUSH4 0xFFFFFFFF AND PUSH1 0xE0 SHL DUP2 MSTORE PUSH1 0x4 ADD PUSH2 0x1AB2 SWAP5 SWAP4 SWAP3 SWAP2 SWAP1 PUSH2 0x3492 JUMP JUMPDEST PUSH1 0x0 PUSH1 0x40 MLOAD DUP1 DUP4 SUB DUP2 PUSH1 0x0 DUP8 DUP1 EXTCODESIZE ISZERO DUP1 ISZERO PUSH2 0x1ACC JUMPI PUSH1 0x0 DUP1 REVERT JUMPDEST POP GAS CALL SWAP3 POP POP POP DUP1 ISZERO PUSH2 0x1ADD JUMPI POP PUSH1 0x1 JUMPDEST PUSH2 0x1BE2 JUMPI PUSH2 0x1AE9 PUSH2 0x34E4 JUMP JUMPDEST DUP1 PUSH4 0x8C379A0 SUB PUSH2 0x1B75 JUMPI POP PUSH2 0x1AFD PUSH2 0x3566 JUMP JUMPDEST DUP1 PUSH2 0x1B08 JUMPI POP PUSH2 0x1B77 JUMP JUMPDEST DUP4 PUSH20 0xFFFFFFFFFFFFFFFFFFFFFFFFFFFFFFFFFFFFFFFF AND DUP7 PUSH20 0xFFFFFFFFFFFFFFFFFFFFFFFFFFFFFFFFFFFFFFFF AND PUSH32 0x8CBA32C64B7980C8F30A180A58D06366543D17BFEB24F77C90D11CCD3FC8A075 DUP8 DUP5 PUSH1 0x40 MLOAD PUSH2 0x1B67 SWAP3 SWAP2 SWAP1 PUSH2 0x362F JUMP JUMPDEST PUSH1 0x40 MLOAD DUP1 SWAP2 SUB SWAP1 LOG3 POP PUSH2 0x1BDD JUMP JUMPDEST POP JUMPDEST DUP3 PUSH20 0xFFFFFFFFFFFFFFFFFFFFFFFFFFFFFFFFFFFFFFFF AND DUP6 PUSH20 0xFFFFFFFFFFFFFFFFFFFFFFFFFFFFFFFFFFFFFFFF AND PUSH32 0x8CBA32C64B7980C8F30A180A58D06366543D17BFEB24F77C90D11CCD3FC8A075 DUP7 PUSH1 0x40 MLOAD PUSH2 0x1BD4 SWAP2 SWAP1 PUSH2 0x36AB JUMP JUMPDEST PUSH1 0x40 MLOAD DUP1 SWAP2 SUB SWAP1 LOG3 JUMPDEST PUSH2 0x1C50 JUMP JUMPDEST PUSH1 0x1 SWAP1 POP DUP3 PUSH20 0xFFFFFFFFFFFFFFFFFFFFFFFFFFFFFFFFFFFFFFFF AND DUP6 PUSH20 0xFFFFFFFFFFFFFFFFFFFFFFFFFFFFFFFFFFFFFFFF AND PUSH32 0x8B75D72A2E34BBFAC4999D13F57663A99B5ABC93E57E7E49C3F1F572B2B84585 DUP7 DUP6 TIMESTAMP PUSH1 0x40 MLOAD PUSH2 0x1C47 SWAP4 SWAP3 SWAP2 SWAP1 PUSH2 0x36D9 JUMP JUMPDEST PUSH1 0x40 MLOAD DUP1 SWAP2 SUB SWAP1 LOG3 JUMPDEST JUMPDEST DUP1 PUSH2 0x1DBB JUMPI PUSH1 0x0 PUSH20 0xFFFFFFFFFFFFFFFFFFFFFFFFFFFFFFFFFFFFFFFF AND PUSH1 0x3 PUSH1 0x0 SWAP1 SLOAD SWAP1 PUSH2 0x100 EXP SWAP1 DIV PUSH20 0xFFFFFFFFFFFFFFFFFFFFFFFFFFFFFFFFFFFFFFFF AND PUSH20 0xFFFFFFFFFFFFFFFFFFFFFFFFFFFFFFFFFFFFFFFF AND SUB PUSH2 0x1CDE JUMPI PUSH1 0x40 MLOAD PUSH32 0x7614917A00000000000000000000000000000000000000000000000000000000 DUP2 MSTORE PUSH1 0x4 ADD PUSH1 0x40 MLOAD DUP1 SWAP2 SUB SWAP1 REVERT JUMPDEST DUP3 PUSH20 0xFFFFFFFFFFFFFFFFFFFFFFFFFFFFFFFFFFFFFFFF AND DUP6 PUSH20 0xFFFFFFFFFFFFFFFFFFFFFFFFFFFFFFFFFFFFFFFF AND PUSH32 0xB6616963BD75C298B7B4034F16D88A70C5587B30A1E6AAB2CE50EB0EEB9234EE DUP7 DUP6 PUSH1 0x40 MLOAD PUSH2 0x1D3D SWAP3 SWAP2 SWAP1 PUSH2 0x3723 JUMP JUMPDEST PUSH1 0x40 MLOAD DUP1 SWAP2 SUB SWAP1 LOG3 PUSH2 0x1D51 DUP6 DUP6 DUP6 DUP6 PUSH2 0x21AD JUMP JUMPDEST DUP3 PUSH20 0xFFFFFFFFFFFFFFFFFFFFFFFFFFFFFFFFFFFFFFFF AND DUP6 PUSH20 0xFFFFFFFFFFFFFFFFFFFFFFFFFFFFFFFFFFFFFFFF AND PUSH32 0x8B75D72A2E34BBFAC4999D13F57663A99B5ABC93E57E7E49C3F1F572B2B84585 DUP7 DUP6 TIMESTAMP PUSH1 0x40 MLOAD PUSH2 0x1DB2 SWAP4 SWAP3 SWAP2 SWAP1 PUSH2 0x374C JUMP JUMPDEST PUSH1 0x40 MLOAD DUP1 SWAP2 SUB SWAP1 LOG3 JUMPDEST POP POP POP POP POP JUMP JUMPDEST PUSH1 0x1 PUSH1 0x0 DUP2 SWAP1 SSTORE POP JUMP JUMPDEST PUSH2 0x1DD4 PUSH2 0x2447 JUMP JUMPDEST PUSH20 0xFFFFFFFFFFFFFFFFFFFFFFFFFFFFFFFFFFFFFFFF AND PUSH2 0x1DF2 PUSH2 0x1270 JUMP JUMPDEST PUSH20 0xFFFFFFFFFFFFFFFFFFFFFFFFFFFFFFFFFFFFFFFF AND EQ PUSH2 0x1E48 JUMPI PUSH1 0x40 MLOAD PUSH32 0x8C379A000000000000000000000000000000000000000000000000000000000 DUP2 MSTORE PUSH1 0x4 ADD PUSH2 0x1E3F SWAP1 PUSH2 0x37E2 JUMP JUMPDEST PUSH1 0x40 MLOAD DUP1 SWAP2 SUB SWAP1 REVERT JUMPDEST JUMP JUMPDEST PUSH1 0x0 PUSH1 0x1 PUSH1 0x0 SWAP1 SLOAD SWAP1 PUSH2 0x100 EXP SWAP1 DIV PUSH20 0xFFFFFFFFFFFFFFFFFFFFFFFFFFFFFFFFFFFFFFFF AND SWAP1 POP DUP2 PUSH1 0x1 PUSH1 0x0 PUSH2 0x100 EXP DUP2 SLOAD DUP2 PUSH20 0xFFFFFFFFFFFFFFFFFFFFFFFFFFFFFFFFFFFFFFFF MUL NOT AND SWAP1 DUP4 PUSH20 0xFFFFFFFFFFFFFFFFFFFFFFFFFFFFFFFFFFFFFFFF AND MUL OR SWAP1 SSTORE POP DUP2 PUSH20 0xFFFFFFFFFFFFFFFFFFFFFFFFFFFFFFFFFFFFFFFF AND DUP2 PUSH20 0xFFFFFFFFFFFFFFFFFFFFFFFFFFFFFFFFFFFFFFFF AND PUSH32 0x8BE0079C531659141344CD1FD0A4F28419497F9722A3DAAFE3B4186F6B6457E0 PUSH1 0x40 MLOAD PUSH1 0x40 MLOAD DUP1 SWAP2 SUB SWAP1 LOG3 POP POP JUMP JUMPDEST PUSH1 0x0 DUP2 EQ DUP1 PUSH2 0x1F9A JUMPI POP PUSH1 0x0 DUP4 PUSH20 0xFFFFFFFFFFFFFFFFFFFFFFFFFFFFFFFFFFFFFFFF AND PUSH4 0xDD62ED3E ADDRESS DUP6 PUSH1 0x40 MLOAD DUP4 PUSH4 0xFFFFFFFF AND PUSH1 0xE0 SHL DUP2 MSTORE PUSH1 0x4 ADD PUSH2 0x1F57 SWAP3 SWAP2 SWAP1 PUSH2 0x3802 JUMP JUMPDEST PUSH1 0x20 PUSH1 0x40 MLOAD DUP1 DUP4 SUB DUP2 DUP7 GAS STATICCALL ISZERO DUP1 ISZERO PUSH2 0x1F74 JUMPI RETURNDATASIZE PUSH1 0x0 DUP1 RETURNDATACOPY RETURNDATASIZE PUSH1 0x0 REVERT JUMPDEST POP POP POP POP PUSH1 0x40 MLOAD RETURNDATASIZE PUSH1 0x1F NOT PUSH1 0x1F DUP3 ADD AND DUP3 ADD DUP1 PUSH1 0x40 MSTORE POP DUP2 ADD SWAP1 PUSH2 0x1F98 SWAP2 SWAP1 PUSH2 0x2E78 JUMP JUMPDEST EQ JUMPDEST PUSH2 0x1FD9 JUMPI PUSH1 0x40 MLOAD PUSH32 0x8C379A000000000000000000000000000000000000000000000000000000000 DUP2 MSTORE PUSH1 0x4 ADD PUSH2 0x1FD0 SWAP1 PUSH2 0x389D JUMP JUMPDEST PUSH1 0x40 MLOAD DUP1 SWAP2 SUB SWAP1 REVERT JUMPDEST PUSH2 0x205A DUP4 PUSH4 0x95EA7B3 PUSH1 0xE0 SHL DUP5 DUP5 PUSH1 0x40 MLOAD PUSH1 0x24 ADD PUSH2 0x1FF8 SWAP3 SWAP2 SWAP1 PUSH2 0x38BD JUMP JUMPDEST PUSH1 0x40 MLOAD PUSH1 0x20 DUP2 DUP4 SUB SUB DUP2 MSTORE SWAP1 PUSH1 0x40 MSTORE SWAP1 PUSH28 0xFFFFFFFFFFFFFFFFFFFFFFFFFFFFFFFFFFFFFFFFFFFFFFFFFFFFFFFF NOT AND PUSH1 0x20 DUP3 ADD DUP1 MLOAD PUSH28 0xFFFFFFFFFFFFFFFFFFFFFFFFFFFFFFFFFFFFFFFFFFFFFFFFFFFFFFFF DUP4 DUP2 DUP4 AND OR DUP4 MSTORE POP POP POP POP PUSH2 0x20E5 JUMP JUMPDEST POP POP POP JUMP JUMPDEST PUSH2 0x20E0 DUP4 PUSH4 0xA9059CBB PUSH1 0xE0 SHL DUP5 DUP5 PUSH1 0x40 MLOAD PUSH1 0x24 ADD PUSH2 0x207E SWAP3 SWAP2 SWAP1 PUSH2 0x38BD JUMP JUMPDEST PUSH1 0x40 MLOAD PUSH1 0x20 DUP2 DUP4 SUB SUB DUP2 MSTORE SWAP1 PUSH1 0x40 MSTORE SWAP1 PUSH28 0xFFFFFFFFFFFFFFFFFFFFFFFFFFFFFFFFFFFFFFFFFFFFFFFFFFFFFFFF NOT AND PUSH1 0x20 DUP3 ADD DUP1 MLOAD PUSH28 0xFFFFFFFFFFFFFFFFFFFFFFFFFFFFFFFFFFFFFFFFFFFFFFFFFFFFFFFF DUP4 DUP2 DUP4 AND OR DUP4 MSTORE POP POP POP POP PUSH2 0x20E5 JUMP JUMPDEST POP POP POP JUMP JUMPDEST PUSH1 0x0 PUSH2 0x2147 DUP3 PUSH1 0x40 MLOAD DUP1 PUSH1 0x40 ADD PUSH1 0x40 MSTORE DUP1 PUSH1 0x20 DUP2 MSTORE PUSH1 0x20 ADD PUSH32 0x5361666545524332303A206C6F772D6C6576656C2063616C6C206661696C6564 DUP2 MSTORE POP DUP6 PUSH20 0xFFFFFFFFFFFFFFFFFFFFFFFFFFFFFFFFFFFFFFFF AND PUSH2 0x244F SWAP1 SWAP3 SWAP2 SWAP1 PUSH4 0xFFFFFFFF AND JUMP JUMPDEST SWAP1 POP PUSH1 0x0 DUP2 MLOAD EQ DUP1 PUSH2 0x2169 JUMPI POP DUP1 DUP1 PUSH1 0x20 ADD SWAP1 MLOAD DUP2 ADD SWAP1 PUSH2 0x2168 SWAP2 SWAP1 PUSH2 0x2EFF JUMP JUMPDEST JUMPDEST PUSH2 0x21A8 JUMPI PUSH1 0x40 MLOAD PUSH32 0x8C379A000000000000000000000000000000000000000000000000000000000 DUP2 MSTORE PUSH1 0x4 ADD PUSH2 0x219F SWAP1 PUSH2 0x3958 JUMP JUMPDEST PUSH1 0x40 MLOAD DUP1 SWAP2 SUB SWAP1 REVERT JUMPDEST POP POP POP JUMP JUMPDEST PUSH1 0x0 PUSH20 0xFFFFFFFFFFFFFFFFFFFFFFFFFFFFFFFFFFFFFFFF AND PUSH1 0x6 PUSH1 0x0 SWAP1 SLOAD SWAP1 PUSH2 0x100 EXP SWAP1 DIV PUSH20 0xFFFFFFFFFFFFFFFFFFFFFFFFFFFFFFFFFFFFFFFF AND PUSH20 0xFFFFFFFFFFFFFFFFFFFFFFFFFFFFFFFFFFFFFFFF AND SUB PUSH2 0x2235 JUMPI PUSH1 0x40 MLOAD PUSH32 0x7614917A00000000000000000000000000000000000000000000000000000000 DUP2 MSTORE PUSH1 0x4 ADD PUSH1 0x40 MLOAD DUP1 SWAP2 SUB SWAP1 REVERT JUMPDEST PUSH2 0x2282 PUSH1 0x6 PUSH1 0x0 SWAP1 SLOAD SWAP1 PUSH2 0x100 EXP SWAP1 DIV PUSH20 0xFFFFFFFFFFFFFFFFFFFFFFFFFFFFFFFFFFFFFFFF AND DUP5 DUP7 PUSH20 0xFFFFFFFFFFFFFFFFFFFFFFFFFFFFFFFFFFFFFFFF AND PUSH2 0x1F10 SWAP1 SWAP3 SWAP2 SWAP1 PUSH4 0xFFFFFFFF AND JUMP JUMPDEST PUSH1 0x0 PUSH1 0x1 PUSH8 0xFFFFFFFFFFFFFFFF DUP2 GT ISZERO PUSH2 0x229F JUMPI PUSH2 0x229E PUSH2 0x3506 JUMP JUMPDEST JUMPDEST PUSH1 0x40 MLOAD SWAP1 DUP1 DUP3 MSTORE DUP1 PUSH1 0x20 MUL PUSH1 0x20 ADD DUP3 ADD PUSH1 0x40 MSTORE DUP1 ISZERO PUSH2 0x22CD JUMPI DUP2 PUSH1 0x20 ADD PUSH1 0x20 DUP3 MUL DUP1 CALLDATASIZE DUP4 CALLDATACOPY DUP1 DUP3 ADD SWAP2 POP POP SWAP1 POP JUMPDEST POP SWAP1 POP DUP5 DUP2 PUSH1 0x0 DUP2 MLOAD DUP2 LT PUSH2 0x22E5 JUMPI PUSH2 0x22E4 PUSH2 0x3978 JUMP JUMPDEST JUMPDEST PUSH1 0x20 MUL PUSH1 0x20 ADD ADD SWAP1 PUSH20 0xFFFFFFFFFFFFFFFFFFFFFFFFFFFFFFFFFFFFFFFF AND SWAP1 DUP2 PUSH20 0xFFFFFFFFFFFFFFFFFFFFFFFFFFFFFFFFFFFFFFFF AND DUP2 MSTORE POP POP PUSH1 0x0 PUSH1 0x40 MLOAD DUP1 PUSH1 0xA0 ADD PUSH1 0x40 MSTORE DUP1 DUP6 PUSH1 0x40 MLOAD PUSH1 0x20 ADD PUSH2 0x233D SWAP2 SWAP1 PUSH2 0x26A9 JUMP JUMPDEST PUSH1 0x40 MLOAD PUSH1 0x20 DUP2 DUP4 SUB SUB DUP2 MSTORE SWAP1 PUSH1 0x40 MSTORE DUP2 MSTORE PUSH1 0x20 ADD PUSH1 0x40 MLOAD DUP1 PUSH1 0x20 ADD PUSH1 0x40 MSTORE DUP1 PUSH1 0x0 DUP2 MSTORE POP DUP2 MSTORE PUSH1 0x20 ADD DUP4 DUP2 MSTORE PUSH1 0x20 ADD PUSH1 0x0 PUSH20 0xFFFFFFFFFFFFFFFFFFFFFFFFFFFFFFFFFFFFFFFF AND DUP2 MSTORE PUSH1 0x20 ADD PUSH1 0x40 MLOAD DUP1 PUSH1 0x20 ADD PUSH1 0x40 MSTORE DUP1 PUSH1 0x0 DUP2 MSTORE POP DUP2 MSTORE POP SWAP1 POP PUSH1 0x6 PUSH1 0x0 SWAP1 SLOAD SWAP1 PUSH2 0x100 EXP SWAP1 DIV PUSH20 0xFFFFFFFFFFFFFFFFFFFFFFFFFFFFFFFFFFFFFFFF AND PUSH20 0xFFFFFFFFFFFFFFFFFFFFFFFFFFFFFFFFFFFFFFFF AND PUSH4 0x61138298 DUP5 DUP4 PUSH1 0x40 MLOAD DUP4 PUSH4 0xFFFFFFFF AND PUSH1 0xE0 SHL DUP2 MSTORE PUSH1 0x4 ADD PUSH2 0x23FB SWAP3 SWAP2 SWAP1 PUSH2 0x3B59 JUMP JUMPDEST PUSH1 0x20 PUSH1 0x40 MLOAD DUP1 DUP4 SUB DUP2 PUSH1 0x0 DUP8 GAS CALL ISZERO DUP1 ISZERO PUSH2 0x241A JUMPI RETURNDATASIZE PUSH1 0x0 DUP1 RETURNDATACOPY RETURNDATASIZE PUSH1 0x0 REVERT JUMPDEST POP POP POP POP PUSH1 0x40 MLOAD RETURNDATASIZE PUSH1 0x1F NOT PUSH1 0x1F DUP3 ADD AND DUP3 ADD DUP1 PUSH1 0x40 MSTORE POP DUP2 ADD SWAP1 PUSH2 0x243E SWAP2 SWAP1 PUSH2 0x3BB5 JUMP JUMPDEST POP POP POP POP POP POP POP JUMP JUMPDEST PUSH1 0x0 CALLER SWAP1 POP SWAP1 JUMP JUMPDEST PUSH1 0x60 PUSH2 0x245E DUP5 DUP5 PUSH1 0x0 DUP6 PUSH2 0x2467 JUMP JUMPDEST SWAP1 POP SWAP4 SWAP3 POP POP POP JUMP JUMPDEST PUSH1 0x60 DUP3 SELFBALANCE LT ISZERO PUSH2 0x24AC JUMPI PUSH1 0x40 MLOAD PUSH32 0x8C379A000000000000000000000000000000000000000000000000000000000 DUP2 MSTORE PUSH1 0x4 ADD PUSH2 0x24A3 SWAP1 PUSH2 0x3C54 JUMP JUMPDEST PUSH1 0x40 MLOAD DUP1 SWAP2 SUB SWAP1 REVERT JUMPDEST PUSH1 0x0 DUP1 DUP7 PUSH20 0xFFFFFFFFFFFFFFFFFFFFFFFFFFFFFFFFFFFFFFFF AND DUP6 DUP8 PUSH1 0x40 MLOAD PUSH2 0x24D5 SWAP2 SWAP1 PUSH2 0x3CB0 JUMP JUMPDEST PUSH1 0x0 PUSH1 0x40 MLOAD DUP1 DUP4 SUB DUP2 DUP6 DUP8 GAS CALL SWAP3 POP POP POP RETURNDATASIZE DUP1 PUSH1 0x0 DUP2 EQ PUSH2 0x2512 JUMPI PUSH1 0x40 MLOAD SWAP2 POP PUSH1 0x1F NOT PUSH1 0x3F RETURNDATASIZE ADD AND DUP3 ADD PUSH1 0x40 MSTORE RETURNDATASIZE DUP3 MSTORE RETURNDATASIZE PUSH1 0x0 PUSH1 0x20 DUP5 ADD RETURNDATACOPY PUSH2 0x2517 JUMP JUMPDEST PUSH1 0x60 SWAP2 POP JUMPDEST POP SWAP2 POP SWAP2 POP PUSH2 0x2528 DUP8 DUP4 DUP4 DUP8 PUSH2 0x2534 JUMP JUMPDEST SWAP3 POP POP POP SWAP5 SWAP4 POP POP POP POP JUMP JUMPDEST PUSH1 0x60 DUP4 ISZERO PUSH2 0x2596 JUMPI PUSH1 0x0 DUP4 MLOAD SUB PUSH2 0x258E JUMPI PUSH2 0x254E DUP6 PUSH2 0x25A9 JUMP JUMPDEST PUSH2 0x258D JUMPI PUSH1 0x40 MLOAD PUSH32 0x8C379A000000000000000000000000000000000000000000000000000000000 DUP2 MSTORE PUSH1 0x4 ADD PUSH2 0x2584 SWAP1 PUSH2 0x3D13 JUMP JUMPDEST PUSH1 0x40 MLOAD DUP1 SWAP2 SUB SWAP1 REVERT JUMPDEST JUMPDEST DUP3 SWAP1 POP PUSH2 0x25A1 JUMP JUMPDEST PUSH2 0x25A0 DUP4 DUP4 PUSH2 0x25CC JUMP JUMPDEST JUMPDEST SWAP5 SWAP4 POP POP POP POP JUMP JUMPDEST PUSH1 0x0 DUP1 DUP3 PUSH20 0xFFFFFFFFFFFFFFFFFFFFFFFFFFFFFFFFFFFFFFFF AND EXTCODESIZE GT SWAP1 POP SWAP2 SWAP1 POP JUMP JUMPDEST PUSH1 0x0 DUP3 MLOAD GT ISZERO PUSH2 0x25DF JUMPI DUP2 MLOAD DUP1 DUP4 PUSH1 0x20 ADD REVERT JUMPDEST DUP1 PUSH1 0x40 MLOAD PUSH32 0x8C379A000000000000000000000000000000000000000000000000000000000 DUP2 MSTORE PUSH1 0x4 ADD PUSH2 0x2613 SWAP2 SWAP1 PUSH2 0x3D33 JUMP JUMPDEST PUSH1 0x40 MLOAD DUP1 SWAP2 SUB SWAP1 REVERT JUMPDEST PUSH1 0x40 MLOAD DUP1 PUSH1 0xC0 ADD PUSH1 0x40 MSTORE DUP1 PUSH1 0x0 DUP2 MSTORE PUSH1 0x20 ADD PUSH1 0x0 DUP2 MSTORE PUSH1 0x20 ADD PUSH1 0x0 DUP2 MSTORE PUSH1 0x20 ADD PUSH1 0x0 DUP2 MSTORE PUSH1 0x20 ADD PUSH1 0x0 PUSH20 0xFFFFFFFFFFFFFFFFFFFFFFFFFFFFFFFFFFFFFFFF AND DUP2 MSTORE PUSH1 0x20 ADD PUSH1 0x60 DUP2 MSTORE POP SWAP1 JUMP JUMPDEST PUSH1 0x0 PUSH20 0xFFFFFFFFFFFFFFFFFFFFFFFFFFFFFFFFFFFFFFFF DUP3 AND SWAP1 POP SWAP2 SWAP1 POP JUMP JUMPDEST PUSH1 0x0 PUSH2 0x2693 DUP3 PUSH2 0x2668 JUMP JUMPDEST SWAP1 POP SWAP2 SWAP1 POP JUMP JUMPDEST PUSH2 0x26A3 DUP2 PUSH2 0x2688 JUMP JUMPDEST DUP3 MSTORE POP POP JUMP JUMPDEST PUSH1 0x0 PUSH1 0x20 DUP3 ADD SWAP1 POP PUSH2 0x26BE PUSH1 0x0 DUP4 ADD DUP5 PUSH2 0x269A JUMP JUMPDEST SWAP3 SWAP2 POP POP JUMP JUMPDEST PUSH1 0x0 PUSH1 0x40 MLOAD SWAP1 POP SWAP1 JUMP JUMPDEST PUSH1 0x0 DUP1 REVERT JUMPDEST PUSH2 0x26DC DUP2 PUSH2 0x2688 JUMP JUMPDEST DUP2 EQ PUSH2 0x26E7 JUMPI PUSH1 0x0 DUP1 REVERT JUMPDEST POP JUMP JUMPDEST PUSH1 0x0 DUP2 CALLDATALOAD SWAP1 POP PUSH2 0x26F9 DUP2 PUSH2 0x26D3 JUMP JUMPDEST SWAP3 SWAP2 POP POP JUMP JUMPDEST PUSH1 0x0 DUP2 SWAP1 POP SWAP2 SWAP1 POP JUMP JUMPDEST PUSH2 0x2712 DUP2 PUSH2 0x26FF JUMP JUMPDEST DUP2 EQ PUSH2 0x271D JUMPI PUSH1 0x0 DUP1 REVERT JUMPDEST POP JUMP JUMPDEST PUSH1 0x0 DUP2 CALLDATALOAD SWAP1 POP PUSH2 0x272F DUP2 PUSH2 0x2709 JUMP JUMPDEST SWAP3 SWAP2 POP POP JUMP JUMPDEST PUSH1 0x0 PUSH1 0xFF DUP3 AND SWAP1 POP SWAP2 SWAP1 POP JUMP JUMPDEST PUSH2 0x274B DUP2 PUSH2 0x2735 JUMP JUMPDEST DUP2 EQ PUSH2 0x2756 JUMPI PUSH1 0x0 DUP1 REVERT JUMPDEST POP JUMP JUMPDEST PUSH1 0x0 DUP2 CALLDATALOAD SWAP1 POP PUSH2 0x2768 DUP2 PUSH2 0x2742 JUMP JUMPDEST SWAP3 SWAP2 POP POP JUMP JUMPDEST PUSH1 0x0 DUP1 PUSH1 0x0 DUP1 PUSH1 0x80 DUP6 DUP8 SUB SLT ISZERO PUSH2 0x2788 JUMPI PUSH2 0x2787 PUSH2 0x26CE JUMP JUMPDEST JUMPDEST PUSH1 0x0 PUSH2 0x2796 DUP8 DUP3 DUP9 ADD PUSH2 0x26EA JUMP JUMPDEST SWAP5 POP POP PUSH1 0x20 PUSH2 0x27A7 DUP8 DUP3 DUP9 ADD PUSH2 0x2720 JUMP JUMPDEST SWAP4 POP POP PUSH1 0x40 PUSH2 0x27B8 DUP8 DUP3 DUP9 ADD PUSH2 0x2720 JUMP JUMPDEST SWAP3 POP POP PUSH1 0x60 PUSH2 0x27C9 DUP8 DUP3 DUP9 ADD PUSH2 0x2759 JUMP JUMPDEST SWAP2 POP POP SWAP3 SWAP6 SWAP2 SWAP5 POP SWAP3 POP JUMP JUMPDEST PUSH1 0x2 DUP2 LT PUSH2 0x27E2 JUMPI PUSH1 0x0 DUP1 REVERT JUMPDEST POP JUMP JUMPDEST PUSH1 0x0 DUP2 CALLDATALOAD SWAP1 POP PUSH2 0x27F4 DUP2 PUSH2 0x27D5 JUMP JUMPDEST SWAP3 SWAP2 POP POP JUMP JUMPDEST PUSH1 0x0 DUP1 PUSH1 0x0 DUP1 PUSH1 0x80 DUP6 DUP8 SUB SLT ISZERO PUSH2 0x2814 JUMPI PUSH2 0x2813 PUSH2 0x26CE JUMP JUMPDEST JUMPDEST PUSH1 0x0 PUSH2 0x2822 DUP8 DUP3 DUP9 ADD PUSH2 0x26EA JUMP JUMPDEST SWAP5 POP POP PUSH1 0x20 PUSH2 0x2833 DUP8 DUP3 DUP9 ADD PUSH2 0x2720 JUMP JUMPDEST SWAP4 POP POP PUSH1 0x40 PUSH2 0x2844 DUP8 DUP3 DUP9 ADD PUSH2 0x2720 JUMP JUMPDEST SWAP3 POP POP PUSH1 0x60 PUSH2 0x2855 DUP8 DUP3 DUP9 ADD PUSH2 0x27E5 JUMP JUMPDEST SWAP2 POP POP SWAP3 SWAP6 SWAP2 SWAP5 POP SWAP3 POP JUMP JUMPDEST PUSH2 0x286A DUP2 PUSH2 0x26FF JUMP JUMPDEST DUP3 MSTORE POP POP JUMP JUMPDEST PUSH2 0x2879 DUP2 PUSH2 0x2688 JUMP JUMPDEST DUP3 MSTORE POP POP JUMP JUMPDEST PUSH1 0x0 DUP2 MLOAD SWAP1 POP SWAP2 SWAP1 POP JUMP JUMPDEST PUSH1 0x0 DUP3 DUP3 MSTORE PUSH1 0x20 DUP3 ADD SWAP1 POP SWAP3 SWAP2 POP POP JUMP JUMPDEST PUSH1 0x0 JUMPDEST DUP4 DUP2 LT ISZERO PUSH2 0x28B9 JUMPI DUP1 DUP3 ADD MLOAD DUP2 DUP5 ADD MSTORE PUSH1 0x20 DUP2 ADD SWAP1 POP PUSH2 0x289E JUMP JUMPDEST PUSH1 0x0 DUP5 DUP5 ADD MSTORE POP POP POP POP JUMP JUMPDEST PUSH1 0x0 PUSH1 0x1F NOT PUSH1 0x1F DUP4 ADD AND SWAP1 POP SWAP2 SWAP1 POP JUMP JUMPDEST PUSH1 0x0 PUSH2 0x28E1 DUP3 PUSH2 0x287F JUMP JUMPDEST PUSH2 0x28EB DUP2 DUP6 PUSH2 0x288A JUMP JUMPDEST SWAP4 POP PUSH2 0x28FB DUP2 DUP6 PUSH1 0x20 DUP7 ADD PUSH2 0x289B JUMP JUMPDEST PUSH2 0x2904 DUP2 PUSH2 0x28C5 JUMP JUMPDEST DUP5 ADD SWAP2 POP POP SWAP3 SWAP2 POP POP JUMP JUMPDEST PUSH1 0x0 PUSH1 0xC0 DUP4 ADD PUSH1 0x0 DUP4 ADD MLOAD PUSH2 0x2927 PUSH1 0x0 DUP7 ADD DUP3 PUSH2 0x2861 JUMP JUMPDEST POP PUSH1 0x20 DUP4 ADD MLOAD PUSH2 0x293A PUSH1 0x20 DUP7 ADD DUP3 PUSH2 0x2861 JUMP JUMPDEST POP PUSH1 0x40 DUP4 ADD MLOAD PUSH2 0x294D PUSH1 0x40 DUP7 ADD DUP3 PUSH2 0x2861 JUMP JUMPDEST POP PUSH1 0x60 DUP4 ADD MLOAD PUSH2 0x2960 PUSH1 0x60 DUP7 ADD DUP3 PUSH2 0x2861 JUMP JUMPDEST POP PUSH1 0x80 DUP4 ADD MLOAD PUSH2 0x2973 PUSH1 0x80 DUP7 ADD DUP3 PUSH2 0x2870 JUMP JUMPDEST POP PUSH1 0xA0 DUP4 ADD MLOAD DUP5 DUP3 SUB PUSH1 0xA0 DUP7 ADD MSTORE PUSH2 0x298B DUP3 DUP3 PUSH2 0x28D6 JUMP JUMPDEST SWAP2 POP POP DUP1 SWAP2 POP POP SWAP3 SWAP2 POP POP JUMP JUMPDEST PUSH1 0x0 PUSH1 0x20 DUP3 ADD SWAP1 POP DUP2 DUP2 SUB PUSH1 0x0 DUP4 ADD MSTORE PUSH2 0x29B2 DUP2 DUP5 PUSH2 0x290F JUMP JUMPDEST SWAP1 POP SWAP3 SWAP2 POP POP JUMP JUMPDEST PUSH1 0x0 PUSH1 0x20 DUP3 DUP5 SUB SLT ISZERO PUSH2 0x29D0 JUMPI PUSH2 0x29CF PUSH2 0x26CE JUMP JUMPDEST JUMPDEST PUSH1 0x0 PUSH2 0x29DE DUP5 DUP3 DUP6 ADD PUSH2 0x26EA JUMP JUMPDEST SWAP2 POP POP SWAP3 SWAP2 POP POP JUMP JUMPDEST PUSH2 0x29F0 DUP2 PUSH2 0x26FF JUMP JUMPDEST DUP3 MSTORE POP POP JUMP JUMPDEST PUSH1 0x0 PUSH1 0x20 DUP3 ADD SWAP1 POP PUSH2 0x2A0B PUSH1 0x0 DUP4 ADD DUP5 PUSH2 0x29E7 JUMP JUMPDEST SWAP3 SWAP2 POP POP JUMP JUMPDEST PUSH1 0x0 PUSH1 0x20 DUP3 DUP5 SUB SLT ISZERO PUSH2 0x2A27 JUMPI PUSH2 0x2A26 PUSH2 0x26CE JUMP JUMPDEST JUMPDEST PUSH1 0x0 PUSH2 0x2A35 DUP5 DUP3 DUP6 ADD PUSH2 0x2720 JUMP JUMPDEST SWAP2 POP POP SWAP3 SWAP2 POP POP JUMP JUMPDEST PUSH1 0x0 DUP2 ISZERO ISZERO SWAP1 POP SWAP2 SWAP1 POP JUMP JUMPDEST PUSH2 0x2A53 DUP2 PUSH2 0x2A3E JUMP JUMPDEST DUP3 MSTORE POP POP JUMP JUMPDEST PUSH1 0x0 PUSH1 0x60 DUP3 ADD SWAP1 POP PUSH2 0x2A6E PUSH1 0x0 DUP4 ADD DUP7 PUSH2 0x29E7 JUMP JUMPDEST PUSH2 0x2A7B PUSH1 0x20 DUP4 ADD DUP6 PUSH2 0x29E7 JUMP JUMPDEST PUSH2 0x2A88 PUSH1 0x40 DUP4 ADD DUP5 PUSH2 0x2A4A JUMP JUMPDEST SWAP5 SWAP4 POP POP POP POP JUMP JUMPDEST PUSH1 0x0 DUP1 PUSH1 0x0 DUP1 PUSH1 0x80 DUP6 DUP8 SUB SLT ISZERO PUSH2 0x2AAA JUMPI PUSH2 0x2AA9 PUSH2 0x26CE JUMP JUMPDEST JUMPDEST PUSH1 0x0 PUSH2 0x2AB8 DUP8 DUP3 DUP9 ADD PUSH2 0x26EA JUMP JUMPDEST SWAP5 POP POP PUSH1 0x20 PUSH2 0x2AC9 DUP8 DUP3 DUP9 ADD PUSH2 0x2720 JUMP JUMPDEST SWAP4 POP POP PUSH1 0x40 PUSH2 0x2ADA DUP8 DUP3 DUP9 ADD PUSH2 0x26EA JUMP JUMPDEST SWAP3 POP POP PUSH1 0x60 PUSH2 0x2AEB DUP8 DUP3 DUP9 ADD PUSH2 0x2720 JUMP JUMPDEST SWAP2 POP POP SWAP3 SWAP6 SWAP2 SWAP5 POP SWAP3 POP JUMP JUMPDEST PUSH1 0x0 DUP1 PUSH1 0x40 DUP4 DUP6 SUB SLT ISZERO PUSH2 0x2B0E JUMPI PUSH2 0x2B0D PUSH2 0x26CE JUMP JUMPDEST JUMPDEST PUSH1 0x0 PUSH2 0x2B1C DUP6 DUP3 DUP7 ADD PUSH2 0x26EA JUMP JUMPDEST SWAP3 POP POP PUSH1 0x20 PUSH2 0x2B2D DUP6 DUP3 DUP7 ADD PUSH2 0x2720 JUMP JUMPDEST SWAP2 POP POP SWAP3 POP SWAP3 SWAP1 POP JUMP JUMPDEST PUSH2 0x2B40 DUP2 PUSH2 0x2A3E JUMP JUMPDEST DUP2 EQ PUSH2 0x2B4B JUMPI PUSH1 0x0 DUP1 REVERT JUMPDEST POP JUMP JUMPDEST PUSH1 0x0 DUP2 CALLDATALOAD SWAP1 POP PUSH2 0x2B5D DUP2 PUSH2 0x2B37 JUMP JUMPDEST SWAP3 SWAP2 POP POP JUMP JUMPDEST PUSH1 0x0 DUP1 PUSH1 0x0 DUP1 PUSH1 0x80 DUP6 DUP8 SUB SLT ISZERO PUSH2 0x2B7D JUMPI PUSH2 0x2B7C PUSH2 0x26CE JUMP JUMPDEST JUMPDEST PUSH1 0x0 PUSH2 0x2B8B DUP8 DUP3 DUP9 ADD PUSH2 0x2720 JUMP JUMPDEST SWAP5 POP POP PUSH1 0x20 PUSH2 0x2B9C DUP8 DUP3 DUP9 ADD PUSH2 0x2720 JUMP JUMPDEST SWAP4 POP POP PUSH1 0x40 PUSH2 0x2BAD DUP8 DUP3 DUP9 ADD PUSH2 0x2720 JUMP JUMPDEST SWAP3 POP POP PUSH1 0x60 PUSH2 0x2BBE DUP8 DUP3 DUP9 ADD PUSH2 0x2B4E JUMP JUMPDEST SWAP2 POP POP SWAP3 SWAP6 SWAP2 SWAP5 POP SWAP3 POP JUMP JUMPDEST PUSH32 0x4E487B7100000000000000000000000000000000000000000000000000000000 PUSH1 0x0 MSTORE PUSH1 0x21 PUSH1 0x4 MSTORE PUSH1 0x24 PUSH1 0x0 REVERT JUMPDEST PUSH1 0x2 DUP2 LT PUSH2 0x2C0A JUMPI PUSH2 0x2C09 PUSH2 0x2BCA JUMP JUMPDEST JUMPDEST POP JUMP JUMPDEST PUSH1 0x0 DUP2 SWAP1 POP PUSH2 0x2C1B DUP3 PUSH2 0x2BF9 JUMP JUMPDEST SWAP2 SWAP1 POP JUMP JUMPDEST PUSH1 0x0 PUSH2 0x2C2B DUP3 PUSH2 0x2C0D JUMP JUMPDEST SWAP1 POP SWAP2 SWAP1 POP JUMP JUMPDEST PUSH2 0x2C3B DUP2 PUSH2 0x2C20 JUMP JUMPDEST DUP3 MSTORE POP POP JUMP JUMPDEST PUSH1 0x0 PUSH1 0xA0 DUP3 ADD SWAP1 POP PUSH2 0x2C56 PUSH1 0x0 DUP4 ADD DUP9 PUSH2 0x29E7 JUMP JUMPDEST PUSH2 0x2C63 PUSH1 0x20 DUP4 ADD DUP8 PUSH2 0x29E7 JUMP JUMPDEST PUSH2 0x2C70 PUSH1 0x40 DUP4 ADD DUP7 PUSH2 0x2C32 JUMP JUMPDEST DUP2 DUP2 SUB PUSH1 0x60 DUP4 ADD MSTORE PUSH2 0x2C82 DUP2 DUP6 PUSH2 0x290F JUMP JUMPDEST SWAP1 POP PUSH2 0x2C91 PUSH1 0x80 DUP4 ADD DUP5 PUSH2 0x29E7 JUMP JUMPDEST SWAP7 SWAP6 POP POP POP POP POP POP JUMP JUMPDEST PUSH32 0x4E487B7100000000000000000000000000000000000000000000000000000000 PUSH1 0x0 MSTORE PUSH1 0x11 PUSH1 0x4 MSTORE PUSH1 0x24 PUSH1 0x0 REVERT JUMPDEST PUSH1 0x0 PUSH2 0x2CD5 DUP3 PUSH2 0x26FF JUMP JUMPDEST SWAP2 POP PUSH2 0x2CE0 DUP4 PUSH2 0x26FF JUMP JUMPDEST SWAP3 POP DUP3 DUP3 MUL PUSH2 0x2CEE DUP2 PUSH2 0x26FF JUMP JUMPDEST SWAP2 POP DUP3 DUP3 DIV DUP5 EQ DUP4 ISZERO OR PUSH2 0x2D05 JUMPI PUSH2 0x2D04 PUSH2 0x2C9B JUMP JUMPDEST JUMPDEST POP SWAP3 SWAP2 POP POP JUMP JUMPDEST PUSH32 0x4E487B7100000000000000000000000000000000000000000000000000000000 PUSH1 0x0 MSTORE PUSH1 0x12 PUSH1 0x4 MSTORE PUSH1 0x24 PUSH1 0x0 REVERT JUMPDEST PUSH1 0x0 PUSH2 0x2D46 DUP3 PUSH2 0x26FF JUMP JUMPDEST SWAP2 POP PUSH2 0x2D51 DUP4 PUSH2 0x26FF JUMP JUMPDEST SWAP3 POP DUP3 PUSH2 0x2D61 JUMPI PUSH2 0x2D60 PUSH2 0x2D0C JUMP JUMPDEST JUMPDEST DUP3 DUP3 DIV SWAP1 POP SWAP3 SWAP2 POP POP JUMP JUMPDEST PUSH1 0x0 DUP3 DUP3 MSTORE PUSH1 0x20 DUP3 ADD SWAP1 POP SWAP3 SWAP2 POP POP JUMP JUMPDEST PUSH32 0x496E76616C696420616464726573730000000000000000000000000000000000 PUSH1 0x0 DUP3 ADD MSTORE POP JUMP JUMPDEST PUSH1 0x0 PUSH2 0x2DB3 PUSH1 0xF DUP4 PUSH2 0x2D6C JUMP JUMPDEST SWAP2 POP PUSH2 0x2DBE DUP3 PUSH2 0x2D7D JUMP JUMPDEST PUSH1 0x20 DUP3 ADD SWAP1 POP SWAP2 SWAP1 POP JUMP JUMPDEST PUSH1 0x0 PUSH1 0x20 DUP3 ADD SWAP1 POP DUP2 DUP2 SUB PUSH1 0x0 DUP4 ADD MSTORE PUSH2 0x2DE2 DUP2 PUSH2 0x2DA6 JUMP JUMPDEST SWAP1 POP SWAP2 SWAP1 POP JUMP JUMPDEST PUSH32 0x4C69466900000000000000000000000000000000000000000000000000000000 PUSH1 0x0 DUP3 ADD MSTORE POP JUMP JUMPDEST PUSH1 0x0 PUSH2 0x2E1F PUSH1 0x4 DUP4 PUSH2 0x2D6C JUMP JUMPDEST SWAP2 POP PUSH2 0x2E2A DUP3 PUSH2 0x2DE9 JUMP JUMPDEST PUSH1 0x20 DUP3 ADD SWAP1 POP SWAP2 SWAP1 POP JUMP JUMPDEST PUSH1 0x0 PUSH1 0x40 DUP3 ADD SWAP1 POP DUP2 DUP2 SUB PUSH1 0x0 DUP4 ADD MSTORE PUSH2 0x2E4E DUP2 PUSH2 0x2E12 JUMP JUMPDEST SWAP1 POP PUSH2 0x2E5D PUSH1 0x20 DUP4 ADD DUP5 PUSH2 0x29E7 JUMP JUMPDEST SWAP3 SWAP2 POP POP JUMP JUMPDEST PUSH1 0x0 DUP2 MLOAD SWAP1 POP PUSH2 0x2E72 DUP2 PUSH2 0x2709 JUMP JUMPDEST SWAP3 SWAP2 POP POP JUMP JUMPDEST PUSH1 0x0 PUSH1 0x20 DUP3 DUP5 SUB SLT ISZERO PUSH2 0x2E8E JUMPI PUSH2 0x2E8D PUSH2 0x26CE JUMP JUMPDEST JUMPDEST PUSH1 0x0 PUSH2 0x2E9C DUP5 DUP3 DUP6 ADD PUSH2 0x2E63 JUMP JUMPDEST SWAP2 POP POP SWAP3 SWAP2 POP POP JUMP JUMPDEST PUSH1 0x0 PUSH1 0x80 DUP3 ADD SWAP1 POP PUSH2 0x2EBA PUSH1 0x0 DUP4 ADD DUP8 PUSH2 0x269A JUMP JUMPDEST PUSH2 0x2EC7 PUSH1 0x20 DUP4 ADD DUP7 PUSH2 0x29E7 JUMP JUMPDEST PUSH2 0x2ED4 PUSH1 0x40 DUP4 ADD DUP6 PUSH2 0x29E7 JUMP JUMPDEST PUSH2 0x2EE1 PUSH1 0x60 DUP4 ADD DUP5 PUSH2 0x269A JUMP JUMPDEST SWAP6 SWAP5 POP POP POP POP POP JUMP JUMPDEST PUSH1 0x0 DUP2 MLOAD SWAP1 POP PUSH2 0x2EF9 DUP2 PUSH2 0x2B37 JUMP JUMPDEST SWAP3 SWAP2 POP POP JUMP JUMPDEST PUSH1 0x0 PUSH1 0x20 DUP3 DUP5 SUB SLT ISZERO PUSH2 0x2F15 JUMPI PUSH2 0x2F14 PUSH2 0x26CE JUMP JUMPDEST JUMPDEST PUSH1 0x0 PUSH2 0x2F23 DUP5 DUP3 DUP6 ADD PUSH2 0x2EEA JUMP JUMPDEST SWAP2 POP POP SWAP3 SWAP2 POP POP JUMP JUMPDEST PUSH32 0x437573746F6D20627269646765206661696C6564000000000000000000000000 PUSH1 0x0 DUP3 ADD MSTORE POP JUMP JUMPDEST PUSH1 0x0 PUSH2 0x2F62 PUSH1 0x14 DUP4 PUSH2 0x2D6C JUMP JUMPDEST SWAP2 POP PUSH2 0x2F6D DUP3 PUSH2 0x2F2C JUMP JUMPDEST PUSH1 0x20 DUP3 ADD SWAP1 POP SWAP2 SWAP1 POP JUMP JUMPDEST PUSH1 0x0 PUSH1 0x20 DUP3 ADD SWAP1 POP DUP2 DUP2 SUB PUSH1 0x0 DUP4 ADD MSTORE PUSH2 0x2F91 DUP2 PUSH2 0x2F55 JUMP JUMPDEST SWAP1 POP SWAP2 SWAP1 POP JUMP JUMPDEST PUSH32 0x437573746F6D0000000000000000000000000000000000000000000000000000 PUSH1 0x0 DUP3 ADD MSTORE POP JUMP JUMPDEST PUSH1 0x0 PUSH2 0x2FCE PUSH1 0x6 DUP4 PUSH2 0x2D6C JUMP JUMPDEST SWAP2 POP PUSH2 0x2FD9 DUP3 PUSH2 0x2F98 JUMP JUMPDEST PUSH1 0x20 DUP3 ADD SWAP1 POP SWAP2 SWAP1 POP JUMP JUMPDEST PUSH1 0x0 PUSH1 0x80 DUP3 ADD SWAP1 POP PUSH2 0x2FF9 PUSH1 0x0 DUP4 ADD DUP7 PUSH2 0x29E7 JUMP JUMPDEST PUSH2 0x3006 PUSH1 0x20 DUP4 ADD DUP6 PUSH2 0x29E7 JUMP JUMPDEST DUP2 DUP2 SUB PUSH1 0x40 DUP4 ADD MSTORE PUSH2 0x3017 DUP2 PUSH2 0x2FC1 JUMP JUMPDEST SWAP1 POP PUSH2 0x3026 PUSH1 0x60 DUP4 ADD DUP5 PUSH2 0x29E7 JUMP JUMPDEST SWAP5 SWAP4 POP POP POP POP JUMP JUMPDEST PUSH1 0x0 PUSH1 0x40 DUP3 ADD SWAP1 POP DUP2 DUP2 SUB PUSH1 0x0 DUP4 ADD MSTORE PUSH2 0x3047 DUP2 PUSH2 0x2FC1 JUMP JUMPDEST SWAP1 POP PUSH2 0x3056 PUSH1 0x20 DUP4 ADD DUP5 PUSH2 0x29E7 JUMP JUMPDEST SWAP3 SWAP2 POP POP JUMP JUMPDEST PUSH32 0x496E7465726E616C206F6E6C7900000000000000000000000000000000000000 PUSH1 0x0 DUP3 ADD MSTORE POP JUMP JUMPDEST PUSH1 0x0 PUSH2 0x3092 PUSH1 0xD DUP4 PUSH2 0x2D6C JUMP JUMPDEST SWAP2 POP PUSH2 0x309D DUP3 PUSH2 0x305C JUMP JUMPDEST PUSH1 0x20 DUP3 ADD SWAP1 POP SWAP2 SWAP1 POP JUMP JUMPDEST PUSH1 0x0 PUSH1 0x20 DUP3 ADD SWAP1 POP DUP2 DUP2 SUB PUSH1 0x0 DUP4 ADD MSTORE PUSH2 0x30C1 DUP2 PUSH2 0x3085 JUMP JUMPDEST SWAP1 POP SWAP2 SWAP1 POP JUMP JUMPDEST PUSH1 0x0 DUP2 PUSH1 0x60 SHL SWAP1 POP SWAP2 SWAP1 POP JUMP JUMPDEST PUSH1 0x0 PUSH2 0x30E0 DUP3 PUSH2 0x30C8 JUMP JUMPDEST SWAP1 POP SWAP2 SWAP1 POP JUMP JUMPDEST PUSH1 0x0 PUSH2 0x30F2 DUP3 PUSH2 0x30D5 JUMP JUMPDEST SWAP1 POP SWAP2 SWAP1 POP JUMP JUMPDEST PUSH2 0x310A PUSH2 0x3105 DUP3 PUSH2 0x2688 JUMP JUMPDEST PUSH2 0x30E7 JUMP JUMPDEST DUP3 MSTORE POP POP JUMP JUMPDEST PUSH1 0x0 DUP2 SWAP1 POP SWAP2 SWAP1 POP JUMP JUMPDEST PUSH2 0x312B PUSH2 0x3126 DUP3 PUSH2 0x26FF JUMP JUMPDEST PUSH2 0x3110 JUMP JUMPDEST DUP3 MSTORE POP POP JUMP JUMPDEST PUSH1 0x0 PUSH2 0x313D DUP3 DUP7 PUSH2 0x30F9 JUMP JUMPDEST PUSH1 0x14 DUP3 ADD SWAP2 POP PUSH2 0x314D DUP3 DUP6 PUSH2 0x311A JUMP JUMPDEST PUSH1 0x20 DUP3 ADD SWAP2 POP PUSH2 0x315D DUP3 DUP5 PUSH2 0x311A JUMP JUMPDEST PUSH1 0x20 DUP3 ADD SWAP2 POP DUP2 SWAP1 POP SWAP5 SWAP4 POP POP POP POP JUMP JUMPDEST PUSH1 0x0 DUP2 SWAP1 POP SWAP2 SWAP1 POP JUMP JUMPDEST PUSH2 0x3181 DUP2 PUSH2 0x316E JUMP JUMPDEST DUP3 MSTORE POP POP JUMP JUMPDEST PUSH2 0x3190 DUP2 PUSH2 0x2A3E JUMP JUMPDEST DUP3 MSTORE POP POP JUMP JUMPDEST PUSH1 0x0 PUSH2 0x140 DUP4 ADD PUSH1 0x0 DUP4 ADD MLOAD PUSH2 0x31AF PUSH1 0x0 DUP7 ADD DUP3 PUSH2 0x3178 JUMP JUMPDEST POP PUSH1 0x20 DUP4 ADD MLOAD DUP5 DUP3 SUB PUSH1 0x20 DUP7 ADD MSTORE PUSH2 0x31C7 DUP3 DUP3 PUSH2 0x28D6 JUMP JUMPDEST SWAP2 POP POP PUSH1 0x40 DUP4 ADD MLOAD DUP5 DUP3 SUB PUSH1 0x40 DUP7 ADD MSTORE PUSH2 0x31E1 DUP3 DUP3 PUSH2 0x28D6 JUMP JUMPDEST SWAP2 POP POP PUSH1 0x60 DUP4 ADD MLOAD PUSH2 0x31F6 PUSH1 0x60 DUP7 ADD DUP3 PUSH2 0x2870 JUMP JUMPDEST POP PUSH1 0x80 DUP4 ADD MLOAD PUSH2 0x3209 PUSH1 0x80 DUP7 ADD DUP3 PUSH2 0x2870 JUMP JUMPDEST POP PUSH1 0xA0 DUP4 ADD MLOAD PUSH2 0x321C PUSH1 0xA0 DUP7 ADD DUP3 PUSH2 0x2870 JUMP JUMPDEST POP PUSH1 0xC0 DUP4 ADD MLOAD PUSH2 0x322F PUSH1 0xC0 DUP7 ADD DUP3 PUSH2 0x2861 JUMP JUMPDEST POP PUSH1 0xE0 DUP4 ADD MLOAD PUSH2 0x3242 PUSH1 0xE0 DUP7 ADD DUP3 PUSH2 0x2861 JUMP JUMPDEST POP PUSH2 0x100 DUP4 ADD MLOAD PUSH2 0x3257 PUSH2 0x100 DUP7 ADD DUP3 PUSH2 0x3187 JUMP JUMPDEST POP PUSH2 0x120 DUP4 ADD MLOAD PUSH2 0x326C PUSH2 0x120 DUP7 ADD DUP3 PUSH2 0x3187 JUMP JUMPDEST POP DUP1 SWAP2 POP POP SWAP3 SWAP2 POP POP JUMP JUMPDEST PUSH1 0x0 DUP3 DUP3 MSTORE PUSH1 0x20 DUP3 ADD SWAP1 POP SWAP3 SWAP2 POP POP JUMP JUMPDEST POP JUMP JUMPDEST PUSH1 0x0 PUSH2 0x3298 PUSH1 0x0 DUP4 PUSH2 0x3277 JUMP JUMPDEST SWAP2 POP PUSH2 0x32A3 DUP3 PUSH2 0x3288 JUMP JUMPDEST PUSH1 0x0 DUP3 ADD SWAP1 POP SWAP2 SWAP1 POP JUMP JUMPDEST PUSH1 0x0 PUSH1 0x40 DUP3 ADD SWAP1 POP DUP2 DUP2 SUB PUSH1 0x0 DUP4 ADD MSTORE PUSH2 0x32C8 DUP2 DUP5 PUSH2 0x3196 JUMP JUMPDEST SWAP1 POP DUP2 DUP2 SUB PUSH1 0x20 DUP4 ADD MSTORE PUSH2 0x32DB DUP2 PUSH2 0x328B JUMP JUMPDEST SWAP1 POP SWAP3 SWAP2 POP POP JUMP JUMPDEST PUSH32 0x436861696E6C696E6B0000000000000000000000000000000000000000000000 PUSH1 0x0 DUP3 ADD MSTORE POP JUMP JUMPDEST PUSH1 0x0 PUSH2 0x3319 PUSH1 0x9 DUP4 PUSH2 0x2D6C JUMP JUMPDEST SWAP2 POP PUSH2 0x3324 DUP3 PUSH2 0x32E3 JUMP JUMPDEST PUSH1 0x20 DUP3 ADD SWAP1 POP SWAP2 SWAP1 POP JUMP JUMPDEST PUSH1 0x0 PUSH1 0x40 DUP3 ADD SWAP1 POP DUP2 DUP2 SUB PUSH1 0x0 DUP4 ADD MSTORE PUSH2 0x3348 DUP2 PUSH2 0x330C JUMP JUMPDEST SWAP1 POP PUSH2 0x3357 PUSH1 0x20 DUP4 ADD DUP5 PUSH2 0x29E7 JUMP JUMPDEST SWAP3 SWAP2 POP POP JUMP JUMPDEST PUSH32 0x4F776E61626C653A206E6577206F776E657220697320746865207A65726F2061 PUSH1 0x0 DUP3 ADD MSTORE PUSH32 0x6464726573730000000000000000000000000000000000000000000000000000 PUSH1 0x20 DUP3 ADD MSTORE POP JUMP JUMPDEST PUSH1 0x0 PUSH2 0x33B9 PUSH1 0x26 DUP4 PUSH2 0x2D6C JUMP JUMPDEST SWAP2 POP PUSH2 0x33C4 DUP3 PUSH2 0x335D JUMP JUMPDEST PUSH1 0x40 DUP3 ADD SWAP1 POP SWAP2 SWAP1 POP JUMP JUMPDEST PUSH1 0x0 PUSH1 0x20 DUP3 ADD SWAP1 POP DUP2 DUP2 SUB PUSH1 0x0 DUP4 ADD MSTORE PUSH2 0x33E8 DUP2 PUSH2 0x33AC JUMP JUMPDEST SWAP1 POP SWAP2 SWAP1 POP JUMP JUMPDEST PUSH32 0x5265656E7472616E637947756172643A207265656E7472616E742063616C6C00 PUSH1 0x0 DUP3 ADD MSTORE POP JUMP JUMPDEST PUSH1 0x0 PUSH2 0x3425 PUSH1 0x1F DUP4 PUSH2 0x2D6C JUMP JUMPDEST SWAP2 POP PUSH2 0x3430 DUP3 PUSH2 0x33EF JUMP JUMPDEST PUSH1 0x20 DUP3 ADD SWAP1 POP SWAP2 SWAP1 POP JUMP JUMPDEST PUSH1 0x0 PUSH1 0x20 DUP3 ADD SWAP1 POP DUP2 DUP2 SUB PUSH1 0x0 DUP4 ADD MSTORE PUSH2 0x3454 DUP2 PUSH2 0x3418 JUMP JUMPDEST SWAP1 POP SWAP2 SWAP1 POP JUMP JUMPDEST PUSH1 0x0 PUSH1 0x60 DUP3 ADD SWAP1 POP PUSH2 0x3470 PUSH1 0x0 DUP4 ADD DUP7 PUSH2 0x269A JUMP JUMPDEST PUSH2 0x347D PUSH1 0x20 DUP4 ADD DUP6 PUSH2 0x269A JUMP JUMPDEST PUSH2 0x348A PUSH1 0x40 DUP4 ADD DUP5 PUSH2 0x29E7 JUMP JUMPDEST SWAP5 SWAP4 POP POP POP POP JUMP JUMPDEST PUSH1 0x0 PUSH1 0x80 DUP3 ADD SWAP1 POP PUSH2 0x34A7 PUSH1 0x0 DUP4 ADD DUP8 PUSH2 0x269A JUMP JUMPDEST PUSH2 0x34B4 PUSH1 0x20 DUP4 ADD DUP7 PUSH2 0x29E7 JUMP JUMPDEST PUSH2 0x34C1 PUSH1 0x40 DUP4 ADD DUP6 PUSH2 0x269A JUMP JUMPDEST PUSH2 0x34CE PUSH1 0x60 DUP4 ADD DUP5 PUSH2 0x29E7 JUMP JUMPDEST SWAP6 SWAP5 POP POP POP POP POP JUMP JUMPDEST PUSH1 0x0 DUP2 PUSH1 0xE0 SHR SWAP1 POP SWAP2 SWAP1 POP JUMP JUMPDEST PUSH1 0x0 PUSH1 0x3 RETURNDATASIZE GT ISZERO PUSH2 0x3503 JUMPI PUSH1 0x4 PUSH1 0x0 DUP1 RETURNDATACOPY PUSH2 0x3500 PUSH1 0x0 MLOAD PUSH2 0x34D7 JUMP JUMPDEST SWAP1 POP JUMPDEST SWAP1 JUMP JUMPDEST PUSH32 0x4E487B7100000000000000000000000000000000000000000000000000000000 PUSH1 0x0 MSTORE PUSH1 0x41 PUSH1 0x4 MSTORE PUSH1 0x24 PUSH1 0x0 REVERT JUMPDEST PUSH2 0x353E DUP3 PUSH2 0x28C5 JUMP JUMPDEST DUP2 ADD DUP2 DUP2 LT PUSH8 0xFFFFFFFFFFFFFFFF DUP3 GT OR ISZERO PUSH2 0x355D JUMPI PUSH2 0x355C PUSH2 0x3506 JUMP JUMPDEST JUMPDEST DUP1 PUSH1 0x40 MSTORE POP POP POP JUMP JUMPDEST PUSH1 0x0 PUSH1 0x44 RETURNDATASIZE LT PUSH2 0x35F3 JUMPI PUSH2 0x3578 PUSH2 0x26C4 JUMP JUMPDEST PUSH1 0x4 RETURNDATASIZE SUB PUSH1 0x4 DUP3 RETURNDATACOPY DUP1 MLOAD RETURNDATASIZE PUSH1 0x24 DUP3 ADD GT PUSH8 0xFFFFFFFFFFFFFFFF DUP3 GT OR ISZERO PUSH2 0x35A0 JUMPI POP POP PUSH2 0x35F3 JUMP JUMPDEST DUP1 DUP3 ADD DUP1 MLOAD PUSH8 0xFFFFFFFFFFFFFFFF DUP2 GT ISZERO PUSH2 0x35BE JUMPI POP POP POP POP PUSH2 0x35F3 JUMP JUMPDEST DUP1 PUSH1 0x20 DUP4 ADD ADD PUSH1 0x4 RETURNDATASIZE SUB DUP6 ADD DUP2 GT ISZERO PUSH2 0x35DB JUMPI POP POP POP POP POP PUSH2 0x35F3 JUMP JUMPDEST PUSH2 0x35EA DUP3 PUSH1 0x20 ADD DUP6 ADD DUP7 PUSH2 0x3535 JUMP JUMPDEST DUP3 SWAP6 POP POP POP POP POP POP JUMPDEST SWAP1 JUMP JUMPDEST PUSH1 0x0 PUSH2 0x3601 DUP3 PUSH2 0x287F JUMP JUMPDEST PUSH2 0x360B DUP2 DUP6 PUSH2 0x2D6C JUMP JUMPDEST SWAP4 POP PUSH2 0x361B DUP2 DUP6 PUSH1 0x20 DUP7 ADD PUSH2 0x289B JUMP JUMPDEST PUSH2 0x3624 DUP2 PUSH2 0x28C5 JUMP JUMPDEST DUP5 ADD SWAP2 POP POP SWAP3 SWAP2 POP POP JUMP JUMPDEST PUSH1 0x0 PUSH1 0x40 DUP3 ADD SWAP1 POP PUSH2 0x3644 PUSH1 0x0 DUP4 ADD DUP6 PUSH2 0x29E7 JUMP JUMPDEST DUP2 DUP2 SUB PUSH1 0x20 DUP4 ADD MSTORE PUSH2 0x3656 DUP2 DUP5 PUSH2 0x35F6 JUMP JUMPDEST SWAP1 POP SWAP4 SWAP3 POP POP POP JUMP JUMPDEST PUSH32 0x556E6B6E6F776E206572726F7200000000000000000000000000000000000000 PUSH1 0x0 DUP3 ADD MSTORE POP JUMP JUMPDEST PUSH1 0x0 PUSH2 0x3695 PUSH1 0xD DUP4 PUSH2 0x2D6C JUMP JUMPDEST SWAP2 POP PUSH2 0x36A0 DUP3 PUSH2 0x365F JUMP JUMPDEST PUSH1 0x20 DUP3 ADD SWAP1 POP SWAP2 SWAP1 POP JUMP JUMPDEST PUSH1 0x0 PUSH1 0x40 DUP3 ADD SWAP1 POP PUSH2 0x36C0 PUSH1 0x0 DUP4 ADD DUP5 PUSH2 0x29E7 JUMP JUMPDEST DUP2 DUP2 SUB PUSH1 0x20 DUP4 ADD MSTORE PUSH2 0x36D1 DUP2 PUSH2 0x3688 JUMP JUMPDEST SWAP1 POP SWAP3 SWAP2 POP POP JUMP JUMPDEST PUSH1 0x0 PUSH1 0x80 DUP3 ADD SWAP1 POP PUSH2 0x36EE PUSH1 0x0 DUP4 ADD DUP7 PUSH2 0x29E7 JUMP JUMPDEST PUSH2 0x36FB PUSH1 0x20 DUP4 ADD DUP6 PUSH2 0x29E7 JUMP JUMPDEST DUP2 DUP2 SUB PUSH1 0x40 DUP4 ADD MSTORE PUSH2 0x370C DUP2 PUSH2 0x2E12 JUMP JUMPDEST SWAP1 POP PUSH2 0x371B PUSH1 0x60 DUP4 ADD DUP5 PUSH2 0x29E7 JUMP JUMPDEST SWAP5 SWAP4 POP POP POP POP JUMP JUMPDEST PUSH1 0x0 PUSH1 0x40 DUP3 ADD SWAP1 POP PUSH2 0x3738 PUSH1 0x0 DUP4 ADD DUP6 PUSH2 0x29E7 JUMP JUMPDEST PUSH2 0x3745 PUSH1 0x20 DUP4 ADD DUP5 PUSH2 0x29E7 JUMP JUMPDEST SWAP4 SWAP3 POP POP POP JUMP JUMPDEST PUSH1 0x0 PUSH1 0x80 DUP3 ADD SWAP1 POP PUSH2 0x3761 PUSH1 0x0 DUP4 ADD DUP7 PUSH2 0x29E7 JUMP JUMPDEST PUSH2 0x376E PUSH1 0x20 DUP4 ADD DUP6 PUSH2 0x29E7 JUMP JUMPDEST DUP2 DUP2 SUB PUSH1 0x40 DUP4 ADD MSTORE PUSH2 0x377F DUP2 PUSH2 0x330C JUMP JUMPDEST SWAP1 POP PUSH2 0x378E PUSH1 0x60 DUP4 ADD DUP5 PUSH2 0x29E7 JUMP JUMPDEST SWAP5 SWAP4 POP POP POP POP JUMP JUMPDEST PUSH32 0x4F776E61626C653A2063616C6C6572206973206E6F7420746865206F776E6572 PUSH1 0x0 DUP3 ADD MSTORE POP JUMP JUMPDEST PUSH1 0x0 PUSH2 0x37CC PUSH1 0x20 DUP4 PUSH2 0x2D6C JUMP JUMPDEST SWAP2 POP PUSH2 0x37D7 DUP3 PUSH2 0x3796 JUMP JUMPDEST PUSH1 0x20 DUP3 ADD SWAP1 POP SWAP2 SWAP1 POP JUMP JUMPDEST PUSH1 0x0 PUSH1 0x20 DUP3 ADD SWAP1 POP DUP2 DUP2 SUB PUSH1 0x0 DUP4 ADD MSTORE PUSH2 0x37FB DUP2 PUSH2 0x37BF JUMP JUMPDEST SWAP1 POP SWAP2 SWAP1 POP JUMP JUMPDEST PUSH1 0x0 PUSH1 0x40 DUP3 ADD SWAP1 POP PUSH2 0x3817 PUSH1 0x0 DUP4 ADD DUP6 PUSH2 0x269A JUMP JUMPDEST PUSH2 0x3824 PUSH1 0x20 DUP4 ADD DUP5 PUSH2 0x269A JUMP JUMPDEST SWAP4 SWAP3 POP POP POP JUMP JUMPDEST PUSH32 0x5361666545524332303A20617070726F76652066726F6D206E6F6E2D7A65726F PUSH1 0x0 DUP3 ADD MSTORE PUSH32 0x20746F206E6F6E2D7A65726F20616C6C6F77616E636500000000000000000000 PUSH1 0x20 DUP3 ADD MSTORE POP JUMP JUMPDEST PUSH1 0x0 PUSH2 0x3887 PUSH1 0x36 DUP4 PUSH2 0x2D6C JUMP JUMPDEST SWAP2 POP PUSH2 0x3892 DUP3 PUSH2 0x382B JUMP JUMPDEST PUSH1 0x40 DUP3 ADD SWAP1 POP SWAP2 SWAP1 POP JUMP JUMPDEST PUSH1 0x0 PUSH1 0x20 DUP3 ADD SWAP1 POP DUP2 DUP2 SUB PUSH1 0x0 DUP4 ADD MSTORE PUSH2 0x38B6 DUP2 PUSH2 0x387A JUMP JUMPDEST SWAP1 POP SWAP2 SWAP1 POP JUMP JUMPDEST PUSH1 0x0 PUSH1 0x40 DUP3 ADD SWAP1 POP PUSH2 0x38D2 PUSH1 0x0 DUP4 ADD DUP6 PUSH2 0x269A JUMP JUMPDEST PUSH2 0x38DF PUSH1 0x20 DUP4 ADD DUP5 PUSH2 0x29E7 JUMP JUMPDEST SWAP4 SWAP3 POP POP POP JUMP JUMPDEST PUSH32 0x5361666545524332303A204552433230206F7065726174696F6E20646964206E PUSH1 0x0 DUP3 ADD MSTORE PUSH32 0x6F74207375636365656400000000000000000000000000000000000000000000 PUSH1 0x20 DUP3 ADD MSTORE POP JUMP JUMPDEST PUSH1 0x0 PUSH2 0x3942 PUSH1 0x2A DUP4 PUSH2 0x2D6C JUMP JUMPDEST SWAP2 POP PUSH2 0x394D DUP3 PUSH2 0x38E6 JUMP JUMPDEST PUSH1 0x40 DUP3 ADD SWAP1 POP SWAP2 SWAP1 POP JUMP JUMPDEST PUSH1 0x0 PUSH1 0x20 DUP3 ADD SWAP1 POP DUP2 DUP2 SUB PUSH1 0x0 DUP4 ADD MSTORE PUSH2 0x3971 DUP2 PUSH2 0x3935 JUMP JUMPDEST SWAP1 POP SWAP2 SWAP1 POP JUMP JUMPDEST PUSH32 0x4E487B7100000000000000000000000000000000000000000000000000000000 PUSH1 0x0 MSTORE PUSH1 0x32 PUSH1 0x4 MSTORE PUSH1 0x24 PUSH1 0x0 REVERT JUMPDEST PUSH1 0x0 PUSH8 0xFFFFFFFFFFFFFFFF DUP3 AND SWAP1 POP SWAP2 SWAP1 POP JUMP JUMPDEST PUSH2 0x39C4 DUP2 PUSH2 0x39A7 JUMP JUMPDEST DUP3 MSTORE POP POP JUMP JUMPDEST PUSH1 0x0 DUP2 MLOAD SWAP1 POP SWAP2 SWAP1 POP JUMP JUMPDEST PUSH1 0x0 DUP3 DUP3 MSTORE PUSH1 0x20 DUP3 ADD SWAP1 POP SWAP3 SWAP2 POP POP JUMP JUMPDEST PUSH1 0x0 PUSH2 0x39F1 DUP3 PUSH2 0x39CA JUMP JUMPDEST PUSH2 0x39FB DUP2 DUP6 PUSH2 0x39D5 JUMP JUMPDEST SWAP4 POP PUSH2 0x3A0B DUP2 DUP6 PUSH1 0x20 DUP7 ADD PUSH2 0x289B JUMP JUMPDEST PUSH2 0x3A14 DUP2 PUSH2 0x28C5 JUMP JUMPDEST DUP5 ADD SWAP2 POP POP SWAP3 SWAP2 POP POP JUMP JUMPDEST PUSH1 0x0 DUP2 MLOAD SWAP1 POP SWAP2 SWAP1 POP JUMP JUMPDEST PUSH1 0x0 DUP3 DUP3 MSTORE PUSH1 0x20 DUP3 ADD SWAP1 POP SWAP3 SWAP2 POP POP JUMP JUMPDEST PUSH1 0x0 DUP2 SWAP1 POP PUSH1 0x20 DUP3 ADD SWAP1 POP SWAP2 SWAP1 POP JUMP JUMPDEST PUSH1 0x0 PUSH2 0x3A57 DUP4 DUP4 PUSH2 0x2870 JUMP JUMPDEST PUSH1 0x20 DUP4 ADD SWAP1 POP SWAP3 SWAP2 POP POP JUMP JUMPDEST PUSH1 0x0 PUSH1 0x20 DUP3 ADD SWAP1 POP SWAP2 SWAP1 POP JUMP JUMPDEST PUSH1 0x0 PUSH2 0x3A7B DUP3 PUSH2 0x3A1F JUMP JUMPDEST PUSH2 0x3A85 DUP2 DUP6 PUSH2 0x3A2A JUMP JUMPDEST SWAP4 POP PUSH2 0x3A90 DUP4 PUSH2 0x3A3B JUMP JUMPDEST DUP1 PUSH1 0x0 JUMPDEST DUP4 DUP2 LT ISZERO PUSH2 0x3AC1 JUMPI DUP2 MLOAD PUSH2 0x3AA8 DUP9 DUP3 PUSH2 0x3A4B JUMP JUMPDEST SWAP8 POP PUSH2 0x3AB3 DUP4 PUSH2 0x3A63 JUMP JUMPDEST SWAP3 POP POP PUSH1 0x1 DUP2 ADD SWAP1 POP PUSH2 0x3A94 JUMP JUMPDEST POP DUP6 SWAP4 POP POP POP POP SWAP3 SWAP2 POP POP JUMP JUMPDEST PUSH1 0x0 PUSH1 0xA0 DUP4 ADD PUSH1 0x0 DUP4 ADD MLOAD DUP5 DUP3 SUB PUSH1 0x0 DUP7 ADD MSTORE PUSH2 0x3AEB DUP3 DUP3 PUSH2 0x39E6 JUMP JUMPDEST SWAP2 POP POP PUSH1 0x20 DUP4 ADD MLOAD DUP5 DUP3 SUB PUSH1 0x20 DUP7 ADD MSTORE PUSH2 0x3B05 DUP3 DUP3 PUSH2 0x39E6 JUMP JUMPDEST SWAP2 POP POP PUSH1 0x40 DUP4 ADD MLOAD DUP5 DUP3 SUB PUSH1 0x40 DUP7 ADD MSTORE PUSH2 0x3B1F DUP3 DUP3 PUSH2 0x3A70 JUMP JUMPDEST SWAP2 POP POP PUSH1 0x60 DUP4 ADD MLOAD PUSH2 0x3B34 PUSH1 0x60 DUP7 ADD DUP3 PUSH2 0x2870 JUMP JUMPDEST POP PUSH1 0x80 DUP4 ADD MLOAD DUP5 DUP3 SUB PUSH1 0x80 DUP7 ADD MSTORE PUSH2 0x3B4C DUP3 DUP3 PUSH2 0x39E6 JUMP JUMPDEST SWAP2 POP POP DUP1 SWAP2 POP POP SWAP3 SWAP2 POP POP JUMP JUMPDEST PUSH1 0x0 PUSH1 0x40 DUP3 ADD SWAP1 POP PUSH2 0x3B6E PUSH1 0x0 DUP4 ADD DUP6 PUSH2 0x39BB JUMP JUMPDEST DUP2 DUP2 SUB PUSH1 0x20 DUP4 ADD MSTORE PUSH2 0x3B80 DUP2 DUP5 PUSH2 0x3ACE JUMP JUMPDEST SWAP1 POP SWAP4 SWAP3 POP POP POP JUMP JUMPDEST PUSH2 0x3B92 DUP2 PUSH2 0x316E JUMP JUMPDEST DUP2 EQ PUSH2 0x3B9D JUMPI PUSH1 0x0 DUP1 REVERT JUMPDEST POP JUMP JUMPDEST PUSH1 0x0 DUP2 MLOAD SWAP1 POP PUSH2 0x3BAF DUP2 PUSH2 0x3B89 JUMP JUMPDEST SWAP3 SWAP2 POP POP JUMP JUMPDEST PUSH1 0x0 PUSH1 0x20 DUP3 DUP5 SUB SLT ISZERO PUSH2 0x3BCB JUMPI PUSH2 0x3BCA PUSH2 0x26CE JUMP JUMPDEST JUMPDEST PUSH1 0x0 PUSH2 0x3BD9 DUP5 DUP3 DUP6 ADD PUSH2 0x3BA0 JUMP JUMPDEST SWAP2 POP POP SWAP3 SWAP2 POP POP JUMP JUMPDEST PUSH32 0x416464726573733A20696E73756666696369656E742062616C616E636520666F PUSH1 0x0 DUP3 ADD MSTORE PUSH32 0x722063616C6C0000000000000000000000000000000000000000000000000000 PUSH1 0x20 DUP3 ADD MSTORE POP JUMP JUMPDEST PUSH1 0x0 PUSH2 0x3C3E PUSH1 0x26 DUP4 PUSH2 0x2D6C JUMP JUMPDEST SWAP2 POP PUSH2 0x3C49 DUP3 PUSH2 0x3BE2 JUMP JUMPDEST PUSH1 0x40 DUP3 ADD SWAP1 POP SWAP2 SWAP1 POP JUMP JUMPDEST PUSH1 0x0 PUSH1 0x20 DUP3 ADD SWAP1 POP DUP2 DUP2 SUB PUSH1 0x0 DUP4 ADD MSTORE PUSH2 0x3C6D DUP2 PUSH2 0x3C31 JUMP JUMPDEST SWAP1 POP SWAP2 SWAP1 POP JUMP JUMPDEST PUSH1 0x0 DUP2 SWAP1 POP SWAP3 SWAP2 POP POP JUMP JUMPDEST PUSH1 0x0 PUSH2 0x3C8A DUP3 PUSH2 0x39CA JUMP JUMPDEST PUSH2 0x3C94 DUP2 DUP6 PUSH2 0x3C74 JUMP JUMPDEST SWAP4 POP PUSH2 0x3CA4 DUP2 DUP6 PUSH1 0x20 DUP7 ADD PUSH2 0x289B JUMP JUMPDEST DUP1 DUP5 ADD SWAP2 POP POP SWAP3 SWAP2 POP POP JUMP JUMPDEST PUSH1 0x0 PUSH2 0x3CBC DUP3 DUP5 PUSH2 0x3C7F JUMP JUMPDEST SWAP2 POP DUP2 SWAP1 POP SWAP3 SWAP2 POP POP JUMP JUMPDEST PUSH32 0x416464726573733A2063616C6C20746F206E6F6E2D636F6E7472616374000000 PUSH1 0x0 DUP3 ADD MSTORE POP JUMP JUMPDEST PUSH1 0x0 PUSH2 0x3CFD PUSH1 0x1D DUP4 PUSH2 0x2D6C JUMP JUMPDEST SWAP2 POP PUSH2 0x3D08 DUP3 PUSH2 0x3CC7 JUMP JUMPDEST PUSH1 0x20 DUP3 ADD SWAP1 POP SWAP2 SWAP1 POP JUMP JUMPDEST PUSH1 0x0 PUSH1 0x20 DUP3 ADD SWAP1 POP DUP2 DUP2 SUB PUSH1 0x0 DUP4 ADD MSTORE PUSH2 0x3D2C DUP2 PUSH2 0x3CF0 JUMP JUMPDEST SWAP1 POP SWAP2 SWAP1 POP JUMP JUMPDEST PUSH1 0x0 PUSH1 0x20 DUP3 ADD SWAP1 POP DUP2 DUP2 SUB PUSH1 0x0 DUP4 ADD MSTORE PUSH2 0x3D4D DUP2 DUP5 PUSH2 0x35F6 JUMP JUMPDEST SWAP1 POP SWAP3 SWAP2 POP POP JUMP INVALID LOG2 PUSH5 0x6970667358 0x22 SLT KECCAK256 SUB SAR MULMOD EXTCODEHASH NUMBER PUSH10 0x5D170B176CAB0F7995F6 DUP3 0xE1 0xDE COINBASE MLOAD 0x4E PUSH2 0x3765 SUB 0xA9 STOP PUSH9 0x6ED93064736F6C6343 STOP ADDMOD EQ STOP CALLER "},"methodIdentifiers":{"_executeLiFiBridge(address,uint256,address,uint256)":"e8545d4a","chainlinkBridgeAdapter()":"8199921c","chainlinkRouter()":"f8281840","currentChainId()":"6cbadbfa","customBridgeAdapter()":"47503089","emergencyWithdraw(address,uint256)":"95ccea67","executeSettlement(address,uint256,address,uint256)":"72e40cd9","getCurrentChainId()":"5cf0e8a4","getOptimalPath(address,uint256,uint256,uint8)":"301d5af9","liFiBridgeAdapter()":"ae9d8d66","liFiRouter()":"03265c04","mockRoutes(uint256)":"5fbfcdc9","owner()":"8da5cb5b","renounceOwnership()":"715018a6","routeTransaction(address,uint256,uint256,uint8)":"2bc76c41","setBridgeAdapter(address)":"bfe43102","setChainlinkBridgeAdapter(address)":"e9b959c5","setChainlinkRouter(address)":"60ad2526","setLiFiBridgeAdapter(address)":"321f49a8","setLiFiRouter(address)":"575b3fc6","transferOwnership(address)":"f2fde38b","updateMockRoute(uint256,uint256,uint256,bool)":"c85fca75"}}}}}