{"abi":[{"type":"constructor","inputs":[{"name":"name","type":"string","internalType":"string"},{"name":"symbol","type":"string","internalType":"string"},{"name":"decimals_","type":"uint8","internalType":"uint8"},{"name":"initialSupply","type":"uint256","internalType":"uint256"}],"stateMutability":"nonpayable"},{"type":"function","name":"DOMAIN_SEPARATOR","inputs":[],"outputs":[{"name":"","type":"bytes32","internalType":"bytes32"}],"stateMutability":"view"},{"type":"function","name":"allowance","inputs":[{"name":"owner","type":"address","internalType":"address"},{"name":"spender","type":"address","internalType":"address"}],"outputs":[{"name":"","type":"uint256","internalType":"uint256"}],"stateMutability":"view"},{"type":"function","name":"approvalsEnabled","inputs":[],"outputs":[{"name":"","type":"bool","internalType":"bool"}],"stateMutability":"view"},{"type":"function","name":"approve","inputs":[{"name":"spender","type":"address","internalType":"address"},{"name":"value","type":"uint256","internalType":"uint256"}],"outputs":[{"name":"success","type":"bool","internalType":"bool"}],"stateMutability":"nonpayable"},{"type":"function","name":"balanceOf","inputs":[{"name":"account","type":"address","internalType":"address"}],"outputs":[{"name":"","type":"uint256","internalType":"uint256"}],"stateMutability":"view"},{"type":"function","name":"batchMint","inputs":[{"name":"recipients","type":"address[]","internalType":"address[]"},{"name":"amounts","type":"uint256[]","internalType":"uint256[]"}],"outputs":[],"stateMutability":"nonpayable"},{"type":"function","name":"blacklisted","inputs":[{"name":"","type":"address","internalType":"address"}],"outputs":[{"name":"","type":"bool","internalType":"bool"}],"stateMutability":"view"},{"type":"function","name":"burn","inputs":[{"name":"from","type":"address","internalType":"address"},{"name":"amount","type":"uint256","internalType":"uint256"}],"outputs":[],"stateMutability":"nonpayable"},{"type":"function","name":"createPermitSignature","inputs":[{"name":"owner","type":"address","internalType":"address"},{"name":"spender","type":"address","internalType":"address"},{"name":"value","type":"uint256","internalType":"uint256"},{"name":"deadline","type":"uint256","internalType":"uint256"},{"name":"privateKey","type":"uint256","internalType":"uint256"}],"outputs":[{"name":"v","type":"uint8","internalType":"uint8"},{"name":"r","type":"bytes32","internalType":"bytes32"},{"name":"s","type":"bytes32","internalType":"bytes32"}],"stateMutability":"view"},{"type":"function","name":"decimals","inputs":[],"outputs":[{"name":"","type":"uint8","internalType":"uint8"}],"stateMutability":"view"},{"type":"function","name":"eip712Domain","inputs":[],"outputs":[{"name":"fields","type":"bytes1","internalType":"bytes1"},{"name":"name","type":"string","internalType":"string"},{"name":"version","type":"string","internalType":"string"},{"name":"chainId","type":"uint256","internalType":"uint256"},{"name":"verifyingContract","type":"address","internalType":"address"},{"name":"salt","type":"bytes32","internalType":"bytes32"},{"name":"extensions","type":"uint256[]","internalType":"uint256[]"}],"stateMutability":"view"},{"type":"function","name":"expensiveTransfer","inputs":[{"name":"to","type":"address","internalType":"address"},{"name":"value","type":"uint256","internalType":"uint256"},{"name":"gasWaste","type":"uint256","internalType":"uint256"}],"outputs":[{"name":"success","type":"bool","internalType":"bool"}],"stateMutability":"nonpayable"},{"type":"function","name":"feeRecipient","inputs":[],"outputs":[{"name":"","type":"address","internalType":"address"}],"stateMutability":"view"},{"type":"function","name":"forceTransfer","inputs":[{"name":"from","type":"address","internalType":"address"},{"name":"to","type":"address","internalType":"address"},{"name":"value","type":"uint256","internalType":"uint256"}],"outputs":[],"stateMutability":"nonpayable"},{"type":"function","name":"getEffectiveBalance","inputs":[{"name":"account","type":"address","internalType":"address"}],"outputs":[{"name":"effectiveBalance","type":"uint256","internalType":"uint256"}],"stateMutability":"view"},{"type":"function","name":"getTokenInfo","inputs":[],"outputs":[{"name":"tokenName","type":"string","internalType":"string"},{"name":"tokenSymbol","type":"string","internalType":"string"},{"name":"tokenDecimals","type":"uint8","internalType":"uint8"},{"name":"totalSupply","type":"uint256","internalType":"uint256"},{"name":"transfersActive","type":"bool","internalType":"bool"},{"name":"approvalsActive","type":"bool","internalType":"bool"},{"name":"permitActive","type":"bool","internalType":"bool"}],"stateMutability":"view"},{"type":"function","name":"lastTransferTime","inputs":[{"name":"","type":"address","internalType":"address"}],"outputs":[{"name":"","type":"uint256","internalType":"uint256"}],"stateMutability":"view"},{"type":"function","name":"mint","inputs":[{"name":"to","type":"address","internalType":"address"},{"name":"amount","type":"uint256","internalType":"uint256"}],"outputs":[],"stateMutability":"nonpayable"},{"type":"function","name":"name","inputs":[],"outputs":[{"name":"","type":"string","internalType":"string"}],"stateMutability":"view"},{"type":"function","name":"nonces","inputs":[{"name":"owner","type":"address","internalType":"address"}],"outputs":[{"name":"","type":"uint256","internalType":"uint256"}],"stateMutability":"view"},{"type":"function","name":"owner","inputs":[],"outputs":[{"name":"","type":"address","internalType":"address"}],"stateMutability":"view"},{"type":"function","name":"permit","inputs":[{"name":"owner","type":"address","internalType":"address"},{"name":"spender","type":"address","internalType":"address"},{"name":"value","type":"uint256","internalType":"uint256"},{"name":"deadline","type":"uint256","internalType":"uint256"},{"name":"v","type":"uint8","internalType":"uint8"},{"name":"r","type":"bytes32","internalType":"bytes32"},{"name":"s","type":"bytes32","internalType":"bytes32"}],"outputs":[],"stateMutability":"nonpayable"},{"type":"function","name":"permitEnabled","inputs":[],"outputs":[{"name":"","type":"bool","internalType":"bool"}],"stateMutability":"view"},{"type":"function","name":"renounceOwnership","inputs":[],"outputs":[],"stateMutability":"nonpayable"},{"type":"function","name":"setApprovalsEnabled","inputs":[{"name":"enabled","type":"bool","internalType":"bool"}],"outputs":[],"stateMutability":"nonpayable"},{"type":"function","name":"setBlacklisted","inputs":[{"name":"account","type":"address","internalType":"address"},{"name":"isBlacklisted","type":"bool","internalType":"bool"}],"outputs":[],"stateMutability":"nonpayable"},{"type":"function","name":"setPermitEnabled","inputs":[{"name":"enabled","type":"bool","internalType":"bool"}],"outputs":[],"stateMutability":"nonpayable"},{"type":"function","name":"setTransferDelay","inputs":[{"name":"account","type":"address","internalType":"address"},{"name":"delay","type":"uint256","internalType":"uint256"}],"outputs":[],"stateMutability":"nonpayable"},{"type":"function","name":"setTransferFailure","inputs":[{"name":"shouldFail","type":"bool","internalType":"bool"}],"outputs":[],"stateMutability":"nonpayable"},{"type":"function","name":"setTransferFee","inputs":[{"name":"fee","type":"uint256","internalType":"uint256"},{"name":"recipient","type":"address","internalType":"address"}],"outputs":[],"stateMutability":"nonpayable"},{"type":"function","name":"setTransfersEnabled","inputs":[{"name":"enabled","type":"bool","internalType":"bool"}],"outputs":[],"stateMutability":"nonpayable"},{"type":"function","name":"symbol","inputs":[],"outputs":[{"name":"","type":"string","internalType":"string"}],"stateMutability":"view"},{"type":"function","name":"totalSupply","inputs":[],"outputs":[{"name":"","type":"uint256","internalType":"uint256"}],"stateMutability":"view"},{"type":"function","name":"transfer","inputs":[{"name":"to","type":"address","internalType":"address"},{"name":"value","type":"uint256","internalType":"uint256"}],"outputs":[{"name":"success","type":"bool","internalType":"bool"}],"stateMutability":"nonpayable"},{"type":"function","name":"transferDelay","inputs":[{"name":"","type":"address","internalType":"address"}],"outputs":[{"name":"","type":"uint256","internalType":"uint256"}],"stateMutability":"view"},{"type":"function","name":"transferFee","inputs":[],"outputs":[{"name":"","type":"uint256","internalType":"uint256"}],"stateMutability":"view"},{"type":"function","name":"transferFrom","inputs":[{"name":"from","type":"address","internalType":"address"},{"name":"to","type":"address","internalType":"address"},{"name":"value","type":"uint256","internalType":"uint256"}],"outputs":[{"name":"success","type":"bool","internalType":"bool"}],"stateMutability":"nonpayable"},{"type":"function","name":"transferOwnership","inputs":[{"name":"newOwner","type":"address","internalType":"address"}],"outputs":[],"stateMutability":"nonpayable"},{"type":"function","name":"transfersEnabled","inputs":[],"outputs":[{"name":"","type":"bool","internalType":"bool"}],"stateMutability":"view"},{"type":"event","name":"AddressBlacklisted","inputs":[{"name":"account","type":"address","indexed":true,"internalType":"address"},{"name":"blacklisted","type":"bool","indexed":false,"internalType":"bool"}],"anonymous":false},{"type":"event","name":"Approval","inputs":[{"name":"owner","type":"address","indexed":true,"internalType":"address"},{"name":"spender","type":"address","indexed":true,"internalType":"address"},{"name":"value","type":"uint256","indexed":false,"internalType":"uint256"}],"anonymous":false},{"type":"event","name":"ApprovalsToggled","inputs":[{"name":"enabled","type":"bool","indexed":false,"internalType":"bool"}],"anonymous":false},{"type":"event","name":"EIP712DomainChanged","inputs":[],"anonymous":false},{"type":"event","name":"OwnershipTransferred","inputs":[{"name":"previousOwner","type":"address","indexed":true,"internalType":"address"},{"name":"newOwner","type":"address","indexed":true,"internalType":"address"}],"anonymous":false},{"type":"event","name":"PermitToggled","inputs":[{"name":"enabled","type":"bool","indexed":false,"internalType":"bool"}],"anonymous":false},{"type":"event","name":"Transfer","inputs":[{"name":"from","type":"address","indexed":true,"internalType":"address"},{"name":"to","type":"address","indexed":true,"internalType":"address"},{"name":"value","type":"uint256","indexed":false,"internalType":"uint256"}],"anonymous":false},{"type":"event","name":"TransferFeeUpdated","inputs":[{"name":"fee","type":"uint256","indexed":false,"internalType":"uint256"},{"name":"recipient","type":"address","indexed":false,"internalType":"address"}],"anonymous":false},{"type":"event","name":"TransfersToggled","inputs":[{"name":"enabled","type":"bool","indexed":false,"internalType":"bool"}],"anonymous":false},{"type":"error","name":"AddressBlacklistedError","inputs":[]},{"type":"error","name":"ApprovalsDisabled","inputs":[]},{"type":"error","name":"ECDSAInvalidSignature","inputs":[]},{"type":"error","name":"ECDSAInvalidSignatureLength","inputs":[{"name":"length","type":"uint256","internalType":"uint256"}]},{"type":"error","name":"ECDSAInvalidSignatureS","inputs":[{"name":"s","type":"bytes32","internalType":"bytes32"}]},{"type":"error","name":"ERC20InsufficientAllowance","inputs":[{"name":"spender","type":"address","internalType":"address"},{"name":"allowance","type":"uint256","internalType":"uint256"},{"name":"needed","type":"uint256","internalType":"uint256"}]},{"type":"error","name":"ERC20InsufficientBalance","inputs":[{"name":"sender","type":"address","internalType":"address"},{"name":"balance","type":"uint256","internalType":"uint256"},{"name":"needed","type":"uint256","internalType":"uint256"}]},{"type":"error","name":"ERC20InvalidApprover","inputs":[{"name":"approver","type":"address","internalType":"address"}]},{"type":"error","name":"ERC20InvalidReceiver","inputs":[{"name":"receiver","type":"address","internalType":"address"}]},{"type":"error","name":"ERC20InvalidSender","inputs":[{"name":"sender","type":"address","internalType":"address"}]},{"type":"error","name":"ERC20InvalidSpender","inputs":[{"name":"spender","type":"address","internalType":"address"}]},{"type":"error","name":"ERC2612ExpiredSignature","inputs":[{"name":"deadline","type":"uint256","internalType":"uint256"}]},{"type":"error","name":"ERC2612InvalidSigner","inputs":[{"name":"signer","type":"address","internalType":"address"},{"name":"owner","type":"address","internalType":"address"}]},{"type":"error","name":"InsufficientBalanceAfterFee","inputs":[]},{"type":"error","name":"InvalidAccountNonce","inputs":[{"name":"account","type":"address","internalType":"address"},{"name":"currentNonce","type":"uint256","internalType":"uint256"}]},{"type":"error","name":"InvalidShortString","inputs":[]},{"type":"error","name":"OwnableInvalidOwner","inputs":[{"name":"owner","type":"address","internalType":"address"}]},{"type":"error","name":"OwnableUnauthorizedAccount","inputs":[{"name":"account","type":"address","internalType":"address"}]},{"type":"error","name":"PermitDisabled","inputs":[]},{"type":"error","name":"StringTooLong","inputs":[{"name":"str","type":"string","internalType":"string"}]},{"type":"error","name":"TransferDelayNotMet","inputs":[]},{"type":"error","name":"TransfersDisabled","inputs":[]}],"bytecode":{"object":"0x61016060408181523462000514576200270b803803809162000022828662000518565b84398201608083820312620005145782516001600160401b039290838111620005145782620000539186016200055f565b9160209081860151908582116200051457620000719187016200055f565b90828601519560ff8716870362000514576060015191835196848801888110888211176200041e57855260019687895283890197603160f81b895287518281116200041e5760038054918383811c9316801562000509575b88841014620004f557601f92838111620004ad575b5080888482116001146200043e575f9162000432575b505f1982841b1c191690841b1781555b8551918483116200041e5760049687548581811c9116801562000413575b8a8210146200040057828111620003b8575b508891841160011462000351579383949184925f9562000345575b50501b925f19911b1c19161783555b6200016987620005ba565b976101209889526200017b8a62000755565b97610140988952858151910120998a60e05251902061010099818b524660a052875191868301917f8b73c3c69bb8fe3d512ecc4cf759cc79239f7b179b0ffacaa9a75d522b39400f83528984015260608301524660808301523060a083015260a0825260c0820192828410908411176200033257828852815190206080523060c05233156200031c575050600854336001600160a01b0382167f8be0079c531659141344cd1fd0a4f28419497f9722a3daafe3b4186f6b6457e05f80a3600161ff0160a01b0319163360ff60a81b191617600160a81b1763ffff00ff60a01b191660a09190911b60ff60a01b161761010160b01b17600855600254838101919082106200030957505f917fddf252ad1be2c89b69c2b068fc378daa952ba7f163c4a11628f55a4df523b3ef9160025533835282815284832084815401905584519384523393a35191611e679384620008a4853960805184611962015260a05184611a1d015260c05184611933015260e051846119b1015251836119d701525182610a2e01525181610a570152f35b601190634e487b7160e01b5f525260245ffd5b631e4fbdf760e01b82525f60c490910152602490fd5b604185634e487b7160e01b5f525260245ffd5b015193505f806200014f565b9190601f19841692885f52848a5f20945f5b8c89838310620003a0575050501062000386575b50505050811b0183556200015e565b01519060f8845f19921b161c191690555f80808062000377565b86860151895590970196948501948893500162000363565b885f52895f208380870160051c8201928c8810620003f6575b0160051c019086905b828110620003ea57505062000134565b5f8155018690620003da565b92508192620003d1565b602289634e487b7160e01b5f525260245ffd5b90607f169062000122565b634e487b7160e01b5f52604160045260245ffd5b90508b01515f620000f4565b8592508c90601f198316855f528b5f20928c5f915b8383106200048b57505050831162000473575b5050811b01815562000104565b8d01515f1983861b60f8161c191690555f8062000466565b948482949597989293960151815501940192019087949392918f8d9062000453565b825f52885f208480840160051c8201928b8510620004eb575b0160051c019085905b828110620004df575050620000de565b5f8155018590620004cf565b92508192620004c6565b634e487b7160e01b5f52602260045260245ffd5b92607f1692620000c9565b5f80fd5b601f909101601f19168101906001600160401b038211908210176200041e57604052565b5f5b8381106200054e5750505f910152565b81810151838201526020016200053e565b81601f82011215620005145780516001600160401b0381116200041e576040519262000596601f8301601f19166020018562000518565b818452602082840101116200051457620005b791602080850191016200053c565b90565b8051602091908281101562000639575090601f825111620005f75780825192015190808310620005e957501790565b825f19910360031b1b161790565b6044906200062b9260405193849263305a27a960e01b8452806004850152825192839182602487015286860191016200053c565b601f01601f19168101030190fd5b6001600160401b0381116200041e576005928354926001938481811c911680156200074a575b83821014620004f557601f811162000716575b5081601f8411600114620006b057509282939183925f94620006a4575b50501b915f199060031b1c191617905560ff90565b015192505f806200068f565b919083601f198116875f52845f20945f905b88838310620006fb5750505010620006e2575b505050811b01905560ff90565b01515f1960f88460031b161c191690555f8080620006d5565b858701518855909601959485019487935090810190620006c2565b855f5284601f845f209201871c820191601f8601881c015b8281106200073e57505062000672565b5f81550185906200072e565b90607f16906200065f565b805160209081811015620007825750601f825111620005f75780825192015190808310620005e957501790565b906001600160401b0382116200041e57600654926001938481811c9116801562000898575b83821014620004f557601f811162000861575b5081601f8411600114620007f957509282939183925f94620007ed575b50501b915f199060031b1c19161760065560ff90565b015192505f80620007d7565b919083601f19811660065f52845f20945f905b888383106200084657505050106200082d575b505050811b0160065560ff90565b01515f1960f88460031b161c191690555f80806200081f565b8587015188559096019594850194879350908101906200080c565b60065f5284601f845f20920160051c820191601f860160051c015b8281106200088c575050620007ba565b5f81550185906200087c565b90607f1690620007a756fe6080604090808252600480361015610015575f80fd5b60e05f35811c92836306fdde03146111ae57508263095ea7b3146111055782630d2d8a31146110ce5782631243fbe11461104857826318160ddd1461102a57826323b872dd14610fb057826326b9ce1314610f47578263313ce56714610f2357826333bebb7714610f045782633644e51514610ee857826340c10f1914610ebc5782634690484014610e955782634b04575b14610dc857826364e5f51214610da25782636857310714610cba57826370a0823114610c84578263715018a614610c1e5782637469f0ce14610b865782637ecebe0014610b4f57826384b0196e14610a175782638da5cb5b146109f057826395d89b41146109af5782639dc29fac146108d2578263a36a5c25146108ac578263a9059cbb14610884578263abb1dc44146107de578263abc47e9114610747578263acb2ad6f14610729578263b98ba891146106a2578263bc876e7d14610663578263bef97c871461063d578263d01dd6d2146105c1578263d505accf146103a457508163dbac26e914610368578163dd62ed3e1461031e578163ded60970146102e7578163e45aa098146102bb578163f2fde38b1461020d575063f34cf7cb146101cf575f80fd5b346102095780600319360112610209576001600160a01b036101ef61120f565b6101f76117f4565b165f908152600a602052206024359055005b5f80fd5b9050346102095760203660031901126102095761022861120f565b906102316117f4565b6001600160a01b0380921692831561028c5750506008548273ffffffffffffffffffffffffffffffffffffffff19821617600855167f8be0079c531659141344cd1fd0a4f28419497f9722a3daafe3b4186f6b6457e05f80a3005b905f60249251917f1e4fbdf7000000000000000000000000000000000000000000000000000000008352820152fd5b8234610209576020366003190112610209576020906102e06102db61120f565b611552565b9051908152f35b8234610209576020366003190112610209576020906001600160a01b0361030c61120f565b165f52600a8252805f20549051908152f35b823461020957806003193601126102095760209061033a61120f565b610342611225565b906001600160a01b038091165f5260018452825f2091165f528252805f20549051908152f35b8234610209576020366003190112610209576020906001600160a01b0361038d61120f565b165f526009825260ff815f20541690519015158152f35b9150346102095781600319360112610209576103be61120f565b6103c6611225565b91604435936064359060843560ff811681036102095760ff60085460b81c1615610599576001600160a01b039182861693845f52600960205260ff8a5f2054168015610587575b6105785780421161054957845f526007602052895f20918254926001840190558a519160208301937f6e71edae12b1b97f4d1f60370fef10105fa2faae0126114a169c64845d6126c98552878d850152868b1660608501528b608085015260a084015260c083015260c08252810181811067ffffffffffffffff821117610536578a525190206104ed916104e4916104a3611929565b908b51917f190100000000000000000000000000000000000000000000000000000000000083526002830152602282015260c43591604260a4359220611d01565b90929192611d8e565b1681810361050257610500868686611c76565b005b604493508651927f4b800e460000000000000000000000000000000000000000000000000000000084528301526024820152fd5b604187634e487b7160e01b5f525260245ffd5b856024918b51917f62791302000000000000000000000000000000000000000000000000000000008352820152fd5b858a5163ebd39b8360e01b8152fd5b508388165f5260ff8a5f20541661040d565b8388517f04d381d0000000000000000000000000000000000000000000000000000000008152fd5b83346102095780600319360112610209576105da61120f565b60243590811515809203610209577f97b7af35c8c05eca90f543eb78b16fdf2664d3e6c9a907286f310647d9813b71916001600160a01b0360209261061d6117f4565b1693845f5260098352805f2060ff1981541660ff841617905551908152a2005b8334610209575f3660031901126102095760209060ff60085460a81c1690519015158152f35b346102095760203660031901126102095761067c611270565b6106846117f4565b60ff60a81b1960ff60a81b600854921560a81b169116176008555f80f35b50823461020957606080600319360112610209576106be61120f565b90602490604435905f5b8281106106e7576020866106de602435886114d7565b90519015158152f35b8551816020820152428782015286815282810190811067ffffffffffffffff8211176107175786526001016106c8565b84604189634e487b7160e01b5f52525ffd5b8334610209575f36600319011261020957602090600c549051908152f35b83346102095760203660031901126102095760207f1ef0983ae64646db448ce805cad33be019acad3e5da433e6d91590cdaa096e0191610785611270565b61078d6117f4565b1515906008547fffffffffffffffffff00ffffffffffffffffffffffffffffffffffffffffffff76ff000000000000000000000000000000000000000000008460b01b1691161760085551908152a1005b839034610209575f3660031901126102095781519161080783610800816112e8565b0384611470565b60ff815161081f8161081881611399565b0382611470565b6008549061084b6002549161083d865198888a998a528901906111d1565b9087820360208901526111d1565b93838360a01c16908601526060850152818160a81c1615156080850152818160b01c16151560a085015260b81c16151560c08301520390f35b83346102095780600319360112610209576020906106de6108a361120f565b602435906114d7565b8334610209575f3660031901126102095760209060ff60085460b81c1690519015158152f35b5082346102095780600319360112610209576108ec61120f565b90602435926108f96117f4565b6001600160a01b03831692831561099957835f525f602052825f205491858310610960575f857fddf252ad1be2c89b69c2b068fc378daa952ba7f163c4a11628f55a4df523b3ef6020898881898688528785520381872055816002540360025551908152a3005b6109958684865194859463391434e360e21b865285016040919493926001600160a01b03606083019616825260208201520152565b0390fd5b505f6024925191634b637e8f60e11b8352820152fd5b8334610209575f3660031901126102095780516109ec916109da826109d381611399565b0383611470565b519182916020835260208301906111d1565b0390f35b8334610209575f366003190112610209576020906001600160a01b03600854169051908152f35b908334610209575f36600319011261020957610a527f0000000000000000000000000000000000000000000000000000000000000000611aa0565b610a7b7f0000000000000000000000000000000000000000000000000000000000000000611bb9565b91805192602092602085019585871067ffffffffffffffff881117610b3c5750959493918060209286610af193525f8552610ae48251998a997f0f000000000000000000000000000000000000000000000000000000000000008b5280878c01528a01906111d1565b91888303908901526111d1565b914660608701523060808701525f60a087015285830360c087015251918281520192915f5b828110610b2557505050500390f35b835185528695509381019392810192600101610b16565b604190634e487b7160e01b5f525260245ffd5b8334610209576020366003190112610209576020906001600160a01b03610b7461120f565b165f5260078252805f20549051908152f35b83346102095760203660031901126102095760207ffd2b3e2fba16f0f50924ce4ce53383c6a0f4bb3ad0c90c4d2d4f6f0ab7b3053091610bc4611270565b610bcc6117f4565b1515906008547fffffffffffffffff00ffffffffffffffffffffffffffffffffffffffffffffff77ff00000000000000000000000000000000000000000000008460b81b1691161760085551908152a1005b34610209575f36600319011261020957610c366117f4565b5f6001600160a01b0360085473ffffffffffffffffffffffffffffffffffffffff198116600855167f8be0079c531659141344cd1fd0a4f28419497f9722a3daafe3b4186f6b6457e08280a3005b8334610209576020366003190112610209576020906001600160a01b03610ca961120f565b165f525f8252805f20549051908152f35b50823461020957806003193601126102095767ffffffffffffffff90823582811161020957610cec903690850161127f565b909260243590811161020957610d05903690860161127f565b949092610d106117f4565b858303610d5f5750505f5b818110610d2457005b610d2f8183866114b3565b35906001600160a01b038216820361020957610d59600192610d528389886114b3565b3590611a43565b01610d1b565b906020606492519162461bcd60e51b8352820152601560248201527f4172726179206c656e677468206d69736d6174636800000000000000000000006044820152fd5b8334610209575f3660031901126102095760209060ff60085460b01c1690519015158152f35b5082346102095780600319360112610209578135610de4611225565b92610ded6117f4565b6127108211610e5257506001600160a01b037fc261960294dbbf0305f158194e210560c835da9331faa94fdbf4c9a09c7557a79382600c55168073ffffffffffffffffffffffffffffffffffffffff19600d541617600d5582519182526020820152a1005b606490602084519162461bcd60e51b8352820152600c60248201527f46656520746f6f206869676800000000000000000000000000000000000000006044820152fd5b8334610209575f366003190112610209576020906001600160a01b03600d54169051908152f35b83346102095736600319011261020957610500610ed761120f565b610edf6117f4565b60243590611a43565b8334610209575f366003190112610209576020906102e0611929565b3461020957610500610f153661123b565b91610f1e6117f4565b611838565b8334610209575f3660031901126102095760209060ff60085460a01c169051908152f35b83346102095760203660031901126102095760207fe1965432af4c9923f6ebb98f1721262967cfa6178008742d23041dc8ee74ee8f91610f85611270565b610f8d6117f4565b15159060085460ff60a81b1960ff60a81b8460a81b1691161760085551908152a1005b8334610209576020906106de610fc53661123b565b91610fd18383836115b1565b610fe4610fdd846116ed565b8094611492565b9280151580611016575b610ff9575b50611715565b61100f906001600160a01b03600d541683611715565b5086610ff3565b506001600160a01b03600d54161515610fee565b8334610209575f366003190112610209576020906002549051908152f35b83346102095760a03660031901126102095760609061106561120f565b61106d611225565b6084359183519060208201926bffffffffffffffffffffffff198092881b168452861b16603482015260443560488201526064356068820152826088820152608881526110b981611424565b51902091805192601b84526020840152820152f35b8334610209576020366003190112610209576020906001600160a01b036110f361120f565b165f52600b8252805f20549051908152f35b50823461020957806003193601126102095761111f61120f565b9160ff60085460b01c161561118757335f52600960205260ff825f205416801561116e575b61116057506111596020926024359033611c76565b5160018152f35b905163ebd39b8360e01b8152fd5b506001600160a01b0383165f5260ff825f205416611144565b90517f8734687b000000000000000000000000000000000000000000000000000000008152fd5b849034610209575f366003190112610209576109ec916109da826109d3816112e8565b91908251928382525f5b8481106111fb575050825f602080949584010152601f8019910116010190565b6020818301810151848301820152016111db565b600435906001600160a01b038216820361020957565b602435906001600160a01b038216820361020957565b6060906003190112610209576001600160a01b0390600435828116810361020957916024359081168103610209579060443590565b60043590811515820361020957565b9181601f840112156102095782359167ffffffffffffffff8311610209576020808501948460051b01011161020957565b90600182811c921680156112de575b60208310146112ca57565b634e487b7160e01b5f52602260045260245ffd5b91607f16916112bf565b6003545f92916112f7826112b0565b80825291602090600190818116908115611374575060011461131a575b50505050565b9293945060035f527fc2575a0e9e593c00f959f8c92f12db2869c3395a3b0502d05e2516446f71f85b925f935b85851061136157505050602092500101905f808080611314565b8054858501840152938201938101611347565b92505050602093945060ff929192191683830152151560051b0101905f808080611314565b6004545f92916113a8826112b0565b8082529160209060019081811690811561137457506001146113ca5750505050565b9293945060045f527f8a35acfbc15ff81a39ae7d344fd709f28e8600b4aa8c65c6b64bfe7fe36bd19b925f935b85851061141157505050602092500101905f808080611314565b80548585018401529382019381016113f7565b60c0810190811067ffffffffffffffff82111761144057604052565b634e487b7160e01b5f52604160045260245ffd5b6040810190811067ffffffffffffffff82111761144057604052565b90601f8019910116810190811067ffffffffffffffff82111761144057604052565b9190820391821161149f57565b634e487b7160e01b5f52601160045260245ffd5b91908110156114c35760051b0190565b634e487b7160e01b5f52603260045260245ffd5b90611510916114e78282336115b1565b6114fa6114f3836116ed565b8093611492565b9180151580611531575b611515575b5033611838565b600190565b61152b906001600160a01b03600d541633611838565b5f611509565b506001600160a01b03600d54161515611504565b9190820180921161149f57565b6001600160a01b03165f525f60205260405f2054600c549081156115ac57612710918282029180830484149015171561149f57820180921161149f578115611598570490565b634e487b7160e01b5f52601260045260245ffd5b905090565b9160ff60085460a81c16156116c3576001600160a01b0380931690815f526020926009845260409460ff865f2054169182156116af575b505061169f57815f52600a8352835f2054611656575b61161a61160a826116ed565b835f525f8552855f205492611545565b1161162d5790600b915f525242905f2055565b600483517fb777c795000000000000000000000000000000000000000000000000000000008152fd5b600b835261166f845f2054600a8552855f205490611545565b4210156115fe57600484517fb333420a000000000000000000000000000000000000000000000000000000008152fd5b6004845163ebd39b8360e01b8152fd5b909150165f5260ff845f2054165f806115e8565b60046040517f8574adcf000000000000000000000000000000000000000000000000000000008152fd5b600c5490811561170f5781810291818304149015171561149f57612710900490565b50505f90565b9291906001600160a01b03841693845f526001602052604094855f20335f52602052855f2054905f198210611752575b5050611510939450611838565b8482106117b65780156117a057331561178a5761151095969185915f526001602052825f20335f5260205203905f205584935f611745565b60248751634a1406b160e11b81525f6004820152fd5b6024875163e602df0560e01b81525f6004820152fd5b86517ffb8f41b20000000000000000000000000000000000000000000000000000000081523360048201526024810183905260448101869052606490fd5b6001600160a01b0360085416330361180857565b60246040517f118cdaa7000000000000000000000000000000000000000000000000000000008152336004820152fd5b916001600160a01b0380841692831561191257169283156118e257825f525f60205260405f2054908282106118b05750817fddf252ad1be2c89b69c2b068fc378daa952ba7f163c4a11628f55a4df523b3ef92602092855f525f84520360405f2055845f5260405f20818154019055604051908152a3565b60405163391434e360e21b81526001600160a01b03919091166004820152602481019190915260448101829052606490fd5b60246040517fec442f050000000000000000000000000000000000000000000000000000000081525f6004820152fd5b6024604051634b637e8f60e11b81525f6004820152fd5b6001600160a01b037f000000000000000000000000000000000000000000000000000000000000000016301480611a1a575b15611984577f000000000000000000000000000000000000000000000000000000000000000090565b60405160208101907f8b73c3c69bb8fe3d512ecc4cf759cc79239f7b179b0ffacaa9a75d522b39400f82527f000000000000000000000000000000000000000000000000000000000000000060408201527f000000000000000000000000000000000000000000000000000000000000000060608201524660808201523060a082015260a08152611a1481611424565b51902090565b507f0000000000000000000000000000000000000000000000000000000000000000461461195b565b6001600160a01b03169081156118e2577fddf252ad1be2c89b69c2b068fc378daa952ba7f163c4a11628f55a4df523b3ef602082611a845f94600254611545565b60025584845283825260408420818154019055604051908152a3565b60ff8114611af65760ff811690601f8211611acc5760405191611ac283611454565b8252602082015290565b60046040517fb3512b0c000000000000000000000000000000000000000000000000000000008152fd5b50604051600554815f611b08836112b0565b80835292602090600190818116908115611b955750600114611b36575b5050611b3392500382611470565b90565b91509260055f527f036b6384b5eca791c62761152d0c79bb0604c104a5fb6f4eb0703f3154bb3db0935f925b828410611b7d5750611b339450505081016020015f80611b25565b85548785018301529485019486945092810192611b62565b91505060209250611b3394915060ff191682840152151560051b8201015f80611b25565b60ff8114611bdb5760ff811690601f8211611acc5760405191611ac283611454565b50604051600654815f611bed836112b0565b80835292602090600190818116908115611b955750600114611c17575050611b3392500382611470565b91509260065f527ff652222313e28459528d920b65115c16c04f3efc82aaedc97be59f3f377c0d3f935f925b828410611c5e5750611b339450505081016020015f80611b25565b85548785018301529485019486945092810192611c43565b6001600160a01b03809116918215611cea5716918215611cd35760207f8c5be1e5ebec7d5bd14f71427d1e84f3dd0314c0f7b2291e5b200ac8c7c3b92591835f526001825260405f20855f5282528060405f2055604051908152a3565b6024604051634a1406b160e11b81525f6004820152fd5b602460405163e602df0560e01b81525f6004820152fd5b91907f7fffffffffffffffffffffffffffffff5d576e7357a4501ddfe92f46681b20a08411611d83579160209360809260ff5f9560405194855216868401526040830152606082015282805260015afa15611d78575f516001600160a01b03811615611d6e57905f905f90565b505f906001905f90565b6040513d5f823e3d90fd5b5050505f9160039190565b6004811015611e465780611da0575050565b60018103611dd25760046040517ff645eedf000000000000000000000000000000000000000000000000000000008152fd5b60028103611e0b57602482604051907ffce698f70000000000000000000000000000000000000000000000000000000082526004820152fd5b600314611e155750565b602490604051907fd78bce0c0000000000000000000000000000000000000000000000000000000082526004820152fd5b634e487b7160e01b5f52602160045260245ffdfea164736f6c6343000818000a","linkReferences":{}},"methodIdentifiers":{"DOMAIN_SEPARATOR()":"3644e515","allowance(address,address)":"dd62ed3e","approvalsEnabled()":"64e5f512","approve(address,uint256)":"095ea7b3","balanceOf(address)":"70a08231","batchMint(address[],uint256[])":"68573107","blacklisted(address)":"dbac26e9","burn(address,uint256)":"9dc29fac","createPermitSignature(address,address,uint256,uint256,uint256)":"1243fbe1","decimals()":"313ce567","eip712Domain()":"84b0196e","expensiveTransfer(address,uint256,uint256)":"b98ba891","feeRecipient()":"46904840","forceTransfer(address,address,uint256)":"33bebb77","getEffectiveBalance(address)":"e45aa098","getTokenInfo()":"abb1dc44","lastTransferTime(address)":"0d2d8a31","mint(address,uint256)":"40c10f19","name()":"06fdde03","nonces(address)":"7ecebe00","owner()":"8da5cb5b","permit(address,address,uint256,uint256,uint8,bytes32,bytes32)":"d505accf","permitEnabled()":"a36a5c25","renounceOwnership()":"715018a6","setApprovalsEnabled(bool)":"abc47e91","setBlacklisted(address,bool)":"d01dd6d2","setPermitEnabled(bool)":"7469f0ce","setTransferDelay(address,uint256)":"f34cf7cb","setTransferFailure(bool)":"bc876e7d","setTransferFee(uint256,address)":"4b04575b","setTransfersEnabled(bool)":"26b9ce13","symbol()":"95d89b41","totalSupply()":"18160ddd","transfer(address,uint256)":"a9059cbb","transferDelay(address)":"ded60970","transferFee()":"acb2ad6f","transferFrom(address,address,uint256)":"23b872dd","transferOwnership(address)":"f2fde38b","transfersEnabled()":"bef97c87"},"storageLayout":{"storage":[{"astId":40552,"contract":"src/mocks/MockERC20.sol:MockERC20","label":"_balances","offset":0,"slot":"0","type":"t_mapping(t_address,t_uint256)"},{"astId":40558,"contract":"src/mocks/MockERC20.sol:MockERC20","label":"_allowances","offset":0,"slot":"1","type":"t_mapping(t_address,t_mapping(t_address,t_uint256))"},{"astId":40560,"contract":"src/mocks/MockERC20.sol:MockERC20","label":"_totalSupply","offset":0,"slot":"2","type":"t_uint256"},{"astId":40562,"contract":"src/mocks/MockERC20.sol:MockERC20","label":"_name","offset":0,"slot":"3","type":"t_string_storage"},{"astId":40564,"contract":"src/mocks/MockERC20.sol:MockERC20","label":"_symbol","offset":0,"slot":"4","type":"t_string_storage"},{"astId":45194,"contract":"src/mocks/MockERC20.sol:MockERC20","label":"_nameFallback","offset":0,"slot":"5","type":"t_string_storage"},{"astId":45196,"contract":"src/mocks/MockERC20.sol:MockERC20","label":"_versionFallback","offset":0,"slot":"6","type":"t_string_storage"},{"astId":42550,"contract":"src/mocks/MockERC20.sol:MockERC20","label":"_nonces","offset":0,"slot":"7","type":"t_mapping(t_address,t_uint256)"},{"astId":40138,"contract":"src/mocks/MockERC20.sol:MockERC20","label":"_owner","offset":0,"slot":"8","type":"t_address"},{"astId":69667,"contract":"src/mocks/MockERC20.sol:MockERC20","label":"_decimals","offset":20,"slot":"8","type":"t_uint8"},{"astId":69670,"contract":"src/mocks/MockERC20.sol:MockERC20","label":"transfersEnabled","offset":21,"slot":"8","type":"t_bool"},{"astId":69673,"contract":"src/mocks/MockERC20.sol:MockERC20","label":"approvalsEnabled","offset":22,"slot":"8","type":"t_bool"},{"astId":69676,"contract":"src/mocks/MockERC20.sol:MockERC20","label":"permitEnabled","offset":23,"slot":"8","type":"t_bool"},{"astId":69680,"contract":"src/mocks/MockERC20.sol:MockERC20","label":"blacklisted","offset":0,"slot":"9","type":"t_mapping(t_address,t_bool)"},{"astId":69684,"contract":"src/mocks/MockERC20.sol:MockERC20","label":"transferDelay","offset":0,"slot":"10","type":"t_mapping(t_address,t_uint256)"},{"astId":69688,"contract":"src/mocks/MockERC20.sol:MockERC20","label":"lastTransferTime","offset":0,"slot":"11","type":"t_mapping(t_address,t_uint256)"},{"astId":69690,"contract":"src/mocks/MockERC20.sol:MockERC20","label":"transferFee","offset":0,"slot":"12","type":"t_uint256"},{"astId":69692,"contract":"src/mocks/MockERC20.sol:MockERC20","label":"feeRecipient","offset":0,"slot":"13","type":"t_address"}],"types":{"t_address":{"encoding":"inplace","label":"address","numberOfBytes":"20"},"t_bool":{"encoding":"inplace","label":"bool","numberOfBytes":"1"},"t_mapping(t_address,t_bool)":{"encoding":"mapping","key":"t_address","label":"mapping(address => bool)","numberOfBytes":"32","value":"t_bool"},"t_mapping(t_address,t_mapping(t_address,t_uint256))":{"encoding":"mapping","key":"t_address","label":"mapping(address => mapping(address => uint256))","numberOfBytes":"32","value":"t_mapping(t_address,t_uint256)"},"t_mapping(t_address,t_uint256)":{"encoding":"mapping","key":"t_address","label":"mapping(address => uint256)","numberOfBytes":"32","value":"t_uint256"},"t_string_storage":{"encoding":"bytes","label":"string","numberOfBytes":"32"},"t_uint256":{"encoding":"inplace","label":"uint256","numberOfBytes":"32"},"t_uint8":{"encoding":"inplace","label":"uint8","numberOfBytes":"1"}}},"id":66}