{"src/adapters/ConnextAdapter.sol":{"ConnextAdapter":{"abi":[{"type":"constructor","inputs":[],"stateMutability":"nonpayable"},{"type":"receive","stateMutability":"payable"},{"type":"function","name":"activeRouters","inputs":[{"name":"","type":"uint256","internalType":"uint256"}],"outputs":[{"name":"","type":"address","internalType":"address"}],"stateMutability":"view"},{"type":"function","name":"assetConfigs","inputs":[{"name":"","type":"uint256","internalType":"uint256"},{"name":"","type":"address","internalType":"address"}],"outputs":[{"name":"localAsset","type":"address","internalType":"address"},{"name":"adoptedAsset","type":"address","internalType":"address"},{"name":"cap","type":"uint256","internalType":"uint256"},{"name":"liquidity","type":"uint256","internalType":"uint256"},{"name":"slippage","type":"uint256","internalType":"uint256"},{"name":"isStable","type":"bool","internalType":"bool"},{"name":"isActive","type":"bool","internalType":"bool"}],"stateMutability":"view"},{"type":"function","name":"bridgeConfig","inputs":[],"outputs":[{"name":"baseFee","type":"uint256","internalType":"uint256"},{"name":"feePercentage","type":"uint256","internalType":"uint256"},{"name":"minTransferAmount","type":"uint256","internalType":"uint256"},{"name":"maxTransferAmount","type":"uint256","internalType":"uint256"},{"name":"avgCompletionTime","type":"uint256","internalType":"uint256"},{"name":"auctionPeriod","type":"uint256","internalType":"uint256"},{"name":"maxSlippage","type":"uint256","internalType":"uint256"},{"name":"isActive","type":"bool","internalType":"bool"}],"stateMutability":"view"},{"type":"function","name":"connextTransfers","inputs":[{"name":"","type":"bytes32","internalType":"bytes32"}],"outputs":[{"name":"transferId","type":"bytes32","internalType":"bytes32"},{"name":"sender","type":"address","internalType":"address"},{"name":"receiver","type":"address","internalType":"address"},{"name":"router","type":"address","internalType":"address"},{"name":"asset","type":"address","internalType":"address"},{"name":"amount","type":"uint256","internalType":"uint256"},{"name":"slippage","type":"uint256","internalType":"uint256"},{"name":"originChain","type":"uint256","internalType":"uint256"},{"name":"destinationChain","type":"uint256","internalType":"uint256"},{"name":"nonce","type":"uint256","internalType":"uint256"},{"name":"timestamp","type":"uint256","internalType":"uint256"},{"name":"isRouterLiquidity","type":"bool","internalType":"bool"},{"name":"isCompleted","type":"bool","internalType":"bool"}],"stateMutability":"view"},{"type":"function","name":"emergencyWithdraw","inputs":[{"name":"token","type":"address","internalType":"address"},{"name":"amount","type":"uint256","internalType":"uint256"}],"outputs":[],"stateMutability":"nonpayable"},{"type":"function","name":"estimateGas","inputs":[{"name":"route","type":"tuple","internalType":"struct IBridgeAdapter.Route","components":[{"name":"adapter","type":"address","internalType":"address"},{"name":"tokenIn","type":"address","internalType":"address"},{"name":"tokenOut","type":"address","internalType":"address"},{"name":"amountIn","type":"uint256","internalType":"uint256"},{"name":"amountOut","type":"uint256","internalType":"uint256"},{"name":"srcChainId","type":"uint256","internalType":"uint256"},{"name":"dstChainId","type":"uint256","internalType":"uint256"},{"name":"metrics","type":"tuple","internalType":"struct IBridgeAdapter.RouteMetrics","components":[{"name":"estimatedGasCost","type":"uint256","internalType":"uint256"},{"name":"bridgeFee","type":"uint256","internalType":"uint256"},{"name":"totalCostWei","type":"uint256","internalType":"uint256"},{"name":"estimatedTimeMinutes","type":"uint256","internalType":"uint256"},{"name":"liquidityAvailable","type":"uint256","internalType":"uint256"},{"name":"successRate","type":"uint256","internalType":"uint256"},{"name":"congestionLevel","type":"uint256","internalType":"uint256"}]},{"name":"adapterData","type":"bytes","internalType":"bytes"},{"name":"deadline","type":"uint256","internalType":"uint256"}]}],"outputs":[{"name":"gasEstimate","type":"uint256","internalType":"uint256"}],"stateMutability":"view"},{"type":"function","name":"executeBridge","inputs":[{"name":"route","type":"tuple","internalType":"struct IBridgeAdapter.Route","components":[{"name":"adapter","type":"address","internalType":"address"},{"name":"tokenIn","type":"address","internalType":"address"},{"name":"tokenOut","type":"address","internalType":"address"},{"name":"amountIn","type":"uint256","internalType":"uint256"},{"name":"amountOut","type":"uint256","internalType":"uint256"},{"name":"srcChainId","type":"uint256","internalType":"uint256"},{"name":"dstChainId","type":"uint256","internalType":"uint256"},{"name":"metrics","type":"tuple","internalType":"struct IBridgeAdapter.RouteMetrics","components":[{"name":"estimatedGasCost","type":"uint256","internalType":"uint256"},{"name":"bridgeFee","type":"uint256","internalType":"uint256"},{"name":"totalCostWei","type":"uint256","internalType":"uint256"},{"name":"estimatedTimeMinutes","type":"uint256","internalType":"uint256"},{"name":"liquidityAvailable","type":"uint256","internalType":"uint256"},{"name":"successRate","type":"uint256","internalType":"uint256"},{"name":"congestionLevel","type":"uint256","internalType":"uint256"}]},{"name":"adapterData","type":"bytes","internalType":"bytes"},{"name":"deadline","type":"uint256","internalType":"uint256"}]},{"name":"recipient","type":"address","internalType":"address"},{"name":"permitData","type":"bytes","internalType":"bytes"}],"outputs":[{"name":"transferId","type":"bytes32","internalType":"bytes32"}],"stateMutability":"payable"},{"type":"function","name":"getActiveRouters","inputs":[],"outputs":[{"name":"","type":"address[]","internalType":"address[]"}],"stateMutability":"view"},{"type":"function","name":"getAssetConfig","inputs":[{"name":"chainId","type":"uint256","internalType":"uint256"},{"name":"asset","type":"address","internalType":"address"}],"outputs":[{"name":"config","type":"tuple","internalType":"struct ConnextAdapter.AssetConfig","components":[{"name":"localAsset","type":"address","internalType":"address"},{"name":"adoptedAsset","type":"address","internalType":"address"},{"name":"cap","type":"uint256","internalType":"uint256"},{"name":"liquidity","type":"uint256","internalType":"uint256"},{"name":"slippage","type":"uint256","internalType":"uint256"},{"name":"isStable","type":"bool","internalType":"bool"},{"name":"isActive","type":"bool","internalType":"bool"}]}],"stateMutability":"view"},{"type":"function","name":"getAvailableLiquidity","inputs":[{"name":"tokenIn","type":"address","internalType":"address"},{"name":"tokenOut","type":"address","internalType":"address"},{"name":"srcChainId","type":"uint256","internalType":"uint256"},{"name":"dstChainId","type":"uint256","internalType":"uint256"}],"outputs":[{"name":"liquidity","type":"uint256","internalType":"uint256"}],"stateMutability":"view"},{"type":"function","name":"getBridgeName","inputs":[],"outputs":[{"name":"","type":"string","internalType":"string"}],"stateMutability":"pure"},{"type":"function","name":"getBridgeStats","inputs":[],"outputs":[{"name":"_totalTransfers","type":"uint256","internalType":"uint256"},{"name":"_successfulTransfers","type":"uint256","internalType":"uint256"},{"name":"_totalVolume","type":"uint256","internalType":"uint256"},{"name":"_successRate","type":"uint256","internalType":"uint256"}],"stateMutability":"view"},{"type":"function","name":"getConnextTransfer","inputs":[{"name":"transferId","type":"bytes32","internalType":"bytes32"}],"outputs":[{"name":"transfer","type":"tuple","internalType":"struct ConnextAdapter.ConnextTransfer","components":[{"name":"transferId","type":"bytes32","internalType":"bytes32"},{"name":"sender","type":"address","internalType":"address"},{"name":"receiver","type":"address","internalType":"address"},{"name":"router","type":"address","internalType":"address"},{"name":"asset","type":"address","internalType":"address"},{"name":"amount","type":"uint256","internalType":"uint256"},{"name":"slippage","type":"uint256","internalType":"uint256"},{"name":"originChain","type":"uint256","internalType":"uint256"},{"name":"destinationChain","type":"uint256","internalType":"uint256"},{"name":"nonce","type":"uint256","internalType":"uint256"},{"name":"timestamp","type":"uint256","internalType":"uint256"},{"name":"isRouterLiquidity","type":"bool","internalType":"bool"},{"name":"isCompleted","type":"bool","internalType":"bool"}]}],"stateMutability":"view"},{"type":"function","name":"getRouteMetrics","inputs":[{"name":"tokenIn","type":"address","internalType":"address"},{"name":"tokenOut","type":"address","internalType":"address"},{"name":"amount","type":"uint256","internalType":"uint256"},{"name":"srcChainId","type":"uint256","internalType":"uint256"},{"name":"dstChainId","type":"uint256","internalType":"uint256"}],"outputs":[{"name":"metrics","type":"tuple","internalType":"struct IBridgeAdapter.RouteMetrics","components":[{"name":"estimatedGasCost","type":"uint256","internalType":"uint256"},{"name":"bridgeFee","type":"uint256","internalType":"uint256"},{"name":"totalCostWei","type":"uint256","internalType":"uint256"},{"name":"estimatedTimeMinutes","type":"uint256","internalType":"uint256"},{"name":"liquidityAvailable","type":"uint256","internalType":"uint256"},{"name":"successRate","type":"uint256","internalType":"uint256"},{"name":"congestionLevel","type":"uint256","internalType":"uint256"}]}],"stateMutability":"view"},{"type":"function","name":"getRouter","inputs":[{"name":"routerAddress","type":"address","internalType":"address"}],"outputs":[{"name":"router","type":"tuple","internalType":"struct ConnextAdapter.Router","components":[{"name":"routerAddress","type":"address","internalType":"address"},{"name":"liquidity","type":"uint256","internalType":"uint256"},{"name":"lockedLiquidity","type":"uint256","internalType":"uint256"},{"name":"feeRate","type":"uint256","internalType":"uint256"},{"name":"reputation","type":"uint256","internalType":"uint256"},{"name":"successfulTxs","type":"uint256","internalType":"uint256"},{"name":"totalTxs","type":"uint256","internalType":"uint256"},{"name":"isActive","type":"bool","internalType":"bool"},{"name":"isWhitelisted","type":"bool","internalType":"bool"}]}],"stateMutability":"view"},{"type":"function","name":"getSuccessRate","inputs":[{"name":"srcChainId","type":"uint256","internalType":"uint256"},{"name":"dstChainId","type":"uint256","internalType":"uint256"}],"outputs":[{"name":"successRate","type":"uint256","internalType":"uint256"}],"stateMutability":"view"},{"type":"function","name":"getTransfer","inputs":[{"name":"transferId","type":"bytes32","internalType":"bytes32"}],"outputs":[{"name":"transfer","type":"tuple","internalType":"struct IBridgeAdapter.Transfer","components":[{"name":"transferId","type":"bytes32","internalType":"bytes32"},{"name":"sender","type":"address","internalType":"address"},{"name":"recipient","type":"address","internalType":"address"},{"name":"route","type":"tuple","internalType":"struct IBridgeAdapter.Route","components":[{"name":"adapter","type":"address","internalType":"address"},{"name":"tokenIn","type":"address","internalType":"address"},{"name":"tokenOut","type":"address","internalType":"address"},{"name":"amountIn","type":"uint256","internalType":"uint256"},{"name":"amountOut","type":"uint256","internalType":"uint256"},{"name":"srcChainId","type":"uint256","internalType":"uint256"},{"name":"dstChainId","type":"uint256","internalType":"uint256"},{"name":"metrics","type":"tuple","internalType":"struct IBridgeAdapter.RouteMetrics","components":[{"name":"estimatedGasCost","type":"uint256","internalType":"uint256"},{"name":"bridgeFee","type":"uint256","internalType":"uint256"},{"name":"totalCostWei","type":"uint256","internalType":"uint256"},{"name":"estimatedTimeMinutes","type":"uint256","internalType":"uint256"},{"name":"liquidityAvailable","type":"uint256","internalType":"uint256"},{"name":"successRate","type":"uint256","internalType":"uint256"},{"name":"congestionLevel","type":"uint256","internalType":"uint256"}]},{"name":"adapterData","type":"bytes","internalType":"bytes"},{"name":"deadline","type":"uint256","internalType":"uint256"}]},{"name":"status","type":"uint8","internalType":"enum IBridgeAdapter.TransferStatus"},{"name":"initiatedAt","type":"uint256","internalType":"uint256"},{"name":"completedAt","type":"uint256","internalType":"uint256"}]}],"stateMutability":"view"},{"type":"function","name":"getTransferLimits","inputs":[{"name":"token","type":"address","internalType":"address"},{"name":"srcChainId","type":"uint256","internalType":"uint256"},{"name":"dstChainId","type":"uint256","internalType":"uint256"}],"outputs":[{"name":"minAmount","type":"uint256","internalType":"uint256"},{"name":"maxAmount","type":"uint256","internalType":"uint256"}],"stateMutability":"view"},{"type":"function","name":"healthyStatus","inputs":[],"outputs":[{"name":"","type":"bool","internalType":"bool"}],"stateMutability":"view"},{"type":"function","name":"isHealthy","inputs":[],"outputs":[{"name":"healthy","type":"bool","internalType":"bool"}],"stateMutability":"view"},{"type":"function","name":"lastHealthCheck","inputs":[],"outputs":[{"name":"","type":"uint256","internalType":"uint256"}],"stateMutability":"view"},{"type":"function","name":"owner","inputs":[],"outputs":[{"name":"","type":"address","internalType":"address"}],"stateMutability":"view"},{"type":"function","name":"renounceOwnership","inputs":[],"outputs":[],"stateMutability":"nonpayable"},{"type":"function","name":"routers","inputs":[{"name":"","type":"address","internalType":"address"}],"outputs":[{"name":"routerAddress","type":"address","internalType":"address"},{"name":"liquidity","type":"uint256","internalType":"uint256"},{"name":"lockedLiquidity","type":"uint256","internalType":"uint256"},{"name":"feeRate","type":"uint256","internalType":"uint256"},{"name":"reputation","type":"uint256","internalType":"uint256"},{"name":"successfulTxs","type":"uint256","internalType":"uint256"},{"name":"totalTxs","type":"uint256","internalType":"uint256"},{"name":"isActive","type":"bool","internalType":"bool"},{"name":"isWhitelisted","type":"bool","internalType":"bool"}],"stateMutability":"view"},{"type":"function","name":"successfulTransfers","inputs":[],"outputs":[{"name":"","type":"uint256","internalType":"uint256"}],"stateMutability":"view"},{"type":"function","name":"supportsRoute","inputs":[{"name":"tokenIn","type":"address","internalType":"address"},{"name":"tokenOut","type":"address","internalType":"address"},{"name":"srcChainId","type":"uint256","internalType":"uint256"},{"name":"dstChainId","type":"uint256","internalType":"uint256"}],"outputs":[{"name":"supported","type":"bool","internalType":"bool"}],"stateMutability":"view"},{"type":"function","name":"totalTransfers","inputs":[],"outputs":[{"name":"","type":"uint256","internalType":"uint256"}],"stateMutability":"view"},{"type":"function","name":"totalVolume","inputs":[],"outputs":[{"name":"","type":"uint256","internalType":"uint256"}],"stateMutability":"view"},{"type":"function","name":"transferHistory","inputs":[{"name":"","type":"uint256","internalType":"uint256"}],"outputs":[{"name":"","type":"bytes32","internalType":"bytes32"}],"stateMutability":"view"},{"type":"function","name":"transferNonce","inputs":[],"outputs":[{"name":"","type":"uint256","internalType":"uint256"}],"stateMutability":"view"},{"type":"function","name":"transferOwnership","inputs":[{"name":"newOwner","type":"address","internalType":"address"}],"outputs":[],"stateMutability":"nonpayable"},{"type":"function","name":"transfers","inputs":[{"name":"","type":"bytes32","internalType":"bytes32"}],"outputs":[{"name":"transferId","type":"bytes32","internalType":"bytes32"},{"name":"sender","type":"address","internalType":"address"},{"name":"recipient","type":"address","internalType":"address"},{"name":"route","type":"tuple","internalType":"struct IBridgeAdapter.Route","components":[{"name":"adapter","type":"address","internalType":"address"},{"name":"tokenIn","type":"address","internalType":"address"},{"name":"tokenOut","type":"address","internalType":"address"},{"name":"amountIn","type":"uint256","internalType":"uint256"},{"name":"amountOut","type":"uint256","internalType":"uint256"},{"name":"srcChainId","type":"uint256","internalType":"uint256"},{"name":"dstChainId","type":"uint256","internalType":"uint256"},{"name":"metrics","type":"tuple","internalType":"struct IBridgeAdapter.RouteMetrics","components":[{"name":"estimatedGasCost","type":"uint256","internalType":"uint256"},{"name":"bridgeFee","type":"uint256","internalType":"uint256"},{"name":"totalCostWei","type":"uint256","internalType":"uint256"},{"name":"estimatedTimeMinutes","type":"uint256","internalType":"uint256"},{"name":"liquidityAvailable","type":"uint256","internalType":"uint256"},{"name":"successRate","type":"uint256","internalType":"uint256"},{"name":"congestionLevel","type":"uint256","internalType":"uint256"}]},{"name":"adapterData","type":"bytes","internalType":"bytes"},{"name":"deadline","type":"uint256","internalType":"uint256"}]},{"name":"status","type":"uint8","internalType":"enum IBridgeAdapter.TransferStatus"},{"name":"initiatedAt","type":"uint256","internalType":"uint256"},{"name":"completedAt","type":"uint256","internalType":"uint256"}],"stateMutability":"view"},{"type":"function","name":"updateAssetConfig","inputs":[{"name":"chainId","type":"uint256","internalType":"uint256"},{"name":"asset","type":"address","internalType":"address"},{"name":"config","type":"tuple","internalType":"struct ConnextAdapter.AssetConfig","components":[{"name":"localAsset","type":"address","internalType":"address"},{"name":"adoptedAsset","type":"address","internalType":"address"},{"name":"cap","type":"uint256","internalType":"uint256"},{"name":"liquidity","type":"uint256","internalType":"uint256"},{"name":"slippage","type":"uint256","internalType":"uint256"},{"name":"isStable","type":"bool","internalType":"bool"},{"name":"isActive","type":"bool","internalType":"bool"}]}],"outputs":[],"stateMutability":"nonpayable"},{"type":"function","name":"updateConfig","inputs":[{"name":"newConfig","type":"tuple","internalType":"struct ConnextAdapter.BridgeConfig","components":[{"name":"baseFee","type":"uint256","internalType":"uint256"},{"name":"feePercentage","type":"uint256","internalType":"uint256"},{"name":"minTransferAmount","type":"uint256","internalType":"uint256"},{"name":"maxTransferAmount","type":"uint256","internalType":"uint256"},{"name":"avgCompletionTime","type":"uint256","internalType":"uint256"},{"name":"auctionPeriod","type":"uint256","internalType":"uint256"},{"name":"maxSlippage","type":"uint256","internalType":"uint256"},{"name":"isActive","type":"bool","internalType":"bool"}]}],"outputs":[],"stateMutability":"nonpayable"},{"type":"function","name":"updateHealthStatus","inputs":[{"name":"healthy","type":"bool","internalType":"bool"}],"outputs":[],"stateMutability":"nonpayable"},{"type":"function","name":"updateRouter","inputs":[{"name":"routerAddress","type":"address","internalType":"address"},{"name":"router","type":"tuple","internalType":"struct ConnextAdapter.Router","components":[{"name":"routerAddress","type":"address","internalType":"address"},{"name":"liquidity","type":"uint256","internalType":"uint256"},{"name":"lockedLiquidity","type":"uint256","internalType":"uint256"},{"name":"feeRate","type":"uint256","internalType":"uint256"},{"name":"reputation","type":"uint256","internalType":"uint256"},{"name":"successfulTxs","type":"uint256","internalType":"uint256"},{"name":"totalTxs","type":"uint256","internalType":"uint256"},{"name":"isActive","type":"bool","internalType":"bool"},{"name":"isWhitelisted","type":"bool","internalType":"bool"}]}],"outputs":[],"stateMutability":"nonpayable"},{"type":"function","name":"updateRouterLiquidity","inputs":[{"name":"routerAddress","type":"address","internalType":"address"},{"name":"newLiquidity","type":"uint256","internalType":"uint256"}],"outputs":[],"stateMutability":"nonpayable"},{"type":"event","name":"AssetConfigUpdated","inputs":[{"name":"chainId","type":"uint256","indexed":true,"internalType":"uint256"},{"name":"asset","type":"address","indexed":true,"internalType":"address"},{"name":"config","type":"tuple","indexed":false,"internalType":"struct ConnextAdapter.AssetConfig","components":[{"name":"localAsset","type":"address","internalType":"address"},{"name":"adoptedAsset","type":"address","internalType":"address"},{"name":"cap","type":"uint256","internalType":"uint256"},{"name":"liquidity","type":"uint256","internalType":"uint256"},{"name":"slippage","type":"uint256","internalType":"uint256"},{"name":"isStable","type":"bool","internalType":"bool"},{"name":"isActive","type":"bool","internalType":"bool"}]}],"anonymous":false},{"type":"event","name":"OwnershipTransferred","inputs":[{"name":"previousOwner","type":"address","indexed":true,"internalType":"address"},{"name":"newOwner","type":"address","indexed":true,"internalType":"address"}],"anonymous":false},{"type":"event","name":"RouterAdded","inputs":[{"name":"router","type":"address","indexed":true,"internalType":"address"},{"name":"liquidity","type":"uint256","indexed":false,"internalType":"uint256"}],"anonymous":false},{"type":"event","name":"RouterLiquidityUpdated","inputs":[{"name":"router","type":"address","indexed":true,"internalType":"address"},{"name":"newLiquidity","type":"uint256","indexed":false,"internalType":"uint256"}],"anonymous":false},{"type":"event","name":"TransferCompleted","inputs":[{"name":"transferId","type":"bytes32","indexed":true,"internalType":"bytes32"},{"name":"actualAmountOut","type":"uint256","indexed":false,"internalType":"uint256"},{"name":"actualCost","type":"uint256","indexed":false,"internalType":"uint256"},{"name":"actualTime","type":"uint256","indexed":false,"internalType":"uint256"}],"anonymous":false},{"type":"event","name":"TransferFailed","inputs":[{"name":"transferId","type":"bytes32","indexed":true,"internalType":"bytes32"},{"name":"reason","type":"string","indexed":false,"internalType":"string"}],"anonymous":false},{"type":"event","name":"TransferFulfilled","inputs":[{"name":"transferId","type":"bytes32","indexed":true,"internalType":"bytes32"},{"name":"router","type":"address","indexed":true,"internalType":"address"}],"anonymous":false},{"type":"event","name":"TransferInitiated","inputs":[{"name":"transferId","type":"bytes32","indexed":true,"internalType":"bytes32"},{"name":"sender","type":"address","indexed":true,"internalType":"address"},{"name":"recipient","type":"address","indexed":true,"internalType":"address"},{"name":"route","type":"tuple","indexed":false,"internalType":"struct IBridgeAdapter.Route","components":[{"name":"adapter","type":"address","internalType":"address"},{"name":"tokenIn","type":"address","internalType":"address"},{"name":"tokenOut","type":"address","internalType":"address"},{"name":"amountIn","type":"uint256","internalType":"uint256"},{"name":"amountOut","type":"uint256","internalType":"uint256"},{"name":"srcChainId","type":"uint256","internalType":"uint256"},{"name":"dstChainId","type":"uint256","internalType":"uint256"},{"name":"metrics","type":"tuple","internalType":"struct IBridgeAdapter.RouteMetrics","components":[{"name":"estimatedGasCost","type":"uint256","internalType":"uint256"},{"name":"bridgeFee","type":"uint256","internalType":"uint256"},{"name":"totalCostWei","type":"uint256","internalType":"uint256"},{"name":"estimatedTimeMinutes","type":"uint256","internalType":"uint256"},{"name":"liquidityAvailable","type":"uint256","internalType":"uint256"},{"name":"successRate","type":"uint256","internalType":"uint256"},{"name":"congestionLevel","type":"uint256","internalType":"uint256"}]},{"name":"adapterData","type":"bytes","internalType":"bytes"},{"name":"deadline","type":"uint256","internalType":"uint256"}]}],"anonymous":false},{"type":"event","name":"TransferPrepared","inputs":[{"name":"transferId","type":"bytes32","indexed":true,"internalType":"bytes32"},{"name":"router","type":"address","indexed":true,"internalType":"address"}],"anonymous":false},{"type":"error","name":"AssetNotSupported","inputs":[]},{"type":"error","name":"BridgeInactive","inputs":[]},{"type":"error","name":"InsufficientRouterLiquidity","inputs":[]},{"type":"error","name":"NoActiveRouters","inputs":[]},{"type":"error","name":"OwnableInvalidOwner","inputs":[{"name":"owner","type":"address","internalType":"address"}]},{"type":"error","name":"OwnableUnauthorizedAccount","inputs":[{"name":"account","type":"address","internalType":"address"}]},{"type":"error","name":"ReentrancyGuardReentrantCall","inputs":[]},{"type":"error","name":"RouterNotActive","inputs":[]},{"type":"error","name":"SafeERC20FailedOperation","inputs":[{"name":"token","type":"address","internalType":"address"}]},{"type":"error","name":"SlippageTooHigh","inputs":[]},{"type":"error","name":"TransferAmountTooHigh","inputs":[]},{"type":"error","name":"TransferAmountTooLow","inputs":[]},{"type":"error","name":"TransferExpired","inputs":[]},{"type":"error","name":"UnsupportedRoute","inputs":[]}],"userdoc":{},"devdoc":{},"storageLayout":{"storage":[{"astId":35921,"contract":"src/adapters/ConnextAdapter.sol:ConnextAdapter","label":"_owner","offset":0,"slot":"0","type":"t_address"},{"astId":39225,"contract":"src/adapters/ConnextAdapter.sol:ConnextAdapter","label":"routers","offset":0,"slot":"1","type":"t_mapping(t_address,t_struct(Router)39176_storage)"},{"astId":39232,"contract":"src/adapters/ConnextAdapter.sol:ConnextAdapter","label":"assetConfigs","offset":0,"slot":"2","type":"t_mapping(t_uint256,t_mapping(t_address,t_struct(AssetConfig)39192_storage))"},{"astId":39237,"contract":"src/adapters/ConnextAdapter.sol:ConnextAdapter","label":"transfers","offset":0,"slot":"3","type":"t_mapping(t_bytes32,t_struct(Transfer)49040_storage)"},{"astId":39242,"contract":"src/adapters/ConnextAdapter.sol:ConnextAdapter","label":"connextTransfers","offset":0,"slot":"4","type":"t_mapping(t_bytes32,t_struct(ConnextTransfer)39220_storage)"},{"astId":39245,"contract":"src/adapters/ConnextAdapter.sol:ConnextAdapter","label":"activeRouters","offset":0,"slot":"5","type":"t_array(t_address)dyn_storage"},{"astId":39248,"contract":"src/adapters/ConnextAdapter.sol:ConnextAdapter","label":"transferHistory","offset":0,"slot":"6","type":"t_array(t_bytes32)dyn_storage"},{"astId":39250,"contract":"src/adapters/ConnextAdapter.sol:ConnextAdapter","label":"transferNonce","offset":0,"slot":"7","type":"t_uint256"},{"astId":39252,"contract":"src/adapters/ConnextAdapter.sol:ConnextAdapter","label":"totalTransfers","offset":0,"slot":"8","type":"t_uint256"},{"astId":39254,"contract":"src/adapters/ConnextAdapter.sol:ConnextAdapter","label":"successfulTransfers","offset":0,"slot":"9","type":"t_uint256"},{"astId":39256,"contract":"src/adapters/ConnextAdapter.sol:ConnextAdapter","label":"totalVolume","offset":0,"slot":"10","type":"t_uint256"},{"astId":39258,"contract":"src/adapters/ConnextAdapter.sol:ConnextAdapter","label":"lastHealthCheck","offset":0,"slot":"11","type":"t_uint256"},{"astId":39261,"contract":"src/adapters/ConnextAdapter.sol:ConnextAdapter","label":"healthyStatus","offset":0,"slot":"12","type":"t_bool"},{"astId":39282,"contract":"src/adapters/ConnextAdapter.sol:ConnextAdapter","label":"bridgeConfig","offset":0,"slot":"13","type":"t_struct(BridgeConfig)39279_storage"}],"types":{"t_address":{"encoding":"inplace","label":"address","numberOfBytes":"20"},"t_array(t_address)dyn_storage":{"encoding":"dynamic_array","label":"address[]","numberOfBytes":"32","base":"t_address"},"t_array(t_bytes32)dyn_storage":{"encoding":"dynamic_array","label":"bytes32[]","numberOfBytes":"32","base":"t_bytes32"},"t_bool":{"encoding":"inplace","label":"bool","numberOfBytes":"1"},"t_bytes32":{"encoding":"inplace","label":"bytes32","numberOfBytes":"32"},"t_bytes_storage":{"encoding":"bytes","label":"bytes","numberOfBytes":"32"},"t_enum(TransferStatus)49022":{"encoding":"inplace","label":"enum IBridgeAdapter.TransferStatus","numberOfBytes":"1"},"t_mapping(t_address,t_struct(AssetConfig)39192_storage)":{"encoding":"mapping","key":"t_address","label":"mapping(address => struct ConnextAdapter.AssetConfig)","numberOfBytes":"32","value":"t_struct(AssetConfig)39192_storage"},"t_mapping(t_address,t_struct(Router)39176_storage)":{"encoding":"mapping","key":"t_address","label":"mapping(address => struct ConnextAdapter.Router)","numberOfBytes":"32","value":"t_struct(Router)39176_storage"},"t_mapping(t_bytes32,t_struct(ConnextTransfer)39220_storage)":{"encoding":"mapping","key":"t_bytes32","label":"mapping(bytes32 => struct ConnextAdapter.ConnextTransfer)","numberOfBytes":"32","value":"t_struct(ConnextTransfer)39220_storage"},"t_mapping(t_bytes32,t_struct(Transfer)49040_storage)":{"encoding":"mapping","key":"t_bytes32","label":"mapping(bytes32 => struct IBridgeAdapter.Transfer)","numberOfBytes":"32","value":"t_struct(Transfer)49040_storage"},"t_mapping(t_uint256,t_mapping(t_address,t_struct(AssetConfig)39192_storage))":{"encoding":"mapping","key":"t_uint256","label":"mapping(uint256 => mapping(address => struct ConnextAdapter.AssetConfig))","numberOfBytes":"32","value":"t_mapping(t_address,t_struct(AssetConfig)39192_storage)"},"t_struct(AssetConfig)39192_storage":{"encoding":"inplace","label":"struct ConnextAdapter.AssetConfig","numberOfBytes":"192","members":[{"astId":39179,"contract":"src/adapters/ConnextAdapter.sol:ConnextAdapter","label":"localAsset","offset":0,"slot":"0","type":"t_address"},{"astId":39181,"contract":"src/adapters/ConnextAdapter.sol:ConnextAdapter","label":"adoptedAsset","offset":0,"slot":"1","type":"t_address"},{"astId":39183,"contract":"src/adapters/ConnextAdapter.sol:ConnextAdapter","label":"cap","offset":0,"slot":"2","type":"t_uint256"},{"astId":39185,"contract":"src/adapters/ConnextAdapter.sol:ConnextAdapter","label":"liquidity","offset":0,"slot":"3","type":"t_uint256"},{"astId":39187,"contract":"src/adapters/ConnextAdapter.sol:ConnextAdapter","label":"slippage","offset":0,"slot":"4","type":"t_uint256"},{"astId":39189,"contract":"src/adapters/ConnextAdapter.sol:ConnextAdapter","label":"isStable","offset":0,"slot":"5","type":"t_bool"},{"astId":39191,"contract":"src/adapters/ConnextAdapter.sol:ConnextAdapter","label":"isActive","offset":1,"slot":"5","type":"t_bool"}]},"t_struct(BridgeConfig)39279_storage":{"encoding":"inplace","label":"struct ConnextAdapter.BridgeConfig","numberOfBytes":"256","members":[{"astId":39264,"contract":"src/adapters/ConnextAdapter.sol:ConnextAdapter","label":"baseFee","offset":0,"slot":"0","type":"t_uint256"},{"astId":39266,"contract":"src/adapters/ConnextAdapter.sol:ConnextAdapter","label":"feePercentage","offset":0,"slot":"1","type":"t_uint256"},{"astId":39268,"contract":"src/adapters/ConnextAdapter.sol:ConnextAdapter","label":"minTransferAmount","offset":0,"slot":"2","type":"t_uint256"},{"astId":39270,"contract":"src/adapters/ConnextAdapter.sol:ConnextAdapter","label":"maxTransferAmount","offset":0,"slot":"3","type":"t_uint256"},{"astId":39272,"contract":"src/adapters/ConnextAdapter.sol:ConnextAdapter","label":"avgCompletionTime","offset":0,"slot":"4","type":"t_uint256"},{"astId":39274,"contract":"src/adapters/ConnextAdapter.sol:ConnextAdapter","label":"auctionPeriod","offset":0,"slot":"5","type":"t_uint256"},{"astId":39276,"contract":"src/adapters/ConnextAdapter.sol:ConnextAdapter","label":"maxSlippage","offset":0,"slot":"6","type":"t_uint256"},{"astId":39278,"contract":"src/adapters/ConnextAdapter.sol:ConnextAdapter","label":"isActive","offset":0,"slot":"7","type":"t_bool"}]},"t_struct(ConnextTransfer)39220_storage":{"encoding":"inplace","label":"struct ConnextAdapter.ConnextTransfer","numberOfBytes":"384","members":[{"astId":39195,"contract":"src/adapters/ConnextAdapter.sol:ConnextAdapter","label":"transferId","offset":0,"slot":"0","type":"t_bytes32"},{"astId":39197,"contract":"src/adapters/ConnextAdapter.sol:ConnextAdapter","label":"sender","offset":0,"slot":"1","type":"t_address"},{"astId":39199,"contract":"src/adapters/ConnextAdapter.sol:ConnextAdapter","label":"receiver","offset":0,"slot":"2","type":"t_address"},{"astId":39201,"contract":"src/adapters/ConnextAdapter.sol:ConnextAdapter","label":"router","offset":0,"slot":"3","type":"t_address"},{"astId":39203,"contract":"src/adapters/ConnextAdapter.sol:ConnextAdapter","label":"asset","offset":0,"slot":"4","type":"t_address"},{"astId":39205,"contract":"src/adapters/ConnextAdapter.sol:ConnextAdapter","label":"amount","offset":0,"slot":"5","type":"t_uint256"},{"astId":39207,"contract":"src/adapters/ConnextAdapter.sol:ConnextAdapter","label":"slippage","offset":0,"slot":"6","type":"t_uint256"},{"astId":39209,"contract":"src/adapters/ConnextAdapter.sol:ConnextAdapter","label":"originChain","offset":0,"slot":"7","type":"t_uint256"},{"astId":39211,"contract":"src/adapters/ConnextAdapter.sol:ConnextAdapter","label":"destinationChain","offset":0,"slot":"8","type":"t_uint256"},{"astId":39213,"contract":"src/adapters/ConnextAdapter.sol:ConnextAdapter","label":"nonce","offset":0,"slot":"9","type":"t_uint256"},{"astId":39215,"contract":"src/adapters/ConnextAdapter.sol:ConnextAdapter","label":"timestamp","offset":0,"slot":"10","type":"t_uint256"},{"astId":39217,"contract":"src/adapters/ConnextAdapter.sol:ConnextAdapter","label":"isRouterLiquidity","offset":0,"slot":"11","type":"t_bool"},{"astId":39219,"contract":"src/adapters/ConnextAdapter.sol:ConnextAdapter","label":"isCompleted","offset":1,"slot":"11","type":"t_bool"}]},"t_struct(Route)49015_storage":{"encoding":"inplace","label":"struct IBridgeAdapter.Route","numberOfBytes":"512","members":[{"astId":48995,"contract":"src/adapters/ConnextAdapter.sol:ConnextAdapter","label":"adapter","offset":0,"slot":"0","type":"t_address"},{"astId":48997,"contract":"src/adapters/ConnextAdapter.sol:ConnextAdapter","label":"tokenIn","offset":0,"slot":"1","type":"t_address"},{"astId":48999,"contract":"src/adapters/ConnextAdapter.sol:ConnextAdapter","label":"tokenOut","offset":0,"slot":"2","type":"t_address"},{"astId":49001,"contract":"src/adapters/ConnextAdapter.sol:ConnextAdapter","label":"amountIn","offset":0,"slot":"3","type":"t_uint256"},{"astId":49003,"contract":"src/adapters/ConnextAdapter.sol:ConnextAdapter","label":"amountOut","offset":0,"slot":"4","type":"t_uint256"},{"astId":49005,"contract":"src/adapters/ConnextAdapter.sol:ConnextAdapter","label":"srcChainId","offset":0,"slot":"5","type":"t_uint256"},{"astId":49007,"contract":"src/adapters/ConnextAdapter.sol:ConnextAdapter","label":"dstChainId","offset":0,"slot":"6","type":"t_uint256"},{"astId":49010,"contract":"src/adapters/ConnextAdapter.sol:ConnextAdapter","label":"metrics","offset":0,"slot":"7","type":"t_struct(RouteMetrics)48992_storage"},{"astId":49012,"contract":"src/adapters/ConnextAdapter.sol:ConnextAdapter","label":"adapterData","offset":0,"slot":"14","type":"t_bytes_storage"},{"astId":49014,"contract":"src/adapters/ConnextAdapter.sol:ConnextAdapter","label":"deadline","offset":0,"slot":"15","type":"t_uint256"}]},"t_struct(RouteMetrics)48992_storage":{"encoding":"inplace","label":"struct IBridgeAdapter.RouteMetrics","numberOfBytes":"224","members":[{"astId":48979,"contract":"src/adapters/ConnextAdapter.sol:ConnextAdapter","label":"estimatedGasCost","offset":0,"slot":"0","type":"t_uint256"},{"astId":48981,"contract":"src/adapters/ConnextAdapter.sol:ConnextAdapter","label":"bridgeFee","offset":0,"slot":"1","type":"t_uint256"},{"astId":48983,"contract":"src/adapters/ConnextAdapter.sol:ConnextAdapter","label":"totalCostWei","offset":0,"slot":"2","type":"t_uint256"},{"astId":48985,"contract":"src/adapters/ConnextAdapter.sol:ConnextAdapter","label":"estimatedTimeMinutes","offset":0,"slot":"3","type":"t_uint256"},{"astId":48987,"contract":"src/adapters/ConnextAdapter.sol:ConnextAdapter","label":"liquidityAvailable","offset":0,"slot":"4","type":"t_uint256"},{"astId":48989,"contract":"src/adapters/ConnextAdapter.sol:ConnextAdapter","label":"successRate","offset":0,"slot":"5","type":"t_uint256"},{"astId":48991,"contract":"src/adapters/ConnextAdapter.sol:ConnextAdapter","label":"congestionLevel","offset":0,"slot":"6","type":"t_uint256"}]},"t_struct(Router)39176_storage":{"encoding":"inplace","label":"struct ConnextAdapter.Router","numberOfBytes":"256","members":[{"astId":39159,"contract":"src/adapters/ConnextAdapter.sol:ConnextAdapter","label":"routerAddress","offset":0,"slot":"0","type":"t_address"},{"astId":39161,"contract":"src/adapters/ConnextAdapter.sol:ConnextAdapter","label":"liquidity","offset":0,"slot":"1","type":"t_uint256"},{"astId":39163,"contract":"src/adapters/ConnextAdapter.sol:ConnextAdapter","label":"lockedLiquidity","offset":0,"slot":"2","type":"t_uint256"},{"astId":39165,"contract":"src/adapters/ConnextAdapter.sol:ConnextAdapter","label":"feeRate","offset":0,"slot":"3","type":"t_uint256"},{"astId":39167,"contract":"src/adapters/ConnextAdapter.sol:ConnextAdapter","label":"reputation","offset":0,"slot":"4","type":"t_uint256"},{"astId":39169,"contract":"src/adapters/ConnextAdapter.sol:ConnextAdapter","label":"successfulTxs","offset":0,"slot":"5","type":"t_uint256"},{"astId":39171,"contract":"src/adapters/ConnextAdapter.sol:ConnextAdapter","label":"totalTxs","offset":0,"slot":"6","type":"t_uint256"},{"astId":39173,"contract":"src/adapters/ConnextAdapter.sol:ConnextAdapter","label":"isActive","offset":0,"slot":"7","type":"t_bool"},{"astId":39175,"contract":"src/adapters/ConnextAdapter.sol:ConnextAdapter","label":"isWhitelisted","offset":1,"slot":"7","type":"t_bool"}]},"t_struct(Transfer)49040_storage":{"encoding":"inplace","label":"struct IBridgeAdapter.Transfer","numberOfBytes":"704","members":[{"astId":49025,"contract":"src/adapters/ConnextAdapter.sol:ConnextAdapter","label":"transferId","offset":0,"slot":"0","type":"t_bytes32"},{"astId":49027,"contract":"src/adapters/ConnextAdapter.sol:ConnextAdapter","label":"sender","offset":0,"slot":"1","type":"t_address"},{"astId":49029,"contract":"src/adapters/ConnextAdapter.sol:ConnextAdapter","label":"recipient","offset":0,"slot":"2","type":"t_address"},{"astId":49032,"contract":"src/adapters/ConnextAdapter.sol:ConnextAdapter","label":"route","offset":0,"slot":"3","type":"t_struct(Route)49015_storage"},{"astId":49035,"contract":"src/adapters/ConnextAdapter.sol:ConnextAdapter","label":"status","offset":0,"slot":"19","type":"t_enum(TransferStatus)49022"},{"astId":49037,"contract":"src/adapters/ConnextAdapter.sol:ConnextAdapter","label":"initiatedAt","offset":0,"slot":"20","type":"t_uint256"},{"astId":49039,"contract":"src/adapters/ConnextAdapter.sol:ConnextAdapter","label":"completedAt","offset":0,"slot":"21","type":"t_uint256"}]},"t_uint256":{"encoding":"inplace","label":"uint256","numberOfBytes":"32"}}},"evm":{"bytecode":{"object":"608080604052346200159d57331562001588575f8054336001600160a01b0319821681178355916001600160a01b03909116907f8be0079c531659141344cd1fd0a4f28419497f9722a3daafe3b4186f6b6457e09080a360017f9b779b17422d0df92223018b32b4d1fa46e071723d6817e2486d003becc55f00819055600c805460ff1916909117905560405161010081016001600160401b03811182821017620015745760019160e09160405266038d7ea4c68000815260056020820152670de0b6b3a7640000604082015269152d02c7e14af68000006060820152610258608082015261012c60a082015261012c60c0820152015266038d7ea4c68000600d556005600e55670de0b6b3a7640000600f5569152d02c7e14af680000060105561025860115561012c60125561012c601355600160ff196014541617601455620002d76200014d620015a1565b5f808252602080830182815269152d02c7e14af680000060408501908152690a968163f0a57b4000006060860190815260646080870190815260a08701868152600160c0808a01919091529680525f8051602062004a4d83398151915290955286517fb24c631e9cb1dc9a251a37164dacbd3b053a34270624afb9e7d9e52031a1658c80546001600160a01b039283166001600160a01b03199182161790915594517fb24c631e9cb1dc9a251a37164dacbd3b053a34270624afb9e7d9e52031a1658d80549190921695169490941790935590517fb24c631e9cb1dc9a251a37164dacbd3b053a34270624afb9e7d9e52031a1658e55517fb24c631e9cb1dc9a251a37164dacbd3b053a34270624afb9e7d9e52031a1658f55517fb24c631e9cb1dc9a251a37164dacbd3b053a34270624afb9e7d9e52031a1659055517fb24c631e9cb1dc9a251a37164dacbd3b053a34270624afb9e7d9e52031a16591805460ff191691151560ff16919091178155915b0151815461ff00191690151560081b61ff0016179055565b6200045c620002e5620015a1565b5f80825260208083018281526910f0cf064dd59200000060408501908152690878678326eac90000006060860190815260646080870190815260a08701868152600160c0808a01919091529680525f80516020620049ed83398151915290955286517f725181dd5995b0be87d153455629629679cc5411a184f8ad3c96db669b3e1bb780546001600160a01b039283166001600160a01b03199182161790915594517f725181dd5995b0be87d153455629629679cc5411a184f8ad3c96db669b3e1bb880549190921695169490941790935590517f725181dd5995b0be87d153455629629679cc5411a184f8ad3c96db669b3e1bb955517f725181dd5995b0be87d153455629629679cc5411a184f8ad3c96db669b3e1bba55517f725181dd5995b0be87d153455629629679cc5411a184f8ad3c96db669b3e1bbb55517f725181dd5995b0be87d153455629629679cc5411a184f8ad3c96db669b3e1bbc805460ff191691151560ff1691909117815591620002bf565b620005e16200046a620015a1565b5f8082526020808301828152690cb49b44ba602d8000006040850190815269065a4da25d3016c000006060860190815260646080870190815260a08701868152600160c0808a01919091529680525f8051602062004a2d83398151915290955286517fd3672119e88dd09723107df65e13b9f03cd6a9a9ad151958fa839e5872d55fa480546001600160a01b039283166001600160a01b03199182161790915594517fd3672119e88dd09723107df65e13b9f03cd6a9a9ad151958fa839e5872d55fa580549190921695169490941790935590517fd3672119e88dd09723107df65e13b9f03cd6a9a9ad151958fa839e5872d55fa655517fd3672119e88dd09723107df65e13b9f03cd6a9a9ad151958fa839e5872d55fa755517fd3672119e88dd09723107df65e13b9f03cd6a9a9ad151958fa839e5872d55fa855517fd3672119e88dd09723107df65e13b9f03cd6a9a9ad151958fa839e5872d55fa9805460ff191691151560ff1691909117815591620002bf565b62000768620005ef620015a1565b600180825260208083018281526a084595161401484a000000604085019081526a0422ca8b0a00a4250000006060860190815260326080870190815260a0870186815260c08089018890525f979097525f8051602062004a4d83398151915290955286517f95bdd5161e5869e1f42e411136c3da2e7168f1f2d7ba3877224221be2973b20880546001600160a01b039283166001600160a01b03199182161790915594517f95bdd5161e5869e1f42e411136c3da2e7168f1f2d7ba3877224221be2973b20980549190921695169490941790935590517f95bdd5161e5869e1f42e411136c3da2e7168f1f2d7ba3877224221be2973b20a55517f95bdd5161e5869e1f42e411136c3da2e7168f1f2d7ba3877224221be2973b20b55517f95bdd5161e5869e1f42e411136c3da2e7168f1f2d7ba3877224221be2973b20c55517f95bdd5161e5869e1f42e411136c3da2e7168f1f2d7ba3877224221be2973b20d805460ff191691151560ff1691909117815591620002bf565b620008ef62000776620015a1565b600180825260208083018281526a069e10de76676d08000000604085019081526a034f086f3b33b6840000006060860190815260326080870190815260a0870186815260c08089018890525f979097525f80516020620049ed83398151915290955286517fce942f4159b752c2f8d61ab52dca244a01f5a8739f7c71cb4e719fcc1f14888780546001600160a01b039283166001600160a01b03199182161790915594517fce942f4159b752c2f8d61ab52dca244a01f5a8739f7c71cb4e719fcc1f14888880549190921695169490941790935590517fce942f4159b752c2f8d61ab52dca244a01f5a8739f7c71cb4e719fcc1f14888955517fce942f4159b752c2f8d61ab52dca244a01f5a8739f7c71cb4e719fcc1f14888a55517fce942f4159b752c2f8d61ab52dca244a01f5a8739f7c71cb4e719fcc1f14888b55517fce942f4159b752c2f8d61ab52dca244a01f5a8739f7c71cb4e719fcc1f14888c805460ff191691151560ff1691909117815591620002bf565b62000a76620008fd620015a1565b600180825260208083018281526a04f68ca6d8cd91c6000000604085019081526a027b46536c66c8e30000006060860190815260326080870190815260a0870186815260c08089018890525f979097525f8051602062004a2d83398151915290955286517f2a68a4d5ae5cad3762cf0f3276d342f984fdb18610e7c352e899dfede55a864180546001600160a01b039283166001600160a01b03199182161790915594517f2a68a4d5ae5cad3762cf0f3276d342f984fdb18610e7c352e899dfede55a864280549190921695169490941790935590517f2a68a4d5ae5cad3762cf0f3276d342f984fdb18610e7c352e899dfede55a864355517f2a68a4d5ae5cad3762cf0f3276d342f984fdb18610e7c352e899dfede55a864455517f2a68a4d5ae5cad3762cf0f3276d342f984fdb18610e7c352e899dfede55a864555517f2a68a4d5ae5cad3762cf0f3276d342f984fdb18610e7c352e899dfede55a8646805460ff191691151560ff1691909117815591620002bf565b62000bfe62000a84620015a1565b60028082526020808301828152690a968163f0a57b4000006040850190815269054b40b1f852bda00000606086019081526064608087019081525f60a08801818152600160c0808b0191909152979091525f8051602062004a4d83398151915290955286517f3464a2fe2e860a50a71098aa766d3746ddcbbd669b2fb701b6f49dd4511b9d4f80546001600160a01b039283166001600160a01b03199182161790915594517f3464a2fe2e860a50a71098aa766d3746ddcbbd669b2fb701b6f49dd4511b9d5080549190921695169490941790935590517f3464a2fe2e860a50a71098aa766d3746ddcbbd669b2fb701b6f49dd4511b9d5155517f3464a2fe2e860a50a71098aa766d3746ddcbbd669b2fb701b6f49dd4511b9d5255517f3464a2fe2e860a50a71098aa766d3746ddcbbd669b2fb701b6f49dd4511b9d5355517f3464a2fe2e860a50a71098aa766d3746ddcbbd669b2fb701b6f49dd4511b9d54805460ff191691151560ff1691909117815591620002bf565b62000d8662000c0c620015a1565b60028082526020808301828152690878678326eac90000006040850190815269043c33c1937564800000606086019081526064608087019081525f60a08801818152600160c0808b0191909152979091525f80516020620049ed83398151915290955286517f086293413c334ed23d22a21c975b8216f3b28323eb87bbbfc4f15926c800bffe80546001600160a01b039283166001600160a01b03199182161790915594517f086293413c334ed23d22a21c975b8216f3b28323eb87bbbfc4f15926c800bfff80549190921695169490941790935590517f086293413c334ed23d22a21c975b8216f3b28323eb87bbbfc4f15926c800c00055517f086293413c334ed23d22a21c975b8216f3b28323eb87bbbfc4f15926c800c00155517f086293413c334ed23d22a21c975b8216f3b28323eb87bbbfc4f15926c800c00255517f086293413c334ed23d22a21c975b8216f3b28323eb87bbbfc4f15926c800c003805460ff191691151560ff1691909117815591620002bf565b62000f0e62000d94620015a1565b6002808252602080830182815269065a4da25d3016c000006040850190815269032d26d12e980b600000606086019081526064608087019081525f60a08801818152600160c0808b0191909152979091525f8051602062004a2d83398151915290955286517fa0b805d8e49e99f9fe4f7ac51b1e1868b5b9d5eaeb04ba62d8fb98b240eb17c880546001600160a01b039283166001600160a01b03199182161790915594517fa0b805d8e49e99f9fe4f7ac51b1e1868b5b9d5eaeb04ba62d8fb98b240eb17c980549190921695169490941790935590517fa0b805d8e49e99f9fe4f7ac51b1e1868b5b9d5eaeb04ba62d8fb98b240eb17ca55517fa0b805d8e49e99f9fe4f7ac51b1e1868b5b9d5eaeb04ba62d8fb98b240eb17cb55517fa0b805d8e49e99f9fe4f7ac51b1e1868b5b9d5eaeb04ba62d8fb98b240eb17cc55517fa0b805d8e49e99f9fe4f7ac51b1e1868b5b9d5eaeb04ba62d8fb98b240eb17cd805460ff191691151560ff1691909117815591620002bf565b620010d962000f1c620015c1565b61020180825269d3c21bcecceda1000000602080840191825269152d02c7e14af680000060408501908152600a6060860190815260626080870190815261264860a0880190815261271060c08901908152600160e08a01818152610100808c018390525f9a909a52965288517f7ea39c3a1b472adb1a46b82f40de40bb7a9fa5ad3dbeac7da36175e48293187d80546001600160a01b039092166001600160a01b031990921691909117905595517f7ea39c3a1b472adb1a46b82f40de40bb7a9fa5ad3dbeac7da36175e48293187e5592517f7ea39c3a1b472adb1a46b82f40de40bb7a9fa5ad3dbeac7da36175e48293187f5590517f7ea39c3a1b472adb1a46b82f40de40bb7a9fa5ad3dbeac7da36175e48293188055517f7ea39c3a1b472adb1a46b82f40de40bb7a9fa5ad3dbeac7da36175e48293188155517f7ea39c3a1b472adb1a46b82f40de40bb7a9fa5ad3dbeac7da36175e4829318825590517f7ea39c3a1b472adb1a46b82f40de40bb7a9fa5ad3dbeac7da36175e48293188355517f7ea39c3a1b472adb1a46b82f40de40bb7a9fa5ad3dbeac7da36175e482931884805460ff191691151560ff1691909117815591620002bf565b6005546801000000000000000081101562001574576001810180600555811015620015605760055f525f8051602062004a0d8339815191520180546001600160a01b031916610201179055620012ef62001132620015c1565b6102028082526969e10de76676d08000006020808401918252690a968163f0a57b40000060408501908152600860608601908152605f6080870190815261251c60a0880190815261271060c08901908152600160e08a01818152610100808c018390525f9a909a52965288517f0b64dc15feae685ddce165bcdd88e1d7ada1d58a4775ad3022255665a17e5e0880546001600160a01b039092166001600160a01b031990921691909117905595517f0b64dc15feae685ddce165bcdd88e1d7ada1d58a4775ad3022255665a17e5e095592517f0b64dc15feae685ddce165bcdd88e1d7ada1d58a4775ad3022255665a17e5e0a5590517f0b64dc15feae685ddce165bcdd88e1d7ada1d58a4775ad3022255665a17e5e0b55517f0b64dc15feae685ddce165bcdd88e1d7ada1d58a4775ad3022255665a17e5e0c55517f0b64dc15feae685ddce165bcdd88e1d7ada1d58a4775ad3022255665a17e5e0d5590517f0b64dc15feae685ddce165bcdd88e1d7ada1d58a4775ad3022255665a17e5e0e55517f0b64dc15feae685ddce165bcdd88e1d7ada1d58a4775ad3022255665a17e5e0f805460ff191691151560ff1691909117815591620002bf565b6005546801000000000000000081101562001574576001810180600555811015620015605760055f525f8051602062004a0d8339815191520180546001600160a01b0319166102021790556200150562001348620015c1565b6102038082526934f086f3b33b68400000602080840191825269054b40b1f852bda0000060408501908152600660608601908152605c608087019081526123f060a0880190815261271060c08901908152600160e08a01818152610100808c018390525f9a909a52965288517f70bcb5e6fb9abf4999528c27063eb8dd5a3b37c26da38b975eb83450c52d248980546001600160a01b039092166001600160a01b031990921691909117905595517f70bcb5e6fb9abf4999528c27063eb8dd5a3b37c26da38b975eb83450c52d248a5592517f70bcb5e6fb9abf4999528c27063eb8dd5a3b37c26da38b975eb83450c52d248b5590517f70bcb5e6fb9abf4999528c27063eb8dd5a3b37c26da38b975eb83450c52d248c55517f70bcb5e6fb9abf4999528c27063eb8dd5a3b37c26da38b975eb83450c52d248d55517f70bcb5e6fb9abf4999528c27063eb8dd5a3b37c26da38b975eb83450c52d248e5590517f70bcb5e6fb9abf4999528c27063eb8dd5a3b37c26da38b975eb83450c52d248f55517f70bcb5e6fb9abf4999528c27063eb8dd5a3b37c26da38b975eb83450c52d2490805460ff191691151560ff1691909117815591620002bf565b6005546801000000000000000081101562001574576001810180600555811015620015605760055f525f8051602062004a0d8339815191520180546001600160a01b03191661020317905560405161340a9081620015e38239f35b634e487b7160e01b5f52603260045260245ffd5b634e487b7160e01b5f52604160045260245ffd5b631e4fbdf760e01b81525f6004820152602490fd5b5f80fd5b6040519060e082016001600160401b038111838210176200157457604052565b6040519061012082016001600160401b03811183821017620015745760405256fe6080604052600436101561001a575b3615610018575f80fd5b005b5f3560e01c806315a3d37a146124a95780631d635756146124665780631e04a56f146124445780632165cbb7146123e1578063235e519914612383578063260958a51461221257806326c35644146121d65780633542284b146121b2578063390f4185146121965780633bf47720146121795780633c64f04b146120de5780633e119a1514611f405780635193ff1e14611eae5780635f81a57c14611e91578063715018a614611e3a57806373a1bff514611df957806380dd9a1f14611d5e578063816c99de14611d2757806382efb36114611b415780638369166d14611a155780638da5cb5b146119f05780638f20a7f714610a1f57806393d9a1e61461096957806395ccea671461087f57806399b595e4146107835780639ce3f4b214610766578063b8b2233d146106f2578063b8ed12a4146106d5578063c764c3681461066a578063d3db5803146105a6578063d51aa0cb1461056f578063d9109393146103a7578063e20d423d146102dd578063e402080414610297578063e9dd087414610271578063f2fde38b146101d65763f9e5051a0361000e57346101d2575f3660031901126101d2576020600954604051908152f35b5f80fd5b346101d25760203660031901126101d2576101ef612906565b6101f76133ba565b6001600160a01b03809116908115610241575f54826001600160a01b03198216175f55167f8be0079c531659141344cd1fd0a4f28419497f9722a3daafe3b4186f6b6457e05f80a3005b60246040517f1e4fbdf70000000000000000000000000000000000000000000000000000000081525f6004820152fd5b346101d257602061028d61028436612c53565b929190916132b0565b6040519015158152f35b346101d2575f3660031901126101d25760ff600c5416806102d1575b806102c6575b6020906040519015158152f35b5060055415156102b9565b5060ff601454166102b3565b346101d25760203660031901126101d2576004355f5260046020526101a060405f2060ff8154916001600160a01b03908160018201541691806002830154169080600384015416906004840154166005840154600685015490600786015492600887015494600988015496600b600a8a0154990154996040519c8d5260208d015260408c015260608b015260808a015260a089015260c088015260e0870152610100860152610120850152610140840152818116151561016084015260081c161515610180820152f35b346101d2576101403660031901126101d2576103c1612906565b6101203660231901126101d257604051906103db82612962565b6103e361291c565b82526020820160443581526040830192606435845260608101936084358552608082019460a435865260a083019160c435835260c084019160e4358352610428612c43565b9060e08601918252610124359485151586036101d2576104e09460069161010089019788526104556133ba565b6001600160a01b03809b169b8c5f52600160205260405f209460078601978d60ff8a5416159c51166001600160a01b03198854161787558c51600188015551600287015551600386015551600485015551600584015551910155511515926104c984839060ff801983541691151516179055565b51815461ff00191690151560081b61ff0016179055565b81610567575b506104ed57005b6005549068010000000000000000821015610553577f507d41dee6cc570a9db1207891109dc8969d8f14e86eccf1605f19e267e405289261053683600160209501600555612e6c565b819291549060031b9187831b921b191617905551604051908152a2005b634e487b7160e01b5f52604160045260245ffd5b9050846104e6565b346101d25760603660031901126101d257604061059a61058d612906565b60443590602435906130d8565b82519182526020820152f35b346101d2575f3660031901126101d257604051806005548083526020809301809160055f527f036b6384b5eca791c62761152d0c79bb0604c104a5fb6f4eb0703f3154bb3db0905f5b8682821061064d578686610605828803836129b9565b60405192839281840190828552518091526040840192915f5b82811061062d57505050500390f35b83516001600160a01b03168552869550938101939281019260010161061e565b83546001600160a01b0316855290930192600192830192016105ef565b346101d25760403660031901126101d257610683612906565b7ffc868e5c51eecfa564fd87ba439c55c412be764bfdc6f25b913f74ae1ba99df860206001600160a01b03602435936106ba6133ba565b1692835f526001825280600160405f200155604051908152a2005b346101d2575f3660031901126101d2576020600754604051908152f35b346101d2575f3660031901126101d257604051604081019080821067ffffffffffffffff8311176105535761076291604052600e81527f436f6e6e65787420416d61726f6b0000000000000000000000000000000000006020820152604051918291602083526020830190612b22565b0390f35b346101d2575f3660031901126101d2576020600b54604051908152f35b346101d25760403660031901126101d25761076261079f61291c565b6107a7612ed6565b506004355f52600260205260405f206001600160a01b038092165f5260205260ff600560405f20604051936107db85612946565b80825416855260018201541660208501526002810154604085015260038101546060850152600481015460808501520154818116151560a084015260081c16151560c08201526040519182918291909160c08060e08301946001600160a01b03808251168552602082015116602085015260408101516040850152606081015160608501526080810151608085015260a0810151151560a085015201511515910152565b346101d25760403660031901126101d257610898612906565b6024356108a36133ba565b6001600160a01b0391821691826108e3575f809350809281928254168282156108da575bf1156108cf57005b6040513d5f823e3d90fd5b506108fc6108c7565b5f541690604051917fa9059cbb000000000000000000000000000000000000000000000000000000005f5260045260245260205f60448180865af160015f511481161561094a575b816040521561093657005b602491635274afe760e01b82526004820152fd5b600181151661096057823b15153d15161661092b565b503d5f823e3d90fd5b346101d257610100806003193601126101d25760405190810181811067ffffffffffffffff8211176105535760405260043581526020810160243581526040820160443581526060830160643581526080840190608435825260a085019260a435845260c086019460c43586526109de612c34565b9660e081019788526109ee6133ba565b51600d5551600e5551600f555160105551601155516012555160135551151560ff8019601454169116176014555f80f35b60603660031901126101d25760043567ffffffffffffffff81116101d257610a4b9036906004016129db565b610a5361291c565b60443567ffffffffffffffff81116101d257366023820112156101d257806004013567ffffffffffffffff81116101d257369101602401116101d25760027f9b779b17422d0df92223018b32b4d1fa46e071723d6817e2486d003becc55f0054146119c65760027f9b779b17422d0df92223018b32b4d1fa46e071723d6817e2486d003becc55f005560ff601454161561199c5760208281015160408085015160a086015160c08701519251633a77421d60e21b81526001600160a01b039485166004820152939091166024840152604483015260648201529081608481305afa9081156108cf575f9161196d575b50156119435760a08201515f52600260205260405f206001600160a01b036020840151165f5260205260405f209060ff60c0600560405194610b8386612946565b6001600160a01b0381541686526001600160a01b036001820154166020870152600281015460408701526003810154606087015260048101546080870152015493828516151560a0820152019260081c161515825260c08301515f52600260205260405f206001600160a01b036040850151165f5260205260405f209160ff600560405194610c1186612946565b6001600160a01b0381541686526001600160a01b0360018201541660208701526002810154604087015260038101546060870152600481015460808701520154818116151560a086015260081c161590811560c0850152511590811561193b575b50611911576060830151600f54116118e7576060830151601054106118bd576060830151905f926001600160a01b03610ca9612e26565b90549060031b1c16935f19935f91600554925b83811061174a57505050506001600160a01b0384165f52600160205260405f209060ff6007830154161561172057610cfd6001830154600284015490612f31565b6060870151116116f657610d126007546130ca565b8060075560608701519060a088015160c089015190604051937f434f4e4e4558540000000000000000000000000000000000000000000000000060208601523360601b60278601526bffffffffffffffffffffffff198860601b16603b860152604f850152606f840152608f83015260af82015260af8152610d9381612946565b60208151910120936001600160a01b0360208801511615155f1461167b5750906001600160a01b03602087015116606087015190604051917f23b872dd000000000000000000000000000000000000000000000000000000005f52336004523060245260445260205f60648180855af160015f511481161561165c575b826040525f6060521561164757505090610fde915b6002610e38606089015182840154612f24565b9101556001600160a01b03604087015116906080606088015191015160a088015160c0890151916007549360405195610e708761299c565b8987523360208801526001600160a01b03891660408801526001600160a01b038b166060880152608087015260a086015260c085015260e08401526101008301526101208201524261014082015260016101608201525f610180820152835f526004602052610180600b60405f20835181556001600160a01b036020850151166001600160a01b0319600183015416176001820155600281016001600160a01b036040860151166001600160a01b0319825416179055600381016001600160a01b036060860151166001600160a01b0319825416179055600481016001600160a01b036080860151166001600160a01b031982541617905560a0840151600582015560c0840151600682015560e0840151600782015561010084015160088201556101208401516009820155610140840151600a8201550191610fc66101608201511515849060ff801983541691151516179055565b0151815461ff00191690151560081b61ff0016179055565b604051610fea81612946565b8281523360208201526001600160a01b03821660408201528460608201525f60808201524260a08201525f60c0820152825f52600360205260405f209080518255600182016001600160a01b036020830151166001600160a01b0319825416179055600282016001600160a01b036040830151166001600160a01b031982541617905560608101516001600160a01b038151166001600160a01b0319600385015416176003840155600483016001600160a01b036020830151166001600160a01b0319825416179055600583016001600160a01b036040830151166001600160a01b0319825416179055606081015160068401556080810151600784015560a0810151600884015560c0810151600984015560c060e08201518051600a8601556020810151600b8601556040810151600c8601556060810151600d8601556080810151600e86015560a0810151600f8601550151601084015561010081015180519067ffffffffffffffff8211610553576111686011860154612c8c565b601f8111611603575b50602090601f8311600114611593576101209392915f9183611588575b50508160011b915f199060031b1c19161760118501555b015160128301556080810151601383019160058210156115745760159260c09260ff8019835416911617905560a08101516014850155015191015560065468010000000000000000811015610553578060016112049201600655612ea1565b81549060031b9084821b915f19901b19161790556112236008546130ca565b6008556112366060850151600a54612f24565b600a55815f526003602052601360405f2001600160ff198254161790556001600160a01b0383165f52600160205260405f20936040518360208201524260408201526040815280606081011067ffffffffffffffff606083011117610553578060606064920160405260208151910120066004860154115f146114a357825f526004602052600b60405f200161010061ff00198254161790556003602052601360405f2001600260ff198254161790556112f260115442612f24565b835f526003602052601560405f200155600585019461131186546130ca565b809655600681019561132387546130ca565b8097558060648102046064148115171561148f5760209660646113469202612f51565b6004820155835f52600486526113696002600560405f2001549201918254612f31565b90556113766009546130ca565b600955825f5260038552827ff8b93d99f828ea6dc825a1d9830dd368efbe210896261ba9ddf4b8c2db7c11df6060600760405f2001546011546040519182525f8a8301526040820152a26001600160a01b038416837f36b26517478bd03e2c1a8b521240d08ce830f305b8b33bdb8c369b0957b77d1e5f80a35b827f56ca1441c76a98845661e51ce81568a517265ae9ab2f9871a232c11a9208a9f06001600160a01b036040519488865216938061143233958a830190612b60565b0390a46001600160a01b036040519216817f8a98e998cd3501cbc7977748ddba7f7381bb11a3db74cddb5a68d875371e99d05f80a360017f9b779b17422d0df92223018b32b4d1fa46e071723d6817e2486d003becc55f00558152f35b634e487b7160e01b5f52601160045260245ffd5b825f526003602052601360405f2001600360ff1982541617905560068501946114cc86546130ca565b809655600581015460648102908082046064149015171561148f576020966114f391612f51565b6004820155835f52600486526115166002600560405f2001549201918254612f31565b9055827fede47e73e6c8536d5351df6e9a76853cc1ba236bc23132185ee92fa0afa9e7e160606040518881526019898201527f526f757465722066756c66696c6c6d656e74206661696c6564000000000000006040820152a26113f0565b634e487b7160e01b5f52602160045260245ffd5b015190508a8061118e565b90601186015f5260205f20915f5b601f19851681106115eb57509183916001936101209695601f198116106115d3575b505050811b0160118501556111a5565b01515f1960f88460031b161c191690558a80806115c3565b919260206001819286850151815501940192016115a1565b601186015f5260205f20601f840160051c810160208510611640575b601f830160051c82018110611635575050611171565b5f815560010161161f565b508061161f565b60249250635274afe760e01b82526004820152fd5b600181151661167257813b15153d151616610e10565b823d5f823e3d90fd5b611689906060880151612f24565b341061169857610fde91610e25565b60646040517f08c379a000000000000000000000000000000000000000000000000000000000815260206004820152601060248201527f496e73756666696369656e7420455448000000000000000000000000000000006044820152fd5b60046040517f9520306b000000000000000000000000000000000000000000000000000000008152fd5b60046040517fbfe77149000000000000000000000000000000000000000000000000000000008152fd5b6001600160a01b0361175b82612e6c565b90549060031b1c165f52600160205260405f2060405161177a81612962565b6001600160a01b038254168152600182015480602083015260028301549081604084015260038401549260608101938452600760048601549560808301968752600581015460a0840152600681015460c084015201549060ff82161560ff8115938460e085015260081c1615916101008315910152916118b5575b506118a9579061180491612f31565b9085821061189e5761184691683635c9adc5dea0000061271061182b61183694518a612f3e565b049451910490612f24565b66038d7ea4c68000830490612f31565b838111801561188b575b611861575b50506001905b01610cbc565b92509750955060016001600160a01b0361187a88612e6c565b90549060031b1c169796908a611855565b5083811480156118505750888210611850565b50505060019061185b565b5050505060019061185b565b90508e6117f5565b60046040517fb44042ee000000000000000000000000000000000000000000000000000000008152fd5b60046040517f2b069ba2000000000000000000000000000000000000000000000000000000008152fd5b60046040517f981a2a2b000000000000000000000000000000000000000000000000000000008152fd5b905084610c72565b60046040517f5d5fe824000000000000000000000000000000000000000000000000000000008152fd5b61198f915060203d602011611995575b61198781836129b9565b810190612f0c565b83610b42565b503d61197d565b60046040517f87cb8cfe000000000000000000000000000000000000000000000000000000008152fd5b60046040517f3ee5aeb5000000000000000000000000000000000000000000000000000000008152fd5b346101d2575f3660031901126101d25760206001600160a01b035f5416604051908152f35b346101d25760203660031901126101d257610120611a31612906565b604051611a3d81612962565b5f81525f60208201525f60408201525f60608201525f60808201525f60a08201525f60c08201525f60e08201525f610100809201526001600160a01b038092165f52600160205260405f2060405192611a9584612962565b81541692838152600182015491602082019283526002810154604083019081526003820154606084019081526004830154906080850191825260058401549260a08601938452600760068601549560c0880196875201549660ff8960e0890198828b1615158a52019860081c1615158852604051998a525160208a01525160408901525160608801525160808701525160a08601525160c085015251151560e084015251151590820152f35b346101d25760203660031901126101d2575f610180604051611b628161299c565b8281528260208201528260408201528260608201528260808201528260a08201528260c08201528260e08201528261010082015282610120820152826101408201528261016082015201526004355f5260046020526101a060405f20610180604051611bcd8161299c565b60ff600b8454948584526001600160a01b0360018201541660208501526001600160a01b0360028201541660408501526001600160a01b0360038201541660608501526001600160a01b036004820154166080850152600581015460a0850152600681015460c0850152600781015460e085015260088101546101008501526009810154610120850152600a8101546101408501520154818116151561016084015260081c161515828201526040519283526001600160a01b0360208201511660208401526001600160a01b0360408201511660408401526001600160a01b0360608201511660608401526001600160a01b03608082015116608084015260a081015160a084015260c081015160c084015260e081015160e0840152610100810151610100840152610120810151610120840152610140810151610140840152610160810151151561016084015201511515610180820152f35b346101d25760203660031901126101d2576004356006548110156101d257611d50602091612ea1565b90546040519160031b1c8152f35b346101d25760203660031901126101d2576101206001600160a01b0380611d83612906565b165f52600160205260ff60405f209182541691600181015490600281015460038201546004830154906005840154926007600686015495015495604051988952602089015260408801526060870152608086015260a085015260c0840152818116151560e084015260081c161515610100820152f35b346101d25760203660031901126101d2576004356005548110156101d2576001600160a01b03611e2a602092612e6c565b9190546040519260031b1c168152f35b346101d2575f3660031901126101d257611e526133ba565b5f6001600160a01b0381546001600160a01b031981168355167f8be0079c531659141344cd1fd0a4f28419497f9722a3daafe3b4186f6b6457e08280a3005b346101d2575f3660031901126101d2576020600a54604051908152f35b346101d25760403660031901126101d25760e0611ec961291c565b6004355f52600260205260405f206001600160a01b038092165f5260205260ff60405f20828154169260018201541690600281015460038201549060056004840154930154936040519687526020870152604086015260608501526080840152818116151560a084015260081c16151560c0820152f35b346101d2576101203660031901126101d257600435611f5d61291c565b9060e03660431901126101d257604051611f7681612946565b6001600160a01b0360443581811681036101d25782526064359181831683036101d25761207b6120d9927f3a0091095ad7b29aa252cfbfa7b6f976ffdd9ba533109963576b21ab7464342594602084019081526104c96005604086019360843585526060870160a4358152608088019060c4358252611ff3612c34565b9660a08a01978852612003612c43565b9660c08b019788526120136133ba565b8d5f5260026020528460405f209f169e8f5f5260205260405f2094808c5116906001600160a01b0319918288541617875560018701925116908254161790555160028401555160038301555160048201550192511515839060ff801983541691151516179055565b6040519182918291909160c08060e08301946001600160a01b03808251168552602082015116602085015260408101516040850152606081015160608501526080810151608085015260a0810151151560a085015201511515910152565b0390a3005b346101d25760203660031901126101d2576004355f52600360205260405f2080546001600160a01b0391826001820154169260028201541661212260038301612cc4565b9161216b61216060ff60138401541694601560148501549401549460405198899889526020890152604088015260e0606088015260e0870190612b60565b936080860190612c27565b60a084015260c08301520390f35b346101d2575f3660031901126101d2576020600854604051908152f35b346101d25760403660031901126101d257602060405160608152f35b346101d25760206121ce6121c536612c53565b92919091612f6f565b604051908152f35b346101d25760203660031901126101d2576004358015158091036101d2576121fc6133ba565b60ff8019600c5416911617600c5542600b555f80f35b346101d2576020806003193601126101d2576040519061223182612946565b5f82525f818301525f60408301525f60c06040519361224f8561297f565b82855282848601528260408601528260608601528260808601528260a0860152828286015261227c612ed6565b60e0860152610100946060868201528361012082015260608201528260808201528260a082015201526004355f526003815260405f2091604051926122c084612946565b805484526001600160a01b039182600183015416918486019283528360028201541691604087019283526122f660038301612cc4565b906060880191825260ff601384015416916080890196600584101561157457899581601561237397612367978c5260a060148201549a01998a5201549860c08d01998a528b6040519d8e9d8e5251908d0152511660408b015251166060890152519060e06080890152870190612b60565b935160a0860190612c27565b5160c08401525160e08301520390f35b346101d2575f3660031901126101d257610100600d54600e54600f54601054601154601254916013549360ff6014541695604051978852602088015260408701526060860152608085015260a084015260c0830152151560e0820152f35b346101d2575f3660031901126101d257600854600954600a549190811561243a5760648102928184046064148215171561148f5761242183608095612f51565b915b604051938452602084015260408301526060820152f35b6080925f91612423565b346101d2575f3660031901126101d257602060ff600c54166040519015158152f35b346101d25760203660031901126101d25760043567ffffffffffffffff81116101d2576124979036906004016129db565b50602060405166071afd498d00008152f35b346101d25760a03660031901126101d2576124c2612906565b6124ca61291c565b9061251e602060843580936124dd612ed6565b50604051633a77421d60e21b81526001600160a01b039182166004820152908616602482015260648035604483015281019190915291829081906084820190565b0381305afa9081156108cf575f916128e7575b5015611943575f5260026020526001600160a01b0360405f2091165f5260205260405f2060c060ff60056040519361256885612946565b6001600160a01b0381541685526001600160a01b0360018201541660208601526002810154604086015260038101546060860152600481015460808601520154818116151560a085015260081c1615159101525f6001600160a01b036125cc612e26565b90549060031b1c16905f19905f90600554915b82811061278b57846001600160a01b036125fb86600d54612f24565b91165f52600160205260405f2060405161261481612962565b6001600160a01b038254168152600182015461268b602083019180835260028501549060408501948286526003870154606082015261010060ff600760048a015499608085019a8b52600581015460a0860152600681015460c08601520154818116151560e085015260081c161515910152612f31565b9251815190929015612782575160648102908082046064149015171561148f576126b6915190612f51565b603281111561277a57603119810190811161148f5760648102908082046064149015171561148f5760329004905b66071afd498d0000928484019485851161148f5760e095603c60115404916040519661270f88612946565b8752602087015260408601526060850152608084015260a083015260c0820152612778604051809260c08091805184526020810151602085015260408101516040850152606081015160608501526080810151608085015260a081015160a08501520151910152565bf35b505f906126e4565b505060646126b6565b6001600160a01b0361279c82612e6c565b90549060031b1c165f52600160205260405f206040516127bb81612962565b6001600160a01b038254168152600182015480602083015260028301549081604084015260038401549260608101938452600760048601549560808301968752600581015460a0840152600681015460c084015201549060ff82161560ff8115938460e085015260081c1615916101008315910152916128df575b506128d3579061284591612f31565b9060443582106128c85761287091683635c9adc5dea0000061271061182b6118369451604435612f3e565b83811180156128b5575b61288b575b50506001905b016125df565b92509450925060016001600160a01b036128a485612e6c565b90549060031b1c169493908661287f565b50838114801561287a575085821061287a565b505050600190612885565b50505050600190612885565b90508a612836565b612900915060203d6020116119955761198781836129b9565b83612531565b600435906001600160a01b03821682036101d257565b602435906001600160a01b03821682036101d257565b35906001600160a01b03821682036101d257565b60e0810190811067ffffffffffffffff82111761055357604052565b610120810190811067ffffffffffffffff82111761055357604052565b610140810190811067ffffffffffffffff82111761055357604052565b6101a0810190811067ffffffffffffffff82111761055357604052565b90601f8019910116810190811067ffffffffffffffff82111761055357604052565b91909180830361020081126101d2576040908151926129f98461297f565b8395612a0482612932565b855260e0602093612a16858501612932565b85880152612a25868501612932565b86880152606084013560608801526080840135608088015260a084013560a088015260c084013560c088015260df1901126101d257835193612a6685612946565b60e083013585526101009081840135858701526101209586850135828201526101408501356060820152610160850135608082015261018085013560a08201526101a085013560c082015260e08801526101c08401359467ffffffffffffffff958681116101d25785019184601f840112156101d2578235968711610553575193612afa601f8801601f19168301866129b9565b8685528187840101116101d257856101e096825f940183870137840101528501520135910152565b91908251928382525f5b848110612b4c575050825f602080949584010152601f8019910116010190565b602081830181015184830182015201612b2c565b906101e0610120612c1e6102006001600160a01b038087511686528060208801511660208701526040870151166040860152606086015160608601526080860151608086015260a086015160a086015260c086015160c0860152612c0860e087015160e087019060c08091805184526020810151602085015260408101516040850152606081015160608501526080810151608085015260a081015160a08501520151910152565b61010086015190806101c0870152850190612b22565b93015191015290565b9060058210156115745752565b60e4359081151582036101d257565b610104359081151582036101d257565b60809060031901126101d2576001600160a01b039060043582811681036101d2579160243590811681036101d257906044359060643590565b90600182811c92168015612cba575b6020831014612ca657565b634e487b7160e01b5f52602260045260245ffd5b91607f1691612c9b565b90604051612cd18161297f565b80926001600160a01b03808254168352600181600184015416916020928386015260028401541660408501526003830154606085015260048301546080850152600583015460a0850152600683015460c0850152604051612d3181612946565b6007840154815260088401548382015260098401546040820152600a8401546060820152600b8401546080820152600c84015460a0820152600d84015460c082015260e0850152600e830191604051925f92815491612d8f83612c8c565b8087529260018116908115612e045750600114612dcb575b505050509181612dbe600f936101209503826129b9565b6101008501520154910152565b5f908152838120939450925b828410612df15750505082010181612dbe81610120612da7565b8054868501860152928401928101612dd7565b60ff191685880152505050151560051b830101905081612dbe81610120612da7565b60055415612e585760055f527f036b6384b5eca791c62761152d0c79bb0604c104a5fb6f4eb0703f3154bb3db0905f90565b634e487b7160e01b5f52603260045260245ffd5b600554811015612e585760055f527f036b6384b5eca791c62761152d0c79bb0604c104a5fb6f4eb0703f3154bb3db001905f90565b600654811015612e585760065f527ff652222313e28459528d920b65115c16c04f3efc82aaedc97be59f3f377c0d3f01905f90565b60405190612ee382612946565b5f60c0838281528260208201528260408201528260608201528260808201528260a08201520152565b908160209103126101d2575180151581036101d25790565b9190820180921161148f57565b9190820391821161148f57565b8181029291811591840414171561148f57565b8115612f5b570490565b634e487b7160e01b5f52601260045260245ffd5b60408051633a77421d60e21b81526001600160a01b03928316600480830191909152939092166024830152604482019390935260648101939093526020929091908381608481305afa9081156108cf575f916130ab575b50156130a4575f925f9260058054945b858110612fe65750505050505090565b612fef81612e6c565b906001600160a01b03809154600393841b1c165f526001908187526007885f209289519261301c84612962565b8454168352830154928389840152600281015494858b85015281015460608401528781015460808401528681015460a0840152600681015460c084015201549061010060ff8084161515938460e085015260081c161515910152613085575b5050600101612fd6565b9761309661309c926001949a612f31565b90612f24565b96905f61307b565b5050505f90565b6130c4915060203d6020116119955761198781836129b9565b5f612fc6565b5f19811461148f5760010190565b60408051633a77421d60e21b81526001600160a01b0383166004820181905260248201526044810184905260648101859052909391926020918281608481305afa9081156132a6575f91613289575b501561327e578190835f5260028252855f20946001600160a01b03958682165f528352865f209587519061315a82612946565b8088541682526001880154168482015260c060ff600560028a0154998b85019a8b5260038101546060860152600481015460808601520154818116151560a085015260081c161515910152613200875195869384937f3542284b0000000000000000000000000000000000000000000000000000000085528060048601909260609295949360808301966001600160a01b03809216845216602083015260408201520152565b0381305afa93841561327557505f93613245575b5050518082101561323e57505b601054808210156132365750905b600f549190565b90509061322f565b9050613221565b9080929350813d831161326e575b61325d81836129b9565b810103126101d25751905f80613214565b503d613253565b513d5f823e3d90fd5b50505050505f905f90565b6132a09150833d85116119955761198781836129b9565b5f613127565b86513d5f823e3d90fd5b92916001600160a01b03808093169416908482036133b15760c09460ff926005925f5260209160028352604091825f20905f528352815f209685898685519a6132f88c612946565b8a8154168c528a600182015416888d01526002810154878d0152600381015460608d0152600481015460808d0152015499828b16151560a0820152019860081c16151588525f5260028352815f20905f528252805f209181519561335b87612946565b8084541687526001840154169086015260028201549085015260038101546060850152600481015460808501520154818116151560a084015260081c161515928391015251151590816133ac575090565b905090565b50505050505f90565b6001600160a01b035f541633036133cd57565b60246040517f118cdaa7000000000000000000000000000000000000000000000000000000008152336004820152fdfea164736f6c6343000818000af5bfa79321a657aaa0339aa7944ec820e285a16766fc7a85e446ff3fdf2081b4036b6384b5eca791c62761152d0c79bb0604c104a5fb6f4eb0703f3154bb3db02af04f721798314fc694a46b3db9f8005ee5d928ceb0c93e438e01e3ac240ed4e11a92942536b845da9a1f431f37793176a4b22e5871c079dbb83bc320163350","linkReferences":{}},"methodIdentifiers":{"activeRouters(uint256)":"73a1bff5","assetConfigs(uint256,address)":"5193ff1e","bridgeConfig()":"235e5199","connextTransfers(bytes32)":"e20d423d","emergencyWithdraw(address,uint256)":"95ccea67","estimateGas((address,address,address,uint256,uint256,uint256,uint256,(uint256,uint256,uint256,uint256,uint256,uint256,uint256),bytes,uint256))":"1d635756","executeBridge((address,address,address,uint256,uint256,uint256,uint256,(uint256,uint256,uint256,uint256,uint256,uint256,uint256),bytes,uint256),address,bytes)":"8f20a7f7","getActiveRouters()":"d3db5803","getAssetConfig(uint256,address)":"99b595e4","getAvailableLiquidity(address,address,uint256,uint256)":"3542284b","getBridgeName()":"b8b2233d","getBridgeStats()":"2165cbb7","getConnextTransfer(bytes32)":"82efb361","getRouteMetrics(address,address,uint256,uint256,uint256)":"15a3d37a","getRouter(address)":"8369166d","getSuccessRate(uint256,uint256)":"390f4185","getTransfer(bytes32)":"260958a5","getTransferLimits(address,uint256,uint256)":"d51aa0cb","healthyStatus()":"1e04a56f","isHealthy()":"e4020804","lastHealthCheck()":"9ce3f4b2","owner()":"8da5cb5b","renounceOwnership()":"715018a6","routers(address)":"80dd9a1f","successfulTransfers()":"f9e5051a","supportsRoute(address,address,uint256,uint256)":"e9dd0874","totalTransfers()":"3bf47720","totalVolume()":"5f81a57c","transferHistory(uint256)":"816c99de","transferNonce()":"b8ed12a4","transferOwnership(address)":"f2fde38b","transfers(bytes32)":"3c64f04b","updateAssetConfig(uint256,address,(address,address,uint256,uint256,uint256,bool,bool))":"3e119a15","updateConfig((uint256,uint256,uint256,uint256,uint256,uint256,uint256,bool))":"93d9a1e6","updateHealthStatus(bool)":"26c35644","updateRouter(address,(address,uint256,uint256,uint256,uint256,uint256,uint256,bool,bool))":"d9109393","updateRouterLiquidity(address,uint256)":"c764c368"}}}}}