{"src/adapters/AcrossAdapter.sol":{"AcrossAdapter":{"abi":[{"type":"constructor","inputs":[],"stateMutability":"nonpayable"},{"type":"receive","stateMutability":"payable"},{"type":"function","name":"activeRelayers","inputs":[{"name":"","type":"uint256","internalType":"uint256"}],"outputs":[{"name":"","type":"address","internalType":"address"}],"stateMutability":"view"},{"type":"function","name":"addLiquidity","inputs":[{"name":"chainId","type":"uint256","internalType":"uint256"},{"name":"token","type":"address","internalType":"address"},{"name":"amount","type":"uint256","internalType":"uint256"}],"outputs":[],"stateMutability":"nonpayable"},{"type":"function","name":"config","inputs":[],"outputs":[{"name":"baseFee","type":"uint256","internalType":"uint256"},{"name":"feePercentage","type":"uint256","internalType":"uint256"},{"name":"minTransferAmount","type":"uint256","internalType":"uint256"},{"name":"maxTransferAmount","type":"uint256","internalType":"uint256"},{"name":"avgCompletionTime","type":"uint256","internalType":"uint256"},{"name":"disputePeriod","type":"uint256","internalType":"uint256"},{"name":"minRelayerStake","type":"uint256","internalType":"uint256"},{"name":"isActive","type":"bool","internalType":"bool"}],"stateMutability":"view"},{"type":"function","name":"emergencyWithdraw","inputs":[{"name":"token","type":"address","internalType":"address"},{"name":"amount","type":"uint256","internalType":"uint256"}],"outputs":[],"stateMutability":"nonpayable"},{"type":"function","name":"estimateGas","inputs":[{"name":"route","type":"tuple","internalType":"struct IBridgeAdapter.Route","components":[{"name":"adapter","type":"address","internalType":"address"},{"name":"tokenIn","type":"address","internalType":"address"},{"name":"tokenOut","type":"address","internalType":"address"},{"name":"amountIn","type":"uint256","internalType":"uint256"},{"name":"amountOut","type":"uint256","internalType":"uint256"},{"name":"srcChainId","type":"uint256","internalType":"uint256"},{"name":"dstChainId","type":"uint256","internalType":"uint256"},{"name":"metrics","type":"tuple","internalType":"struct IBridgeAdapter.RouteMetrics","components":[{"name":"estimatedGasCost","type":"uint256","internalType":"uint256"},{"name":"bridgeFee","type":"uint256","internalType":"uint256"},{"name":"totalCostWei","type":"uint256","internalType":"uint256"},{"name":"estimatedTimeMinutes","type":"uint256","internalType":"uint256"},{"name":"liquidityAvailable","type":"uint256","internalType":"uint256"},{"name":"successRate","type":"uint256","internalType":"uint256"},{"name":"congestionLevel","type":"uint256","internalType":"uint256"}]},{"name":"adapterData","type":"bytes","internalType":"bytes"},{"name":"deadline","type":"uint256","internalType":"uint256"}]}],"outputs":[{"name":"gasEstimate","type":"uint256","internalType":"uint256"}],"stateMutability":"view"},{"type":"function","name":"executeBridge","inputs":[{"name":"route","type":"tuple","internalType":"struct IBridgeAdapter.Route","components":[{"name":"adapter","type":"address","internalType":"address"},{"name":"tokenIn","type":"address","internalType":"address"},{"name":"tokenOut","type":"address","internalType":"address"},{"name":"amountIn","type":"uint256","internalType":"uint256"},{"name":"amountOut","type":"uint256","internalType":"uint256"},{"name":"srcChainId","type":"uint256","internalType":"uint256"},{"name":"dstChainId","type":"uint256","internalType":"uint256"},{"name":"metrics","type":"tuple","internalType":"struct IBridgeAdapter.RouteMetrics","components":[{"name":"estimatedGasCost","type":"uint256","internalType":"uint256"},{"name":"bridgeFee","type":"uint256","internalType":"uint256"},{"name":"totalCostWei","type":"uint256","internalType":"uint256"},{"name":"estimatedTimeMinutes","type":"uint256","internalType":"uint256"},{"name":"liquidityAvailable","type":"uint256","internalType":"uint256"},{"name":"successRate","type":"uint256","internalType":"uint256"},{"name":"congestionLevel","type":"uint256","internalType":"uint256"}]},{"name":"adapterData","type":"bytes","internalType":"bytes"},{"name":"deadline","type":"uint256","internalType":"uint256"}]},{"name":"recipient","type":"address","internalType":"address"},{"name":"permitData","type":"bytes","internalType":"bytes"}],"outputs":[{"name":"transferId","type":"bytes32","internalType":"bytes32"}],"stateMutability":"payable"},{"type":"function","name":"getAvailableLiquidity","inputs":[{"name":"tokenIn","type":"address","internalType":"address"},{"name":"tokenOut","type":"address","internalType":"address"},{"name":"srcChainId","type":"uint256","internalType":"uint256"},{"name":"dstChainId","type":"uint256","internalType":"uint256"}],"outputs":[{"name":"liquidity","type":"uint256","internalType":"uint256"}],"stateMutability":"view"},{"type":"function","name":"getBridgeName","inputs":[],"outputs":[{"name":"","type":"string","internalType":"string"}],"stateMutability":"pure"},{"type":"function","name":"getBridgeStats","inputs":[],"outputs":[{"name":"_totalTransfers","type":"uint256","internalType":"uint256"},{"name":"_successfulTransfers","type":"uint256","internalType":"uint256"},{"name":"_totalVolume","type":"uint256","internalType":"uint256"},{"name":"_successRate","type":"uint256","internalType":"uint256"}],"stateMutability":"view"},{"type":"function","name":"getLiquidityPool","inputs":[{"name":"chainId","type":"uint256","internalType":"uint256"},{"name":"token","type":"address","internalType":"address"}],"outputs":[{"name":"pool","type":"tuple","internalType":"struct AcrossAdapter.LiquidityPool","components":[{"name":"token","type":"address","internalType":"address"},{"name":"totalLiquidity","type":"uint256","internalType":"uint256"},{"name":"utilizedLiquidity","type":"uint256","internalType":"uint256"},{"name":"utilizationRate","type":"uint256","internalType":"uint256"},{"name":"lpFeeRate","type":"uint256","internalType":"uint256"},{"name":"relayerFeeRate","type":"uint256","internalType":"uint256"},{"name":"isActive","type":"bool","internalType":"bool"}]}],"stateMutability":"view"},{"type":"function","name":"getRelayRequest","inputs":[{"name":"transferId","type":"bytes32","internalType":"bytes32"}],"outputs":[{"name":"request","type":"tuple","internalType":"struct AcrossAdapter.RelayRequest","components":[{"name":"transferId","type":"bytes32","internalType":"bytes32"},{"name":"sender","type":"address","internalType":"address"},{"name":"recipient","type":"address","internalType":"address"},{"name":"token","type":"address","internalType":"address"},{"name":"amount","type":"uint256","internalType":"uint256"},{"name":"originChainId","type":"uint256","internalType":"uint256"},{"name":"destinationChainId","type":"uint256","internalType":"uint256"},{"name":"relayerFee","type":"uint256","internalType":"uint256"},{"name":"lpFee","type":"uint256","internalType":"uint256"},{"name":"timestamp","type":"uint256","internalType":"uint256"},{"name":"assignedRelayer","type":"address","internalType":"address"},{"name":"isRelayed","type":"bool","internalType":"bool"},{"name":"isDisputed","type":"bool","internalType":"bool"}]}],"stateMutability":"view"},{"type":"function","name":"getRelayer","inputs":[{"name":"relayerAddress","type":"address","internalType":"address"}],"outputs":[{"name":"relayer","type":"tuple","internalType":"struct AcrossAdapter.Relayer","components":[{"name":"relayerAddress","type":"address","internalType":"address"},{"name":"stake","type":"uint256","internalType":"uint256"},{"name":"reputation","type":"uint256","internalType":"uint256"},{"name":"successfulRelays","type":"uint256","internalType":"uint256"},{"name":"totalRelays","type":"uint256","internalType":"uint256"},{"name":"isActive","type":"bool","internalType":"bool"}]}],"stateMutability":"view"},{"type":"function","name":"getRouteMetrics","inputs":[{"name":"tokenIn","type":"address","internalType":"address"},{"name":"tokenOut","type":"address","internalType":"address"},{"name":"amount","type":"uint256","internalType":"uint256"},{"name":"srcChainId","type":"uint256","internalType":"uint256"},{"name":"dstChainId","type":"uint256","internalType":"uint256"}],"outputs":[{"name":"metrics","type":"tuple","internalType":"struct IBridgeAdapter.RouteMetrics","components":[{"name":"estimatedGasCost","type":"uint256","internalType":"uint256"},{"name":"bridgeFee","type":"uint256","internalType":"uint256"},{"name":"totalCostWei","type":"uint256","internalType":"uint256"},{"name":"estimatedTimeMinutes","type":"uint256","internalType":"uint256"},{"name":"liquidityAvailable","type":"uint256","internalType":"uint256"},{"name":"successRate","type":"uint256","internalType":"uint256"},{"name":"congestionLevel","type":"uint256","internalType":"uint256"}]}],"stateMutability":"view"},{"type":"function","name":"getSuccessRate","inputs":[{"name":"srcChainId","type":"uint256","internalType":"uint256"},{"name":"dstChainId","type":"uint256","internalType":"uint256"}],"outputs":[{"name":"successRate","type":"uint256","internalType":"uint256"}],"stateMutability":"view"},{"type":"function","name":"getTransfer","inputs":[{"name":"transferId","type":"bytes32","internalType":"bytes32"}],"outputs":[{"name":"transfer","type":"tuple","internalType":"struct IBridgeAdapter.Transfer","components":[{"name":"transferId","type":"bytes32","internalType":"bytes32"},{"name":"sender","type":"address","internalType":"address"},{"name":"recipient","type":"address","internalType":"address"},{"name":"route","type":"tuple","internalType":"struct IBridgeAdapter.Route","components":[{"name":"adapter","type":"address","internalType":"address"},{"name":"tokenIn","type":"address","internalType":"address"},{"name":"tokenOut","type":"address","internalType":"address"},{"name":"amountIn","type":"uint256","internalType":"uint256"},{"name":"amountOut","type":"uint256","internalType":"uint256"},{"name":"srcChainId","type":"uint256","internalType":"uint256"},{"name":"dstChainId","type":"uint256","internalType":"uint256"},{"name":"metrics","type":"tuple","internalType":"struct IBridgeAdapter.RouteMetrics","components":[{"name":"estimatedGasCost","type":"uint256","internalType":"uint256"},{"name":"bridgeFee","type":"uint256","internalType":"uint256"},{"name":"totalCostWei","type":"uint256","internalType":"uint256"},{"name":"estimatedTimeMinutes","type":"uint256","internalType":"uint256"},{"name":"liquidityAvailable","type":"uint256","internalType":"uint256"},{"name":"successRate","type":"uint256","internalType":"uint256"},{"name":"congestionLevel","type":"uint256","internalType":"uint256"}]},{"name":"adapterData","type":"bytes","internalType":"bytes"},{"name":"deadline","type":"uint256","internalType":"uint256"}]},{"name":"status","type":"uint8","internalType":"enum IBridgeAdapter.TransferStatus"},{"name":"initiatedAt","type":"uint256","internalType":"uint256"},{"name":"completedAt","type":"uint256","internalType":"uint256"}]}],"stateMutability":"view"},{"type":"function","name":"getTransferLimits","inputs":[{"name":"token","type":"address","internalType":"address"},{"name":"srcChainId","type":"uint256","internalType":"uint256"},{"name":"dstChainId","type":"uint256","internalType":"uint256"}],"outputs":[{"name":"minAmount","type":"uint256","internalType":"uint256"},{"name":"maxAmount","type":"uint256","internalType":"uint256"}],"stateMutability":"view"},{"type":"function","name":"healthyStatus","inputs":[],"outputs":[{"name":"","type":"bool","internalType":"bool"}],"stateMutability":"view"},{"type":"function","name":"isHealthy","inputs":[],"outputs":[{"name":"healthy","type":"bool","internalType":"bool"}],"stateMutability":"view"},{"type":"function","name":"lastHealthCheck","inputs":[],"outputs":[{"name":"","type":"uint256","internalType":"uint256"}],"stateMutability":"view"},{"type":"function","name":"liquidityPools","inputs":[{"name":"","type":"uint256","internalType":"uint256"},{"name":"","type":"address","internalType":"address"}],"outputs":[{"name":"token","type":"address","internalType":"address"},{"name":"totalLiquidity","type":"uint256","internalType":"uint256"},{"name":"utilizedLiquidity","type":"uint256","internalType":"uint256"},{"name":"utilizationRate","type":"uint256","internalType":"uint256"},{"name":"lpFeeRate","type":"uint256","internalType":"uint256"},{"name":"relayerFeeRate","type":"uint256","internalType":"uint256"},{"name":"isActive","type":"bool","internalType":"bool"}],"stateMutability":"view"},{"type":"function","name":"owner","inputs":[],"outputs":[{"name":"","type":"address","internalType":"address"}],"stateMutability":"view"},{"type":"function","name":"registerRelayer","inputs":[{"name":"relayerAddress","type":"address","internalType":"address"},{"name":"stake","type":"uint256","internalType":"uint256"}],"outputs":[],"stateMutability":"nonpayable"},{"type":"function","name":"relayRequests","inputs":[{"name":"","type":"bytes32","internalType":"bytes32"}],"outputs":[{"name":"transferId","type":"bytes32","internalType":"bytes32"},{"name":"sender","type":"address","internalType":"address"},{"name":"recipient","type":"address","internalType":"address"},{"name":"token","type":"address","internalType":"address"},{"name":"amount","type":"uint256","internalType":"uint256"},{"name":"originChainId","type":"uint256","internalType":"uint256"},{"name":"destinationChainId","type":"uint256","internalType":"uint256"},{"name":"relayerFee","type":"uint256","internalType":"uint256"},{"name":"lpFee","type":"uint256","internalType":"uint256"},{"name":"timestamp","type":"uint256","internalType":"uint256"},{"name":"assignedRelayer","type":"address","internalType":"address"},{"name":"isRelayed","type":"bool","internalType":"bool"},{"name":"isDisputed","type":"bool","internalType":"bool"}],"stateMutability":"view"},{"type":"function","name":"relayers","inputs":[{"name":"","type":"address","internalType":"address"}],"outputs":[{"name":"relayerAddress","type":"address","internalType":"address"},{"name":"stake","type":"uint256","internalType":"uint256"},{"name":"reputation","type":"uint256","internalType":"uint256"},{"name":"successfulRelays","type":"uint256","internalType":"uint256"},{"name":"totalRelays","type":"uint256","internalType":"uint256"},{"name":"isActive","type":"bool","internalType":"bool"}],"stateMutability":"view"},{"type":"function","name":"renounceOwnership","inputs":[],"outputs":[],"stateMutability":"nonpayable"},{"type":"function","name":"successfulTransfers","inputs":[],"outputs":[{"name":"","type":"uint256","internalType":"uint256"}],"stateMutability":"view"},{"type":"function","name":"supportsRoute","inputs":[{"name":"tokenIn","type":"address","internalType":"address"},{"name":"tokenOut","type":"address","internalType":"address"},{"name":"srcChainId","type":"uint256","internalType":"uint256"},{"name":"dstChainId","type":"uint256","internalType":"uint256"}],"outputs":[{"name":"supported","type":"bool","internalType":"bool"}],"stateMutability":"view"},{"type":"function","name":"totalTransfers","inputs":[],"outputs":[{"name":"","type":"uint256","internalType":"uint256"}],"stateMutability":"view"},{"type":"function","name":"totalVolume","inputs":[],"outputs":[{"name":"","type":"uint256","internalType":"uint256"}],"stateMutability":"view"},{"type":"function","name":"transferHistory","inputs":[{"name":"","type":"uint256","internalType":"uint256"}],"outputs":[{"name":"","type":"bytes32","internalType":"bytes32"}],"stateMutability":"view"},{"type":"function","name":"transferOwnership","inputs":[{"name":"newOwner","type":"address","internalType":"address"}],"outputs":[],"stateMutability":"nonpayable"},{"type":"function","name":"transfers","inputs":[{"name":"","type":"bytes32","internalType":"bytes32"}],"outputs":[{"name":"transferId","type":"bytes32","internalType":"bytes32"},{"name":"sender","type":"address","internalType":"address"},{"name":"recipient","type":"address","internalType":"address"},{"name":"route","type":"tuple","internalType":"struct IBridgeAdapter.Route","components":[{"name":"adapter","type":"address","internalType":"address"},{"name":"tokenIn","type":"address","internalType":"address"},{"name":"tokenOut","type":"address","internalType":"address"},{"name":"amountIn","type":"uint256","internalType":"uint256"},{"name":"amountOut","type":"uint256","internalType":"uint256"},{"name":"srcChainId","type":"uint256","internalType":"uint256"},{"name":"dstChainId","type":"uint256","internalType":"uint256"},{"name":"metrics","type":"tuple","internalType":"struct IBridgeAdapter.RouteMetrics","components":[{"name":"estimatedGasCost","type":"uint256","internalType":"uint256"},{"name":"bridgeFee","type":"uint256","internalType":"uint256"},{"name":"totalCostWei","type":"uint256","internalType":"uint256"},{"name":"estimatedTimeMinutes","type":"uint256","internalType":"uint256"},{"name":"liquidityAvailable","type":"uint256","internalType":"uint256"},{"name":"successRate","type":"uint256","internalType":"uint256"},{"name":"congestionLevel","type":"uint256","internalType":"uint256"}]},{"name":"adapterData","type":"bytes","internalType":"bytes"},{"name":"deadline","type":"uint256","internalType":"uint256"}]},{"name":"status","type":"uint8","internalType":"enum IBridgeAdapter.TransferStatus"},{"name":"initiatedAt","type":"uint256","internalType":"uint256"},{"name":"completedAt","type":"uint256","internalType":"uint256"}],"stateMutability":"view"},{"type":"function","name":"updateConfig","inputs":[{"name":"newConfig","type":"tuple","internalType":"struct AcrossAdapter.BridgeConfig","components":[{"name":"baseFee","type":"uint256","internalType":"uint256"},{"name":"feePercentage","type":"uint256","internalType":"uint256"},{"name":"minTransferAmount","type":"uint256","internalType":"uint256"},{"name":"maxTransferAmount","type":"uint256","internalType":"uint256"},{"name":"avgCompletionTime","type":"uint256","internalType":"uint256"},{"name":"disputePeriod","type":"uint256","internalType":"uint256"},{"name":"minRelayerStake","type":"uint256","internalType":"uint256"},{"name":"isActive","type":"bool","internalType":"bool"}]}],"outputs":[],"stateMutability":"nonpayable"},{"type":"function","name":"updateHealthStatus","inputs":[{"name":"healthy","type":"bool","internalType":"bool"}],"outputs":[],"stateMutability":"nonpayable"},{"type":"event","name":"LiquidityAdded","inputs":[{"name":"chainId","type":"uint256","indexed":true,"internalType":"uint256"},{"name":"token","type":"address","indexed":true,"internalType":"address"},{"name":"amount","type":"uint256","indexed":false,"internalType":"uint256"}],"anonymous":false},{"type":"event","name":"OwnershipTransferred","inputs":[{"name":"previousOwner","type":"address","indexed":true,"internalType":"address"},{"name":"newOwner","type":"address","indexed":true,"internalType":"address"}],"anonymous":false},{"type":"event","name":"RelayCompleted","inputs":[{"name":"transferId","type":"bytes32","indexed":true,"internalType":"bytes32"},{"name":"relayer","type":"address","indexed":true,"internalType":"address"}],"anonymous":false},{"type":"event","name":"RelayDisputed","inputs":[{"name":"transferId","type":"bytes32","indexed":true,"internalType":"bytes32"},{"name":"challenger","type":"address","indexed":true,"internalType":"address"}],"anonymous":false},{"type":"event","name":"RelayRequested","inputs":[{"name":"transferId","type":"bytes32","indexed":true,"internalType":"bytes32"},{"name":"relayer","type":"address","indexed":true,"internalType":"address"},{"name":"fee","type":"uint256","indexed":false,"internalType":"uint256"}],"anonymous":false},{"type":"event","name":"RelayerRegistered","inputs":[{"name":"relayer","type":"address","indexed":true,"internalType":"address"},{"name":"stake","type":"uint256","indexed":false,"internalType":"uint256"}],"anonymous":false},{"type":"event","name":"TransferCompleted","inputs":[{"name":"transferId","type":"bytes32","indexed":true,"internalType":"bytes32"},{"name":"actualAmountOut","type":"uint256","indexed":false,"internalType":"uint256"},{"name":"actualCost","type":"uint256","indexed":false,"internalType":"uint256"},{"name":"actualTime","type":"uint256","indexed":false,"internalType":"uint256"}],"anonymous":false},{"type":"event","name":"TransferFailed","inputs":[{"name":"transferId","type":"bytes32","indexed":true,"internalType":"bytes32"},{"name":"reason","type":"string","indexed":false,"internalType":"string"}],"anonymous":false},{"type":"event","name":"TransferInitiated","inputs":[{"name":"transferId","type":"bytes32","indexed":true,"internalType":"bytes32"},{"name":"sender","type":"address","indexed":true,"internalType":"address"},{"name":"recipient","type":"address","indexed":true,"internalType":"address"},{"name":"route","type":"tuple","indexed":false,"internalType":"struct IBridgeAdapter.Route","components":[{"name":"adapter","type":"address","internalType":"address"},{"name":"tokenIn","type":"address","internalType":"address"},{"name":"tokenOut","type":"address","internalType":"address"},{"name":"amountIn","type":"uint256","internalType":"uint256"},{"name":"amountOut","type":"uint256","internalType":"uint256"},{"name":"srcChainId","type":"uint256","internalType":"uint256"},{"name":"dstChainId","type":"uint256","internalType":"uint256"},{"name":"metrics","type":"tuple","internalType":"struct IBridgeAdapter.RouteMetrics","components":[{"name":"estimatedGasCost","type":"uint256","internalType":"uint256"},{"name":"bridgeFee","type":"uint256","internalType":"uint256"},{"name":"totalCostWei","type":"uint256","internalType":"uint256"},{"name":"estimatedTimeMinutes","type":"uint256","internalType":"uint256"},{"name":"liquidityAvailable","type":"uint256","internalType":"uint256"},{"name":"successRate","type":"uint256","internalType":"uint256"},{"name":"congestionLevel","type":"uint256","internalType":"uint256"}]},{"name":"adapterData","type":"bytes","internalType":"bytes"},{"name":"deadline","type":"uint256","internalType":"uint256"}]}],"anonymous":false},{"type":"error","name":"BridgeInactive","inputs":[]},{"type":"error","name":"DisputePeriodExpired","inputs":[]},{"type":"error","name":"InsufficientLiquidity","inputs":[]},{"type":"error","name":"InsufficientRelayerStake","inputs":[]},{"type":"error","name":"NoActiveRelayers","inputs":[]},{"type":"error","name":"OwnableInvalidOwner","inputs":[{"name":"owner","type":"address","internalType":"address"}]},{"type":"error","name":"OwnableUnauthorizedAccount","inputs":[{"name":"account","type":"address","internalType":"address"}]},{"type":"error","name":"ReentrancyGuardReentrantCall","inputs":[]},{"type":"error","name":"RelayAlreadyCompleted","inputs":[]},{"type":"error","name":"SafeERC20FailedOperation","inputs":[{"name":"token","type":"address","internalType":"address"}]},{"type":"error","name":"TransferAmountTooHigh","inputs":[]},{"type":"error","name":"TransferAmountTooLow","inputs":[]},{"type":"error","name":"UnsupportedRoute","inputs":[]}],"userdoc":{},"devdoc":{},"storageLayout":{"storage":[{"astId":35921,"contract":"src/adapters/AcrossAdapter.sol:AcrossAdapter","label":"_owner","offset":0,"slot":"0","type":"t_address"},{"astId":37667,"contract":"src/adapters/AcrossAdapter.sol:AcrossAdapter","label":"liquidityPools","offset":0,"slot":"1","type":"t_mapping(t_uint256,t_mapping(t_address,t_struct(LiquidityPool)37618_storage))"},{"astId":37672,"contract":"src/adapters/AcrossAdapter.sol:AcrossAdapter","label":"relayers","offset":0,"slot":"2","type":"t_mapping(t_address,t_struct(Relayer)37632_storage)"},{"astId":37677,"contract":"src/adapters/AcrossAdapter.sol:AcrossAdapter","label":"transfers","offset":0,"slot":"3","type":"t_mapping(t_bytes32,t_struct(Transfer)49040_storage)"},{"astId":37682,"contract":"src/adapters/AcrossAdapter.sol:AcrossAdapter","label":"relayRequests","offset":0,"slot":"4","type":"t_mapping(t_bytes32,t_struct(RelayRequest)37660_storage)"},{"astId":37685,"contract":"src/adapters/AcrossAdapter.sol:AcrossAdapter","label":"activeRelayers","offset":0,"slot":"5","type":"t_array(t_address)dyn_storage"},{"astId":37688,"contract":"src/adapters/AcrossAdapter.sol:AcrossAdapter","label":"transferHistory","offset":0,"slot":"6","type":"t_array(t_bytes32)dyn_storage"},{"astId":37690,"contract":"src/adapters/AcrossAdapter.sol:AcrossAdapter","label":"totalTransfers","offset":0,"slot":"7","type":"t_uint256"},{"astId":37692,"contract":"src/adapters/AcrossAdapter.sol:AcrossAdapter","label":"successfulTransfers","offset":0,"slot":"8","type":"t_uint256"},{"astId":37694,"contract":"src/adapters/AcrossAdapter.sol:AcrossAdapter","label":"totalVolume","offset":0,"slot":"9","type":"t_uint256"},{"astId":37696,"contract":"src/adapters/AcrossAdapter.sol:AcrossAdapter","label":"lastHealthCheck","offset":0,"slot":"10","type":"t_uint256"},{"astId":37699,"contract":"src/adapters/AcrossAdapter.sol:AcrossAdapter","label":"healthyStatus","offset":0,"slot":"11","type":"t_bool"},{"astId":37720,"contract":"src/adapters/AcrossAdapter.sol:AcrossAdapter","label":"config","offset":0,"slot":"12","type":"t_struct(BridgeConfig)37717_storage"}],"types":{"t_address":{"encoding":"inplace","label":"address","numberOfBytes":"20"},"t_array(t_address)dyn_storage":{"encoding":"dynamic_array","label":"address[]","numberOfBytes":"32","base":"t_address"},"t_array(t_bytes32)dyn_storage":{"encoding":"dynamic_array","label":"bytes32[]","numberOfBytes":"32","base":"t_bytes32"},"t_bool":{"encoding":"inplace","label":"bool","numberOfBytes":"1"},"t_bytes32":{"encoding":"inplace","label":"bytes32","numberOfBytes":"32"},"t_bytes_storage":{"encoding":"bytes","label":"bytes","numberOfBytes":"32"},"t_enum(TransferStatus)49022":{"encoding":"inplace","label":"enum IBridgeAdapter.TransferStatus","numberOfBytes":"1"},"t_mapping(t_address,t_struct(LiquidityPool)37618_storage)":{"encoding":"mapping","key":"t_address","label":"mapping(address => struct AcrossAdapter.LiquidityPool)","numberOfBytes":"32","value":"t_struct(LiquidityPool)37618_storage"},"t_mapping(t_address,t_struct(Relayer)37632_storage)":{"encoding":"mapping","key":"t_address","label":"mapping(address => struct AcrossAdapter.Relayer)","numberOfBytes":"32","value":"t_struct(Relayer)37632_storage"},"t_mapping(t_bytes32,t_struct(RelayRequest)37660_storage)":{"encoding":"mapping","key":"t_bytes32","label":"mapping(bytes32 => struct AcrossAdapter.RelayRequest)","numberOfBytes":"32","value":"t_struct(RelayRequest)37660_storage"},"t_mapping(t_bytes32,t_struct(Transfer)49040_storage)":{"encoding":"mapping","key":"t_bytes32","label":"mapping(bytes32 => struct IBridgeAdapter.Transfer)","numberOfBytes":"32","value":"t_struct(Transfer)49040_storage"},"t_mapping(t_uint256,t_mapping(t_address,t_struct(LiquidityPool)37618_storage))":{"encoding":"mapping","key":"t_uint256","label":"mapping(uint256 => mapping(address => struct AcrossAdapter.LiquidityPool))","numberOfBytes":"32","value":"t_mapping(t_address,t_struct(LiquidityPool)37618_storage)"},"t_struct(BridgeConfig)37717_storage":{"encoding":"inplace","label":"struct AcrossAdapter.BridgeConfig","numberOfBytes":"256","members":[{"astId":37702,"contract":"src/adapters/AcrossAdapter.sol:AcrossAdapter","label":"baseFee","offset":0,"slot":"0","type":"t_uint256"},{"astId":37704,"contract":"src/adapters/AcrossAdapter.sol:AcrossAdapter","label":"feePercentage","offset":0,"slot":"1","type":"t_uint256"},{"astId":37706,"contract":"src/adapters/AcrossAdapter.sol:AcrossAdapter","label":"minTransferAmount","offset":0,"slot":"2","type":"t_uint256"},{"astId":37708,"contract":"src/adapters/AcrossAdapter.sol:AcrossAdapter","label":"maxTransferAmount","offset":0,"slot":"3","type":"t_uint256"},{"astId":37710,"contract":"src/adapters/AcrossAdapter.sol:AcrossAdapter","label":"avgCompletionTime","offset":0,"slot":"4","type":"t_uint256"},{"astId":37712,"contract":"src/adapters/AcrossAdapter.sol:AcrossAdapter","label":"disputePeriod","offset":0,"slot":"5","type":"t_uint256"},{"astId":37714,"contract":"src/adapters/AcrossAdapter.sol:AcrossAdapter","label":"minRelayerStake","offset":0,"slot":"6","type":"t_uint256"},{"astId":37716,"contract":"src/adapters/AcrossAdapter.sol:AcrossAdapter","label":"isActive","offset":0,"slot":"7","type":"t_bool"}]},"t_struct(LiquidityPool)37618_storage":{"encoding":"inplace","label":"struct AcrossAdapter.LiquidityPool","numberOfBytes":"224","members":[{"astId":37605,"contract":"src/adapters/AcrossAdapter.sol:AcrossAdapter","label":"token","offset":0,"slot":"0","type":"t_address"},{"astId":37607,"contract":"src/adapters/AcrossAdapter.sol:AcrossAdapter","label":"totalLiquidity","offset":0,"slot":"1","type":"t_uint256"},{"astId":37609,"contract":"src/adapters/AcrossAdapter.sol:AcrossAdapter","label":"utilizedLiquidity","offset":0,"slot":"2","type":"t_uint256"},{"astId":37611,"contract":"src/adapters/AcrossAdapter.sol:AcrossAdapter","label":"utilizationRate","offset":0,"slot":"3","type":"t_uint256"},{"astId":37613,"contract":"src/adapters/AcrossAdapter.sol:AcrossAdapter","label":"lpFeeRate","offset":0,"slot":"4","type":"t_uint256"},{"astId":37615,"contract":"src/adapters/AcrossAdapter.sol:AcrossAdapter","label":"relayerFeeRate","offset":0,"slot":"5","type":"t_uint256"},{"astId":37617,"contract":"src/adapters/AcrossAdapter.sol:AcrossAdapter","label":"isActive","offset":0,"slot":"6","type":"t_bool"}]},"t_struct(RelayRequest)37660_storage":{"encoding":"inplace","label":"struct AcrossAdapter.RelayRequest","numberOfBytes":"352","members":[{"astId":37635,"contract":"src/adapters/AcrossAdapter.sol:AcrossAdapter","label":"transferId","offset":0,"slot":"0","type":"t_bytes32"},{"astId":37637,"contract":"src/adapters/AcrossAdapter.sol:AcrossAdapter","label":"sender","offset":0,"slot":"1","type":"t_address"},{"astId":37639,"contract":"src/adapters/AcrossAdapter.sol:AcrossAdapter","label":"recipient","offset":0,"slot":"2","type":"t_address"},{"astId":37641,"contract":"src/adapters/AcrossAdapter.sol:AcrossAdapter","label":"token","offset":0,"slot":"3","type":"t_address"},{"astId":37643,"contract":"src/adapters/AcrossAdapter.sol:AcrossAdapter","label":"amount","offset":0,"slot":"4","type":"t_uint256"},{"astId":37645,"contract":"src/adapters/AcrossAdapter.sol:AcrossAdapter","label":"originChainId","offset":0,"slot":"5","type":"t_uint256"},{"astId":37647,"contract":"src/adapters/AcrossAdapter.sol:AcrossAdapter","label":"destinationChainId","offset":0,"slot":"6","type":"t_uint256"},{"astId":37649,"contract":"src/adapters/AcrossAdapter.sol:AcrossAdapter","label":"relayerFee","offset":0,"slot":"7","type":"t_uint256"},{"astId":37651,"contract":"src/adapters/AcrossAdapter.sol:AcrossAdapter","label":"lpFee","offset":0,"slot":"8","type":"t_uint256"},{"astId":37653,"contract":"src/adapters/AcrossAdapter.sol:AcrossAdapter","label":"timestamp","offset":0,"slot":"9","type":"t_uint256"},{"astId":37655,"contract":"src/adapters/AcrossAdapter.sol:AcrossAdapter","label":"assignedRelayer","offset":0,"slot":"10","type":"t_address"},{"astId":37657,"contract":"src/adapters/AcrossAdapter.sol:AcrossAdapter","label":"isRelayed","offset":20,"slot":"10","type":"t_bool"},{"astId":37659,"contract":"src/adapters/AcrossAdapter.sol:AcrossAdapter","label":"isDisputed","offset":21,"slot":"10","type":"t_bool"}]},"t_struct(Relayer)37632_storage":{"encoding":"inplace","label":"struct AcrossAdapter.Relayer","numberOfBytes":"192","members":[{"astId":37621,"contract":"src/adapters/AcrossAdapter.sol:AcrossAdapter","label":"relayerAddress","offset":0,"slot":"0","type":"t_address"},{"astId":37623,"contract":"src/adapters/AcrossAdapter.sol:AcrossAdapter","label":"stake","offset":0,"slot":"1","type":"t_uint256"},{"astId":37625,"contract":"src/adapters/AcrossAdapter.sol:AcrossAdapter","label":"reputation","offset":0,"slot":"2","type":"t_uint256"},{"astId":37627,"contract":"src/adapters/AcrossAdapter.sol:AcrossAdapter","label":"successfulRelays","offset":0,"slot":"3","type":"t_uint256"},{"astId":37629,"contract":"src/adapters/AcrossAdapter.sol:AcrossAdapter","label":"totalRelays","offset":0,"slot":"4","type":"t_uint256"},{"astId":37631,"contract":"src/adapters/AcrossAdapter.sol:AcrossAdapter","label":"isActive","offset":0,"slot":"5","type":"t_bool"}]},"t_struct(Route)49015_storage":{"encoding":"inplace","label":"struct IBridgeAdapter.Route","numberOfBytes":"512","members":[{"astId":48995,"contract":"src/adapters/AcrossAdapter.sol:AcrossAdapter","label":"adapter","offset":0,"slot":"0","type":"t_address"},{"astId":48997,"contract":"src/adapters/AcrossAdapter.sol:AcrossAdapter","label":"tokenIn","offset":0,"slot":"1","type":"t_address"},{"astId":48999,"contract":"src/adapters/AcrossAdapter.sol:AcrossAdapter","label":"tokenOut","offset":0,"slot":"2","type":"t_address"},{"astId":49001,"contract":"src/adapters/AcrossAdapter.sol:AcrossAdapter","label":"amountIn","offset":0,"slot":"3","type":"t_uint256"},{"astId":49003,"contract":"src/adapters/AcrossAdapter.sol:AcrossAdapter","label":"amountOut","offset":0,"slot":"4","type":"t_uint256"},{"astId":49005,"contract":"src/adapters/AcrossAdapter.sol:AcrossAdapter","label":"srcChainId","offset":0,"slot":"5","type":"t_uint256"},{"astId":49007,"contract":"src/adapters/AcrossAdapter.sol:AcrossAdapter","label":"dstChainId","offset":0,"slot":"6","type":"t_uint256"},{"astId":49010,"contract":"src/adapters/AcrossAdapter.sol:AcrossAdapter","label":"metrics","offset":0,"slot":"7","type":"t_struct(RouteMetrics)48992_storage"},{"astId":49012,"contract":"src/adapters/AcrossAdapter.sol:AcrossAdapter","label":"adapterData","offset":0,"slot":"14","type":"t_bytes_storage"},{"astId":49014,"contract":"src/adapters/AcrossAdapter.sol:AcrossAdapter","label":"deadline","offset":0,"slot":"15","type":"t_uint256"}]},"t_struct(RouteMetrics)48992_storage":{"encoding":"inplace","label":"struct IBridgeAdapter.RouteMetrics","numberOfBytes":"224","members":[{"astId":48979,"contract":"src/adapters/AcrossAdapter.sol:AcrossAdapter","label":"estimatedGasCost","offset":0,"slot":"0","type":"t_uint256"},{"astId":48981,"contract":"src/adapters/AcrossAdapter.sol:AcrossAdapter","label":"bridgeFee","offset":0,"slot":"1","type":"t_uint256"},{"astId":48983,"contract":"src/adapters/AcrossAdapter.sol:AcrossAdapter","label":"totalCostWei","offset":0,"slot":"2","type":"t_uint256"},{"astId":48985,"contract":"src/adapters/AcrossAdapter.sol:AcrossAdapter","label":"estimatedTimeMinutes","offset":0,"slot":"3","type":"t_uint256"},{"astId":48987,"contract":"src/adapters/AcrossAdapter.sol:AcrossAdapter","label":"liquidityAvailable","offset":0,"slot":"4","type":"t_uint256"},{"astId":48989,"contract":"src/adapters/AcrossAdapter.sol:AcrossAdapter","label":"successRate","offset":0,"slot":"5","type":"t_uint256"},{"astId":48991,"contract":"src/adapters/AcrossAdapter.sol:AcrossAdapter","label":"congestionLevel","offset":0,"slot":"6","type":"t_uint256"}]},"t_struct(Transfer)49040_storage":{"encoding":"inplace","label":"struct IBridgeAdapter.Transfer","numberOfBytes":"704","members":[{"astId":49025,"contract":"src/adapters/AcrossAdapter.sol:AcrossAdapter","label":"transferId","offset":0,"slot":"0","type":"t_bytes32"},{"astId":49027,"contract":"src/adapters/AcrossAdapter.sol:AcrossAdapter","label":"sender","offset":0,"slot":"1","type":"t_address"},{"astId":49029,"contract":"src/adapters/AcrossAdapter.sol:AcrossAdapter","label":"recipient","offset":0,"slot":"2","type":"t_address"},{"astId":49032,"contract":"src/adapters/AcrossAdapter.sol:AcrossAdapter","label":"route","offset":0,"slot":"3","type":"t_struct(Route)49015_storage"},{"astId":49035,"contract":"src/adapters/AcrossAdapter.sol:AcrossAdapter","label":"status","offset":0,"slot":"19","type":"t_enum(TransferStatus)49022"},{"astId":49037,"contract":"src/adapters/AcrossAdapter.sol:AcrossAdapter","label":"initiatedAt","offset":0,"slot":"20","type":"t_uint256"},{"astId":49039,"contract":"src/adapters/AcrossAdapter.sol:AcrossAdapter","label":"completedAt","offset":0,"slot":"21","type":"t_uint256"}]},"t_uint256":{"encoding":"inplace","label":"uint256","numberOfBytes":"32"}}},"evm":{"bytecode":{"object":"608080604052346200138557331562001370575f8054336001600160a01b0319821681178355916001600160a01b03909116907f8be0079c531659141344cd1fd0a4f28419497f9722a3daafe3b4186f6b6457e09080a360017f9b779b17422d0df92223018b32b4d1fa46e071723d6817e2486d003becc55f00819055600b805460ff1916909117905560405161010081016001600160401b038111828210176200135c5760019160e0916040526601c6bf5263400081526002602082015267016345785d8a0000604082015269021e19e0c9bab2400000606082015260b46080820152611c2060a0820152678ac7230489e8000060c082015201526601c6bf52634000600c556002600d5567016345785d8a0000600e5569021e19e0c9bab2400000600f5560b4601055611c20601155678ac7230489e80000601255600160ff196013541617601355620002e46200015762001389565b5f80825269021e19e0c9bab24000006020808401918252683635c9adc5dea00000604085019081526103e860608601908152600460808701908152600260a08801908152600160c089019081529680525f8051602062003f1a83398151915290945295517fab8d887b54c0f076fcc48aedeea43cd818475b8a7f64896fadf86b580b58f0f080546001600160a01b039092166001600160a01b031990921691909117905592517fab8d887b54c0f076fcc48aedeea43cd818475b8a7f64896fadf86b580b58f0f155517fab8d887b54c0f076fcc48aedeea43cd818475b8a7f64896fadf86b580b58f0f25590517fab8d887b54c0f076fcc48aedeea43cd818475b8a7f64896fadf86b580b58f0f35591517fab8d887b54c0f076fcc48aedeea43cd818475b8a7f64896fadf86b580b58f0f45590517fab8d887b54c0f076fcc48aedeea43cd818475b8a7f64896fadf86b580b58f0f555517fab8d887b54c0f076fcc48aedeea43cd818475b8a7f64896fadf86b580b58f0f6805460ff191691151560ff16919091179055565b6200047f620002f262001389565b5f8082526901b1ae4d6e2ef50000006020808401918252682b5e3af16b18800000604085019081526103e860608601908152600460808701908152600260a08801908152600160c089019081529680525f8051602062003f3a83398151915290945295517f628bd8fba4eced0f8a576e84f456531cc5d140d32af2e4ac43294408b0aba8ac80546001600160a01b039092166001600160a01b031990921691909117905592517f628bd8fba4eced0f8a576e84f456531cc5d140d32af2e4ac43294408b0aba8ad55517f628bd8fba4eced0f8a576e84f456531cc5d140d32af2e4ac43294408b0aba8ae5590517f628bd8fba4eced0f8a576e84f456531cc5d140d32af2e4ac43294408b0aba8af5591517f628bd8fba4eced0f8a576e84f456531cc5d140d32af2e4ac43294408b0aba8b05590517f628bd8fba4eced0f8a576e84f456531cc5d140d32af2e4ac43294408b0aba8b155517f628bd8fba4eced0f8a576e84f456531cc5d140d32af2e4ac43294408b0aba8b2805460ff191691151560ff16919091179055565b6200061a6200048d62001389565b5f80825269014542ba12a337c000006020808401918252682086ac351052600000604085019081526103e860608601908152600460808701908152600260a08801908152600160c089019081529680525f8051602062003f5a83398151915290945295517fe05ba5a6fa18c506d8c0934b53dbad8ca28032417a66d16d86fca198c8d00e9080546001600160a01b039092166001600160a01b031990921691909117905592517fe05ba5a6fa18c506d8c0934b53dbad8ca28032417a66d16d86fca198c8d00e9155517fe05ba5a6fa18c506d8c0934b53dbad8ca28032417a66d16d86fca198c8d00e925590517fe05ba5a6fa18c506d8c0934b53dbad8ca28032417a66d16d86fca198c8d00e935591517fe05ba5a6fa18c506d8c0934b53dbad8ca28032417a66d16d86fca198c8d00e945590517fe05ba5a6fa18c506d8c0934b53dbad8ca28032417a66d16d86fca198c8d00e9555517fe05ba5a6fa18c506d8c0934b53dbad8ca28032417a66d16d86fca198c8d00e96805460ff191691151560ff16919091179055565b620007b86200062862001389565b60018082526a01a784379d99db420000006020808401918252692a5a058fc295ed000000604085019081526103e860608601908152600460808701908152600260a0880190815260c088018781525f979097525f8051602062003f1a83398151915290945295517fb62b070af7e1c2e4d36a8bc978f24c95d09be2fd271fd05523f86808c42bd4d780546001600160a01b039092166001600160a01b031990921691909117905592517fb62b070af7e1c2e4d36a8bc978f24c95d09be2fd271fd05523f86808c42bd4d855517fb62b070af7e1c2e4d36a8bc978f24c95d09be2fd271fd05523f86808c42bd4d95590517fb62b070af7e1c2e4d36a8bc978f24c95d09be2fd271fd05523f86808c42bd4da5591517fb62b070af7e1c2e4d36a8bc978f24c95d09be2fd271fd05523f86808c42bd4db5590517fb62b070af7e1c2e4d36a8bc978f24c95d09be2fd271fd05523f86808c42bd4dc55517fb62b070af7e1c2e4d36a8bc978f24c95d09be2fd271fd05523f86808c42bd4dd805460ff191691151560ff16919091179055565b62000956620007c662001389565b60018082526a013da329b63364718000006020808401918252691fc3842bd1f071c00000604085019081526103e860608601908152600460808701908152600260a0880190815260c088018781525f979097525f8051602062003f3a83398151915290945295517f6a0f406481cba950a49fb552ad586dfe3fc51beece0dc10757529ee13a04a31680546001600160a01b039092166001600160a01b031990921691909117905592517f6a0f406481cba950a49fb552ad586dfe3fc51beece0dc10757529ee13a04a31755517f6a0f406481cba950a49fb552ad586dfe3fc51beece0dc10757529ee13a04a3185590517f6a0f406481cba950a49fb552ad586dfe3fc51beece0dc10757529ee13a04a3195591517f6a0f406481cba950a49fb552ad586dfe3fc51beece0dc10757529ee13a04a31a5590517f6a0f406481cba950a49fb552ad586dfe3fc51beece0dc10757529ee13a04a31b55517f6a0f406481cba950a49fb552ad586dfe3fc51beece0dc10757529ee13a04a31c805460ff191691151560ff16919091179055565b62000af36200096462001389565b600180825269d3c21bcecceda1000000602080840191825269152d02c7e14af6800000604085019081526103e860608601908152600460808701908152600260a0880190815260c088018781525f979097525f8051602062003f5a83398151915290945295517f95d83ce8946e6e15843843f37579584e975924554f0788119c8296ebe491047b80546001600160a01b039092166001600160a01b031990921691909117905592517f95d83ce8946e6e15843843f37579584e975924554f0788119c8296ebe491047c55517f95d83ce8946e6e15843843f37579584e975924554f0788119c8296ebe491047d5590517f95d83ce8946e6e15843843f37579584e975924554f0788119c8296ebe491047e5591517f95d83ce8946e6e15843843f37579584e975924554f0788119c8296ebe491047f5590517f95d83ce8946e6e15843843f37579584e975924554f0788119c8296ebe491048055517f95d83ce8946e6e15843843f37579584e975924554f0788119c8296ebe4910481805460ff191691151560ff16919091179055565b62000c8f62000b0162001389565b600280825269010f0cf064dd592000006020808401918252681b1ae4d6e2ef500000604085019081526103e86060860190815260046080870190815260a08701868152600160c089019081525f979097525f8051602062003f1a83398151915290945295517f1f2d7c7485c1895556f5eb05f4f5b173fdc3dcef99c1585d5e5b9f38240b66bd80546001600160a01b039092166001600160a01b031990921691909117905592517f1f2d7c7485c1895556f5eb05f4f5b173fdc3dcef99c1585d5e5b9f38240b66be55517f1f2d7c7485c1895556f5eb05f4f5b173fdc3dcef99c1585d5e5b9f38240b66bf5590517f1f2d7c7485c1895556f5eb05f4f5b173fdc3dcef99c1585d5e5b9f38240b66c05591517f1f2d7c7485c1895556f5eb05f4f5b173fdc3dcef99c1585d5e5b9f38240b66c15590517f1f2d7c7485c1895556f5eb05f4f5b173fdc3dcef99c1585d5e5b9f38240b66c255517f1f2d7c7485c1895556f5eb05f4f5b173fdc3dcef99c1585d5e5b9f38240b66c3805460ff191691151560ff16919091179055565b62000e2a62000c9d62001389565b600280825268d8d726b7177a80000060208084019182526815af1d78b58c400000604085019081526103e86060860190815260046080870190815260a08701868152600160c089019081525f979097525f8051602062003f3a83398151915290945295517f029f298465675071f063e62472c8ecc3942c25aa0e6ad10ec3f68ee15fcf014380546001600160a01b039092166001600160a01b031990921691909117905592517f029f298465675071f063e62472c8ecc3942c25aa0e6ad10ec3f68ee15fcf014455517f029f298465675071f063e62472c8ecc3942c25aa0e6ad10ec3f68ee15fcf01455590517f029f298465675071f063e62472c8ecc3942c25aa0e6ad10ec3f68ee15fcf01465591517f029f298465675071f063e62472c8ecc3942c25aa0e6ad10ec3f68ee15fcf01475590517f029f298465675071f063e62472c8ecc3942c25aa0e6ad10ec3f68ee15fcf014855517f029f298465675071f063e62472c8ecc3942c25aa0e6ad10ec3f68ee15fcf0149805460ff191691151560ff16919091179055565b62000fc562000e3862001389565b600280825268a2a15d09519be000006020808401918252681043561a8829300000604085019081526103e86060860190815260046080870190815260a08701868152600160c089019081525f979097525f8051602062003f5a83398151915290945295517f087f3cadd341aff197e2a11bb88717a5407e36bfbf298483fa799e20f49e6ab480546001600160a01b039092166001600160a01b031990921691909117905592517f087f3cadd341aff197e2a11bb88717a5407e36bfbf298483fa799e20f49e6ab555517f087f3cadd341aff197e2a11bb88717a5407e36bfbf298483fa799e20f49e6ab65590517f087f3cadd341aff197e2a11bb88717a5407e36bfbf298483fa799e20f49e6ab75591517f087f3cadd341aff197e2a11bb88717a5407e36bfbf298483fa799e20f49e6ab85590517f087f3cadd341aff197e2a11bb88717a5407e36bfbf298483fa799e20f49e6ab955517f087f3cadd341aff197e2a11bb88717a5407e36bfbf298483fa799e20f49e6aba805460ff191691151560ff16919091179055565b6200106362000fd3620013a9565b610101815260056020820168056bc75e2d63100000815260408301605f8152606084016103b6815260808501916103e8835260a0860193600185526101015f52600260205260405f209660018060a01b0390511660018060a01b031988541617875551600187015551600286015551600385015551600484015551151591019060ff801983541691151516179055565b600554680100000000000000008110156200135c576001810180600555811015620013485760055f525f8051602062003efa8339815191520180546001600160a01b031916610101179055620010b8620013a9565b610102808252680821ab0d441498000060208084019182526062604085019081526103d4606086019081526103e860808701908152600160a088019081525f879052600290945295517f101e46f2442145fb440983d656c946771860a6dde5d14a163d7e67cd06b244b780546001600160a01b039092166001600160a01b031990921691909117905592517f101e46f2442145fb440983d656c946771860a6dde5d14a163d7e67cd06b244b855517f101e46f2442145fb440983d656c946771860a6dde5d14a163d7e67cd06b244b95590517f101e46f2442145fb440983d656c946771860a6dde5d14a163d7e67cd06b244ba5591517f101e46f2442145fb440983d656c946771860a6dde5d14a163d7e67cd06b244bb5590517f101e46f2442145fb440983d656c946771860a6dde5d14a163d7e67cd06b244bc805460ff191691151560ff16919091179055600554680100000000000000008110156200135c576001810180600555811015620013485760055f525f8051602062003efa8339815191520180546001600160a01b0319169091179055620012ed6200125d620013a9565b61010381526005602082016804563918244f400000815260408301605c815260608401610398815260808501916103e8835260a0860193600185526101035f52600260205260405f209660018060a01b0390511660018060a01b031988541617875551600187015551600286015551600385015551600484015551151591019060ff801983541691151516179055565b600554680100000000000000008110156200135c576001810180600555811015620013485760055f525f8051602062003efa8339815191520180546001600160a01b031916610103179055604051612b309081620013ca8239f35b634e487b7160e01b5f52603260045260245ffd5b634e487b7160e01b5f52604160045260245ffd5b631e4fbdf760e01b81525f6004820152602490fd5b5f80fd5b6040519060e082016001600160401b038111838210176200135c57604052565b6040519060c082016001600160401b038111838210176200135c5760405256fe6080604052600436101561001a575b3615610018575f80fd5b005b5f3560e01c806315a3d37a14611fdb5780631d63575614611f985780631e04a56f14611f765780632165cbb714611f13578063260958a514611da257806326c3564414611d665780633542284b14611d42578063390f418514611d265780633b92e26e14611c4e5780633bf4772014611c315780633c64f04b14611b9657806344a4274614611ad15780635300f84114611a5a5780635f81a57c14611a3d578063715018a6146119e6578063783a9c12146119a557806379502c5514611947578063816c99de146119105780638da5cb5b146118eb5780638deabd37146117a05780638f20a7f71461095057806393d9a1e61461089657806395ccea67146107ac5780639aa5d462146106e75780639ce3f4b2146106ca578063af14ffb4146104e5578063b8b2233d1461045d578063c27231da14610381578063c4cf4b11146102f3578063d51aa0cb146102bc578063e402080414610276578063e9dd087414610250578063f2fde38b146101b55763f9e5051a0361000e57346101b1575f3660031901126101b1576020600854604051908152f35b5f80fd5b346101b15760203660031901126101b1576101ce61220a565b6101d6612ae0565b6001600160a01b03809116908115610220575f54826001600160a01b03198216175f55167f8be0079c531659141344cd1fd0a4f28419497f9722a3daafe3b4186f6b6457e05f80a3005b60246040517f1e4fbdf70000000000000000000000000000000000000000000000000000000081525f6004820152fd5b346101b157602061026c61026336612537565b929190916129e0565b6040519015158152f35b346101b1575f3660031901126101b15760ff600b5416806102b0575b806102a5575b6020906040519015158152f35b506005541515610298565b5060ff60135416610292565b346101b15760603660031901126101b15760406102e76102da61220a565b6044359060243590612917565b82519182526020820152f35b346101b15760403660031901126101b15760e061030e612220565b6004355f52600160205260405f206001600160a01b038092165f5260205260405f2090815416906001810154906002810154600382015460048301549160ff600660058601549501541694604051968752602087015260408601526060850152608084015260a0830152151560c0820152f35b346101b15760203660031901126101b15760c061039c61220a565b5f60a06040516103ab81612283565b82815282602082015282604082015282606082015282608082015201526001600160a01b038091165f52600260205260405f2090604051906103ec82612283565b825416918282526001810154602083019081526002820154604084019081526003830154916060850192835260a060ff6005600487015496608089019788520154169501941515855260405195865251602086015251604085015251606084015251608083015251151560a0820152f35b346101b1575f3660031901126101b157604051604081019080821067ffffffffffffffff8311176104d1576104cd91604052600f81527f4163726f73732050726f746f636f6c00000000000000000000000000000000006020820152604051918291602083526020830190612425565b0390f35b634e487b7160e01b5f52604160045260245ffd5b346101b15760203660031901126101b1575f6101806040516105068161229f565b8281528260208201528260408201528260608201528260808201528260a08201528260c08201528260e08201528261010082015282610120820152826101408201528261016082015201526004355f5260046020526101a060405f206101806040516105718161229f565b60ff600a8454948584526001600160a01b0360018201541660208501526001600160a01b0360028201541660408501526001600160a01b03600382015416606085015260048101546080850152600581015460a0850152600681015460c0850152600781015460e08501526008810154610100850152600981015461012085015201546001600160a01b038116610140840152818160a01c16151561016084015260a81c161515828201526040519283526001600160a01b0360208201511660208401526001600160a01b0360408201511660408401526001600160a01b0360608201511660608401526080810151608084015260a081015160a084015260c081015160c084015260e081015160e08401526101008101516101008401526101208101516101208401526001600160a01b0361014082015116610140840152610160810151151561016084015201511515610180820152f35b346101b1575f3660031901126101b1576020600a54604051908152f35b346101b15760603660031901126101b157600435610703612220565b9060443561070f612ae0565b815f5260016020526001600160a01b0360405f20931692835f5260205260405f2060018101916107408184546127f3565b8093556002820154916127109283810293818504149015171561079857600361078c7fc733c2813826d31c105dbff518b08258e9e7aeb3eb1c7c7f642d77696faf501d956020956127d5565b910155604051908152a3005b634e487b7160e01b5f52601160045260245ffd5b346101b15760403660031901126101b1576107c561220a565b6024356107d0612ae0565b6001600160a01b039182169182610810575f80935080928192825416828215610807575bf1156107fc57005b6040513d5f823e3d90fd5b506108fc6107f4565b5f541690604051917fa9059cbb000000000000000000000000000000000000000000000000000000005f5260045260245260205f60448180865af160015f5114811615610877575b816040521561086357005b602491635274afe760e01b82526004820152fd5b600181151661088d57823b15153d151616610858565b503d5f823e3d90fd5b346101b157610100806003193601126101b15760405190810181811067ffffffffffffffff8211176104d15760405260043581526020810160243581526040820160443581526060830160643581526080840190608435825260a085019260a435845260c086019460c435865260e4359687151588036101b15760e0810197885261091f612ae0565b51600c5551600d5551600e5551600f5551601055516011555160125551151560ff8019601354169116176013555f80f35b60603660031901126101b15760043567ffffffffffffffff81116101b15761097c9036906004016122de565b610984612220565b9060443567ffffffffffffffff81116101b157366023820112156101b157806004013567ffffffffffffffff81116101b157369101602401116101b15760027f9b779b17422d0df92223018b32b4d1fa46e071723d6817e2486d003becc55f0054146117765760027f9b779b17422d0df92223018b32b4d1fa46e071723d6817e2486d003becc55f005560ff601354161561174c5760208181015160408084015160a085015160c08601519251633a77421d60e21b81526001600160a01b039485166004820152939091166024840152604483015260648201529081608481305afa9081156107fc575f9161171d575b50156116f3576060810151600e54116116c9576060810151600f541061169f5760c08101515f52600160205260405f206001600160a01b036040830151165f5260205260405f20610ace6001820154600283015490612800565b606083015111611675576005541561164b57606082015160a083015160c084015190604051927f4143524f5353000000000000000000000000000000000000000000000000000060208501523360601b60268501526bffffffffffffffffffffffff198760601b16603a850152604e840152606e830152608e8201524260ae82015260ae8152610b5d8161224a565b60208151910120916001600160a01b0360208201511615155f146115e1576001600160a01b03602082015116606082015190604051917f23b872dd000000000000000000000000000000000000000000000000000000005f52336004523060245260445260205f60648180855af160015f51148116156115c2575b826040525f606052156115ad5750505b610bfa606082015160028401546127f3565b8060028401556127108102908082046127101490151715610798576001830154610c23916127d5565b60038301555f60055480156115995760055f526001600160a01b037f036b6384b5eca791c62761152d0c79bb0604c104a5fb6f4eb0703f3154bb3db05416915f5b8281106114c457505050612710610c9a81610c8860608601516004880154906127c2565b049460056060860151910154906127c2565b04926001600160a01b0360408401511690606084015160a085015160c08601519160405194610cc88661229f565b8986523360208701526001600160a01b038b1660408701526060860152608085015260a084015260c08301528460e0830152610100820152426101208201526001600160a01b0382166101408201525f6101608201525f610180820152845f526004602052600a60405f20825181556001600160a01b036020840151166001600160a01b0319600183015416176001820155600281016001600160a01b036040850151166001600160a01b0319825416179055600381016001600160a01b036060850151166001600160a01b03198254161790556080830151600482015560a0830151600582015560c0830151600682015560e083015160078201556101008301516008820155610120830151600982015501906001600160a01b0361014082015116908254917fffffffffffffffffffff0000000000000000000000000000000000000000000075ff00000000000000000000000000000000000000000061018074ff0000000000000000000000000000000000000000610160860151151560a01b16940151151560a81b1693161717179055604051610e688161224a565b8481523360208201526001600160a01b03861660408201528260608201525f60808201524260a08201525f60c0820152845f52600360205260405f209080518255600182016001600160a01b036020830151166001600160a01b0319825416179055600282016001600160a01b036040830151166001600160a01b0319825416179055600382016060820151906001600160a01b038251166001600160a01b0319825416179055600483016001600160a01b036020830151166001600160a01b0319825416179055600583016001600160a01b036040830151166001600160a01b0319825416179055606081015160068401556080810151600784015560a0810151600884015560c0810151600984015560c060e08201518051600a8601556020810151600b8601556040810151600c8601556060810151600d8601556080810151600e86015560a0810151600f8601550151601084015561010081015180519067ffffffffffffffff82116104d157610fe56011860154612570565b601f8111611480575b50602090601f8311600114611410576101209392915f9183611405575b50508160011b915f199060031b1c19161760118501555b015160128301556080810151601383019160058210156113f15760159260c09260ff8019835416911617905560a081015160148501550151910155600654680100000000000000008110156104d157806001611081920160065561273f565b81549060031b9086821b915f19901b19161790556110a0600754612909565b6007556110b360608301516009546127f3565b600955835f526003602052601360405f2001600160ff198254161790556001600160a01b0381165f52600260205260405f206040518560208201524260408201526040815280606081011067ffffffffffffffff6060830111176104d1578060606064920160405260208151910120069160028201928354115f1461131457855f526004602052600a60405f2001740100000000000000000000000000000000000000007fffffffffffffffffffffff00ffffffffffffffffffffffffffffffffffffffff8254161790556003602052601360405f2001600260ff198254161790556111a1601054426127f3565b865f526003602052601560405f200155600460038301926111c28454612909565b80945501906111d18254612909565b8092556064830292808404606414901517156107985760209787957f768c04d6770285ddade0784bbf6228da4f4b78c9baa3d7581c147273be051a40956112216001600160a01b03958c976127d5565b905561122e600854612909565b600855865f5260038552867ff8b93d99f828ea6dc825a1d9830dd368efbe210896261ba9ddf4b8c2db7c11df6060600760405f2001546010546040519182525f8a8301526040820152a2838316877f8c6c0defbdff6a8ff44571363f339674d0a9166709bca05d2f866b06fb0a974a5f80a35b867f56ca1441c76a98845661e51ce81568a517265ae9ab2f9871a232c11a9208a9f085604051948886521693806112dc33958a830190612463565b0390a46040519586521693a360017f9b779b17422d0df92223018b32b4d1fa46e071723d6817e2486d003becc55f0055604051908152f35b90855f526003602052601360405f2001600360ff19825416179055600360048201916113408354612909565b8093550154916064830292808404606414901517156107985760209787957f768c04d6770285ddade0784bbf6228da4f4b78c9baa3d7581c147273be051a40956113936001600160a01b03958c976127d5565b9055867fede47e73e6c8536d5351df6e9a76853cc1ba236bc23132185ee92fa0afa9e7e16060604051888152600c898201527f52656c6179206661696c656400000000000000000000000000000000000000006040820152a26112a1565b634e487b7160e01b5f52602160045260245ffd5b015190508b8061100b565b90601186015f5260205f20915f5b601f198516811061146857509183916001936101209695601f19811610611450575b505050811b016011850155611022565b01515f1960f88460031b161c191690558b8080611440565b9192602060018192868501518155019401920161141e565b601186015f5260205f20601f840160051c8101602085106114bd575b601f830160051c820181106114b2575050610fee565b5f815560010161149c565b508061149c565b6001600160a01b036114d58261270a565b90549060031b1c165f52600260205260405f206040516114f481612283565b6001600160a01b03825416815260018201549081602082015260ff60056002850154948560408501526003810154606085015260048101546080850152015416159060a0821591015261158f5790670de0b6b3a76400006115569204906127f3565b828111611569575b506001905b01610c64565b9150925060016001600160a01b036115808561270a565b90549060031b1c16939061155e565b5050600190611563565b634e487b7160e01b5f52603260045260245ffd5b60249250635274afe760e01b82526004820152fd5b60018115166115d857813b15153d151616610bd8565b823d5f823e3d90fd5b6060810151341015610be85760646040517f08c379a000000000000000000000000000000000000000000000000000000000815260206004820152601060248201527f496e73756666696369656e7420455448000000000000000000000000000000006044820152fd5b60046040517f145f22a9000000000000000000000000000000000000000000000000000000008152fd5b60046040517fbb55fd27000000000000000000000000000000000000000000000000000000008152fd5b60046040517fb44042ee000000000000000000000000000000000000000000000000000000008152fd5b60046040517f2b069ba2000000000000000000000000000000000000000000000000000000008152fd5b60046040517f5d5fe824000000000000000000000000000000000000000000000000000000008152fd5b61173f915060203d602011611745575b61173781836122bc565b8101906127aa565b83610a74565b503d61172d565b60046040517f87cb8cfe000000000000000000000000000000000000000000000000000000008152fd5b60046040517f3ee5aeb5000000000000000000000000000000000000000000000000000000008152fd5b346101b15760403660031901126101b1576117b961220a565b602435906117c5612ae0565b60125482106118c157604051916117db83612283565b6001600160a01b0380921692838152600560208201918383526040810160648152606082015f815260808301915f835260a084019560018752895f5260026020528860405f209551166001600160a01b0319865416178555516001850155516002840155516003830155516004820155019051151560ff8019835416911617905560055490680100000000000000008210156104d1577f193a79fd17752d71da6eaba98e99be182b006d3e3178dd96b26a52f905e23e7d926118a58360016020950160055561270a565b819291549060031b9187831b921b1916179055604051908152a2005b60046040517f3d2aa5fb000000000000000000000000000000000000000000000000000000008152fd5b346101b1575f3660031901126101b15760206001600160a01b035f5416604051908152f35b346101b15760203660031901126101b1576004356006548110156101b15761193960209161273f565b90546040519160031b1c8152f35b346101b1575f3660031901126101b157610100600c54600d54600e54600f54601054601154916012549360ff6013541695604051978852602088015260408701526060860152608085015260a084015260c0830152151560e0820152f35b346101b15760203660031901126101b1576004356005548110156101b1576001600160a01b036119d660209261270a565b9190546040519260031b1c168152f35b346101b1575f3660031901126101b1576119fe612ae0565b5f6001600160a01b0381546001600160a01b031981168355167f8be0079c531659141344cd1fd0a4f28419497f9722a3daafe3b4186f6b6457e08280a3005b346101b1575f3660031901126101b1576020600954604051908152f35b346101b15760203660031901126101b15760c06001600160a01b0380611a7e61220a565b165f52600260205260405f209081541690600181015490600281015460038201549060ff6005600485015494015416936040519586526020860152604085015260608401526080830152151560a0820152f35b346101b15760203660031901126101b1576004355f5260046020526101a060405f2060ff8154916001600160a01b038060018301541691816002820154168260038301541660048301546005840154600685015491600786015493600887015495600a6009890154980154996040519c8d5260208d015260408c015260608b015260808a015260a089015260c088015260e08701526101008601526101208501528116610140840152818160a01c16151561016084015260a81c161515610180820152f35b346101b15760203660031901126101b1576004355f52600360205260405f2080546001600160a01b03918260018201541692600282015416611bda600383016125a8565b91611c23611c1860ff60138401541694601560148501549401549460405198899889526020890152604088015260e0606088015260e0870190612463565b93608086019061252a565b60a084015260c08301520390f35b346101b1575f3660031901126101b1576020600754604051908152f35b346101b15760403660031901126101b15760e0611c69612220565b611c71612774565b506004355f52600160205260405f206001600160a01b038092165f5260205260405f209060405190611ca28261224a565b82541691828252600181015460208301908152600282015460408401908152600383015490606085019182526004840154926080860193845260c060ff600660058801549760a08a01988952015416960195151586526040519687525160208701525160408601525160608501525160808401525160a083015251151560c0820152f35b346101b15760403660031901126101b157602060405160638152f35b346101b1576020611d5e611d5536612537565b9291909161280d565b604051908152f35b346101b15760203660031901126101b1576004358015158091036101b157611d8c612ae0565b60ff8019600b5416911617600b5542600a555f80f35b346101b1576020806003193601126101b15760405190611dc18261224a565b5f82525f818301525f60408301525f60c060405193611ddf85612266565b82855282848601528260408601528260608601528260808601528260a08601528282860152611e0c612774565b60e0860152610100946060868201528361012082015260608201528260808201528260a082015201526004355f526003815260405f209160405192611e508461224a565b805484526001600160a01b03918260018301541691848601928352836002820154169160408701928352611e86600383016125a8565b906060880191825260ff60138401541691608089019660058410156113f1578995816015611f0397611ef7978c5260a060148201549a01998a5201549860c08d01998a528b6040519d8e9d8e5251908d0152511660408b015251166060890152519060e06080890152870190612463565b935160a086019061252a565b5160c08401525160e08301520390f35b346101b1575f3660031901126101b15760075460085460095491908115611f6c5760648102928184046064148215171561079857611f53836080956127d5565b915b604051938452602084015260408301526060820152f35b6080925f91611f55565b346101b1575f3660031901126101b157602060ff600b54166040519015158152f35b346101b15760203660031901126101b15760043567ffffffffffffffff81116101b157611fc99036906004016122de565b5060206040516601c6bf526340008152f35b346101b15760a03660031901126101b157611ff461220a565b611ffc612220565b9060443591608435809261200e612774565b50604051633a77421d60e21b81526001600160a01b03918216600482015290831660248201526064803560448301528101939093526020928381608481305afa9081156107fc575f916121ed575b50156116f3575f526001825260405f206001600160a01b038092165f52825261211c60405f2093604051926120908461224a565b855416835261211260018601549585850196875261210d6120fa6121036002840154956040890196875260038501549860608101998a5260048601549081608082015260c060ff600660058a01549960a085019a8b520154161515910152612710938491836127c2565b049451906127c2565b0491600c546127f3565b6127f3565b9451905190612800565b60075490919080156121e2576008546064810290808204606414901517156107985760649161214a916127d5565b915b5104916601c6bf52634000938585018086116107985760e096603c6010540492604051976121798961224a565b885287015260408601526060850152608084015260a083015260c08201526121e0604051809260c08091805184526020810151602085015260408101516040850152606081015160608501526080810151608085015260a081015160a08501520151910152565bf35b50606460639161214c565b6122049150843d86116117455761173781836122bc565b8561205c565b600435906001600160a01b03821682036101b157565b602435906001600160a01b03821682036101b157565b35906001600160a01b03821682036101b157565b60e0810190811067ffffffffffffffff8211176104d157604052565b610140810190811067ffffffffffffffff8211176104d157604052565b60c0810190811067ffffffffffffffff8211176104d157604052565b6101a0810190811067ffffffffffffffff8211176104d157604052565b90601f8019910116810190811067ffffffffffffffff8211176104d157604052565b91909180830361020081126101b1576040908151926122fc84612266565b839561230782612236565b855260e0602093612319858501612236565b85880152612328868501612236565b86880152606084013560608801526080840135608088015260a084013560a088015260c084013560c088015260df1901126101b1578351936123698561224a565b60e083013585526101009081840135858701526101209586850135828201526101408501356060820152610160850135608082015261018085013560a08201526101a085013560c082015260e08801526101c08401359467ffffffffffffffff958681116101b15785019184601f840112156101b15782359687116104d15751936123fd601f8801601f19168301866122bc565b8685528187840101116101b157856101e096825f940183870137840101528501520135910152565b91908251928382525f5b84811061244f575050825f602080949584010152601f8019910116010190565b60208183018101518483018201520161242f565b906101e06101206125216102006001600160a01b038087511686528060208801511660208701526040870151166040860152606086015160608601526080860151608086015260a086015160a086015260c086015160c086015261250b60e087015160e087019060c08091805184526020810151602085015260408101516040850152606081015160608501526080810151608085015260a081015160a08501520151910152565b61010086015190806101c0870152850190612425565b93015191015290565b9060058210156113f15752565b60809060031901126101b1576001600160a01b039060043582811681036101b1579160243590811681036101b157906044359060643590565b90600182811c9216801561259e575b602083101461258a57565b634e487b7160e01b5f52602260045260245ffd5b91607f169161257f565b906040516125b581612266565b80926001600160a01b03808254168352600181600184015416916020928386015260028401541660408501526003830154606085015260048301546080850152600583015460a0850152600683015460c08501526040516126158161224a565b6007840154815260088401548382015260098401546040820152600a8401546060820152600b8401546080820152600c84015460a0820152600d84015460c082015260e0850152600e830191604051925f9281549161267383612570565b80875292600181169081156126e857506001146126af575b5050505091816126a2600f936101209503826122bc565b6101008501520154910152565b5f908152838120939450925b8284106126d557505050820101816126a28161012061268b565b80548685018601529284019281016126bb565b60ff191685880152505050151560051b8301019050816126a28161012061268b565b6005548110156115995760055f527f036b6384b5eca791c62761152d0c79bb0604c104a5fb6f4eb0703f3154bb3db001905f90565b6006548110156115995760065f527ff652222313e28459528d920b65115c16c04f3efc82aaedc97be59f3f377c0d3f01905f90565b604051906127818261224a565b5f60c0838281528260208201528260408201528260608201528260808201528260a08201520152565b908160209103126101b1575180151581036101b15790565b8181029291811591840414171561079857565b81156127df570490565b634e487b7160e01b5f52601260045260245ffd5b9190820180921161079857565b9190820391821161079857565b60408051633a77421d60e21b81526001600160a01b0392831660048201529183166024830152604482019390935260648101849052602091908281608481305afa9081156128ff575f916128e2575b50156128da576128d7935f5260018252825f206001600160a01b038092165f52825260c060ff6006855f208651946128938661224a565b815416855260018101548096860152600281015480978601526003810154606086015260048101546080860152600581015460a08601520154161515910152612800565b90565b505050505f90565b6128f99150833d85116117455761173781836122bc565b5f61285c565b84513d5f823e3d90fd5b5f1981146107985760010190565b60408051633a77421d60e21b81526001600160a01b03831660048201819052602482015260448101939093526064830184905291602091908281608481305afa9081156128ff575f916129c3575b50156129b95761299c935f5260018252825f206001600160a01b038092165f52825260c060ff6006855f208651946128938661224a565b600f54808210156129b15750905b600e549190565b9050906129aa565b505050505f905f90565b6129da9150833d85116117455761173781836122bc565b5f612965565b92916001600160a01b0380809316941690848203612ad75760c09460ff926006925f5260209160018352604091825f20905f528352815f209688868685519a612a288c61224a565b8a8154168c526001810154888d01526002810154878d0152600381015460608d0152600481015460808d0152600581015460a08d0152015416980197151588525f5260018352815f20905f528252805f2091815195612a868761224a565b83541686526001830154908601526002820154908501526003810154606085015260048101546080850152600581015460a0850152015416151592839101525115159081612ad2575090565b905090565b50505050505f90565b6001600160a01b035f54163303612af357565b60246040517f118cdaa7000000000000000000000000000000000000000000000000000000008152336004820152fdfea164736f6c6343000818000a036b6384b5eca791c62761152d0c79bb0604c104a5fb6f4eb0703f3154bb3db0d0ca2b9e48613413ba8bd488b2bc9928edc96f8f17ec2af94a885da5292afebbc9f67f25c901b9944d4f155866de98249444082c5aef4a85958cd69c7d860ab1a8c57e13d49dd6e2870c5d5f809130d4d18970dd320604381d96a20d80a714f4","linkReferences":{}},"methodIdentifiers":{"activeRelayers(uint256)":"783a9c12","addLiquidity(uint256,address,uint256)":"9aa5d462","config()":"79502c55","emergencyWithdraw(address,uint256)":"95ccea67","estimateGas((address,address,address,uint256,uint256,uint256,uint256,(uint256,uint256,uint256,uint256,uint256,uint256,uint256),bytes,uint256))":"1d635756","executeBridge((address,address,address,uint256,uint256,uint256,uint256,(uint256,uint256,uint256,uint256,uint256,uint256,uint256),bytes,uint256),address,bytes)":"8f20a7f7","getAvailableLiquidity(address,address,uint256,uint256)":"3542284b","getBridgeName()":"b8b2233d","getBridgeStats()":"2165cbb7","getLiquidityPool(uint256,address)":"3b92e26e","getRelayRequest(bytes32)":"af14ffb4","getRelayer(address)":"c27231da","getRouteMetrics(address,address,uint256,uint256,uint256)":"15a3d37a","getSuccessRate(uint256,uint256)":"390f4185","getTransfer(bytes32)":"260958a5","getTransferLimits(address,uint256,uint256)":"d51aa0cb","healthyStatus()":"1e04a56f","isHealthy()":"e4020804","lastHealthCheck()":"9ce3f4b2","liquidityPools(uint256,address)":"c4cf4b11","owner()":"8da5cb5b","registerRelayer(address,uint256)":"8deabd37","relayRequests(bytes32)":"44a42746","relayers(address)":"5300f841","renounceOwnership()":"715018a6","successfulTransfers()":"f9e5051a","supportsRoute(address,address,uint256,uint256)":"e9dd0874","totalTransfers()":"3bf47720","totalVolume()":"5f81a57c","transferHistory(uint256)":"816c99de","transferOwnership(address)":"f2fde38b","transfers(bytes32)":"3c64f04b","updateConfig((uint256,uint256,uint256,uint256,uint256,uint256,uint256,bool))":"93d9a1e6","updateHealthStatus(bool)":"26c35644"}}}}}