{"src/adapters/LayerZeroAdapter.sol":{"LayerZeroAdapter":{"abi":[{"type":"constructor","inputs":[],"stateMutability":"nonpayable"},{"type":"receive","stateMutability":"payable"},{"type":"function","name":"addSupportedToken","inputs":[{"name":"token","type":"address","internalType":"address"},{"name":"chainId","type":"uint256","internalType":"uint256"},{"name":"initialLiquidity","type":"uint256","internalType":"uint256"}],"outputs":[],"stateMutability":"nonpayable"},{"type":"function","name":"chainIdToLzChainId","inputs":[{"name":"","type":"uint256","internalType":"uint256"}],"outputs":[{"name":"","type":"uint16","internalType":"uint16"}],"stateMutability":"view"},{"type":"function","name":"config","inputs":[],"outputs":[{"name":"baseFee","type":"uint256","internalType":"uint256"},{"name":"feePercentage","type":"uint256","internalType":"uint256"},{"name":"minTransferAmount","type":"uint256","internalType":"uint256"},{"name":"maxTransferAmount","type":"uint256","internalType":"uint256"},{"name":"avgCompletionTime","type":"uint256","internalType":"uint256"},{"name":"isActive","type":"bool","internalType":"bool"}],"stateMutability":"view"},{"type":"function","name":"emergencyWithdraw","inputs":[{"name":"token","type":"address","internalType":"address"},{"name":"amount","type":"uint256","internalType":"uint256"}],"outputs":[],"stateMutability":"nonpayable"},{"type":"function","name":"estimateGas","inputs":[{"name":"route","type":"tuple","internalType":"struct IBridgeAdapter.Route","components":[{"name":"adapter","type":"address","internalType":"address"},{"name":"tokenIn","type":"address","internalType":"address"},{"name":"tokenOut","type":"address","internalType":"address"},{"name":"amountIn","type":"uint256","internalType":"uint256"},{"name":"amountOut","type":"uint256","internalType":"uint256"},{"name":"srcChainId","type":"uint256","internalType":"uint256"},{"name":"dstChainId","type":"uint256","internalType":"uint256"},{"name":"metrics","type":"tuple","internalType":"struct IBridgeAdapter.RouteMetrics","components":[{"name":"estimatedGasCost","type":"uint256","internalType":"uint256"},{"name":"bridgeFee","type":"uint256","internalType":"uint256"},{"name":"totalCostWei","type":"uint256","internalType":"uint256"},{"name":"estimatedTimeMinutes","type":"uint256","internalType":"uint256"},{"name":"liquidityAvailable","type":"uint256","internalType":"uint256"},{"name":"successRate","type":"uint256","internalType":"uint256"},{"name":"congestionLevel","type":"uint256","internalType":"uint256"}]},{"name":"adapterData","type":"bytes","internalType":"bytes"},{"name":"deadline","type":"uint256","internalType":"uint256"}]}],"outputs":[{"name":"gasEstimate","type":"uint256","internalType":"uint256"}],"stateMutability":"view"},{"type":"function","name":"executeBridge","inputs":[{"name":"route","type":"tuple","internalType":"struct IBridgeAdapter.Route","components":[{"name":"adapter","type":"address","internalType":"address"},{"name":"tokenIn","type":"address","internalType":"address"},{"name":"tokenOut","type":"address","internalType":"address"},{"name":"amountIn","type":"uint256","internalType":"uint256"},{"name":"amountOut","type":"uint256","internalType":"uint256"},{"name":"srcChainId","type":"uint256","internalType":"uint256"},{"name":"dstChainId","type":"uint256","internalType":"uint256"},{"name":"metrics","type":"tuple","internalType":"struct IBridgeAdapter.RouteMetrics","components":[{"name":"estimatedGasCost","type":"uint256","internalType":"uint256"},{"name":"bridgeFee","type":"uint256","internalType":"uint256"},{"name":"totalCostWei","type":"uint256","internalType":"uint256"},{"name":"estimatedTimeMinutes","type":"uint256","internalType":"uint256"},{"name":"liquidityAvailable","type":"uint256","internalType":"uint256"},{"name":"successRate","type":"uint256","internalType":"uint256"},{"name":"congestionLevel","type":"uint256","internalType":"uint256"}]},{"name":"adapterData","type":"bytes","internalType":"bytes"},{"name":"deadline","type":"uint256","internalType":"uint256"}]},{"name":"recipient","type":"address","internalType":"address"},{"name":"permitData","type":"bytes","internalType":"bytes"}],"outputs":[{"name":"transferId","type":"bytes32","internalType":"bytes32"}],"stateMutability":"payable"},{"type":"function","name":"getAvailableLiquidity","inputs":[{"name":"tokenIn","type":"address","internalType":"address"},{"name":"tokenOut","type":"address","internalType":"address"},{"name":"srcChainId","type":"uint256","internalType":"uint256"},{"name":"dstChainId","type":"uint256","internalType":"uint256"}],"outputs":[{"name":"liquidity","type":"uint256","internalType":"uint256"}],"stateMutability":"view"},{"type":"function","name":"getBridgeName","inputs":[],"outputs":[{"name":"","type":"string","internalType":"string"}],"stateMutability":"pure"},{"type":"function","name":"getBridgeStats","inputs":[],"outputs":[{"name":"_totalTransfers","type":"uint256","internalType":"uint256"},{"name":"_successfulTransfers","type":"uint256","internalType":"uint256"},{"name":"_totalVolume","type":"uint256","internalType":"uint256"},{"name":"_successRate","type":"uint256","internalType":"uint256"}],"stateMutability":"view"},{"type":"function","name":"getRouteMetrics","inputs":[{"name":"tokenIn","type":"address","internalType":"address"},{"name":"tokenOut","type":"address","internalType":"address"},{"name":"amount","type":"uint256","internalType":"uint256"},{"name":"srcChainId","type":"uint256","internalType":"uint256"},{"name":"dstChainId","type":"uint256","internalType":"uint256"}],"outputs":[{"name":"metrics","type":"tuple","internalType":"struct IBridgeAdapter.RouteMetrics","components":[{"name":"estimatedGasCost","type":"uint256","internalType":"uint256"},{"name":"bridgeFee","type":"uint256","internalType":"uint256"},{"name":"totalCostWei","type":"uint256","internalType":"uint256"},{"name":"estimatedTimeMinutes","type":"uint256","internalType":"uint256"},{"name":"liquidityAvailable","type":"uint256","internalType":"uint256"},{"name":"successRate","type":"uint256","internalType":"uint256"},{"name":"congestionLevel","type":"uint256","internalType":"uint256"}]}],"stateMutability":"view"},{"type":"function","name":"getSuccessRate","inputs":[{"name":"srcChainId","type":"uint256","internalType":"uint256"},{"name":"dstChainId","type":"uint256","internalType":"uint256"}],"outputs":[{"name":"successRate","type":"uint256","internalType":"uint256"}],"stateMutability":"view"},{"type":"function","name":"getTransfer","inputs":[{"name":"transferId","type":"bytes32","internalType":"bytes32"}],"outputs":[{"name":"transfer","type":"tuple","internalType":"struct IBridgeAdapter.Transfer","components":[{"name":"transferId","type":"bytes32","internalType":"bytes32"},{"name":"sender","type":"address","internalType":"address"},{"name":"recipient","type":"address","internalType":"address"},{"name":"route","type":"tuple","internalType":"struct IBridgeAdapter.Route","components":[{"name":"adapter","type":"address","internalType":"address"},{"name":"tokenIn","type":"address","internalType":"address"},{"name":"tokenOut","type":"address","internalType":"address"},{"name":"amountIn","type":"uint256","internalType":"uint256"},{"name":"amountOut","type":"uint256","internalType":"uint256"},{"name":"srcChainId","type":"uint256","internalType":"uint256"},{"name":"dstChainId","type":"uint256","internalType":"uint256"},{"name":"metrics","type":"tuple","internalType":"struct IBridgeAdapter.RouteMetrics","components":[{"name":"estimatedGasCost","type":"uint256","internalType":"uint256"},{"name":"bridgeFee","type":"uint256","internalType":"uint256"},{"name":"totalCostWei","type":"uint256","internalType":"uint256"},{"name":"estimatedTimeMinutes","type":"uint256","internalType":"uint256"},{"name":"liquidityAvailable","type":"uint256","internalType":"uint256"},{"name":"successRate","type":"uint256","internalType":"uint256"},{"name":"congestionLevel","type":"uint256","internalType":"uint256"}]},{"name":"adapterData","type":"bytes","internalType":"bytes"},{"name":"deadline","type":"uint256","internalType":"uint256"}]},{"name":"status","type":"uint8","internalType":"enum IBridgeAdapter.TransferStatus"},{"name":"initiatedAt","type":"uint256","internalType":"uint256"},{"name":"completedAt","type":"uint256","internalType":"uint256"}]}],"stateMutability":"view"},{"type":"function","name":"getTransferHistory","inputs":[],"outputs":[{"name":"transferIds","type":"bytes32[]","internalType":"bytes32[]"}],"stateMutability":"view"},{"type":"function","name":"getTransferLimits","inputs":[{"name":"token","type":"address","internalType":"address"},{"name":"srcChainId","type":"uint256","internalType":"uint256"},{"name":"dstChainId","type":"uint256","internalType":"uint256"}],"outputs":[{"name":"minAmount","type":"uint256","internalType":"uint256"},{"name":"maxAmount","type":"uint256","internalType":"uint256"}],"stateMutability":"view"},{"type":"function","name":"healthyStatus","inputs":[],"outputs":[{"name":"","type":"bool","internalType":"bool"}],"stateMutability":"view"},{"type":"function","name":"isHealthy","inputs":[],"outputs":[{"name":"healthy","type":"bool","internalType":"bool"}],"stateMutability":"view"},{"type":"function","name":"lastHealthCheck","inputs":[],"outputs":[{"name":"","type":"uint256","internalType":"uint256"}],"stateMutability":"view"},{"type":"function","name":"lzChainIdToChainId","inputs":[{"name":"","type":"uint16","internalType":"uint16"}],"outputs":[{"name":"","type":"uint256","internalType":"uint256"}],"stateMutability":"view"},{"type":"function","name":"owner","inputs":[],"outputs":[{"name":"","type":"address","internalType":"address"}],"stateMutability":"view"},{"type":"function","name":"renounceOwnership","inputs":[],"outputs":[],"stateMutability":"nonpayable"},{"type":"function","name":"successfulTransfers","inputs":[],"outputs":[{"name":"","type":"uint256","internalType":"uint256"}],"stateMutability":"view"},{"type":"function","name":"supportedTokens","inputs":[{"name":"","type":"address","internalType":"address"},{"name":"","type":"uint256","internalType":"uint256"}],"outputs":[{"name":"","type":"bool","internalType":"bool"}],"stateMutability":"view"},{"type":"function","name":"supportsRoute","inputs":[{"name":"tokenIn","type":"address","internalType":"address"},{"name":"tokenOut","type":"address","internalType":"address"},{"name":"srcChainId","type":"uint256","internalType":"uint256"},{"name":"dstChainId","type":"uint256","internalType":"uint256"}],"outputs":[{"name":"supported","type":"bool","internalType":"bool"}],"stateMutability":"view"},{"type":"function","name":"tokenLiquidity","inputs":[{"name":"","type":"address","internalType":"address"},{"name":"","type":"uint256","internalType":"uint256"}],"outputs":[{"name":"","type":"uint256","internalType":"uint256"}],"stateMutability":"view"},{"type":"function","name":"totalTransfers","inputs":[],"outputs":[{"name":"","type":"uint256","internalType":"uint256"}],"stateMutability":"view"},{"type":"function","name":"totalVolume","inputs":[],"outputs":[{"name":"","type":"uint256","internalType":"uint256"}],"stateMutability":"view"},{"type":"function","name":"transferHistory","inputs":[{"name":"","type":"uint256","internalType":"uint256"}],"outputs":[{"name":"","type":"bytes32","internalType":"bytes32"}],"stateMutability":"view"},{"type":"function","name":"transferOwnership","inputs":[{"name":"newOwner","type":"address","internalType":"address"}],"outputs":[],"stateMutability":"nonpayable"},{"type":"function","name":"transfers","inputs":[{"name":"","type":"bytes32","internalType":"bytes32"}],"outputs":[{"name":"transferId","type":"bytes32","internalType":"bytes32"},{"name":"sender","type":"address","internalType":"address"},{"name":"recipient","type":"address","internalType":"address"},{"name":"route","type":"tuple","internalType":"struct IBridgeAdapter.Route","components":[{"name":"adapter","type":"address","internalType":"address"},{"name":"tokenIn","type":"address","internalType":"address"},{"name":"tokenOut","type":"address","internalType":"address"},{"name":"amountIn","type":"uint256","internalType":"uint256"},{"name":"amountOut","type":"uint256","internalType":"uint256"},{"name":"srcChainId","type":"uint256","internalType":"uint256"},{"name":"dstChainId","type":"uint256","internalType":"uint256"},{"name":"metrics","type":"tuple","internalType":"struct IBridgeAdapter.RouteMetrics","components":[{"name":"estimatedGasCost","type":"uint256","internalType":"uint256"},{"name":"bridgeFee","type":"uint256","internalType":"uint256"},{"name":"totalCostWei","type":"uint256","internalType":"uint256"},{"name":"estimatedTimeMinutes","type":"uint256","internalType":"uint256"},{"name":"liquidityAvailable","type":"uint256","internalType":"uint256"},{"name":"successRate","type":"uint256","internalType":"uint256"},{"name":"congestionLevel","type":"uint256","internalType":"uint256"}]},{"name":"adapterData","type":"bytes","internalType":"bytes"},{"name":"deadline","type":"uint256","internalType":"uint256"}]},{"name":"status","type":"uint8","internalType":"enum IBridgeAdapter.TransferStatus"},{"name":"initiatedAt","type":"uint256","internalType":"uint256"},{"name":"completedAt","type":"uint256","internalType":"uint256"}],"stateMutability":"view"},{"type":"function","name":"updateConfig","inputs":[{"name":"newConfig","type":"tuple","internalType":"struct LayerZeroAdapter.BridgeConfig","components":[{"name":"baseFee","type":"uint256","internalType":"uint256"},{"name":"feePercentage","type":"uint256","internalType":"uint256"},{"name":"minTransferAmount","type":"uint256","internalType":"uint256"},{"name":"maxTransferAmount","type":"uint256","internalType":"uint256"},{"name":"avgCompletionTime","type":"uint256","internalType":"uint256"},{"name":"isActive","type":"bool","internalType":"bool"}]}],"outputs":[],"stateMutability":"nonpayable"},{"type":"function","name":"updateHealthStatus","inputs":[{"name":"healthy","type":"bool","internalType":"bool"}],"outputs":[],"stateMutability":"nonpayable"},{"type":"function","name":"updateLiquidity","inputs":[{"name":"token","type":"address","internalType":"address"},{"name":"chainId","type":"uint256","internalType":"uint256"},{"name":"newLiquidity","type":"uint256","internalType":"uint256"}],"outputs":[],"stateMutability":"nonpayable"},{"type":"event","name":"ConfigUpdated","inputs":[{"name":"newConfig","type":"tuple","indexed":false,"internalType":"struct LayerZeroAdapter.BridgeConfig","components":[{"name":"baseFee","type":"uint256","internalType":"uint256"},{"name":"feePercentage","type":"uint256","internalType":"uint256"},{"name":"minTransferAmount","type":"uint256","internalType":"uint256"},{"name":"maxTransferAmount","type":"uint256","internalType":"uint256"},{"name":"avgCompletionTime","type":"uint256","internalType":"uint256"},{"name":"isActive","type":"bool","internalType":"bool"}]}],"anonymous":false},{"type":"event","name":"LiquidityUpdated","inputs":[{"name":"token","type":"address","indexed":true,"internalType":"address"},{"name":"chainId","type":"uint256","indexed":true,"internalType":"uint256"},{"name":"newLiquidity","type":"uint256","indexed":false,"internalType":"uint256"}],"anonymous":false},{"type":"event","name":"OwnershipTransferred","inputs":[{"name":"previousOwner","type":"address","indexed":true,"internalType":"address"},{"name":"newOwner","type":"address","indexed":true,"internalType":"address"}],"anonymous":false},{"type":"event","name":"TransferCompleted","inputs":[{"name":"transferId","type":"bytes32","indexed":true,"internalType":"bytes32"},{"name":"actualAmountOut","type":"uint256","indexed":false,"internalType":"uint256"},{"name":"actualCost","type":"uint256","indexed":false,"internalType":"uint256"},{"name":"actualTime","type":"uint256","indexed":false,"internalType":"uint256"}],"anonymous":false},{"type":"event","name":"TransferExecuted","inputs":[{"name":"transferId","type":"bytes32","indexed":true,"internalType":"bytes32"},{"name":"sender","type":"address","indexed":true,"internalType":"address"},{"name":"amount","type":"uint256","indexed":false,"internalType":"uint256"}],"anonymous":false},{"type":"event","name":"TransferFailed","inputs":[{"name":"transferId","type":"bytes32","indexed":true,"internalType":"bytes32"},{"name":"reason","type":"string","indexed":false,"internalType":"string"}],"anonymous":false},{"type":"event","name":"TransferInitiated","inputs":[{"name":"transferId","type":"bytes32","indexed":true,"internalType":"bytes32"},{"name":"sender","type":"address","indexed":true,"internalType":"address"},{"name":"recipient","type":"address","indexed":true,"internalType":"address"},{"name":"route","type":"tuple","indexed":false,"internalType":"struct IBridgeAdapter.Route","components":[{"name":"adapter","type":"address","internalType":"address"},{"name":"tokenIn","type":"address","internalType":"address"},{"name":"tokenOut","type":"address","internalType":"address"},{"name":"amountIn","type":"uint256","internalType":"uint256"},{"name":"amountOut","type":"uint256","internalType":"uint256"},{"name":"srcChainId","type":"uint256","internalType":"uint256"},{"name":"dstChainId","type":"uint256","internalType":"uint256"},{"name":"metrics","type":"tuple","internalType":"struct IBridgeAdapter.RouteMetrics","components":[{"name":"estimatedGasCost","type":"uint256","internalType":"uint256"},{"name":"bridgeFee","type":"uint256","internalType":"uint256"},{"name":"totalCostWei","type":"uint256","internalType":"uint256"},{"name":"estimatedTimeMinutes","type":"uint256","internalType":"uint256"},{"name":"liquidityAvailable","type":"uint256","internalType":"uint256"},{"name":"successRate","type":"uint256","internalType":"uint256"},{"name":"congestionLevel","type":"uint256","internalType":"uint256"}]},{"name":"adapterData","type":"bytes","internalType":"bytes"},{"name":"deadline","type":"uint256","internalType":"uint256"}]}],"anonymous":false},{"type":"error","name":"BridgeInactive","inputs":[]},{"type":"error","name":"InsufficientLiquidity","inputs":[]},{"type":"error","name":"InvalidChainId","inputs":[]},{"type":"error","name":"OwnableInvalidOwner","inputs":[{"name":"owner","type":"address","internalType":"address"}]},{"type":"error","name":"OwnableUnauthorizedAccount","inputs":[{"name":"account","type":"address","internalType":"address"}]},{"type":"error","name":"ReentrancyGuardReentrantCall","inputs":[]},{"type":"error","name":"SafeERC20FailedOperation","inputs":[{"name":"token","type":"address","internalType":"address"}]},{"type":"error","name":"TransferAmountTooHigh","inputs":[]},{"type":"error","name":"TransferAmountTooLow","inputs":[]},{"type":"error","name":"UnsupportedRoute","inputs":[]}],"userdoc":{},"devdoc":{},"storageLayout":{"storage":[{"astId":35921,"contract":"src/adapters/LayerZeroAdapter.sol:LayerZeroAdapter","label":"_owner","offset":0,"slot":"0","type":"t_address"},{"astId":40878,"contract":"src/adapters/LayerZeroAdapter.sol:LayerZeroAdapter","label":"chainIdToLzChainId","offset":0,"slot":"1","type":"t_mapping(t_uint256,t_uint16)"},{"astId":40882,"contract":"src/adapters/LayerZeroAdapter.sol:LayerZeroAdapter","label":"lzChainIdToChainId","offset":0,"slot":"2","type":"t_mapping(t_uint16,t_uint256)"},{"astId":40889,"contract":"src/adapters/LayerZeroAdapter.sol:LayerZeroAdapter","label":"supportedTokens","offset":0,"slot":"3","type":"t_mapping(t_address,t_mapping(t_uint256,t_bool))"},{"astId":40895,"contract":"src/adapters/LayerZeroAdapter.sol:LayerZeroAdapter","label":"tokenLiquidity","offset":0,"slot":"4","type":"t_mapping(t_address,t_mapping(t_uint256,t_uint256))"},{"astId":40901,"contract":"src/adapters/LayerZeroAdapter.sol:LayerZeroAdapter","label":"transfers","offset":0,"slot":"5","type":"t_mapping(t_bytes32,t_struct(Transfer)49200_storage)"},{"astId":40904,"contract":"src/adapters/LayerZeroAdapter.sol:LayerZeroAdapter","label":"transferHistory","offset":0,"slot":"6","type":"t_array(t_bytes32)dyn_storage"},{"astId":40921,"contract":"src/adapters/LayerZeroAdapter.sol:LayerZeroAdapter","label":"config","offset":0,"slot":"7","type":"t_struct(BridgeConfig)40918_storage"},{"astId":40924,"contract":"src/adapters/LayerZeroAdapter.sol:LayerZeroAdapter","label":"totalTransfers","offset":0,"slot":"13","type":"t_uint256"},{"astId":40926,"contract":"src/adapters/LayerZeroAdapter.sol:LayerZeroAdapter","label":"successfulTransfers","offset":0,"slot":"14","type":"t_uint256"},{"astId":40928,"contract":"src/adapters/LayerZeroAdapter.sol:LayerZeroAdapter","label":"totalVolume","offset":0,"slot":"15","type":"t_uint256"},{"astId":40930,"contract":"src/adapters/LayerZeroAdapter.sol:LayerZeroAdapter","label":"lastHealthCheck","offset":0,"slot":"16","type":"t_uint256"},{"astId":40933,"contract":"src/adapters/LayerZeroAdapter.sol:LayerZeroAdapter","label":"healthyStatus","offset":0,"slot":"17","type":"t_bool"}],"types":{"t_address":{"encoding":"inplace","label":"address","numberOfBytes":"20"},"t_array(t_bytes32)dyn_storage":{"encoding":"dynamic_array","label":"bytes32[]","numberOfBytes":"32","base":"t_bytes32"},"t_bool":{"encoding":"inplace","label":"bool","numberOfBytes":"1"},"t_bytes32":{"encoding":"inplace","label":"bytes32","numberOfBytes":"32"},"t_bytes_storage":{"encoding":"bytes","label":"bytes","numberOfBytes":"32"},"t_enum(TransferStatus)49182":{"encoding":"inplace","label":"enum IBridgeAdapter.TransferStatus","numberOfBytes":"1"},"t_mapping(t_address,t_mapping(t_uint256,t_bool))":{"encoding":"mapping","key":"t_address","label":"mapping(address => mapping(uint256 => bool))","numberOfBytes":"32","value":"t_mapping(t_uint256,t_bool)"},"t_mapping(t_address,t_mapping(t_uint256,t_uint256))":{"encoding":"mapping","key":"t_address","label":"mapping(address => mapping(uint256 => uint256))","numberOfBytes":"32","value":"t_mapping(t_uint256,t_uint256)"},"t_mapping(t_bytes32,t_struct(Transfer)49200_storage)":{"encoding":"mapping","key":"t_bytes32","label":"mapping(bytes32 => struct IBridgeAdapter.Transfer)","numberOfBytes":"32","value":"t_struct(Transfer)49200_storage"},"t_mapping(t_uint16,t_uint256)":{"encoding":"mapping","key":"t_uint16","label":"mapping(uint16 => uint256)","numberOfBytes":"32","value":"t_uint256"},"t_mapping(t_uint256,t_bool)":{"encoding":"mapping","key":"t_uint256","label":"mapping(uint256 => bool)","numberOfBytes":"32","value":"t_bool"},"t_mapping(t_uint256,t_uint16)":{"encoding":"mapping","key":"t_uint256","label":"mapping(uint256 => uint16)","numberOfBytes":"32","value":"t_uint16"},"t_mapping(t_uint256,t_uint256)":{"encoding":"mapping","key":"t_uint256","label":"mapping(uint256 => uint256)","numberOfBytes":"32","value":"t_uint256"},"t_struct(BridgeConfig)40918_storage":{"encoding":"inplace","label":"struct LayerZeroAdapter.BridgeConfig","numberOfBytes":"192","members":[{"astId":40907,"contract":"src/adapters/LayerZeroAdapter.sol:LayerZeroAdapter","label":"baseFee","offset":0,"slot":"0","type":"t_uint256"},{"astId":40909,"contract":"src/adapters/LayerZeroAdapter.sol:LayerZeroAdapter","label":"feePercentage","offset":0,"slot":"1","type":"t_uint256"},{"astId":40911,"contract":"src/adapters/LayerZeroAdapter.sol:LayerZeroAdapter","label":"minTransferAmount","offset":0,"slot":"2","type":"t_uint256"},{"astId":40913,"contract":"src/adapters/LayerZeroAdapter.sol:LayerZeroAdapter","label":"maxTransferAmount","offset":0,"slot":"3","type":"t_uint256"},{"astId":40915,"contract":"src/adapters/LayerZeroAdapter.sol:LayerZeroAdapter","label":"avgCompletionTime","offset":0,"slot":"4","type":"t_uint256"},{"astId":40917,"contract":"src/adapters/LayerZeroAdapter.sol:LayerZeroAdapter","label":"isActive","offset":0,"slot":"5","type":"t_bool"}]},"t_struct(Route)49175_storage":{"encoding":"inplace","label":"struct IBridgeAdapter.Route","numberOfBytes":"512","members":[{"astId":49155,"contract":"src/adapters/LayerZeroAdapter.sol:LayerZeroAdapter","label":"adapter","offset":0,"slot":"0","type":"t_address"},{"astId":49157,"contract":"src/adapters/LayerZeroAdapter.sol:LayerZeroAdapter","label":"tokenIn","offset":0,"slot":"1","type":"t_address"},{"astId":49159,"contract":"src/adapters/LayerZeroAdapter.sol:LayerZeroAdapter","label":"tokenOut","offset":0,"slot":"2","type":"t_address"},{"astId":49161,"contract":"src/adapters/LayerZeroAdapter.sol:LayerZeroAdapter","label":"amountIn","offset":0,"slot":"3","type":"t_uint256"},{"astId":49163,"contract":"src/adapters/LayerZeroAdapter.sol:LayerZeroAdapter","label":"amountOut","offset":0,"slot":"4","type":"t_uint256"},{"astId":49165,"contract":"src/adapters/LayerZeroAdapter.sol:LayerZeroAdapter","label":"srcChainId","offset":0,"slot":"5","type":"t_uint256"},{"astId":49167,"contract":"src/adapters/LayerZeroAdapter.sol:LayerZeroAdapter","label":"dstChainId","offset":0,"slot":"6","type":"t_uint256"},{"astId":49170,"contract":"src/adapters/LayerZeroAdapter.sol:LayerZeroAdapter","label":"metrics","offset":0,"slot":"7","type":"t_struct(RouteMetrics)49152_storage"},{"astId":49172,"contract":"src/adapters/LayerZeroAdapter.sol:LayerZeroAdapter","label":"adapterData","offset":0,"slot":"14","type":"t_bytes_storage"},{"astId":49174,"contract":"src/adapters/LayerZeroAdapter.sol:LayerZeroAdapter","label":"deadline","offset":0,"slot":"15","type":"t_uint256"}]},"t_struct(RouteMetrics)49152_storage":{"encoding":"inplace","label":"struct IBridgeAdapter.RouteMetrics","numberOfBytes":"224","members":[{"astId":49139,"contract":"src/adapters/LayerZeroAdapter.sol:LayerZeroAdapter","label":"estimatedGasCost","offset":0,"slot":"0","type":"t_uint256"},{"astId":49141,"contract":"src/adapters/LayerZeroAdapter.sol:LayerZeroAdapter","label":"bridgeFee","offset":0,"slot":"1","type":"t_uint256"},{"astId":49143,"contract":"src/adapters/LayerZeroAdapter.sol:LayerZeroAdapter","label":"totalCostWei","offset":0,"slot":"2","type":"t_uint256"},{"astId":49145,"contract":"src/adapters/LayerZeroAdapter.sol:LayerZeroAdapter","label":"estimatedTimeMinutes","offset":0,"slot":"3","type":"t_uint256"},{"astId":49147,"contract":"src/adapters/LayerZeroAdapter.sol:LayerZeroAdapter","label":"liquidityAvailable","offset":0,"slot":"4","type":"t_uint256"},{"astId":49149,"contract":"src/adapters/LayerZeroAdapter.sol:LayerZeroAdapter","label":"successRate","offset":0,"slot":"5","type":"t_uint256"},{"astId":49151,"contract":"src/adapters/LayerZeroAdapter.sol:LayerZeroAdapter","label":"congestionLevel","offset":0,"slot":"6","type":"t_uint256"}]},"t_struct(Transfer)49200_storage":{"encoding":"inplace","label":"struct IBridgeAdapter.Transfer","numberOfBytes":"704","members":[{"astId":49185,"contract":"src/adapters/LayerZeroAdapter.sol:LayerZeroAdapter","label":"transferId","offset":0,"slot":"0","type":"t_bytes32"},{"astId":49187,"contract":"src/adapters/LayerZeroAdapter.sol:LayerZeroAdapter","label":"sender","offset":0,"slot":"1","type":"t_address"},{"astId":49189,"contract":"src/adapters/LayerZeroAdapter.sol:LayerZeroAdapter","label":"recipient","offset":0,"slot":"2","type":"t_address"},{"astId":49192,"contract":"src/adapters/LayerZeroAdapter.sol:LayerZeroAdapter","label":"route","offset":0,"slot":"3","type":"t_struct(Route)49175_storage"},{"astId":49195,"contract":"src/adapters/LayerZeroAdapter.sol:LayerZeroAdapter","label":"status","offset":0,"slot":"19","type":"t_enum(TransferStatus)49182"},{"astId":49197,"contract":"src/adapters/LayerZeroAdapter.sol:LayerZeroAdapter","label":"initiatedAt","offset":0,"slot":"20","type":"t_uint256"},{"astId":49199,"contract":"src/adapters/LayerZeroAdapter.sol:LayerZeroAdapter","label":"completedAt","offset":0,"slot":"21","type":"t_uint256"}]},"t_uint16":{"encoding":"inplace","label":"uint16","numberOfBytes":"2"},"t_uint256":{"encoding":"inplace","label":"uint256","numberOfBytes":"32"}}},"evm":{"bytecode":{"object":"6080604090808252346103d05733156103bb57505f8054336001600160a01b031982168117835583519290916001600160a01b0316907f8be0079c531659141344cd1fd0a4f28419497f9722a3daafe3b4186f6b6457e09080a36001807f9b779b17422d0df92223018b32b4d1fa46e071723d6817e2486d003becc55f005560ff19918183601154161760115562aa36a7805f52602090838252855f20619ce19361ffff1991858382541617905562066eee90815f52885f2092619d279384828254161790556201388196875f528a5f209061277d918284825416179055895f528b5f2060658482541617905561a4b192835f528c5f20606e8282541617905560895f52606d8d5f20918254161790555f52600294858852868c5f20555f52838b5f20555f52868a5f205560655f52878a5f2055606e5f52895f2055606d5f526089895f205560c0810181811060018060401b038211176103a757895266071afd498d000080825260068683015266038d7ea4c68000808b84015269152d02c7e14af6800000918260608501528960a06103849586608082015201526007556006600855600955600a55600b558587600c541617600c555f8052600492838552885f20815f52855269021e19e0c9bab2400000895f20555f8052838552885f20825f5285526901b1ae4d6e2ef5000000895f20555f8052838552885f20865f52855269014542ba12a337c00000895f20555f8052600393848652895f20825f528652895f20888a8254161790555f8052848652895f20835f528652895f20888a8254161790555f8052848652895f20875f528652895f20888a825416179055875f52808652895f20825f52865269d3c21bcecceda10000008a5f2055875f52808652895f20835f5286526969e10de76676d08000008a5f2055875f52808652895f20875f528652699ed194db19b238c000008a5f2055875f52848652895f20825f528652895f20888a825416179055875f52848652895f20835f528652895f20888a825416179055875f52848652895f20875f528652895f20888a825416179055835f52808652895f20825f528652683635c9adc5dea000008a5f2055835f52808652895f20835f528652682b5e3af16b188000008a5f2055835f528552885f20865f528552682086ac351052600000895f2055825f52838552885f20905f528452875f208688825416179055815f52828452875f20905f528352865f2085878254161790555f528152845f20915f5252825f20918254161790555161210c90816103d58239f35b634e487b7160e01b5f52604160045260245ffd5b631e4fbdf760e01b81525f6004820152602490fd5b5f80fdfe6080604052600436101561001a575b3615610018575f80fd5b005b5f3560e01c806315a3d37a146116835780631c95b0f31461161c5780631d635756146115d65780631e04a56f146115b45780632165cbb71461153d578063260958a5146113cc57806326c35644146113905780632f7b7411146112a15780633081e06f146112585780633542284b1461123d578063390f4185146112145780633bf47720146111f75780633c64f04b1461115c57806355cf4de9146111185780635f81a57c146110fb578063715018a61461109757806379502c551461104b578063816c99de146110145780638da5cb5b14610fef5780638f20a7f71461061257806393fc2bb9146105dc57806395ccea67146104f25780639ce3f4b2146104d5578063b21e3efb146104a7578063b8b2233d1461041f578063d51aa0cb146103fa578063e4020804146103a5578063e9dd08741461037f578063edd9587b146102f9578063ee0671ae14610247578063f2fde38b1461019f5763f9e5051a0361000e573461019b575f36600319011261019b576020600e54604051908152f35b5f80fd5b3461019b57602036600319011261019b576101b861189a565b6101c06120bc565b6001600160a01b03809116908115610217575f548273ffffffffffffffffffffffffffffffffffffffff198216175f55167f8be0079c531659141344cd1fd0a4f28419497f9722a3daafe3b4186f6b6457e05f80a3005b60246040517f1e4fbdf70000000000000000000000000000000000000000000000000000000081525f6004820152fd5b3461019b575f36600319011261019b57604051806006548083526020809301809160065f527ff652222313e28459528d920b65115c16c04f3efc82aaedc97be59f3f377c0d3f905f5b868282106102e55786866102a68288038361193d565b60405192839281840190828552518091526040840192915f5b8281106102ce57505050500390f35b8351855286955093810193928101926001016102bf565b835485529093019260019283019201610290565b3461019b576001600160a01b0360207f6ba1694b349793ed1971f7a177834febc52502ceee1660a3bb8e569e20727706610332366118da565b939161033f9591956120bc565b1692835f526003825260405f20855f52825260405f20600160ff19825416179055835f526004825260405f20855f5282528060405f2055604051908152a3005b3461019b57602061039b61039236611bb8565b92919091611f70565b6040519015158152f35b3461019b575f36600319011261019b5760ff60115416806103ee575b806103d4575b6020906040519015158152f35b506020610e106103e660105442611e4d565b1090506103c7565b5060ff600c54166103c1565b3461019b57604061041361040d366118da565b91611f05565b82519182526020820152f35b3461019b575f36600319011261019b57604051604081019080821067ffffffffffffffff8311176104935761048f91604052601281527f4c617965725a65726f20537461726761746500000000000000000000000000006020820152604051918291602083526020830190611aa6565b0390f35b634e487b7160e01b5f52604160045260245ffd5b3461019b57602036600319011261019b576004355f526001602052602061ffff60405f205416604051908152f35b3461019b575f36600319011261019b576020601054604051908152f35b3461019b57604036600319011261019b5761050b61189a565b6024356105166120bc565b6001600160a01b039182169182610556575f8093508092819282541682821561054d575bf11561054257005b6040513d5f823e3d90fd5b506108fc61053a565b5f541690604051917fa9059cbb000000000000000000000000000000000000000000000000000000005f5260045260245260205f60448180865af160015f51148116156105bd575b81604052156105a957005b602491635274afe760e01b82526004820152fd5b60018115166105d357823b15153d15161661059e565b503d5f823e3d90fd5b3461019b57602036600319011261019b5760043561ffff811680910361019b575f526002602052602060405f2054604051908152f35b606036600319011261019b5760043567ffffffffffffffff811161019b5761063e90369060040161195f565b6106466118b0565b60443567ffffffffffffffff811161019b573660238201121561019b57806004013567ffffffffffffffff811161019b573691016024011161019b5760027f9b779b17422d0df92223018b32b4d1fa46e071723d6817e2486d003becc55f005414610fc55760027f9b779b17422d0df92223018b32b4d1fa46e071723d6817e2486d003becc55f005560ff600c541615610f9b5760208281015160408085015160a086015160c08701519251633a77421d60e21b81526001600160a01b039485166004820152939091166024840152604483015260648201529081608481305afa908115610542575f91610f6c575b5015610f4257606082015160095411610f18576060820151600a5410610eee576001600160a01b036040830151165f52600460205260405f2060c08301515f5260205260405f2054606083015111610ec45760608201519060a083015160c084015190604051933360601b60208601526bffffffffffffffffffffffff198460601b1660348601526048850152606884015260888301524260a88301524360c883015260c882528161010081011067ffffffffffffffff6101008401111761049357610100820160405281516020830120916001600160a01b0360208501511615155f14610e4e57506001600160a01b03602084015116606084015190604051917f23b872dd000000000000000000000000000000000000000000000000000000005f52336004523060245260445260205f60648180855af160015f5114811615610e2f575b826040525f60605215610e1a5750505b60608301516001600160a01b036020850151165f52600460205260405f2060a08501515f526020526108c260405f20918254611e40565b905560608301516001600160a01b036040850151165f52600460205260405f2060c08501515f526020526108fb60405f20918254611e4d565b90556040519261090a84611904565b8284523360208501526001600160a01b03821660408501528060608501525f60808501524260a08501525f60c0850152825f52600560205260405f2084518155600181016001600160a01b036020870151169073ffffffffffffffffffffffffffffffffffffffff199182825416179055600282016001600160a01b036040880151168282541617905560038201906060870151916001600160a01b0383511682825416179055600483016001600160a01b036020840151168282541617905560058301906001600160a01b0360408401511690825416179055606081015160068301556080810151600783015560a0810151600883015560c0810151600983015560c060e08201518051600a8501556020810151600b8501556040810151600c8501556060810151600d8501556080810151600e85015560a0810151600f8501550151601083015561010081015180519067ffffffffffffffff821161049357610a786011850154611bf1565b601f8111610dd6575b50602090601f8311600114610d66576101209392915f9183610d5b575b50508160011b915f199060031b1c19161760118401555b01516012820155608085015194601382016005871015610d475760159160c09160ff199860ff8a835416911617905560a0810151601485015501519101556006546801000000000000000081101561049357806001610b179201600655611d8b565b81549060031b9085821b915f19901b1916179055610b36600d54611ef7565b600d55610b496060820151600f54611e40565b600f55825f526005602052601360405f200160018582541617905560405191602083019484865242604085015260408452606084019584871067ffffffffffffffff8811176104935786606095605f6064899460209b6040528351902006105f14610cd55750505f52600586526002601360405f200191825416179055610bd2600b5442611e40565b845f5260058652601560405f200155610bec600e54611ef7565b600e55835f5260058552837ff8b93d99f828ea6dc825a1d9830dd368efbe210896261ba9ddf4b8c2db7c11df84600760405f200154600b546040519182525f8a8301526040820152a25b6001600160a01b03604051918683521690847f56ca1441c76a98845661e51ce81568a517265ae9ab2f9871a232c11a9208a9f0339280610c788a820188611ae4565b0390a40151604051908152817fb4d028777f4b11e3791bf450af8e9eb64f04721d410e914c4f2d3d327ec0a1e3843393a360017f9b779b17422d0df92223018b32b4d1fa46e071723d6817e2486d003becc55f0055604051908152f35b907f53696d756c61746564206661696c75726500000000000000000000000000000060a0889385967fede47e73e6c8536d5351df6e9a76853cc1ba236bc23132185ee92fa0afa9e7e1965f5260058d526003601360405f2001918254161790558b8452601160808201520152a2610c36565b634e487b7160e01b5f52602160045260245ffd5b015190508980610a9e565b90601185015f5260205f20915f5b601f1985168110610dbe57509183916001936101209695601f19811610610da6575b505050811b016011840155610ab5565b01515f1960f88460031b161c19169055898080610d96565b91926020600181928685015181550194019201610d74565b601185015f5260205f20601f840160051c810160208510610e13575b601f830160051c82018110610e08575050610a81565b5f8155600101610df2565b5080610df2565b60249250635274afe760e01b82526004820152fd5b6001811516610e4557813b15153d15161661087b565b823d5f823e3d90fd5b60608401513410610e5f575061088b565b610100817f08c379a000000000000000000000000000000000000000000000000000000000826064940152602061010482015260106101248201527f496e73756666696369656e74204554480000000000000000000000000000000061014482015201fd5b60046040517fbb55fd27000000000000000000000000000000000000000000000000000000008152fd5b60046040517fb44042ee000000000000000000000000000000000000000000000000000000008152fd5b60046040517f2b069ba2000000000000000000000000000000000000000000000000000000008152fd5b60046040517f5d5fe824000000000000000000000000000000000000000000000000000000008152fd5b610f8e915060203d602011610f94575b610f86818361193d565b810190611e0a565b83610735565b503d610f7c565b60046040517f87cb8cfe000000000000000000000000000000000000000000000000000000008152fd5b60046040517f3ee5aeb5000000000000000000000000000000000000000000000000000000008152fd5b3461019b575f36600319011261019b5760206001600160a01b035f5416604051908152f35b3461019b57602036600319011261019b5760043560065481101561019b5761103d602091611d8b565b90546040519160031b1c8152f35b3461019b575f36600319011261019b5760c0600754600854600954600a54600b549160ff600c5416936040519586526020860152604085015260608401526080830152151560a0820152f35b3461019b575f36600319011261019b576110af6120bc565b5f6001600160a01b03815473ffffffffffffffffffffffffffffffffffffffff1981168355167f8be0079c531659141344cd1fd0a4f28419497f9722a3daafe3b4186f6b6457e08280a3005b3461019b575f36600319011261019b576020600f54604051908152f35b3461019b57604036600319011261019b576001600160a01b0361113961189a565b165f52600460205260405f206024355f52602052602060405f2054604051908152f35b3461019b57602036600319011261019b576004355f52600560205260405f2080546001600160a01b039182600182015416926002820154166111a060038301611c29565b916111e96111de60ff60138401541694601560148501549401549460405198899889526020890152604088015260e0606088015260e0870190611ae4565b936080860190611bab565b60a084015260c08301520390f35b3461019b575f36600319011261019b576020600d54604051908152f35b3461019b57604036600319011261019b576020611235602435600435611e8d565b604051908152f35b3461019b57602061123561125036611bb8565b929050611e5a565b3461019b57604036600319011261019b576001600160a01b0361127961189a565b165f52600360205260405f206024355f52602052602060ff60405f2054166040519015158152f35b3461019b5760c036600319011261019b5760405160c0810181811067ffffffffffffffff821117610493576040526004358152602081019060243582526040810191604435835260608201606435815260808301608435815260a43591821515830361019b577fe5f707e02e6ba627a1f76747900501b90eed0225b83282c41b3202e3ecf598bf958560a060c0970194855261133b6120bc565b519485600755805160085581516009558251600a558351600b558451151560ff8019600c5416911617600c5560405195865251602086015251604085015251606084015251608083015251151560a0820152a1005b3461019b57602036600319011261019b5760043580151580910361019b576113b66120bc565b60ff801960115416911617601155426010555f80f35b3461019b5760208060031936011261019b57604051906113eb82611904565b5f82525f818301525f60408301525f60c06040519361140985611920565b82855282848601528260408601528260608601528260808601528260a08601528282860152611436611dd4565b60e0860152610100946060868201528361012082015260608201528260808201528260a082015201526004355f526005815260405f20916040519261147a84611904565b805484526001600160a01b039182600183015416918486019283528360028201541691604087019283526114b060038301611c29565b906060880191825260ff6013840154169160808901966005841015610d4757899581601561152d97611521978c5260a060148201549a01998a5201549860c08d01998a528b6040519d8e9d8e5251908d0152511660408b015251166060890152519060e06080890152870190611ae4565b935160a0860190611bab565b5160c08401525160e08301520390f35b3461019b575f36600319011261019b57600d54600e54600f54919081156115aa576064810292818404606414821517156115965761157d83608095611e22565b915b604051938452602084015260408301526060820152f35b634e487b7160e01b5f52601160045260245ffd5b6080925f9161157f565b3461019b575f36600319011261019b57602060ff601154166040519015158152f35b3461019b57602036600319011261019b5760043567ffffffffffffffff811161019b5761123561160c602092369060040161195f565b60c060a08201519101519061200f565b3461019b576001600160a01b0360207f6ba1694b349793ed1971f7a177834febc52502ceee1660a3bb8e569e20727706611655366118da565b93916116629591956120bc565b1692835f526004825260405f20855f5282528060405f2055604051908152a3005b3461019b5760a036600319011261019b5761169c61189a565b6116a46118b0565b9060443560649283359182608435926116bb611dd4565b50604051633a77421d60e21b81526001600160a01b0387811660048301529190911660248201526044810191909152606481018390526020908181608481305afa908115610542575f9161187d575b5015610f425760075492600854938484028415958582041486171561159657826117446001600160a01b039361271061174a940490611e40565b9761200f565b96165f526004825260405f20905f52815260405f205491600d548015155f1461187457600e5490888202918083048a14901517156115965761178b91611e22565b935b831561186c578782029182048814171561159657826117ab91611e22565b605081111561186057604f1981019081116115965786810296818804149015171561159657601460e09604935b6117e28187611e40565b90603c600b540492604051976117f789611904565b885287015260408601526060850152608084015260a083015260c082015261185e604051809260c08091805184526020810151602085015260408101516040850152606081015160608501526080810151608085015260a081015160a08501520151910152565bf35b5060e095505f936117d8565b5050856117ab565b50605f9361178d565b6118949150823d8411610f9457610f86818361193d565b8761170a565b600435906001600160a01b038216820361019b57565b602435906001600160a01b038216820361019b57565b35906001600160a01b038216820361019b57565b606090600319011261019b576004356001600160a01b038116810361019b57906024359060443590565b60e0810190811067ffffffffffffffff82111761049357604052565b610140810190811067ffffffffffffffff82111761049357604052565b90601f8019910116810190811067ffffffffffffffff82111761049357604052565b919091808303610200811261019b5760409081519261197d84611920565b8395611988826118c6565b855260e060209361199a8585016118c6565b858801526119a98685016118c6565b86880152606084013560608801526080840135608088015260a084013560a088015260c084013560c088015260df19011261019b578351936119ea85611904565b60e083013585526101009081840135858701526101209586850135828201526101408501356060820152610160850135608082015261018085013560a08201526101a085013560c082015260e08801526101c08401359467ffffffffffffffff9586811161019b5785019184601f8401121561019b578235968711610493575193611a7e601f8801601f191683018661193d565b86855281878401011161019b57856101e096825f940183870137840101528501520135910152565b91908251928382525f5b848110611ad0575050825f602080949584010152601f8019910116010190565b602081830181015184830182015201611ab0565b906101e0610120611ba26102006001600160a01b038087511686528060208801511660208701526040870151166040860152606086015160608601526080860151608086015260a086015160a086015260c086015160c0860152611b8c60e087015160e087019060c08091805184526020810151602085015260408101516040850152606081015160608501526080810151608085015260a081015160a08501520151910152565b61010086015190806101c0870152850190611aa6565b93015191015290565b906005821015610d475752565b608090600319011261019b576001600160a01b0390600435828116810361019b5791602435908116810361019b57906044359060643590565b90600182811c92168015611c1f575b6020831014611c0b57565b634e487b7160e01b5f52602260045260245ffd5b91607f1691611c00565b90604051611c3681611920565b80926001600160a01b03808254168352600181600184015416916020928386015260028401541660408501526003830154606085015260048301546080850152600583015460a0850152600683015460c0850152604051611c9681611904565b6007840154815260088401548382015260098401546040820152600a8401546060820152600b8401546080820152600c84015460a0820152600d84015460c082015260e0850152600e830191604051925f92815491611cf483611bf1565b8087529260018116908115611d695750600114611d30575b505050509181611d23600f9361012095038261193d565b6101008501520154910152565b5f908152838120939450925b828410611d565750505082010181611d2381610120611d0c565b8054868501860152928401928101611d3c565b60ff191685880152505050151560051b830101905081611d2381610120611d0c565b600654811015611dc05760065f527ff652222313e28459528d920b65115c16c04f3efc82aaedc97be59f3f377c0d3f01905f90565b634e487b7160e01b5f52603260045260245ffd5b60405190611de182611904565b5f60c0838281528260208201528260408201528260608201528260808201528260a08201520152565b9081602091031261019b5751801515810361019b5790565b8115611e2c570490565b634e487b7160e01b5f52601260045260245ffd5b9190820180921161159657565b9190820391821161159657565b6001600160a01b038092169182911603611e87575f52600460205260405f20905f5260205260405f205490565b50505f90565b62aa36a781148080611eeb575b611ee35780611ed7575b611ed05762066eee149081611ec3575b50611ebe57605f90565b606190565b620138819150145f611eb4565b5050606090565b50620138818214611ea4565b505050606290565b5062066eee8314611e9a565b5f1981146115965760010190565b6001600160a01b03909291921691825f52600360205260405f20905f5260205260ff60405f20541615918215611f4c575b5050611f465760095490600a5490565b5f905f90565b9091505f52600360205260405f20905f5260205260ff60405f205416155f80611f36565b6001600160a01b039182169391169183830361200757805f52600160205261ffff9260409380855f20541615908115611ff6575b50611fed575f526003602052825f20905f5260205260ff825f2054169283611fcd575b50505090565b60ff93505f526003602052815f20905f526020525f2054165f8080611fc7565b50505050505f90565b9050835f52845f205416155f611fa4565b505050505f90565b9062aa36a78083036120545750905062066eee811461204857620138811461203d575b660aa87bee53800090565b660e35fa931a000090565b50660aa87bee53800090565b62066eee9280840361208a5750908092501461207e5762013881036120325766071afd498d000090565b5066038d7ea4c6800090565b620138811461209c575b505050612032565b81146120af5714612032575f8080612094565b50506611c37937e0800090565b6001600160a01b035f541633036120cf57565b60246040517f118cdaa7000000000000000000000000000000000000000000000000000000008152336004820152fdfea164736f6c6343000818000a","linkReferences":{}},"methodIdentifiers":{"addSupportedToken(address,uint256,uint256)":"edd9587b","chainIdToLzChainId(uint256)":"b21e3efb","config()":"79502c55","emergencyWithdraw(address,uint256)":"95ccea67","estimateGas((address,address,address,uint256,uint256,uint256,uint256,(uint256,uint256,uint256,uint256,uint256,uint256,uint256),bytes,uint256))":"1d635756","executeBridge((address,address,address,uint256,uint256,uint256,uint256,(uint256,uint256,uint256,uint256,uint256,uint256,uint256),bytes,uint256),address,bytes)":"8f20a7f7","getAvailableLiquidity(address,address,uint256,uint256)":"3542284b","getBridgeName()":"b8b2233d","getBridgeStats()":"2165cbb7","getRouteMetrics(address,address,uint256,uint256,uint256)":"15a3d37a","getSuccessRate(uint256,uint256)":"390f4185","getTransfer(bytes32)":"260958a5","getTransferHistory()":"ee0671ae","getTransferLimits(address,uint256,uint256)":"d51aa0cb","healthyStatus()":"1e04a56f","isHealthy()":"e4020804","lastHealthCheck()":"9ce3f4b2","lzChainIdToChainId(uint16)":"93fc2bb9","owner()":"8da5cb5b","renounceOwnership()":"715018a6","successfulTransfers()":"f9e5051a","supportedTokens(address,uint256)":"3081e06f","supportsRoute(address,address,uint256,uint256)":"e9dd0874","tokenLiquidity(address,uint256)":"55cf4de9","totalTransfers()":"3bf47720","totalVolume()":"5f81a57c","transferHistory(uint256)":"816c99de","transferOwnership(address)":"f2fde38b","transfers(bytes32)":"3c64f04b","updateConfig((uint256,uint256,uint256,uint256,uint256,bool))":"2f7b7411","updateHealthStatus(bool)":"26c35644","updateLiquidity(address,uint256,uint256)":"1c95b0f3"}}}}}