{"src/core/RouteCalculator.sol":{"RouteCalculator":{"abi":[{"type":"constructor","inputs":[],"stateMutability":"nonpayable"},{"type":"function","name":"BASIS_POINTS","inputs":[],"outputs":[{"name":"","type":"uint256","internalType":"uint256"}],"stateMutability":"view"},{"type":"function","name":"DEFAULT_CACHE_TTL","inputs":[],"outputs":[{"name":"","type":"uint256","internalType":"uint256"}],"stateMutability":"view"},{"type":"function","name":"MAX_ROUTES_PER_QUERY","inputs":[],"outputs":[{"name":"","type":"uint256","internalType":"uint256"}],"stateMutability":"view"},{"type":"function","name":"MAX_SLIPPAGE_BPS","inputs":[],"outputs":[{"name":"","type":"uint256","internalType":"uint256"}],"stateMutability":"view"},{"type":"function","name":"adapterList","inputs":[{"name":"","type":"uint256","internalType":"uint256"}],"outputs":[{"name":"","type":"address","internalType":"address"}],"stateMutability":"view"},{"type":"function","name":"bridgeMetrics","inputs":[{"name":"","type":"address","internalType":"address"}],"outputs":[{"name":"totalTransfers","type":"uint256","internalType":"uint256"},{"name":"successfulTransfers","type":"uint256","internalType":"uint256"},{"name":"totalVolume","type":"uint256","internalType":"uint256"},{"name":"avgCompletionTime","type":"uint256","internalType":"uint256"},{"name":"lastUpdateTime","type":"uint256","internalType":"uint256"},{"name":"isHealthy","type":"bool","internalType":"bool"}],"stateMutability":"view"},{"type":"function","name":"cacheRoute","inputs":[{"name":"route","type":"tuple","internalType":"struct IBridgeAdapter.Route","components":[{"name":"adapter","type":"address","internalType":"address"},{"name":"tokenIn","type":"address","internalType":"address"},{"name":"tokenOut","type":"address","internalType":"address"},{"name":"amountIn","type":"uint256","internalType":"uint256"},{"name":"amountOut","type":"uint256","internalType":"uint256"},{"name":"srcChainId","type":"uint256","internalType":"uint256"},{"name":"dstChainId","type":"uint256","internalType":"uint256"},{"name":"metrics","type":"tuple","internalType":"struct IBridgeAdapter.RouteMetrics","components":[{"name":"estimatedGasCost","type":"uint256","internalType":"uint256"},{"name":"bridgeFee","type":"uint256","internalType":"uint256"},{"name":"totalCostWei","type":"uint256","internalType":"uint256"},{"name":"estimatedTimeMinutes","type":"uint256","internalType":"uint256"},{"name":"liquidityAvailable","type":"uint256","internalType":"uint256"},{"name":"successRate","type":"uint256","internalType":"uint256"},{"name":"congestionLevel","type":"uint256","internalType":"uint256"}]},{"name":"adapterData","type":"bytes","internalType":"bytes"},{"name":"deadline","type":"uint256","internalType":"uint256"}]},{"name":"preferences","type":"tuple","internalType":"struct IBridgeAdapter.RoutePreferences","components":[{"name":"mode","type":"uint8","internalType":"enum IBridgeAdapter.RoutingMode"},{"name":"maxSlippageBps","type":"uint256","internalType":"uint256"},{"name":"maxFeeWei","type":"uint256","internalType":"uint256"},{"name":"maxTimeMinutes","type":"uint256","internalType":"uint256"},{"name":"allowMultiHop","type":"bool","internalType":"bool"}]}],"outputs":[],"stateMutability":"nonpayable"},{"type":"function","name":"findMultipleRoutes","inputs":[{"name":"tokenIn","type":"address","internalType":"address"},{"name":"tokenOut","type":"address","internalType":"address"},{"name":"amount","type":"uint256","internalType":"uint256"},{"name":"srcChainId","type":"uint256","internalType":"uint256"},{"name":"dstChainId","type":"uint256","internalType":"uint256"},{"name":"preferences","type":"tuple","internalType":"struct IBridgeAdapter.RoutePreferences","components":[{"name":"mode","type":"uint8","internalType":"enum IBridgeAdapter.RoutingMode"},{"name":"maxSlippageBps","type":"uint256","internalType":"uint256"},{"name":"maxFeeWei","type":"uint256","internalType":"uint256"},{"name":"maxTimeMinutes","type":"uint256","internalType":"uint256"},{"name":"allowMultiHop","type":"bool","internalType":"bool"}]},{"name":"maxRoutes","type":"uint256","internalType":"uint256"}],"outputs":[{"name":"routes","type":"tuple[]","internalType":"struct IBridgeAdapter.Route[]","components":[{"name":"adapter","type":"address","internalType":"address"},{"name":"tokenIn","type":"address","internalType":"address"},{"name":"tokenOut","type":"address","internalType":"address"},{"name":"amountIn","type":"uint256","internalType":"uint256"},{"name":"amountOut","type":"uint256","internalType":"uint256"},{"name":"srcChainId","type":"uint256","internalType":"uint256"},{"name":"dstChainId","type":"uint256","internalType":"uint256"},{"name":"metrics","type":"tuple","internalType":"struct IBridgeAdapter.RouteMetrics","components":[{"name":"estimatedGasCost","type":"uint256","internalType":"uint256"},{"name":"bridgeFee","type":"uint256","internalType":"uint256"},{"name":"totalCostWei","type":"uint256","internalType":"uint256"},{"name":"estimatedTimeMinutes","type":"uint256","internalType":"uint256"},{"name":"liquidityAvailable","type":"uint256","internalType":"uint256"},{"name":"successRate","type":"uint256","internalType":"uint256"},{"name":"congestionLevel","type":"uint256","internalType":"uint256"}]},{"name":"adapterData","type":"bytes","internalType":"bytes"},{"name":"deadline","type":"uint256","internalType":"uint256"}]}],"stateMutability":"view"},{"type":"function","name":"findOptimalRoute","inputs":[{"name":"tokenIn","type":"address","internalType":"address"},{"name":"tokenOut","type":"address","internalType":"address"},{"name":"amount","type":"uint256","internalType":"uint256"},{"name":"srcChainId","type":"uint256","internalType":"uint256"},{"name":"dstChainId","type":"uint256","internalType":"uint256"},{"name":"preferences","type":"tuple","internalType":"struct IBridgeAdapter.RoutePreferences","components":[{"name":"mode","type":"uint8","internalType":"enum IBridgeAdapter.RoutingMode"},{"name":"maxSlippageBps","type":"uint256","internalType":"uint256"},{"name":"maxFeeWei","type":"uint256","internalType":"uint256"},{"name":"maxTimeMinutes","type":"uint256","internalType":"uint256"},{"name":"allowMultiHop","type":"bool","internalType":"bool"}]}],"outputs":[{"name":"route","type":"tuple","internalType":"struct IBridgeAdapter.Route","components":[{"name":"adapter","type":"address","internalType":"address"},{"name":"tokenIn","type":"address","internalType":"address"},{"name":"tokenOut","type":"address","internalType":"address"},{"name":"amountIn","type":"uint256","internalType":"uint256"},{"name":"amountOut","type":"uint256","internalType":"uint256"},{"name":"srcChainId","type":"uint256","internalType":"uint256"},{"name":"dstChainId","type":"uint256","internalType":"uint256"},{"name":"metrics","type":"tuple","internalType":"struct IBridgeAdapter.RouteMetrics","components":[{"name":"estimatedGasCost","type":"uint256","internalType":"uint256"},{"name":"bridgeFee","type":"uint256","internalType":"uint256"},{"name":"totalCostWei","type":"uint256","internalType":"uint256"},{"name":"estimatedTimeMinutes","type":"uint256","internalType":"uint256"},{"name":"liquidityAvailable","type":"uint256","internalType":"uint256"},{"name":"successRate","type":"uint256","internalType":"uint256"},{"name":"congestionLevel","type":"uint256","internalType":"uint256"}]},{"name":"adapterData","type":"bytes","internalType":"bytes"},{"name":"deadline","type":"uint256","internalType":"uint256"}]}],"stateMutability":"view"},{"type":"function","name":"getBridgeMetrics","inputs":[{"name":"adapter","type":"address","internalType":"address"}],"outputs":[{"name":"metrics","type":"tuple","internalType":"struct RouteCalculator.BridgeMetrics","components":[{"name":"totalTransfers","type":"uint256","internalType":"uint256"},{"name":"successfulTransfers","type":"uint256","internalType":"uint256"},{"name":"totalVolume","type":"uint256","internalType":"uint256"},{"name":"avgCompletionTime","type":"uint256","internalType":"uint256"},{"name":"lastUpdateTime","type":"uint256","internalType":"uint256"},{"name":"isHealthy","type":"bool","internalType":"bool"}]}],"stateMutability":"view"},{"type":"function","name":"getRegisteredAdapters","inputs":[],"outputs":[{"name":"adapters","type":"address[]","internalType":"address[]"}],"stateMutability":"view"},{"type":"function","name":"owner","inputs":[],"outputs":[{"name":"","type":"address","internalType":"address"}],"stateMutability":"view"},{"type":"function","name":"registerAdapter","inputs":[{"name":"adapter","type":"address","internalType":"address"}],"outputs":[],"stateMutability":"nonpayable"},{"type":"function","name":"registeredAdapters","inputs":[{"name":"","type":"address","internalType":"address"}],"outputs":[{"name":"","type":"bool","internalType":"bool"}],"stateMutability":"view"},{"type":"function","name":"removeAdapter","inputs":[{"name":"adapter","type":"address","internalType":"address"}],"outputs":[],"stateMutability":"nonpayable"},{"type":"function","name":"renounceOwnership","inputs":[],"outputs":[],"stateMutability":"nonpayable"},{"type":"function","name":"routeCache","inputs":[{"name":"","type":"bytes32","internalType":"bytes32"}],"outputs":[{"name":"route","type":"tuple","internalType":"struct IBridgeAdapter.Route","components":[{"name":"adapter","type":"address","internalType":"address"},{"name":"tokenIn","type":"address","internalType":"address"},{"name":"tokenOut","type":"address","internalType":"address"},{"name":"amountIn","type":"uint256","internalType":"uint256"},{"name":"amountOut","type":"uint256","internalType":"uint256"},{"name":"srcChainId","type":"uint256","internalType":"uint256"},{"name":"dstChainId","type":"uint256","internalType":"uint256"},{"name":"metrics","type":"tuple","internalType":"struct IBridgeAdapter.RouteMetrics","components":[{"name":"estimatedGasCost","type":"uint256","internalType":"uint256"},{"name":"bridgeFee","type":"uint256","internalType":"uint256"},{"name":"totalCostWei","type":"uint256","internalType":"uint256"},{"name":"estimatedTimeMinutes","type":"uint256","internalType":"uint256"},{"name":"liquidityAvailable","type":"uint256","internalType":"uint256"},{"name":"successRate","type":"uint256","internalType":"uint256"},{"name":"congestionLevel","type":"uint256","internalType":"uint256"}]},{"name":"adapterData","type":"bytes","internalType":"bytes"},{"name":"deadline","type":"uint256","internalType":"uint256"}]},{"name":"cachedAt","type":"uint256","internalType":"uint256"},{"name":"score","type":"uint256","internalType":"uint256"},{"name":"isValid","type":"bool","internalType":"bool"}],"stateMutability":"view"},{"type":"function","name":"routeCacheTtl","inputs":[],"outputs":[{"name":"","type":"uint256","internalType":"uint256"}],"stateMutability":"view"},{"type":"function","name":"scoringWeights","inputs":[{"name":"","type":"uint8","internalType":"enum IBridgeAdapter.RoutingMode"}],"outputs":[{"name":"costWeight","type":"uint256","internalType":"uint256"},{"name":"speedWeight","type":"uint256","internalType":"uint256"},{"name":"reliabilityWeight","type":"uint256","internalType":"uint256"},{"name":"liquidityWeight","type":"uint256","internalType":"uint256"}],"stateMutability":"view"},{"type":"function","name":"transferOwnership","inputs":[{"name":"newOwner","type":"address","internalType":"address"}],"outputs":[],"stateMutability":"nonpayable"},{"type":"function","name":"updateBridgeMetrics","inputs":[{"name":"adapter","type":"address","internalType":"address"},{"name":"successful","type":"bool","internalType":"bool"},{"name":"completionTime","type":"uint256","internalType":"uint256"},{"name":"volume","type":"uint256","internalType":"uint256"}],"outputs":[],"stateMutability":"nonpayable"},{"type":"function","name":"updateRouteCacheTtl","inputs":[{"name":"newTtl","type":"uint256","internalType":"uint256"}],"outputs":[],"stateMutability":"nonpayable"},{"type":"function","name":"updateScoringWeights","inputs":[{"name":"mode","type":"uint8","internalType":"enum IBridgeAdapter.RoutingMode"},{"name":"weights","type":"tuple","internalType":"struct RouteCalculator.ScoringWeights","components":[{"name":"costWeight","type":"uint256","internalType":"uint256"},{"name":"speedWeight","type":"uint256","internalType":"uint256"},{"name":"reliabilityWeight","type":"uint256","internalType":"uint256"},{"name":"liquidityWeight","type":"uint256","internalType":"uint256"}]}],"outputs":[],"stateMutability":"nonpayable"},{"type":"event","name":"AdapterRegistered","inputs":[{"name":"adapter","type":"address","indexed":true,"internalType":"address"},{"name":"name","type":"string","indexed":false,"internalType":"string"}],"anonymous":false},{"type":"event","name":"AdapterRemoved","inputs":[{"name":"adapter","type":"address","indexed":true,"internalType":"address"}],"anonymous":false},{"type":"event","name":"BridgeMetricsUpdated","inputs":[{"name":"adapter","type":"address","indexed":true,"internalType":"address"},{"name":"metrics","type":"tuple","indexed":false,"internalType":"struct RouteCalculator.BridgeMetrics","components":[{"name":"totalTransfers","type":"uint256","internalType":"uint256"},{"name":"successfulTransfers","type":"uint256","internalType":"uint256"},{"name":"totalVolume","type":"uint256","internalType":"uint256"},{"name":"avgCompletionTime","type":"uint256","internalType":"uint256"},{"name":"lastUpdateTime","type":"uint256","internalType":"uint256"},{"name":"isHealthy","type":"bool","internalType":"bool"}]}],"anonymous":false},{"type":"event","name":"OwnershipTransferred","inputs":[{"name":"previousOwner","type":"address","indexed":true,"internalType":"address"},{"name":"newOwner","type":"address","indexed":true,"internalType":"address"}],"anonymous":false},{"type":"event","name":"RouteCached","inputs":[{"name":"routeHash","type":"bytes32","indexed":true,"internalType":"bytes32"},{"name":"ttl","type":"uint256","indexed":false,"internalType":"uint256"}],"anonymous":false},{"type":"event","name":"RouteCalculated","inputs":[{"name":"routeHash","type":"bytes32","indexed":true,"internalType":"bytes32"},{"name":"adapter","type":"address","indexed":true,"internalType":"address"},{"name":"score","type":"uint256","indexed":false,"internalType":"uint256"},{"name":"timestamp","type":"uint256","indexed":false,"internalType":"uint256"}],"anonymous":false},{"type":"error","name":"AdapterAlreadyRegistered","inputs":[]},{"type":"error","name":"AdapterNotRegistered","inputs":[]},{"type":"error","name":"InvalidAdapter","inputs":[]},{"type":"error","name":"InvalidCacheEntry","inputs":[]},{"type":"error","name":"InvalidScoringWeights","inputs":[]},{"type":"error","name":"NoValidRoutes","inputs":[]},{"type":"error","name":"OwnableInvalidOwner","inputs":[{"name":"owner","type":"address","internalType":"address"}]},{"type":"error","name":"OwnableUnauthorizedAccount","inputs":[{"name":"account","type":"address","internalType":"address"}]},{"type":"error","name":"ReentrancyGuardReentrantCall","inputs":[]}],"userdoc":{},"devdoc":{},"storageLayout":{"storage":[{"astId":35921,"contract":"src/core/RouteCalculator.sol:RouteCalculator","label":"_owner","offset":0,"slot":"0","type":"t_address"},{"astId":40408,"contract":"src/core/RouteCalculator.sol:RouteCalculator","label":"registeredAdapters","offset":0,"slot":"1","type":"t_mapping(t_address,t_bool)"},{"astId":40411,"contract":"src/core/RouteCalculator.sol:RouteCalculator","label":"adapterList","offset":0,"slot":"2","type":"t_array(t_address)dyn_storage"},{"astId":40416,"contract":"src/core/RouteCalculator.sol:RouteCalculator","label":"bridgeMetrics","offset":0,"slot":"3","type":"t_mapping(t_address,t_struct(BridgeMetrics)40392_storage)"},{"astId":40421,"contract":"src/core/RouteCalculator.sol:RouteCalculator","label":"routeCache","offset":0,"slot":"4","type":"t_mapping(t_bytes32,t_struct(CachedRoute)40379_storage)"},{"astId":40424,"contract":"src/core/RouteCalculator.sol:RouteCalculator","label":"routeCacheTtl","offset":0,"slot":"5","type":"t_uint256"},{"astId":40430,"contract":"src/core/RouteCalculator.sol:RouteCalculator","label":"scoringWeights","offset":0,"slot":"6","type":"t_mapping(t_enum(RoutingMode)44480,t_struct(ScoringWeights)40369_storage)"}],"types":{"t_address":{"encoding":"inplace","label":"address","numberOfBytes":"20"},"t_array(t_address)dyn_storage":{"encoding":"dynamic_array","label":"address[]","numberOfBytes":"32","base":"t_address"},"t_bool":{"encoding":"inplace","label":"bool","numberOfBytes":"1"},"t_bytes32":{"encoding":"inplace","label":"bytes32","numberOfBytes":"32"},"t_bytes_storage":{"encoding":"bytes","label":"bytes","numberOfBytes":"32"},"t_enum(RoutingMode)44480":{"encoding":"inplace","label":"enum IBridgeAdapter.RoutingMode","numberOfBytes":"1"},"t_mapping(t_address,t_bool)":{"encoding":"mapping","key":"t_address","label":"mapping(address => bool)","numberOfBytes":"32","value":"t_bool"},"t_mapping(t_address,t_struct(BridgeMetrics)40392_storage)":{"encoding":"mapping","key":"t_address","label":"mapping(address => struct RouteCalculator.BridgeMetrics)","numberOfBytes":"32","value":"t_struct(BridgeMetrics)40392_storage"},"t_mapping(t_bytes32,t_struct(CachedRoute)40379_storage)":{"encoding":"mapping","key":"t_bytes32","label":"mapping(bytes32 => struct RouteCalculator.CachedRoute)","numberOfBytes":"32","value":"t_struct(CachedRoute)40379_storage"},"t_mapping(t_enum(RoutingMode)44480,t_struct(ScoringWeights)40369_storage)":{"encoding":"mapping","key":"t_enum(RoutingMode)44480","label":"mapping(enum IBridgeAdapter.RoutingMode => struct RouteCalculator.ScoringWeights)","numberOfBytes":"32","value":"t_struct(ScoringWeights)40369_storage"},"t_struct(BridgeMetrics)40392_storage":{"encoding":"inplace","label":"struct RouteCalculator.BridgeMetrics","numberOfBytes":"192","members":[{"astId":40381,"contract":"src/core/RouteCalculator.sol:RouteCalculator","label":"totalTransfers","offset":0,"slot":"0","type":"t_uint256"},{"astId":40383,"contract":"src/core/RouteCalculator.sol:RouteCalculator","label":"successfulTransfers","offset":0,"slot":"1","type":"t_uint256"},{"astId":40385,"contract":"src/core/RouteCalculator.sol:RouteCalculator","label":"totalVolume","offset":0,"slot":"2","type":"t_uint256"},{"astId":40387,"contract":"src/core/RouteCalculator.sol:RouteCalculator","label":"avgCompletionTime","offset":0,"slot":"3","type":"t_uint256"},{"astId":40389,"contract":"src/core/RouteCalculator.sol:RouteCalculator","label":"lastUpdateTime","offset":0,"slot":"4","type":"t_uint256"},{"astId":40391,"contract":"src/core/RouteCalculator.sol:RouteCalculator","label":"isHealthy","offset":0,"slot":"5","type":"t_bool"}]},"t_struct(CachedRoute)40379_storage":{"encoding":"inplace","label":"struct RouteCalculator.CachedRoute","numberOfBytes":"608","members":[{"astId":40372,"contract":"src/core/RouteCalculator.sol:RouteCalculator","label":"route","offset":0,"slot":"0","type":"t_struct(Route)44532_storage"},{"astId":40374,"contract":"src/core/RouteCalculator.sol:RouteCalculator","label":"cachedAt","offset":0,"slot":"16","type":"t_uint256"},{"astId":40376,"contract":"src/core/RouteCalculator.sol:RouteCalculator","label":"score","offset":0,"slot":"17","type":"t_uint256"},{"astId":40378,"contract":"src/core/RouteCalculator.sol:RouteCalculator","label":"isValid","offset":0,"slot":"18","type":"t_bool"}]},"t_struct(Route)44532_storage":{"encoding":"inplace","label":"struct IBridgeAdapter.Route","numberOfBytes":"512","members":[{"astId":44512,"contract":"src/core/RouteCalculator.sol:RouteCalculator","label":"adapter","offset":0,"slot":"0","type":"t_address"},{"astId":44514,"contract":"src/core/RouteCalculator.sol:RouteCalculator","label":"tokenIn","offset":0,"slot":"1","type":"t_address"},{"astId":44516,"contract":"src/core/RouteCalculator.sol:RouteCalculator","label":"tokenOut","offset":0,"slot":"2","type":"t_address"},{"astId":44518,"contract":"src/core/RouteCalculator.sol:RouteCalculator","label":"amountIn","offset":0,"slot":"3","type":"t_uint256"},{"astId":44520,"contract":"src/core/RouteCalculator.sol:RouteCalculator","label":"amountOut","offset":0,"slot":"4","type":"t_uint256"},{"astId":44522,"contract":"src/core/RouteCalculator.sol:RouteCalculator","label":"srcChainId","offset":0,"slot":"5","type":"t_uint256"},{"astId":44524,"contract":"src/core/RouteCalculator.sol:RouteCalculator","label":"dstChainId","offset":0,"slot":"6","type":"t_uint256"},{"astId":44527,"contract":"src/core/RouteCalculator.sol:RouteCalculator","label":"metrics","offset":0,"slot":"7","type":"t_struct(RouteMetrics)44509_storage"},{"astId":44529,"contract":"src/core/RouteCalculator.sol:RouteCalculator","label":"adapterData","offset":0,"slot":"14","type":"t_bytes_storage"},{"astId":44531,"contract":"src/core/RouteCalculator.sol:RouteCalculator","label":"deadline","offset":0,"slot":"15","type":"t_uint256"}]},"t_struct(RouteMetrics)44509_storage":{"encoding":"inplace","label":"struct IBridgeAdapter.RouteMetrics","numberOfBytes":"224","members":[{"astId":44496,"contract":"src/core/RouteCalculator.sol:RouteCalculator","label":"estimatedGasCost","offset":0,"slot":"0","type":"t_uint256"},{"astId":44498,"contract":"src/core/RouteCalculator.sol:RouteCalculator","label":"bridgeFee","offset":0,"slot":"1","type":"t_uint256"},{"astId":44500,"contract":"src/core/RouteCalculator.sol:RouteCalculator","label":"totalCostWei","offset":0,"slot":"2","type":"t_uint256"},{"astId":44502,"contract":"src/core/RouteCalculator.sol:RouteCalculator","label":"estimatedTimeMinutes","offset":0,"slot":"3","type":"t_uint256"},{"astId":44504,"contract":"src/core/RouteCalculator.sol:RouteCalculator","label":"liquidityAvailable","offset":0,"slot":"4","type":"t_uint256"},{"astId":44506,"contract":"src/core/RouteCalculator.sol:RouteCalculator","label":"successRate","offset":0,"slot":"5","type":"t_uint256"},{"astId":44508,"contract":"src/core/RouteCalculator.sol:RouteCalculator","label":"congestionLevel","offset":0,"slot":"6","type":"t_uint256"}]},"t_struct(ScoringWeights)40369_storage":{"encoding":"inplace","label":"struct RouteCalculator.ScoringWeights","numberOfBytes":"128","members":[{"astId":40362,"contract":"src/core/RouteCalculator.sol:RouteCalculator","label":"costWeight","offset":0,"slot":"0","type":"t_uint256"},{"astId":40364,"contract":"src/core/RouteCalculator.sol:RouteCalculator","label":"speedWeight","offset":0,"slot":"1","type":"t_uint256"},{"astId":40366,"contract":"src/core/RouteCalculator.sol:RouteCalculator","label":"reliabilityWeight","offset":0,"slot":"2","type":"t_uint256"},{"astId":40368,"contract":"src/core/RouteCalculator.sol:RouteCalculator","label":"liquidityWeight","offset":0,"slot":"3","type":"t_uint256"}]},"t_uint256":{"encoding":"inplace","label":"uint256","numberOfBytes":"32"}}},"evm":{"bytecode":{"object":"6080604090808252346200017a5733156200016557505f8054336001600160a01b0319821681178355916001600160a01b03909116907f8be0079c531659141344cd1fd0a4f28419497f9722a3daafe3b4186f6b6457e09080a360017f9b779b17422d0df92223018b32b4d1fa46e071723d6817e2486d003becc55f0055603c6005556200008c6200017e565b603c81526020906003828201600f8152848301601481526060840191600583525f805260068652865f209451855551600185015551600284015551910155620000d46200017e565b600a81526003828201603c81528483016019815260608401916005835260015f5260068652865f20945185555160018501555160028401555191015560036200011c6200017e565b91601983528083016019815284840190601e8252600660608601936014855260025f5252855f209451855551600185015551600284015551910155516124809081620001b38239f35b631e4fbdf760e01b81525f6004820152602490fd5b5f80fd5b60405190608082016001600160401b038111838210176200019e57604052565b634e487b7160e01b5f52604160045260245ffdfe604060808152600480361015610013575f80fd5b5f3560e01c806322f2caf1146110ee5780632d6b1df214610c5157806331910ec414610a9e57806350fe82c2146109a4578063585cd34b1461082e578063715018a6146107ca5780638cb5fb6f146107aa5780638da5cb5b146107845780638e5038361461071e5780638e65e7131461064b578063967eaad1146105fa5780639fa98eb0146105df578063a27e9db914610443578063a3cb5c96146103d2578063c9dc160c14610396578063cead67f214610378578063cf2024ed14610338578063e0f944d91461031d578063e1f1c4a714610301578063e229cd76146102e5578063ecbed10014610223578063ef69ff00146101c65763f2fde38b14610118575f80fd5b346101c25760203660031901126101c257610131611367565b9061013a611a8b565b6001600160a01b038092169283156101935750505f548273ffffffffffffffffffffffffffffffffffffffff198216175f55167f8be0079c531659141344cd1fd0a4f28419497f9722a3daafe3b4186f6b6457e05f80a3005b905f60249251917f1e4fbdf7000000000000000000000000000000000000000000000000000000008352820152fd5b5f80fd5b82346101c2576101403660031901126101c25761021f9061020c6101e8611367565b6101f061137d565b906101fa36611486565b9160843591606435916044359161195a565b9051918291602083526020830190611521565b0390f35b82346101c2575f3660031901126101c25780519081600254908181526020809101809260025f527f405787fa12a823e0f2b7631cc41b3ba8828b3321ca811111fa75cd3aa3bb5ace905f5b8181106102c85750505084610284910385611448565b825181815293518185018190528493840192915f5b8281106102a857505050500390f35b83516001600160a01b031685528695509381019392810192600101610299565b82546001600160a01b03168452928401926001928301920161026e565b82346101c2575f3660031901126101c257602090516103e88152f35b82346101c2575f3660031901126101c257602090516127108152f35b82346101c2575f3660031901126101c25760209051600a8152f35b50346101c25760203660031901126101c25735906002548210156101c2576001600160a01b036103696020936117ac565b92905490519260031b1c168152f35b82346101c2575f3660031901126101c2576020906005549051908152f35b82346101c25760203660031901126101c2576020906001600160a01b036103bb611367565b165f526001825260ff815f20541690519015158152f35b50346101c25760203660031901126101c25760c0916001600160a01b036103f7611367565b165f526003602052805f2080549260018201549260028301549060ff600560038601549486015495015416948151968752602087015285015260608401526080830152151560a0820152f35b5090346101c25760803660031901126101c25761045e611367565b916024359182151583036101c2576001600160a01b03604435941693845f52600160205260ff825f205416156105d157845f526003602052815f20936104a4855461191b565b85556105bc575b60028401916104bd606435845461190e565b83556003850191825480155f14610587575082555b83850192428455600186019485549060648202918083046064149015171561057457509260c09592879592605a61052e60ff977f0dc5be41ed75fb96cd8da5356a388c2a7d2e868cd1180c267f6f05a9b0759de79b549061193c565b10159461054b6005890196879060ff801983541691151516179055565b82519754885254602088015254908601525460608501525460808401525416151560a0820152a2005b601190634e487b7160e01b5f525260245ffd5b600981029081046009036105a957600a916105a19161190e565b0482556104d2565b601186634e487b7160e01b5f525260245ffd5b600184016105ca815461191b565b90556104ab565b5051638966a85560e01b8152fd5b82346101c2575f3660031901126101c25760209051603c8152f35b50346101c25760203660031901126101c257359060038210156101c257610622608092611781565b908154916001810154916003600283015492015492815194855260208501528301526060820152f35b5090346101c25760203660031901126101c25760c0916001600160a01b03610671611367565b5f60a0855161067f816113a7565b82815282602082015282878201528260608201528260808201520152165f526003602052815f208251916106b2836113a7565b81549384845260018301546020850190815260028401549082860191825260a060ff600560038801549660608a019788528801549760808a01988952015416960195151586528251968752516020870152519085015251606084015251608083015251151560a0820152f35b5090346101c25760203660031901126101c2578161077092355f52602052805f206107488161161f565b9160108201549160ff6012601183015492015416918051958695608087526080870190611521565b936020860152840152151560608301520390f35b82346101c2575f3660031901126101c2576020906001600160a01b035f54169051908152f35b50346101c25760203660031901126101c2576107c4611a8b565b35600555005b346101c2575f3660031901126101c2576107e2611a8b565b5f6001600160a01b03815473ffffffffffffffffffffffffffffffffffffffff1981168355167f8be0079c531659141344cd1fd0a4f28419497f9722a3daafe3b4186f6b6457e08280a3005b5090346101c25760203660031901126101c257610849611367565b90610852611a8b565b6001600160a01b0380921691825f52600191600160205260ff815f20541615610995575f8481526001602052908120805460ff191690559293825b6108b9575b847fdf980d21d8c7bb34800e668dbe003299093bac8e693614151d3c57f73f98a93d5f80a2005b60028054908186101561098e578391876108d2886117ac565b949054600395861b1c16146108ee57505050828094019361088d565b91959094505f19929183810190811161097b579061091f8561091261093e946117ac565b9054908a1b1c16916117ac565b9091906001600160a01b038084549260031b9316831b921b1916179055565b835490811561096857500192610953846117ac565b81939154921b1b19169055555f808080610892565b603190634e487b7160e01b5f525260245ffd5b601183634e487b7160e01b5f525260245ffd5b5050610892565b849051638966a85560e01b8152fd5b5090346101c25760a03660031901126101c25781359160038310156101c25760803660231901126101c2578151916109db83611410565b6024358352602083016044358152606492828501928435845260608601946084358652610a06611a8b565b808751118015610a94575b8015610a8a575b8015610a80575b610a7357610a3e610a36610a36895187519061190e565b87519061190e565b03610a67575050610a5160039495611781565b9451855551600185015551600284015551910155005b51624756c960e51b8152fd5b5051624756c960e51b8152fd5b5080865111610a1f565b5080855111610a18565b5080845111610a11565b5090346101c2576101603660031901126101c257610aba611367565b90610ac361137d565b91610ae8610ad036611486565b80926101443595608435916064359160443591611d4c565b92835115610c4257835181811115610c3a5750925b610b068461188a565b92815193610b2b610b16866117f5565b95610b2384519788611448565b8087526117f5565b60209190601f190136878401375f5b8451811015610b8b57610b4d81866118d9565b518651906003821015610b785760019291610b6791611b59565b610b71828a6118d9565b5201610b3a565b60218b634e487b7160e01b5f525260245ffd5b50868489888251915f1983019283116105745750905f610bab92846121cf565b5f5b828110610c1057505050825191808301818452825180915281858501958260051b8601019301915f955b828710610be45785850386f35b909192938280610c00600193603f198a82030186528851611521565b9601920196019592919092610bd7565b80610c1d600192846118d9565b51610c2882876118d9565b52610c3381866118d9565b5001610bad565b905092610afd565b84835163dc9f7e9b60e01b8152fd5b5090346101c25760031960c0368201126101c257823567ffffffffffffffff928382116101c257610200823603938401126101c257805191610c92836113d7565b610c9d818701611393565b83526024610cac818301611393565b91602094858101938452610cc260448301611393565b9185820192835260609283830190606483013582526084830135608085015260a084019060a4840135825260e060c086019b60c48601358d5260e31901126101c2578851610d0f816113f4565b60e485013581526101048501358b8201526101248501358a82015261014485013587820152610164850135608082015261018485013560a08201526101a485013560c082015260e08601526101c48401358c81116101c2578401366023820112156101c2578d81013594610d828661146a565b95610d8f8c519788611448565b808752368a82850101116101c2578c815f928c6101e49601838b0137880101526101009586880152013561012086015260a06023193601126101c25788519a610dd78c61142c565b873560038110156101c2578c526044358b8d01526064358a8d0152608435878d015260a4359283151584036101c257610e2d948d9460808601526001600160a01b0380809c511694511690519151925193611ace565b975160038110156110dc579780999a610e4a600298999a85611b59565b95895194610e5786611410565b855260c08b8601964288528b87019889528b8d8289019b8c9760018099525f52868252825f209d8e9a519a8b83808251169573ffffffffffffffffffffffffffffffffffffffff1996878554161784558c8401920151168582541617905501928a015116908254161790558087015160038c01556080870151848c015560a087015160058c01558187015160068c015560e087015190815160078d01558d82015160088d01558c82015160098d0155810151600a8c01556080810151600b8c015560a0810151600c8c01550151600d8a0155600e8901938501519182519d8e116110cb5750508b610f4884546115e7565b601f8111611083575b50508990601f8d11600114610fed57928c807f65b5798fb4f7fd871d8813bd5c2de03375dc95b8d25a6fb8c7b5d0a7c8ebec999d9e6101209560129a9895610fd79d9c9a985f94610fe2575b50501b915f199060031b1c19161790555b0151600f86015551601085015551601184015551151591019060ff801983541691151516179055565b6005549051908152a2005b015192505f80610f9d565b9b90601f1982169c845f528b5f209d5f5b8181106110685750927f65b5798fb4f7fd871d8813bd5c2de03375dc95b8d25a6fb8c7b5d0a7c8ebec999d9e610fd79b9a98969361012096938360129c9a9710611050575b505050811b019055610fae565b01515f1960f88460031b161c191690555f8080611043565b919e8f868f928684930151815501940192019e91929e610ffe565b845f528b5f20908c601f840160051c830193106110c1575b601f0160051c019083905b8281106110b657508d9150610f51565b5f81550183906110a6565b909150819061109b565b604190634e487b7160e01b5f52525ffd5b8460218c634e487b7160e01b5f52525ffd5b5090346101c257602091826003193601126101c25761110b611367565b92611114611a8b565b6001600160a01b03841693841561133f57845f5260019081835260ff855f20541661131757855f52818352845f208260ff198254161790556002546801000000000000000081101561130457829161091f826111e79561117794016002556117ac565b6005855191611185836113a7565b5f8352848301905f82528784015f815260608501905f8252608086019242845260a08701948186528c5f5260038a528b5f20975188555190870155516002860155516003850155518684015551151591019060ff801983541691151516179055565b5f835180937fb8b2233d00000000000000000000000000000000000000000000000000000000825281875afa9182156112fa575f9261125b575b506112567f1e4247fdab5708a9838dfa7049b607d56751d7e44584c555c3ca8883b992806593519282849384528301906114fc565b0390a2005b9291503d805f853e61126d8185611448565b83019281818503126101c25780519067ffffffffffffffff82116101c257019280601f850112156101c2578351906112a48261146a565b906112b185519283611448565b8282528383870101116101c2576112f2611256927f1e4247fdab5708a9838dfa7049b607d56751d7e44584c555c3ca8883b9928065968580850191016114db565b929350611221565b83513d5f823e3d90fd5b604185634e487b7160e01b5f525260245ffd5b8385517f757d2ccf000000000000000000000000000000000000000000000000000000008152fd5b8284517ffbf66df1000000000000000000000000000000000000000000000000000000008152fd5b600435906001600160a01b03821682036101c257565b602435906001600160a01b03821682036101c257565b35906001600160a01b03821682036101c257565b60c0810190811067ffffffffffffffff8211176113c357604052565b634e487b7160e01b5f52604160045260245ffd5b610140810190811067ffffffffffffffff8211176113c357604052565b60e0810190811067ffffffffffffffff8211176113c357604052565b6080810190811067ffffffffffffffff8211176113c357604052565b60a0810190811067ffffffffffffffff8211176113c357604052565b90601f8019910116810190811067ffffffffffffffff8211176113c357604052565b67ffffffffffffffff81116113c357601f01601f191660200190565b60a09060a31901126101c2576040519061149f8261142c565b8160a43560038110156101c257815260c435602082015260e4356040820152610104356060820152610124359081151582036101c25760800152565b5f5b8381106114ec5750505f910152565b81810151838201526020016114dd565b90602091611515815180928185528580860191016114db565b601f01601f1916010190565b906101e06102006001600160a01b038085511684528060208601511660208501526040850151166040840152606084015160608401526080840151608084015260a084015160a084015260c084015160c08401526115de60e085015191825160e08601526020830151610100908187015260c060408501519461012095868901526060810151610140890152608081015161016089015260a081015161018089015201516101a087015286015190806101c08701528501906114fc565b93015191015290565b90600182811c92168015611615575b602083101461160157565b634e487b7160e01b5f52602260045260245ffd5b91607f16916115f6565b9060405161162c816113d7565b80926001600160a01b03808254168352600181600184015416916020928386015260028401541660408501526003830154606085015260048301546080850152600583015460a0850152600683015460c085015260405161168c816113f4565b6007840154815260088401548382015260098401546040820152600a8401546060820152600b8401546080820152600c84015460a0820152600d84015460c082015260e0850152600e830191604051925f928154916116ea836115e7565b808752926001811690811561175f5750600114611726575b505050509181611719600f93610120950382611448565b6101008501520154910152565b5f908152838120939450925b82841061174c575050508201018161171981610120611702565b8054868501860152928401928101611732565b60ff191685880152505050151560051b83010190508161171981610120611702565b6003811015611798575f52600660205260405f2090565b634e487b7160e01b5f52602160045260245ffd5b6002548110156117e15760025f527f405787fa12a823e0f2b7631cc41b3ba8828b3321ca811111fa75cd3aa3bb5ace01905f90565b634e487b7160e01b5f52603260045260245ffd5b67ffffffffffffffff81116113c35760051b60200190565b6040519061181a826113d7565b5f610120838281528260208201528260408201528260608201528260808201528260a08201528260c0820152604051611852816113f4565b8381528360208201528360408201528360608201528360808201528360a08201528360c082015260e082015260606101008201520152565b90611894826117f5565b6118a16040519182611448565b82815280926118b2601f19916117f5565b01905f5b8281106118c257505050565b6020906118cd61180d565b828285010152016118b6565b80518210156117e15760209160051b010190565b919082039182116118fa57565b634e487b7160e01b5f52601160045260245ffd5b919082018092116118fa57565b5f1981146118fa5760010190565b818102929181159184041417156118fa57565b8115611946570490565b634e487b7160e01b5f52601260045260245ffd5b95949392919061196861180d565b5061197785858585858c611ace565b5f52600496600460205260405f206040519061199282611410565b61199b8161161f565b825260ff60126010830154928360208601526011810154604086015201541615159081606084015281611a76575b50611a6b5750918593916119dd9593611d4c565b90815115611a5a575f915f935f5b8251811015611a46576119fe81846118d9565b518451906003821015611a335790611a1591611b59565b858111611a26575b506001016119eb565b9095509350846001611a1d565b602189634e487b7160e01b5f525260245ffd5b5094509050611a569291506118d9565b5190565b600460405163dc9f7e9b60e01b8152fd5b519750505050505050565b611a819150426118ed565b600554115f6119c9565b6001600160a01b035f54163303611a9e57565b60246040517f118cdaa7000000000000000000000000000000000000000000000000000000008152336004820152fd5b93949192909482519160038310156117985760406020850151940151946040519660208801986bffffffffffffffffffffffff19809260601b168a5260601b16603488015260488701526068860152608885015260f81b60a884015260a983015260c982015260c98152610100810181811067ffffffffffffffff8211176113c35760405251902090565b90611b6390611781565b604051611b6f81611410565b815491828252600181015491611bba611bb2611baa60208401958087526003600287015496604087019788520154976060860198895261190e565b84519061190e565b85519061190e565b15611d435760c09260e0860194611bd5604087510151612387565b93611be46060885101516123cd565b9087519160a083015194611c1260649b8c978881115f14611d3857506060608089975b015191015190612409565b975f97519081151580611d2f575b611d18575b5050519081151580611d0f575b611cf7575b5050519081151580611cee575b611cd6575b5050519283151580611ccd575b611cb1575b50509050915101516032811180611ca7575b611c78575b50905090565b60011c82811015611c9e5782038281116118fa57611c9591611929565b045b805f611c72565b5050505f611c97565b5082811115611c6d565b611cc593611cbe91611929565b049061190e565b80845f611c5b565b50801515611c56565b611cbe611ce69395928592611929565b915f80611c49565b50801515611c44565b611cbe611d079397928792611929565b935f80611c37565b50801515611c32565b8792985090611d2691611929565b04955f80611c25565b50801515611c20565b608060609197611c07565b50505050505f90565b9293949060025491611d5d8361188a565b965f965f965b858810611db5575050505050505050611d7b8161188a565b915f5b828110611d8b5750505090565b80611d98600192846118d9565b51611da382876118d9565b52611dae81866118d9565b5001611d7e565b9091929394959697611dc6896117ac565b90916001600160a01b03925492600392818582861b1c165f528360205260ff600560405f2001541615612159576040517fe9dd08740000000000000000000000000000000000000000000000000000000081526001600160a01b0387811660048301528b166024820152604481018890526064810189905260208160848185891b8a901c87165afa9081156120b2575f91612167575b501561215957604051917f15a3d37a0000000000000000000000000000000000000000000000000000000083528087166004840152808b1660248401528c604484015287606484015288608484015260e08360a481848a878b1b1c165afa9283156120b2575f936120d9575b5060408a015180151590816120cb575b5061206e5760608a015180151590816120bd575b5061206e576040517f3542284b0000000000000000000000000000000000000000000000000000000081526001600160a01b0388811660048301528c16602482015260448101899052606481018a9052602081608481868a1b8b901c86165afa80156120b2578e915f9161207d575b501061206e578c611f7660208c0151916020860151906118ed565b90801561206557905b6127109182038281116118fa57611f9591611929565b04916060840151603c908181029181830414901517156118fa57611fb9904261190e565b9661012c88018098116118fa57829160405197611fd5896113d7565b1b1c16855280871660208601528a1660408501528b606085015260808401528560a08401528660c084015260e083015260405191602083019383851067ffffffffffffffff8611176113c357828e61204592612056966001986040525f81526101008601526101208501526118d9565b52612050818d6118d9565b5061191b565b985b0196959493929190611d63565b50603290611f7f565b50505099905060019150612058565b9150506020813d6020116120aa575b8161209960209383611448565b810103126101c2578d90515f611f5b565b3d915061208c565b6040513d5f823e3d90fd5b90506060840151115f611eec565b90506040840151115f611ed8565b90925060e0813d60e011612151575b816120f560e09383611448565b810103126101c2576040519061210a826113f4565b805182526020810151602083015260408101516040830152606080820151908301526080808201519083015260a0808201519083015260c08091015190820152915f611ec8565b3d91506120e8565b505099905060019150612058565b90506020813d60201161219a575b8161218260209383611448565b810103126101c2575180151581036101c2575f611e5c565b3d9150612175565b905f1982019182136001166118fa57565b9060018201915f6001841291129080158216911516176118fa57565b909291928284126121e1575b50505050565b6121eb83826118d9565b516121f5856121a2565b90855b8581126122c957505061229c8161221a6122146122ae946121b3565b866118d9565b5161224461222888886118d9565b51612232846121b3565b9061223d828a6118d9565b52876118d9565b5061224f87876118d9565b5261225a86866118d9565b5061226d612267826121b3565b856118d9565b5161227887866118d9565b5161228b612285846121b3565b876118d9565b5261229687866118d9565b526121b3565b946122a6866121a2565b9083856121cf565b6122ba6122c0946121b3565b916121cf565b5f8080806121db565b816122d482866118d9565b5110156122e4575b6001016121f8565b917f7fffffffffffffffffffffffffffffffffffffffffffffffffffffffffffffff81146118fa5760018091019261231c84876118d9565b5161232782886118d9565b5161233286896118d9565b5261233d85886118d9565b5061234882886118d9565b5261235381876118d9565b5061235e84866118d9565b5161236982876118d9565b5161237486886118d9565b5261237f82876118d9565b5290506122dc565b80156123c75767016345785d8a000090818110156123c157808203908282116118fa576064820291820460641490831417156118fa570490565b50505f90565b50606490565b80156123c757603c8110156124045780603c0390603c82116118fa576064820291820460641490603c1417156118fa57603c900490565b505f90565b811561246c5780156123c1578181106123c157606482029182046064036118fa576124339161193c565b600a8111156123c757601981111561246657603281111561246057604b101561245b57601490565b602890565b50603c90565b50605090565b505060649056fea164736f6c6343000818000a","linkReferences":{}},"methodIdentifiers":{"BASIS_POINTS()":"e1f1c4a7","DEFAULT_CACHE_TTL()":"9fa98eb0","MAX_ROUTES_PER_QUERY()":"e0f944d9","MAX_SLIPPAGE_BPS()":"e229cd76","adapterList(uint256)":"cf2024ed","bridgeMetrics(address)":"a3cb5c96","cacheRoute((address,address,address,uint256,uint256,uint256,uint256,(uint256,uint256,uint256,uint256,uint256,uint256,uint256),bytes,uint256),(uint8,uint256,uint256,uint256,bool))":"2d6b1df2","findMultipleRoutes(address,address,uint256,uint256,uint256,(uint8,uint256,uint256,uint256,bool),uint256)":"31910ec4","findOptimalRoute(address,address,uint256,uint256,uint256,(uint8,uint256,uint256,uint256,bool))":"ef69ff00","getBridgeMetrics(address)":"8e65e713","getRegisteredAdapters()":"ecbed100","owner()":"8da5cb5b","registerAdapter(address)":"22f2caf1","registeredAdapters(address)":"c9dc160c","removeAdapter(address)":"585cd34b","renounceOwnership()":"715018a6","routeCache(bytes32)":"8e503836","routeCacheTtl()":"cead67f2","scoringWeights(uint8)":"967eaad1","transferOwnership(address)":"f2fde38b","updateBridgeMetrics(address,bool,uint256,uint256)":"a27e9db9","updateRouteCacheTtl(uint256)":"8cb5fb6f","updateScoringWeights(uint8,(uint256,uint256,uint256,uint256))":"50fe82c2"}}}}}