{"src/core/SettlementSwitch.sol":{"SettlementSwitch":{"abi":[{"type":"constructor","inputs":[{"name":"admin","type":"address","internalType":"address"},{"name":"_routeCalculator","type":"address","internalType":"address"},{"name":"_bridgeRegistry","type":"address","internalType":"address"},{"name":"_feeManager","type":"address","internalType":"address payable"}],"stateMutability":"nonpayable"},{"type":"receive","stateMutability":"payable"},{"type":"function","name":"ARBITRUM_ONE","inputs":[],"outputs":[{"name":"","type":"uint256","internalType":"uint256"}],"stateMutability":"view"},{"type":"function","name":"ARBITRUM_SEPOLIA","inputs":[],"outputs":[{"name":"","type":"uint256","internalType":"uint256"}],"stateMutability":"view"},{"type":"function","name":"BASIS_POINTS","inputs":[],"outputs":[{"name":"","type":"uint256","internalType":"uint256"}],"stateMutability":"view"},{"type":"function","name":"DEFAULT_ADMIN_ROLE","inputs":[],"outputs":[{"name":"","type":"bytes32","internalType":"bytes32"}],"stateMutability":"view"},{"type":"function","name":"EMERGENCY_ROLE","inputs":[],"outputs":[{"name":"","type":"bytes32","internalType":"bytes32"}],"stateMutability":"view"},{"type":"function","name":"ETHEREUM_MAINNET","inputs":[],"outputs":[{"name":"","type":"uint256","internalType":"uint256"}],"stateMutability":"view"},{"type":"function","name":"ETHEREUM_SEPOLIA","inputs":[],"outputs":[{"name":"","type":"uint256","internalType":"uint256"}],"stateMutability":"view"},{"type":"function","name":"MAX_ROUTES_PER_QUERY","inputs":[],"outputs":[{"name":"","type":"uint256","internalType":"uint256"}],"stateMutability":"view"},{"type":"function","name":"MAX_SLIPPAGE_BPS","inputs":[],"outputs":[{"name":"","type":"uint256","internalType":"uint256"}],"stateMutability":"view"},{"type":"function","name":"MIN_TRANSFER_INTERVAL","inputs":[],"outputs":[{"name":"","type":"uint256","internalType":"uint256"}],"stateMutability":"view"},{"type":"function","name":"POLYGON_MAINNET","inputs":[],"outputs":[{"name":"","type":"uint256","internalType":"uint256"}],"stateMutability":"view"},{"type":"function","name":"POLYGON_MUMBAI","inputs":[],"outputs":[{"name":"","type":"uint256","internalType":"uint256"}],"stateMutability":"view"},{"type":"function","name":"ROUTE_CACHE_TTL","inputs":[],"outputs":[{"name":"","type":"uint256","internalType":"uint256"}],"stateMutability":"view"},{"type":"function","name":"SETTLEMENT_OPERATOR_ROLE","inputs":[],"outputs":[{"name":"","type":"bytes32","internalType":"bytes32"}],"stateMutability":"view"},{"type":"function","name":"allTransferIds","inputs":[{"name":"","type":"uint256","internalType":"uint256"}],"outputs":[{"name":"","type":"bytes32","internalType":"bytes32"}],"stateMutability":"view"},{"type":"function","name":"blacklistedAddresses","inputs":[{"name":"","type":"address","internalType":"address"}],"outputs":[{"name":"","type":"bool","internalType":"bool"}],"stateMutability":"view"},{"type":"function","name":"bridgeRegistry","inputs":[],"outputs":[{"name":"","type":"address","internalType":"contract BridgeRegistry"}],"stateMutability":"view"},{"type":"function","name":"bridgeWithAutoRoute","inputs":[{"name":"tokenIn","type":"address","internalType":"address"},{"name":"tokenOut","type":"address","internalType":"address"},{"name":"amount","type":"uint256","internalType":"uint256"},{"name":"srcChainId","type":"uint256","internalType":"uint256"},{"name":"dstChainId","type":"uint256","internalType":"uint256"},{"name":"recipient","type":"address","internalType":"address"},{"name":"preferences","type":"tuple","internalType":"struct IBridgeAdapter.RoutePreferences","components":[{"name":"mode","type":"uint8","internalType":"enum IBridgeAdapter.RoutingMode"},{"name":"maxSlippageBps","type":"uint256","internalType":"uint256"},{"name":"maxFeeWei","type":"uint256","internalType":"uint256"},{"name":"maxTimeMinutes","type":"uint256","internalType":"uint256"},{"name":"allowMultiHop","type":"bool","internalType":"bool"}]},{"name":"permitData","type":"bytes","internalType":"bytes"}],"outputs":[{"name":"transferId","type":"bytes32","internalType":"bytes32"}],"stateMutability":"payable"},{"type":"function","name":"chainConfigs","inputs":[{"name":"","type":"uint256","internalType":"uint256"}],"outputs":[{"name":"chainId","type":"uint256","internalType":"uint256"},{"name":"name","type":"string","internalType":"string"},{"name":"isSupported","type":"bool","internalType":"bool"},{"name":"maxGasPrice","type":"uint256","internalType":"uint256"},{"name":"wethAddress","type":"address","internalType":"address"}],"stateMutability":"view"},{"type":"function","name":"defaultDailyLimit","inputs":[],"outputs":[{"name":"","type":"uint256","internalType":"uint256"}],"stateMutability":"view"},{"type":"function","name":"emergencyPause","inputs":[{"name":"reason","type":"string","internalType":"string"}],"outputs":[],"stateMutability":"nonpayable"},{"type":"function","name":"emergencyUnpause","inputs":[],"outputs":[],"stateMutability":"nonpayable"},{"type":"function","name":"emergencyWithdraw","inputs":[{"name":"token","type":"address","internalType":"address"},{"name":"amount","type":"uint256","internalType":"uint256"},{"name":"recipient","type":"address","internalType":"address"}],"outputs":[],"stateMutability":"nonpayable"},{"type":"function","name":"executeBatchBridge","inputs":[{"name":"routes","type":"tuple[]","internalType":"struct IBridgeAdapter.Route[]","components":[{"name":"adapter","type":"address","internalType":"address"},{"name":"tokenIn","type":"address","internalType":"address"},{"name":"tokenOut","type":"address","internalType":"address"},{"name":"amountIn","type":"uint256","internalType":"uint256"},{"name":"amountOut","type":"uint256","internalType":"uint256"},{"name":"srcChainId","type":"uint256","internalType":"uint256"},{"name":"dstChainId","type":"uint256","internalType":"uint256"},{"name":"metrics","type":"tuple","internalType":"struct IBridgeAdapter.RouteMetrics","components":[{"name":"estimatedGasCost","type":"uint256","internalType":"uint256"},{"name":"bridgeFee","type":"uint256","internalType":"uint256"},{"name":"totalCostWei","type":"uint256","internalType":"uint256"},{"name":"estimatedTimeMinutes","type":"uint256","internalType":"uint256"},{"name":"liquidityAvailable","type":"uint256","internalType":"uint256"},{"name":"successRate","type":"uint256","internalType":"uint256"},{"name":"congestionLevel","type":"uint256","internalType":"uint256"}]},{"name":"adapterData","type":"bytes","internalType":"bytes"},{"name":"deadline","type":"uint256","internalType":"uint256"}]},{"name":"recipients","type":"address[]","internalType":"address[]"},{"name":"permitData","type":"bytes[]","internalType":"bytes[]"}],"outputs":[{"name":"transferIds","type":"bytes32[]","internalType":"bytes32[]"}],"stateMutability":"payable"},{"type":"function","name":"executeBridge","inputs":[{"name":"route","type":"tuple","internalType":"struct IBridgeAdapter.Route","components":[{"name":"adapter","type":"address","internalType":"address"},{"name":"tokenIn","type":"address","internalType":"address"},{"name":"tokenOut","type":"address","internalType":"address"},{"name":"amountIn","type":"uint256","internalType":"uint256"},{"name":"amountOut","type":"uint256","internalType":"uint256"},{"name":"srcChainId","type":"uint256","internalType":"uint256"},{"name":"dstChainId","type":"uint256","internalType":"uint256"},{"name":"metrics","type":"tuple","internalType":"struct IBridgeAdapter.RouteMetrics","components":[{"name":"estimatedGasCost","type":"uint256","internalType":"uint256"},{"name":"bridgeFee","type":"uint256","internalType":"uint256"},{"name":"totalCostWei","type":"uint256","internalType":"uint256"},{"name":"estimatedTimeMinutes","type":"uint256","internalType":"uint256"},{"name":"liquidityAvailable","type":"uint256","internalType":"uint256"},{"name":"successRate","type":"uint256","internalType":"uint256"},{"name":"congestionLevel","type":"uint256","internalType":"uint256"}]},{"name":"adapterData","type":"bytes","internalType":"bytes"},{"name":"deadline","type":"uint256","internalType":"uint256"}]},{"name":"recipient","type":"address","internalType":"address"},{"name":"permitData","type":"bytes","internalType":"bytes"}],"outputs":[{"name":"transferId","type":"bytes32","internalType":"bytes32"}],"stateMutability":"payable"},{"type":"function","name":"executeMultiPathBridge","inputs":[{"name":"multiPath","type":"tuple","internalType":"struct ISettlementSwitch.MultiPathRoute","components":[{"name":"routes","type":"tuple[]","internalType":"struct IBridgeAdapter.Route[]","components":[{"name":"adapter","type":"address","internalType":"address"},{"name":"tokenIn","type":"address","internalType":"address"},{"name":"tokenOut","type":"address","internalType":"address"},{"name":"amountIn","type":"uint256","internalType":"uint256"},{"name":"amountOut","type":"uint256","internalType":"uint256"},{"name":"srcChainId","type":"uint256","internalType":"uint256"},{"name":"dstChainId","type":"uint256","internalType":"uint256"},{"name":"metrics","type":"tuple","internalType":"struct IBridgeAdapter.RouteMetrics","components":[{"name":"estimatedGasCost","type":"uint256","internalType":"uint256"},{"name":"bridgeFee","type":"uint256","internalType":"uint256"},{"name":"totalCostWei","type":"uint256","internalType":"uint256"},{"name":"estimatedTimeMinutes","type":"uint256","internalType":"uint256"},{"name":"liquidityAvailable","type":"uint256","internalType":"uint256"},{"name":"successRate","type":"uint256","internalType":"uint256"},{"name":"congestionLevel","type":"uint256","internalType":"uint256"}]},{"name":"adapterData","type":"bytes","internalType":"bytes"},{"name":"deadline","type":"uint256","internalType":"uint256"}]},{"name":"amounts","type":"uint256[]","internalType":"uint256[]"},{"name":"totalAmount","type":"uint256","internalType":"uint256"},{"name":"totalCost","type":"uint256","internalType":"uint256"},{"name":"maxTime","type":"uint256","internalType":"uint256"}]},{"name":"recipient","type":"address","internalType":"address"},{"name":"permitData","type":"bytes","internalType":"bytes"}],"outputs":[{"name":"transferIds","type":"bytes32[]","internalType":"bytes32[]"}],"stateMutability":"payable"},{"type":"function","name":"executePermit","inputs":[{"name":"token","type":"address","internalType":"address"},{"name":"permitData","type":"bytes","internalType":"bytes"}],"outputs":[],"stateMutability":"nonpayable"},{"type":"function","name":"feeManager","inputs":[],"outputs":[{"name":"","type":"address","internalType":"contract FeeManager"}],"stateMutability":"view"},{"type":"function","name":"findMultiPathRoute","inputs":[{"name":"tokenIn","type":"address","internalType":"address"},{"name":"tokenOut","type":"address","internalType":"address"},{"name":"amount","type":"uint256","internalType":"uint256"},{"name":"srcChainId","type":"uint256","internalType":"uint256"},{"name":"dstChainId","type":"uint256","internalType":"uint256"},{"name":"preferences","type":"tuple","internalType":"struct IBridgeAdapter.RoutePreferences","components":[{"name":"mode","type":"uint8","internalType":"enum IBridgeAdapter.RoutingMode"},{"name":"maxSlippageBps","type":"uint256","internalType":"uint256"},{"name":"maxFeeWei","type":"uint256","internalType":"uint256"},{"name":"maxTimeMinutes","type":"uint256","internalType":"uint256"},{"name":"allowMultiHop","type":"bool","internalType":"bool"}]}],"outputs":[{"name":"multiPath","type":"tuple","internalType":"struct ISettlementSwitch.MultiPathRoute","components":[{"name":"routes","type":"tuple[]","internalType":"struct IBridgeAdapter.Route[]","components":[{"name":"adapter","type":"address","internalType":"address"},{"name":"tokenIn","type":"address","internalType":"address"},{"name":"tokenOut","type":"address","internalType":"address"},{"name":"amountIn","type":"uint256","internalType":"uint256"},{"name":"amountOut","type":"uint256","internalType":"uint256"},{"name":"srcChainId","type":"uint256","internalType":"uint256"},{"name":"dstChainId","type":"uint256","internalType":"uint256"},{"name":"metrics","type":"tuple","internalType":"struct IBridgeAdapter.RouteMetrics","components":[{"name":"estimatedGasCost","type":"uint256","internalType":"uint256"},{"name":"bridgeFee","type":"uint256","internalType":"uint256"},{"name":"totalCostWei","type":"uint256","internalType":"uint256"},{"name":"estimatedTimeMinutes","type":"uint256","internalType":"uint256"},{"name":"liquidityAvailable","type":"uint256","internalType":"uint256"},{"name":"successRate","type":"uint256","internalType":"uint256"},{"name":"congestionLevel","type":"uint256","internalType":"uint256"}]},{"name":"adapterData","type":"bytes","internalType":"bytes"},{"name":"deadline","type":"uint256","internalType":"uint256"}]},{"name":"amounts","type":"uint256[]","internalType":"uint256[]"},{"name":"totalAmount","type":"uint256","internalType":"uint256"},{"name":"totalCost","type":"uint256","internalType":"uint256"},{"name":"maxTime","type":"uint256","internalType":"uint256"}]}],"stateMutability":"view"},{"type":"function","name":"findMultipleRoutes","inputs":[{"name":"tokenIn","type":"address","internalType":"address"},{"name":"tokenOut","type":"address","internalType":"address"},{"name":"amount","type":"uint256","internalType":"uint256"},{"name":"srcChainId","type":"uint256","internalType":"uint256"},{"name":"dstChainId","type":"uint256","internalType":"uint256"},{"name":"preferences","type":"tuple","internalType":"struct IBridgeAdapter.RoutePreferences","components":[{"name":"mode","type":"uint8","internalType":"enum IBridgeAdapter.RoutingMode"},{"name":"maxSlippageBps","type":"uint256","internalType":"uint256"},{"name":"maxFeeWei","type":"uint256","internalType":"uint256"},{"name":"maxTimeMinutes","type":"uint256","internalType":"uint256"},{"name":"allowMultiHop","type":"bool","internalType":"bool"}]},{"name":"maxRoutes","type":"uint256","internalType":"uint256"}],"outputs":[{"name":"routes","type":"tuple[]","internalType":"struct IBridgeAdapter.Route[]","components":[{"name":"adapter","type":"address","internalType":"address"},{"name":"tokenIn","type":"address","internalType":"address"},{"name":"tokenOut","type":"address","internalType":"address"},{"name":"amountIn","type":"uint256","internalType":"uint256"},{"name":"amountOut","type":"uint256","internalType":"uint256"},{"name":"srcChainId","type":"uint256","internalType":"uint256"},{"name":"dstChainId","type":"uint256","internalType":"uint256"},{"name":"metrics","type":"tuple","internalType":"struct IBridgeAdapter.RouteMetrics","components":[{"name":"estimatedGasCost","type":"uint256","internalType":"uint256"},{"name":"bridgeFee","type":"uint256","internalType":"uint256"},{"name":"totalCostWei","type":"uint256","internalType":"uint256"},{"name":"estimatedTimeMinutes","type":"uint256","internalType":"uint256"},{"name":"liquidityAvailable","type":"uint256","internalType":"uint256"},{"name":"successRate","type":"uint256","internalType":"uint256"},{"name":"congestionLevel","type":"uint256","internalType":"uint256"}]},{"name":"adapterData","type":"bytes","internalType":"bytes"},{"name":"deadline","type":"uint256","internalType":"uint256"}]}],"stateMutability":"view"},{"type":"function","name":"findOptimalRoute","inputs":[{"name":"tokenIn","type":"address","internalType":"address"},{"name":"tokenOut","type":"address","internalType":"address"},{"name":"amount","type":"uint256","internalType":"uint256"},{"name":"srcChainId","type":"uint256","internalType":"uint256"},{"name":"dstChainId","type":"uint256","internalType":"uint256"},{"name":"preferences","type":"tuple","internalType":"struct IBridgeAdapter.RoutePreferences","components":[{"name":"mode","type":"uint8","internalType":"enum IBridgeAdapter.RoutingMode"},{"name":"maxSlippageBps","type":"uint256","internalType":"uint256"},{"name":"maxFeeWei","type":"uint256","internalType":"uint256"},{"name":"maxTimeMinutes","type":"uint256","internalType":"uint256"},{"name":"allowMultiHop","type":"bool","internalType":"bool"}]}],"outputs":[{"name":"route","type":"tuple","internalType":"struct IBridgeAdapter.Route","components":[{"name":"adapter","type":"address","internalType":"address"},{"name":"tokenIn","type":"address","internalType":"address"},{"name":"tokenOut","type":"address","internalType":"address"},{"name":"amountIn","type":"uint256","internalType":"uint256"},{"name":"amountOut","type":"uint256","internalType":"uint256"},{"name":"srcChainId","type":"uint256","internalType":"uint256"},{"name":"dstChainId","type":"uint256","internalType":"uint256"},{"name":"metrics","type":"tuple","internalType":"struct IBridgeAdapter.RouteMetrics","components":[{"name":"estimatedGasCost","type":"uint256","internalType":"uint256"},{"name":"bridgeFee","type":"uint256","internalType":"uint256"},{"name":"totalCostWei","type":"uint256","internalType":"uint256"},{"name":"estimatedTimeMinutes","type":"uint256","internalType":"uint256"},{"name":"liquidityAvailable","type":"uint256","internalType":"uint256"},{"name":"successRate","type":"uint256","internalType":"uint256"},{"name":"congestionLevel","type":"uint256","internalType":"uint256"}]},{"name":"adapterData","type":"bytes","internalType":"bytes"},{"name":"deadline","type":"uint256","internalType":"uint256"}]}],"stateMutability":"view"},{"type":"function","name":"getAvailableLiquidity","inputs":[{"name":"tokenIn","type":"address","internalType":"address"},{"name":"tokenOut","type":"address","internalType":"address"},{"name":"srcChainId","type":"uint256","internalType":"uint256"},{"name":"dstChainId","type":"uint256","internalType":"uint256"}],"outputs":[{"name":"sources","type":"tuple[]","internalType":"struct ISettlementSwitch.LiquiditySource[]","components":[{"name":"adapter","type":"address","internalType":"address"},{"name":"chainId","type":"uint256","internalType":"uint256"},{"name":"availableAmount","type":"uint256","internalType":"uint256"},{"name":"utilizationRate","type":"uint256","internalType":"uint256"}]}],"stateMutability":"view"},{"type":"function","name":"getCachedRoute","inputs":[{"name":"tokenIn","type":"address","internalType":"address"},{"name":"tokenOut","type":"address","internalType":"address"},{"name":"amount","type":"uint256","internalType":"uint256"},{"name":"srcChainId","type":"uint256","internalType":"uint256"},{"name":"dstChainId","type":"uint256","internalType":"uint256"},{"name":"preferences","type":"tuple","internalType":"struct IBridgeAdapter.RoutePreferences","components":[{"name":"mode","type":"uint8","internalType":"enum IBridgeAdapter.RoutingMode"},{"name":"maxSlippageBps","type":"uint256","internalType":"uint256"},{"name":"maxFeeWei","type":"uint256","internalType":"uint256"},{"name":"maxTimeMinutes","type":"uint256","internalType":"uint256"},{"name":"allowMultiHop","type":"bool","internalType":"bool"}]}],"outputs":[{"name":"cached","type":"tuple","internalType":"struct ISettlementSwitch.CachedRoute","components":[{"name":"route","type":"tuple","internalType":"struct IBridgeAdapter.Route","components":[{"name":"adapter","type":"address","internalType":"address"},{"name":"tokenIn","type":"address","internalType":"address"},{"name":"tokenOut","type":"address","internalType":"address"},{"name":"amountIn","type":"uint256","internalType":"uint256"},{"name":"amountOut","type":"uint256","internalType":"uint256"},{"name":"srcChainId","type":"uint256","internalType":"uint256"},{"name":"dstChainId","type":"uint256","internalType":"uint256"},{"name":"metrics","type":"tuple","internalType":"struct IBridgeAdapter.RouteMetrics","components":[{"name":"estimatedGasCost","type":"uint256","internalType":"uint256"},{"name":"bridgeFee","type":"uint256","internalType":"uint256"},{"name":"totalCostWei","type":"uint256","internalType":"uint256"},{"name":"estimatedTimeMinutes","type":"uint256","internalType":"uint256"},{"name":"liquidityAvailable","type":"uint256","internalType":"uint256"},{"name":"successRate","type":"uint256","internalType":"uint256"},{"name":"congestionLevel","type":"uint256","internalType":"uint256"}]},{"name":"adapterData","type":"bytes","internalType":"bytes"},{"name":"deadline","type":"uint256","internalType":"uint256"}]},{"name":"cachedAt","type":"uint256","internalType":"uint256"},{"name":"ttl","type":"uint256","internalType":"uint256"},{"name":"isValid","type":"bool","internalType":"bool"}]},{"name":"isValid","type":"bool","internalType":"bool"}],"stateMutability":"view"},{"type":"function","name":"getRegisteredAdapters","inputs":[],"outputs":[{"name":"adapters","type":"address[]","internalType":"address[]"},{"name":"names","type":"string[]","internalType":"string[]"},{"name":"enabled","type":"bool[]","internalType":"bool[]"}],"stateMutability":"view"},{"type":"function","name":"getRoleAdmin","inputs":[{"name":"role","type":"bytes32","internalType":"bytes32"}],"outputs":[{"name":"","type":"bytes32","internalType":"bytes32"}],"stateMutability":"view"},{"type":"function","name":"getRouteCacheTtl","inputs":[],"outputs":[{"name":"ttl","type":"uint256","internalType":"uint256"}],"stateMutability":"view"},{"type":"function","name":"getSupportedChains","inputs":[],"outputs":[{"name":"chainIds","type":"uint256[]","internalType":"uint256[]"}],"stateMutability":"view"},{"type":"function","name":"getTransfer","inputs":[{"name":"transferId","type":"bytes32","internalType":"bytes32"}],"outputs":[{"name":"transfer","type":"tuple","internalType":"struct IBridgeAdapter.Transfer","components":[{"name":"transferId","type":"bytes32","internalType":"bytes32"},{"name":"sender","type":"address","internalType":"address"},{"name":"recipient","type":"address","internalType":"address"},{"name":"route","type":"tuple","internalType":"struct IBridgeAdapter.Route","components":[{"name":"adapter","type":"address","internalType":"address"},{"name":"tokenIn","type":"address","internalType":"address"},{"name":"tokenOut","type":"address","internalType":"address"},{"name":"amountIn","type":"uint256","internalType":"uint256"},{"name":"amountOut","type":"uint256","internalType":"uint256"},{"name":"srcChainId","type":"uint256","internalType":"uint256"},{"name":"dstChainId","type":"uint256","internalType":"uint256"},{"name":"metrics","type":"tuple","internalType":"struct IBridgeAdapter.RouteMetrics","components":[{"name":"estimatedGasCost","type":"uint256","internalType":"uint256"},{"name":"bridgeFee","type":"uint256","internalType":"uint256"},{"name":"totalCostWei","type":"uint256","internalType":"uint256"},{"name":"estimatedTimeMinutes","type":"uint256","internalType":"uint256"},{"name":"liquidityAvailable","type":"uint256","internalType":"uint256"},{"name":"successRate","type":"uint256","internalType":"uint256"},{"name":"congestionLevel","type":"uint256","internalType":"uint256"}]},{"name":"adapterData","type":"bytes","internalType":"bytes"},{"name":"deadline","type":"uint256","internalType":"uint256"}]},{"name":"status","type":"uint8","internalType":"enum IBridgeAdapter.TransferStatus"},{"name":"initiatedAt","type":"uint256","internalType":"uint256"},{"name":"completedAt","type":"uint256","internalType":"uint256"}]}],"stateMutability":"view"},{"type":"function","name":"getUserTransfers","inputs":[{"name":"user","type":"address","internalType":"address"},{"name":"offset","type":"uint256","internalType":"uint256"},{"name":"limit","type":"uint256","internalType":"uint256"}],"outputs":[{"name":"userTransfers","type":"tuple[]","internalType":"struct IBridgeAdapter.Transfer[]","components":[{"name":"transferId","type":"bytes32","internalType":"bytes32"},{"name":"sender","type":"address","internalType":"address"},{"name":"recipient","type":"address","internalType":"address"},{"name":"route","type":"tuple","internalType":"struct IBridgeAdapter.Route","components":[{"name":"adapter","type":"address","internalType":"address"},{"name":"tokenIn","type":"address","internalType":"address"},{"name":"tokenOut","type":"address","internalType":"address"},{"name":"amountIn","type":"uint256","internalType":"uint256"},{"name":"amountOut","type":"uint256","internalType":"uint256"},{"name":"srcChainId","type":"uint256","internalType":"uint256"},{"name":"dstChainId","type":"uint256","internalType":"uint256"},{"name":"metrics","type":"tuple","internalType":"struct IBridgeAdapter.RouteMetrics","components":[{"name":"estimatedGasCost","type":"uint256","internalType":"uint256"},{"name":"bridgeFee","type":"uint256","internalType":"uint256"},{"name":"totalCostWei","type":"uint256","internalType":"uint256"},{"name":"estimatedTimeMinutes","type":"uint256","internalType":"uint256"},{"name":"liquidityAvailable","type":"uint256","internalType":"uint256"},{"name":"successRate","type":"uint256","internalType":"uint256"},{"name":"congestionLevel","type":"uint256","internalType":"uint256"}]},{"name":"adapterData","type":"bytes","internalType":"bytes"},{"name":"deadline","type":"uint256","internalType":"uint256"}]},{"name":"status","type":"uint8","internalType":"enum IBridgeAdapter.TransferStatus"},{"name":"initiatedAt","type":"uint256","internalType":"uint256"},{"name":"completedAt","type":"uint256","internalType":"uint256"}]}],"stateMutability":"view"},{"type":"function","name":"grantRole","inputs":[{"name":"role","type":"bytes32","internalType":"bytes32"},{"name":"account","type":"address","internalType":"address"}],"outputs":[],"stateMutability":"nonpayable"},{"type":"function","name":"hasRole","inputs":[{"name":"role","type":"bytes32","internalType":"bytes32"},{"name":"account","type":"address","internalType":"address"}],"outputs":[{"name":"","type":"bool","internalType":"bool"}],"stateMutability":"view"},{"type":"function","name":"isPaused","inputs":[],"outputs":[{"name":"","type":"bool","internalType":"bool"}],"stateMutability":"view"},{"type":"function","name":"multiPathExecutions","inputs":[{"name":"","type":"bytes32","internalType":"bytes32"}],"outputs":[{"name":"totalAmount","type":"uint256","internalType":"uint256"},{"name":"completedPaths","type":"uint256","internalType":"uint256"},{"name":"isCompleted","type":"bool","internalType":"bool"},{"name":"recipient","type":"address","internalType":"address"}],"stateMutability":"view"},{"type":"function","name":"paused","inputs":[],"outputs":[{"name":"","type":"bool","internalType":"bool"}],"stateMutability":"view"},{"type":"function","name":"registerBridgeAdapter","inputs":[{"name":"adapter","type":"address","internalType":"address"},{"name":"enabled","type":"bool","internalType":"bool"}],"outputs":[],"stateMutability":"nonpayable"},{"type":"function","name":"renounceRole","inputs":[{"name":"role","type":"bytes32","internalType":"bytes32"},{"name":"callerConfirmation","type":"address","internalType":"address"}],"outputs":[],"stateMutability":"nonpayable"},{"type":"function","name":"revokeRole","inputs":[{"name":"role","type":"bytes32","internalType":"bytes32"},{"name":"account","type":"address","internalType":"address"}],"outputs":[],"stateMutability":"nonpayable"},{"type":"function","name":"routeCache","inputs":[{"name":"","type":"bytes32","internalType":"bytes32"}],"outputs":[{"name":"route","type":"tuple","internalType":"struct IBridgeAdapter.Route","components":[{"name":"adapter","type":"address","internalType":"address"},{"name":"tokenIn","type":"address","internalType":"address"},{"name":"tokenOut","type":"address","internalType":"address"},{"name":"amountIn","type":"uint256","internalType":"uint256"},{"name":"amountOut","type":"uint256","internalType":"uint256"},{"name":"srcChainId","type":"uint256","internalType":"uint256"},{"name":"dstChainId","type":"uint256","internalType":"uint256"},{"name":"metrics","type":"tuple","internalType":"struct IBridgeAdapter.RouteMetrics","components":[{"name":"estimatedGasCost","type":"uint256","internalType":"uint256"},{"name":"bridgeFee","type":"uint256","internalType":"uint256"},{"name":"totalCostWei","type":"uint256","internalType":"uint256"},{"name":"estimatedTimeMinutes","type":"uint256","internalType":"uint256"},{"name":"liquidityAvailable","type":"uint256","internalType":"uint256"},{"name":"successRate","type":"uint256","internalType":"uint256"},{"name":"congestionLevel","type":"uint256","internalType":"uint256"}]},{"name":"adapterData","type":"bytes","internalType":"bytes"},{"name":"deadline","type":"uint256","internalType":"uint256"}]},{"name":"cachedAt","type":"uint256","internalType":"uint256"},{"name":"ttl","type":"uint256","internalType":"uint256"},{"name":"isValid","type":"bool","internalType":"bool"}],"stateMutability":"view"},{"type":"function","name":"routeCacheTtl","inputs":[],"outputs":[{"name":"","type":"uint256","internalType":"uint256"}],"stateMutability":"view"},{"type":"function","name":"routeCalculator","inputs":[],"outputs":[{"name":"","type":"address","internalType":"contract RouteCalculator"}],"stateMutability":"view"},{"type":"function","name":"setBlacklistStatus","inputs":[{"name":"account","type":"address","internalType":"address"},{"name":"blacklisted","type":"bool","internalType":"bool"}],"outputs":[],"stateMutability":"nonpayable"},{"type":"function","name":"setBridgeAdapterStatus","inputs":[{"name":"adapter","type":"address","internalType":"address"},{"name":"enabled","type":"bool","internalType":"bool"},{"name":"reason","type":"string","internalType":"string"}],"outputs":[],"stateMutability":"nonpayable"},{"type":"function","name":"setUserDailyLimit","inputs":[{"name":"user","type":"address","internalType":"address"},{"name":"dailyLimit","type":"uint256","internalType":"uint256"}],"outputs":[],"stateMutability":"nonpayable"},{"type":"function","name":"supportedChainIds","inputs":[{"name":"","type":"uint256","internalType":"uint256"}],"outputs":[{"name":"","type":"uint256","internalType":"uint256"}],"stateMutability":"view"},{"type":"function","name":"supportsInterface","inputs":[{"name":"interfaceId","type":"bytes4","internalType":"bytes4"}],"outputs":[{"name":"","type":"bool","internalType":"bool"}],"stateMutability":"view"},{"type":"function","name":"transfers","inputs":[{"name":"","type":"bytes32","internalType":"bytes32"}],"outputs":[{"name":"transferId","type":"bytes32","internalType":"bytes32"},{"name":"sender","type":"address","internalType":"address"},{"name":"recipient","type":"address","internalType":"address"},{"name":"route","type":"tuple","internalType":"struct IBridgeAdapter.Route","components":[{"name":"adapter","type":"address","internalType":"address"},{"name":"tokenIn","type":"address","internalType":"address"},{"name":"tokenOut","type":"address","internalType":"address"},{"name":"amountIn","type":"uint256","internalType":"uint256"},{"name":"amountOut","type":"uint256","internalType":"uint256"},{"name":"srcChainId","type":"uint256","internalType":"uint256"},{"name":"dstChainId","type":"uint256","internalType":"uint256"},{"name":"metrics","type":"tuple","internalType":"struct IBridgeAdapter.RouteMetrics","components":[{"name":"estimatedGasCost","type":"uint256","internalType":"uint256"},{"name":"bridgeFee","type":"uint256","internalType":"uint256"},{"name":"totalCostWei","type":"uint256","internalType":"uint256"},{"name":"estimatedTimeMinutes","type":"uint256","internalType":"uint256"},{"name":"liquidityAvailable","type":"uint256","internalType":"uint256"},{"name":"successRate","type":"uint256","internalType":"uint256"},{"name":"congestionLevel","type":"uint256","internalType":"uint256"}]},{"name":"adapterData","type":"bytes","internalType":"bytes"},{"name":"deadline","type":"uint256","internalType":"uint256"}]},{"name":"status","type":"uint8","internalType":"enum IBridgeAdapter.TransferStatus"},{"name":"initiatedAt","type":"uint256","internalType":"uint256"},{"name":"completedAt","type":"uint256","internalType":"uint256"}],"stateMutability":"view"},{"type":"function","name":"updateChainConfig","inputs":[{"name":"chainId","type":"uint256","internalType":"uint256"},{"name":"name","type":"string","internalType":"string"},{"name":"supported","type":"bool","internalType":"bool"},{"name":"maxGasPrice","type":"uint256","internalType":"uint256"}],"outputs":[],"stateMutability":"nonpayable"},{"type":"function","name":"updateRouteCacheTtl","inputs":[{"name":"newTtl","type":"uint256","internalType":"uint256"}],"outputs":[],"stateMutability":"nonpayable"},{"type":"function","name":"userLimits","inputs":[{"name":"","type":"address","internalType":"address"}],"outputs":[{"name":"dailyLimit","type":"uint256","internalType":"uint256"},{"name":"dailyTransferred","type":"uint256","internalType":"uint256"},{"name":"lastTransferTime","type":"uint256","internalType":"uint256"},{"name":"transferCount","type":"uint256","internalType":"uint256"},{"name":"isWhitelisted","type":"bool","internalType":"bool"}],"stateMutability":"view"},{"type":"function","name":"userTransferHistory","inputs":[{"name":"","type":"address","internalType":"address"},{"name":"","type":"uint256","internalType":"uint256"}],"outputs":[{"name":"","type":"bytes32","internalType":"bytes32"}],"stateMutability":"view"},{"type":"function","name":"whitelistedTokens","inputs":[{"name":"","type":"address","internalType":"address"}],"outputs":[{"name":"","type":"bool","internalType":"bool"}],"stateMutability":"view"},{"type":"event","name":"BlacklistUpdated","inputs":[{"name":"account","type":"address","indexed":true,"internalType":"address"},{"name":"blacklisted","type":"bool","indexed":false,"internalType":"bool"}],"anonymous":false},{"type":"event","name":"BridgeAdapterRegistered","inputs":[{"name":"adapter","type":"address","indexed":true,"internalType":"address"},{"name":"name","type":"string","indexed":false,"internalType":"string"},{"name":"enabled","type":"bool","indexed":false,"internalType":"bool"}],"anonymous":false},{"type":"event","name":"BridgeAdapterStatusChanged","inputs":[{"name":"adapter","type":"address","indexed":true,"internalType":"address"},{"name":"enabled","type":"bool","indexed":false,"internalType":"bool"},{"name":"reason","type":"string","indexed":false,"internalType":"string"}],"anonymous":false},{"type":"event","name":"ChainConfigUpdated","inputs":[{"name":"chainId","type":"uint256","indexed":true,"internalType":"uint256"},{"name":"name","type":"string","indexed":false,"internalType":"string"},{"name":"supported","type":"bool","indexed":false,"internalType":"bool"}],"anonymous":false},{"type":"event","name":"EmergencyPause","inputs":[{"name":"admin","type":"address","indexed":true,"internalType":"address"},{"name":"reason","type":"string","indexed":false,"internalType":"string"},{"name":"timestamp","type":"uint256","indexed":false,"internalType":"uint256"}],"anonymous":false},{"type":"event","name":"MultiPathExecutionCompleted","inputs":[{"name":"executionId","type":"bytes32","indexed":true,"internalType":"bytes32"},{"name":"successful","type":"bool","indexed":false,"internalType":"bool"}],"anonymous":false},{"type":"event","name":"MultiPathExecutionStarted","inputs":[{"name":"executionId","type":"bytes32","indexed":true,"internalType":"bytes32"},{"name":"pathCount","type":"uint256","indexed":false,"internalType":"uint256"}],"anonymous":false},{"type":"event","name":"MultiPathRouteCalculated","inputs":[{"name":"user","type":"address","indexed":true,"internalType":"address"},{"name":"srcChain","type":"uint256","indexed":true,"internalType":"uint256"},{"name":"dstChain","type":"uint256","indexed":true,"internalType":"uint256"},{"name":"totalAmount","type":"uint256","indexed":false,"internalType":"uint256"},{"name":"routeCount","type":"uint256","indexed":false,"internalType":"uint256"},{"name":"totalCost","type":"uint256","indexed":false,"internalType":"uint256"}],"anonymous":false},{"type":"event","name":"MultiPathTransferInitiated","inputs":[{"name":"transferIds","type":"bytes32[]","indexed":false,"internalType":"bytes32[]"},{"name":"user","type":"address","indexed":true,"internalType":"address"},{"name":"multiPath","type":"tuple","indexed":false,"internalType":"struct ISettlementSwitch.MultiPathRoute","components":[{"name":"routes","type":"tuple[]","internalType":"struct IBridgeAdapter.Route[]","components":[{"name":"adapter","type":"address","internalType":"address"},{"name":"tokenIn","type":"address","internalType":"address"},{"name":"tokenOut","type":"address","internalType":"address"},{"name":"amountIn","type":"uint256","internalType":"uint256"},{"name":"amountOut","type":"uint256","internalType":"uint256"},{"name":"srcChainId","type":"uint256","internalType":"uint256"},{"name":"dstChainId","type":"uint256","internalType":"uint256"},{"name":"metrics","type":"tuple","internalType":"struct IBridgeAdapter.RouteMetrics","components":[{"name":"estimatedGasCost","type":"uint256","internalType":"uint256"},{"name":"bridgeFee","type":"uint256","internalType":"uint256"},{"name":"totalCostWei","type":"uint256","internalType":"uint256"},{"name":"estimatedTimeMinutes","type":"uint256","internalType":"uint256"},{"name":"liquidityAvailable","type":"uint256","internalType":"uint256"},{"name":"successRate","type":"uint256","internalType":"uint256"},{"name":"congestionLevel","type":"uint256","internalType":"uint256"}]},{"name":"adapterData","type":"bytes","internalType":"bytes"},{"name":"deadline","type":"uint256","internalType":"uint256"}]},{"name":"amounts","type":"uint256[]","internalType":"uint256[]"},{"name":"totalAmount","type":"uint256","internalType":"uint256"},{"name":"totalCost","type":"uint256","internalType":"uint256"},{"name":"maxTime","type":"uint256","internalType":"uint256"}]},{"name":"timestamp","type":"uint256","indexed":false,"internalType":"uint256"}],"anonymous":false},{"type":"event","name":"Paused","inputs":[{"name":"account","type":"address","indexed":false,"internalType":"address"}],"anonymous":false},{"type":"event","name":"RoleAdminChanged","inputs":[{"name":"role","type":"bytes32","indexed":true,"internalType":"bytes32"},{"name":"previousAdminRole","type":"bytes32","indexed":true,"internalType":"bytes32"},{"name":"newAdminRole","type":"bytes32","indexed":true,"internalType":"bytes32"}],"anonymous":false},{"type":"event","name":"RoleGranted","inputs":[{"name":"role","type":"bytes32","indexed":true,"internalType":"bytes32"},{"name":"account","type":"address","indexed":true,"internalType":"address"},{"name":"sender","type":"address","indexed":true,"internalType":"address"}],"anonymous":false},{"type":"event","name":"RoleRevoked","inputs":[{"name":"role","type":"bytes32","indexed":true,"internalType":"bytes32"},{"name":"account","type":"address","indexed":true,"internalType":"address"},{"name":"sender","type":"address","indexed":true,"internalType":"address"}],"anonymous":false},{"type":"event","name":"RouteCacheUpdated","inputs":[{"name":"routeHash","type":"bytes32","indexed":true,"internalType":"bytes32"},{"name":"timestamp","type":"uint256","indexed":false,"internalType":"uint256"},{"name":"ttl","type":"uint256","indexed":false,"internalType":"uint256"}],"anonymous":false},{"type":"event","name":"RouteCalculated","inputs":[{"name":"user","type":"address","indexed":true,"internalType":"address"},{"name":"srcChain","type":"uint256","indexed":true,"internalType":"uint256"},{"name":"dstChain","type":"uint256","indexed":true,"internalType":"uint256"},{"name":"tokenIn","type":"address","indexed":false,"internalType":"address"},{"name":"tokenOut","type":"address","indexed":false,"internalType":"address"},{"name":"amount","type":"uint256","indexed":false,"internalType":"uint256"},{"name":"estimatedCost","type":"uint256","indexed":false,"internalType":"uint256"},{"name":"estimatedTime","type":"uint256","indexed":false,"internalType":"uint256"},{"name":"adapter","type":"address","indexed":false,"internalType":"address"}],"anonymous":false},{"type":"event","name":"TokenWhitelistUpdated","inputs":[{"name":"token","type":"address","indexed":true,"internalType":"address"},{"name":"whitelisted","type":"bool","indexed":false,"internalType":"bool"}],"anonymous":false},{"type":"event","name":"TransferCompleted","inputs":[{"name":"transferId","type":"bytes32","indexed":true,"internalType":"bytes32"},{"name":"actualCost","type":"uint256","indexed":false,"internalType":"uint256"},{"name":"actualTime","type":"uint256","indexed":false,"internalType":"uint256"},{"name":"successful","type":"bool","indexed":false,"internalType":"bool"}],"anonymous":false},{"type":"event","name":"TransferInitiated","inputs":[{"name":"transferId","type":"bytes32","indexed":true,"internalType":"bytes32"},{"name":"user","type":"address","indexed":true,"internalType":"address"},{"name":"route","type":"tuple","indexed":false,"internalType":"struct IBridgeAdapter.Route","components":[{"name":"adapter","type":"address","internalType":"address"},{"name":"tokenIn","type":"address","internalType":"address"},{"name":"tokenOut","type":"address","internalType":"address"},{"name":"amountIn","type":"uint256","internalType":"uint256"},{"name":"amountOut","type":"uint256","internalType":"uint256"},{"name":"srcChainId","type":"uint256","internalType":"uint256"},{"name":"dstChainId","type":"uint256","internalType":"uint256"},{"name":"metrics","type":"tuple","internalType":"struct IBridgeAdapter.RouteMetrics","components":[{"name":"estimatedGasCost","type":"uint256","internalType":"uint256"},{"name":"bridgeFee","type":"uint256","internalType":"uint256"},{"name":"totalCostWei","type":"uint256","internalType":"uint256"},{"name":"estimatedTimeMinutes","type":"uint256","internalType":"uint256"},{"name":"liquidityAvailable","type":"uint256","internalType":"uint256"},{"name":"successRate","type":"uint256","internalType":"uint256"},{"name":"congestionLevel","type":"uint256","internalType":"uint256"}]},{"name":"adapterData","type":"bytes","internalType":"bytes"},{"name":"deadline","type":"uint256","internalType":"uint256"}]},{"name":"timestamp","type":"uint256","indexed":false,"internalType":"uint256"}],"anonymous":false},{"type":"event","name":"Unpaused","inputs":[{"name":"account","type":"address","indexed":false,"internalType":"address"}],"anonymous":false},{"type":"event","name":"UserLimitsUpdated","inputs":[{"name":"user","type":"address","indexed":true,"internalType":"address"},{"name":"dailyLimit","type":"uint256","indexed":false,"internalType":"uint256"}],"anonymous":false},{"type":"error","name":"AccessControlBadConfirmation","inputs":[]},{"type":"error","name":"AccessControlUnauthorizedAccount","inputs":[{"name":"account","type":"address","internalType":"address"},{"name":"neededRole","type":"bytes32","internalType":"bytes32"}]},{"type":"error","name":"BlacklistedAddress","inputs":[]},{"type":"error","name":"ChainNotSupported","inputs":[]},{"type":"error","name":"DailyLimitExceeded","inputs":[]},{"type":"error","name":"EnforcedPause","inputs":[]},{"type":"error","name":"ExpectedPause","inputs":[]},{"type":"error","name":"InvalidPermitData","inputs":[]},{"type":"error","name":"InvalidSlippage","inputs":[]},{"type":"error","name":"MultiPathExecutionFailed","inputs":[]},{"type":"error","name":"ReentrancyGuardReentrantCall","inputs":[]},{"type":"error","name":"RouteNotFound","inputs":[]},{"type":"error","name":"SafeERC20FailedOperation","inputs":[{"name":"token","type":"address","internalType":"address"}]},{"type":"error","name":"TokenNotSupported","inputs":[]},{"type":"error","name":"TransferAmountTooHigh","inputs":[]},{"type":"error","name":"TransferAmountTooLow","inputs":[]},{"type":"error","name":"TransferNotFound","inputs":[]},{"type":"error","name":"TransferTooFrequent","inputs":[]}],"userdoc":{},"devdoc":{},"storageLayout":{"storage":[{"astId":35560,"contract":"src/core/SettlementSwitch.sol:SettlementSwitch","label":"_roles","offset":0,"slot":"0","type":"t_mapping(t_bytes32,t_struct(RoleData)35555_storage)"},{"astId":36758,"contract":"src/core/SettlementSwitch.sol:SettlementSwitch","label":"_paused","offset":0,"slot":"1","type":"t_bool"},{"astId":42181,"contract":"src/core/SettlementSwitch.sol:SettlementSwitch","label":"chainConfigs","offset":0,"slot":"2","type":"t_mapping(t_uint256,t_struct(ChainConfig)42106_storage)"},{"astId":42186,"contract":"src/core/SettlementSwitch.sol:SettlementSwitch","label":"userLimits","offset":0,"slot":"3","type":"t_mapping(t_address,t_struct(UserLimits)42118_storage)"},{"astId":42191,"contract":"src/core/SettlementSwitch.sol:SettlementSwitch","label":"transfers","offset":0,"slot":"4","type":"t_mapping(t_bytes32,t_struct(Transfer)44557_storage)"},{"astId":42196,"contract":"src/core/SettlementSwitch.sol:SettlementSwitch","label":"multiPathExecutions","offset":0,"slot":"5","type":"t_mapping(t_bytes32,t_struct(MultiPathExecution)42134_storage)"},{"astId":42201,"contract":"src/core/SettlementSwitch.sol:SettlementSwitch","label":"userTransferHistory","offset":0,"slot":"6","type":"t_mapping(t_address,t_array(t_bytes32)dyn_storage)"},{"astId":42204,"contract":"src/core/SettlementSwitch.sol:SettlementSwitch","label":"supportedChainIds","offset":0,"slot":"7","type":"t_array(t_uint256)dyn_storage"},{"astId":42207,"contract":"src/core/SettlementSwitch.sol:SettlementSwitch","label":"allTransferIds","offset":0,"slot":"8","type":"t_array(t_bytes32)dyn_storage"},{"astId":42211,"contract":"src/core/SettlementSwitch.sol:SettlementSwitch","label":"blacklistedAddresses","offset":0,"slot":"9","type":"t_mapping(t_address,t_bool)"},{"astId":42215,"contract":"src/core/SettlementSwitch.sol:SettlementSwitch","label":"whitelistedTokens","offset":0,"slot":"10","type":"t_mapping(t_address,t_bool)"},{"astId":42218,"contract":"src/core/SettlementSwitch.sol:SettlementSwitch","label":"defaultDailyLimit","offset":0,"slot":"11","type":"t_uint256"},{"astId":42223,"contract":"src/core/SettlementSwitch.sol:SettlementSwitch","label":"routeCache","offset":0,"slot":"12","type":"t_mapping(t_bytes32,t_struct(CachedRoute)44747_storage)"},{"astId":42226,"contract":"src/core/SettlementSwitch.sol:SettlementSwitch","label":"routeCacheTtl","offset":0,"slot":"13","type":"t_uint256"}],"types":{"t_address":{"encoding":"inplace","label":"address","numberOfBytes":"20"},"t_array(t_address)dyn_storage":{"encoding":"dynamic_array","label":"address[]","numberOfBytes":"32","base":"t_address"},"t_array(t_bytes32)dyn_storage":{"encoding":"dynamic_array","label":"bytes32[]","numberOfBytes":"32","base":"t_bytes32"},"t_array(t_uint256)dyn_storage":{"encoding":"dynamic_array","label":"uint256[]","numberOfBytes":"32","base":"t_uint256"},"t_bool":{"encoding":"inplace","label":"bool","numberOfBytes":"1"},"t_bytes32":{"encoding":"inplace","label":"bytes32","numberOfBytes":"32"},"t_bytes_storage":{"encoding":"bytes","label":"bytes","numberOfBytes":"32"},"t_enum(TransferStatus)44539":{"encoding":"inplace","label":"enum IBridgeAdapter.TransferStatus","numberOfBytes":"1"},"t_mapping(t_address,t_array(t_bytes32)dyn_storage)":{"encoding":"mapping","key":"t_address","label":"mapping(address => bytes32[])","numberOfBytes":"32","value":"t_array(t_bytes32)dyn_storage"},"t_mapping(t_address,t_bool)":{"encoding":"mapping","key":"t_address","label":"mapping(address => bool)","numberOfBytes":"32","value":"t_bool"},"t_mapping(t_address,t_struct(UserLimits)42118_storage)":{"encoding":"mapping","key":"t_address","label":"mapping(address => struct SettlementSwitch.UserLimits)","numberOfBytes":"32","value":"t_struct(UserLimits)42118_storage"},"t_mapping(t_bytes32,t_struct(CachedRoute)44747_storage)":{"encoding":"mapping","key":"t_bytes32","label":"mapping(bytes32 => struct ISettlementSwitch.CachedRoute)","numberOfBytes":"32","value":"t_struct(CachedRoute)44747_storage"},"t_mapping(t_bytes32,t_struct(MultiPathExecution)42134_storage)":{"encoding":"mapping","key":"t_bytes32","label":"mapping(bytes32 => struct SettlementSwitch.MultiPathExecution)","numberOfBytes":"32","value":"t_struct(MultiPathExecution)42134_storage"},"t_mapping(t_bytes32,t_struct(RoleData)35555_storage)":{"encoding":"mapping","key":"t_bytes32","label":"mapping(bytes32 => struct AccessControl.RoleData)","numberOfBytes":"32","value":"t_struct(RoleData)35555_storage"},"t_mapping(t_bytes32,t_struct(Transfer)44557_storage)":{"encoding":"mapping","key":"t_bytes32","label":"mapping(bytes32 => struct IBridgeAdapter.Transfer)","numberOfBytes":"32","value":"t_struct(Transfer)44557_storage"},"t_mapping(t_uint256,t_struct(ChainConfig)42106_storage)":{"encoding":"mapping","key":"t_uint256","label":"mapping(uint256 => struct SettlementSwitch.ChainConfig)","numberOfBytes":"32","value":"t_struct(ChainConfig)42106_storage"},"t_string_storage":{"encoding":"bytes","label":"string","numberOfBytes":"32"},"t_struct(CachedRoute)44747_storage":{"encoding":"inplace","label":"struct ISettlementSwitch.CachedRoute","numberOfBytes":"608","members":[{"astId":44740,"contract":"src/core/SettlementSwitch.sol:SettlementSwitch","label":"route","offset":0,"slot":"0","type":"t_struct(Route)44532_storage"},{"astId":44742,"contract":"src/core/SettlementSwitch.sol:SettlementSwitch","label":"cachedAt","offset":0,"slot":"16","type":"t_uint256"},{"astId":44744,"contract":"src/core/SettlementSwitch.sol:SettlementSwitch","label":"ttl","offset":0,"slot":"17","type":"t_uint256"},{"astId":44746,"contract":"src/core/SettlementSwitch.sol:SettlementSwitch","label":"isValid","offset":0,"slot":"18","type":"t_bool"}]},"t_struct(ChainConfig)42106_storage":{"encoding":"inplace","label":"struct SettlementSwitch.ChainConfig","numberOfBytes":"224","members":[{"astId":42090,"contract":"src/core/SettlementSwitch.sol:SettlementSwitch","label":"chainId","offset":0,"slot":"0","type":"t_uint256"},{"astId":42092,"contract":"src/core/SettlementSwitch.sol:SettlementSwitch","label":"name","offset":0,"slot":"1","type":"t_string_storage"},{"astId":42094,"contract":"src/core/SettlementSwitch.sol:SettlementSwitch","label":"isSupported","offset":0,"slot":"2","type":"t_bool"},{"astId":42096,"contract":"src/core/SettlementSwitch.sol:SettlementSwitch","label":"maxGasPrice","offset":0,"slot":"3","type":"t_uint256"},{"astId":42098,"contract":"src/core/SettlementSwitch.sol:SettlementSwitch","label":"wethAddress","offset":0,"slot":"4","type":"t_address"},{"astId":42101,"contract":"src/core/SettlementSwitch.sol:SettlementSwitch","label":"supportedTokens","offset":0,"slot":"5","type":"t_array(t_address)dyn_storage"},{"astId":42105,"contract":"src/core/SettlementSwitch.sol:SettlementSwitch","label":"tokenSupported","offset":0,"slot":"6","type":"t_mapping(t_address,t_bool)"}]},"t_struct(MultiPathExecution)42134_storage":{"encoding":"inplace","label":"struct SettlementSwitch.MultiPathExecution","numberOfBytes":"160","members":[{"astId":42122,"contract":"src/core/SettlementSwitch.sol:SettlementSwitch","label":"transferIds","offset":0,"slot":"0","type":"t_array(t_bytes32)dyn_storage"},{"astId":42125,"contract":"src/core/SettlementSwitch.sol:SettlementSwitch","label":"amounts","offset":0,"slot":"1","type":"t_array(t_uint256)dyn_storage"},{"astId":42127,"contract":"src/core/SettlementSwitch.sol:SettlementSwitch","label":"totalAmount","offset":0,"slot":"2","type":"t_uint256"},{"astId":42129,"contract":"src/core/SettlementSwitch.sol:SettlementSwitch","label":"completedPaths","offset":0,"slot":"3","type":"t_uint256"},{"astId":42131,"contract":"src/core/SettlementSwitch.sol:SettlementSwitch","label":"isCompleted","offset":0,"slot":"4","type":"t_bool"},{"astId":42133,"contract":"src/core/SettlementSwitch.sol:SettlementSwitch","label":"recipient","offset":1,"slot":"4","type":"t_address"}]},"t_struct(RoleData)35555_storage":{"encoding":"inplace","label":"struct AccessControl.RoleData","numberOfBytes":"64","members":[{"astId":35552,"contract":"src/core/SettlementSwitch.sol:SettlementSwitch","label":"hasRole","offset":0,"slot":"0","type":"t_mapping(t_address,t_bool)"},{"astId":35554,"contract":"src/core/SettlementSwitch.sol:SettlementSwitch","label":"adminRole","offset":0,"slot":"1","type":"t_bytes32"}]},"t_struct(Route)44532_storage":{"encoding":"inplace","label":"struct IBridgeAdapter.Route","numberOfBytes":"512","members":[{"astId":44512,"contract":"src/core/SettlementSwitch.sol:SettlementSwitch","label":"adapter","offset":0,"slot":"0","type":"t_address"},{"astId":44514,"contract":"src/core/SettlementSwitch.sol:SettlementSwitch","label":"tokenIn","offset":0,"slot":"1","type":"t_address"},{"astId":44516,"contract":"src/core/SettlementSwitch.sol:SettlementSwitch","label":"tokenOut","offset":0,"slot":"2","type":"t_address"},{"astId":44518,"contract":"src/core/SettlementSwitch.sol:SettlementSwitch","label":"amountIn","offset":0,"slot":"3","type":"t_uint256"},{"astId":44520,"contract":"src/core/SettlementSwitch.sol:SettlementSwitch","label":"amountOut","offset":0,"slot":"4","type":"t_uint256"},{"astId":44522,"contract":"src/core/SettlementSwitch.sol:SettlementSwitch","label":"srcChainId","offset":0,"slot":"5","type":"t_uint256"},{"astId":44524,"contract":"src/core/SettlementSwitch.sol:SettlementSwitch","label":"dstChainId","offset":0,"slot":"6","type":"t_uint256"},{"astId":44527,"contract":"src/core/SettlementSwitch.sol:SettlementSwitch","label":"metrics","offset":0,"slot":"7","type":"t_struct(RouteMetrics)44509_storage"},{"astId":44529,"contract":"src/core/SettlementSwitch.sol:SettlementSwitch","label":"adapterData","offset":0,"slot":"14","type":"t_bytes_storage"},{"astId":44531,"contract":"src/core/SettlementSwitch.sol:SettlementSwitch","label":"deadline","offset":0,"slot":"15","type":"t_uint256"}]},"t_struct(RouteMetrics)44509_storage":{"encoding":"inplace","label":"struct IBridgeAdapter.RouteMetrics","numberOfBytes":"224","members":[{"astId":44496,"contract":"src/core/SettlementSwitch.sol:SettlementSwitch","label":"estimatedGasCost","offset":0,"slot":"0","type":"t_uint256"},{"astId":44498,"contract":"src/core/SettlementSwitch.sol:SettlementSwitch","label":"bridgeFee","offset":0,"slot":"1","type":"t_uint256"},{"astId":44500,"contract":"src/core/SettlementSwitch.sol:SettlementSwitch","label":"totalCostWei","offset":0,"slot":"2","type":"t_uint256"},{"astId":44502,"contract":"src/core/SettlementSwitch.sol:SettlementSwitch","label":"estimatedTimeMinutes","offset":0,"slot":"3","type":"t_uint256"},{"astId":44504,"contract":"src/core/SettlementSwitch.sol:SettlementSwitch","label":"liquidityAvailable","offset":0,"slot":"4","type":"t_uint256"},{"astId":44506,"contract":"src/core/SettlementSwitch.sol:SettlementSwitch","label":"successRate","offset":0,"slot":"5","type":"t_uint256"},{"astId":44508,"contract":"src/core/SettlementSwitch.sol:SettlementSwitch","label":"congestionLevel","offset":0,"slot":"6","type":"t_uint256"}]},"t_struct(Transfer)44557_storage":{"encoding":"inplace","label":"struct IBridgeAdapter.Transfer","numberOfBytes":"704","members":[{"astId":44542,"contract":"src/core/SettlementSwitch.sol:SettlementSwitch","label":"transferId","offset":0,"slot":"0","type":"t_bytes32"},{"astId":44544,"contract":"src/core/SettlementSwitch.sol:SettlementSwitch","label":"sender","offset":0,"slot":"1","type":"t_address"},{"astId":44546,"contract":"src/core/SettlementSwitch.sol:SettlementSwitch","label":"recipient","offset":0,"slot":"2","type":"t_address"},{"astId":44549,"contract":"src/core/SettlementSwitch.sol:SettlementSwitch","label":"route","offset":0,"slot":"3","type":"t_struct(Route)44532_storage"},{"astId":44552,"contract":"src/core/SettlementSwitch.sol:SettlementSwitch","label":"status","offset":0,"slot":"19","type":"t_enum(TransferStatus)44539"},{"astId":44554,"contract":"src/core/SettlementSwitch.sol:SettlementSwitch","label":"initiatedAt","offset":0,"slot":"20","type":"t_uint256"},{"astId":44556,"contract":"src/core/SettlementSwitch.sol:SettlementSwitch","label":"completedAt","offset":0,"slot":"21","type":"t_uint256"}]},"t_struct(UserLimits)42118_storage":{"encoding":"inplace","label":"struct SettlementSwitch.UserLimits","numberOfBytes":"160","members":[{"astId":42109,"contract":"src/core/SettlementSwitch.sol:SettlementSwitch","label":"dailyLimit","offset":0,"slot":"0","type":"t_uint256"},{"astId":42111,"contract":"src/core/SettlementSwitch.sol:SettlementSwitch","label":"dailyTransferred","offset":0,"slot":"1","type":"t_uint256"},{"astId":42113,"contract":"src/core/SettlementSwitch.sol:SettlementSwitch","label":"lastTransferTime","offset":0,"slot":"2","type":"t_uint256"},{"astId":42115,"contract":"src/core/SettlementSwitch.sol:SettlementSwitch","label":"transferCount","offset":0,"slot":"3","type":"t_uint256"},{"astId":42117,"contract":"src/core/SettlementSwitch.sol:SettlementSwitch","label":"isWhitelisted","offset":0,"slot":"4","type":"t_bool"}]},"t_uint256":{"encoding":"inplace","label":"uint256","numberOfBytes":"32"}}},"evm":{"bytecode":{"object":"60e0346200082557601f620061fb38819003918201601f19168301916001600160401b03831184841017620005505780849260809460405283398101031262000825576200004d8162000849565b906200005c6020820162000849565b9060606200006d6040830162000849565b9101516001600160a01b0380821694909390918590036200082557620000e3849260017f9b779b17422d0df92223018b32b4d1fa46e071723d6817e2486d003becc55f005569021e19e0c9bab2400000600b55603c600d55620000d0816200085e565b50620000dc81620008ce565b506200096e565b50166080521660a05260c052620000f962000829565b601081526f457468657265756d205365706f6c696160801b602082015262aa36a75f52600260205260405f2062aa36a7815560018101825160018060401b03811162000550578154600181811c911680156200081a575b60208210146200063357601f8111620007d0575b506020601f821160011462000761579181640ba43b740094926003945f9162000755575b508160011b915f1990861b1c19161790555b60028101805460ff19166001179055015560075468010000000000000000811015620005505760018101806007558110156200053c5762aa36a79060075f5260205f20015560405190604082528051908160408401525f5b8281106200073e5762aa36a75f80516020620061bb83398151915285606081875f83828401015260016020830152601f80199101168101030190a26200023762000829565b601081526f417262697472756d205365706f6c696160801b602082015262066eee5f52600260205260405f2062066eee8155815160018060401b03811162000550576001820154600181811c9116801562000733575b60208210146200063357601f8111620006ea575b506020601f821160011462000675579181600392633b9aca00945f9162000669575b505f1982851b1c1916600191821b17908201555b60028101805460ff19166001179055015560075468010000000000000000811015620005505760018101806007558110156200053c5762066eee9060075f5260205f20015560405190604082528051908160408401525f5b828110620006525762066eee5f80516020620061bb83398151915285606081875f83828401015260016020830152601f80199101168101030190a26200037462000829565b600e81526d506f6c79676f6e204d756d62616960901b6020820152620138815f52600260205260405f20620138818155815160018060401b03811162000550576001820154600181811c9116801562000647575b60208210146200063357601f8111620005e6575b506020601f8211600114620005705791816003926406fc23ac00945f9162000564575b505f1982851b1c1916600191821b17908201555b60028101805460ff19166001179055015560075468010000000000000000811015620005505760018101806007558110156200053c57620138819060075f5260205f20015560405190604082528051908160408401525f5b8281106200052557620138815f80516020620061bb83398151915285606081875f83828401015260016020830152601f80199101168101030190a2604051615792908162000a09823960805181818161034e01528181611cf70152818161393801526150c8015260a0518181816105fd015281816106ec01528181611a5201528181611b3201528181612887015281816134dc0152613a09015260c051818181610f6701528181611ea10152818161262b01526126ca0152f35b80602080928401015160608287010152016200046b565b634e487b7160e01b5f52603260045260245ffd5b634e487b7160e01b5f52604160045260245ffd5b905085015186620003ff565b600183015f5260205f20905f5b601f1984168110620005cd5750826406fc23ac009492600192600395601f19811610620005b5575b5050811b01600182015562000413565b8701515f1983871b60f8161c191690558680620005a5565b909160206001819285890151815501930191016200057d565b600183015f5260205f20601f830160051c8101916020841062000628575b601f0160051c01905b8181106200061c5750620003dc565b5f81556001016200060d565b909150819062000604565b634e487b7160e01b5f52602260045260245ffd5b90607f1690620003c8565b80602080928401015160608287010152016200032f565b905085015186620002c3565b600183015f5260205f20905f5b601f1984168110620006d1575082633b9aca009492600192600395601f19811610620006b9575b5050811b016001820155620002d7565b8701515f1983871b60f8161c191690558680620006a9565b9091602060018192858901518155019301910162000682565b600183015f5260205f20601f830160051c8101602084106200072b575b601f830160051c820181106200071f575050620002a1565b5f815560010162000707565b508062000707565b90607f16906200028d565b8060208092840101516060828701015201620001f2565b90508601515f62000188565b601f19821690835f5260205f20915f5b818110620007b75750926003949260019282640ba43b74009896106200079f575b5050811b0190556200019a565b8801515f1983881b60f8161c191690555f8062000792565b9192602060018192868b01518155019401920162000771565b825f5260205f20601f830160051c810191602084106200080f575b601f0160051c01905b81811062000803575062000164565b5f8155600101620007f4565b9091508190620007eb565b90607f169062000150565b5f80fd5b60408051919082016001600160401b038111838210176200055057604052565b51906001600160a01b03821682036200082557565b6001600160a01b03165f8181525f80516020620061db833981519152602052604090205460ff16620008c9575f8181525f80516020620061db83398151915260205260408120805460ff191660011790553391905f805160206200619b8339815191528180a4600190565b505f90565b6001600160a01b03165f8181527f58ece7492c9de9f1460dfbb3c599b8a72de7f6ce6133e946182588ac11dbca4260205260409020547fe5f3d29fbf8cd4b379b5a8ec1437261892bf01e7d129556690f84cf7a11d2c4d919060ff166200096857815f525f60205260405f20815f5260205260405f20600160ff1982541617905533915f805160206200619b8339815191525f80a4600190565b50505f90565b6001600160a01b03165f8181527f3c1b1854ab1360abbb06c8d4c6b2672d4b8cedc5eff522ab19e51d5cb8fdbd4660205260409020547fbf233dd2aafeb4d50879c4aa5c81e96d92f6e6945c906a58f9f2d1c1631b4b26919060ff166200096857815f525f60205260405f20815f5260205260405f20600160ff1982541617905533915f805160206200619b8339815191525f80a460019056fe608080604052600436101561001c575b50361561001a575f80fd5b005b5f905f3560e01c90816301ffc9a714613e575750806303d29d2814613dd5578063177c49a714613d6d5780631cc5d06a14613b9b57806320df435914613b615780632168ca0f14613b45578063248a9ca314613b19578063260958a514613ad25780632c1bc2b214613a695780632f2ff15d14613a2d578063316be171146139ea57806331910ec4146138455780633542284b1461347357806336568abe146134145780633c64f04b146133795780633cb177eb14610bc45780634a4e3bd5146132f85780634b540c64146132dd5780634cf2ab32146132b457806351bfbc3214613228578063551512de14613143578063573d2f34146131265780635c975abb146131045780635d762db214612e55578063698b29b914612e3857806372f98e5f14612b0657806389674f9f14612acc5780638c973ff214612ab15780638cb5fb6f14612a905780638dbbfe31146128375780638e503836146127cc5780638f20a7f714611d8157806391927db71461104957806391d1485414611d37578063923e10d914611d1b5780639a7b5f0214611cd75780639e34823c14611c81578063a217fddf14611c65578063abff473314611c47578063b187bd2614611c24578063c4bffe2b14611bf4578063c76b088814611bd6578063cbc92369146119f5578063cd8396d614611067578063cead67f214611049578063cf5b4fd514610f8b578063d0fb020314610f47578063d547741f14610f06578063d5749d4214610ec9578063d5807d8a14610e3d578063daf9c21014610e00578063db2df30e14610d10578063e0083a8f14610bc9578063e0f944d914610bc4578063e187469914610b68578063e1f1c4a714610b4b578063e229cd7614610b2e578063e826e1aa14610ad9578063ecbed100146105b7578063ef69ff00146105825763f518ac6b0361000f573461057f57610164816102d536614646565b929594906102e798949897929761512f565b506102f188615357565b6102fa81615357565b6103446001600160a01b039485926040519a8b978896630c6443b160e21b88521660048701528460249d1660248701528a60448701526064860152608485015260a4840190614958565b600a6101448301527f0000000000000000000000000000000000000000000000000000000000000000165afa92831561057257819361054e575b508251156105245761038e61512f565b508251600381111561051e57506003905b6103a8826143ef565b926103b66040519485614001565b8284526103c2836143ef565b91602091601f198094013684880137809682975b5f19870187811161050b578910156104255761041d6001916104016103fb8c8b614d8a565b82614eb4565b61040b8c8c614c3b565b526104168b8b614c3b565b5190614d8a565b9801976103d6565b879187915f1983018381116104f75761043e9085614c3b565b52610448826143ef565b966104566040519889614001565b828852610462836143ef565b0186865b8281106104e157505050845b8281106104b7575050506040519461048986613f90565b855283850152604084015280606084015260808301526104b3604051928284938452830190614712565b0390f35b806104c460019284614c3b565b516104cf828b614c3b565b526104da818a614c3b565b5001610472565b6104e96149ec565b82828c010152018790610466565b602487634e487b7160e01b81526011600452fd5b8a85634e487b7160e01b81526011600452fd5b9061039f565b60046040517fb5c0f440000000000000000000000000000000000000000000000000000000008152fd5b61056b9193503d8085833e6105638183614001565b810190614b16565b915f61037e565b50604051903d90823e3d90fd5b80fd5b503461057f576104b36105a361059736614646565b94939093929192615018565b604051918291602083526020830190614097565b503461057f578060031936011261057f576040517f757e616a00000000000000000000000000000000000000000000000000000000815281816004816001600160a01b037f0000000000000000000000000000000000000000000000000000000000000000165afa908115610ace578291610aac575b50805161065261063c826143ef565b9161064a6040519384614001565b8083526143ef565b601f1901835b818110610a9b575050815190610686610670836143ef565b9261067e6040519485614001565b8084526143ef565b601f1901366020840137835b83518110156109df576001600160a01b036106ad8286614c3b565b511690604051917f4a8bafda00000000000000000000000000000000000000000000000000000000835260048301526024868382816001600160a01b037f0000000000000000000000000000000000000000000000000000000000000000165afa9081156109d457879161076e575b506001925060208101516107308386614c3b565b5261073b8285614c3b565b50604081015115159081610760575b506107558286614c3b565b901515905201610692565b60609150015115155f61074a565b90503d8088853e61077f8185614001565b60e08482810103126109d05783519067ffffffffffffffff82116109cc576101608083870183880103126109795760405193848281011067ffffffffffffffff83870111176109ba575083016040526107d98286016147cb565b83526020828601015167ffffffffffffffff811161097957610802908287019084880101614e23565b6020840152610815604083870101614c4f565b6040840152610828606083870101614c4f565b60608401528482016080818101519085015260a0808201519085015260c0808201519085015260e080820151908501526101008082015190850152610120015167ffffffffffffffff811161097957818601601f82858901010112156109795780838701015190610898826143ef565b916108a66040519384614001565b808352602083019184890160208360051b83898d01010101116109b657602081878b010101925b60208360051b83898d01010101841061097d5750505050610120840152610140828601015167ffffffffffffffff81116109795760c0926109149183880191880101614bac565b6101408401528401849003601f1901126109755760019260a060c06040519261093c84613fac565b6020810151845260408101516020850152606081015160408501526080810151606085015282810151608085015201519101525f61071c565b8680fd5b8980fd5b835167ffffffffffffffff81116109b2576020916109a78c848094878d8d85019401010101614e23565b8152019301926108cd565b8e80fd5b8c80fd5b634e487b7160e01b5f5260416004525ffd5b8880fd5b8780fd5b6040513d89823e3d90fd5b5090836109fb93926040519485946060865260608601906146d6565b8481036020860152815180825260208201916020808360051b83010194019285915b838310610a685750505050508381036040850152602080845192838152019301915b818110610a4d575050500390f35b82511515845285945060209384019390920191600101610a3f565b91939697509193602080610a88600193601f198682030187528a51614072565b9801930193019092889796949293610a1d565b806060602080938601015201610658565b610ac891503d8084833e610ac08183614001565b810190614c15565b5f61062d565b6040513d84823e3d90fd5b503461057f57602036600319011261057f57600435600854811015610b2a5760209060085f527ff3f7a9fe364faab93b216da50a3214154f22a0a2b415b23a84c8169e8b636ee30154604051908152f35b5080fd5b503461057f578060031936011261057f5760206040516103e88152f35b503461057f578060031936011261057f5760206040516127108152f35b503461057f57602036600319011261057f57604060809160043581526005602052206001600160a01b036002820154916004600382015491015490604051938452602084015260ff81161515604084015260081c166060820152f35b61438a565b503461057f57604036600319011261057f57610be3613ef5565b60243567ffffffffffffffff8111610d0c57610c03903690600401614023565b91303303610cc85760a082859481010312610cc45760408201359060ff8216809203610cbf576001600160a01b031691823b15610cbf5760e484928360809560405196879586947fd505accf00000000000000000000000000000000000000000000000000000000865233600487015230602487015281356044870152602082013560648701526084860152606081013560a4860152013560c48401525af18015610ace57610caf5750f35b610cb890613f60565b61057f5780f35b505050fd5b5050fd5b606460405162461bcd60e51b815260206004820152600960248201527f4f6e6c792073656c6600000000000000000000000000000000000000000000006044820152fd5b8280fd5b503461057f576040610dc991610d59610d2836614646565b948760608a96939695949551610d3d81613f44565b610d456149ec565b8152826020820152828c8201520152615718565b8152600c6020522060405190610d6e82613f44565b610d77816142ad565b82526010810154602083019181835260ff60126011830154926040870193845201541690606085019115159283835283610de9575b5060405195869560408752516080604088015260c0870190614097565b9351606086015251608085015251151560a0840152151560208301520390f35b610df591935042614d8a565b600d5411915f610dac565b503461057f57602036600319011261057f5760ff60406020926001600160a01b03610e29613ef5565b168152600a84522054166040519015158152f35b503461057f57606036600319011261057f57610e67610e5a613ef5565b6044359060243590614ed2565b60405190602092602083016020845282518091526040840194602060408360051b870101940192955b828710610e9d5785850386f35b909192938280610eb9600193603f198a8203018652885161417e565b9601920196019592919092610e90565b503461057f57602036600319011261057f5760ff60406020926001600160a01b03610ef2613ef5565b168152600984522054166040519015158152f35b503461057f57604036600319011261057f57610f43600435610f26613f0b565b9080845283602052610f3e6001604086200154615229565b61539a565b5080f35b503461057f578060031936011261057f5760206040516001600160a01b037f0000000000000000000000000000000000000000000000000000000000000000168152f35b503461057f57602036600319011261057f5760043567ffffffffffffffff8111610b2a57610fbd903690600401614628565b610fc561515b565b610fcd6152a4565b600160ff19815416176001557f62e78cea01bee320cd4e420270b5ea74000d11b0c9f74754ebdbfc544b05a2586020604051338152a17fc2a40ead64043aa7803b028f611e6c0db6ca7ae2199feafe5c96a303c0ebed6b61103960405192604084526040840190614072565b914260208201528033930390a280f35b503461057f578060031936011261057f576020600d54604051908152f35b506003199060603683011261057f576004359167ffffffffffffffff8311610b2a5760a090833603011261057f576040516110a181613f90565b826004013567ffffffffffffffff8111610d0c576110c59060043691860101614575565b8152602483013567ffffffffffffffff8111610d0c5783019236602385011215610d0c576004840135936110f8856143ef565b906111066040519283614001565b8582526024602083019660051b820101903682116119f157602401955b8187106119e157505060208301526044810135604083015260648101356060830152608401356080820152611156613f0b565b9060443567ffffffffffffffff81116119dd57611177903690600401614023565b92909161118261524a565b61118a6152a4565b61119860408201513361540d565b604081015160405160208101913360601b83526bffffffffffffffffffffffff198560601b1660348301526048820152426068820152606881526111db81613f90565b519020936111ea825151614c7e565b938691801515806119d2575b611994575b5050855b825180518210156116e1578161121491614c3b565b51611223826020860151614c3b565b51806060830152608082015180828102048214811517156116cd57606083015161124e918302614eb4565b608083015260208201516001600160a01b0316156116bc57611281816001600160a01b036020850151163090339061561d565b602082810151835160405163095ea7b360e01b81526001600160a01b039182166004820152602481018590529291839160449183918f91165af180156116b157611678575b505b6001600160a01b03825116906001600160a01b03602084015116155f1461166f576020905b60405192838092638f20a7f760e01b82528161130d8c8960048401614cff565b03925af190811561166457899161162e575b5061132a8388614c3b565b526113358287614c3b565b51906040519161134483613f74565b82523360208301526001600160a01b038616604083015260608201528760808201524260a08201528760c082015261137c8287614c3b565b5188526004602052604088209080518255600182016001600160a01b036020830151166001600160a01b0319825416179055600282016001600160a01b036040830151166001600160a01b031982541617905560608101516001600160a01b038151166001600160a01b0319600385015416176003840155600483016001600160a01b036020830151166001600160a01b0319825416179055600583016001600160a01b036040830151166001600160a01b0319825416179055606081015160068401556080810151600784015560a0810151600884015560c0810151600984015560c060e08201518051600a8601556020810151600b8601556040810151600c8601556060810151600d8601556080810151600e86015560a0810151600f8601550151601084015561010081015180519067ffffffffffffffff821161161a576114d7826114ce60118801546141e4565b60118801614d47565b6020908c601f84116001146115a957610120949361150b9390928361159e575b50508160011b915f199060031b1c19161790565b60118501555b015160128301556080810151600581101561158a5760c0600194939260159260ff8019601387015416911617601385015560a08101516014850155015191015533885260066020526115716040892061156a8389614c3b565b5190614e89565b61158461157e8288614c3b565b51614e3d565b016111ff565b60248a634e487b7160e01b81526021600452fd5b015190508e806114f7565b5090601186018d5260208d20918d5b601f198516811061160257509183916001936101209695601f198116106115ea575b505050811b016011850155611511565b01515f1960f88460031b161c191690558d80806115da565b919260206001819286850151815501940192016115b8565b60248c634e487b7160e01b81526041600452fd5b90506020813d60201161165c575b8161164960209383614001565b8101031261165857518961131f565b5f80fd5b3d915061163c565b6040513d8b823e3d90fd5b506020896112ed565b6020813d6020116116a9575b8161169160209383614001565b81010312610979576116a290614c4f565b50896112c6565b3d9150611684565b6040513d8c823e3d90fd5b92836116c791614cb0565b926112c8565b60248a634e487b7160e01b81526011600452fd5b5050508493916001600160a01b0360208301519160408401516040519361170785613fac565b878552602085015260408401528660608401528660808401521660a0820152828552600560205260408520815180519067ffffffffffffffff82116119455768010000000000000000821161194557825482845580831061196d575b5060200182885260208820885b8381106119595750505050602082015180519067ffffffffffffffff821161194557680100000000000000008211611945576020906001840154836001860155808410611928575b500160018301885260208820975b828110611914576104b388887ff92bbd2b8ed75b1cadbc5e2fbf0d490532666876dd67050e0f1777ffe9f1c92d60208a8a60a060048c6040840151600282015560608401516003820155019161182e60808201511515849060ff801983541691151516179055565b01517fffffffffffffffffffffff0000000000000000000000000000000000000000ff74ffffffffffffffffffffffffffffffffffffffff0083549260081b1691161790556118816040820151336156bb565b604051606081527f2b71e76a32de66a2e07a258b87b582cebbddef30ac80fc20e3954a99f38c82e16118c66118b960608401896145f5565b8381038685015284614712565b914260408201528033930390a25151604051908152a260017f9b779b17422d0df92223018b32b4d1fa46e071723d6817e2486d003becc55f00556040519182916020835260208301906145f5565b60019060208351930192818b0155016117c6565b600185018a52828a2061193f918101908501614d31565b896117b8565b602488634e487b7160e01b81526041600452fd5b600190602084519401938184015501611770565b83895260208920908382015b8183018110611989575050611763565b5f8155600101611979565b8351918251156119be576001600160a01b036020806119b795015101511661556f565b86806111fb565b634e487b7160e01b5f52603260045260245ffd5b5083515115156111f6565b8380fd5b8635815260209687019601611123565b8580fd5b503461057f57606036600319011261057f57611a0f613ef5565b611a17613f35565b60443567ffffffffffffffff81116119dd57611a37903690600401614628565b91611a406151d4565b8115611b2657836001600160a01b03807f00000000000000000000000000000000000000000000000000000000000000001690813b15610d0c5782916024839260405194859384927fb7a86d63000000000000000000000000000000000000000000000000000000008452891660048401525af18015610ace57611b12575b50507f9464e4333bf11e76998ea2d0c3116bceb63484e8af2309711662152c12286718915b611b0c6001600160a01b03604051938493151584526040602085015216946040830190614072565b0390a280f35b611b1b90613f60565b6119dd57835f611abf565b836001600160a01b03807f00000000000000000000000000000000000000000000000000000000000000001690813b15610d0c57829060405192839163225a7d5160e21b83528616600483015260406024830152818381611b8a604482018c614072565b03925af18015610ace57611bc2575b50507f9464e4333bf11e76998ea2d0c3116bceb63484e8af2309711662152c1228671891611ae4565b611bcb90613f60565b6119dd57835f611b99565b503461057f578060031936011261057f576020600b54604051908152f35b503461057f578060031936011261057f576104b3611c10614db7565b6040519182916020835260208301906145f5565b503461057f578060031936011261057f57602060ff600154166040519015158152f35b503461057f578060031936011261057f57602060405162066eee8152f35b503461057f578060031936011261057f57602090604051908152f35b503461057f57604036600319011261057f57611c9b613ef5565b6001600160a01b031681526006602052604081208054602435929083101561057f576020611cc984846143da565b90546040519160031b1c8152f35b503461057f578060031936011261057f5760206040516001600160a01b037f0000000000000000000000000000000000000000000000000000000000000000168152f35b503461057f578060031936011261057f57602060405160898152f35b503461057f57604036600319011261057f576001600160a01b036040611d5b613f0b565b926004358152806020522091165f52602052602060ff60405f2054166040519015158152f35b50606036600319011261057f5760043567ffffffffffffffff8111610b2a57611dae903690600401614459565b611db6613f0b565b9060443567ffffffffffffffff81116119dd57611dd7903690600401614023565b611ddf61524a565b611de76152a4565b611df560608401513361540d565b6001600160a01b03835116156105245761012083015142116127885760808301511561275e5780612740575b5050826060820151602060a0840151604051809381927f8992b26700000000000000000000000000000000000000000000000000000000835260806004840152611e846084840160409060088152671c1c9bdd1bd8dbdb60c21b60208201520190565b916024840152604483015233606483015203816001600160a01b037f0000000000000000000000000000000000000000000000000000000000000000165afa908115610ace57829161270b575b5080612621575b50506001600160a01b036020820151168061258b575b506001600160a01b03815116916001600160a01b03602083015116155f1461258357602060608301515b60405194858092638f20a7f760e01b825281611f38878960048401614cff565b03925af1928315612578578493612544575b506001600160a01b0360405191611f6083613f74565b8483523360208401521660408201528160608201528360808201524260a08201528360c082015282845260046020526040842090805182556001600160a01b036020820151166001600160a01b0319600184015416176001830155600282016001600160a01b036040830151166001600160a01b0319825416179055600382016060820151906001600160a01b038251166001600160a01b0319825416179055600483016001600160a01b036020830151166001600160a01b0319825416179055600583016001600160a01b036040830151166001600160a01b0319825416179055606081015160068401556080810151600784015560a0810151600884015560c0810151600984015560c060e08201518051600a8601556020810151600b8601556040810151600c8601556060810151600d8601556080810151600e86015560a0810151600f8601550151601084015561010081015180519067ffffffffffffffff8211611945576120da826114ce60118801546141e4565b602090601f83116001146124d457918061210d9261012095948b9261242a5750508160011b915f199060031b1c19161790565b60118501555b01516012830155608081015160058110156124c05760159160c09160ff8019601387015416911617601385015560a08101516014850155015191015561215d6060820151336156bb565b33835260066020526121728260408520614e89565b61217b82614e3d565b6020810151604082015190606083015160a084015160c0850151916040519360208501956bffffffffffffffffffffffff19809260601b16875260601b1660348501526048840152606883015260888201528360a882015260a881526121e081613f74565b519020600d54604051906121f382613f44565b838252426020830152604082015260016060820152818552600c602052604085209080516001600160a01b038151166001600160a01b0319845416178355600183016001600160a01b036020830151166001600160a01b0319825416179055600283016001600160a01b036040830151166001600160a01b0319825416179055606081015160038401556080810151600484015560a0810151600584015560c0810151600684015560c060e08201518051600786015560208101516008860155604081015160098601556060810151600a8601556080810151600b86015560a0810151600c8601550151600d84015561010081015180519067ffffffffffffffff82116124ac57976020986123188361230f600e8901546141e4565b600e8901614d47565b8991601f841160011461243557936123538460609561238a999895610120956012999261242a5750508160011b915f199060031b1c19161790565b600e8701555b0151600f850155888101516010850155604081015160118501550151151591019060ff801983541691151516179055565b7fc992ae697be06b41839f5cf2d42a85693ffcb1f2b9343bd7fd1fe2b87205c44f6040600d5481519042825287820152a2817f18796d77e097570f6d72f1f7c43254eca449d8661043536fae6579c19cc4a31f6123f260405193604085526040850190614097565b9242868201528033940390a360017f9b779b17422d0df92223018b32b4d1fa46e071723d6817e2486d003becc55f0055604051908152f35b015190505f806114f7565b9190600e870183528a8320925b601f198516811061249557509360018461238a98979461012094601298606098601f1981161061247d575b505050811b01600e870155612359565b01515f1960f88460031b161c191690555f808061246d565b91928b600181928685015181550194019201612442565b602489634e487b7160e01b81526041600452fd5b602486634e487b7160e01b81526021600452fd5b906011860189526020892091895b601f198516811061252c57509183916001936101209695601f19811610612514575b505050811b016011850155612113565b01515f1960f88460031b161c191690555f8080612504565b919260206001819286850151815501940192016124e2565b9092506020813d602011612570575b8161256060209383614001565b810103126116585751915f611f4a565b3d9150612553565b6040513d86823e3d90fd5b602084611f18565b606082015161259d913090339061561d565b6020818101518251606084015160405163095ea7b360e01b81526001600160a01b03928316600482015260248101919091529291839160449183918991165af180156125785715611eee576020813d602011612619575b8161260160209383614001565b810103126119dd5761261290614c4f565b505f611eee565b3d91506125f4565b6001600160a01b037f0000000000000000000000000000000000000000000000000000000000000000163b15610b2a578160405180927fb8183d1900000000000000000000000000000000000000000000000000000000825260a0600483015281806126a660a4820160409060088152671c1c9bdd1bd8dbdb60c21b60208201520190565b85602483015283604483015233606483015285608483015203916001600160a01b037f0000000000000000000000000000000000000000000000000000000000000000165af18015610ace5715611ed85761270090613f60565b610d0c57825f611ed8565b9150506020813d602011612738575b8161272760209383614001565b81010312611658578390515f611ed1565b3d915061271a565b612757916001600160a01b0360208501511661556f565b5f80611e21565b60046040517f334ee9a1000000000000000000000000000000000000000000000000000000008152fd5b606460405162461bcd60e51b815260206004820152600d60248201527f526f7574652065787069726564000000000000000000000000000000000000006044820152fd5b503461057f57602036600319011261057f576040612821916004358152600c602052206127f8816142ad565b9060108101549060ff601260118301549201541690604051948594608086526080860190614097565b9260208501526040840152151560608301520390f35b50346116585760031960403682011261165857612852613ef5565b61285a613f35565b906128636151d4565b61286b614db7565b926040519061287982613fe5565b5f82526001600160a01b03807f00000000000000000000000000000000000000000000000000000000000000001693843b156116585761290b5f936128fc9560405196879586957fbcd606a0000000000000000000000000000000000000000000000000000000008752169a8b60048701526060602487015260648601906145f5565b918483030160448501526146d6565b038183865af18015612a8557612a72575b50839082156129fa575b5050604051907fb8b2233d0000000000000000000000000000000000000000000000000000000082528382600481865afa8015612578578490612996575b7ff366780c95d78f6ffcc74f10a298c82fd007f980675b262ecd894fecf5caaf1d9250611b0c60405192839283614d97565b503d8085843e6129a68184614001565b8201916020818403126129f65780519267ffffffffffffffff84116119f1577ff366780c95d78f6ffcc74f10a298c82fd007f980675b262ecd894fecf5caaf1d936129f19201614e23565b612964565b8480fd5b803b15610b2a5781809160846040518094819363225a7d5160e21b835289600484015260406024840152601660448401527f526567697374657265642061732064697361626c65640000000000000000000060648401525af18015610ace571561292657612a6790613f60565b610d0c57825f612926565b612a7d919450613f60565b5f925f61291c565b6040513d5f823e3d90fd5b3461165857602036600319011261165857612aa96151d4565b600435600d55005b34611658575f36600319011261165857602060405160018152f35b34611658575f3660031901126116585760206040517fe5f3d29fbf8cd4b379b5a8ec1437261892bf01e7d129556690f84cf7a11d2c4d8152f35b3461165857608036600319011261165857600435602467ffffffffffffffff813581811161165857612b3c903690600401614628565b604435918215938415840361165857612b536151d4565b855f52602094600260205260405f2092600284019660ff885416916001988987018851928311612c675782612b938b94612b8d84546141e4565b84614d47565b602094601f8211600114612db6575080612bc591612bd8965f91612dab575b508160011b915f199060031b1c19161790565b90559060ff801983541691151516179055565b6064356003948501558580612da3575b15612c7b57505050506007549268010000000000000000841015612c6757612c50612c3a8587937f245acbaab7e228af4af2dfe740a37cbd6bb4359b13415ad153b1d7f951d6eb4897016007556143a5565b819391549060031b91821b915f19901b19161790565b90555b612c6260405192839283614d97565b0390a2005b634e487b7160e01b5f52604160045260245ffd5b9296959281612d9b575b50612cb6575b50507f245acbaab7e228af4af2dfe740a37cbd6bb4359b13415ad153b1d7f951d6eb48929350612c53565b90945f865b612cc6575b50612c8b565b6007805480831015612d945787612cdc846143a5565b905490861b1c14612cf1575050860186612cbb565b93975091925f199190828101908111612d8157612c3a612d13612d1f926143a5565b905490871b1c926143a5565b90558154968715612d6f5750807f245acbaab7e228af4af2dfe740a37cbd6bb4359b13415ad153b1d7f951d6eb4896970192612d5a846143a5565b81939154921b1b191690555583928580612cc0565b634e487b7160e01b5f5260316004525ffd5b88634e487b7160e01b5f5260116004525ffd5b5050612cc0565b905087612c85565b508015612be8565b90508b01518f612bb2565b908c918b96601f198316855f5260205f20925f905b828210612e10575050612bd898508311612df8575b5050811b0190559060ff801983541691151516179055565b8c01515f1960f88460031b161c191690558e80612de0565b93838594989a50849396999b979297015181550195019301928c9795928f948f989693612dcb565b34611658575f36600319011261165857602060405162aa36a78152f35b6060806003193601126116585767ffffffffffffffff9060043582811161165857612e84903690600401614575565b91602491823593828511611658573660238601121561165857846004013592612eac846143ef565b93612eba6040519586614001565b808552602096868887019260051b820101913683116116585787899201905b8382106130ed575050505060443594818611611658573660238701121561165857856004013591821161165857808601958136918460051b01011161165857612f2061524a565b612f286152a4565b82518286518214918215926130e2575b505061309f5750612f498251614c7e565b5f94855b8451871015612f7857612f7060019187612f678a89614c3b565b51015190614cb0565b960195612f4d565b9387612f858a963361540d565b5f5b82518110156130685780612f9f612fe2928885614cbd565b9050613038575b87612fb18286614c3b565b516001600160a01b03612fc48489614c3b565b5116906040519485928392638f20a7f760e01b845260048401614cff565b03815f305af18015612a85575f9061300a575b600192506130038288614c3b565b5201612f87565b508782813d8311613031575b6130208183614001565b810103126116585760019151612ff5565b503d613016565b6130636001600160a01b038961304e8488614c3b565b5101511661305d838a87614cbd565b9161556f565b612fa6565b60017f9b779b17422d0df92223018b32b4d1fa46e071723d6817e2486d003becc55f0055604051878152806104b3818a01886145f5565b8660156064926040519262461bcd60e51b845260048401528201527f4172726179206c656e677468206d69736d6174636800000000000000000000006044820152fd5b141590508289612f38565b8280916130f984613f21565b815201910190612ed9565b34611658575f36600319011261165857602060ff600154166040519015158152f35b34611658575f366003190112611658576020604051620138818152f35b346116585760603660031901126116585761315c613ef5565b60243590604435906001600160a01b03908183168093036116585761317f61515b565b16806131a557505f808093819382821561319c575bf115612a8557005b506108fc613194565b91604051917fa9059cbb000000000000000000000000000000000000000000000000000000005f5260045260245260205f60448180865af160015f5114811615613209575b81604052156131f557005b602491635274afe760e01b82526004820152fd5b600181151661321f57823b15153d1516166131ea565b503d5f823e3d90fd5b34611658576020366003190112611658576004355f52600260205260405f208054604051916132658361325e816001850161421c565b0384614001565b60ff600282015416906001600160a01b0360046003830154920154169061329e604051958695865260a0602087015260a0860190614072565b9215156040850152606084015260808301520390f35b346116585760203660031901126116585760043560075481101561165857611cc96020916143a5565b34611658575f366003190112611658576020604051603c8152f35b34611658575f366003190112611658576133106151d4565b60015460ff81161561334f5760ff19166001557f5db9ee0a495bf2e6ff9c91a7834c1ba4fdd244a5e8aa4e537bd38aeae4b073aa6020604051338152a1005b60046040517f8dfc202b000000000000000000000000000000000000000000000000000000008152fd5b34611658576020366003190112611658576004355f52600460205260405f2080546001600160a01b039182600182015416926002820154166133bd600383016142ad565b916134066133fb60ff60138401541694601560148501549401549460405198899889526020890152604088015260e0606088015260e0870190614097565b93608086019061415d565b60a084015260c08301520390f35b346116585760403660031901126116585761342d613f0b565b336001600160a01b038216036134495761001a9060043561539a565b60046040517f6697b232000000000000000000000000000000000000000000000000000000008152fd5b34611658576080806003193601126116585761348d613ef5565b90613496613f0b565b60443590606435936001600160a01b0394604051937f17649dc00000000000000000000000000000000000000000000000000000000085528060048601525f856024818a7f0000000000000000000000000000000000000000000000000000000000000000165afa948515612a85575f95613829575b505f945f5b81518110156135d25785896135268385614c3b565b51604051633a77421d60e21b81526001600160a01b038981166004830152939093166024840152604483018690526064830187905260209291839183916084918391165afa918215612a85575f9261359c575b5050613588575b600101613511565b95613594600191614c5c565b969050613580565b90809250813d83116135cb575b6135b38183614001565b81010312611658576135c490614c4f565b8a80613579565b503d6135a9565b5092869488916135fa6135e4896143ef565b986135f26040519a8b614001565b808a526143ef565b60209390601f1901845f5b8281106137fb575050505f965f5b815181101561379c57826136278284614c3b565b51604051633a77421d60e21b81526001600160a01b03878116600483015288166024820152604481018a9052606481018b90529116908781608481855afa908115612a85575f91613767575b50613682575b50600101613613565b6040517f3542284b0000000000000000000000000000000000000000000000000000000081526001600160a01b0386811660048301528716602482015260448101899052606481018a90529199908783608481845afa8015612a85578d935f91613731575b508260019461372a9493613724936040519161370283613f44565b82528d8d83015260408201525f606082015261371e8383614c3b565b52614c3b565b50614c5c565b9890613679565b9350909190508783813d8111613760575b61374c8183614001565b810103126116585791518c929190826136e7565b503d613742565b90508781813d8311613795575b61377e8183614001565b810103126116585761378f90614c4f565b8d613673565b503d613774565b604080518781528c518189018190528d890192820190895f8f895b8483106137c45786860387f35b87518051821687528085015187860152604080820151908801526060908101519087015296830196948101946001909201916137b7565b60405182828e61380a84613f44565b5f84525f838501525f60408501525f6060850152010152018590613605565b61383e9195503d805f833e610ac08183614001565b938761350c565b34611658576101603660031901126116585761385f613ef5565b613867613f0b565b60643560843560a03660a3190112611658576040519161388683613f90565b60a435600381101561165857835260209460c4358685015260e43560408501526101043560608501526101243591821515830361165857846101649360805f9701526101448035916138d784615357565b6138e087615357565b600a83116139e1575b613933906001600160a01b03978895866040519c8d9b8c9a630c6443b160e21b8c521660048b015216602489015260443560448901526064880152608487015260a4860190614958565b8301527f0000000000000000000000000000000000000000000000000000000000000000165afa908115612a85575f916139c7575b506040519082820192808352815180945260408301938160408260051b8601019301915f955b82871061399b5785850386f35b9091929382806139b7600193603f198a82030186528851614097565b960192019601959291909261398e565b6139db91503d805f833e6105638183614001565b82613968565b600a92506138e9565b34611658575f3660031901126116585760206040516001600160a01b037f0000000000000000000000000000000000000000000000000000000000000000168152f35b346116585760403660031901126116585761001a600435613a4c613f0b565b90805f525f602052613a64600160405f200154615229565b6152da565b34611658576020366003190112611658576001600160a01b03613a8a613ef5565b165f52600360205260a060405f20805490600181015490600281015460ff60046003840154930154169260405194855260208501526040840152606083015215156080820152f35b3461165857602036600319011261165857613aeb614a69565b506004355f5260046020526104b3613b0560405f20614aa6565b60405191829160208352602083019061417e565b34611658576020366003190112611658576004355f525f6020526020600160405f200154604051908152f35b34611658575f36600319011261165857602060405161a4b18152f35b34611658575f3660031901126116585760206040517fbf233dd2aafeb4d50879c4aa5c81e96d92f6e6945c906a58f9f2d1c1631b4b268152f35b6003196101803682011261165857613bb1613ef5565b90613bba613f0b565b9160a435926001600160a01b0384168094036116585760a03660c31901126116585760405190613be982613f90565b60c435600381101561165857825260209460e435868401526101043560408401526101243560608401526101443580151581036116585760808401526101643567ffffffffffffffff811161165857613c475f913690600401614023565b959093613c5261524a565b613c5a6152a4565b613c83604051968793849362ef69ff60e81b855260843591606435916044359160048801614991565b0381305afa908115612a85578694613cc5945f93613d47575b50613cd992936040519788968796638f20a7f760e01b8852606060048901526064880190614097565b9360248701528584030160448601526149cc565b038134305af1908115612a85575f91613d1a575b5060017f9b779b17422d0df92223018b32b4d1fa46e071723d6817e2486d003becc55f0055604051908152f35b90508181813d8311613d40575b613d318183614001565b81010312611658575182613ced565b503d613d27565b613cd99350613d67903d805f833e613d5f8183614001565b810190614932565b92613c9c565b3461165857604036600319011261165857613d86613ef5565b7f535170cdd198aab597fd6ec54902e87dea80324b100d5bb2aa2ef2205b61f44060206001600160a01b0360243593613dbd6151d4565b1692835f52600382528060405f2055604051908152a2005b3461165857604036600319011261165857613dee613ef5565b7f6a12b3df6cba4203bd7fd06b816789f87de8c594299aed5717ae070fac781bac60206001600160a01b03613e21613f35565b93613e2a61515b565b1692835f5260098252613e4c8160405f209060ff801983541691151516179055565b6040519015158152a2005b3461165857602036600319011261165857600435907fffffffff00000000000000000000000000000000000000000000000000000000821680920361165857817f7965db0b0000000000000000000000000000000000000000000000000000000060209314908115613ecb575b5015158152f35b7f01ffc9a70000000000000000000000000000000000000000000000000000000091501483613ec4565b600435906001600160a01b038216820361165857565b602435906001600160a01b038216820361165857565b35906001600160a01b038216820361165857565b60243590811515820361165857565b6080810190811067ffffffffffffffff821117612c6757604052565b67ffffffffffffffff8111612c6757604052565b60e0810190811067ffffffffffffffff821117612c6757604052565b60a0810190811067ffffffffffffffff821117612c6757604052565b60c0810190811067ffffffffffffffff821117612c6757604052565b610140810190811067ffffffffffffffff821117612c6757604052565b6020810190811067ffffffffffffffff821117612c6757604052565b90601f8019910116810190811067ffffffffffffffff821117612c6757604052565b9181601f840112156116585782359167ffffffffffffffff8311611658576020838186019501011161165857565b5f5b8381106140625750505f910152565b8181015183820152602001614053565b9060209161408b81518092818552858086019101614051565b601f01601f1916010190565b906101e06102006001600160a01b038085511684528060208601511660208501526040850151166040840152606084015160608401526080840151608084015260a084015160a084015260c084015160c084015261415460e085015191825160e08601526020830151610100908187015260c060408501519461012095868901526060810151610140890152608081015161016089015260a081015161018089015201516101a087015286015190806101c0870152850190614072565b93015191015290565b90600582101561416a5752565b634e487b7160e01b5f52602160045260245ffd5b908151815260208201516001600160a01b038091166020830152604083015116604082015260c0806141bf606085015160e0606086015260e0850190614097565b936141d26080820151608086019061415d565b60a081015160a0850152015191015290565b90600182811c92168015614212575b60208310146141fe57565b634e487b7160e01b5f52602260045260245ffd5b91607f16916141f3565b80545f939261422a826141e4565b918282526020936001916001811690815f1461428e5750600114614250575b5050505050565b90939495505f92919252835f2092845f945b83861061427a57505050500101905f80808080614249565b805485870183015294019385908201614262565b60ff19168685015250505090151560051b010191505f80808080614249565b906040516142ba81613fc8565b610120600f82946001600160a01b0380825416855280600183015416602086015260028201541660408501526003810154606085015260048101546080850152600581015460a0850152600681015460c085015260405161431a81613f74565b600782015481526008820154602082015260098201546040820152600a8201546060820152600b8201546080820152600c82015460a0820152600d82015460c082015260e085015260405161437d8161437681600e860161421c565b0382614001565b6101008501520154910152565b34611658575f366003190112611658576020604051600a8152f35b6007548110156119be5760075f527fa66cc928b5edb82af9bd49922954155ab7b0942694bea4ce44661d9a8736c68801905f90565b80548210156119be575f5260205f2001905f90565b67ffffffffffffffff8111612c675760051b60200190565b67ffffffffffffffff8111612c6757601f01601f191660200190565b92919261442f82614407565b9161443d6040519384614001565b829481845281830111611658578281602093845f960137010152565b9190828103926102008412611658576040519161447583613fc8565b60e0839561448284613f21565b855261449060208501613f21565b60208601526144a160408501613f21565b6040860152606084013560608601526080840135608086015260a084013560a086015260c084013560c086015260df19011261165857604051916144e483613f74565b60e08101358352610100808201356020850152610120938483013560408201526101408301356060820152610160830135608082015261018083013560a08201526101a083013560c082015260e08601526101c082013567ffffffffffffffff811161165857820183601f82011215611658576101e09381602061456a93359101614423565b908501520135910152565b81601f820112156116585780359160209161458f846143ef565b9361459d6040519586614001565b808552838086019160051b8301019280841161165857848301915b8483106145c85750505050505090565b823567ffffffffffffffff81116116585786916145ea84848094890101614459565b8152019201916145b8565b9081518082526020808093019301915f5b828110614614575050505090565b835185529381019392810192600101614606565b9080601f830112156116585781602061464393359101614423565b90565b90610140600319830112611658576001600160a01b03916004358381168103611658579260243590811681036116585791604435916064359160a06084359260a31901126116585760405161469a81613f90565b60a435600381101561165857815260c435602082015260e435604082015261010435606082015261012435801515810361165857608082015290565b9081518082526020808093019301915f5b8281106146f5575050505090565b83516001600160a01b0316855293810193928101926001016146e7565b9060a0810191805160a08352805180945260c0830160c08560051b850101946020809301915f905b82821061479e57505050508082015193838103828501528180865192838152019501915f5b82811061478a5750505050608081604082930151604085015260608101516060850152015191015290565b83518752958101959281019260010161475f565b909192939687806147bb60019360bf198b82030186528851614097565b999601949391909101910161473a565b51906001600160a01b038216820361165857565b909291926147ec81614407565b916147fa6040519384614001565b829482845282820111611658576020614814930190614051565b565b9190828103926102008412611658576040519161483283613fc8565b60e0839561483f846147cb565b855261484d602085016147cb565b602086015261485e604085016147cb565b6040860152606084015160608601526080840151608086015260a084015160a086015260c084015160c086015260df19011261165857604051916148a183613f74565b60e08101518352610100808201516020850152610120938483015160408201526101408301516060820152610160830151608082015261018083015160a08201526101a083015160c082015260e08601526101c082015167ffffffffffffffff811161165857820183601f82011215611658576101e093816020614927935191016147df565b908501520151910152565b9060208282031261165857815167ffffffffffffffff8111611658576146439201614816565b8051600381101561416a576080918291845260208101516020850152604081015160408501526060810151606085015201511515910152565b9196959360a09361481496926101408501996001600160a01b0380921686521660208501526040840152606083015260808201520190614958565b908060209392818452848401375f828201840152601f01601f1916010190565b604051906149f982613fc8565b5f610120838281528260208201528260408201528260608201528260808201528260a08201528260c0820152604051614a3181613f74565b8381528360208201528360408201528360608201528360808201528360a08201528360c082015260e082015260606101008201520152565b60405190614a7682613f74565b5f60c083828152826020820152826040820152614a916149ec565b60608201528260808201528260a08201520152565b90604051614ab381613f74565b8092805482526001600160a01b038060018301541660208401526002820154166040830152614ae4600382016142ad565b606083015260ff601382015416600581101561416a5760c0916015916080850152601481015460a08501520154910152565b90602090818382031261165857825167ffffffffffffffff93848211611658570181601f82011215611658578051614b4d816143ef565b94614b5b6040519687614001565b818652848087019260051b8401019380851161165857858401925b858410614b87575050505050505090565b8351838111611658578791614ba1848480948a0101614816565b815201930192614b76565b9080601f8301121561165857815190602091614bc7816143ef565b93614bd56040519586614001565b81855260208086019260051b82010192831161165857602001905b828210614bfe575050505090565b838091614c0a846147cb565b815201910190614bf0565b9060208282031261165857815167ffffffffffffffff8111611658576146439201614bac565b80518210156119be5760209160051b010190565b5190811515820361165857565b5f198114614c6a5760010190565b634e487b7160e01b5f52601160045260245ffd5b90614c88826143ef565b614c956040519182614001565b8281528092614ca6601f19916143ef565b0190602036910137565b91908201809211614c6a57565b91908110156119be5760051b81013590601e198136030182121561165857019081359167ffffffffffffffff8311611658576020018236038113611658579190565b6001600160a01b03614d1c60209493606084526060840190614097565b92168382015260408183039101525f81520190565b818110614d3c575050565b5f8155600101614d31565b9190601f8111614d5657505050565b614814925f5260205f20906020601f840160051c83019310614d80575b601f0160051c0190614d31565b9091508190614d73565b91908203918211614c6a57565b90614daf602091949394604084526040840190614072565b931515910152565b6040519060075480835282602091602082019060075f527fa66cc928b5edb82af9bd49922954155ab7b0942694bea4ce44661d9a8736c688935f905b828210614e095750505061481492500383614001565b855484526001958601958895509381019390910190614df3565b9080601f83011215611658578151614643926020016147df565b60085468010000000000000000811015612c675760018101806008558110156119be5760085f527ff3f7a9fe364faab93b216da50a3214154f22a0a2b415b23a84c8169e8b636ee30155565b80549068010000000000000000821015612c675781612c3a916001614eb0940181556143da565b9055565b8115614ebe570490565b634e487b7160e01b5f52601260045260245ffd5b6001600160a01b03165f52602090600682526040805f20936040518086868298549384815201905f52865f20925f5b8882821061500257505050614f1892500386614001565b8451831015614feb57614f2b9083614cb0565b928451808511614fe3575b50614f418385614d8a565b94614f4b866143ef565b95614f596040519788614001565b808752614f68601f19916143ef565b01825f5b828110614fcd57505050835b858110614f885750505050505090565b80614f9560019284614c3b565b515f5260048452614fc6855f20614fb5614faf8985614d8a565b91614aa6565b614fbf828c614c3b565b5289614c3b565b5001614f78565b614fd5614a69565b82828b010152018390614f6c565b93505f614f36565b5050505050604051614ffc81613fe5565b5f815290565b855484526001958601958b955093019201614f01565b919390926150246149ec565b5061502e81615357565b61503782615357565b615045868383888888615718565b5f52600c60205260405f206040519061505d82613f44565b615066816142ad565b825260ff6012601083015492836020860152601181015460408601520154161515908160608401528161511a575b5061510f5750946150bc915f9596604051978896879662ef69ff60e81b885260048801614991565b03816001600160a01b037f0000000000000000000000000000000000000000000000000000000000000000165afa908115612a85575f916150fb575090565b61464391503d805f833e613d5f8183614001565b955050505050505190565b615125915042614d8a565b600d54115f615094565b6040519061513c82613f90565b5f60808360608152606060208201528260408201528260608201520152565b335f9081527f3c1b1854ab1360abbb06c8d4c6b2672d4b8cedc5eff522ab19e51d5cb8fdbd4660205260409020547fbf233dd2aafeb4d50879c4aa5c81e96d92f6e6945c906a58f9f2d1c1631b4b269060ff16156151b65750565b6044906040519063e2517d3f60e01b82523360048301526024820152fd5b335f9081527fad3228b676f7d3cd4284a5443f17f1962b36e491b30a40b2405849e597ba5fb5602052604090205460ff161561520c57565b604460405163e2517d3f60e01b81523360048201525f6024820152fd5b805f525f60205260405f20335f5260205260ff60405f205416156151b65750565b7f9b779b17422d0df92223018b32b4d1fa46e071723d6817e2486d003becc55f00600281541461527a5760029055565b60046040517f3ee5aeb5000000000000000000000000000000000000000000000000000000008152fd5b60ff600154166152b057565b60046040517fd93c0665000000000000000000000000000000000000000000000000000000008152fd5b90815f525f6020526001600160a01b0360405f20911690815f5260205260ff60405f205416155f1461535157815f525f60205260405f20815f5260205260405f20600160ff1982541617905533917f2f8788117e7eff1d82e926ec794901d17c78024a50270940304540a733656f0d5f80a4600190565b50505f90565b5f52600260205260ff600260405f200154161561537057565b60046040517ff21c9f07000000000000000000000000000000000000000000000000000000008152fd5b90815f525f6020526001600160a01b0360405f20911690815f5260205260ff60405f2054165f1461535157815f525f60205260405f20815f5260205260405f2060ff19815416905533917ff6391f5c32d9c69d2a47ea670b442974b53935d1edc7fd64eb21e047a839171b5f80a4600190565b6001600160a01b031690815f52600960205260409160ff835f20541661554657811561551d575f526003602052815f2082519161544983613f90565b8154835260018201549260208101938452600a61548b60ff6004600287015496878a870152600381015460608701520154169460808401951515865242614d8a565b106154f4575180156154ea57915b511592836154d5575b5050506154ac5750565b600490517f194bd314000000000000000000000000000000000000000000000000000000008152fd5b6154e192935051614cb0565b115f80806154a2565b50600b5491615499565b600485517f04a22aed000000000000000000000000000000000000000000000000000000008152fd5b600483517f2b069ba2000000000000000000000000000000000000000000000000000000008152fd5b600483517f9949d1cc000000000000000000000000000000000000000000000000000000008152fd5b90821561561857303b15611658575f916155cd6001600160a01b039260405195869485947fe0083a8f0000000000000000000000000000000000000000000000000000000086521660048501526040602485015260448401916149cc565b038183305af19081615609575b506148145760046040517fd57b995a000000000000000000000000000000000000000000000000000000008152fd5b61561290613f60565b5f6155da565b505050565b9092604051937f23b872dd000000000000000000000000000000000000000000000000000000005f526001600160a01b0393848092166004521660245260445260205f60648180855af160015f511481161561569c575b836040525f6060521561568657505050565b60249350635274afe760e01b8352166004820152fd5b60018115166156b257813b15153d151616615674565b833d5f823e3d90fd5b6001600160a01b03165f52600360205260405f2060028101805492620151808401809411614c6a5760039342101561570d575b6156fd60018401918254614cb0565b905542905501614eb08154614c5c565b5f60018401556156ee565b9390949192825192600384101561416a5760200151936040519560208701976bffffffffffffffffffffffff19809260601b16895260601b16603487015260488601526068850152608884015260f81b60a883015260a982015260a9815261577f81613f74565b5190209056fea164736f6c6343000818000a2f8788117e7eff1d82e926ec794901d17c78024a50270940304540a733656f0d245acbaab7e228af4af2dfe740a37cbd6bb4359b13415ad153b1d7f951d6eb48ad3228b676f7d3cd4284a5443f17f1962b36e491b30a40b2405849e597ba5fb5","linkReferences":{}},"methodIdentifiers":{"ARBITRUM_ONE()":"2168ca0f","ARBITRUM_SEPOLIA()":"abff4733","BASIS_POINTS()":"e1f1c4a7","DEFAULT_ADMIN_ROLE()":"a217fddf","EMERGENCY_ROLE()":"20df4359","ETHEREUM_MAINNET()":"8c973ff2","ETHEREUM_SEPOLIA()":"698b29b9","MAX_ROUTES_PER_QUERY()":"e0f944d9","MAX_SLIPPAGE_BPS()":"e229cd76","MIN_TRANSFER_INTERVAL()":"3cb177eb","POLYGON_MAINNET()":"923e10d9","POLYGON_MUMBAI()":"573d2f34","ROUTE_CACHE_TTL()":"4b540c64","SETTLEMENT_OPERATOR_ROLE()":"89674f9f","allTransferIds(uint256)":"e826e1aa","blacklistedAddresses(address)":"d5749d42","bridgeRegistry()":"316be171","bridgeWithAutoRoute(address,address,uint256,uint256,uint256,address,(uint8,uint256,uint256,uint256,bool),bytes)":"1cc5d06a","chainConfigs(uint256)":"51bfbc32","defaultDailyLimit()":"c76b0888","emergencyPause(string)":"cf5b4fd5","emergencyUnpause()":"4a4e3bd5","emergencyWithdraw(address,uint256,address)":"551512de","executeBatchBridge((address,address,address,uint256,uint256,uint256,uint256,(uint256,uint256,uint256,uint256,uint256,uint256,uint256),bytes,uint256)[],address[],bytes[])":"5d762db2","executeBridge((address,address,address,uint256,uint256,uint256,uint256,(uint256,uint256,uint256,uint256,uint256,uint256,uint256),bytes,uint256),address,bytes)":"8f20a7f7","executeMultiPathBridge(((address,address,address,uint256,uint256,uint256,uint256,(uint256,uint256,uint256,uint256,uint256,uint256,uint256),bytes,uint256)[],uint256[],uint256,uint256,uint256),address,bytes)":"cd8396d6","executePermit(address,bytes)":"e0083a8f","feeManager()":"d0fb0203","findMultiPathRoute(address,address,uint256,uint256,uint256,(uint8,uint256,uint256,uint256,bool))":"f518ac6b","findMultipleRoutes(address,address,uint256,uint256,uint256,(uint8,uint256,uint256,uint256,bool),uint256)":"31910ec4","findOptimalRoute(address,address,uint256,uint256,uint256,(uint8,uint256,uint256,uint256,bool))":"ef69ff00","getAvailableLiquidity(address,address,uint256,uint256)":"3542284b","getCachedRoute(address,address,uint256,uint256,uint256,(uint8,uint256,uint256,uint256,bool))":"db2df30e","getRegisteredAdapters()":"ecbed100","getRoleAdmin(bytes32)":"248a9ca3","getRouteCacheTtl()":"91927db7","getSupportedChains()":"c4bffe2b","getTransfer(bytes32)":"260958a5","getUserTransfers(address,uint256,uint256)":"d5807d8a","grantRole(bytes32,address)":"2f2ff15d","hasRole(bytes32,address)":"91d14854","isPaused()":"b187bd26","multiPathExecutions(bytes32)":"e1874699","paused()":"5c975abb","registerBridgeAdapter(address,bool)":"8dbbfe31","renounceRole(bytes32,address)":"36568abe","revokeRole(bytes32,address)":"d547741f","routeCache(bytes32)":"8e503836","routeCacheTtl()":"cead67f2","routeCalculator()":"9a7b5f02","setBlacklistStatus(address,bool)":"03d29d28","setBridgeAdapterStatus(address,bool,string)":"cbc92369","setUserDailyLimit(address,uint256)":"177c49a7","supportedChainIds(uint256)":"4cf2ab32","supportsInterface(bytes4)":"01ffc9a7","transfers(bytes32)":"3c64f04b","updateChainConfig(uint256,string,bool,uint256)":"72f98e5f","updateRouteCacheTtl(uint256)":"8cb5fb6f","userLimits(address)":"2c1bc2b2","userTransferHistory(address,uint256)":"9e34823c","whitelistedTokens(address)":"daf9c210"}}}}}