{"abi":[{"type":"constructor","inputs":[{"name":"_owner","type":"address","internalType":"address"},{"name":"_initialMerkleRoot","type":"bytes32","internalType":"bytes32"}],"stateMutability":"nonpayable"},{"type":"receive","stateMutability":"payable"},{"type":"function","name":"ARBITRUM_MAINNET_OUTBOX","inputs":[],"outputs":[{"name":"","type":"address","internalType":"address"}],"stateMutability":"view"},{"type":"function","name":"ARBITRUM_OUTBOX","inputs":[],"outputs":[{"name":"","type":"address","internalType":"address"}],"stateMutability":"view"},{"type":"function","name":"CHALLENGE_PERIOD","inputs":[],"outputs":[{"name":"","type":"uint256","internalType":"uint256"}],"stateMutability":"view"},{"type":"function","name":"MAX_PROOF_AGE","inputs":[],"outputs":[{"name":"","type":"uint256","internalType":"uint256"}],"stateMutability":"view"},{"type":"function","name":"MAX_WITHDRAWAL_AMOUNT","inputs":[],"outputs":[{"name":"","type":"uint256","internalType":"uint256"}],"stateMutability":"view"},{"type":"function","name":"MIN_WITHDRAWAL_AMOUNT","inputs":[],"outputs":[{"name":"","type":"uint256","internalType":"uint256"}],"stateMutability":"view"},{"type":"function","name":"WITHDRAWAL_FEE_BPS","inputs":[],"outputs":[{"name":"","type":"uint256","internalType":"uint256"}],"stateMutability":"view"},{"type":"function","name":"accumulatedFees","inputs":[],"outputs":[{"name":"","type":"uint256","internalType":"uint256"}],"stateMutability":"view"},{"type":"function","name":"challengeWithdrawal","inputs":[{"name":"withdrawalId","type":"bytes32","internalType":"bytes32"},{"name":"reason","type":"string","internalType":"string"}],"outputs":[],"stateMutability":"nonpayable"},{"type":"function","name":"challengedWithdrawals","inputs":[{"name":"","type":"bytes32","internalType":"bytes32"}],"outputs":[{"name":"challenger","type":"address","internalType":"address"},{"name":"challengeTimestamp","type":"uint256","internalType":"uint256"},{"name":"challengeReason","type":"string","internalType":"string"},{"name":"resolved","type":"bool","internalType":"bool"},{"name":"challengeValid","type":"bool","internalType":"bool"}],"stateMutability":"view"},{"type":"function","name":"currentOutbox","inputs":[],"outputs":[{"name":"","type":"address","internalType":"address"}],"stateMutability":"view"},{"type":"function","name":"emergencyWithdraw","inputs":[{"name":"recipient","type":"address","internalType":"address"},{"name":"amount","type":"uint256","internalType":"uint256"}],"outputs":[],"stateMutability":"nonpayable"},{"type":"function","name":"emergencyWithdrawalEnabled","inputs":[],"outputs":[{"name":"","type":"bool","internalType":"bool"}],"stateMutability":"view"},{"type":"function","name":"executeWithdrawal","inputs":[{"name":"withdrawalId","type":"bytes32","internalType":"bytes32"}],"outputs":[],"stateMutability":"nonpayable"},{"type":"function","name":"executedWithdrawals","inputs":[{"name":"","type":"bytes32","internalType":"bytes32"}],"outputs":[{"name":"","type":"bool","internalType":"bool"}],"stateMutability":"view"},{"type":"function","name":"getUserWithdrawals","inputs":[{"name":"user","type":"address","internalType":"address"}],"outputs":[{"name":"withdrawalIds","type":"bytes32[]","internalType":"bytes32[]"}],"stateMutability":"view"},{"type":"function","name":"getWithdrawal","inputs":[{"name":"withdrawalId","type":"bytes32","internalType":"bytes32"}],"outputs":[{"name":"withdrawal","type":"tuple","internalType":"struct ArbitrumWithdrawalManager.WithdrawalData","components":[{"name":"user","type":"address","internalType":"address"},{"name":"amount","type":"uint256","internalType":"uint256"},{"name":"recipient","type":"address","internalType":"address"},{"name":"timestamp","type":"uint256","internalType":"uint256"},{"name":"status","type":"uint8","internalType":"enum ArbitrumWithdrawalManager.WithdrawalStatus"},{"name":"l2TxHash","type":"bytes32","internalType":"bytes32"},{"name":"merkleProof","type":"bytes32[]","internalType":"bytes32[]"},{"name":"challengePeriodEnd","type":"uint256","internalType":"uint256"},{"name":"feesPaid","type":"uint256","internalType":"uint256"}]}],"stateMutability":"view"},{"type":"function","name":"initiateWithdrawal","inputs":[{"name":"request","type":"tuple","internalType":"struct ArbitrumWithdrawalManager.WithdrawalRequest","components":[{"name":"recipient","type":"address","internalType":"address"},{"name":"amount","type":"uint256","internalType":"uint256"},{"name":"l2TxHash","type":"bytes32","internalType":"bytes32"},{"name":"merkleProof","type":"bytes32[]","internalType":"bytes32[]"},{"name":"index","type":"uint256","internalType":"uint256"}]}],"outputs":[{"name":"withdrawalId","type":"bytes32","internalType":"bytes32"}],"stateMutability":"nonpayable"},{"type":"function","name":"isWithdrawalReady","inputs":[{"name":"withdrawalId","type":"bytes32","internalType":"bytes32"}],"outputs":[{"name":"ready","type":"bool","internalType":"bool"}],"stateMutability":"view"},{"type":"function","name":"owner","inputs":[],"outputs":[{"name":"","type":"address","internalType":"address"}],"stateMutability":"view"},{"type":"function","name":"pause","inputs":[],"outputs":[],"stateMutability":"nonpayable"},{"type":"function","name":"paused","inputs":[],"outputs":[{"name":"","type":"bool","internalType":"bool"}],"stateMutability":"view"},{"type":"function","name":"renounceOwnership","inputs":[],"outputs":[],"stateMutability":"nonpayable"},{"type":"function","name":"resolveChallenge","inputs":[{"name":"withdrawalId","type":"bytes32","internalType":"bytes32"},{"name":"challengeValid","type":"bool","internalType":"bool"}],"outputs":[],"stateMutability":"nonpayable"},{"type":"function","name":"setCurrentOutbox","inputs":[{"name":"outboxAddress","type":"address","internalType":"address"}],"outputs":[],"stateMutability":"nonpayable"},{"type":"function","name":"setEmergencyWithdrawalEnabled","inputs":[{"name":"enabled","type":"bool","internalType":"bool"}],"outputs":[],"stateMutability":"nonpayable"},{"type":"function","name":"totalETHWithdrawn","inputs":[],"outputs":[{"name":"","type":"uint256","internalType":"uint256"}],"stateMutability":"view"},{"type":"function","name":"totalWithdrawals","inputs":[],"outputs":[{"name":"","type":"uint256","internalType":"uint256"}],"stateMutability":"view"},{"type":"function","name":"transferOwnership","inputs":[{"name":"newOwner","type":"address","internalType":"address"}],"outputs":[],"stateMutability":"nonpayable"},{"type":"function","name":"unpause","inputs":[],"outputs":[],"stateMutability":"nonpayable"},{"type":"function","name":"updateWithdrawalMerkleRoot","inputs":[{"name":"newRoot","type":"bytes32","internalType":"bytes32"}],"outputs":[],"stateMutability":"nonpayable"},{"type":"function","name":"userWithdrawals","inputs":[{"name":"","type":"address","internalType":"address"},{"name":"","type":"uint256","internalType":"uint256"}],"outputs":[{"name":"","type":"bytes32","internalType":"bytes32"}],"stateMutability":"view"},{"type":"function","name":"withdrawFees","inputs":[{"name":"to","type":"address","internalType":"address"}],"outputs":[],"stateMutability":"nonpayable"},{"type":"function","name":"withdrawalMerkleRoot","inputs":[],"outputs":[{"name":"","type":"bytes32","internalType":"bytes32"}],"stateMutability":"view"},{"type":"function","name":"withdrawals","inputs":[{"name":"","type":"bytes32","internalType":"bytes32"}],"outputs":[{"name":"user","type":"address","internalType":"address"},{"name":"amount","type":"uint256","internalType":"uint256"},{"name":"recipient","type":"address","internalType":"address"},{"name":"timestamp","type":"uint256","internalType":"uint256"},{"name":"status","type":"uint8","internalType":"enum ArbitrumWithdrawalManager.WithdrawalStatus"},{"name":"l2TxHash","type":"bytes32","internalType":"bytes32"},{"name":"challengePeriodEnd","type":"uint256","internalType":"uint256"},{"name":"feesPaid","type":"uint256","internalType":"uint256"}],"stateMutability":"view"},{"type":"event","name":"ChallengeResolved","inputs":[{"name":"withdrawalId","type":"bytes32","indexed":true,"internalType":"bytes32"},{"name":"challenger","type":"address","indexed":true,"internalType":"address"},{"name":"valid","type":"bool","indexed":false,"internalType":"bool"}],"anonymous":false},{"type":"event","name":"OwnershipTransferred","inputs":[{"name":"previousOwner","type":"address","indexed":true,"internalType":"address"},{"name":"newOwner","type":"address","indexed":true,"internalType":"address"}],"anonymous":false},{"type":"event","name":"Paused","inputs":[{"name":"account","type":"address","indexed":false,"internalType":"address"}],"anonymous":false},{"type":"event","name":"Unpaused","inputs":[{"name":"account","type":"address","indexed":false,"internalType":"address"}],"anonymous":false},{"type":"event","name":"WithdrawalChallenged","inputs":[{"name":"withdrawalId","type":"bytes32","indexed":true,"internalType":"bytes32"},{"name":"challenger","type":"address","indexed":true,"internalType":"address"},{"name":"reason","type":"string","indexed":false,"internalType":"string"}],"anonymous":false},{"type":"event","name":"WithdrawalExecuted","inputs":[{"name":"withdrawalId","type":"bytes32","indexed":true,"internalType":"bytes32"},{"name":"recipient","type":"address","indexed":true,"internalType":"address"},{"name":"amount","type":"uint256","indexed":false,"internalType":"uint256"},{"name":"feesPaid","type":"uint256","indexed":false,"internalType":"uint256"}],"anonymous":false},{"type":"event","name":"WithdrawalInitiated","inputs":[{"name":"withdrawalId","type":"bytes32","indexed":true,"internalType":"bytes32"},{"name":"user","type":"address","indexed":true,"internalType":"address"},{"name":"recipient","type":"address","indexed":true,"internalType":"address"},{"name":"amount","type":"uint256","indexed":false,"internalType":"uint256"},{"name":"l2TxHash","type":"bytes32","indexed":false,"internalType":"bytes32"}],"anonymous":false},{"type":"event","name":"WithdrawalMerkleRootUpdated","inputs":[{"name":"oldRoot","type":"bytes32","indexed":false,"internalType":"bytes32"},{"name":"newRoot","type":"bytes32","indexed":false,"internalType":"bytes32"},{"name":"updatedBy","type":"address","indexed":true,"internalType":"address"}],"anonymous":false},{"type":"error","name":"ChallengeAlreadyResolved","inputs":[]},{"type":"error","name":"EmergencyWithdrawalNotEnabled","inputs":[]},{"type":"error","name":"EnforcedPause","inputs":[]},{"type":"error","name":"ExpectedPause","inputs":[]},{"type":"error","name":"InsufficientContractBalance","inputs":[]},{"type":"error","name":"InvalidMerkleProof","inputs":[]},{"type":"error","name":"InvalidOutbox","inputs":[]},{"type":"error","name":"InvalidRecipient","inputs":[]},{"type":"error","name":"InvalidWithdrawalAmount","inputs":[]},{"type":"error","name":"OwnableInvalidOwner","inputs":[{"name":"owner","type":"address","internalType":"address"}]},{"type":"error","name":"OwnableUnauthorizedAccount","inputs":[{"name":"account","type":"address","internalType":"address"}]},{"type":"error","name":"ProofTooOld","inputs":[]},{"type":"error","name":"ReentrancyGuardReentrantCall","inputs":[]},{"type":"error","name":"TransferFailed","inputs":[]},{"type":"error","name":"WithdrawalAlreadyExecuted","inputs":[]},{"type":"error","name":"WithdrawalCurrentlyChallenged","inputs":[]},{"type":"error","name":"WithdrawalNotFound","inputs":[]},{"type":"error","name":"WithdrawalStillInChallengePeriod","inputs":[]}],"bytecode":{"object":"0x6080346100e657601f611aa638819003918201601f19168301916001600160401b038311848410176100ea5780849260409485528339810103126100e65780516001600160a01b0391828216918290036100e657602001519160015f5581156100ce57600180546001600160a01b031980821685179092557365f07c7d521164a4d5dac6eb8fac8da067a3b78f939192167f8be0079c531659141344cd1fd0a4f28419497f9722a3daafe3b4186f6b6457e05f80a360025416176002556007556040516119a790816100ff8239f35b604051631e4fbdf760e01b81525f6004820152602490fd5b5f80fd5b634e487b7160e01b5f52604160045260245ffdfe608080604052600436101561001c575b50361561001a575f80fd5b005b5f3560e01c908163058c8c2e146116ca575080630a66bb45146116925780631476b5b014611569578063164e68de14611522578063347db309146114f45780633a4ae669146114d95780633f4ba83a146114685780633faaa2521461144057806346d1e91b146113e95780634b2f7bff146110c15780634b51173c146110a4578063587f5ed7146110875780635a1ca716146110595780635bb396941461103c5780635c975abb146110175780636046462714610ffa5780636fc1211714610fa3578063715018a614610f48578063799c1d4e14610f195780637d89122d14610e2c5780637fe4e8ee14610e0a5780638456cb5914610da95780638da5cb5b14610d8157806395ccea6714610d1257806398efa65314610b96578063b9c2aa4314610a0e578063bc0b0d7d146109f1578063c3a079ed146109d5578063d3e5792b146109b5578063d444f787146104e2578063dacc439314610489578063e502eb6814610412578063eebdc0cf146102c0578063efbf64a7146102345763f2fde38b146101a9575f61000f565b34610230576020366003190112610230576101c26116eb565b6101ca611903565b6001600160a01b0390811690811561021857600154826001600160601b0360a01b821617600155167f8be0079c531659141344cd1fd0a4f28419497f9722a3daafe3b4186f6b6457e05f80a3005b604051631e4fbdf760e01b81525f6004820152602490fd5b5f80fd5b34610230576020366003190112610230576004355f52600360205261010060405f2060018060a01b0380825416916001810154916002820154166102af600383015460ff600485015416906005850154936008600787015496015496604051988952602089015260408801526060870152608086019061172a565b60a084015260c083015260e0820152f35b3461023057602080600319360112610230576004355f526006815260405f209060018060a01b0382541691600191600182015491600281016040519485915f9181549161030c83611737565b92838652876001821691825f146103ec5750506001146103ad575b5050506003929161033c91979597038661178c565b015460405194859384528284015260a060408401528351918260a08501525f5b83811061039657505060c0935060ff905f8584860101528181161515606085015260081c1615156080830152601f80199101168101030190f35b80860182015187820160c00152869450810161035c565b8693505f92919252825f20915f925b8284106103d4575050508201018161033c6003610327565b8054848b0186015289955087949093019281016103bc565b60ff19168782015293151560051b8601909301935084925061033c915060039050610327565b3461023057602080600319360112610230576001600160a01b036104346116eb565b165f526004815261044760405f206117ba565b90604051918183928301818452825180915281604085019301915f5b82811061047257505050500390f35b835185528695509381019392810192600101610463565b34610230576020366003190112610230576104a26116eb565b6104aa611903565b6001600160a01b031680156104d0576001600160601b0360a01b60025416176002555f80f35b604051630ba5f6f560e41b8152600490fd5b3461023057600319602036820112610230576004359067ffffffffffffffff82116102305760a09082360301126102305761051b611950565b61052361192f565b6001600160a01b0361053760048301611862565b16156109a357602481013590655af3107a400082108015610991575b61097f5760448101351561096d57606481016105728183600401611876565b90501561096d5761058582600401611862565b9160405160208101933360601b85526001600160601b0319809160601b166034830152856048830152604483013560688301524260888301526088825260c082019482861067ffffffffffffffff87111761090757610160908660405283519020926105f385600401611862565b9260e082019360601b1683528760f482015260448501356101148201528361013482015260748752019480861067ffffffffffffffff8711176109075761065595604052519020946106488484600401611876565b95906007549636916118ac565b95935f945b875186101561069c5760208660051b89010151908181105f1461068b575f52602052600160405f205b95019461065a565b905f52602052600160405f20610683565b860361096d576032820290828204603214831517156108f3578261271083048103116108f3576106db6106d186600401611862565b9186600401611876565b90610e10420142116108f35761073391604051936106f88561176f565b3385526127108604870360208601526001600160a01b0316604085015242606085015260016080850152604488013560a085015236916118ac565b60c0820152610e10420160e08201526127108204610100820152835f52600360205260405f209060018060a01b038151166001600160601b0360a01b908184541617835560208201516001840155600283019060018060a01b03604084015116908254161790556060810151600383015560048201608082015160068110156109595760ff8019835416911617905560a0810151600583015560c081015180519067ffffffffffffffff821161090757600160401b821161090757600684015482600686015580831061092f575b50602001600684015f5260205f205f5b83811061091b57505050506101008160e0600893015160078501550151910155335f52600460205260405f208054600160401b8110156109075761085a91600182018155611701565b9080549160031b5f19928387831b921b19161790556008549081146108f3576020946001604492016008556108956127108404600a54611855565b600a556001600160a01b036108ac60048301611862565b1693612710604051940490038352013584820152827f4a2d6114f40051734145b848c429f442ee848397c160f29e44fe57d487eae9f060403393a460015f55604051908152f35b634e487b7160e01b5f52601160045260245ffd5b634e487b7160e01b5f52604160045260245ffd5b600190602084519401938184015501610811565b600685015f5260205f20908382015b818301811061094e575050610801565b5f815560010161093e565b634e487b7160e01b5f52602160045260245ffd5b60405163582f497d60e11b8152600490fd5b604051639abc749160e01b8152600490fd5b50683635c9adc5dea000008211610553565b604051634e46966960e11b8152600490fd5b34610230575f366003190112610230576020604051655af3107a40008152f35b34610230575f366003190112610230576020604051610e108152f35b34610230575f366003190112610230576020600754604051908152f35b3461023057602036600319011261023057600435610a2a611950565b610a3261192f565b5f81815260036020526040902080546001600160a01b03929190831615610b8457815f52600560205260ff60405f205416610b7257600481019260ff845416600681101561095957600414610b605760078201544210610b4e5747936001830194855411610b3c57835f526005602052600360405f2060ff1990600182825416179055825416179055610ac88454600954611855565b60095560028201915f808080858754168954905af1610ae5611826565b5015610b2a5760086040927f049e2797daee2aadd15e6edee0f05ed19e022b55665ff1c33d22b70e89652b46945416955491015482519182526020820152a360015f55005b6040516312171d8360e31b8152600490fd5b60405163786e0a9960e01b8152600490fd5b604051631164b4fb60e21b8152600490fd5b604051635050939760e01b8152600490fd5b604051632569702d60e21b8152600490fd5b604051638d0fc1dd60e01b8152600490fd5b34610230576020806003193601126102305760405190610bb58261176f565b5f82525f818301525f60408301525f60608301525f60808301525f60a0830152606060c08301525f60e08301525f610100809301526004355f526003815260405f2090604051610c048161176f565b60018060a01b03808454168252600194600185015494848401958652826002820154169260408501938452600382015460608601908152610cc160ff600485015416610c546080890191826117ae565b60058501549260a08901938452610c6d600687016117ba565b9460c08a01958652600860078801549760e08c01988952015498888b01998a528b604080519e8f928084528561014085019f51169084015251910152511660608c01525160808b01525160a08a019061172a565b5160c08801525194610120948560e089015286518091528161016089019701915f5b828110610cff5750505050859650519085015251908301520390f35b8351895297810197928101928a01610ce3565b3461023057604036600319011261023057610d2b6116eb565b60243590610d37611903565b60ff600b541615610d6f576001600160a01b031680156109a357811561097f575f80809381935af1610d67611826565b5015610b2a57005b604051631d04ff5f60e11b8152600490fd5b34610230575f366003190112610230576001546040516001600160a01b039091168152602090f35b34610230575f36600319011261023057610dc1611903565b610dc961192f565b6001805460ff60a01b1916600160a01b1790556040513381527f62e78cea01bee320cd4e420270b5ea74000d11b0c9f74754ebdbfc544b05a25890602090a1005b34610230575f36600319011261023057602060ff600b54166040519015158152f35b3461023057604036600319011261023057600435602435908115159182810361023057610e57611903565b815f52600660205260405f20600360205260405f209060018060a01b03908181541615610b8457600381019283549060ff8216610f075761ffff1990911685151560081b61ff0016176001179093557f70c7b1c541b967f539b76efdafc43bca069f73dce75857526fd08bd3261fdb8e9360209360ff199115610eee57600460059101918254161790555b541693604051908152a3005b9060026004830191825416179055600742910155610ee2565b604051632d921dad60e01b8152600490fd5b34610230576020366003190112610230576004355f526005602052602060ff60405f2054166040519015158152f35b34610230575f36600319011261023057610f60611903565b600180546001600160a01b031981169091555f906001600160a01b03167f8be0079c531659141344cd1fd0a4f28419497f9722a3daafe3b4186f6b6457e08280a3005b3461023057602036600319011261023057600435610fbf611903565b600754908060075560405191825260208201527f1baa4e5891832e8a66a6b0f25cc785aaea8dfd9f84155f3c214f2853913696cf60403392a2005b34610230575f366003190112610230576020600854604051908152f35b34610230575f36600319011261023057602060ff60015460a01c166040519015158152f35b34610230575f36600319011261023057602060405162278d008152f35b34610230575f3660031901126102305760206040517365f07c7d521164a4d5dac6eb8fac8da067a3b78f8152f35b34610230575f366003190112610230576020600a54604051908152f35b34610230575f366003190112610230576020600954604051908152f35b34610230576040366003190112610230576024803567ffffffffffffffff808211610230573660238301121561023057808260040135116102305736838360040135840101116102305761111361192f565b6004355f90815260036020526040902080546001600160a01b039190821615610b845760078101544211610b4e57600401805460ff811660068110156113d657600414610b605760ff191660041790556040519060a08201838111838210176113c3576040523382526020820192428452611191856004013561180a565b61119e604051918261178c565b600486013580825287870160208301375f6020876004013583010152604084019081525f60608501525f60808501526004355f52600660205260405f20928451166001600160601b0360a01b8454161783556001945185840155519384519182116113b0576112106002840154611737565b601f8111611365575b50602094601f83116001146112f1579180806080959361127e986003965f946112e6575b50501b915f1990851b1c19161760028201555b606084015191018054929093015161ffff1990921660ff911515919091161790151560081b61ff0016179055565b604051916020835281600401356020840152816004013590820160408401375f60408260040135840101527fa03da499b6a8e000c31f3fd227e948de739ad96522c98aac083163c1c2fc5002339260408160043594601f8019916004013501168101030190a3005b015192508b8061123d565b90929394600285015f5260205f20915f5b601f198516811061134f57509261127e9695926080959260039583601f19811610611338575b505050811b016002820155611250565b01515f1983871b60f8161c19169055898080611328565b8183015184559285019260209283019201611302565b600284015f5260205f20601f840160051c810191602085106113a6575b601f0160051c019082905b82811061139b575050611219565b5f815501829061138d565b9091508190611382565b86634e487b7160e01b5f5260416004525ffd5b85634e487b7160e01b5f5260416004525ffd5b86634e487b7160e01b5f5260216004525ffd5b34610230576040366003190112610230576114026116eb565b6001600160a01b03165f908152600460205260409020805460243591908210156102305760209161143291611701565b90546040519160031b1c8152f35b34610230575f366003190112610230576002546040516001600160a01b039091168152602090f35b34610230575f36600319011261023057611480611903565b60015460ff8160a01c16156114c75760ff60a01b19166001556040513381527f5db9ee0a495bf2e6ff9c91a7834c1ba4fdd244a5e8aa4e537bd38aeae4b073aa90602090a1005b604051638dfc202b60e01b8152600490fd5b34610230575f36600319011261023057602060405160328152f35b34610230575f366003190112610230576020604051730b9857ae2d4a3dbe74ffe1d7df045bb7f96e48408152f35b346102305760203660031901126102305761153b6116eb565b611543611903565b6001600160a01b031680156109a3575f80808093600a549082600a555af1610d67611826565b3461023057602036600319011261023057600435805f52600360205260405f20906040516115968161176f565b82546001600160a01b039081168252600184015460208301526002840154811660408301526003840154606083015260048401546080830192906115dd9060ff16846117ae565b600585015460a08201526115f3600686016117ba565b60c0820152600860078601549560e083019687520154610100820152511615159182611678575b5081611661575b81611648575b506020918161163c575b506040519015158152f35b90505142101582611631565b9050519060068210156109595790600514156020611627565b809150516006811015610959576004141590611621565b9091505f52600560205260ff60405f20541615908361161a565b3461023057602036600319011261023057600435801515809103610230576116b8611903565b60ff8019600b5416911617600b555f80f35b34610230575f3660031901126102305780683635c9adc5dea0000060209252f35b600435906001600160a01b038216820361023057565b8054821015611716575f5260205f2001905f90565b634e487b7160e01b5f52603260045260245ffd5b9060068210156109595752565b90600182811c92168015611765575b602083101461175157565b634e487b7160e01b5f52602260045260245ffd5b91607f1691611746565b610120810190811067ffffffffffffffff82111761090757604052565b90601f8019910116810190811067ffffffffffffffff82111761090757604052565b60068210156109595752565b90604051918281549182825260209260208301915f5260205f20935f905b8282106117f0575050506117ee9250038361178c565b565b8554845260019586019588955093810193909101906117d8565b67ffffffffffffffff811161090757601f01601f191660200190565b3d15611850573d906118378261180a565b91611845604051938461178c565b82523d5f602084013e565b606090565b919082018092116108f357565b356001600160a01b03811681036102305790565b903590601e1981360301821215610230570180359067ffffffffffffffff821161023057602001918160051b3603831361023057565b90929167ffffffffffffffff8411610907578360051b60209260206040516118d68285018261178c565b809781520191810192831161023057905b8282106118f45750505050565b813581529083019083016118e7565b6001546001600160a01b0316330361191757565b60405163118cdaa760e01b8152336004820152602490fd5b60ff60015460a01c1661193e57565b60405163d93c066560e01b8152600490fd5b60025f541461195f5760025f55565b604051633ee5aeb560e01b8152600490fdfea2646970667358221220e0dbecdcb9eb7ce8bdfcba56176737124c8ad00b86a35a323343858ead4f009864736f6c63430008170033","linkReferences":{}},"methodIdentifiers":{"ARBITRUM_MAINNET_OUTBOX()":"347db309","ARBITRUM_OUTBOX()":"5a1ca716","CHALLENGE_PERIOD()":"c3a079ed","MAX_PROOF_AGE()":"5bb39694","MAX_WITHDRAWAL_AMOUNT()":"058c8c2e","MIN_WITHDRAWAL_AMOUNT()":"d3e5792b","WITHDRAWAL_FEE_BPS()":"3a4ae669","accumulatedFees()":"587f5ed7","challengeWithdrawal(bytes32,string)":"4b2f7bff","challengedWithdrawals(bytes32)":"eebdc0cf","currentOutbox()":"3faaa252","emergencyWithdraw(address,uint256)":"95ccea67","emergencyWithdrawalEnabled()":"7fe4e8ee","executeWithdrawal(bytes32)":"b9c2aa43","executedWithdrawals(bytes32)":"799c1d4e","getUserWithdrawals(address)":"e502eb68","getWithdrawal(bytes32)":"98efa653","initiateWithdrawal((address,uint256,bytes32,bytes32[],uint256))":"d444f787","isWithdrawalReady(bytes32)":"1476b5b0","owner()":"8da5cb5b","pause()":"8456cb59","paused()":"5c975abb","renounceOwnership()":"715018a6","resolveChallenge(bytes32,bool)":"7d89122d","setCurrentOutbox(address)":"dacc4393","setEmergencyWithdrawalEnabled(bool)":"0a66bb45","totalETHWithdrawn()":"4b51173c","totalWithdrawals()":"60464627","transferOwnership(address)":"f2fde38b","unpause()":"3f4ba83a","updateWithdrawalMerkleRoot(bytes32)":"6fc12117","userWithdrawals(address,uint256)":"46d1e91b","withdrawFees(address)":"164e68de","withdrawalMerkleRoot()":"bc0b0d7d","withdrawals(bytes32)":"efbf64a7"},"id":30}