{"abi":[{"type":"constructor","inputs":[{"name":"admin","type":"address","internalType":"address"}],"stateMutability":"nonpayable"},{"type":"function","name":"BASIS_POINTS","inputs":[],"outputs":[{"name":"","type":"uint256","internalType":"uint256"}],"stateMutability":"view"},{"type":"function","name":"BRIDGE_MANAGER_ROLE","inputs":[],"outputs":[{"name":"","type":"bytes32","internalType":"bytes32"}],"stateMutability":"view"},{"type":"function","name":"DEFAULT_ADMIN_ROLE","inputs":[],"outputs":[{"name":"","type":"bytes32","internalType":"bytes32"}],"stateMutability":"view"},{"type":"function","name":"DEFAULT_CHECK_INTERVAL","inputs":[],"outputs":[{"name":"","type":"uint256","internalType":"uint256"}],"stateMutability":"view"},{"type":"function","name":"DEFAULT_FAILURE_THRESHOLD","inputs":[],"outputs":[{"name":"","type":"uint256","internalType":"uint256"}],"stateMutability":"view"},{"type":"function","name":"EMERGENCY_ROLE","inputs":[],"outputs":[{"name":"","type":"bytes32","internalType":"bytes32"}],"stateMutability":"view"},{"type":"function","name":"MIN_VOLUME_FOR_HEALTH","inputs":[],"outputs":[{"name":"","type":"uint256","internalType":"uint256"}],"stateMutability":"view"},{"type":"function","name":"bridgeInfo","inputs":[{"name":"","type":"address","internalType":"address"}],"outputs":[{"name":"adapter","type":"address","internalType":"address"},{"name":"name","type":"string","internalType":"string"},{"name":"isEnabled","type":"bool","internalType":"bool"},{"name":"isHealthy","type":"bool","internalType":"bool"},{"name":"registeredAt","type":"uint256","internalType":"uint256"},{"name":"lastHealthCheck","type":"uint256","internalType":"uint256"},{"name":"totalTransfers","type":"uint256","internalType":"uint256"},{"name":"failedTransfers","type":"uint256","internalType":"uint256"},{"name":"totalVolume","type":"uint256","internalType":"uint256"}],"stateMutability":"view"},{"type":"function","name":"bridgeSupportsChain","inputs":[{"name":"","type":"address","internalType":"address"},{"name":"","type":"uint256","internalType":"uint256"}],"outputs":[{"name":"","type":"bool","internalType":"bool"}],"stateMutability":"view"},{"type":"function","name":"chainToBridges","inputs":[{"name":"","type":"uint256","internalType":"uint256"},{"name":"","type":"uint256","internalType":"uint256"}],"outputs":[{"name":"","type":"address","internalType":"address"}],"stateMutability":"view"},{"type":"function","name":"deregisterBridge","inputs":[{"name":"adapter","type":"address","internalType":"address"},{"name":"reason","type":"string","internalType":"string"}],"outputs":[],"stateMutability":"nonpayable"},{"type":"function","name":"disableBridge","inputs":[{"name":"adapter","type":"address","internalType":"address"},{"name":"reason","type":"string","internalType":"string"}],"outputs":[],"stateMutability":"nonpayable"},{"type":"function","name":"doesBridgeSupportChain","inputs":[{"name":"adapter","type":"address","internalType":"address"},{"name":"chainId","type":"uint256","internalType":"uint256"}],"outputs":[{"name":"supported","type":"bool","internalType":"bool"}],"stateMutability":"view"},{"type":"function","name":"emergencyShutdown","inputs":[{"name":"adapter","type":"address","internalType":"address"},{"name":"reason","type":"string","internalType":"string"}],"outputs":[],"stateMutability":"nonpayable"},{"type":"function","name":"enableBridge","inputs":[{"name":"adapter","type":"address","internalType":"address"}],"outputs":[],"stateMutability":"nonpayable"},{"type":"function","name":"enabledBridges","inputs":[{"name":"","type":"uint256","internalType":"uint256"}],"outputs":[{"name":"","type":"address","internalType":"address"}],"stateMutability":"view"},{"type":"function","name":"getBridgeDetails","inputs":[{"name":"adapter","type":"address","internalType":"address"}],"outputs":[{"name":"info","type":"tuple","internalType":"struct BridgeRegistry.BridgeInfo","components":[{"name":"adapter","type":"address","internalType":"address"},{"name":"name","type":"string","internalType":"string"},{"name":"isEnabled","type":"bool","internalType":"bool"},{"name":"isHealthy","type":"bool","internalType":"bool"},{"name":"registeredAt","type":"uint256","internalType":"uint256"},{"name":"lastHealthCheck","type":"uint256","internalType":"uint256"},{"name":"totalTransfers","type":"uint256","internalType":"uint256"},{"name":"failedTransfers","type":"uint256","internalType":"uint256"},{"name":"totalVolume","type":"uint256","internalType":"uint256"},{"name":"supportedChains","type":"string[]","internalType":"string[]"},{"name":"supportedTokens","type":"address[]","internalType":"address[]"}]},{"name":"metrics","type":"tuple","internalType":"struct BridgeRegistry.PerformanceMetrics","components":[{"name":"avgGasCost","type":"uint256","internalType":"uint256"},{"name":"avgCompletionTime","type":"uint256","internalType":"uint256"},{"name":"successRate","type":"uint256","internalType":"uint256"},{"name":"liquidityScore","type":"uint256","internalType":"uint256"},{"name":"reliabilityScore","type":"uint256","internalType":"uint256"},{"name":"lastUpdated","type":"uint256","internalType":"uint256"}]}],"stateMutability":"view"},{"type":"function","name":"getBridgesForChain","inputs":[{"name":"chainId","type":"uint256","internalType":"uint256"}],"outputs":[{"name":"bridges","type":"address[]","internalType":"address[]"}],"stateMutability":"view"},{"type":"function","name":"getEnabledBridges","inputs":[],"outputs":[{"name":"bridges","type":"address[]","internalType":"address[]"}],"stateMutability":"view"},{"type":"function","name":"getRegisteredBridges","inputs":[],"outputs":[{"name":"bridges","type":"address[]","internalType":"address[]"}],"stateMutability":"view"},{"type":"function","name":"getRoleAdmin","inputs":[{"name":"role","type":"bytes32","internalType":"bytes32"}],"outputs":[{"name":"","type":"bytes32","internalType":"bytes32"}],"stateMutability":"view"},{"type":"function","name":"grantRole","inputs":[{"name":"role","type":"bytes32","internalType":"bytes32"},{"name":"account","type":"address","internalType":"address"}],"outputs":[],"stateMutability":"nonpayable"},{"type":"function","name":"hasRole","inputs":[{"name":"role","type":"bytes32","internalType":"bytes32"},{"name":"account","type":"address","internalType":"address"}],"outputs":[{"name":"","type":"bool","internalType":"bool"}],"stateMutability":"view"},{"type":"function","name":"healthConfig","inputs":[],"outputs":[{"name":"checkInterval","type":"uint256","internalType":"uint256"},{"name":"failureThreshold","type":"uint256","internalType":"uint256"},{"name":"volumeThreshold","type":"uint256","internalType":"uint256"},{"name":"autoDisable","type":"bool","internalType":"bool"}],"stateMutability":"view"},{"type":"function","name":"pause","inputs":[],"outputs":[],"stateMutability":"nonpayable"},{"type":"function","name":"paused","inputs":[],"outputs":[{"name":"","type":"bool","internalType":"bool"}],"stateMutability":"view"},{"type":"function","name":"performHealthCheck","inputs":[{"name":"adapter","type":"address","internalType":"address"}],"outputs":[],"stateMutability":"nonpayable"},{"type":"function","name":"performanceMetrics","inputs":[{"name":"","type":"address","internalType":"address"}],"outputs":[{"name":"avgGasCost","type":"uint256","internalType":"uint256"},{"name":"avgCompletionTime","type":"uint256","internalType":"uint256"},{"name":"successRate","type":"uint256","internalType":"uint256"},{"name":"liquidityScore","type":"uint256","internalType":"uint256"},{"name":"reliabilityScore","type":"uint256","internalType":"uint256"},{"name":"lastUpdated","type":"uint256","internalType":"uint256"}],"stateMutability":"view"},{"type":"function","name":"registerBridge","inputs":[{"name":"adapter","type":"address","internalType":"address"},{"name":"supportedChainIds","type":"uint256[]","internalType":"uint256[]"},{"name":"supportedTokens","type":"address[]","internalType":"address[]"}],"outputs":[],"stateMutability":"nonpayable"},{"type":"function","name":"registeredBridges","inputs":[{"name":"","type":"uint256","internalType":"uint256"}],"outputs":[{"name":"","type":"address","internalType":"address"}],"stateMutability":"view"},{"type":"function","name":"renounceRole","inputs":[{"name":"role","type":"bytes32","internalType":"bytes32"},{"name":"callerConfirmation","type":"address","internalType":"address"}],"outputs":[],"stateMutability":"nonpayable"},{"type":"function","name":"revokeRole","inputs":[{"name":"role","type":"bytes32","internalType":"bytes32"},{"name":"account","type":"address","internalType":"address"}],"outputs":[],"stateMutability":"nonpayable"},{"type":"function","name":"supportsInterface","inputs":[{"name":"interfaceId","type":"bytes4","internalType":"bytes4"}],"outputs":[{"name":"","type":"bool","internalType":"bool"}],"stateMutability":"view"},{"type":"function","name":"unpause","inputs":[],"outputs":[],"stateMutability":"nonpayable"},{"type":"function","name":"updateHealthConfig","inputs":[{"name":"newConfig","type":"tuple","internalType":"struct BridgeRegistry.HealthConfig","components":[{"name":"checkInterval","type":"uint256","internalType":"uint256"},{"name":"failureThreshold","type":"uint256","internalType":"uint256"},{"name":"volumeThreshold","type":"uint256","internalType":"uint256"},{"name":"autoDisable","type":"bool","internalType":"bool"}]}],"outputs":[],"stateMutability":"nonpayable"},{"type":"function","name":"updatePerformanceMetrics","inputs":[{"name":"adapter","type":"address","internalType":"address"},{"name":"gasCost","type":"uint256","internalType":"uint256"},{"name":"completionTime","type":"uint256","internalType":"uint256"},{"name":"successful","type":"bool","internalType":"bool"},{"name":"volume","type":"uint256","internalType":"uint256"}],"outputs":[],"stateMutability":"nonpayable"},{"type":"event","name":"BridgeDeregistered","inputs":[{"name":"adapter","type":"address","indexed":true,"internalType":"address"},{"name":"deregistrar","type":"address","indexed":true,"internalType":"address"},{"name":"reason","type":"string","indexed":false,"internalType":"string"}],"anonymous":false},{"type":"event","name":"BridgeDisabled","inputs":[{"name":"adapter","type":"address","indexed":true,"internalType":"address"},{"name":"disabler","type":"address","indexed":true,"internalType":"address"},{"name":"reason","type":"string","indexed":false,"internalType":"string"}],"anonymous":false},{"type":"event","name":"BridgeEnabled","inputs":[{"name":"adapter","type":"address","indexed":true,"internalType":"address"},{"name":"enabler","type":"address","indexed":true,"internalType":"address"}],"anonymous":false},{"type":"event","name":"BridgeRegistered","inputs":[{"name":"adapter","type":"address","indexed":true,"internalType":"address"},{"name":"name","type":"string","indexed":false,"internalType":"string"},{"name":"registrar","type":"address","indexed":true,"internalType":"address"}],"anonymous":false},{"type":"event","name":"EmergencyBridgeShutdown","inputs":[{"name":"adapter","type":"address","indexed":true,"internalType":"address"},{"name":"emergency_admin","type":"address","indexed":true,"internalType":"address"},{"name":"reason","type":"string","indexed":false,"internalType":"string"}],"anonymous":false},{"type":"event","name":"HealthConfigUpdated","inputs":[{"name":"newConfig","type":"tuple","indexed":false,"internalType":"struct BridgeRegistry.HealthConfig","components":[{"name":"checkInterval","type":"uint256","internalType":"uint256"},{"name":"failureThreshold","type":"uint256","internalType":"uint256"},{"name":"volumeThreshold","type":"uint256","internalType":"uint256"},{"name":"autoDisable","type":"bool","internalType":"bool"}]}],"anonymous":false},{"type":"event","name":"HealthStatusChanged","inputs":[{"name":"adapter","type":"address","indexed":true,"internalType":"address"},{"name":"isHealthy","type":"bool","indexed":false,"internalType":"bool"},{"name":"successRate","type":"uint256","indexed":false,"internalType":"uint256"},{"name":"reason","type":"string","indexed":false,"internalType":"string"}],"anonymous":false},{"type":"event","name":"Paused","inputs":[{"name":"account","type":"address","indexed":false,"internalType":"address"}],"anonymous":false},{"type":"event","name":"PerformanceMetricsUpdated","inputs":[{"name":"adapter","type":"address","indexed":true,"internalType":"address"},{"name":"metrics","type":"tuple","indexed":false,"internalType":"struct BridgeRegistry.PerformanceMetrics","components":[{"name":"avgGasCost","type":"uint256","internalType":"uint256"},{"name":"avgCompletionTime","type":"uint256","internalType":"uint256"},{"name":"successRate","type":"uint256","internalType":"uint256"},{"name":"liquidityScore","type":"uint256","internalType":"uint256"},{"name":"reliabilityScore","type":"uint256","internalType":"uint256"},{"name":"lastUpdated","type":"uint256","internalType":"uint256"}]}],"anonymous":false},{"type":"event","name":"RoleAdminChanged","inputs":[{"name":"role","type":"bytes32","indexed":true,"internalType":"bytes32"},{"name":"previousAdminRole","type":"bytes32","indexed":true,"internalType":"bytes32"},{"name":"newAdminRole","type":"bytes32","indexed":true,"internalType":"bytes32"}],"anonymous":false},{"type":"event","name":"RoleGranted","inputs":[{"name":"role","type":"bytes32","indexed":true,"internalType":"bytes32"},{"name":"account","type":"address","indexed":true,"internalType":"address"},{"name":"sender","type":"address","indexed":true,"internalType":"address"}],"anonymous":false},{"type":"event","name":"RoleRevoked","inputs":[{"name":"role","type":"bytes32","indexed":true,"internalType":"bytes32"},{"name":"account","type":"address","indexed":true,"internalType":"address"},{"name":"sender","type":"address","indexed":true,"internalType":"address"}],"anonymous":false},{"type":"event","name":"Unpaused","inputs":[{"name":"account","type":"address","indexed":false,"internalType":"address"}],"anonymous":false},{"type":"error","name":"AccessControlBadConfirmation","inputs":[]},{"type":"error","name":"AccessControlUnauthorizedAccount","inputs":[{"name":"account","type":"address","internalType":"address"},{"name":"neededRole","type":"bytes32","internalType":"bytes32"}]},{"type":"error","name":"BridgeAlreadyRegistered","inputs":[]},{"type":"error","name":"BridgeNotEnabled","inputs":[]},{"type":"error","name":"BridgeNotRegistered","inputs":[]},{"type":"error","name":"EmergencyShutdownActive","inputs":[]},{"type":"error","name":"EnforcedPause","inputs":[]},{"type":"error","name":"ExpectedPause","inputs":[]},{"type":"error","name":"InvalidBridgeAdapter","inputs":[]},{"type":"error","name":"InvalidHealthConfig","inputs":[]},{"type":"error","name":"ReentrancyGuardReentrantCall","inputs":[]},{"type":"error","name":"UnauthorizedHealthCheck","inputs":[]}],"bytecode":{"object":"0x60803462000116576001600160401b0390601f62002d5638819003918201601f19168301918483118484101762000102578084926020946040528339810103126200011657516001600160a01b038116810362000116576200009d9060017f9b779b17422d0df92223018b32b4d1fa46e071723d6817e2486d003becc55f00556200008a816200011a565b5062000096816200018a565b506200022a565b506040519060808201908111828210176200010257604052610e108082526103e89081602084015260016060683635c9adc5dea00000948560408201520152600855600955600a55600160ff19600b541617600b55604051612a519081620002c58239f35b634e487b7160e01b5f52604160045260245ffd5b5f80fd5b6001600160a01b03165f8181525f8051602062002d36833981519152602052604090205460ff1662000185575f8181525f8051602062002d3683398151915260205260408120805460ff191660011790553391905f8051602062002d168339815191528180a4600190565b505f90565b6001600160a01b03165f8181527f475f6186b3dcb8d33d45d11376273510fe01a564a8654aca9cf235aa7c165ec560205260409020547fcce296b040332a080e6df13515a3ec2869e21cd20f7344af0987ddb938d8bd21919060ff166200022457815f525f60205260405f20815f5260205260405f20600160ff1982541617905533915f8051602062002d168339815191525f80a4600190565b50505f90565b6001600160a01b03165f8181527f3c1b1854ab1360abbb06c8d4c6b2672d4b8cedc5eff522ab19e51d5cb8fdbd4660205260409020547fbf233dd2aafeb4d50879c4aa5c81e96d92f6e6945c906a58f9f2d1c1631b4b26919060ff166200022457815f525f60205260405f20815f5260205260405f20600160ff1982541617905533915f8051602062002d168339815191525f80a460019056fe6080806040526004361015610012575f80fd5b60e05f35811c91826301ffc9a714611ab15750816316ec3bd8146117b257816317649dc01461162e57816320df4359146115f4578163248a9ca3146115c85781632638bba31461158d5781632d918a421461156a5781632f2ff15d1461152e57816336568abe146114cf57816337fd4fae146114045781633f4ba83a14611383578163418220271461135257816347d20cd9146113215781634a8bafda146111065781634b5aae1b1461104e5781635c975abb1461102c578163757e616a14610fab57816378c7934e14610f5b578163796f802314610f3f5781637fedc8af146102425781638456cb5914610ee75781638969f54414610e5a57816391d1485414610e1157816394fdd50614610d5e5750806395b18e2414610aba578063987713f114610a9e578063a217fddf14610a84578063b685473214610a15578063b7a86d631461097e578063bcd606a0146104f4578063be4887721461031c578063cbca7df11461028b578063cef475b314610242578063d547741f14610204578063e1f1c4a7146101e85763f75e8512146101aa575f80fd5b346101e4575f3660031901126101e45760206040517fcce296b040332a080e6df13515a3ec2869e21cd20f7344af0987ddb938d8bd218152f35b5f80fd5b346101e4575f3660031901126101e45760206040516127108152f35b346101e45760403660031901126101e457610240600435610223611b4f565b90805f525f60205261023b600160405f20015461235d565b6125a9565b005b346101e45760403660031901126101e4576001600160a01b03610263611b65565b165f52600560205260405f206024355f52602052602060ff60405f2054166040519015158152f35b346101e4575f3660031901126101e457604051806006549182815260208091019260065f527ff652222313e28459528d920b65115c16c04f3efc82aaedc97be59f3f377c0d3f915f905b8282106102fc576102f8856102ec81890382611d82565b60405191829182611bd8565b0390f35b83546001600160a01b0316865294850194600193840193909101906102d5565b346101e45760a03660031901126101e457610335611b65565b60243560443591610344611e77565b6001600160a01b039182811694855f52600260205260405f2093845416156104ca5760058401926103758454611f76565b8455600785016103886084358254612209565b9055156104b5575b855f52600360205260405f2094855480155f14610493575085555b6001850192835480155f1461046b57506006906103cf9285555b54940154846120d6565b61271090818102918183041490151715610457577ff8af194d6247dde42f0784aefd538d175dd3fb662ba26c2ef961084b65ec70339461042261041660c096600394612216565b93846002840155612940565b92836004830155426005830155604051948254865254602086015260408501520154606083015260808201524260a0820152a2005b634e487b7160e01b5f52601160045260245ffd5b906009820291820460090361045757600a61048b6103cf94600694612209565b0485556103c5565b6009810290810460090361045757600a916104ad91612209565b0485556103ab565b600684016104c38154611f76565b9055610390565b60046040517f2de1047c000000000000000000000000000000000000000000000000000000008152fd5b346101e45760603660031901126101e45761050d611b65565b67ffffffffffffffff6024358181116101e45761052e903690600401611e46565b6044929192358281116101e457610549903690600401611e46565b939092610554612234565b61055c612740565b6001600160a01b0386161561096d576001600160a01b0386165f5260026020526001600160a01b0360405f20541661094357604051947fb8b2233d0000000000000000000000000000000000000000000000000000000086525f866004816001600160a01b038b165afa5f96816108c8575b506105e45760046040516312cd0c0d60e21b8152fd5b6001600160a01b0387165f52600260205260405f20946001600160a01b0388167fffffffffffffffffffffffff0000000000000000000000000000000000000000875416178655610638876001880161210b565b6002860161010161ffff19825416179055426003870155426004870155600986019282116107a5576801000000000000000082116107a55782548284558083106108ac575b50915f5260205f20915f905b82821061088757505050505f5b8281106107b9578585600654680100000000000000008110156107a557826106c78260016106e69401600655611c1c565b9091906001600160a01b038084549260031b9316831b921b1916179055565b6106ef826120e3565b6040516106fb81611d4a565b5f81526005602082015f8152604083016127108152606084016064815260808501916064835260a08601934285526001600160a01b0389165f52600360205260405f2096518755516001870155516002860155516003850155516004840155519101557fbd0dcad6cc60e052d803599246a7c45d2c1aa6ed1777d1b8e38835e9a2d7b3cd60405160208152806107a06001600160a01b03339616946020830190611cd0565b0390a3005b634e487b7160e01b5f52604160045260245ffd5b8060051b8201355f52600460205260405f208054680100000000000000008110156107a5576106c7816107f29360018b94018155611c9a565b6001600160a01b0386165f52600560205260405f208160051b8301355f5260205260405f20600160ff198254161790556108318160051b830135612776565b906008850154680100000000000000008110156107a55780600161085e9201600888015560088701611c9a565b6108745760019261086e9161210b565b01610696565b634e487b7160e01b5f525f60045260245ffd5b8035916001600160a01b03831683036101e45760206001920192818601550190610689565b6108c290845f528360205f209182019101611e86565b8861067d565b9096503d805f833e6108da8183611d82565b8101906020818303126101e4578051908482116101e4570181601f820112156101e45780518481116107a5576040519261091e601f8301601f191660200185611d82565b818452602082840101116101e45761093c9160208085019101611caf565b95886105ce565b60046040517f1709d620000000000000000000000000000000000000000000000000000000008152fd5b60046040516312cd0c0d60e21b8152fd5b346101e45760203660031901126101e457610997611b65565b61099f612234565b6109a7612740565b6001600160a01b039081811691825f52600260205260405f2090815416156104ca576002019081549160ff8316156109db57005b60016109ed9360ff19161790556120e3565b33907f5a86d8337e2ab9b072f4b8e732e04c1ae363e866aaa7e71c92470f4248fda6e55f80a3005b346101e45760203660031901126101e4576001600160a01b03610a36611b65565b165f52600360205260c060405f2080549060018101549060028101546003820154906005600484015493015493604051958652602086015260408501526060840152608083015260a0820152f35b346101e4575f3660031901126101e45760206040515f8152f35b346101e4575f3660031901126101e45760206040516103e88152f35b346101e4576020806003193601126101e457610ad4611b65565b907f9b779b17422d0df92223018b32b4d1fa46e071723d6817e2486d003becc55f00906002825414610d3457600282556001600160a01b039283811691825f526002815260405f2094855416156104ca5760048501610b348154426120d6565b60085411610d0a57600260019601805460ff8160081c1690610b558661261c565b95861593841595869561ff008760081b16918261ff0019871617845542905560ff600b54169081610d02575b81610cfa575b5080610cf0575b610c7e575b50505050151503610ba357858555005b610c377f875af2c4d125e71a8468935fa134ae47a7acba2a92eceb08f48d50ab6483d0d393855f52600384526040610bdc815f20612090565b01519015610c4357604051610bf081611d66565b600f81527f4865616c746820726573746f726564000000000000000000000000000000000085820152905b6040519485948552840152606060408401526060830190611cd0565b0390a282808080858555005b604051610c4f81611d66565b600f81527f4865616c746820646567726164656400000000000000000000000000000000008582015290610c1b565b610c8f9361ffff191617905561237e565b60405184815284808201527f4175746f2d64697361626c65642064756520746f20706f6f72206865616c74686040820152867f7074e40bf9aa09691bcc79a630684eb34501956cf464d071d9b6be71fe6ef12f60603093a388808080610b93565b5060ff8416610b8e565b90508d610b87565b869150610b81565b60046040517fcef7605f000000000000000000000000000000000000000000000000000000008152fd5b60046040517f3ee5aeb5000000000000000000000000000000000000000000000000000000008152fd5b346101e45760203660031901126101e4576001600160a01b0380610d80611b65565b165f52600260205260405f209081541690610d9d60018201611da4565b926002820154916003810154916004820154600583015490600760068501549401549460ff610ddf6040519a8b9a610120908c528060208d01528b0190611cd0565b97818116151560408b015260081c1615156060890152608088015260a087015260c08601528401526101008301520390f35b346101e45760403660031901126101e457610e2a611b4f565b6004355f525f6020526001600160a01b0360405f2091165f52602052602060ff60405f2054166040519015158152f35b346101e457610e6836611b7b565b9091610e72612234565b6001600160a01b039182821692835f52600260205260405f2090815416156104ca5760020190815460ff8116610ea457005b7f7074e40bf9aa09691bcc79a630684eb34501956cf464d071d9b6be71fe6ef12f936107a093610ed99260ff1916905561237e565b604051918291339683611ee4565b346101e4575f3660031901126101e457610eff612302565b610f07612740565b600160ff19815416176001557f62e78cea01bee320cd4e420270b5ea74000d11b0c9f74754ebdbfc544b05a2586020604051338152a1005b346101e4575f3660031901126101e4576020604051610e108152f35b346101e45760403660031901126101e4576024356004355f52600460205260405f209081548110156101e457610f9b6001600160a01b0391602093611c9a565b9190546040519260031b1c168152f35b346101e4575f3660031901126101e457604051806007549182815260208091019260075f527fa66cc928b5edb82af9bd49922954155ab7b0942694bea4ce44661d9a8736c688915f905b82821061100c576102f8856102ec81890382611d82565b83546001600160a01b031686529485019460019384019390910190610ff5565b346101e4575f3660031901126101e457602060ff600154166040519015158152f35b346101e45761105c36611b7b565b9091611066612302565b6001600160a01b039081811692835f52600260205260405f2092835416156104ca576110c26107a09260027f7074e40bf9aa09691bcc79a630684eb34501956cf464d071d9b6be71fe6ef12f950161ffff19815416905561237e565b604051847f4cd478cfb364f473e213f9b60834767c218f943ca0018aabbda8d2cb5a05d4033392806110f5868b83611ee4565b0390a3604051918291339683611ee4565b346101e4576020806003193601126101e45790611121611b65565b906040519261112f84611d2d565b5f845260609081818601525f60408601525f828601525f60808601525f60a08601525f60c08601525f83860152610100935f8587015261012095838782015283610140809201525f60a060405161118581611d4a565b8281528286820152826040820152828782015282608082015201526001600160a01b038092165f526002835260405f2090600384526111d06111ca60405f2093611f9c565b92612090565b976040519787895284845116888a015285840151976111fc610160998a848d01526102408c0190611cd0565b9860408601511515848c0152888601511515858c01526080860151908b015260a08501516101808b015260c08501516101a08b01528401516101c08a01528301516101e08901528201519160df199687898203016102008a015283518082528682019187808360051b8301019601925f915b898484106112f357505050505050015194868203016102208701528280865192838152019501915f905b8282106112da5787808860a08c8a8a82518187015282015160408601526040820151818601528101516080850152608081015182850152015160c08301520390f35b8351811687529584019592840192600190910190611298565b80611310600193949596979b9a601f198682030187528c51611cd0565b999a0195949190910192019061126e565b346101e45760203660031901126101e4576004356006548110156101e4576001600160a01b03610f9b602092611c1c565b346101e45760203660031901126101e4576004356007548110156101e4576001600160a01b03610f9b602092611c65565b346101e4575f3660031901126101e45761139b6122ad565b60015460ff8116156113da5760ff19166001557f5db9ee0a495bf2e6ff9c91a7834c1ba4fdd244a5e8aa4e537bd38aeae4b073aa6020604051338152a1005b60046040517f8dfc202b000000000000000000000000000000000000000000000000000000008152fd5b346101e45760803660031901126101e45761141d6122ad565b60243561271081116114a55760043580156114a55780600855816009556044359081600a55606435918215158093036101e4577f019f7cdf526e91f46cff21a3404037e9eb076b3b411d0a51ab4fdbc8e0588a869360809360ff8019600b5416911617600b556040519283526020830152604082015261149b611e77565b15156060820152a1005b60046040517f5b9cf18d000000000000000000000000000000000000000000000000000000008152fd5b346101e45760403660031901126101e4576114e8611b4f565b336001600160a01b0382160361150457610240906004356125a9565b60046040517f6697b232000000000000000000000000000000000000000000000000000000008152fd5b346101e45760403660031901126101e45761024060043561154d611b4f565b90805f525f602052611565600160405f20015461235d565b61252c565b346101e4575f3660031901126101e4576020604051683635c9adc5dea000008152f35b346101e4575f3660031901126101e4576080600854600954600a5460ff600b5416916040519384526020840152604083015215156060820152f35b346101e45760203660031901126101e4576004355f525f6020526020600160405f200154604051908152f35b346101e4575f3660031901126101e45760206040517fbf233dd2aafeb4d50879c4aa5c81e96d92f6e6945c906a58f9f2d1c1631b4b268152f35b346101e4576020806003193601126101e4576004355f526004815261165560405f20611f0b565b5f805b82518110156116db576001600160a01b03806116748386611f62565b51165f52600280865260ff90818160405f2001541692836116b4575b5050506116a0575b600101611658565b906116ac600191611f76565b919050611698565b909192506116c28487611f62565b51165f5280865260405f20015460081c16858080611690565b50916116e683611f84565b926116f46040519485611d82565b808452611703601f1991611f84565b0136828501375f805b83518110156117a4576001600160a01b03806117288387611f62565b51165f52600280855260ff808260405f20015416918261177e575b5050611753575b5060010161170c565b81926117779161176560019488611f62565b51166117718289611f62565b52611f76565b919061174a565b9091508261178c8589611f62565b51165f5280865260405f20015460081c168780611743565b604051806102f88782611bd8565b346101e4576117c036611b7b565b90916117ca612234565b6001600160a01b039283821691825f52602090600282528560405f205416156104ca576117f69061237e565b5f5b600686815480841015611aa5578661180f85611c1c565b939054600394851b1c1614611829575050506001016117f8565b9091925f9794959697199283830192831161045757896106c79161184f61185b95611c1c565b9054911b1c1691611c1c565b8154801561197d57019061188661187183611c1c565b6001600160a01b0382549160031b1b19169055565b55909291925b825f526002815260405f209260085f9401945b85548510156119a4576118c36118be6118b88789611c9a565b50611da4565b61240e565b93845f526004845260405f20965f5b8989548083101561199157866118e8848d611c9a565b939054600394851b1c16146119015750506001016118d2565b90949599915f999499989397981995868301928311610457578c6106c79161192c6119399587611c9a565b9054911b1c169184611c9a565b805493841561197d5760019401906119546118718383611c9a565b555b875f526005865260405f20905f52855260405f2060ff19815416905501939291949061189f565b634e487b7160e01b5f52603160045260245ffd5b5050509394600192939750959095611956565b929091825f526002815260405f205f815560016119c360018301611e9c565b5f60028301555f60038301555f60048301555f60058301555f60068301555f6007830155600882018054905f815581611a82575b5050509160036107a09260097ffe4a6267f16cd4422a5559f3a2ca80d6663245fdf13e6507fad6f34748b10c4c950180545f825580611a69575b5050855f52525f6005604082208281558260018201558260028201558260038201558260048201550155604051918291339683611ee4565b611a7b915f52825f2090810190611e86565b8780611a31565b5f52835f20908101905b818110156119f75780611a9f8492611e9c565b01611a8c565b5050505092909261188c565b346101e45760203660031901126101e457600435907fffffffff0000000000000000000000000000000000000000000000000000000082168092036101e457817f7965db0b0000000000000000000000000000000000000000000000000000000060209314908115611b25575b5015158152f35b7f01ffc9a70000000000000000000000000000000000000000000000000000000091501483611b1e565b602435906001600160a01b03821682036101e457565b600435906001600160a01b03821682036101e457565b60406003198201126101e4576004356001600160a01b03811681036101e4579160243567ffffffffffffffff928382116101e457806023830112156101e45781600401359384116101e457602484830101116101e4576024019190565b60209060206040818301928281528551809452019301915f5b828110611bff575050505090565b83516001600160a01b031685529381019392810192600101611bf1565b600654811015611c515760065f527ff652222313e28459528d920b65115c16c04f3efc82aaedc97be59f3f377c0d3f01905f90565b634e487b7160e01b5f52603260045260245ffd5b600754811015611c515760075f527fa66cc928b5edb82af9bd49922954155ab7b0942694bea4ce44661d9a8736c68801905f90565b8054821015611c51575f5260205f2001905f90565b5f5b838110611cc05750505f910152565b8181015183820152602001611cb1565b90602091611ce981518092818552858086019101611caf565b601f01601f1916010190565b90600182811c92168015611d23575b6020831014611d0f57565b634e487b7160e01b5f52602260045260245ffd5b91607f1691611d04565b610160810190811067ffffffffffffffff8211176107a557604052565b60c0810190811067ffffffffffffffff8211176107a557604052565b6040810190811067ffffffffffffffff8211176107a557604052565b90601f8019910116810190811067ffffffffffffffff8211176107a557604052565b9060405191825f8254611db681611cf5565b908184526020946001916001811690815f14611e245750600114611de6575b505050611de492500383611d82565b565b5f90815285812095935091905b818310611e0c575050611de493508201015f8080611dd5565b85548884018501529485019487945091830191611df3565b92505050611de494925060ff191682840152151560051b8201015f8080611dd5565b9181601f840112156101e45782359167ffffffffffffffff83116101e4576020808501948460051b0101116101e457565b6064359081151582036101e457565b818110611e91575050565b5f8155600101611e86565b611ea68154611cf5565b9081611eb0575050565b81601f5f9311600114611ec1575055565b908083918252611ee0601f60208420940160051c840160018501611e86565b5555565b90918060409360208452816020850152848401375f828201840152601f01601f1916010190565b90604051918281549182825260209260208301915f5260205f20935f905b828210611f3f57505050611de492500383611d82565b85546001600160a01b031684526001958601958895509381019390910190611f29565b8051821015611c515760209160051b010190565b5f1981146104575760010190565b67ffffffffffffffff81116107a55760051b60200190565b90604051611fa981611d2d565b80926001600160a01b0381541682526001611fc660018301611da4565b90602091602085015260ff60028401548181161515604087015260081c161515606085015260038301546080850152600483015460a0850152600583015460c0850152600683015460e085015260078301546101008501526008830180549061202e82611f84565b9361203c6040519586611d82565b82855260208501915f5260205f205f925b848410612075575050505050506009610140926120709261012086015201611f0b565b910152565b8583819261208285611da4565b81520192019301929061204d565b9060405161209d81611d4a565b60a06005829480548452600181015460208501526002810154604085015260038101546060850152600481015460808501520154910152565b9190820391821161045757565b60075490680100000000000000008210156107a5576106c7826001611de49401600755611c65565b919091825167ffffffffffffffff81116107a5576121298254611cf5565b601f81116121ce575b50602080601f831160011461216d5750819293945f92612162575b50508160011b915f199060031b1c1916179055565b015190505f8061214d565b90601f19831695845f5260205f20925f905b8882106121b65750508360019596971061219e575b505050811b019055565b01515f1960f88460031b161c191690555f8080612194565b8060018596829496860151815501950193019061217f565b6121f990835f5260205f20601f840160051c810191602085106121ff575b601f0160051c0190611e86565b5f612132565b90915081906121ec565b9190820180921161045757565b8115612220570490565b634e487b7160e01b5f52601260045260245ffd5b335f9081527f475f6186b3dcb8d33d45d11376273510fe01a564a8654aca9cf235aa7c165ec560205260409020547fcce296b040332a080e6df13515a3ec2869e21cd20f7344af0987ddb938d8bd219060ff161561228f5750565b6044906040519063e2517d3f60e01b82523360048301526024820152fd5b335f9081527fad3228b676f7d3cd4284a5443f17f1962b36e491b30a40b2405849e597ba5fb5602052604090205460ff16156122e557565b604460405163e2517d3f60e01b81523360048201525f6024820152fd5b335f9081527f3c1b1854ab1360abbb06c8d4c6b2672d4b8cedc5eff522ab19e51d5cb8fdbd4660205260409020547fbf233dd2aafeb4d50879c4aa5c81e96d92f6e6945c906a58f9f2d1c1631b4b269060ff161561228f5750565b805f525f60205260405f20335f5260205260ff60405f2054161561228f5750565b5f905b6007918254808210156124085761239782611c65565b90916001600160a01b039254918360039381881692851b1c16146123c2575050506001019150612381565b5f199450909291848201918211610457576123ef936123e36106c793611c65565b9054911b1c1691611c65565b8154801561197d57019061240561187183611c65565b55565b50505050565b602081519101207f564ccaf7594d66b1eaaea24fe01f0585bf52ee70852af4eac0cc4b04711cd0e28114612526577fa6b54cd124a84bb64f1808905ed95fb171a09730726f85e60eefcd47a4831b27811461251e577f750da875776dd158bbe74185d975d4afe4511978a37b81a96b7545fc4d386ff18114612517577f6e872ff8487769d13b7be60f4d373503871c7b65edc9c2af981ba28da937e19d811461250f577f890af8db8ca1aa1e915857edbc2717639ebd8a22c786f9e0e776d6a1aacb5e718114612509577f81eecb44c36a69df5745ca5e3a218fef31e5cc4e25b7c6de5d6e65cd00aed80814612502575f90565b6201388190565b50608990565b5062066eee90565b5061a4b190565b5062aa36a790565b50600190565b90815f525f6020526001600160a01b0360405f20911690815f5260205260ff60405f205416155f146125a357815f525f60205260405f20815f5260205260405f20600160ff1982541617905533917f2f8788117e7eff1d82e926ec794901d17c78024a50270940304540a733656f0d5f80a4600190565b50505f90565b90815f525f6020526001600160a01b0360405f20911690815f5260205260ff60405f2054165f146125a357815f525f60205260405f20815f5260205260405f2060ff19815416905533917ff6391f5c32d9c69d2a47ea670b442974b53935d1edc7fd64eb21e047a839171b5f80a4600190565b6001600160a01b0316805f5260209060028252600461263d60405f20611f9c565b92825f52600381528061265260405f20612090565b93604051938480927fe40208040000000000000000000000000000000000000000000000000000000082525afa9182915f93612707575b5050612696575050505f90565b156125a357610100820151600a54116127005760e08201519161271092838102908082048514901517156104575760c06126d292015190612216565b906009548092116126f9576040015190820391821161045757106126f557600190565b5f90565b5050505f90565b5050600190565b9080929350813d8311612739575b61271f8183611d82565b810103126101e4575180151581036101e457905f80612689565b503d612715565b60ff6001541661274c57565b60046040517fd93c0665000000000000000000000000000000000000000000000000000000008152fd5b600181146129065762aa36a781146128cc5761a4b181146128925762066eee8114612858576089811461281e5762013881146127e5576040516127b881611d66565b600781527f556e6b6e6f776e00000000000000000000000000000000000000000000000000602082015290565b6040516127f181611d66565b600681527f4d756d6261690000000000000000000000000000000000000000000000000000602082015290565b5060405161282b81611d66565b600781527f506f6c79676f6e00000000000000000000000000000000000000000000000000602082015290565b5060405161286581611d66565b601081527f417262697472756d205365706f6c696100000000000000000000000000000000602082015290565b5060405161289f81611d66565b600881527f417262697472756d000000000000000000000000000000000000000000000000602082015290565b506040516128d981611d66565b600781527f5365706f6c696100000000000000000000000000000000000000000000000000602082015290565b5060405161291381611d66565b600881527f457468657265756d000000000000000000000000000000000000000000000000602082015290565b6001600160a01b0316805f52600260205261295d60405f20611f9c565b905f52600360205261297160405f20612090565b9060c081015115612a3d57606491610100836040830151049201805190600a5491600a830290838204600a14841517156104575710612a1157505090606e810290808204606e1490151715610457578260209104915b01518015159081612a05575b506129ea575b818111156129e5575090565b905090565b606981029080820460691490151715610457578190046129d9565b6107089150105f6129d3565b5110612a20575b6020906129c7565b90605a810290808204605a14901517156104575782900490612a18565b505060649056fea164736f6c6343000818000a2f8788117e7eff1d82e926ec794901d17c78024a50270940304540a733656f0dad3228b676f7d3cd4284a5443f17f1962b36e491b30a40b2405849e597ba5fb5","linkReferences":{}},"methodIdentifiers":{"BASIS_POINTS()":"e1f1c4a7","BRIDGE_MANAGER_ROLE()":"f75e8512","DEFAULT_ADMIN_ROLE()":"a217fddf","DEFAULT_CHECK_INTERVAL()":"796f8023","DEFAULT_FAILURE_THRESHOLD()":"987713f1","EMERGENCY_ROLE()":"20df4359","MIN_VOLUME_FOR_HEALTH()":"2d918a42","bridgeInfo(address)":"94fdd506","bridgeSupportsChain(address,uint256)":"7fedc8af","chainToBridges(uint256,uint256)":"78c7934e","deregisterBridge(address,string)":"16ec3bd8","disableBridge(address,string)":"8969f544","doesBridgeSupportChain(address,uint256)":"cef475b3","emergencyShutdown(address,string)":"4b5aae1b","enableBridge(address)":"b7a86d63","enabledBridges(uint256)":"41822027","getBridgeDetails(address)":"4a8bafda","getBridgesForChain(uint256)":"17649dc0","getEnabledBridges()":"757e616a","getRegisteredBridges()":"cbca7df1","getRoleAdmin(bytes32)":"248a9ca3","grantRole(bytes32,address)":"2f2ff15d","hasRole(bytes32,address)":"91d14854","healthConfig()":"2638bba3","pause()":"8456cb59","paused()":"5c975abb","performHealthCheck(address)":"95b18e24","performanceMetrics(address)":"b6854732","registerBridge(address,uint256[],address[])":"bcd606a0","registeredBridges(uint256)":"47d20cd9","renounceRole(bytes32,address)":"36568abe","revokeRole(bytes32,address)":"d547741f","supportsInterface(bytes4)":"01ffc9a7","unpause()":"3f4ba83a","updateHealthConfig((uint256,uint256,uint256,bool))":"37fd4fae","updatePerformanceMetrics(address,uint256,uint256,bool,uint256)":"be488772"},"storageLayout":{"storage":[{"astId":39777,"contract":"src/core/BridgeRegistry.sol:BridgeRegistry","label":"_roles","offset":0,"slot":"0","type":"t_mapping(t_bytes32,t_struct(RoleData)39772_storage)"},{"astId":42665,"contract":"src/core/BridgeRegistry.sol:BridgeRegistry","label":"_paused","offset":0,"slot":"1","type":"t_bool"},{"astId":60771,"contract":"src/core/BridgeRegistry.sol:BridgeRegistry","label":"bridgeInfo","offset":0,"slot":"2","type":"t_mapping(t_address,t_struct(BridgeInfo)60744_storage)"},{"astId":60776,"contract":"src/core/BridgeRegistry.sol:BridgeRegistry","label":"performanceMetrics","offset":0,"slot":"3","type":"t_mapping(t_address,t_struct(PerformanceMetrics)60766_storage)"},{"astId":60781,"contract":"src/core/BridgeRegistry.sol:BridgeRegistry","label":"chainToBridges","offset":0,"slot":"4","type":"t_mapping(t_uint256,t_array(t_address)dyn_storage)"},{"astId":60787,"contract":"src/core/BridgeRegistry.sol:BridgeRegistry","label":"bridgeSupportsChain","offset":0,"slot":"5","type":"t_mapping(t_address,t_mapping(t_uint256,t_bool))"},{"astId":60790,"contract":"src/core/BridgeRegistry.sol:BridgeRegistry","label":"registeredBridges","offset":0,"slot":"6","type":"t_array(t_address)dyn_storage"},{"astId":60793,"contract":"src/core/BridgeRegistry.sol:BridgeRegistry","label":"enabledBridges","offset":0,"slot":"7","type":"t_array(t_address)dyn_storage"},{"astId":60796,"contract":"src/core/BridgeRegistry.sol:BridgeRegistry","label":"healthConfig","offset":0,"slot":"8","type":"t_struct(HealthConfig)60753_storage"}],"types":{"t_address":{"encoding":"inplace","label":"address","numberOfBytes":"20"},"t_array(t_address)dyn_storage":{"encoding":"dynamic_array","label":"address[]","numberOfBytes":"32","base":"t_address"},"t_array(t_string_storage)dyn_storage":{"encoding":"dynamic_array","label":"string[]","numberOfBytes":"32","base":"t_string_storage"},"t_bool":{"encoding":"inplace","label":"bool","numberOfBytes":"1"},"t_bytes32":{"encoding":"inplace","label":"bytes32","numberOfBytes":"32"},"t_mapping(t_address,t_bool)":{"encoding":"mapping","key":"t_address","label":"mapping(address => bool)","numberOfBytes":"32","value":"t_bool"},"t_mapping(t_address,t_mapping(t_uint256,t_bool))":{"encoding":"mapping","key":"t_address","label":"mapping(address => mapping(uint256 => bool))","numberOfBytes":"32","value":"t_mapping(t_uint256,t_bool)"},"t_mapping(t_address,t_struct(BridgeInfo)60744_storage)":{"encoding":"mapping","key":"t_address","label":"mapping(address => struct BridgeRegistry.BridgeInfo)","numberOfBytes":"32","value":"t_struct(BridgeInfo)60744_storage"},"t_mapping(t_address,t_struct(PerformanceMetrics)60766_storage)":{"encoding":"mapping","key":"t_address","label":"mapping(address => struct BridgeRegistry.PerformanceMetrics)","numberOfBytes":"32","value":"t_struct(PerformanceMetrics)60766_storage"},"t_mapping(t_bytes32,t_struct(RoleData)39772_storage)":{"encoding":"mapping","key":"t_bytes32","label":"mapping(bytes32 => struct AccessControl.RoleData)","numberOfBytes":"32","value":"t_struct(RoleData)39772_storage"},"t_mapping(t_uint256,t_array(t_address)dyn_storage)":{"encoding":"mapping","key":"t_uint256","label":"mapping(uint256 => address[])","numberOfBytes":"32","value":"t_array(t_address)dyn_storage"},"t_mapping(t_uint256,t_bool)":{"encoding":"mapping","key":"t_uint256","label":"mapping(uint256 => bool)","numberOfBytes":"32","value":"t_bool"},"t_string_storage":{"encoding":"bytes","label":"string","numberOfBytes":"32"},"t_struct(BridgeInfo)60744_storage":{"encoding":"inplace","label":"struct BridgeRegistry.BridgeInfo","numberOfBytes":"320","members":[{"astId":60721,"contract":"src/core/BridgeRegistry.sol:BridgeRegistry","label":"adapter","offset":0,"slot":"0","type":"t_address"},{"astId":60723,"contract":"src/core/BridgeRegistry.sol:BridgeRegistry","label":"name","offset":0,"slot":"1","type":"t_string_storage"},{"astId":60725,"contract":"src/core/BridgeRegistry.sol:BridgeRegistry","label":"isEnabled","offset":0,"slot":"2","type":"t_bool"},{"astId":60727,"contract":"src/core/BridgeRegistry.sol:BridgeRegistry","label":"isHealthy","offset":1,"slot":"2","type":"t_bool"},{"astId":60729,"contract":"src/core/BridgeRegistry.sol:BridgeRegistry","label":"registeredAt","offset":0,"slot":"3","type":"t_uint256"},{"astId":60731,"contract":"src/core/BridgeRegistry.sol:BridgeRegistry","label":"lastHealthCheck","offset":0,"slot":"4","type":"t_uint256"},{"astId":60733,"contract":"src/core/BridgeRegistry.sol:BridgeRegistry","label":"totalTransfers","offset":0,"slot":"5","type":"t_uint256"},{"astId":60735,"contract":"src/core/BridgeRegistry.sol:BridgeRegistry","label":"failedTransfers","offset":0,"slot":"6","type":"t_uint256"},{"astId":60737,"contract":"src/core/BridgeRegistry.sol:BridgeRegistry","label":"totalVolume","offset":0,"slot":"7","type":"t_uint256"},{"astId":60740,"contract":"src/core/BridgeRegistry.sol:BridgeRegistry","label":"supportedChains","offset":0,"slot":"8","type":"t_array(t_string_storage)dyn_storage"},{"astId":60743,"contract":"src/core/BridgeRegistry.sol:BridgeRegistry","label":"supportedTokens","offset":0,"slot":"9","type":"t_array(t_address)dyn_storage"}]},"t_struct(HealthConfig)60753_storage":{"encoding":"inplace","label":"struct BridgeRegistry.HealthConfig","numberOfBytes":"128","members":[{"astId":60746,"contract":"src/core/BridgeRegistry.sol:BridgeRegistry","label":"checkInterval","offset":0,"slot":"0","type":"t_uint256"},{"astId":60748,"contract":"src/core/BridgeRegistry.sol:BridgeRegistry","label":"failureThreshold","offset":0,"slot":"1","type":"t_uint256"},{"astId":60750,"contract":"src/core/BridgeRegistry.sol:BridgeRegistry","label":"volumeThreshold","offset":0,"slot":"2","type":"t_uint256"},{"astId":60752,"contract":"src/core/BridgeRegistry.sol:BridgeRegistry","label":"autoDisable","offset":0,"slot":"3","type":"t_bool"}]},"t_struct(PerformanceMetrics)60766_storage":{"encoding":"inplace","label":"struct BridgeRegistry.PerformanceMetrics","numberOfBytes":"192","members":[{"astId":60755,"contract":"src/core/BridgeRegistry.sol:BridgeRegistry","label":"avgGasCost","offset":0,"slot":"0","type":"t_uint256"},{"astId":60757,"contract":"src/core/BridgeRegistry.sol:BridgeRegistry","label":"avgCompletionTime","offset":0,"slot":"1","type":"t_uint256"},{"astId":60759,"contract":"src/core/BridgeRegistry.sol:BridgeRegistry","label":"successRate","offset":0,"slot":"2","type":"t_uint256"},{"astId":60761,"contract":"src/core/BridgeRegistry.sol:BridgeRegistry","label":"liquidityScore","offset":0,"slot":"3","type":"t_uint256"},{"astId":60763,"contract":"src/core/BridgeRegistry.sol:BridgeRegistry","label":"reliabilityScore","offset":0,"slot":"4","type":"t_uint256"},{"astId":60765,"contract":"src/core/BridgeRegistry.sol:BridgeRegistry","label":"lastUpdated","offset":0,"slot":"5","type":"t_uint256"}]},"t_struct(RoleData)39772_storage":{"encoding":"inplace","label":"struct AccessControl.RoleData","numberOfBytes":"64","members":[{"astId":39769,"contract":"src/core/BridgeRegistry.sol:BridgeRegistry","label":"hasRole","offset":0,"slot":"0","type":"t_mapping(t_address,t_bool)"},{"astId":39771,"contract":"src/core/BridgeRegistry.sol:BridgeRegistry","label":"adminRole","offset":0,"slot":"1","type":"t_bytes32"}]},"t_uint256":{"encoding":"inplace","label":"uint256","numberOfBytes":"32"}}},"id":59}