{"abi":[{"type":"constructor","inputs":[{"name":"_owner","type":"address","internalType":"address"}],"stateMutability":"nonpayable"},{"type":"receive","stateMutability":"payable"},{"type":"function","name":"ARBITRUM_INBOX","inputs":[],"outputs":[{"name":"","type":"address","internalType":"address"}],"stateMutability":"view"},{"type":"function","name":"ARBITRUM_MAINNET_INBOX","inputs":[],"outputs":[{"name":"","type":"address","internalType":"address"}],"stateMutability":"view"},{"type":"function","name":"DEFAULT_GAS_LIMIT","inputs":[],"outputs":[{"name":"","type":"uint256","internalType":"uint256"}],"stateMutability":"view"},{"type":"function","name":"MAX_GAS_LIMIT","inputs":[],"outputs":[{"name":"","type":"uint256","internalType":"uint256"}],"stateMutability":"view"},{"type":"function","name":"MIN_SUBMISSION_COST","inputs":[],"outputs":[{"name":"","type":"uint256","internalType":"uint256"}],"stateMutability":"view"},{"type":"function","name":"PRIORITY_GAS_MULTIPLIER","inputs":[],"outputs":[{"name":"","type":"uint256","internalType":"uint256"}],"stateMutability":"view"},{"type":"function","name":"bridgeETH","inputs":[{"name":"to","type":"address","internalType":"address"}],"outputs":[{"name":"ticketId","type":"uint256","internalType":"uint256"}],"stateMutability":"payable"},{"type":"function","name":"bridgeETHWithParams","inputs":[{"name":"params","type":"tuple","internalType":"struct ArbitrumBridgeAdapter.OptimizedBridgeParams","components":[{"name":"to","type":"address","internalType":"address"},{"name":"amount","type":"uint256","internalType":"uint256"},{"name":"gasLimit","type":"uint256","internalType":"uint256"},{"name":"gasPriceBid","type":"uint256","internalType":"uint256"},{"name":"maxSubmissionCost","type":"uint256","internalType":"uint256"},{"name":"data","type":"bytes","internalType":"bytes"},{"name":"priority","type":"uint8","internalType":"uint8"}]}],"outputs":[{"name":"ticketId","type":"uint256","internalType":"uint256"}],"stateMutability":"payable"},{"type":"function","name":"chainInboxes","inputs":[{"name":"","type":"uint256","internalType":"uint256"}],"outputs":[{"name":"","type":"address","internalType":"address"}],"stateMutability":"view"},{"type":"function","name":"currentInbox","inputs":[],"outputs":[{"name":"","type":"address","internalType":"address"}],"stateMutability":"view"},{"type":"function","name":"emergencyWithdraw","inputs":[{"name":"to","type":"address","internalType":"address"},{"name":"amount","type":"uint256","internalType":"uint256"}],"outputs":[],"stateMutability":"nonpayable"},{"type":"function","name":"estimateBridgeCost","inputs":[{"name":"amount","type":"uint256","internalType":"uint256"},{"name":"gasLimit","type":"uint256","internalType":"uint256"},{"name":"gasPriceBid","type":"uint256","internalType":"uint256"},{"name":"maxSubmissionCost","type":"uint256","internalType":"uint256"}],"outputs":[{"name":"totalCost","type":"uint256","internalType":"uint256"}],"stateMutability":"pure"},{"type":"function","name":"getOptimizedParams","inputs":[{"name":"to","type":"address","internalType":"address"},{"name":"amount","type":"uint256","internalType":"uint256"},{"name":"baseGasLimit","type":"uint256","internalType":"uint256"},{"name":"baseGasPrice","type":"uint256","internalType":"uint256"}],"outputs":[{"name":"params","type":"tuple","internalType":"struct ArbitrumBridgeAdapter.OptimizedBridgeParams","components":[{"name":"to","type":"address","internalType":"address"},{"name":"amount","type":"uint256","internalType":"uint256"},{"name":"gasLimit","type":"uint256","internalType":"uint256"},{"name":"gasPriceBid","type":"uint256","internalType":"uint256"},{"name":"maxSubmissionCost","type":"uint256","internalType":"uint256"},{"name":"data","type":"bytes","internalType":"bytes"},{"name":"priority","type":"uint8","internalType":"uint8"}]}],"stateMutability":"view"},{"type":"function","name":"getTransactionStatus","inputs":[{"name":"txHash","type":"bytes32","internalType":"bytes32"}],"outputs":[{"name":"status","type":"tuple","internalType":"struct ArbitrumBridgeAdapter.TransactionStatus","components":[{"name":"exists","type":"bool","internalType":"bool"},{"name":"completed","type":"bool","internalType":"bool"},{"name":"failed","type":"bool","internalType":"bool"},{"name":"timestamp","type":"uint256","internalType":"uint256"},{"name":"gasUsed","type":"uint256","internalType":"uint256"}]}],"stateMutability":"view"},{"type":"function","name":"getUserGasStats","inputs":[{"name":"user","type":"address","internalType":"address"}],"outputs":[{"name":"stats","type":"tuple","internalType":"struct ArbitrumBridgeAdapter.GasStats","components":[{"name":"totalTransactions","type":"uint256","internalType":"uint256"},{"name":"totalGasUsed","type":"uint256","internalType":"uint256"},{"name":"averageGasUsed","type":"uint256","internalType":"uint256"}]}],"stateMutability":"view"},{"type":"function","name":"owner","inputs":[],"outputs":[{"name":"","type":"address","internalType":"address"}],"stateMutability":"view"},{"type":"function","name":"pause","inputs":[],"outputs":[],"stateMutability":"nonpayable"},{"type":"function","name":"paused","inputs":[],"outputs":[{"name":"","type":"bool","internalType":"bool"}],"stateMutability":"view"},{"type":"function","name":"renounceOwnership","inputs":[],"outputs":[],"stateMutability":"nonpayable"},{"type":"function","name":"setCurrentInbox","inputs":[{"name":"inboxAddress","type":"address","internalType":"address"}],"outputs":[],"stateMutability":"nonpayable"},{"type":"function","name":"setInboxForChain","inputs":[{"name":"chainId","type":"uint256","internalType":"uint256"},{"name":"inboxAddress","type":"address","internalType":"address"}],"outputs":[],"stateMutability":"nonpayable"},{"type":"function","name":"totalETHBridged","inputs":[],"outputs":[{"name":"","type":"uint256","internalType":"uint256"}],"stateMutability":"view"},{"type":"function","name":"totalTransactions","inputs":[],"outputs":[{"name":"","type":"uint256","internalType":"uint256"}],"stateMutability":"view"},{"type":"function","name":"transactionStatus","inputs":[{"name":"","type":"bytes32","internalType":"bytes32"}],"outputs":[{"name":"exists","type":"bool","internalType":"bool"},{"name":"completed","type":"bool","internalType":"bool"},{"name":"failed","type":"bool","internalType":"bool"},{"name":"timestamp","type":"uint256","internalType":"uint256"},{"name":"gasUsed","type":"uint256","internalType":"uint256"}],"stateMutability":"view"},{"type":"function","name":"transferOwnership","inputs":[{"name":"newOwner","type":"address","internalType":"address"}],"outputs":[],"stateMutability":"nonpayable"},{"type":"function","name":"unpause","inputs":[],"outputs":[],"stateMutability":"nonpayable"},{"type":"function","name":"userGasStats","inputs":[{"name":"","type":"address","internalType":"address"}],"outputs":[{"name":"totalTransactions","type":"uint256","internalType":"uint256"},{"name":"totalGasUsed","type":"uint256","internalType":"uint256"},{"name":"averageGasUsed","type":"uint256","internalType":"uint256"}],"stateMutability":"view"},{"type":"event","name":"BridgeInitiated","inputs":[{"name":"user","type":"address","indexed":true,"internalType":"address"},{"name":"to","type":"address","indexed":true,"internalType":"address"},{"name":"amount","type":"uint256","indexed":false,"internalType":"uint256"},{"name":"ticketId","type":"uint256","indexed":true,"internalType":"uint256"},{"name":"gasLimit","type":"uint256","indexed":false,"internalType":"uint256"},{"name":"gasPriceBid","type":"uint256","indexed":false,"internalType":"uint256"}],"anonymous":false},{"type":"event","name":"BridgeOptimized","inputs":[{"name":"user","type":"address","indexed":true,"internalType":"address"},{"name":"originalGasLimit","type":"uint256","indexed":false,"internalType":"uint256"},{"name":"optimizedGasLimit","type":"uint256","indexed":false,"internalType":"uint256"},{"name":"gasSaved","type":"uint256","indexed":false,"internalType":"uint256"}],"anonymous":false},{"type":"event","name":"InboxUpdated","inputs":[{"name":"chainId","type":"uint256","indexed":true,"internalType":"uint256"},{"name":"oldInbox","type":"address","indexed":false,"internalType":"address"},{"name":"newInbox","type":"address","indexed":false,"internalType":"address"}],"anonymous":false},{"type":"event","name":"OwnershipTransferred","inputs":[{"name":"previousOwner","type":"address","indexed":true,"internalType":"address"},{"name":"newOwner","type":"address","indexed":true,"internalType":"address"}],"anonymous":false},{"type":"event","name":"Paused","inputs":[{"name":"account","type":"address","indexed":false,"internalType":"address"}],"anonymous":false},{"type":"event","name":"Unpaused","inputs":[{"name":"account","type":"address","indexed":false,"internalType":"address"}],"anonymous":false},{"type":"error","name":"BridgeTransactionFailed","inputs":[]},{"type":"error","name":"EnforcedPause","inputs":[]},{"type":"error","name":"ExpectedPause","inputs":[]},{"type":"error","name":"InvalidAmount","inputs":[]},{"type":"error","name":"InvalidGasParameters","inputs":[]},{"type":"error","name":"InvalidInbox","inputs":[]},{"type":"error","name":"InvalidRecipient","inputs":[]},{"type":"error","name":"OwnableInvalidOwner","inputs":[{"name":"owner","type":"address","internalType":"address"}]},{"type":"error","name":"OwnableUnauthorizedAccount","inputs":[{"name":"account","type":"address","internalType":"address"}]},{"type":"error","name":"ReentrancyGuardReentrantCall","inputs":[]},{"type":"error","name":"TransactionAlreadyExists","inputs":[]},{"type":"error","name":"UnsupportedChain","inputs":[]}],"bytecode":{"object":"0x60803461015257601f61140b38819003918201601f19168301916001600160401b038311848410176101565780849260209460405283398101031261015257516001600160a01b0390818116908190036101525760015f55801561013a57600180546001600160a01b031980821684179092559092167f8be0079c531659141344cd1fd0a4f28419497f9722a3daafe3b4186f6b6457e05f80a360036020527f6da21496ee3c71e35693bb2fb88efaa21b54d17c105fc747d0ca398ed7bab9d480548216734dbd4fc535ac27206064b68ffcf827b0a60bab3f17905562066eee5f527fcb3cf8350fe5f0b0b5a46800605818221ecb36217907cc15b714275f6de418cd8054821673aae29b0366299461418f5324a79afc425be5ae21908117909155600280549092161790556040516112a0908161016b8239f35b604051631e4fbdf760e01b81525f6004820152602490fd5b5f80fd5b634e487b7160e01b5f52604160045260245ffdfe60406080815260048036101561001e575b5050361561001c575f80fd5b005b5f3560e01c80630e5fef0e14610d5a578063347397a514610cd85780633734690314610cba57806337b9800914610b245780633f4ba83a14610ab45780633f71786e14610a995780635c975abb14610a7357806365d6b3d9146108c7578063715018a61461086c57806374aa02ae1461083c5780637a969795146107de5780638456cb591461077f5780638da5cb5b1461075757806394407465146106a357806395ccea6714610619578063967c4430146105eb578063a604eca6146105bd578063b87e8a681461059c578063b9a600381461057e578063bee4b0ee14610556578063c7fca2e4146103c7578063cfecf7b914610369578063d6be695a1461034c578063e3f5aa511461032f578063ec8f0fc01461027c578063f19db32e146101dc5763f2fde38b0361001057346101d85760203660031901126101d857610164610d9b565b9061016d61123e565b6001600160a01b039182169283156101c2575050600154826bffffffffffffffffffffffff60a01b821617600155167f8be0079c531659141344cd1fd0a4f28419497f9722a3daafe3b4186f6b6457e05f80a3005b905f6024925191631e4fbdf760e01b8352820152fd5b5f80fd5b50346101d85760203660031901126101d8576101f6610d9b565b6101fe61123e565b6001600160a01b0381811692831561026e5750600280546001600160a01b031981169490941790559251929091166001600160a01b03908116835216602082015246907f7dd57618c836077c189c90fdde9d8e7b6feef707456a35bc16938f1b243db0ef9080604081015b0390a2005b84516370fcdd1d60e01b8152fd5b5090346101d857806003193601126101d857602435918035916001600160a01b039182851691908286036101d8576102b261123e565b821561032157505f848152600360209081529082902080546001600160a01b03198116909417905590516001600160a01b0393909216831682529190931690830152907f7dd57618c836077c189c90fdde9d8e7b6feef707456a35bc16938f1b243db0ef908060408101610269565b90516370fcdd1d60e01b8152fd5b82346101d8575f3660031901126101d85760209051629896808152f35b82346101d8575f3660031901126101d85760209051620f42408152f35b5090346101d85760203660031901126101d8578160a092355f52602052805f2090815491600260018201549101549160ff81519481811615158652818160081c161515602087015260101c1615159084015260608301526080820152f35b5060031991906020368401126101d85780359267ffffffffffffffff908185116101d85760e09085360301126101d8576103ff610f1c565b610407610f3d565b81840135906001600160a01b0382168083036101d857156105465760248501359485156105365760448101358015801561052a575b61051a57606482013590811561050a5760c48301359760ff8916808a036101d8576001106104fa5787519561047087610e6f565b865260208601528685015260608401526084810135608084015260a48101359182116101d8570191366023840112156101d857820135936104b085610ec9565b6104bc85519182610ea7565b85815236602487860101116101d8575f602087819860246104ef9801838601378301015260a083015260c0820152610f6c565b9060015f5551908152f35b875163b4d1a4bb60e01b81528790fd5b865163b4d1a4bb60e01b81528690fd5b855163b4d1a4bb60e01b81528590fd5b5062989680811161043c565b845163162908e360e11b81528490fd5b8351634e46966960e11b81528390fd5b82346101d8575f3660031901126101d85760025490516001600160a01b039091168152602090f35b82346101d8575f3660031901126101d8576020906006549051908152f35b82346101d8575f3660031901126101d8576020905166038d7ea4c680008152f35b82346101d8575f3660031901126101d8576020905173aae29b0366299461418f5324a79afc425be5ae218152f35b82346101d8575f3660031901126101d85760209051734dbd4fc535ac27206064b68ffcf827b0a60bab3f8152f35b5090346101d857806003193601126101d857610633610d9b565b61063b61123e565b6001600160a01b03168015610695575f80808093602435905af13d15610690573d61066581610ec9565b9061067284519283610ea7565b81525f60203d92013e5b1561068357005b5163412846f360e01b8152fd5b61067c565b5051634e46966960e11b8152fd5b5090346101d85760203660031901126101d85760a0915f608083516106c781610e53565b8281528260208201528285820152826060820152015280355f52602052805f208151906106f382610e53565b80549260ff84161515938484526020840160ff8260081c161515815260ff8386019260101c16151582526080600260018601549560608801968752015495019485528251958652511515602086015251151590840152516060830152516080820152f35b82346101d8575f3660031901126101d85760015490516001600160a01b039091168152602090f35b82346101d8575f3660031901126101d85760207f62e78cea01bee320cd4e420270b5ea74000d11b0c9f74754ebdbfc544b05a258916107bc61123e565b6107c4610f3d565b6001805460ff60a01b1916600160a01b17905551338152a1005b82346101d85760203660031901126101d8576001600160a01b03610800610d9b565b165f526005602052805f2090610838825491600260018501549401549051938493846040919493926060820195825260208201520152565b0390f35b5090346101d85760203660031901126101d857602091355f526003825260018060a01b03815f2054169051908152f35b346101d8575f3660031901126101d85761088461123e565b600180546001600160a01b031981169091555f906001600160a01b03167f8be0079c531659141344cd1fd0a4f28419497f9722a3daafe3b4186f6b6457e08280a3005b5090346101d85760803660031901126101d8576108e2610d9b565b91602435604435916108f2610ee5565b508351916108ff83610e8b565b5f83525f9361090c610ee5565b50335f52600560205285805f2093815161092581610e23565b600286549687835260018101546020840152015492839101528294151580610a6a575b610a0e575b50505066038d7ea4c6800091670de0b6b3a764000082116109fc575b9160ff93916109f09387519761097e89610e6f565b60018060a01b03809a168952602089019283528089019182526060890192606435845260808a0194855260a08a0195865260c08a0198895281519a8b9a60208c52511660208b015251908901525160608801525160808701525160a08601525160e060c0860152610100850190610db1565b91511660e08301520390f35b5f945066044364c5bb00009250610969565b90919350606e820291808304606e1490151715610a5757506064900491808310610a4f575b5062989680808311610a47575b808061094d565b91505f610a40565b91505f610a33565b601190634e487b7160e01b5f525260245ffd5b50811515610948565b82346101d8575f3660031901126101d85760209060ff60015460a01c1690519015158152f35b82346101d8575f3660031901126101d8576020905160968152f35b5090346101d8575f3660031901126101d857610ace61123e565b6001549160ff8360a01c1615610b165760ff60a01b19831660015581513381527f5db9ee0a495bf2e6ff9c91a7834c1ba4fdd244a5e8aa4e537bd38aeae4b073aa90602090a1005b9051638dfc202b60e01b8152fd5b509060203660031901126101d857610b3a610d9b565b610b42610f1c565b610b4a610f3d565b6001600160a01b0316918215610cac573415610c9e573a15610c93573a905b825190610b7582610e8b565b5f82525f92610b82610ee5565b50335f52600560205284805f20928151610b9b81610e23565b60028554958683526001810154602084015201549283910152620f424093151580610c8a575b610c2d575b5050916104ef93916020969366038d7ea4c6800091670de0b6b3a76400003411610c1b575b875195610bf787610e6f565b86523489870152878601526060850152608084015260a083015260c0820152610f6c565b5f945066044364c5bb00009250610beb565b90919250606e820291808304606e1490151715610a575750916104ef93916064602097940490620f42408210610c7f575b62989680808311610c77575b5091939681939550610bc6565b91505f610c6a565b620f42409150610c5e565b50811515610bc1565b633b9aca0090610b69565b905163162908e360e11b8152fd5b9051634e46966960e11b8152fd5b82346101d8575f3660031901126101d8576020906007549051908152f35b82346101d85760203660031901126101d857606090610cf5610d9b565b5f828051610d0281610e23565b828152826020820152015260018060a01b03165f526005602052805f20908051610d2b81610e23565b825492838252826002600183015492602085019384520154920191825282519384525160208401525190820152f35b5090346101d85760803660031901126101d857610d94610d806020936064359035610def565b610d8e604435602435610e10565b90610def565b9051908152f35b600435906001600160a01b03821682036101d857565b91908251928382525f5b848110610ddb575050825f602080949584010152601f8019910116010190565b602081830181015184830182015201610dbb565b91908201809211610dfc57565b634e487b7160e01b5f52601160045260245ffd5b81810292918115918404141715610dfc57565b6060810190811067ffffffffffffffff821117610e3f57604052565b634e487b7160e01b5f52604160045260245ffd5b60a0810190811067ffffffffffffffff821117610e3f57604052565b60e0810190811067ffffffffffffffff821117610e3f57604052565b6020810190811067ffffffffffffffff821117610e3f57604052565b90601f8019910116810190811067ffffffffffffffff821117610e3f57604052565b67ffffffffffffffff8111610e3f57601f01601f191660200190565b60405190610ef282610e6f565b5f60c083828152826020820152826040820152826060820152826080820152606060a08201520152565b60025f5414610f2b5760025f55565b604051633ee5aeb560e01b8152600490fd5b60ff60015460a01c16610f4c57565b60405163d93c066560e01b8152600490fd5b5f198114610dfc5760010190565b90602080830191825190610f866080860192835190610def565b91604094858701610fa3815195610d8e60608b0197885190610e10565b341061122d5787518251885190888201923360601b84526bffffffffffffffffffffffff199060601b166034830152604882015242606882015260688152610fea81610e53565b51902094855f5260049889885260ff895f20541661121d578860028451898d8c85519561101687610e53565b60018752818701925f8452818801925f8452606089019542875260808a019788525f52525f20955115159160ff62ff000061ff0089549351151560081b169351151560101b1693169062ffffff191617171784555160018401555191015560018060a01b039089898c846002541685855116998951905189519089519260a089015197519d8e9663679b6ded60e01b88528701526024860152604485015233606485015233608485015260a484015260c483015281806110e4610100968760e4840152610104830190610db1565b039134905af15f97816111ee575b5061110c578b8b818c8c5f52525163412846f360e01b8152fd5b86999294979b919395989a969a5f52818352865f209061ff00198254161790556005875192335f5252855f20916111438354610f5e565b9182845561115660018501928354610def565b80925582156111db57509160026111d594927f5c62520ef5f28b5cefad4fb38a381f3bfa6c84fc20fbeaed234e7db6f7dffe78989796940491015561119c600654610f5e565b6006556111ac8851600754610def565b600755511695519451915192519283923396846040919493926060820195825260208201520152565b0390a490565b601290634e487b7160e01b5f525260245ffd5b9097508a81813d8311611216575b6112068183610ea7565b810103126101d85751965f6110f2565b503d6111fc565b88516332c8c71960e11b81528a90fd5b865163162908e360e11b8152600490fd5b6001546001600160a01b0316330361125257565b60405163118cdaa760e01b8152336004820152602490fdfea26469706673582212201b26a48458afedb0921d8c5c70cd5bbe49c6810b63bfeff9985c7d660c09d1b764736f6c63430008170033","linkReferences":{}},"methodIdentifiers":{"ARBITRUM_INBOX()":"a604eca6","ARBITRUM_MAINNET_INBOX()":"967c4430","DEFAULT_GAS_LIMIT()":"d6be695a","MAX_GAS_LIMIT()":"e3f5aa51","MIN_SUBMISSION_COST()":"b87e8a68","PRIORITY_GAS_MULTIPLIER()":"3f71786e","bridgeETH(address)":"37b98009","bridgeETHWithParams((address,uint256,uint256,uint256,uint256,bytes,uint8))":"c7fca2e4","chainInboxes(uint256)":"74aa02ae","currentInbox()":"bee4b0ee","emergencyWithdraw(address,uint256)":"95ccea67","estimateBridgeCost(uint256,uint256,uint256,uint256)":"0e5fef0e","getOptimizedParams(address,uint256,uint256,uint256)":"65d6b3d9","getTransactionStatus(bytes32)":"94407465","getUserGasStats(address)":"347397a5","owner()":"8da5cb5b","pause()":"8456cb59","paused()":"5c975abb","renounceOwnership()":"715018a6","setCurrentInbox(address)":"f19db32e","setInboxForChain(uint256,address)":"ec8f0fc0","totalETHBridged()":"37346903","totalTransactions()":"b9a60038","transactionStatus(bytes32)":"cfecf7b9","transferOwnership(address)":"f2fde38b","unpause()":"3f4ba83a","userGasStats(address)":"7a969795"},"id":29}