{"abi":[{"type":"constructor","inputs":[{"name":"_bridgeName","type":"string","internalType":"string"},{"name":"_baseFee","type":"uint256","internalType":"uint256"},{"name":"_feePercentage","type":"uint256","internalType":"uint256"},{"name":"_completionTime","type":"uint256","internalType":"uint256"}],"stateMutability":"nonpayable"},{"type":"receive","stateMutability":"payable"},{"type":"function","name":"addSupportedRoute","inputs":[{"name":"chainId","type":"uint256","internalType":"uint256"},{"name":"token","type":"address","internalType":"address"},{"name":"liquidity","type":"uint256","internalType":"uint256"}],"outputs":[],"stateMutability":"nonpayable"},{"type":"function","name":"artificialDelay","inputs":[],"outputs":[{"name":"","type":"uint256","internalType":"uint256"}],"stateMutability":"view"},{"type":"function","name":"config","inputs":[],"outputs":[{"name":"bridgeName","type":"string","internalType":"string"},{"name":"baseFee","type":"uint256","internalType":"uint256"},{"name":"feePercentage","type":"uint256","internalType":"uint256"},{"name":"minAmount","type":"uint256","internalType":"uint256"},{"name":"maxAmount","type":"uint256","internalType":"uint256"},{"name":"completionTime","type":"uint256","internalType":"uint256"},{"name":"successRate","type":"uint256","internalType":"uint256"},{"name":"liquidityAmount","type":"uint256","internalType":"uint256"},{"name":"isHealthy","type":"bool","internalType":"bool"},{"name":"isActive","type":"bool","internalType":"bool"}],"stateMutability":"view"},{"type":"function","name":"customSlippage","inputs":[],"outputs":[{"name":"","type":"uint256","internalType":"uint256"}],"stateMutability":"view"},{"type":"function","name":"emergencyWithdraw","inputs":[{"name":"token","type":"address","internalType":"address"},{"name":"amount","type":"uint256","internalType":"uint256"}],"outputs":[],"stateMutability":"nonpayable"},{"type":"function","name":"estimateGas","inputs":[{"name":"route","type":"tuple","internalType":"struct IBridgeAdapter.Route","components":[{"name":"adapter","type":"address","internalType":"address"},{"name":"tokenIn","type":"address","internalType":"address"},{"name":"tokenOut","type":"address","internalType":"address"},{"name":"amountIn","type":"uint256","internalType":"uint256"},{"name":"amountOut","type":"uint256","internalType":"uint256"},{"name":"srcChainId","type":"uint256","internalType":"uint256"},{"name":"dstChainId","type":"uint256","internalType":"uint256"},{"name":"metrics","type":"tuple","internalType":"struct IBridgeAdapter.RouteMetrics","components":[{"name":"estimatedGasCost","type":"uint256","internalType":"uint256"},{"name":"bridgeFee","type":"uint256","internalType":"uint256"},{"name":"totalCostWei","type":"uint256","internalType":"uint256"},{"name":"estimatedTimeMinutes","type":"uint256","internalType":"uint256"},{"name":"liquidityAvailable","type":"uint256","internalType":"uint256"},{"name":"successRate","type":"uint256","internalType":"uint256"},{"name":"congestionLevel","type":"uint256","internalType":"uint256"}]},{"name":"adapterData","type":"bytes","internalType":"bytes"},{"name":"deadline","type":"uint256","internalType":"uint256"}]}],"outputs":[{"name":"gasEstimate","type":"uint256","internalType":"uint256"}],"stateMutability":"view"},{"type":"function","name":"executeBridge","inputs":[{"name":"route","type":"tuple","internalType":"struct IBridgeAdapter.Route","components":[{"name":"adapter","type":"address","internalType":"address"},{"name":"tokenIn","type":"address","internalType":"address"},{"name":"tokenOut","type":"address","internalType":"address"},{"name":"amountIn","type":"uint256","internalType":"uint256"},{"name":"amountOut","type":"uint256","internalType":"uint256"},{"name":"srcChainId","type":"uint256","internalType":"uint256"},{"name":"dstChainId","type":"uint256","internalType":"uint256"},{"name":"metrics","type":"tuple","internalType":"struct IBridgeAdapter.RouteMetrics","components":[{"name":"estimatedGasCost","type":"uint256","internalType":"uint256"},{"name":"bridgeFee","type":"uint256","internalType":"uint256"},{"name":"totalCostWei","type":"uint256","internalType":"uint256"},{"name":"estimatedTimeMinutes","type":"uint256","internalType":"uint256"},{"name":"liquidityAvailable","type":"uint256","internalType":"uint256"},{"name":"successRate","type":"uint256","internalType":"uint256"},{"name":"congestionLevel","type":"uint256","internalType":"uint256"}]},{"name":"adapterData","type":"bytes","internalType":"bytes"},{"name":"deadline","type":"uint256","internalType":"uint256"}]},{"name":"recipient","type":"address","internalType":"address"},{"name":"permitData","type":"bytes","internalType":"bytes"}],"outputs":[{"name":"transferId","type":"bytes32","internalType":"bytes32"}],"stateMutability":"payable"},{"type":"function","name":"failureMode","inputs":[],"outputs":[{"name":"","type":"uint8","internalType":"enum MockBridgeAdapter.FailureMode"}],"stateMutability":"view"},{"type":"function","name":"forceCompleteTransfer","inputs":[{"name":"transferId","type":"bytes32","internalType":"bytes32"},{"name":"success","type":"bool","internalType":"bool"}],"outputs":[],"stateMutability":"nonpayable"},{"type":"function","name":"gasConsumption","inputs":[],"outputs":[{"name":"","type":"uint256","internalType":"uint256"}],"stateMutability":"view"},{"type":"function","name":"getAvailableLiquidity","inputs":[{"name":"tokenIn","type":"address","internalType":"address"},{"name":"tokenOut","type":"address","internalType":"address"},{"name":"srcChainId","type":"uint256","internalType":"uint256"},{"name":"dstChainId","type":"uint256","internalType":"uint256"}],"outputs":[{"name":"liquidity","type":"uint256","internalType":"uint256"}],"stateMutability":"view"},{"type":"function","name":"getBridgeName","inputs":[],"outputs":[{"name":"","type":"string","internalType":"string"}],"stateMutability":"view"},{"type":"function","name":"getBridgeStats","inputs":[],"outputs":[{"name":"_totalTransfers","type":"uint256","internalType":"uint256"},{"name":"_successfulTransfers","type":"uint256","internalType":"uint256"},{"name":"_totalVolume","type":"uint256","internalType":"uint256"},{"name":"_successRate","type":"uint256","internalType":"uint256"},{"name":"_failureMode","type":"uint8","internalType":"enum MockBridgeAdapter.FailureMode"}],"stateMutability":"view"},{"type":"function","name":"getRouteMetrics","inputs":[{"name":"tokenIn","type":"address","internalType":"address"},{"name":"tokenOut","type":"address","internalType":"address"},{"name":"amount","type":"uint256","internalType":"uint256"},{"name":"srcChainId","type":"uint256","internalType":"uint256"},{"name":"dstChainId","type":"uint256","internalType":"uint256"}],"outputs":[{"name":"metrics","type":"tuple","internalType":"struct IBridgeAdapter.RouteMetrics","components":[{"name":"estimatedGasCost","type":"uint256","internalType":"uint256"},{"name":"bridgeFee","type":"uint256","internalType":"uint256"},{"name":"totalCostWei","type":"uint256","internalType":"uint256"},{"name":"estimatedTimeMinutes","type":"uint256","internalType":"uint256"},{"name":"liquidityAvailable","type":"uint256","internalType":"uint256"},{"name":"successRate","type":"uint256","internalType":"uint256"},{"name":"congestionLevel","type":"uint256","internalType":"uint256"}]}],"stateMutability":"view"},{"type":"function","name":"getSuccessRate","inputs":[{"name":"srcChainId","type":"uint256","internalType":"uint256"},{"name":"dstChainId","type":"uint256","internalType":"uint256"}],"outputs":[{"name":"successRate","type":"uint256","internalType":"uint256"}],"stateMutability":"view"},{"type":"function","name":"getTransfer","inputs":[{"name":"transferId","type":"bytes32","internalType":"bytes32"}],"outputs":[{"name":"transfer","type":"tuple","internalType":"struct IBridgeAdapter.Transfer","components":[{"name":"transferId","type":"bytes32","internalType":"bytes32"},{"name":"sender","type":"address","internalType":"address"},{"name":"recipient","type":"address","internalType":"address"},{"name":"route","type":"tuple","internalType":"struct IBridgeAdapter.Route","components":[{"name":"adapter","type":"address","internalType":"address"},{"name":"tokenIn","type":"address","internalType":"address"},{"name":"tokenOut","type":"address","internalType":"address"},{"name":"amountIn","type":"uint256","internalType":"uint256"},{"name":"amountOut","type":"uint256","internalType":"uint256"},{"name":"srcChainId","type":"uint256","internalType":"uint256"},{"name":"dstChainId","type":"uint256","internalType":"uint256"},{"name":"metrics","type":"tuple","internalType":"struct IBridgeAdapter.RouteMetrics","components":[{"name":"estimatedGasCost","type":"uint256","internalType":"uint256"},{"name":"bridgeFee","type":"uint256","internalType":"uint256"},{"name":"totalCostWei","type":"uint256","internalType":"uint256"},{"name":"estimatedTimeMinutes","type":"uint256","internalType":"uint256"},{"name":"liquidityAvailable","type":"uint256","internalType":"uint256"},{"name":"successRate","type":"uint256","internalType":"uint256"},{"name":"congestionLevel","type":"uint256","internalType":"uint256"}]},{"name":"adapterData","type":"bytes","internalType":"bytes"},{"name":"deadline","type":"uint256","internalType":"uint256"}]},{"name":"status","type":"uint8","internalType":"enum IBridgeAdapter.TransferStatus"},{"name":"initiatedAt","type":"uint256","internalType":"uint256"},{"name":"completedAt","type":"uint256","internalType":"uint256"}]}],"stateMutability":"view"},{"type":"function","name":"getTransferHistory","inputs":[],"outputs":[{"name":"transferIds","type":"bytes32[]","internalType":"bytes32[]"}],"stateMutability":"view"},{"type":"function","name":"getTransferLimits","inputs":[{"name":"token","type":"address","internalType":"address"},{"name":"srcChainId","type":"uint256","internalType":"uint256"},{"name":"dstChainId","type":"uint256","internalType":"uint256"}],"outputs":[{"name":"minAmount","type":"uint256","internalType":"uint256"},{"name":"maxAmount","type":"uint256","internalType":"uint256"}],"stateMutability":"view"},{"type":"function","name":"isHealthy","inputs":[],"outputs":[{"name":"healthy","type":"bool","internalType":"bool"}],"stateMutability":"view"},{"type":"function","name":"owner","inputs":[],"outputs":[{"name":"","type":"address","internalType":"address"}],"stateMutability":"view"},{"type":"function","name":"renounceOwnership","inputs":[],"outputs":[],"stateMutability":"nonpayable"},{"type":"function","name":"setArtificialDelay","inputs":[{"name":"delay","type":"uint256","internalType":"uint256"}],"outputs":[],"stateMutability":"nonpayable"},{"type":"function","name":"setCustomSlippage","inputs":[{"name":"slippage","type":"uint256","internalType":"uint256"}],"outputs":[],"stateMutability":"nonpayable"},{"type":"function","name":"setFailureMode","inputs":[{"name":"mode","type":"uint8","internalType":"enum MockBridgeAdapter.FailureMode"}],"outputs":[],"stateMutability":"nonpayable"},{"type":"function","name":"setGasConsumption","inputs":[{"name":"gas","type":"uint256","internalType":"uint256"}],"outputs":[],"stateMutability":"nonpayable"},{"type":"function","name":"setShouldRevertOnHealthCheck","inputs":[{"name":"shouldRevert","type":"bool","internalType":"bool"}],"outputs":[],"stateMutability":"nonpayable"},{"type":"function","name":"shouldReturnStaleData","inputs":[],"outputs":[{"name":"","type":"bool","internalType":"bool"}],"stateMutability":"view"},{"type":"function","name":"shouldRevertOnHealthCheck","inputs":[],"outputs":[{"name":"","type":"bool","internalType":"bool"}],"stateMutability":"view"},{"type":"function","name":"simulateCongestion","inputs":[{"name":"congestionLevel","type":"uint256","internalType":"uint256"}],"outputs":[],"stateMutability":"nonpayable"},{"type":"function","name":"successfulTransfers","inputs":[],"outputs":[{"name":"","type":"uint256","internalType":"uint256"}],"stateMutability":"view"},{"type":"function","name":"supportedRoutes","inputs":[{"name":"","type":"uint256","internalType":"uint256"},{"name":"","type":"address","internalType":"address"}],"outputs":[{"name":"","type":"bool","internalType":"bool"}],"stateMutability":"view"},{"type":"function","name":"supportsRoute","inputs":[{"name":"tokenIn","type":"address","internalType":"address"},{"name":"tokenOut","type":"address","internalType":"address"},{"name":"srcChainId","type":"uint256","internalType":"uint256"},{"name":"dstChainId","type":"uint256","internalType":"uint256"}],"outputs":[{"name":"supported","type":"bool","internalType":"bool"}],"stateMutability":"view"},{"type":"function","name":"tokenLiquidity","inputs":[{"name":"","type":"uint256","internalType":"uint256"},{"name":"","type":"address","internalType":"address"}],"outputs":[{"name":"","type":"uint256","internalType":"uint256"}],"stateMutability":"view"},{"type":"function","name":"totalTransfers","inputs":[],"outputs":[{"name":"","type":"uint256","internalType":"uint256"}],"stateMutability":"view"},{"type":"function","name":"totalVolume","inputs":[],"outputs":[{"name":"","type":"uint256","internalType":"uint256"}],"stateMutability":"view"},{"type":"function","name":"transferHistory","inputs":[{"name":"","type":"uint256","internalType":"uint256"}],"outputs":[{"name":"","type":"bytes32","internalType":"bytes32"}],"stateMutability":"view"},{"type":"function","name":"transferOwnership","inputs":[{"name":"newOwner","type":"address","internalType":"address"}],"outputs":[],"stateMutability":"nonpayable"},{"type":"function","name":"transfers","inputs":[{"name":"","type":"bytes32","internalType":"bytes32"}],"outputs":[{"name":"transferId","type":"bytes32","internalType":"bytes32"},{"name":"sender","type":"address","internalType":"address"},{"name":"recipient","type":"address","internalType":"address"},{"name":"route","type":"tuple","internalType":"struct IBridgeAdapter.Route","components":[{"name":"adapter","type":"address","internalType":"address"},{"name":"tokenIn","type":"address","internalType":"address"},{"name":"tokenOut","type":"address","internalType":"address"},{"name":"amountIn","type":"uint256","internalType":"uint256"},{"name":"amountOut","type":"uint256","internalType":"uint256"},{"name":"srcChainId","type":"uint256","internalType":"uint256"},{"name":"dstChainId","type":"uint256","internalType":"uint256"},{"name":"metrics","type":"tuple","internalType":"struct IBridgeAdapter.RouteMetrics","components":[{"name":"estimatedGasCost","type":"uint256","internalType":"uint256"},{"name":"bridgeFee","type":"uint256","internalType":"uint256"},{"name":"totalCostWei","type":"uint256","internalType":"uint256"},{"name":"estimatedTimeMinutes","type":"uint256","internalType":"uint256"},{"name":"liquidityAvailable","type":"uint256","internalType":"uint256"},{"name":"successRate","type":"uint256","internalType":"uint256"},{"name":"congestionLevel","type":"uint256","internalType":"uint256"}]},{"name":"adapterData","type":"bytes","internalType":"bytes"},{"name":"deadline","type":"uint256","internalType":"uint256"}]},{"name":"status","type":"uint8","internalType":"enum IBridgeAdapter.TransferStatus"},{"name":"initiatedAt","type":"uint256","internalType":"uint256"},{"name":"completedAt","type":"uint256","internalType":"uint256"}],"stateMutability":"view"},{"type":"function","name":"updateConfig","inputs":[{"name":"newConfig","type":"tuple","internalType":"struct MockBridgeAdapter.MockConfig","components":[{"name":"bridgeName","type":"string","internalType":"string"},{"name":"baseFee","type":"uint256","internalType":"uint256"},{"name":"feePercentage","type":"uint256","internalType":"uint256"},{"name":"minAmount","type":"uint256","internalType":"uint256"},{"name":"maxAmount","type":"uint256","internalType":"uint256"},{"name":"completionTime","type":"uint256","internalType":"uint256"},{"name":"successRate","type":"uint256","internalType":"uint256"},{"name":"liquidityAmount","type":"uint256","internalType":"uint256"},{"name":"isHealthy","type":"bool","internalType":"bool"},{"name":"isActive","type":"bool","internalType":"bool"}]}],"outputs":[],"stateMutability":"nonpayable"},{"type":"function","name":"updateLiquidity","inputs":[{"name":"chainId","type":"uint256","internalType":"uint256"},{"name":"token","type":"address","internalType":"address"},{"name":"liquidity","type":"uint256","internalType":"uint256"}],"outputs":[],"stateMutability":"nonpayable"},{"type":"event","name":"FailureModeChanged","inputs":[{"name":"oldMode","type":"uint8","indexed":false,"internalType":"enum MockBridgeAdapter.FailureMode"},{"name":"newMode","type":"uint8","indexed":false,"internalType":"enum MockBridgeAdapter.FailureMode"}],"anonymous":false},{"type":"event","name":"LiquidityUpdated","inputs":[{"name":"chainId","type":"uint256","indexed":false,"internalType":"uint256"},{"name":"token","type":"address","indexed":false,"internalType":"address"},{"name":"newLiquidity","type":"uint256","indexed":false,"internalType":"uint256"}],"anonymous":false},{"type":"event","name":"MockConfigUpdated","inputs":[{"name":"newConfig","type":"tuple","indexed":false,"internalType":"struct MockBridgeAdapter.MockConfig","components":[{"name":"bridgeName","type":"string","internalType":"string"},{"name":"baseFee","type":"uint256","internalType":"uint256"},{"name":"feePercentage","type":"uint256","internalType":"uint256"},{"name":"minAmount","type":"uint256","internalType":"uint256"},{"name":"maxAmount","type":"uint256","internalType":"uint256"},{"name":"completionTime","type":"uint256","internalType":"uint256"},{"name":"successRate","type":"uint256","internalType":"uint256"},{"name":"liquidityAmount","type":"uint256","internalType":"uint256"},{"name":"isHealthy","type":"bool","internalType":"bool"},{"name":"isActive","type":"bool","internalType":"bool"}]}],"anonymous":false},{"type":"event","name":"MockTransferExecuted","inputs":[{"name":"transferId","type":"bytes32","indexed":true,"internalType":"bytes32"},{"name":"success","type":"bool","indexed":false,"internalType":"bool"},{"name":"reason","type":"string","indexed":false,"internalType":"string"}],"anonymous":false},{"type":"event","name":"OwnershipTransferred","inputs":[{"name":"previousOwner","type":"address","indexed":true,"internalType":"address"},{"name":"newOwner","type":"address","indexed":true,"internalType":"address"}],"anonymous":false},{"type":"event","name":"TransferCompleted","inputs":[{"name":"transferId","type":"bytes32","indexed":true,"internalType":"bytes32"},{"name":"actualAmountOut","type":"uint256","indexed":false,"internalType":"uint256"},{"name":"actualCost","type":"uint256","indexed":false,"internalType":"uint256"},{"name":"actualTime","type":"uint256","indexed":false,"internalType":"uint256"}],"anonymous":false},{"type":"event","name":"TransferFailed","inputs":[{"name":"transferId","type":"bytes32","indexed":true,"internalType":"bytes32"},{"name":"reason","type":"string","indexed":false,"internalType":"string"}],"anonymous":false},{"type":"event","name":"TransferInitiated","inputs":[{"name":"transferId","type":"bytes32","indexed":true,"internalType":"bytes32"},{"name":"sender","type":"address","indexed":true,"internalType":"address"},{"name":"recipient","type":"address","indexed":true,"internalType":"address"},{"name":"route","type":"tuple","indexed":false,"internalType":"struct IBridgeAdapter.Route","components":[{"name":"adapter","type":"address","internalType":"address"},{"name":"tokenIn","type":"address","internalType":"address"},{"name":"tokenOut","type":"address","internalType":"address"},{"name":"amountIn","type":"uint256","internalType":"uint256"},{"name":"amountOut","type":"uint256","internalType":"uint256"},{"name":"srcChainId","type":"uint256","internalType":"uint256"},{"name":"dstChainId","type":"uint256","internalType":"uint256"},{"name":"metrics","type":"tuple","internalType":"struct IBridgeAdapter.RouteMetrics","components":[{"name":"estimatedGasCost","type":"uint256","internalType":"uint256"},{"name":"bridgeFee","type":"uint256","internalType":"uint256"},{"name":"totalCostWei","type":"uint256","internalType":"uint256"},{"name":"estimatedTimeMinutes","type":"uint256","internalType":"uint256"},{"name":"liquidityAvailable","type":"uint256","internalType":"uint256"},{"name":"successRate","type":"uint256","internalType":"uint256"},{"name":"congestionLevel","type":"uint256","internalType":"uint256"}]},{"name":"adapterData","type":"bytes","internalType":"bytes"},{"name":"deadline","type":"uint256","internalType":"uint256"}]}],"anonymous":false},{"type":"error","name":"MockAmountTooHigh","inputs":[]},{"type":"error","name":"MockAmountTooLow","inputs":[]},{"type":"error","name":"MockBridgeInactive","inputs":[]},{"type":"error","name":"MockInsufficientLiquidity","inputs":[]},{"type":"error","name":"MockTransferFailed","inputs":[{"name":"reason","type":"string","internalType":"string"}]},{"type":"error","name":"MockUnsupportedRoute","inputs":[]},{"type":"error","name":"OwnableInvalidOwner","inputs":[{"name":"owner","type":"address","internalType":"address"}]},{"type":"error","name":"OwnableUnauthorizedAccount","inputs":[{"name":"account","type":"address","internalType":"address"}]},{"type":"error","name":"ReentrancyGuardReentrantCall","inputs":[]},{"type":"error","name":"SafeERC20FailedOperation","inputs":[{"name":"token","type":"address","internalType":"address"}]}],"bytecode":{"object":"0x60406080815234620004ec57620032cf90813803806200001f8162000510565b938439820191608081840312620004ec5780516001600160401b038111620004ec57810183601f82011215620004ec578051906001600160401b038211620004ab5762000076601f8301601f191660200162000510565b9482865260208383010111620004ec575f5b828110620004d657505060205f91850101526020810151916060818301519201513315620004bf575f8054336001600160a01b0319821681178355916001600160a01b03909116907f8be0079c531659141344cd1fd0a4f28419497f9722a3daafe3b4186f6b6457e09080a360017f9b779b17422d0df92223018b32b4d1fa46e071723d6817e2486d003becc55f005560ff199283600a5416600a555f6012555f60135561ffff19601454166014555f601555825194610140860186811060018060401b03821117620004ab57845286865260208601528483015266038d7ea4c680006060850152683635c9adc5dea00000608085015260a0840152605f60c084015269021e19e0c9bab240000060e08401526001610100840181905261012084015283516001600160401b038111620004ab57600154600181811c91168015620004a0575b60208210146200048c57601f811162000428575b506020601f8211600114620003bc5781929394955f92620003b0575b50508160011b915f199060031b1c1916176001555b6020830151600255808301516003556060830151600455608083015160055560a083015160065560c083015160075560e08301519260089360085561010081015115159060ff61ff00610120600954930151151560081b1692169061ffff1916171760095562000282620004f0565b9060038252606036602084013760016200029c8362000536565b526002620002aa8362000558565b525f620002b78362000569565b52620002c2620004f0565b9160038352606036602085013762aa36a7620002de8462000536565b5262066eee620002ee8462000558565b5262013881620002fe8462000569565b525f5b8351811015620003a1575f5b8251811015620003975795600180976200032884886200057a565b515f52600c602052855f20828060a01b036200034583886200057a565b51165f52602052855f20828982541617905582546200036585896200057a565b515f52600d602052865f20838060a01b036200038284896200057a565b51165f52602052865f2055019096506200030d565b5060010162000301565b8251612d3f9081620005908239f35b015190505f80620001fe565b60015f5260205f20905f5b601f19841681106200040f575060019394959683601f19811610620003f6575b505050811b0160015562000213565b01515f1960f88460031b161c191690555f8080620003e7565b9091602060018192858b015181550193019101620003c7565b60015f527fb10e2d527612073b26eecdfd717e6a320cf44b4afac2b0732d9fcbe2b7fa0cf6601f830160051c81016020841062000484575b601f830160051c8201811062000478575050620001e2565b5f815560010162000460565b508062000460565b634e487b7160e01b5f52602260045260245ffd5b90607f1690620001ce565b634e487b7160e01b5f52604160045260245ffd5b8151631e4fbdf760e01b81525f6004820152602490fd5b8060208092840101518282890101520162000088565b5f80fd5b60405190608082016001600160401b03811183821017620004ab57604052565b6040519190601f01601f191682016001600160401b03811183821017620004ab57604052565b805115620005445760200190565b634e487b7160e01b5f52603260045260245ffd5b805160011015620005445760400190565b805160021015620005445760600190565b8051821015620005445760209160051b01019056fe608080604052600436101561001c575b50361561001a575f80fd5b005b5f3560e01c90816311ec0381146120cf5750806315a3d37a14611df05780631d63575614611d4e5780632165cbb714611cd457806322c7b61914611c5d578063260958a514611a915780632648a3b214611a0d57806330bb2ad3146119ec5780633542284b146119d1578063390f4185146119ae5780633bf47720146119915780633c64f04b146118f657806343c916c5146118b1578063570d1cde146117645780635f81a57c1461174757806362ae57591461169b5780636351ffef1461167a57806366bd87d3146116535780636943058414611636578063715018a6146115d257806372971f22146115b057806379502c5514611516578063816c99de146114df5780638da5cb5b146114ba5780638f20a7f7146109d8578063944e137f146109bb57806395ccea67146108d15780639988bd40146105625780639fea632514610541578063b8b2233d1461050e578063d51aa0cb146104d7578063e4020804146104bd578063e731f181146104a0578063e9afcfd614610468578063e9dd087414610442578063eaf70d781461041d578063ee0671ae1461036b578063f1ac5966146102a9578063f2fde38b146102015763f9e5051a146101e0575f61000f565b346101fd575f3660031901126101fd576020601054604051908152f35b5f80fd5b346101fd5760203660031901126101fd5761021a61212a565b610222612c8c565b6001600160a01b03809116908115610279575f548273ffffffffffffffffffffffffffffffffffffffff198216175f55167f8be0079c531659141344cd1fd0a4f28419497f9722a3daafe3b4186f6b6457e05f80a3005b60246040517f1e4fbdf70000000000000000000000000000000000000000000000000000000081525f6004820152fd5b346101fd5760203660031901126101fd576004356102c5612c8c565b60649081811161032857600654818301908184116103145783916102e8916127a3565b04600655603281116102f657005b60075490609603609681116103145761030e916127a3565b04600755005b634e487b7160e01b5f52601160045260245ffd5b5060405162461bcd60e51b815260206004820152601860248201527f496e76616c696420636f6e67657374696f6e206c6576656c00000000000000006044820152fd5b346101fd575f3660031901126101fd5760405180600e5480835260208093018091600e5f527fbb7b4a454dc3493923482f07822329ed19e8244eff582cc204f8554c3620c3fd905f5b868282106104095786866103ca828803836121c5565b60405192839281840190828552518091526040840192915f5b8281106103f257505050500390f35b8351855286955093810193928101926001016103e3565b8354855290930192600192830192016103b4565b346101fd575f3660031901126101fd57602060ff60145460081c166040519015158152f35b346101fd57602061045e61045536612492565b92919091612b7c565b6040519015158152f35b346101fd5760203660031901126101fd576004358015158091036101fd5761048e612c8c565b60ff8019601454169116176014555f80f35b346101fd575f3660031901126101fd576020601554604051908152f35b346101fd575f3660031901126101fd57602061045e612afb565b346101fd5760603660031901126101fd5760406105026104f561212a565b6044359060243590612a01565b82519182526020820152f35b346101fd575f3660031901126101fd5761053d61052961296f565b604051918291602083526020830190612356565b0390f35b346101fd5760203660031901126101fd5761055a612c8c565b600435601555005b346101fd576003196020368201126101fd576004359067ffffffffffffffff82116101fd576101409082360301126101fd57604051906105a182612170565b806004013567ffffffffffffffff81116101fd578101366023820112156101fd5761063e916105dd6101249236906024600482013591016121e7565b84526024810135602085015260448101356040850152606481013560608501526084810135608085015260a481013560a085015260c481013560c085015260e481013560e08501526106326101048201612717565b61010085015201612717565b61012082015261064c612c8c565b80519081519167ffffffffffffffff83116108bd5761066c6001546124cb565b601f8111610864575b50602090601f84116001146107be5792806106c7927fd253c772de6647718bf86165fb05c88aade64b69c0b7f54e4c8a460f1de2aac8955f926107b3575b50508160011b915f199060031b1c19161790565b6001555b602081015160025560408101516003556060810151600455608081015160055560a081015160065560c081015160075560e0810151600855610100810151151560095460ff61ff00610120850151151560081b1692169061ffff1916171760095560405180916020825261012061075082516101406020860152610160850190612356565b91602081015160408501526040810151606085015260608101516080850152608081015160a085015260a081015160c085015260c081015160e085015260e0810151610100850152610100810151151582850152015115156101408301520390a1005b0151905085806106b3565b9060015f527fb10e2d527612073b26eecdfd717e6a320cf44b4afac2b0732d9fcbe2b7fa0cf6915f5b601f198616811061084c57509184916001937fd253c772de6647718bf86165fb05c88aade64b69c0b7f54e4c8a460f1de2aac896601f19811610610834575b505050811b016001556106cb565b01515f1960f88460031b161c19169055848080610826565b919260206001819286850151815501940192016107e7565b6108ad9060015f527fb10e2d527612073b26eecdfd717e6a320cf44b4afac2b0732d9fcbe2b7fa0cf6601f860160051c810191602087106108b3575b601f0160051c0190612959565b83610675565b90915081906108a0565b634e487b7160e01b5f52604160045260245ffd5b346101fd5760403660031901126101fd576108ea61212a565b6024356108f5612c8c565b6001600160a01b039182169182610935575f8093508092819282541682821561092c575bf11561092157005b6040513d5f823e3d90fd5b506108fc610919565b5f541690604051917fa9059cbb000000000000000000000000000000000000000000000000000000005f5260045260245260205f60448180865af160015f511481161561099c575b816040521561098857005b602491635274afe760e01b82526004820152fd5b60018115166109b257823b15153d15161661097d565b503d5f823e3d90fd5b346101fd575f3660031901126101fd576020601254604051908152f35b60603660031901126101fd5760043567ffffffffffffffff81116101fd57610a0490369060040161222d565b610a0c612114565b60443567ffffffffffffffff81116101fd57366023820112156101fd57806004013567ffffffffffffffff81116101fd57369101602401116101fd5760027f9b779b17422d0df92223018b32b4d1fa46e071723d6817e2486d003becc55f0054146114905760027f9b779b17422d0df92223018b32b4d1fa46e071723d6817e2486d003becc55f005560ff600a541660088110156111cd576006146114415760ff60095460081c1615611417576060820151600454116113ed576060820151600554106113c35760c08201515f52600d60205260405f206001600160a01b036040840151165f5260205260405f205460608301511161139957606082015160a08301519060c0840151600f54926040519384925f92600154610b2d816124cb565b90600181169081156113755750600114611313575b509060c894939291610b94963360601b85526bffffffffffffffffffffffff198a60601b16601486015260288501526048840152606883015242608883015260a88201520360a88101845201826121c5565b60208151910120906001600160a01b0360208401511615155f146112c3576001600160a01b03602084015116606084015190604051917f23b872dd000000000000000000000000000000000000000000000000000000005f52336004523060245260445260205f60648180855af160015f51148116156112a4575b826040525f6060521561128f5750505b606083015160a08401515f52600d60205260405f206001600160a01b036020860151165f52602052610c5660405f209182546127d4565b9055606083015160c08401515f52600d60205260405f206001600160a01b036040860151165f5260205260405f20908154808281031161031457039055604051610c9f81612154565b8281523360208201526001600160a01b03821660408201528360608201525f60808201524260a08201525f60c0820152825f52600b60205260405f209080518255600182016001600160a01b036020830151169073ffffffffffffffffffffffffffffffffffffffff199182825416179055600283016001600160a01b036040840151168282541617905560038301906060830151916001600160a01b0383511682825416179055600484016001600160a01b036020840151168282541617905560058401906001600160a01b0360408401511690825416179055606081015160068401556080810151600784015560a0810151600884015560c0810151600984015560c060e08201518051600a8601556020810151600b8601556040810151600c8601556060810151600d8601556080810151600e86015560a0810151600f8601550151601084015561010081015180519067ffffffffffffffff82116108bd57610e0e60118601546124cb565b601f811161125c575b50602090601f83116001146111ec579180610e4b9261012095945f926111e15750508160011b915f199060031b1c19161790565b60118501555b015160128301556080810151601383019160058210156111cd5760159260c09260ff8019835416911617905560a081015160148501550151910155600e54680100000000000000008110156108bd57806001610eb09201600e55612724565b81549060031b9084821b915f19901b1916179055610ecf600f5461294b565b600f55610ee260608401516011546127d4565b601155815f52600b60205260405f209260ff1960138501541693600185176013820155610f0d612ccf565b90604051610f1a8161218d565b5f81529560ff600a54169160088310156111cd576020978794858560017f9bd64e7bef8fe88bd6e5a83153fbc19ce851fb72eca0ca995729b7c9aec7b40297145f146110ea57509150505f91604051610f72816121a9565b601881527f416c77617973206661696c206d6f646520656e61626c656400000000000000008b820152935b83156110a25750606060077ff8b93d99f828ea6dc825a1d9830dd368efbe210896261ba9ddf4b8c2db7c11df92600260ff19601383015416176013820155610fe7600654426127d4565b6015820155610ff760105461294b565b60105501546006546040519182525f8d8301526040820152a25b61102e6040519283921515835260408a8401526040830190612356565b0390a2827f56ca1441c76a98845661e51ce81568a517265ae9ab2f9871a232c11a9208a9f06001600160a01b0360405194878652169380611073339589830190612394565b0390a460017f9b779b17422d0df92223018b32b4d1fa46e071723d6817e2486d003becc55f0055604051908152f35b6013919250600317910155837fede47e73e6c8536d5351df6e9a76853cc1ba236bc23132185ee92fa0afa9e7e16040518a8152806110e28c820187612356565b0390a2611011565b6005810361113457509150505f91604051611104816121a9565b601081527f5472616e736665722074696d656f7574000000000000000000000000000000008b820152935b610f9d565b6003810361117d57509150505f9160405161114e816121a9565b601681527f496e73756666696369656e74206c6971756964697479000000000000000000008b82015293610f9d565b600490959193959492940361112f57935091505f9160405161119e816121a9565b601181527f536c69707061676520746f6f20686967680000000000000000000000000000008b82015293610f9d565b634e487b7160e01b5f52602160045260245ffd5b015190508a806106b3565b90601186015f5260205f20915f5b601f198516811061124457509183916001936101209695601f1981161061122c575b505050811b016011850155610e51565b01515f1960f88460031b161c1916905589808061121c565b919260206001819286850151815501940192016111fa565b61128990601187015f5260205f20601f850160051c810191602086106108b357601f0160051c0190612959565b88610e17565b60249250635274afe760e01b82526004820152fd5b60018115166112ba57813b15153d151616610c0f565b823d5f823e3d90fd5b6060830151341015610c1f57606460405162461bcd60e51b815260206004820152601060248201527f496e73756666696369656e7420455448000000000000000000000000000000006044820152fd5b909192935060015f527fb10e2d527612073b26eecdfd717e6a320cf44b4afac2b0732d9fcbe2b7fa0cf65f905b8282106113595750508401602001929190610b94610b42565b80546020838b0181019190915289975090910190600101611340565b60ff191660208089019190915282151590920287019091019450610b949050610b42565b60046040517f89fcf57b000000000000000000000000000000000000000000000000000000008152fd5b60046040517f0ce8a562000000000000000000000000000000000000000000000000000000008152fd5b60046040517faeb75995000000000000000000000000000000000000000000000000000000008152fd5b60046040517f44d5f0db000000000000000000000000000000000000000000000000000000008152fd5b608460405163f7cf28c560e01b815260206004820152602160248201527f53696d756c6174656420726576657274206f6e206578656375746542726964676044820152606560f81b6064820152fd5b60046040517f3ee5aeb5000000000000000000000000000000000000000000000000000000008152fd5b346101fd575f3660031901126101fd5760206001600160a01b035f5416604051908152f35b346101fd5760203660031901126101fd57600435600e548110156101fd57611508602091612724565b90546040519160031b1c8152f35b346101fd575f3660031901126101fd576115716040516115408161153981612503565b03826121c5565b60025460ff6003546004546005546006546007549160085493600954956040519a8b9a610140808d528c0190612356565b9860208b015260408a01526060890152608088015260a087015260c086015260e0850152818116151561010085015260081c1615156101208301520390f35b346101fd575f3660031901126101fd57602060ff601454166040519015158152f35b346101fd575f3660031901126101fd576115ea612c8c565b5f6001600160a01b03815473ffffffffffffffffffffffffffffffffffffffff1981168355167f8be0079c531659141344cd1fd0a4f28419497f9722a3daafe3b4186f6b6457e08280a3005b346101fd575f3660031901126101fd576020601354604051908152f35b346101fd575f3660031901126101fd57602060ff600a54166116786040518092612349565bf35b346101fd5760203660031901126101fd57611693612c8c565b600435601355005b346101fd577f0fc1ac479aace86bc7862992da8432ebe188b2d9667cbefa43e7750055c7243e6117426116cd36612468565b6116d8939193612c8c565b825f52600c60205260405f206001600160a01b03851690815f5260205260405f20600160ff19825416179055835f52600d60205260405f20905f526020528060405f2055604051938493846001600160a01b03604092959493606083019683521660208201520152565b0390a1005b346101fd575f3660031901126101fd576020601154604051908152f35b346101fd5760403660031901126101fd5760043560243580151581036101fd5761178c612c8c565b815f52600b60205260405f209081541561186d571561180557606060078260137ff8b93d99f828ea6dc825a1d9830dd368efbe210896261ba9ddf4b8c2db7c11df9401600260ff198254161790554260158201556117eb60105461294b565b60105501546040519081525f60208201525f6040820152a2005b601301600360ff198254161790557fede47e73e6c8536d5351df6e9a76853cc1ba236bc23132185ee92fa0afa9e7e1606060405160208152601560208201527f466f726365206661696c65642062792061646d696e00000000000000000000006040820152a2005b606460405162461bcd60e51b815260206004820152601260248201527f5472616e73666572206e6f7420666f756e6400000000000000000000000000006044820152fd5b346101fd5760403660031901126101fd576118ca612114565b6004355f52600d6020526001600160a01b0360405f2091165f52602052602060405f2054604051908152f35b346101fd5760203660031901126101fd576004355f52600b60205260405f2080546001600160a01b0391826001820154169260028201541661193a600383016125b5565b9161198361197860ff60138401541694601560148501549401549460405198899889526020890152604088015260e0606088015260e0870190612394565b93608086019061245b565b60a084015260c08301520390f35b346101fd575f3660031901126101fd576020600f54604051908152f35b346101fd5760403660031901126101fd5760206119c96128b8565b604051908152f35b346101fd5760206119c96119e436612492565b9290506127e1565b346101fd5760203660031901126101fd57611a05612c8c565b600435601255005b346101fd577f0fc1ac479aace86bc7862992da8432ebe188b2d9667cbefa43e7750055c7243e611742611a3f36612468565b611a4a939193612c8c565b825f52600d60205260405f206001600160a01b0385165f526020528060405f2055604051938493846001600160a01b03604092959493606083019683521660208201520152565b346101fd576020806003193601126101fd5760405190611ab082612154565b5f82525f818301525f60408301525f60c060405193611ace85612170565b82855282848601528260408601528260608601528260808601528260a08601528282860152611afb61276d565b60e0860152610100946060868201528361012082015260608201528260808201528260a0820152015260ff600a541660088110156111cd57600614611c18576004355f52600b815260405f209160405192611b5584612154565b805484526001600160a01b03918260018301541691848601928352836002820154169160408701928352611b8b600383016125b5565b906060880191825260ff60138401541691608089019660058410156111cd578995816015611c0897611bfc978c5260a060148201549a01998a5201549860c08d01998a528b6040519d8e9d8e5251908d0152511660408b015251166060890152519060e06080890152870190612394565b935160a086019061245b565b5160c08401525160e08301520390f35b6064906040519063f7cf28c560e01b82526004820152601f60248201527f53696d756c6174656420726576657274206f6e206765745472616e73666572006044820152fd5b346101fd5760203660031901126101fd5760043560088110156101fd57604060ff611cd17f3bc0e2edb4837da028a6538c0493751ae716676aaf9238f44ddaa4eff373815593611cab612c8c565b611cc7600a548483168519821617600a55855194859116612349565b6020830190612349565ba1005b346101fd575f3660031901126101fd57600f5460105460115491908115611d40576064810290808204606414811517156103145760a093611d1884611678946127b6565b905b60ff600a5416926040519586526020860152604085015260608401526080830190612349565b6116789060a0935f90611d1a565b346101fd5760203660031901126101fd5760043567ffffffffffffffff81116101fd57611d7f90369060040161222d565b60ff600a541660088110156111cd57600614611dab576119c98160c060a0602094015191015190612c43565b606460405163f7cf28c560e01b815260206004820152601f60248201527f53696d756c6174656420726576657274206f6e20657374696d617465476173006044820152fd5b346101fd5760a03660031901126101fd57611e0961212a565b611e11612114565b60649160843591833591604435611e2661276d565b5060ff600a54169160088310156111cd576006831461206457604051937fe9dd08740000000000000000000000000000000000000000000000000000000085526001600160a01b0380921660048601521680602485015284604485015285878501526020938481608481305afa908115610921575f9161202e575b501561200457611ecd86611ec7600254612710611ec0600354886127a3565b04906127d4565b96612c43565b955f52600d845260405f20905f52835260405f20549160038114611ff8575b600414611fde575b8115611fd757858102908082048714901517156103145781611f15916127b6565b6050811115611fcb57604f1981019081116103145785810295818704149015171561031457601460e09504925b611f4c81866127d4565b603c60065404916007549460405197611f6489612154565b885287015260408601526060850152608084015260a083015260c0820152611678604051809260c08091805184526020810151602085015260408101516040850152606081015160608501526080810151608085015260a081015160a08501520151910152565b5060e094505f92611f42565b5084611f15565b926003810290808204600314901517156103145792611ef4565b600182901c9250611eec565b60046040517f37ddbd47000000000000000000000000000000000000000000000000000000008152fd5b90508481813d831161205d575b61204581836121c5565b810103126101fd575180151581036101fd5788611ea1565b503d61203b565b6084877f69637300000000000000000000000000000000000000000000000000000000006040519163f7cf28c560e01b835260206004840152602360248401527f53696d756c6174656420726576657274206f6e20676574526f7574654d6574726044840152820152fd5b346101fd5760403660031901126101fd576020906120eb612114565b6004355f52600c83526001600160a01b0360405f2091165f52825260ff60405f20541615158152f35b602435906001600160a01b03821682036101fd57565b600435906001600160a01b03821682036101fd57565b35906001600160a01b03821682036101fd57565b60e0810190811067ffffffffffffffff8211176108bd57604052565b610140810190811067ffffffffffffffff8211176108bd57604052565b6020810190811067ffffffffffffffff8211176108bd57604052565b6040810190811067ffffffffffffffff8211176108bd57604052565b90601f8019910116810190811067ffffffffffffffff8211176108bd57604052565b92919267ffffffffffffffff82116108bd5760405191612211601f8201601f1916602001846121c5565b8294818452818301116101fd578281602093845f960137010152565b91908281039261020084126101fd576040519161224983612170565b60e0839561225684612140565b855261226460208501612140565b602086015261227560408501612140565b6040860152606084013560608601526080840135608086015260a084013560a086015260c084013560c086015260df1901126101fd57604051916122b883612154565b60e08101358352610100808201356020850152610120938483013560408201526101408301356060820152610160830135608082015261018083013560a08201526101a083013560c082015260e08601526101c082013567ffffffffffffffff81116101fd57820183601f820112156101fd576101e09381602061233e933591016121e7565b908501520135910152565b9060088210156111cd5752565b91908251928382525f5b848110612380575050825f602080949584010152601f8019910116010190565b602081830181015184830182015201612360565b906101e06101206124526102006001600160a01b038087511686528060208801511660208701526040870151166040860152606086015160608601526080860151608086015260a086015160a086015260c086015160c086015261243c60e087015160e087019060c08091805184526020810151602085015260408101516040850152606081015160608501526080810151608085015260a081015160a08501520151910152565b61010086015190806101c0870152850190612356565b93015191015290565b9060058210156111cd5752565b60609060031901126101fd57600435906024356001600160a01b03811681036101fd579060443590565b60809060031901126101fd576001600160a01b039060043582811681036101fd579160243590811681036101fd57906044359060643590565b90600182811c921680156124f9575b60208310146124e557565b634e487b7160e01b5f52602260045260245ffd5b91607f16916124da565b905f91600190600154612515816124cb565b80835292602091600181169081156125905750600114612536575b50505050565b9293945060015f527fb10e2d527612073b26eecdfd717e6a320cf44b4afac2b0732d9fcbe2b7fa0cf6925f935b85851061257d57505050602092500101905f808080612530565b8054858501840152938201938101612563565b92505050602093945060ff929192191683830152151560051b0101905f808080612530565b906040516125c281612170565b80926001600160a01b03808254168352600181600184015416916020928386015260028401541660408501526003830154606085015260048301546080850152600583015460a0850152600683015460c085015260405161262281612154565b6007840154815260088401548382015260098401546040820152600a8401546060820152600b8401546080820152600c84015460a0820152600d84015460c082015260e0850152600e830191604051925f92815491612680836124cb565b80875292600181169081156126f557506001146126bc575b5050505091816126af600f936101209503826121c5565b6101008501520154910152565b5f908152838120939450925b8284106126e257505050820101816126af81610120612698565b80548685018601529284019281016126c8565b60ff191685880152505050151560051b8301019050816126af81610120612698565b359081151582036101fd57565b600e5481101561275957600e5f527fbb7b4a454dc3493923482f07822329ed19e8244eff582cc204f8554c3620c3fd01905f90565b634e487b7160e01b5f52603260045260245ffd5b6040519061277a82612154565b5f60c0838281528260208201528260408201528260608201528260808201528260a08201520152565b8181029291811591840414171561031457565b81156127c0570490565b634e487b7160e01b5f52601260045260245ffd5b9190820180921161031457565b9160ff600a54169260088410156111cd576006841461284d5760078414612845576001600160a01b03809316928391160361283e575f52600d60205260405f20905f52602052600360405f205491146128375790565b600a900490565b5050505f90565b505050505f90565b608460405163f7cf28c560e01b815260206004820152602960248201527f53696d756c6174656420726576657274206f6e20676574417661696c61626c6560448201527f4c697175696469747900000000000000000000000000000000000000000000006064820152fd5b60ff600a541660088110156111cd57600681146128e0576007146128dc5760075490565b5f90565b608460405163f7cf28c560e01b815260206004820152602260248201527f53696d756c6174656420726576657274206f6e2067657453756363657373526160448201527f74650000000000000000000000000000000000000000000000000000000000006064820152fd5b5f1981146103145760010190565b818110612964575050565b5f8155600101612959565b60ff600a541660088110156111cd57600681146129b2576007146129a05760405161299d8161153981612503565b90565b6040516129ac8161218d565b5f815290565b608460405163f7cf28c560e01b815260206004820152602160248201527f53696d756c6174656420726576657274206f6e206765744272696467654e616d6044820152606560f81b6064820152fd5b9060ff600a541660088110156111cd5760068114612a9057600714612a87575f52600c6020526001600160a01b0360405f20911690815f5260205260ff60405f20541615918215612a63575b5050612a5d576004549060055490565b5f905f90565b9091505f52600c60205260405f20905f5260205260ff60405f205416155f80612a4d565b5050505f905f90565b608460405163f7cf28c560e01b815260206004820152602560248201527f53696d756c6174656420726576657274206f6e206765745472616e736665724c60448201527f696d6974730000000000000000000000000000000000000000000000000000006064820152fd5b60ff60145416612b375760ff600a541660088110156111cd576007146128dc5760095460ff81169081612b2c575090565b60ff915060081c1690565b606460405163f7cf28c560e01b815260206004820152602060248201527f53696d756c6174656420726576657274206f6e206865616c746820636865636b6044820152fd5b919060ff600a541660088110156111cd5760068114612bf457600714612845576001600160a01b03809116921690828203612845575f52600c60205260405f20905f5260205260ff60405f2054169182612bd557505090565b9091505f52600c60205260405f20905f5260205260ff60405f20541690565b608460405163f7cf28c560e01b815260206004820152602160248201527f53696d756c6174656420726576657274206f6e20737570706f727473526f75746044820152606560f81b6064820152fd5b90600166038d7ea4c680009214908115612c81575b50612c73575b60135480612c6a575090565b61299d916127d4565b506611c37937e08000612c5e565b60019150145f612c58565b6001600160a01b035f54163303612c9f57565b60246040517f118cdaa7000000000000000000000000000000000000000000000000000000008152336004820152fd5b60ff600a541660088110156111cd5760028114612cea571590565b50600f54604051906020820190428252446040840152606083015260608252608082019180831067ffffffffffffffff8411176108bd5760649260405251902006600754119056fea164736f6c6343000818000a","linkReferences":{}},"methodIdentifiers":{"addSupportedRoute(uint256,address,uint256)":"62ae5759","artificialDelay()":"944e137f","config()":"79502c55","customSlippage()":"e731f181","emergencyWithdraw(address,uint256)":"95ccea67","estimateGas((address,address,address,uint256,uint256,uint256,uint256,(uint256,uint256,uint256,uint256,uint256,uint256,uint256),bytes,uint256))":"1d635756","executeBridge((address,address,address,uint256,uint256,uint256,uint256,(uint256,uint256,uint256,uint256,uint256,uint256,uint256),bytes,uint256),address,bytes)":"8f20a7f7","failureMode()":"66bd87d3","forceCompleteTransfer(bytes32,bool)":"570d1cde","gasConsumption()":"69430584","getAvailableLiquidity(address,address,uint256,uint256)":"3542284b","getBridgeName()":"b8b2233d","getBridgeStats()":"2165cbb7","getRouteMetrics(address,address,uint256,uint256,uint256)":"15a3d37a","getSuccessRate(uint256,uint256)":"390f4185","getTransfer(bytes32)":"260958a5","getTransferHistory()":"ee0671ae","getTransferLimits(address,uint256,uint256)":"d51aa0cb","isHealthy()":"e4020804","owner()":"8da5cb5b","renounceOwnership()":"715018a6","setArtificialDelay(uint256)":"30bb2ad3","setCustomSlippage(uint256)":"9fea6325","setFailureMode(uint8)":"22c7b619","setGasConsumption(uint256)":"6351ffef","setShouldRevertOnHealthCheck(bool)":"e9afcfd6","shouldReturnStaleData()":"eaf70d78","shouldRevertOnHealthCheck()":"72971f22","simulateCongestion(uint256)":"f1ac5966","successfulTransfers()":"f9e5051a","supportedRoutes(uint256,address)":"11ec0381","supportsRoute(address,address,uint256,uint256)":"e9dd0874","tokenLiquidity(uint256,address)":"43c916c5","totalTransfers()":"3bf47720","totalVolume()":"5f81a57c","transferHistory(uint256)":"816c99de","transferOwnership(address)":"f2fde38b","transfers(bytes32)":"3c64f04b","updateConfig((string,uint256,uint256,uint256,uint256,uint256,uint256,uint256,bool,bool))":"9988bd40","updateLiquidity(uint256,address,uint256)":"2648a3b2"},"storageLayout":{"storage":[{"astId":40138,"contract":"src/mocks/MockBridgeAdapter.sol:MockBridgeAdapter","label":"_owner","offset":0,"slot":"0","type":"t_address"},{"astId":68191,"contract":"src/mocks/MockBridgeAdapter.sol:MockBridgeAdapter","label":"config","offset":0,"slot":"1","type":"t_struct(MockConfig)68178_storage"},{"astId":68196,"contract":"src/mocks/MockBridgeAdapter.sol:MockBridgeAdapter","label":"failureMode","offset":0,"slot":"10","type":"t_enum(FailureMode)68188"},{"astId":68201,"contract":"src/mocks/MockBridgeAdapter.sol:MockBridgeAdapter","label":"transfers","offset":0,"slot":"11","type":"t_mapping(t_bytes32,t_struct(Transfer)67618_storage)"},{"astId":68207,"contract":"src/mocks/MockBridgeAdapter.sol:MockBridgeAdapter","label":"supportedRoutes","offset":0,"slot":"12","type":"t_mapping(t_uint256,t_mapping(t_address,t_bool))"},{"astId":68213,"contract":"src/mocks/MockBridgeAdapter.sol:MockBridgeAdapter","label":"tokenLiquidity","offset":0,"slot":"13","type":"t_mapping(t_uint256,t_mapping(t_address,t_uint256))"},{"astId":68216,"contract":"src/mocks/MockBridgeAdapter.sol:MockBridgeAdapter","label":"transferHistory","offset":0,"slot":"14","type":"t_array(t_bytes32)dyn_storage"},{"astId":68218,"contract":"src/mocks/MockBridgeAdapter.sol:MockBridgeAdapter","label":"totalTransfers","offset":0,"slot":"15","type":"t_uint256"},{"astId":68220,"contract":"src/mocks/MockBridgeAdapter.sol:MockBridgeAdapter","label":"successfulTransfers","offset":0,"slot":"16","type":"t_uint256"},{"astId":68222,"contract":"src/mocks/MockBridgeAdapter.sol:MockBridgeAdapter","label":"totalVolume","offset":0,"slot":"17","type":"t_uint256"},{"astId":68225,"contract":"src/mocks/MockBridgeAdapter.sol:MockBridgeAdapter","label":"artificialDelay","offset":0,"slot":"18","type":"t_uint256"},{"astId":68228,"contract":"src/mocks/MockBridgeAdapter.sol:MockBridgeAdapter","label":"gasConsumption","offset":0,"slot":"19","type":"t_uint256"},{"astId":68231,"contract":"src/mocks/MockBridgeAdapter.sol:MockBridgeAdapter","label":"shouldRevertOnHealthCheck","offset":0,"slot":"20","type":"t_bool"},{"astId":68234,"contract":"src/mocks/MockBridgeAdapter.sol:MockBridgeAdapter","label":"shouldReturnStaleData","offset":1,"slot":"20","type":"t_bool"},{"astId":68237,"contract":"src/mocks/MockBridgeAdapter.sol:MockBridgeAdapter","label":"customSlippage","offset":0,"slot":"21","type":"t_uint256"}],"types":{"t_address":{"encoding":"inplace","label":"address","numberOfBytes":"20"},"t_array(t_bytes32)dyn_storage":{"encoding":"dynamic_array","label":"bytes32[]","numberOfBytes":"32","base":"t_bytes32"},"t_bool":{"encoding":"inplace","label":"bool","numberOfBytes":"1"},"t_bytes32":{"encoding":"inplace","label":"bytes32","numberOfBytes":"32"},"t_bytes_storage":{"encoding":"bytes","label":"bytes","numberOfBytes":"32"},"t_enum(FailureMode)68188":{"encoding":"inplace","label":"enum MockBridgeAdapter.FailureMode","numberOfBytes":"1"},"t_enum(TransferStatus)67600":{"encoding":"inplace","label":"enum IBridgeAdapter.TransferStatus","numberOfBytes":"1"},"t_mapping(t_address,t_bool)":{"encoding":"mapping","key":"t_address","label":"mapping(address => bool)","numberOfBytes":"32","value":"t_bool"},"t_mapping(t_address,t_uint256)":{"encoding":"mapping","key":"t_address","label":"mapping(address => uint256)","numberOfBytes":"32","value":"t_uint256"},"t_mapping(t_bytes32,t_struct(Transfer)67618_storage)":{"encoding":"mapping","key":"t_bytes32","label":"mapping(bytes32 => struct IBridgeAdapter.Transfer)","numberOfBytes":"32","value":"t_struct(Transfer)67618_storage"},"t_mapping(t_uint256,t_mapping(t_address,t_bool))":{"encoding":"mapping","key":"t_uint256","label":"mapping(uint256 => mapping(address => bool))","numberOfBytes":"32","value":"t_mapping(t_address,t_bool)"},"t_mapping(t_uint256,t_mapping(t_address,t_uint256))":{"encoding":"mapping","key":"t_uint256","label":"mapping(uint256 => mapping(address => uint256))","numberOfBytes":"32","value":"t_mapping(t_address,t_uint256)"},"t_string_storage":{"encoding":"bytes","label":"string","numberOfBytes":"32"},"t_struct(MockConfig)68178_storage":{"encoding":"inplace","label":"struct MockBridgeAdapter.MockConfig","numberOfBytes":"288","members":[{"astId":68159,"contract":"src/mocks/MockBridgeAdapter.sol:MockBridgeAdapter","label":"bridgeName","offset":0,"slot":"0","type":"t_string_storage"},{"astId":68161,"contract":"src/mocks/MockBridgeAdapter.sol:MockBridgeAdapter","label":"baseFee","offset":0,"slot":"1","type":"t_uint256"},{"astId":68163,"contract":"src/mocks/MockBridgeAdapter.sol:MockBridgeAdapter","label":"feePercentage","offset":0,"slot":"2","type":"t_uint256"},{"astId":68165,"contract":"src/mocks/MockBridgeAdapter.sol:MockBridgeAdapter","label":"minAmount","offset":0,"slot":"3","type":"t_uint256"},{"astId":68167,"contract":"src/mocks/MockBridgeAdapter.sol:MockBridgeAdapter","label":"maxAmount","offset":0,"slot":"4","type":"t_uint256"},{"astId":68169,"contract":"src/mocks/MockBridgeAdapter.sol:MockBridgeAdapter","label":"completionTime","offset":0,"slot":"5","type":"t_uint256"},{"astId":68171,"contract":"src/mocks/MockBridgeAdapter.sol:MockBridgeAdapter","label":"successRate","offset":0,"slot":"6","type":"t_uint256"},{"astId":68173,"contract":"src/mocks/MockBridgeAdapter.sol:MockBridgeAdapter","label":"liquidityAmount","offset":0,"slot":"7","type":"t_uint256"},{"astId":68175,"contract":"src/mocks/MockBridgeAdapter.sol:MockBridgeAdapter","label":"isHealthy","offset":0,"slot":"8","type":"t_bool"},{"astId":68177,"contract":"src/mocks/MockBridgeAdapter.sol:MockBridgeAdapter","label":"isActive","offset":1,"slot":"8","type":"t_bool"}]},"t_struct(Route)67593_storage":{"encoding":"inplace","label":"struct IBridgeAdapter.Route","numberOfBytes":"512","members":[{"astId":67573,"contract":"src/mocks/MockBridgeAdapter.sol:MockBridgeAdapter","label":"adapter","offset":0,"slot":"0","type":"t_address"},{"astId":67575,"contract":"src/mocks/MockBridgeAdapter.sol:MockBridgeAdapter","label":"tokenIn","offset":0,"slot":"1","type":"t_address"},{"astId":67577,"contract":"src/mocks/MockBridgeAdapter.sol:MockBridgeAdapter","label":"tokenOut","offset":0,"slot":"2","type":"t_address"},{"astId":67579,"contract":"src/mocks/MockBridgeAdapter.sol:MockBridgeAdapter","label":"amountIn","offset":0,"slot":"3","type":"t_uint256"},{"astId":67581,"contract":"src/mocks/MockBridgeAdapter.sol:MockBridgeAdapter","label":"amountOut","offset":0,"slot":"4","type":"t_uint256"},{"astId":67583,"contract":"src/mocks/MockBridgeAdapter.sol:MockBridgeAdapter","label":"srcChainId","offset":0,"slot":"5","type":"t_uint256"},{"astId":67585,"contract":"src/mocks/MockBridgeAdapter.sol:MockBridgeAdapter","label":"dstChainId","offset":0,"slot":"6","type":"t_uint256"},{"astId":67588,"contract":"src/mocks/MockBridgeAdapter.sol:MockBridgeAdapter","label":"metrics","offset":0,"slot":"7","type":"t_struct(RouteMetrics)67570_storage"},{"astId":67590,"contract":"src/mocks/MockBridgeAdapter.sol:MockBridgeAdapter","label":"adapterData","offset":0,"slot":"14","type":"t_bytes_storage"},{"astId":67592,"contract":"src/mocks/MockBridgeAdapter.sol:MockBridgeAdapter","label":"deadline","offset":0,"slot":"15","type":"t_uint256"}]},"t_struct(RouteMetrics)67570_storage":{"encoding":"inplace","label":"struct IBridgeAdapter.RouteMetrics","numberOfBytes":"224","members":[{"astId":67557,"contract":"src/mocks/MockBridgeAdapter.sol:MockBridgeAdapter","label":"estimatedGasCost","offset":0,"slot":"0","type":"t_uint256"},{"astId":67559,"contract":"src/mocks/MockBridgeAdapter.sol:MockBridgeAdapter","label":"bridgeFee","offset":0,"slot":"1","type":"t_uint256"},{"astId":67561,"contract":"src/mocks/MockBridgeAdapter.sol:MockBridgeAdapter","label":"totalCostWei","offset":0,"slot":"2","type":"t_uint256"},{"astId":67563,"contract":"src/mocks/MockBridgeAdapter.sol:MockBridgeAdapter","label":"estimatedTimeMinutes","offset":0,"slot":"3","type":"t_uint256"},{"astId":67565,"contract":"src/mocks/MockBridgeAdapter.sol:MockBridgeAdapter","label":"liquidityAvailable","offset":0,"slot":"4","type":"t_uint256"},{"astId":67567,"contract":"src/mocks/MockBridgeAdapter.sol:MockBridgeAdapter","label":"successRate","offset":0,"slot":"5","type":"t_uint256"},{"astId":67569,"contract":"src/mocks/MockBridgeAdapter.sol:MockBridgeAdapter","label":"congestionLevel","offset":0,"slot":"6","type":"t_uint256"}]},"t_struct(Transfer)67618_storage":{"encoding":"inplace","label":"struct IBridgeAdapter.Transfer","numberOfBytes":"704","members":[{"astId":67603,"contract":"src/mocks/MockBridgeAdapter.sol:MockBridgeAdapter","label":"transferId","offset":0,"slot":"0","type":"t_bytes32"},{"astId":67605,"contract":"src/mocks/MockBridgeAdapter.sol:MockBridgeAdapter","label":"sender","offset":0,"slot":"1","type":"t_address"},{"astId":67607,"contract":"src/mocks/MockBridgeAdapter.sol:MockBridgeAdapter","label":"recipient","offset":0,"slot":"2","type":"t_address"},{"astId":67610,"contract":"src/mocks/MockBridgeAdapter.sol:MockBridgeAdapter","label":"route","offset":0,"slot":"3","type":"t_struct(Route)67593_storage"},{"astId":67613,"contract":"src/mocks/MockBridgeAdapter.sol:MockBridgeAdapter","label":"status","offset":0,"slot":"19","type":"t_enum(TransferStatus)67600"},{"astId":67615,"contract":"src/mocks/MockBridgeAdapter.sol:MockBridgeAdapter","label":"initiatedAt","offset":0,"slot":"20","type":"t_uint256"},{"astId":67617,"contract":"src/mocks/MockBridgeAdapter.sol:MockBridgeAdapter","label":"completedAt","offset":0,"slot":"21","type":"t_uint256"}]},"t_uint256":{"encoding":"inplace","label":"uint256","numberOfBytes":"32"}}},"id":65}