{"abi":[{"type":"constructor","inputs":[{"name":"decimals_","type":"uint8","internalType":"uint8"}],"stateMutability":"nonpayable"},{"type":"function","name":"decimals","inputs":[],"outputs":[{"name":"","type":"uint8","internalType":"uint8"}],"stateMutability":"view"},{"type":"function","name":"description","inputs":[],"outputs":[{"name":"","type":"string","internalType":"string"}],"stateMutability":"pure"},{"type":"function","name":"getRoundData","inputs":[{"name":"_roundId","type":"uint80","internalType":"uint80"}],"outputs":[{"name":"roundId","type":"uint80","internalType":"uint80"},{"name":"answer","type":"int256","internalType":"int256"},{"name":"startedAt","type":"uint256","internalType":"uint256"},{"name":"updatedAt","type":"uint256","internalType":"uint256"},{"name":"answeredInRound","type":"uint80","internalType":"uint80"}],"stateMutability":"view"},{"type":"function","name":"latestRoundData","inputs":[],"outputs":[{"name":"roundId","type":"uint80","internalType":"uint80"},{"name":"answer","type":"int256","internalType":"int256"},{"name":"startedAt","type":"uint256","internalType":"uint256"},{"name":"updatedAt","type":"uint256","internalType":"uint256"},{"name":"answeredInRound","type":"uint80","internalType":"uint80"}],"stateMutability":"view"},{"type":"function","name":"updateAnswer","inputs":[{"name":"answer","type":"int256","internalType":"int256"}],"outputs":[],"stateMutability":"nonpayable"},{"type":"function","name":"version","inputs":[],"outputs":[{"name":"","type":"uint256","internalType":"uint256"}],"stateMutability":"pure"}],"bytecode":{"object":"0x60803461007d57601f61031638819003918201601f19168301916001600160401b038311848410176100815780849260209460405283398101031261007d575160ff811680910361007d575f805460ff191691909117905542600255600380546001600160501b031916600117905560405161028090816100968239f35b5f80fd5b634e487b7160e01b5f52604160045260245ffdfe60806040908082526004361015610014575f80fd5b5f3560e01c908163313ce5671461022e5750806354fd4d50146102135780637284e4161461016c5780639a6fc8f51461010c578063a87a20ce146100b15763feaf968c14610060575f80fd5b346100ad575f3660031901126100ad5760035460015460025492516001600160501b039092168083526020830191909152604082018390526060820192909252608081019190915260a090f35b5f80fd5b346100ad5760203660031901126100ad57600435600155426002556003546001600160501b038082168181146100f85760010116906001600160501b031916176003555f80f35b634e487b7160e01b5f52601160045260245ffd5b50346100ad5760203660031901126100ad576004356001600160501b03811681036100ad5760015460025492516001600160501b03929092168083526020830191909152604082018390526060820192909252608081019190915260a090f35b50346100ad575f3660031901126100ad5780519080820182811067ffffffffffffffff8211176101ff578152600f825260206e135bd8dac8141c9a58d94811995959608a1b60208401528151928391602083528151918260208501525f5b8381106101e95750505f83830185015250601f01601f19168101030190f35b81810183015187820187015286945082016101ca565b634e487b7160e01b5f52604160045260245ffd5b50346100ad575f3660031901126100ad576020905160018152f35b346100ad575f3660031901126100ad5760209060ff5f54168152f3fea2646970667358221220dbc1fa516ef39869a2f790ddc9c4539825e3e8984c150407abda1d88805f581b64736f6c63430008170033","linkReferences":{}},"methodIdentifiers":{"decimals()":"313ce567","description()":"7284e416","getRoundData(uint80)":"9a6fc8f5","latestRoundData()":"feaf968c","updateAnswer(int256)":"a87a20ce","version()":"54fd4d50"},"id":33}