{"abi":[{"type":"constructor","inputs":[{"name":"_ethUsdPriceFeed","type":"address","internalType":"address"},{"name":"_usdcUsdPriceFeed","type":"address","internalType":"address"},{"name":"_owner","type":"address","internalType":"address"}],"stateMutability":"nonpayable"},{"type":"function","name":"BASE_GAS_COST","inputs":[],"outputs":[{"name":"","type":"uint256","internalType":"uint256"}],"stateMutability":"view"},{"type":"function","name":"COST_PRIORITY_MULTIPLIER","inputs":[],"outputs":[{"name":"","type":"uint256","internalType":"uint256"}],"stateMutability":"view"},{"type":"function","name":"MAX_SLIPPAGE_BPS","inputs":[],"outputs":[{"name":"","type":"uint256","internalType":"uint256"}],"stateMutability":"view"},{"type":"function","name":"SPEED_PRIORITY_MULTIPLIER","inputs":[],"outputs":[{"name":"","type":"uint256","internalType":"uint256"}],"stateMutability":"view"},{"type":"function","name":"addBridgeAdapter","inputs":[{"name":"chainId","type":"uint256","internalType":"uint256"},{"name":"adapter","type":"address","internalType":"address"},{"name":"name","type":"string","internalType":"string"},{"name":"gasCost","type":"uint256","internalType":"uint256"}],"outputs":[],"stateMutability":"nonpayable"},{"type":"function","name":"areFeedsHealthy","inputs":[],"outputs":[{"name":"ethOk","type":"bool","internalType":"bool"},{"name":"usdcOk","type":"bool","internalType":"bool"},{"name":"ethUpdatedAt","type":"uint256","internalType":"uint256"},{"name":"usdcUpdatedAt","type":"uint256","internalType":"uint256"}],"stateMutability":"view"},{"type":"function","name":"bridgeAdapterNames","inputs":[{"name":"","type":"address","internalType":"address"}],"outputs":[{"name":"","type":"string","internalType":"string"}],"stateMutability":"view"},{"type":"function","name":"bridgeAdapters","inputs":[{"name":"","type":"uint256","internalType":"uint256"},{"name":"","type":"uint256","internalType":"uint256"}],"outputs":[{"name":"","type":"address","internalType":"address"}],"stateMutability":"view"},{"type":"function","name":"bridgeGasCosts","inputs":[{"name":"","type":"address","internalType":"address"}],"outputs":[{"name":"","type":"uint256","internalType":"uint256"}],"stateMutability":"view"},{"type":"function","name":"emergencyWithdraw","inputs":[{"name":"token","type":"address","internalType":"address"},{"name":"amount","type":"uint256","internalType":"uint256"}],"outputs":[],"stateMutability":"nonpayable"},{"type":"function","name":"ethUsdPriceFeed","inputs":[],"outputs":[{"name":"","type":"address","internalType":"contract AggregatorV3Interface"}],"stateMutability":"view"},{"type":"function","name":"executeSettlement","inputs":[{"name":"recipient","type":"address","internalType":"address"},{"name":"token","type":"address","internalType":"address"},{"name":"amount","type":"uint256","internalType":"uint256"},{"name":"fromChainId","type":"uint256","internalType":"uint256"},{"name":"transactionHash","type":"bytes32","internalType":"bytes32"}],"outputs":[],"stateMutability":"nonpayable"},{"type":"function","name":"getBridgeAdapter","inputs":[{"name":"chainId","type":"uint256","internalType":"uint256"}],"outputs":[{"name":"adapter","type":"address","internalType":"address"}],"stateMutability":"view"},{"type":"function","name":"getBridgeAdapters","inputs":[{"name":"chainId","type":"uint256","internalType":"uint256"}],"outputs":[{"name":"adapters","type":"address[]","internalType":"address[]"}],"stateMutability":"view"},{"type":"function","name":"getCurrentEthPrice","inputs":[],"outputs":[{"name":"price","type":"uint256","internalType":"uint256"}],"stateMutability":"view"},{"type":"function","name":"getCurrentUsdcPrice","inputs":[],"outputs":[{"name":"price","type":"uint256","internalType":"uint256"}],"stateMutability":"view"},{"type":"function","name":"getOptimalPath","inputs":[{"name":"fromToken","type":"address","internalType":"address"},{"name":"toToken","type":"address","internalType":"address"},{"name":"amount","type":"uint256","internalType":"uint256"},{"name":"toChainId","type":"uint256","internalType":"uint256"},{"name":"priority","type":"uint8","internalType":"uint8"}],"outputs":[{"name":"routeInfo","type":"tuple","internalType":"struct StablecoinSwitch.RouteInfo","components":[{"name":"fromToken","type":"address","internalType":"address"},{"name":"toToken","type":"address","internalType":"address"},{"name":"fromChainId","type":"uint256","internalType":"uint256"},{"name":"toChainId","type":"uint256","internalType":"uint256"},{"name":"estimatedCostUsd","type":"uint256","internalType":"uint256"},{"name":"estimatedGasUsd","type":"uint256","internalType":"uint256"},{"name":"bridgeFeeUsd","type":"uint256","internalType":"uint256"},{"name":"estimatedTimeMinutes","type":"uint256","internalType":"uint256"},{"name":"bridgeAdapter","type":"address","internalType":"address"},{"name":"bridgeName","type":"string","internalType":"string"},{"name":"gasEstimate","type":"uint256","internalType":"uint256"}]}],"stateMutability":"view"},{"type":"function","name":"isChainSupported","inputs":[{"name":"chainId","type":"uint256","internalType":"uint256"}],"outputs":[{"name":"isSupported","type":"bool","internalType":"bool"}],"stateMutability":"view"},{"type":"function","name":"isTokenSupported","inputs":[{"name":"token","type":"address","internalType":"address"}],"outputs":[{"name":"isSupported","type":"bool","internalType":"bool"}],"stateMutability":"view"},{"type":"function","name":"maxPriceStalenessSeconds","inputs":[],"outputs":[{"name":"","type":"uint256","internalType":"uint256"}],"stateMutability":"view"},{"type":"function","name":"owner","inputs":[],"outputs":[{"name":"","type":"address","internalType":"address"}],"stateMutability":"view"},{"type":"function","name":"removeBridgeAdapter","inputs":[{"name":"chainId","type":"uint256","internalType":"uint256"},{"name":"adapter","type":"address","internalType":"address"}],"outputs":[],"stateMutability":"nonpayable"},{"type":"function","name":"renounceOwnership","inputs":[],"outputs":[],"stateMutability":"nonpayable"},{"type":"function","name":"routeTransaction","inputs":[{"name":"params","type":"tuple","internalType":"struct StablecoinSwitch.RouteParams","components":[{"name":"fromToken","type":"address","internalType":"address"},{"name":"toToken","type":"address","internalType":"address"},{"name":"amount","type":"uint256","internalType":"uint256"},{"name":"toChainId","type":"uint256","internalType":"uint256"},{"name":"priority","type":"uint8","internalType":"uint8"},{"name":"recipient","type":"address","internalType":"address"},{"name":"minAmountOut","type":"uint256","internalType":"uint256"}]}],"outputs":[{"name":"routeInfo","type":"tuple","internalType":"struct StablecoinSwitch.RouteInfo","components":[{"name":"fromToken","type":"address","internalType":"address"},{"name":"toToken","type":"address","internalType":"address"},{"name":"fromChainId","type":"uint256","internalType":"uint256"},{"name":"toChainId","type":"uint256","internalType":"uint256"},{"name":"estimatedCostUsd","type":"uint256","internalType":"uint256"},{"name":"estimatedGasUsd","type":"uint256","internalType":"uint256"},{"name":"bridgeFeeUsd","type":"uint256","internalType":"uint256"},{"name":"estimatedTimeMinutes","type":"uint256","internalType":"uint256"},{"name":"bridgeAdapter","type":"address","internalType":"address"},{"name":"bridgeName","type":"string","internalType":"string"},{"name":"gasEstimate","type":"uint256","internalType":"uint256"}]}],"stateMutability":"nonpayable"},{"type":"function","name":"setBridgeAdapter","inputs":[{"name":"chainId","type":"uint256","internalType":"uint256"},{"name":"adapter","type":"address","internalType":"address"}],"outputs":[],"stateMutability":"nonpayable"},{"type":"function","name":"setChainSupport","inputs":[{"name":"chainId","type":"uint256","internalType":"uint256"},{"name":"isSupported","type":"bool","internalType":"bool"}],"outputs":[],"stateMutability":"nonpayable"},{"type":"function","name":"setMaxPriceStalenessSeconds","inputs":[{"name":"seconds_","type":"uint256","internalType":"uint256"}],"outputs":[],"stateMutability":"nonpayable"},{"type":"function","name":"setTokenSupport","inputs":[{"name":"token","type":"address","internalType":"address"},{"name":"isSupported","type":"bool","internalType":"bool"}],"outputs":[],"stateMutability":"nonpayable"},{"type":"function","name":"supportedChains","inputs":[{"name":"","type":"uint256","internalType":"uint256"}],"outputs":[{"name":"","type":"bool","internalType":"bool"}],"stateMutability":"view"},{"type":"function","name":"supportedTokens","inputs":[{"name":"","type":"address","internalType":"address"}],"outputs":[{"name":"","type":"bool","internalType":"bool"}],"stateMutability":"view"},{"type":"function","name":"transferOwnership","inputs":[{"name":"newOwner","type":"address","internalType":"address"}],"outputs":[],"stateMutability":"nonpayable"},{"type":"function","name":"updateBridgeGasCost","inputs":[{"name":"adapter","type":"address","internalType":"address"},{"name":"gasCost","type":"uint256","internalType":"uint256"}],"outputs":[],"stateMutability":"nonpayable"},{"type":"function","name":"usdcUsdPriceFeed","inputs":[],"outputs":[{"name":"","type":"address","internalType":"contract AggregatorV3Interface"}],"stateMutability":"view"},{"type":"event","name":"BridgeAdapterSet","inputs":[{"name":"chainId","type":"uint256","indexed":true,"internalType":"uint256"},{"name":"adapter","type":"address","indexed":true,"internalType":"address"},{"name":"isActive","type":"bool","indexed":false,"internalType":"bool"}],"anonymous":false},{"type":"event","name":"ChainSupportUpdated","inputs":[{"name":"chainId","type":"uint256","indexed":true,"internalType":"uint256"},{"name":"isSupported","type":"bool","indexed":false,"internalType":"bool"}],"anonymous":false},{"type":"event","name":"OwnershipTransferred","inputs":[{"name":"previousOwner","type":"address","indexed":true,"internalType":"address"},{"name":"newOwner","type":"address","indexed":true,"internalType":"address"}],"anonymous":false},{"type":"event","name":"SettlementExecuted","inputs":[{"name":"user","type":"address","indexed":true,"internalType":"address"},{"name":"token","type":"address","indexed":true,"internalType":"address"},{"name":"amount","type":"uint256","indexed":false,"internalType":"uint256"},{"name":"fromChainId","type":"uint256","indexed":false,"internalType":"uint256"},{"name":"transactionHash","type":"bytes32","indexed":true,"internalType":"bytes32"}],"anonymous":false},{"type":"event","name":"TokenSupportUpdated","inputs":[{"name":"token","type":"address","indexed":true,"internalType":"address"},{"name":"isSupported","type":"bool","indexed":false,"internalType":"bool"}],"anonymous":false},{"type":"event","name":"TransactionRouted","inputs":[{"name":"user","type":"address","indexed":true,"internalType":"address"},{"name":"fromToken","type":"address","indexed":true,"internalType":"address"},{"name":"toToken","type":"address","indexed":true,"internalType":"address"},{"name":"amount","type":"uint256","indexed":false,"internalType":"uint256"},{"name":"toChainId","type":"uint256","indexed":false,"internalType":"uint256"},{"name":"priority","type":"uint8","indexed":false,"internalType":"uint8"},{"name":"estimatedCostUsd","type":"uint256","indexed":false,"internalType":"uint256"},{"name":"bridgeAdapter","type":"address","indexed":false,"internalType":"address"}],"anonymous":false},{"type":"error","name":"BridgeAdapterNotSet","inputs":[]},{"type":"error","name":"InsufficientAmount","inputs":[]},{"type":"error","name":"InvalidAmount","inputs":[]},{"type":"error","name":"InvalidChain","inputs":[]},{"type":"error","name":"InvalidPriority","inputs":[]},{"type":"error","name":"InvalidRecipient","inputs":[]},{"type":"error","name":"InvalidToken","inputs":[]},{"type":"error","name":"OwnableInvalidOwner","inputs":[{"name":"owner","type":"address","internalType":"address"}]},{"type":"error","name":"OwnableUnauthorizedAccount","inputs":[{"name":"account","type":"address","internalType":"address"}]},{"type":"error","name":"PriceFeedError","inputs":[]},{"type":"error","name":"ReentrancyGuardReentrantCall","inputs":[]},{"type":"error","name":"SafeERC20FailedOperation","inputs":[{"name":"token","type":"address","internalType":"address"}]},{"type":"error","name":"SlippageExceeded","inputs":[]},{"type":"error","name":"TransferFailed","inputs":[]},{"type":"error","name":"UnsupportedChain","inputs":[]},{"type":"error","name":"UnsupportedToken","inputs":[]}],"bytecode":{"object":"0x60c0346200015957601f62001fff38819003918201601f191683019291906001600160401b038411838510176200015d5781606092849260409687528339810103126200015957620000518162000171565b906200006d83620000656020840162000171565b920162000171565b60015f556001600160a01b039081169290919083156200014257600180546001600160a01b03198116861790915585519484929183167f8be0079c531659141344cd1fd0a4f28419497f9722a3daafe3b4186f6b6457e05f80a3610e106002551692831562000133575016908115620001225760805260a05251611e789081620001878239608051818181610de501528181610e9e0152611a56015260a051818181610d7601528181610ee70152611b140152f35b825163c1ab6dc160e01b8152600490fd5b63c1ab6dc160e01b8152600490fd5b8451631e4fbdf760e01b81525f6004820152602490fd5b5f80fd5b634e487b7160e01b5f52604160045260245ffd5b51906001600160a01b0382168203620001595756fe6080604090808252600480361015610015575f80fd5b5f3560e01c918263079766a814611136575081630c6a753f146110a85781631e7d09061461105d5781632ef88fb814610e665781633225667614610e1457816342f6fb2914610dd15781635221c1f014610da5578163548d496f14610da55781635e49ff3914610d625781636877d02f14610c5857816368c4ac2614610ba65781636d8e93ea14610c3d578163715018a614610be257816375151b6314610ba65781637f95730114610af757816380c2741a1461089e5781638430d9ed146107c55781638da5cb5b1461079d5781639125009d1461078157816391fd85c81461073757816395ccea6714610680578163a17bba1f146105cf578163a591a20b1461057a578163b8893009146103a0578163c9347b5614610381578163d39f45611461035e578163d9c1408b14610340578163e229cd7614610324578163e9de7947146102f7578163ec93dee31461026f578163f2fde38b146101e057508063f6d2590a146101c55763fe2140af1461018b575f80fd5b346101c15760203660031901126101c1576020906001600160a01b036101af611150565b165f5260058252805f20549051908152f35b5f80fd5b50346101c1575f3660031901126101c1576020905160648152f35b9050346101c15760203660031901126101c1576101fb611150565b906102046119a4565b6001600160a01b03918216928315610259575050600154826bffffffffffffffffffffffff60a01b821617600155167f8be0079c531659141344cd1fd0a4f28419497f9722a3daafe3b4186f6b6457e05f80a3005b905f6024925191631e4fbdf760e01b8352820152fd5b9050346101c157816003193601126101c15780359161028c61117c565b916102956119a4565b83156102e957507f3867ef478c2fcf9f1d860353178b53a6a5b10cdee0ab40aacda7ca6b38b86d7391602091845f52600783526102e082825f209060ff801983541691151516179055565b519015158152a2005b905163057f3fa760e51b8152fd5b82346101c1573660031901126101c15761032290610313611166565b9061031c6119a4565b3561184b565b005b82346101c1575f3660031901126101c157602090516101f48152f35b82346101c1575f3660031901126101c1576020906002549051908152f35b82346101c1575f3660031901126101c15760209061037a611aff565b9051908152f35b346101c15760203660031901126101c15761039a6119a4565b35600255005b82346101c15760803660031901126101c1578135906103bd611166565b9060443567ffffffffffffffff8082116101c157366023830112156101c157818601359081116101c157602436602483850101116101c1576103fd6119a4565b851561056a576001600160a01b03851696871561055c57865f5261042960209660038852865f20611464565b875f528552835f209261043c8454611285565b601f8111610523575b505f91601f84116001146104a757505f80516020611e2383398151915295949392915f9183610499575b50508160011b915f199060031b1c19161790555b845f5260058252606435815f20555160018152a3005b60249250010135888061046f565b91601f198416855f52875f20935f905b8282106105085750509160019391855f80516020611e238339815191529998979694106104ec575b505050811b019055610483565b01602401355f19600384901b60f8161c191690558880806104df565b909294896001819284898901013581550196019301906104b7565b61054c90855f52875f20601f860160051c810191898710610552575b601f0160051c019061144e565b88610445565b909150819061053f565b845163c1ab6dc160e01b8152fd5b835163057f3fa760e51b81528790fd5b82346101c15760a03660031901126101c157610594611150565b9061059d611166565b9160843560ff811681036101c1576105cb936105c0926064359160443591611538565b9051918291826111f2565b0390f35b82346101c157602091826003193601126101c15780355f5260038352815f209082518081868554928381520180955f52875f20925f5b898282106106615750505061061c9250038261130a565b511580610657576106445750516001600160a01b0316905b516001600160a01b039091168152f35b603290634e487b7160e01b5f525260245ffd5b5050505f90610634565b85546001600160a01b0316845260019586019587955093019201610605565b82346101c157806003193601126101c157610699611150565b602435906106a56119a4565b6001600160a01b039081168061072557505f8080938193600154165af13d15610720573d67ffffffffffffffff811161070d578251906106ef601f8201601f19166020018361130a565b81525f60203d92013e5b1561070057005b516312171d8360e31b8152fd5b604184634e487b7160e01b5f525260245ffd5b6106f9565b919250610322935060015416906119f1565b82346101c15760203660031901126101c1576105cb916001600160a01b0361075d611150565b165f5260205261076e815f2061132c565b90519182916020835260208301906111b4565b82346101c1575f3660031901126101c15760209061037a611a41565b82346101c1575f3660031901126101c15760015490516001600160a01b039091168152602090f35b9050346101c15760a03660031901126101c1576107e0611150565b916107e9611166565b90604435936107f66119d0565b6107fe6119a4565b6001600160a01b0381811693841561088e571693845f52600660205260ff835f2054161561088057851561087257509061085a857f02dab08112a08ed18489211d18d83c81b3d78cd5ee45b5f691033e0fb2b874dd93866119f1565b8051948552606435602086015260843594a460015f55005b825163162908e360e11b8152fd5b825163350b944160e11b8152fd5b8351634e46966960e11b81528690fd5b82346101c15760e03660031901126101c1576108b86114aa565b506108c16119d0565b6001600160a01b0390816108d36114fc565b165f52600660205260ff815f20541615610ae857816108f0611512565b165f52600660205260ff815f20541615610ae857606435805f52600760205260ff825f20541615610ad8576044358015610ac857600160ff610930611528565b1611610ab85760a4358481168091036101c15715610aa85761096b6109536114fc565b838361095d611512565b610965611528565b93611538565b9360c43580610a5e575b508061097f6114fc565b168451966323b872dd60e01b60208901523360248901523060448901528360648901526064885260a088019088821067ffffffffffffffff831117610a4b575085526105cb966109ce91611ba2565b806109d76114fc565b936109e0611512565b906109e9611528565b60ff60808a015191856101008c015116938a519889526020890152168887015260608601526080850152169216907f23a5b50dbb5b9a2c8ca7666f07d6d904bca09aaeaf4f3e624c7ef5c9127660cd60a03392a460015f5551918291826111f2565b604190634e487b7160e01b5f525260245ffd5b600a8302838104600a03610a9557612710610a7a91048461141a565b10610a855786610975565b8351638199f5f360e01b81528690fd5b601188634e487b7160e01b5f525260245ffd5b8251634e46966960e11b81528590fd5b8251630357013b60e51b81528590fd5b825163162908e360e11b81528590fd5b815163d21eab3760e01b81528490fd5b5163350b944160e11b81529050fd5b9050346101c157602090816003193601126101c1578290355f5260038252805f208151928381835491828152019081935f52825f20905f5b818110610b895750505084610b4591038561130a565b825181815293518185018190528493840192915f5b828110610b6957505050500390f35b83516001600160a01b031685528695509381019392810192600101610b5a565b82546001600160a01b031684529284019260019283019201610b2f565b82346101c15760203660031901126101c1576020906001600160a01b03610bcb611150565b165f526006825260ff815f20541690519015158152f35b346101c1575f3660031901126101c157610bfa6119a4565b600180546001600160a01b031981169091555f906001600160a01b03167f8be0079c531659141344cd1fd0a4f28419497f9722a3daafe3b4186f6b6457e08280a3005b82346101c1575f3660031901126101c1576020905160968152f35b82346101c157806003193601126101c157813590610c74611166565b610c7c6119a4565b8215610d5257905f80516020611e2383398151915291835f5260209160038352805f2080545f825580610d39575b50506001600160a01b038216958615159283610cca575b505051908152a3005b610cd990875f52835f20611464565b865f528352805f20610ceb8154611285565b601f8111610d1a575b50600c654c656761637960d01b019055855f526005835262033450815f20558680610cc1565b610d3390825f52601f865f20910160051c81019061144e565b87610cf4565b610d4b915f52845f209081019061144e565b8680610caa565b815163057f3fa760e51b81528490fd5b82346101c1575f3660031901126101c157517f00000000000000000000000000000000000000000000000000000000000000006001600160a01b03168152602090f35b82346101c15760203660031901126101c157602091355f526007825260ff815f20541690519015158152f35b82346101c1575f3660031901126101c157517f00000000000000000000000000000000000000000000000000000000000000006001600160a01b03168152602090f35b9050346101c157816003193601126101c157610e2e611150565b610e366119a4565b6001600160a01b0316908115610e5857505f9081526005602052206024359055005b825163c1ab6dc160e01b8152fd5b9050346101c1575f3660031901126101c1578151633fabe5a360e21b8082526080939092909160a0906001600160a01b0390828185817f000000000000000000000000000000000000000000000000000000000000000086165afa5f905f815f945f93611035575b50610fd45750505050815f955f945b86518094819382527f0000000000000000000000000000000000000000000000000000000000000000165afa5f91815f915f955f94610f9b575b5050610f3e57505050505f915f925b81519415158552151560208501528301526060820152f35b5f90959395139182610f91575b82610f76575b5050610f5d844261141a565b600254101581610f6e575b50610f26565b90505f610f68565b69ffffffffffffffffffff9081169116101590505f80610f51565b8515159250610f4b565b925092509350610fc09250803d10610fcd575b610fb8818361130a565b8101906113e5565b9094909291505f80610f17565b503d610fae565b905f869499939213918261102b575b82611010575b5050610ff5884261141a565b600254101581611008575b509694610edd565b90505f611000565b69ffffffffffffffffffff9081169116101590505f80610fe9565b8915159250610fe3565b92509350506110519150843d8611610fcd57610fb8818361130a565b9094909291505f610ece565b82346101c157806003193601126101c15760243591355f526003602052805f2080548310156101c1576020926110929161118b565b60018060a01b0391549060031b1c169051908152f35b82346101c157806003193601126101c1576110c1611150565b906110ca61117c565b916110d36119a4565b6001600160a01b031692831561112857507fbbe72b7d9dcb594ee398a4a617885aba53d833e2aad601c813ce9df99fdeb49b91602091845f52600683526102e082825f209060ff801983541691151516179055565b905163c1ab6dc160e01b8152fd5b346101c1575f3660031901126101c1578061520860209252f35b600435906001600160a01b03821682036101c157565b602435906001600160a01b03821682036101c157565b6024359081151582036101c157565b80548210156111a0575f5260205f2001905f90565b634e487b7160e01b5f52603260045260245ffd5b91908251928382525f5b8481106111de575050825f602080949584010152601f8019910116010190565b6020818301810151848301820152016111be565b6020815260018060a01b038083511660208301528060208401511660408301526040830151606083015260608301516080830152608083015160a083015260a083015160c083015260c083015160e083015260e08301516101009081840152830151906101209116818301528201516101609061127c6101409183838601526101808501906111b4565b93015191015290565b90600182811c921680156112b3575b602083101461129f57565b634e487b7160e01b5f52602260045260245ffd5b91607f1691611294565b610160810190811067ffffffffffffffff8211176112da57604052565b634e487b7160e01b5f52604160045260245ffd5b6040810190811067ffffffffffffffff8211176112da57604052565b90601f8019910116810190811067ffffffffffffffff8211176112da57604052565b9060405191825f825461133e81611285565b908184526020946001916001811690815f146113ac575060011461136e575b50505061136c9250038361130a565b565b5f90815285812095935091905b81831061139457505061136c93508201015f808061135d565b8554888401850152948501948794509183019161137b565b9250505061136c94925060ff191682840152151560051b8201015f808061135d565b519069ffffffffffffffffffff821682036101c157565b908160a09103126101c1576113f9816113ce565b916020820151916040810151916114176080606084015193016113ce565b90565b9190820391821161142757565b634e487b7160e01b5f52601160045260245ffd5b8181029291811591840414171561142757565b818110611459575050565b5f815560010161144e565b90815491680100000000000000008310156112da578261148c91600161136c9501815561118b565b90919060018060a01b038084549260031b9316831b921b1916179055565b604051906114b7826112bd565b5f610140838281528260208201528260408201528260608201528260808201528260a08201528260c08201528260e08201528261010082015260606101208201520152565b6004356001600160a01b03811681036101c15790565b6024356001600160a01b03811681036101c15790565b60843560ff811681036101c15790565b9491939290926115466114aa565b506001600160a01b0386165f9081526006602052604090205460ff1615611839576001600160a01b0384165f9081526006602052604090205460ff161561183957815f52600760205260ff60405f205416156118275784156118155760ff8116916001831161180357805f52600360205260405f209560405180886020829a549384815201905f5260205f20925f5b8181106117e15750506115ea9250038861130a565b8651156117cf576115f9611a41565b97611602611aff565b5061160b6114aa565b975f19965f5b82518110156117aa57600581901b8301602001516001600160a01b031680156117a15761163c6114aa565b50805f52600560205260405f20548d8115611796575b61166c903a15611788576116673a5b8461143b565b61143b565b6402540be40081818102048114821517156114275788818102048103611427578f938a8f928e818f92611749978f8f9b816116af826116db966116b6950261143b565b5089611c72565b93611780576064905b6116d4826305f5e1006064968794020461143b565b049361143b565b04916116f16116ea8484611b5e565b9186611d60565b93855f52600460205260405f20966040519a61170c8c6112bd565b6001600160a01b039081168c521660208b01524660408b015260608a0152608089015260a088015260c087015260e086015261010085015261132c565b61012083015261014082015261175f8882611b6b565b8a8110611773575b50506001905b01611611565b909b50985060015f611767565b6096906116bf565b6116676404a817c800611661565b620334509150611652565b5060019061176d565b506101008a0151909a506001600160a01b03161597506117cf96505050505050505790565b60405163c98ca87f60e01b8152600490fd5b84546001600160a01b031683526001948501948c9450602090930192016115d5565b604051630357013b60e51b8152600490fd5b60405163162908e360e11b8152600490fd5b60405163d21eab3760e01b8152600490fd5b60405163350b944160e11b8152600490fd5b90811561199257815f52600391602060036020526040805f20945f5b8654808210156119885761187b828961118b565b90546001600160a01b03898116939092909190861b1c821683146118a457505050600101611867565b909198929697505f19968782019182116114275761148c836118c96118d7948761118b565b905490881b1c16918561118b565b8154958615611974575f80516020611e238339815191529601926118fb848461118b565b81939154921b1b1916905555845f5260048252805f2061191b8154611285565b9081611937575b5050845f52600582525f81812055515f8152a3565b5f91601f808211600114611950575050555b5f80611922565b9161196d849293828452878420940160051c84016001850161144e565b5555611949565b634e487b7160e01b5f52603160045260245ffd5b5050505050505050565b60405163057f3fa760e51b8152600490fd5b6001546001600160a01b031633036119b857565b60405163118cdaa760e01b8152336004820152602490fd5b60025f54146119df5760025f55565b604051633ee5aeb560e01b8152600490fd5b60405163a9059cbb60e01b60208201526001600160a01b039092166024830152604480830193909352918152608081019167ffffffffffffffff8311828410176112da5761136c92604052611ba2565b604051633fabe5a360e21b815260a0816004817f00000000000000000000000000000000000000000000000000000000000000006001600160a01b03165afa805f925f92611ad6575b50611aa157604051637dfa876360e01b8152600490fd5b5f821315611ac4578015611ac457611ab9904261141a565b60025410611ac45790565b604051637dfa876360e01b8152600490fd5b909250611af2915060a03d60a011610fcd57610fb8818361130a565b509392505091905f611a8a565b604051633fabe5a360e21b815260a0816004817f00000000000000000000000000000000000000000000000000000000000000006001600160a01b03165afa805f925f92611ad65750611aa157604051637dfa876360e01b8152600490fd5b9190820180921161142757565b9060ff16611b7a576080015190565b60e06080820151910151670de0b6b3a764000090808202918204036114275761141791611b5e565b905f602091828151910182855af115611bfc575f513d611bf357506001600160a01b0381163b155b611bd15750565b604051635274afe760e01b81526001600160a01b039091166004820152602490fd5b60011415611bca565b6040513d5f823e3d90fd5b60405190611c14826112ee565b6008825267417262697472756d60c01b6020830152565b60405190611c38826112ee565b60088252674f7074696d69736d60c01b6020830152565b60405190611c5c826112ee565b60078252662837b63cb3b7b760c91b6020830152565b91906402540be400908181029181830414901517156114275764174876e80091611c9b9161143b565b049060018060a01b03165f526004602052611cb860405f2061132c565b80519060208101918220611cca611c07565b60208151910120145f14611cdd57505090565b80518220611ce9611c2b565b60208151910120145f14611d13575050606e810290808204606e1490151715611427576064900490565b519020611d1e611c4f565b60208151910120145f14611d4657605081029080820460501490151715611427576064900490565b607881029080820460781490151715611427576064900490565b6001600160a01b03165f908152600460205260409020611d7f9061132c565b80519060208101918220611d91611c07565b60208151910120145f14611dc9575050600160ff600f925b160361141757604681029080820460461490151715611427576064900490565b80518220611dd5611c2b565b60208151910120145f14611df1575050600160ff601492611da9565b519020611dfc611c4f565b60208151910120145f14611e1657600160ff600592611da9565b600160ff601e92611da956fe49124b03c32b0ada881a14ddae29b8b92bc7c2835ca69f75f6e7e7712b791c08a2646970667358221220bef2ca6f5ba2bec4edd71fb9609161df2611a8dd6b1767b73341d3bf259fa82564736f6c63430008170033","linkReferences":{}},"methodIdentifiers":{"BASE_GAS_COST()":"079766a8","COST_PRIORITY_MULTIPLIER()":"f6d2590a","MAX_SLIPPAGE_BPS()":"e229cd76","SPEED_PRIORITY_MULTIPLIER()":"6d8e93ea","addBridgeAdapter(uint256,address,string,uint256)":"b8893009","areFeedsHealthy()":"2ef88fb8","bridgeAdapterNames(address)":"91fd85c8","bridgeAdapters(uint256,uint256)":"1e7d0906","bridgeGasCosts(address)":"fe2140af","emergencyWithdraw(address,uint256)":"95ccea67","ethUsdPriceFeed()":"42f6fb29","executeSettlement(address,address,uint256,uint256,bytes32)":"8430d9ed","getBridgeAdapter(uint256)":"a17bba1f","getBridgeAdapters(uint256)":"7f957301","getCurrentEthPrice()":"9125009d","getCurrentUsdcPrice()":"d39f4561","getOptimalPath(address,address,uint256,uint256,uint8)":"a591a20b","isChainSupported(uint256)":"5221c1f0","isTokenSupported(address)":"75151b63","maxPriceStalenessSeconds()":"d9c1408b","owner()":"8da5cb5b","removeBridgeAdapter(uint256,address)":"e9de7947","renounceOwnership()":"715018a6","routeTransaction((address,address,uint256,uint256,uint8,address,uint256))":"80c2741a","setBridgeAdapter(uint256,address)":"6877d02f","setChainSupport(uint256,bool)":"ec93dee3","setMaxPriceStalenessSeconds(uint256)":"c9347b56","setTokenSupport(address,bool)":"0c6a753f","supportedChains(uint256)":"548d496f","supportedTokens(address)":"68c4ac26","transferOwnership(address)":"f2fde38b","updateBridgeGasCost(address,uint256)":"32256676","usdcUsdPriceFeed()":"5e49ff39"},"id":10}