{"abi":[{"type":"constructor","inputs":[{"name":"admin","type":"address","internalType":"address"},{"name":"_treasury","type":"address","internalType":"address"}],"stateMutability":"nonpayable"},{"type":"receive","stateMutability":"payable"},{"type":"function","name":"BASIS_POINTS","inputs":[],"outputs":[{"name":"","type":"uint256","internalType":"uint256"}],"stateMutability":"view"},{"type":"function","name":"DEFAULT_ADMIN_ROLE","inputs":[],"outputs":[{"name":"","type":"bytes32","internalType":"bytes32"}],"stateMutability":"view"},{"type":"function","name":"DEFAULT_BASE_FEE","inputs":[],"outputs":[{"name":"","type":"uint256","internalType":"uint256"}],"stateMutability":"view"},{"type":"function","name":"FEE_MANAGER_ROLE","inputs":[],"outputs":[{"name":"","type":"bytes32","internalType":"bytes32"}],"stateMutability":"view"},{"type":"function","name":"MAX_CONGESTION_MULTIPLIER","inputs":[],"outputs":[{"name":"","type":"uint256","internalType":"uint256"}],"stateMutability":"view"},{"type":"function","name":"MAX_FEE_RATE","inputs":[],"outputs":[{"name":"","type":"uint256","internalType":"uint256"}],"stateMutability":"view"},{"type":"function","name":"TREASURY_ROLE","inputs":[],"outputs":[{"name":"","type":"bytes32","internalType":"bytes32"}],"stateMutability":"view"},{"type":"function","name":"calculateFee","inputs":[{"name":"feeType","type":"string","internalType":"string"},{"name":"amount","type":"uint256","internalType":"uint256"},{"name":"chainId","type":"uint256","internalType":"uint256"},{"name":"payer","type":"address","internalType":"address"}],"outputs":[{"name":"feeAmount","type":"uint256","internalType":"uint256"}],"stateMutability":"view"},{"type":"function","name":"chainFeeParams","inputs":[{"name":"","type":"uint256","internalType":"uint256"}],"outputs":[{"name":"baseGasPrice","type":"uint256","internalType":"uint256"},{"name":"congestionThreshold","type":"uint256","internalType":"uint256"},{"name":"maxMultiplier","type":"uint256","internalType":"uint256"},{"name":"adjustmentSpeed","type":"uint256","internalType":"uint256"},{"name":"lastUpdateBlock","type":"uint256","internalType":"uint256"}],"stateMutability":"view"},{"type":"function","name":"collectFee","inputs":[{"name":"feeType","type":"string","internalType":"string"},{"name":"token","type":"address","internalType":"address"},{"name":"amount","type":"uint256","internalType":"uint256"},{"name":"payer","type":"address","internalType":"address"},{"name":"transferId","type":"bytes32","internalType":"bytes32"}],"outputs":[],"stateMutability":"payable"},{"type":"function","name":"collectedFees","inputs":[{"name":"","type":"address","internalType":"address"}],"outputs":[{"name":"","type":"uint256","internalType":"uint256"}],"stateMutability":"view"},{"type":"function","name":"discountRates","inputs":[{"name":"","type":"address","internalType":"address"}],"outputs":[{"name":"","type":"uint256","internalType":"uint256"}],"stateMutability":"view"},{"type":"function","name":"distributeFees","inputs":[{"name":"token","type":"address","internalType":"address"}],"outputs":[],"stateMutability":"nonpayable"},{"type":"function","name":"distributorList","inputs":[{"name":"","type":"uint256","internalType":"uint256"}],"outputs":[{"name":"","type":"address","internalType":"address"}],"stateMutability":"view"},{"type":"function","name":"emergencyWithdraw","inputs":[{"name":"token","type":"address","internalType":"address"},{"name":"amount","type":"uint256","internalType":"uint256"},{"name":"recipient","type":"address","internalType":"address"}],"outputs":[],"stateMutability":"nonpayable"},{"type":"function","name":"feeExemptions","inputs":[{"name":"","type":"address","internalType":"address"}],"outputs":[{"name":"","type":"bool","internalType":"bool"}],"stateMutability":"view"},{"type":"function","name":"feeHistory","inputs":[{"name":"","type":"uint256","internalType":"uint256"}],"outputs":[{"name":"token","type":"address","internalType":"address"},{"name":"amount","type":"uint256","internalType":"uint256"},{"name":"timestamp","type":"uint256","internalType":"uint256"},{"name":"payer","type":"address","internalType":"address"},{"name":"transferId","type":"bytes32","internalType":"bytes32"},{"name":"feeType","type":"string","internalType":"string"}],"stateMutability":"view"},{"type":"function","name":"feeStructures","inputs":[{"name":"","type":"string","internalType":"string"}],"outputs":[{"name":"baseFeeRate","type":"uint256","internalType":"uint256"},{"name":"minFeeAmount","type":"uint256","internalType":"uint256"},{"name":"maxFeeAmount","type":"uint256","internalType":"uint256"},{"name":"congestionMultiplier","type":"uint256","internalType":"uint256"},{"name":"isActive","type":"bool","internalType":"bool"}],"stateMutability":"view"},{"type":"function","name":"getCollectedFees","inputs":[{"name":"token","type":"address","internalType":"address"}],"outputs":[{"name":"amount","type":"uint256","internalType":"uint256"}],"stateMutability":"view"},{"type":"function","name":"getFeeHistory","inputs":[{"name":"transferId","type":"bytes32","internalType":"bytes32"}],"outputs":[{"name":"records","type":"tuple[]","internalType":"struct FeeManager.FeeRecord[]","components":[{"name":"token","type":"address","internalType":"address"},{"name":"amount","type":"uint256","internalType":"uint256"},{"name":"timestamp","type":"uint256","internalType":"uint256"},{"name":"payer","type":"address","internalType":"address"},{"name":"transferId","type":"bytes32","internalType":"bytes32"},{"name":"feeType","type":"string","internalType":"string"}]}],"stateMutability":"view"},{"type":"function","name":"getRevenueDistribution","inputs":[],"outputs":[{"name":"recipients","type":"address[]","internalType":"address[]"},{"name":"percentages","type":"uint256[]","internalType":"uint256[]"}],"stateMutability":"view"},{"type":"function","name":"getRoleAdmin","inputs":[{"name":"role","type":"bytes32","internalType":"bytes32"}],"outputs":[{"name":"","type":"bytes32","internalType":"bytes32"}],"stateMutability":"view"},{"type":"function","name":"grantRole","inputs":[{"name":"role","type":"bytes32","internalType":"bytes32"},{"name":"account","type":"address","internalType":"address"}],"outputs":[],"stateMutability":"nonpayable"},{"type":"function","name":"hasRole","inputs":[{"name":"role","type":"bytes32","internalType":"bytes32"},{"name":"account","type":"address","internalType":"address"}],"outputs":[{"name":"","type":"bool","internalType":"bool"}],"stateMutability":"view"},{"type":"function","name":"renounceRole","inputs":[{"name":"role","type":"bytes32","internalType":"bytes32"},{"name":"callerConfirmation","type":"address","internalType":"address"}],"outputs":[],"stateMutability":"nonpayable"},{"type":"function","name":"revenueDistributors","inputs":[{"name":"","type":"address","internalType":"address"}],"outputs":[{"name":"recipient","type":"address","internalType":"address"},{"name":"percentage","type":"uint256","internalType":"uint256"},{"name":"isActive","type":"bool","internalType":"bool"}],"stateMutability":"view"},{"type":"function","name":"revokeRole","inputs":[{"name":"role","type":"bytes32","internalType":"bytes32"},{"name":"account","type":"address","internalType":"address"}],"outputs":[],"stateMutability":"nonpayable"},{"type":"function","name":"setDiscountRate","inputs":[{"name":"account","type":"address","internalType":"address"},{"name":"discountRate","type":"uint256","internalType":"uint256"}],"outputs":[],"stateMutability":"nonpayable"},{"type":"function","name":"setFeeExemption","inputs":[{"name":"account","type":"address","internalType":"address"},{"name":"exempt","type":"bool","internalType":"bool"}],"outputs":[],"stateMutability":"nonpayable"},{"type":"function","name":"setRevenueDistribution","inputs":[{"name":"recipient","type":"address","internalType":"address"},{"name":"percentage","type":"uint256","internalType":"uint256"}],"outputs":[],"stateMutability":"nonpayable"},{"type":"function","name":"supportsInterface","inputs":[{"name":"interfaceId","type":"bytes4","internalType":"bytes4"}],"outputs":[{"name":"","type":"bool","internalType":"bool"}],"stateMutability":"view"},{"type":"function","name":"totalFeesCollected","inputs":[],"outputs":[{"name":"","type":"uint256","internalType":"uint256"}],"stateMutability":"view"},{"type":"function","name":"totalFeesDistributed","inputs":[],"outputs":[{"name":"","type":"uint256","internalType":"uint256"}],"stateMutability":"view"},{"type":"function","name":"treasury","inputs":[],"outputs":[{"name":"","type":"address","internalType":"address"}],"stateMutability":"view"},{"type":"function","name":"updateCongestionLevel","inputs":[{"name":"chainId","type":"uint256","internalType":"uint256"},{"name":"congestionLevel","type":"uint256","internalType":"uint256"}],"outputs":[],"stateMutability":"nonpayable"},{"type":"function","name":"updateDynamicFeeParams","inputs":[{"name":"chainId","type":"uint256","internalType":"uint256"},{"name":"params","type":"tuple","internalType":"struct FeeManager.DynamicFeeParams","components":[{"name":"baseGasPrice","type":"uint256","internalType":"uint256"},{"name":"congestionThreshold","type":"uint256","internalType":"uint256"},{"name":"maxMultiplier","type":"uint256","internalType":"uint256"},{"name":"adjustmentSpeed","type":"uint256","internalType":"uint256"},{"name":"lastUpdateBlock","type":"uint256","internalType":"uint256"}]}],"outputs":[],"stateMutability":"nonpayable"},{"type":"function","name":"updateFeeStructure","inputs":[{"name":"feeType","type":"string","internalType":"string"},{"name":"feeStructure","type":"tuple","internalType":"struct FeeManager.FeeStructure","components":[{"name":"baseFeeRate","type":"uint256","internalType":"uint256"},{"name":"minFeeAmount","type":"uint256","internalType":"uint256"},{"name":"maxFeeAmount","type":"uint256","internalType":"uint256"},{"name":"congestionMultiplier","type":"uint256","internalType":"uint256"},{"name":"isActive","type":"bool","internalType":"bool"}]}],"outputs":[],"stateMutability":"nonpayable"},{"type":"function","name":"updateTreasury","inputs":[{"name":"newTreasury","type":"address","internalType":"address"}],"outputs":[],"stateMutability":"nonpayable"},{"type":"event","name":"DiscountRateSet","inputs":[{"name":"account","type":"address","indexed":true,"internalType":"address"},{"name":"discountRate","type":"uint256","indexed":false,"internalType":"uint256"}],"anonymous":false},{"type":"event","name":"DynamicFeeUpdated","inputs":[{"name":"chainId","type":"uint256","indexed":true,"internalType":"uint256"},{"name":"newMultiplier","type":"uint256","indexed":false,"internalType":"uint256"},{"name":"congestionLevel","type":"uint256","indexed":false,"internalType":"uint256"}],"anonymous":false},{"type":"event","name":"FeeCollected","inputs":[{"name":"token","type":"address","indexed":true,"internalType":"address"},{"name":"amount","type":"uint256","indexed":false,"internalType":"uint256"},{"name":"payer","type":"address","indexed":true,"internalType":"address"},{"name":"transferId","type":"bytes32","indexed":true,"internalType":"bytes32"},{"name":"feeType","type":"string","indexed":false,"internalType":"string"}],"anonymous":false},{"type":"event","name":"FeeExemptionGranted","inputs":[{"name":"account","type":"address","indexed":true,"internalType":"address"},{"name":"exempt","type":"bool","indexed":false,"internalType":"bool"}],"anonymous":false},{"type":"event","name":"FeeStructureUpdated","inputs":[{"name":"feeType","type":"string","indexed":true,"internalType":"string"},{"name":"feeStructure","type":"tuple","indexed":false,"internalType":"struct FeeManager.FeeStructure","components":[{"name":"baseFeeRate","type":"uint256","internalType":"uint256"},{"name":"minFeeAmount","type":"uint256","internalType":"uint256"},{"name":"maxFeeAmount","type":"uint256","internalType":"uint256"},{"name":"congestionMultiplier","type":"uint256","internalType":"uint256"},{"name":"isActive","type":"bool","internalType":"bool"}]}],"anonymous":false},{"type":"event","name":"RevenueDistributed","inputs":[{"name":"recipient","type":"address","indexed":true,"internalType":"address"},{"name":"token","type":"address","indexed":true,"internalType":"address"},{"name":"amount","type":"uint256","indexed":false,"internalType":"uint256"}],"anonymous":false},{"type":"event","name":"RoleAdminChanged","inputs":[{"name":"role","type":"bytes32","indexed":true,"internalType":"bytes32"},{"name":"previousAdminRole","type":"bytes32","indexed":true,"internalType":"bytes32"},{"name":"newAdminRole","type":"bytes32","indexed":true,"internalType":"bytes32"}],"anonymous":false},{"type":"event","name":"RoleGranted","inputs":[{"name":"role","type":"bytes32","indexed":true,"internalType":"bytes32"},{"name":"account","type":"address","indexed":true,"internalType":"address"},{"name":"sender","type":"address","indexed":true,"internalType":"address"}],"anonymous":false},{"type":"event","name":"RoleRevoked","inputs":[{"name":"role","type":"bytes32","indexed":true,"internalType":"bytes32"},{"name":"account","type":"address","indexed":true,"internalType":"address"},{"name":"sender","type":"address","indexed":true,"internalType":"address"}],"anonymous":false},{"type":"event","name":"TreasuryUpdated","inputs":[{"name":"oldTreasury","type":"address","indexed":true,"internalType":"address"},{"name":"newTreasury","type":"address","indexed":true,"internalType":"address"}],"anonymous":false},{"type":"error","name":"AccessControlBadConfirmation","inputs":[]},{"type":"error","name":"AccessControlUnauthorizedAccount","inputs":[{"name":"account","type":"address","internalType":"address"},{"name":"neededRole","type":"bytes32","internalType":"bytes32"}]},{"type":"error","name":"DistributionFailed","inputs":[]},{"type":"error","name":"ExcessiveDiscount","inputs":[]},{"type":"error","name":"FeeStructureNotFound","inputs":[]},{"type":"error","name":"InsufficientFeePayment","inputs":[]},{"type":"error","name":"InvalidCongestionLevel","inputs":[]},{"type":"error","name":"InvalidDistribution","inputs":[]},{"type":"error","name":"InvalidFeeRate","inputs":[]},{"type":"error","name":"InvalidRecipient","inputs":[]},{"type":"error","name":"ReentrancyGuardReentrantCall","inputs":[]},{"type":"error","name":"SafeERC20FailedOperation","inputs":[{"name":"token","type":"address","internalType":"address"}]}],"bytecode":{"object":"0x6080346200025a576200275590601f38839003908101601f19168201906001600160401b038211838310176200025e57808391604095869485528339810103126200025a57806200006260206200005a6200024c9462000292565b920162000292565b620000aa600192837f9b779b17422d0df92223018b32b4d1fa46e071723d6817e2486d003becc55f00556200009781620002a7565b50620000a38162000317565b50620003b7565b50600780546001600160a01b0319166001600160a01b039290921691909117905562000151620000d962000272565b600a815260046020820166038d7ea4c680008152868301670de0b6b3a7640000815260608401906107d08252608085019287845260288a51671c1c9bdd1bd8dbdb60c21b81528960088201522095518655518786015551600285015551600384015551151591019060ff801983541691151516179055565b620001d56200015f62000272565b600581526004602082016601c6bf5263400081528683016706f05b59d3b20000815260608401906105dc8252608085019287845260268a516562726964676560d01b81528960068201522095518655518786015551600285015551600384015551151591019060ff801983541691151516179055565b6004620001e162000272565b915f835260208301905f8252858401678ac7230489e8000081526060850191610bb883526080860193818552602389516267617360e81b81528360038201522096518755519086015551600285015551600384015551151591019060ff801983541691151516179055565b516122c39081620004528239f35b5f80fd5b634e487b7160e01b5f52604160045260245ffd5b6040519060a082016001600160401b038111838210176200025e57604052565b51906001600160a01b03821682036200025a57565b6001600160a01b03165f8181525f8051602062002735833981519152602052604090205460ff1662000312575f8181525f805160206200273583398151915260205260408120805460ff191660011790553391905f80516020620027158339815191528180a4600190565b505f90565b6001600160a01b03165f8181527f175e50102ecf9cfc73f21ab2786f3296b7cae96dee56a3f6a84b3c656d591ada60205260409020547f6c0757dc3e6b28b2580c03fd9e96c274acf4f99d91fbec9b418fa1d70604ff1c919060ff16620003b157815f525f60205260405f20815f5260205260405f20600160ff1982541617905533915f80516020620027158339815191525f80a4600190565b50505f90565b6001600160a01b03165f8181527f9e5c930214a7bc8a78d251e617445bcdba028aed2ede5828cc6cd6c8261656f560205260409020547fe1dcbdb91df27212a29bc27177c840cf2f819ecf2187432e1fac86c2dd5dfca9919060ff16620003b157815f525f60205260405f20815f5260205260405f20600160ff1982541617905533915f80516020620027158339815191525f80a460019056fe6080604081815260049182361015610021575b505050361561001f575f80fd5b005b5f3560e01c90816301ffc9a7146114b35750806305db2f41146114795780630d35a167146113ed57806319c0782e1461122e5780631cead9a714610a46578063248a9ca3146112055780632f2ff15d146111dd57806336568abe146111805780633674fd5b146110e757806342e418df146110a65780634b1aa9f21461101b578063551512de14610f8a57806360c6d8ae14610f6c57806361d027b314610f455780636f96a59214610dd8578063751fd17914610d545780637f51bb1f14610cc8578063810ec68f14610c265780638582c91314610c085780638992b26714610bb557806391d1485414610b7157806392f6576e14610b555780639413f25c14610ace578063a064ed7714610a97578063a217fddf14610a7d578063a3daed9914610a46578063b30ddf6914610a2a578063b8183d19146109a7578063c139d8cc14610951578063ceb714cd14610936578063d11a57ec146108fc578063d547741f146108c3578063d7b29bf914610870578063e05fb8a41461065e578063e1f1c4a714610642578063e3234cde14610606578063ef8f3681146104ae5763f8ed607b146101cf5780610012565b346104aa57806003193601126104aa576101e7611746565b602480356101f3611ff4565b6001600160a01b039182841690811561049b576127109485841161048c578493835f526020928960205260ff94895f206002015460ff16158b8115918c86159283159b828d93519261024484611620565b888452602084019a8b528184019e8f52885f526020525f20915116815473ffffffffffffffffffffffffffffffffffffffff191617815560019b8c98518983015551151590600201906102a2919060ff801983541691151516179055565b81610484575b50156103995750505050506005546801000000000000000081101561038657906102da82866102f99401600555611788565b9091906001600160a01b038084549260031b9316831b921b1916179055565b5f935f92600554935b848110610323575050505050501161031657005b51630d16b83360e31b8152fd5b8261032d82611788565b90549060031b1c165f52898452885f2089805161034981611620565b8583541681528460028a85015494858a85015201541615159182910152610373575b508501610302565b61037f90879298611847565b969061036b565b604189634e487b7160e01b5f525260245ffd5b908092939495509161047c575b506103b4575b5050506102f9565b5f835b6103c2575b506103ac565b87600580548084101561047457846103d985611788565b949054600395861b1c16146103f3575050508301836103b7565b919550935f199350919083810190811161046257906102da8a61041861042594611788565b905490891b1c1691611788565b825490811561045157500191869061043c84611788565b81939154921b1b1916905555825f80806103bc565b60318c634e487b7160e01b5f52525ffd5b8260118e634e487b7160e01b5f52525ffd5b5050506103bc565b90505f6103a6565b90505f6102a8565b878751630d16b83360e31b8152fd5b868651634e46966960e11b8152fd5b5f80fd5b5090346104aa575f3660031901126104aa576005546104cc81611f4f565b916104d98451938461163c565b8183526104e582611f4f565b9160209182850191601f198095013684376104ff81611f4f565b9161050c8851938461163c565b81835261051882611f4f565b83860196013687375f5b8281106105a5575050508551958695818701918752518091526060860192905f5b81811061058557505050848203858401525180825290820192915f5b82811061056e57505050500390f35b83518552869550938101939281019260010161055f565b82516001600160a01b031685528897509385019391850191600101610543565b806105b76001929a959698999a611788565b8b6105d4846001600160a01b03809554600395861b1c1692611f67565b526105de83611788565b9054911b1c165f5282875281855f2001546105f98288611f67565b5201979695939297610522565b50346104aa5760203660031901126104aa576020906001600160a01b0361062b611746565b165f52600a825260ff815f20541690519015158152f35b50346104aa575f3660031901126104aa57602090516127108152f35b5090346104aa57602090816003193601126104aa576006545f91803590835b83811061084057506106a661069185611f4f565b9461069e8851968761163c565b808652611f4f565b601f1901855f5b828110610808575050505f915f5b8481106107665787878782519180830181845282518091528484019180868360051b8701019401925f965b8388106106f35786860387f35b90919293948380610755600193603f198b820301875289519060c0906001600160a01b0380845116825285840151868301528884015189830152606090818501511690820152608080840151908201528160a080940151938201520190611721565b9701930197019690939291936106e6565b818361077183611550565b50015414610782575b6001016106bb565b92610800600191896107e0600561079889611550565b508c8451946107a686611604565b6001600160a01b0391828454168752898401549087015260028301549086015260038201541660608501528881015460808501520161165e565b60a08201526107ef828a611f67565b526107fa8189611f67565b50611f41565b93905061077a565b885161081381611604565b5f81525f838201525f8a82015260605f818301525f608083015260a08201528282890101520186906106ad565b828261084b83611550565b5001541461085c575b60010161067d565b93610868600191611f41565b949050610854565b5090346104aa5760203660031901126104aa5760a09181355f526002602052805f208054926001820154926002830154916003840154930154938151958652602086015284015260608301526080820152f35b50346104aa57806003193601126104aa5761001f91356108f760016108e661175c565b93835f525f6020525f200154612049565b6120e7565b50346104aa575f3660031901126104aa57602090517fe1dcbdb91df27212a29bc27177c840cf2f819ecf2187432e1fac86c2dd5dfca98152f35b50346104aa575f3660031901126104aa5760209051600a8152f35b5090346104aa5760203660031901126104aa576060916001600160a01b039182610979611746565b165f52602052805f20918254169160ff60026001830154920154169082519384526020840152151590820152f35b8260a03660031901126104aa57803567ffffffffffffffff81116104aa57610a04916109d5913691016117bd565b6109dd61175c565b906109e6611772565b906109ef61225c565b6109f7611f7b565b6084359260443591611bcb565b60017f9b779b17422d0df92223018b32b4d1fa46e071723d6817e2486d003becc55f0055005b50346104aa575f3660031901126104aa57602090516113888152f35b50346104aa5760203660031901126104aa576020906001600160a01b03610a6b611746565b165f5260038252805f20549051908152f35b50346104aa575f3660031901126104aa57602090515f8152f35b50346104aa5760203660031901126104aa576020906001600160a01b03610abc611746565b165f52600b8252805f20549051908152f35b5090346104aa5760203660031901126104aa57610ae9611746565b91610af261225c565b7fe1dcbdb91df27212a29bc27177c840cf2f819ecf2187432e1fac86c2dd5dfca990815f525f602052805f20335f5260205260ff815f20541615610b3957610a048461196f565b60449350519163e2517d3f60e01b835233908301526024820152fd5b50346104aa575f3660031901126104aa57602090516103e88152f35b50346104aa57806003193601126104aa57602091610b8d61175c565b90355f525f83526001600160a01b03825f2091165f52825260ff815f20541690519015158152f35b50346104aa5760803660031901126104aa5781359167ffffffffffffffff83116104aa57610beb610c01916020943691016117bd565b610bf3611772565b906044359060243590611854565b9051908152f35b50346104aa575f3660031901126104aa576020906009549051908152f35b5090346104aa5760c03660031901126104aa5760a03660231901126104aa57815191610c51836115d4565b6024358352602083016044358152818401606435815260608501916084358352608086019360a4358552610c83611f7b565b611388835111610cb95743855285355f5260026020525f2095518655516001860155516002850155516003840155519101555f80f35b859051630adad23360e31b8152fd5b5090346104aa5760203660031901126104aa57610ce3611746565b90610cec611ff4565b6001600160a01b03809216928315610d475750506007548273ffffffffffffffffffffffffffffffffffffffff19821617600755167f4ab5be82436d353e61ca18726e984e561f5c1cc7c6d38b29d2553c790434705a5f80a3005b51634e46966960e11b8152fd5b50346104aa57806003193601126104aa57610d6d611746565b90602435918215158084036104aa577fbbb8547531e67aef17b194b8b67cf5413f17d1cf902533b515a191fc6ab19fa692610dd16001600160a01b03602094610db4611ff4565b1695865f52600a8552825f209060ff801983541691151516179055565b51908152a2005b5090346104aa5760c03660031901126104aa57803567ffffffffffffffff81116104aa57610e0990369083016117bd565b60a03660231901126104aa57825191610e21836115d4565b60243583526020830193604435855280840160643581526060850192608435845260a4359485151586036104aa5760808701958652610e5e611f7b565b6103e8875111610f3657611388855111610f36578751835110610f365791610f0e84927f1661e395b58f290f2d11a6b38c04e213a09b3922424e06a9a9a4f80a4bfa9386989694610efe60a09997519282519360208181860196610ec381838a611700565b81016001815203019020908a5182558d51600183015586516002830155885160038301558951151591019060ff801983541691151516179055565b8451928392839251928391611700565b81010390209782519551865251602086015251908401525160608301525115156080820152a2005b508251630adad23360e31b8152fd5b50346104aa575f3660031901126104aa576020906001600160a01b03600754169051908152f35b50346104aa575f3660031901126104aa576020906008549051908152f35b5090346104aa5760603660031901126104aa57610fa5611746565b602435916001600160a01b036044358181169390928484036104aa57610fc9611ff4565b841561100d575016806110005750505f8080938193828215610ff7575bf115610fee57005b513d5f823e3d90fd5b506108fc610fe6565b90915061001f935061215a565b8651634e46966960e11b8152fd5b5090346104aa5760203660031901126104aa5780359167ffffffffffffffff83116104aa57611066602061105460a095369086016117bd565b81845193828580945193849201611700565b8101600181520301902080549260018201549260ff6002840154926003850154940154169381519586526020860152840152606083015215156080820152f35b5090346104aa5760203660031901126104aa5735906005548210156104aa576001600160a01b036110d8602093611788565b92905490519260031b1c168152f35b5090346104aa57816003193601126104aa57611101611746565b6024359161110d611f7b565b612710831161115957507f9092504e21dc9d396cb4b7eb2ad394b54ecbdba8cc7250d6e5fd2cee28edb2d2916001600160a01b036020921693845f52600b835281815f205551908152a2005b83517f4c6af77a000000000000000000000000000000000000000000000000000000008152fd5b50346104aa57806003193601126104aa5761119961175c565b90336001600160a01b038316036111b5575061001f91356120e7565b9050517f6697b232000000000000000000000000000000000000000000000000000000008152fd5b50346104aa57806003193601126104aa5761001f913561120060016108e661175c565b61206a565b50346104aa5760203660031901126104aa57602091355f525f82526001815f2001549051908152f35b50346104aa57806003193601126104aa57813590602492833561124f611f7b565b606481116113c557835f526002602052825f20916127106001840154808411611353575b50611290828501946003611288875443611813565b910154611834565b91826127100192836127101161134157838311156112e1575050507f29d8fa7c7cac0273c8b66a330a9b53b0d5229ededc783f7ee18156c80cb81f36949550915b43905582519182526020820152a2005b90919492506127100390612710821161132f57507f29d8fa7c7cac0273c8b66a330a9b53b0d5229ededc783f7ee18156c80cb81f36959650808410611327575b506112d1565b92505f611321565b60118891634e487b7160e01b5f52525ffd5b88601183634e487b7160e01b5f52525ffd5b61136b6113608286611813565b600287015490611834565b8160640391606483116113b3576064146113a15704810180911161138f575f611273565b86601183634e487b7160e01b5f52525ffd5b88601285634e487b7160e01b5f52525ffd5b89601186634e487b7160e01b5f52525ffd5b5090517fe3dad5d2000000000000000000000000000000000000000000000000000000008152fd5b5090346104aa5760203660031901126104aa5780356006548110156104aa5761141861147591611550565b50926001600160a01b0393848154169360018201549561144a600560028501549260038601541693850154940161165e565b938051978897885260208801528601526060850152608084015260c060a084015260c0830190611721565b0390f35b50346104aa575f3660031901126104aa57602090517f6c0757dc3e6b28b2580c03fd9e96c274acf4f99d91fbec9b418fa1d70604ff1c8152f35b83346104aa5760203660031901126104aa5735907fffffffff0000000000000000000000000000000000000000000000000000000082168092036104aa57817f7965db0b0000000000000000000000000000000000000000000000000000000060209314908115611526575b5015158152f35b7f01ffc9a7000000000000000000000000000000000000000000000000000000009150148361151f565b60065481101561158857600690815f52027ff652222313e28459528d920b65115c16c04f3efc82aaedc97be59f3f377c0d3f01905f90565b634e487b7160e01b5f52603260045260245ffd5b90600182811c921680156115ca575b60208310146115b657565b634e487b7160e01b5f52602260045260245ffd5b91607f16916115ab565b60a0810190811067ffffffffffffffff8211176115f057604052565b634e487b7160e01b5f52604160045260245ffd5b60c0810190811067ffffffffffffffff8211176115f057604052565b6060810190811067ffffffffffffffff8211176115f057604052565b90601f8019910116810190811067ffffffffffffffff8211176115f057604052565b9060405191825f82546116708161159c565b908184526020946001916001811690815f146116de57506001146116a0575b50505061169e9250038361163c565b565b5f90815285812095935091905b8183106116c657505061169e93508201015f808061168f565b855488840185015294850194879450918301916116ad565b9250505061169e94925060ff191682840152151560051b8201015f808061168f565b5f5b8381106117115750505f910152565b8181015183820152602001611702565b9060209161173a81518092818552858086019101611700565b601f01601f1916010190565b600435906001600160a01b03821682036104aa57565b602435906001600160a01b03821682036104aa57565b606435906001600160a01b03821682036104aa57565b6005548110156115885760055f527f036b6384b5eca791c62761152d0c79bb0604c104a5fb6f4eb0703f3154bb3db001905f90565b81601f820112156104aa5780359067ffffffffffffffff82116115f057604051926117f2601f8401601f19166020018561163c565b828452602083830101116104aa57815f926020809301838601378301015290565b9190820391821161182057565b634e487b7160e01b5f52601160045260245ffd5b8181029291811591840414171561182057565b9190820180921161182057565b6020611870919493948160405193828580945193849201611700565b8101600181520301902060405193611887856115d4565b815485526001820154936020860194855260ff600460028501549460408901958652600381015460608a01520154161580156080880152611965576001600160a01b031693845f52600a60205260ff60405f205416611965576118f79561191d9361271080988197845190611834565b04925180841061195d575b5051808311611953575b5061191791926121ec565b90611834565b04905f52600b60205260405f20549182611938575b50905090565b61194561194c9383611834565b0490611813565b805f611932565b915061191761190c565b92505f611902565b5050505050505f90565b906001600160a01b03809216805f52600392602060038152604094855f2054928315611bc2575f915f5b600554811015611ad65788836119ae83611788565b905490851b1c16805f5260048752815f2082516119ca81611620565b86825416815260ff6002600184015493848c8501520154161590848215910152611acb576119fb612710918a611834565b049081158015611a14575b505050506001905b01611999565b92969193928a8981611a8e57505084825f92611a84575b5f92839283928392f115611a7a577fe892c32f65273e1958c615dd9fd0eaa040ab9a374d002866bbab6092954bbd208885611a696001978e96611847565b9951908152a39050885f8080611a06565b86513d5f823e3d90fd5b6108fc9250611a2b565b90937fe892c32f65273e1958c615dd9fd0eaa040ab9a374d002866bbab6092954bbd20925095611a6981600198611ac682888a61215a565b611847565b505050600190611a0e565b505090611ae7909492939485611813565b9081158015611b11575b5050509360035f92611b0c9596845252812055600954611847565b600955565b83611b7e575f80808581948660075416908390611b75575bf115611a7a579282611b0c9697936003937fe892c32f65273e1958c615dd9fd0eaa040ab9a374d002866bbab6092954bbd20845f985b60075416928851908152a3929695819450611af1565b506108fc611b29565b509282611b0c969793837fe892c32f65273e1958c615dd9fd0eaa040ab9a374d002866bbab6092954bbd208488611bbd6003985f9b600754168761215a565b611b5f565b50505050509050565b918015611f3a576001600160a01b039182169283611ea857813410611e7e57813411611e4b575b835f5260209260038452604090815f20611c0d858254611847565b9055611c1b84600854611847565b600855815190611c2a82611604565b8682528582019185835283810142815282606083019a16998a815260808301908c825260a084019588875260065495680100000000000000008710156115f057611c7b600197888101600655611550565b959095611e38578160059751169273ffffffffffffffffffffffffffffffffffffffff199384885416178755518887015551600286015560038501925116908254161790555160048201550191519081519167ffffffffffffffff83116115f057611ce6845461159c565b601f8111611df2575b508790601f8411600114611d675792807f4cf5f3f496e551fa7650869938901b598e39d3079cfd3e1e08127e5ef8cd182b99989795938193611d5798965f94611d5c575b50501b915f199060031b1c19161790555b8080519586958652850152830190611721565b0390a4565b015192505f80611d33565b90601f93929319831691855f52895f20925f5b818110611ddd575091611d5797959391857f4cf5f3f496e551fa7650869938901b598e39d3079cfd3e1e08127e5ef8cd182b9c9b9a98969410611dc5575b505050811b019055611d44565b01515f1960f88460031b161c191690555f8080611db8565b82840151855593860193928b01928b01611d7a565b845f52885f20601f850160051c8101918a8610611e2e575b601f0160051c019083905b828110611e23575050611cef565b5f8155018390611e15565b9091508190611e0a565b634e487b7160e01b5f525f60045260245ffd5b5f808080611e598634611813565b818115611e75575b888b1690f1611bf2576040513d5f823e3d90fd5b506108fc611e61565b60046040517f903fbf46000000000000000000000000000000000000000000000000000000008152fd5b6040517f23b872dd000000000000000000000000000000000000000000000000000000005f52838616600452306024528260445260205f60648180895af160015f5114811615611f1b575b816040525f60605215611f065750611bf2565b8085635274afe760e01b602493526004820152fd5b6001811516611f3157853b15153d151616611ef3565b503d5f823e3d90fd5b5050505050565b5f1981146118205760010190565b67ffffffffffffffff81116115f05760051b60200190565b80518210156115885760209160051b010190565b335f9081527f175e50102ecf9cfc73f21ab2786f3296b7cae96dee56a3f6a84b3c656d591ada60205260409020547f6c0757dc3e6b28b2580c03fd9e96c274acf4f99d91fbec9b418fa1d70604ff1c9060ff1615611fd65750565b6044906040519063e2517d3f60e01b82523360048301526024820152fd5b335f9081527fad3228b676f7d3cd4284a5443f17f1962b36e491b30a40b2405849e597ba5fb5602052604090205460ff161561202c57565b604460405163e2517d3f60e01b81523360048201525f6024820152fd5b805f525f60205260405f20335f5260205260ff60405f20541615611fd65750565b90815f525f6020526001600160a01b0360405f20911690815f5260205260ff60405f205416155f146120e157815f525f60205260405f20815f5260205260405f20600160ff1982541617905533917f2f8788117e7eff1d82e926ec794901d17c78024a50270940304540a733656f0d5f80a4600190565b50505f90565b90815f525f6020526001600160a01b0360405f20911690815f5260205260ff60405f2054165f146120e157815f525f60205260405f20815f5260205260405f2060ff19815416905533917ff6391f5c32d9c69d2a47ea670b442974b53935d1edc7fd64eb21e047a839171b5f80a4600190565b604051927fa9059cbb000000000000000000000000000000000000000000000000000000005f526001600160a01b0380931660045260245260205f60448180855af160015f51148116156121cd575b83604052156121b757505050565b60249350635274afe760e01b8352166004820152fd5b60018115166121e357813b15153d1516166121a9565b833d5f823e3d90fd5b906060915f52600260205260405f20604051612207816115d4565b60806004835493848452600181015460208501526002810154604085015260038101548785015201549101521561224a5701516127109081018091116118205790565b01516127109081018091116118205790565b7f9b779b17422d0df92223018b32b4d1fa46e071723d6817e2486d003becc55f00600281541461228c5760029055565b60046040517f3ee5aeb5000000000000000000000000000000000000000000000000000000008152fdfea164736f6c6343000818000a2f8788117e7eff1d82e926ec794901d17c78024a50270940304540a733656f0dad3228b676f7d3cd4284a5443f17f1962b36e491b30a40b2405849e597ba5fb5","linkReferences":{}},"methodIdentifiers":{"BASIS_POINTS()":"e1f1c4a7","DEFAULT_ADMIN_ROLE()":"a217fddf","DEFAULT_BASE_FEE()":"ceb714cd","FEE_MANAGER_ROLE()":"05db2f41","MAX_CONGESTION_MULTIPLIER()":"b30ddf69","MAX_FEE_RATE()":"92f6576e","TREASURY_ROLE()":"d11a57ec","calculateFee(string,uint256,uint256,address)":"8992b267","chainFeeParams(uint256)":"d7b29bf9","collectFee(string,address,uint256,address,bytes32)":"b8183d19","collectedFees(address)":"1cead9a7","discountRates(address)":"a064ed77","distributeFees(address)":"9413f25c","distributorList(uint256)":"42e418df","emergencyWithdraw(address,uint256,address)":"551512de","feeExemptions(address)":"e3234cde","feeHistory(uint256)":"0d35a167","feeStructures(string)":"4b1aa9f2","getCollectedFees(address)":"a3daed99","getFeeHistory(bytes32)":"e05fb8a4","getRevenueDistribution()":"ef8f3681","getRoleAdmin(bytes32)":"248a9ca3","grantRole(bytes32,address)":"2f2ff15d","hasRole(bytes32,address)":"91d14854","renounceRole(bytes32,address)":"36568abe","revenueDistributors(address)":"c139d8cc","revokeRole(bytes32,address)":"d547741f","setDiscountRate(address,uint256)":"3674fd5b","setFeeExemption(address,bool)":"751fd179","setRevenueDistribution(address,uint256)":"f8ed607b","supportsInterface(bytes4)":"01ffc9a7","totalFeesCollected()":"60c6d8ae","totalFeesDistributed()":"8582c913","treasury()":"61d027b3","updateCongestionLevel(uint256,uint256)":"19c0782e","updateDynamicFeeParams(uint256,(uint256,uint256,uint256,uint256,uint256))":"810ec68f","updateFeeStructure(string,(uint256,uint256,uint256,uint256,bool))":"6f96a592","updateTreasury(address)":"7f51bb1f"},"storageLayout":{"storage":[{"astId":39777,"contract":"src/core/FeeManager.sol:FeeManager","label":"_roles","offset":0,"slot":"0","type":"t_mapping(t_bytes32,t_struct(RoleData)39772_storage)"},{"astId":62349,"contract":"src/core/FeeManager.sol:FeeManager","label":"feeStructures","offset":0,"slot":"1","type":"t_mapping(t_string_memory_ptr,t_struct(FeeStructure)62301_storage)"},{"astId":62354,"contract":"src/core/FeeManager.sol:FeeManager","label":"chainFeeParams","offset":0,"slot":"2","type":"t_mapping(t_uint256,t_struct(DynamicFeeParams)62319_storage)"},{"astId":62358,"contract":"src/core/FeeManager.sol:FeeManager","label":"collectedFees","offset":0,"slot":"3","type":"t_mapping(t_address,t_uint256)"},{"astId":62363,"contract":"src/core/FeeManager.sol:FeeManager","label":"revenueDistributors","offset":0,"slot":"4","type":"t_mapping(t_address,t_struct(RevenueDistribution)62308_storage)"},{"astId":62366,"contract":"src/core/FeeManager.sol:FeeManager","label":"distributorList","offset":0,"slot":"5","type":"t_array(t_address)dyn_storage"},{"astId":62370,"contract":"src/core/FeeManager.sol:FeeManager","label":"feeHistory","offset":0,"slot":"6","type":"t_array(t_struct(FeeRecord)62332_storage)dyn_storage"},{"astId":62372,"contract":"src/core/FeeManager.sol:FeeManager","label":"treasury","offset":0,"slot":"7","type":"t_address"},{"astId":62374,"contract":"src/core/FeeManager.sol:FeeManager","label":"totalFeesCollected","offset":0,"slot":"8","type":"t_uint256"},{"astId":62376,"contract":"src/core/FeeManager.sol:FeeManager","label":"totalFeesDistributed","offset":0,"slot":"9","type":"t_uint256"},{"astId":62380,"contract":"src/core/FeeManager.sol:FeeManager","label":"feeExemptions","offset":0,"slot":"10","type":"t_mapping(t_address,t_bool)"},{"astId":62384,"contract":"src/core/FeeManager.sol:FeeManager","label":"discountRates","offset":0,"slot":"11","type":"t_mapping(t_address,t_uint256)"}],"types":{"t_address":{"encoding":"inplace","label":"address","numberOfBytes":"20"},"t_array(t_address)dyn_storage":{"encoding":"dynamic_array","label":"address[]","numberOfBytes":"32","base":"t_address"},"t_array(t_struct(FeeRecord)62332_storage)dyn_storage":{"encoding":"dynamic_array","label":"struct FeeManager.FeeRecord[]","numberOfBytes":"32","base":"t_struct(FeeRecord)62332_storage"},"t_bool":{"encoding":"inplace","label":"bool","numberOfBytes":"1"},"t_bytes32":{"encoding":"inplace","label":"bytes32","numberOfBytes":"32"},"t_mapping(t_address,t_bool)":{"encoding":"mapping","key":"t_address","label":"mapping(address => bool)","numberOfBytes":"32","value":"t_bool"},"t_mapping(t_address,t_struct(RevenueDistribution)62308_storage)":{"encoding":"mapping","key":"t_address","label":"mapping(address => struct FeeManager.RevenueDistribution)","numberOfBytes":"32","value":"t_struct(RevenueDistribution)62308_storage"},"t_mapping(t_address,t_uint256)":{"encoding":"mapping","key":"t_address","label":"mapping(address => uint256)","numberOfBytes":"32","value":"t_uint256"},"t_mapping(t_bytes32,t_struct(RoleData)39772_storage)":{"encoding":"mapping","key":"t_bytes32","label":"mapping(bytes32 => struct AccessControl.RoleData)","numberOfBytes":"32","value":"t_struct(RoleData)39772_storage"},"t_mapping(t_string_memory_ptr,t_struct(FeeStructure)62301_storage)":{"encoding":"mapping","key":"t_string_memory_ptr","label":"mapping(string => struct FeeManager.FeeStructure)","numberOfBytes":"32","value":"t_struct(FeeStructure)62301_storage"},"t_mapping(t_uint256,t_struct(DynamicFeeParams)62319_storage)":{"encoding":"mapping","key":"t_uint256","label":"mapping(uint256 => struct FeeManager.DynamicFeeParams)","numberOfBytes":"32","value":"t_struct(DynamicFeeParams)62319_storage"},"t_string_memory_ptr":{"encoding":"bytes","label":"string","numberOfBytes":"32"},"t_string_storage":{"encoding":"bytes","label":"string","numberOfBytes":"32"},"t_struct(DynamicFeeParams)62319_storage":{"encoding":"inplace","label":"struct FeeManager.DynamicFeeParams","numberOfBytes":"160","members":[{"astId":62310,"contract":"src/core/FeeManager.sol:FeeManager","label":"baseGasPrice","offset":0,"slot":"0","type":"t_uint256"},{"astId":62312,"contract":"src/core/FeeManager.sol:FeeManager","label":"congestionThreshold","offset":0,"slot":"1","type":"t_uint256"},{"astId":62314,"contract":"src/core/FeeManager.sol:FeeManager","label":"maxMultiplier","offset":0,"slot":"2","type":"t_uint256"},{"astId":62316,"contract":"src/core/FeeManager.sol:FeeManager","label":"adjustmentSpeed","offset":0,"slot":"3","type":"t_uint256"},{"astId":62318,"contract":"src/core/FeeManager.sol:FeeManager","label":"lastUpdateBlock","offset":0,"slot":"4","type":"t_uint256"}]},"t_struct(FeeRecord)62332_storage":{"encoding":"inplace","label":"struct FeeManager.FeeRecord","numberOfBytes":"192","members":[{"astId":62321,"contract":"src/core/FeeManager.sol:FeeManager","label":"token","offset":0,"slot":"0","type":"t_address"},{"astId":62323,"contract":"src/core/FeeManager.sol:FeeManager","label":"amount","offset":0,"slot":"1","type":"t_uint256"},{"astId":62325,"contract":"src/core/FeeManager.sol:FeeManager","label":"timestamp","offset":0,"slot":"2","type":"t_uint256"},{"astId":62327,"contract":"src/core/FeeManager.sol:FeeManager","label":"payer","offset":0,"slot":"3","type":"t_address"},{"astId":62329,"contract":"src/core/FeeManager.sol:FeeManager","label":"transferId","offset":0,"slot":"4","type":"t_bytes32"},{"astId":62331,"contract":"src/core/FeeManager.sol:FeeManager","label":"feeType","offset":0,"slot":"5","type":"t_string_storage"}]},"t_struct(FeeStructure)62301_storage":{"encoding":"inplace","label":"struct FeeManager.FeeStructure","numberOfBytes":"160","members":[{"astId":62292,"contract":"src/core/FeeManager.sol:FeeManager","label":"baseFeeRate","offset":0,"slot":"0","type":"t_uint256"},{"astId":62294,"contract":"src/core/FeeManager.sol:FeeManager","label":"minFeeAmount","offset":0,"slot":"1","type":"t_uint256"},{"astId":62296,"contract":"src/core/FeeManager.sol:FeeManager","label":"maxFeeAmount","offset":0,"slot":"2","type":"t_uint256"},{"astId":62298,"contract":"src/core/FeeManager.sol:FeeManager","label":"congestionMultiplier","offset":0,"slot":"3","type":"t_uint256"},{"astId":62300,"contract":"src/core/FeeManager.sol:FeeManager","label":"isActive","offset":0,"slot":"4","type":"t_bool"}]},"t_struct(RevenueDistribution)62308_storage":{"encoding":"inplace","label":"struct FeeManager.RevenueDistribution","numberOfBytes":"96","members":[{"astId":62303,"contract":"src/core/FeeManager.sol:FeeManager","label":"recipient","offset":0,"slot":"0","type":"t_address"},{"astId":62305,"contract":"src/core/FeeManager.sol:FeeManager","label":"percentage","offset":0,"slot":"1","type":"t_uint256"},{"astId":62307,"contract":"src/core/FeeManager.sol:FeeManager","label":"isActive","offset":0,"slot":"2","type":"t_bool"}]},"t_struct(RoleData)39772_storage":{"encoding":"inplace","label":"struct AccessControl.RoleData","numberOfBytes":"64","members":[{"astId":39769,"contract":"src/core/FeeManager.sol:FeeManager","label":"hasRole","offset":0,"slot":"0","type":"t_mapping(t_address,t_bool)"},{"astId":39771,"contract":"src/core/FeeManager.sol:FeeManager","label":"adminRole","offset":0,"slot":"1","type":"t_bytes32"}]},"t_uint256":{"encoding":"inplace","label":"uint256","numberOfBytes":"32"}}},"id":60}