{"abi":[{"type":"constructor","inputs":[{"name":"_owner","type":"address","internalType":"address"},{"name":"_emergencyContact","type":"address","internalType":"address"}],"stateMutability":"nonpayable"},{"type":"function","name":"BASE_RETRY_DELAY","inputs":[],"outputs":[{"name":"","type":"uint256","internalType":"uint256"}],"stateMutability":"view"},{"type":"function","name":"CIRCUIT_BREAKER_COOLDOWN","inputs":[],"outputs":[{"name":"","type":"uint256","internalType":"uint256"}],"stateMutability":"view"},{"type":"function","name":"CIRCUIT_BREAKER_THRESHOLD","inputs":[],"outputs":[{"name":"","type":"uint256","internalType":"uint256"}],"stateMutability":"view"},{"type":"function","name":"CONGESTION_THRESHOLD","inputs":[],"outputs":[{"name":"","type":"uint256","internalType":"uint256"}],"stateMutability":"view"},{"type":"function","name":"CRITICAL_GAS_THRESHOLD","inputs":[],"outputs":[{"name":"","type":"uint256","internalType":"uint256"}],"stateMutability":"view"},{"type":"function","name":"MAX_RETRY_ATTEMPTS","inputs":[],"outputs":[{"name":"","type":"uint256","internalType":"uint256"}],"stateMutability":"view"},{"type":"function","name":"MAX_RETRY_DELAY","inputs":[],"outputs":[{"name":"","type":"uint256","internalType":"uint256"}],"stateMutability":"view"},{"type":"function","name":"MAX_TRANSACTION_VALUE","inputs":[],"outputs":[{"name":"","type":"uint256","internalType":"uint256"}],"stateMutability":"view"},{"type":"function","name":"MIN_BALANCE_THRESHOLD","inputs":[],"outputs":[{"name":"","type":"uint256","internalType":"uint256"}],"stateMutability":"view"},{"type":"function","name":"addAuthorizedResolver","inputs":[{"name":"resolver","type":"address","internalType":"address"}],"outputs":[],"stateMutability":"nonpayable"},{"type":"function","name":"addToBlacklist","inputs":[{"name":"user","type":"address","internalType":"address"}],"outputs":[],"stateMutability":"nonpayable"},{"type":"function","name":"attemptRecovery","inputs":[{"name":"txHash","type":"bytes32","internalType":"bytes32"},{"name":"recoveryParams","type":"tuple","internalType":"struct BridgeErrorHandler.RecoveryParams","components":[{"name":"maxRetries","type":"uint256","internalType":"uint256"},{"name":"retryDelay","type":"uint256","internalType":"uint256"},{"name":"gasMultiplier","type":"uint256","internalType":"uint256"},{"name":"requireManualApproval","type":"bool","internalType":"bool"}]}],"outputs":[{"name":"success","type":"bool","internalType":"bool"}],"stateMutability":"nonpayable"},{"type":"function","name":"authorizedResolvers","inputs":[{"name":"","type":"address","internalType":"address"}],"outputs":[{"name":"","type":"bool","internalType":"bool"}],"stateMutability":"view"},{"type":"function","name":"blacklistedAddresses","inputs":[{"name":"","type":"address","internalType":"address"}],"outputs":[{"name":"","type":"bool","internalType":"bool"}],"stateMutability":"view"},{"type":"function","name":"checkOperationAllowed","inputs":[{"name":"user","type":"address","internalType":"address"},{"name":"value","type":"uint256","internalType":"uint256"},{"name":"gasPrice","type":"uint256","internalType":"uint256"}],"outputs":[{"name":"allowed","type":"bool","internalType":"bool"},{"name":"reason","type":"string","internalType":"string"}],"stateMutability":"view"},{"type":"function","name":"circuitBreakerStatus","inputs":[],"outputs":[{"name":"isTripped","type":"bool","internalType":"bool"},{"name":"tripTimestamp","type":"uint256","internalType":"uint256"},{"name":"failureCount","type":"uint256","internalType":"uint256"},{"name":"lastResetAttempt","type":"uint256","internalType":"uint256"},{"name":"autoResetEnabled","type":"bool","internalType":"bool"}],"stateMutability":"view"},{"type":"function","name":"currentNetworkStatus","inputs":[],"outputs":[{"name":"congestionLevel","type":"uint8","internalType":"enum BridgeErrorHandler.CongestionLevel"},{"name":"averageGasPrice","type":"uint256","internalType":"uint256"},{"name":"blockUtilization","type":"uint256","internalType":"uint256"},{"name":"lastUpdate","type":"uint256","internalType":"uint256"},{"name":"isHealthy","type":"bool","internalType":"bool"}],"stateMutability":"view"},{"type":"function","name":"emergencyContact","inputs":[],"outputs":[{"name":"","type":"address","internalType":"address"}],"stateMutability":"view"},{"type":"function","name":"errorTypeCounts","inputs":[{"name":"","type":"uint8","internalType":"enum BridgeErrorHandler.ErrorType"}],"outputs":[{"name":"","type":"uint256","internalType":"uint256"}],"stateMutability":"view"},{"type":"function","name":"getErrorStatistics","inputs":[],"outputs":[{"name":"totalErrorCount","type":"uint256","internalType":"uint256"},{"name":"errorsByType","type":"uint256[12]","internalType":"uint256[12]"},{"name":"networkHealth","type":"bool","internalType":"bool"}],"stateMutability":"view"},{"type":"function","name":"lastNetworkUpdate","inputs":[],"outputs":[{"name":"","type":"uint256","internalType":"uint256"}],"stateMutability":"view"},{"type":"function","name":"owner","inputs":[],"outputs":[{"name":"","type":"address","internalType":"address"}],"stateMutability":"view"},{"type":"function","name":"pause","inputs":[],"outputs":[],"stateMutability":"nonpayable"},{"type":"function","name":"paused","inputs":[],"outputs":[{"name":"","type":"bool","internalType":"bool"}],"stateMutability":"view"},{"type":"function","name":"rateLimits","inputs":[{"name":"","type":"address","internalType":"address"}],"outputs":[{"name":"requestCount","type":"uint256","internalType":"uint256"},{"name":"windowStart","type":"uint256","internalType":"uint256"},{"name":"isLimited","type":"bool","internalType":"bool"},{"name":"limitExpiry","type":"uint256","internalType":"uint256"}],"stateMutability":"view"},{"type":"function","name":"recordError","inputs":[{"name":"txHash","type":"bytes32","internalType":"bytes32"},{"name":"user","type":"address","internalType":"address"},{"name":"errorType","type":"uint8","internalType":"enum BridgeErrorHandler.ErrorType"},{"name":"errorMessage","type":"string","internalType":"string"},{"name":"gasUsed","type":"uint256","internalType":"uint256"}],"outputs":[],"stateMutability":"nonpayable"},{"type":"function","name":"removeAuthorizedResolver","inputs":[{"name":"resolver","type":"address","internalType":"address"}],"outputs":[],"stateMutability":"nonpayable"},{"type":"function","name":"removeFromBlacklist","inputs":[{"name":"user","type":"address","internalType":"address"}],"outputs":[],"stateMutability":"nonpayable"},{"type":"function","name":"renounceOwnership","inputs":[],"outputs":[],"stateMutability":"nonpayable"},{"type":"function","name":"resetCircuitBreaker","inputs":[{"name":"reason","type":"string","internalType":"string"}],"outputs":[],"stateMutability":"nonpayable"},{"type":"function","name":"resolveError","inputs":[{"name":"txHash","type":"bytes32","internalType":"bytes32"},{"name":"resolution","type":"string","internalType":"string"}],"outputs":[],"stateMutability":"nonpayable"},{"type":"function","name":"setEmergencyContact","inputs":[{"name":"newEmergencyContact","type":"address","internalType":"address"}],"outputs":[],"stateMutability":"nonpayable"},{"type":"function","name":"totalErrors","inputs":[],"outputs":[{"name":"","type":"uint256","internalType":"uint256"}],"stateMutability":"view"},{"type":"function","name":"transactionErrors","inputs":[{"name":"","type":"bytes32","internalType":"bytes32"}],"outputs":[{"name":"errorType","type":"uint8","internalType":"enum BridgeErrorHandler.ErrorType"},{"name":"timestamp","type":"uint256","internalType":"uint256"},{"name":"retryCount","type":"uint256","internalType":"uint256"},{"name":"lastRetryTimestamp","type":"uint256","internalType":"uint256"},{"name":"resolved","type":"bool","internalType":"bool"},{"name":"errorMessage","type":"string","internalType":"string"},{"name":"gasUsed","type":"uint256","internalType":"uint256"},{"name":"gasPrice","type":"uint256","internalType":"uint256"},{"name":"blockNumber","type":"uint256","internalType":"uint256"},{"name":"severity","type":"uint8","internalType":"enum BridgeErrorHandler.ErrorSeverity"}],"stateMutability":"view"},{"type":"function","name":"transferOwnership","inputs":[{"name":"newOwner","type":"address","internalType":"address"}],"outputs":[],"stateMutability":"nonpayable"},{"type":"function","name":"unpause","inputs":[],"outputs":[],"stateMutability":"nonpayable"},{"type":"function","name":"updateNetworkStatus","inputs":[{"name":"congestionLevel","type":"uint8","internalType":"enum BridgeErrorHandler.CongestionLevel"},{"name":"averageGasPrice","type":"uint256","internalType":"uint256"},{"name":"blockUtilization","type":"uint256","internalType":"uint256"}],"outputs":[],"stateMutability":"nonpayable"},{"type":"function","name":"userFailureCounts","inputs":[{"name":"","type":"address","internalType":"address"}],"outputs":[{"name":"","type":"uint256","internalType":"uint256"}],"stateMutability":"view"},{"type":"event","name":"CircuitBreakerReset","inputs":[{"name":"resetBy","type":"address","indexed":true,"internalType":"address"},{"name":"resetReason","type":"string","indexed":false,"internalType":"string"}],"anonymous":false},{"type":"event","name":"CircuitBreakerTriggered","inputs":[{"name":"triggerReason","type":"string","indexed":false,"internalType":"string"},{"name":"failureCount","type":"uint256","indexed":false,"internalType":"uint256"},{"name":"cooldownPeriod","type":"uint256","indexed":false,"internalType":"uint256"}],"anonymous":false},{"type":"event","name":"ErrorRecorded","inputs":[{"name":"txHash","type":"bytes32","indexed":true,"internalType":"bytes32"},{"name":"user","type":"address","indexed":true,"internalType":"address"},{"name":"errorType","type":"uint8","indexed":true,"internalType":"enum BridgeErrorHandler.ErrorType"},{"name":"severity","type":"uint8","indexed":false,"internalType":"enum BridgeErrorHandler.ErrorSeverity"},{"name":"message","type":"string","indexed":false,"internalType":"string"}],"anonymous":false},{"type":"event","name":"ErrorResolved","inputs":[{"name":"txHash","type":"bytes32","indexed":true,"internalType":"bytes32"},{"name":"resolver","type":"address","indexed":true,"internalType":"address"},{"name":"resolution","type":"string","indexed":false,"internalType":"string"}],"anonymous":false},{"type":"event","name":"NetworkStatusUpdated","inputs":[{"name":"congestionLevel","type":"uint8","indexed":false,"internalType":"enum BridgeErrorHandler.CongestionLevel"},{"name":"averageGasPrice","type":"uint256","indexed":false,"internalType":"uint256"},{"name":"isHealthy","type":"bool","indexed":false,"internalType":"bool"}],"anonymous":false},{"type":"event","name":"OwnershipTransferred","inputs":[{"name":"previousOwner","type":"address","indexed":true,"internalType":"address"},{"name":"newOwner","type":"address","indexed":true,"internalType":"address"}],"anonymous":false},{"type":"event","name":"Paused","inputs":[{"name":"account","type":"address","indexed":false,"internalType":"address"}],"anonymous":false},{"type":"event","name":"Unpaused","inputs":[{"name":"account","type":"address","indexed":false,"internalType":"address"}],"anonymous":false},{"type":"event","name":"UserRateLimited","inputs":[{"name":"user","type":"address","indexed":true,"internalType":"address"},{"name":"limitDuration","type":"uint256","indexed":false,"internalType":"uint256"},{"name":"reason","type":"string","indexed":false,"internalType":"string"}],"anonymous":false},{"type":"error","name":"BlacklistedAddress","inputs":[]},{"type":"error","name":"CircuitBreakerActive","inputs":[]},{"type":"error","name":"CriticalGasPrice","inputs":[]},{"type":"error","name":"EmergencyModeActive","inputs":[]},{"type":"error","name":"EnforcedPause","inputs":[]},{"type":"error","name":"ErrorAlreadyResolved","inputs":[]},{"type":"error","name":"ExpectedPause","inputs":[]},{"type":"error","name":"InsufficientBalance","inputs":[]},{"type":"error","name":"InvalidErrorType","inputs":[]},{"type":"error","name":"InvalidParameters","inputs":[]},{"type":"error","name":"MaxRetriesExceeded","inputs":[]},{"type":"error","name":"NetworkCongested","inputs":[]},{"type":"error","name":"OwnableInvalidOwner","inputs":[{"name":"owner","type":"address","internalType":"address"}]},{"type":"error","name":"OwnableUnauthorizedAccount","inputs":[{"name":"account","type":"address","internalType":"address"}]},{"type":"error","name":"RateLimitActive","inputs":[]},{"type":"error","name":"ReentrancyGuardReentrantCall","inputs":[]},{"type":"error","name":"TransactionValueTooHigh","inputs":[]},{"type":"error","name":"UnauthorizedResolver","inputs":[]}],"bytecode":{"object":"0x608034620001885762001b2e90601f38839003908101601f19168201906001600160401b038211838310176200018c578083916040958694855283398101031262000188576200005d60206200005583620001c0565b9201620001c0565b60015f819055916001600160a01b03908116908115620001715783546001600160a01b0319808216841786558651949093909183167f8be0079c531659141344cd1fd0a4f28419497f9722a3daafe3b4186f6b6457e05f80a3169182156200016257506011541617601155620000d2620001a0565b5f81528160806404a817c80092836020820152603286820152426060820152015260ff199081600554166005556006556032600755426008558181600954161760095581608062000122620001a0565b5f81525f60208201525f868201525f6060820152015280600a5416600a555f600b555f600c555f600d55600e541617600e55516119589081620001d68239f35b630e52390960e41b8152600490fd5b8451631e4fbdf760e01b81525f6004820152602490fd5b5f80fd5b634e487b7160e01b5f52604160045260245ffd5b6040519060a082016001600160401b038111838210176200018c57604052565b51906001600160a01b0382168203620001885756fe6080806040526004361015610012575f80fd5b5f3560e01c9081630ca55cd7146112b657508063155fa052146112755780631c4be2281461122557806325e311aa146110ca57806330a1f2a9146110af5780633982e1a71461107e5780633b7f3d65146110355780633ec2c3f6146110195780633f4ba83a14610fa857806344337ea114610f645780634abdd40614610f18578063537df3b614610ed75780635a82b39914610e3c5780635c975abb14610e175780636227975014610df8578063715018a614610d9d5780637191c90414610d81578063775f5d3c14610d355780637a14c7d214610cd65780637e78868514610c925780638456cb5914610c1c57806387142c3914610ad75780638c8c4cf514610ab45780638da5cb5b14610a8c5780639009750014610a6f57806391284a8914610a2c57806396b8e78e14610934578063a939e8ef1461090c578063b55c3ba1146108ef578063be946db3146108b7578063c442daee14610896578063d27c0dfb1461079a578063d3f3e54714610302578063d5749d42146102c5578063d794d2d914610288578063d866cf2314610269578063e29b35211461024e5763f2fde38b146101be575f80fd5b3461024a57602036600319011261024a576101d76112cf565b6101df6117c7565b6001600160a01b0390811690811561023257600154826bffffffffffffffffffffffff60a01b821617600155167f8be0079c531659141344cd1fd0a4f28419497f9722a3daafe3b4186f6b6457e05f80a3005b604051631e4fbdf760e01b81525f6004820152602490fd5b5f80fd5b3461024a575f36600319011261024a57602060405160058152f35b3461024a575f36600319011261024a57602060405164746a5288008152f35b3461024a57602036600319011261024a576001600160a01b036102a96112cf565b165f526012602052602060ff60405f2054166040519015158152f35b3461024a57602036600319011261024a576001600160a01b036102e66112cf565b165f526013602052602060ff60405f2054166040519015158152f35b3461024a5760a036600319011261024a576001600160a01b03602435818116906004359082900361024a5760443592600c84101561024a576064356001600160401b03811161024a576103599036906004016113b8565b909160843590335f52601260205260ff60405f20541615908161078b575b5061077957610386818761188c565b906040519061014082018281106001600160401b03821117610679576040528782526020820190428252604083015f8152606084015f815260808501915f83526103d136898b61163b565b9360a0870194855260c08701523a60e0870152436101008701526103f4876112e5565b86610120870152895f52600260205260405f20948651600c8110156107655760ff80198854169116178655516001860155516002850155516003840155600483019051151560ff80198354169116179055518051906001600160401b0382116106795761046460058401546112ef565b601f8111610721575b50602090601f83116001146106af57918061012094926009945f926106a4575b50508160011b915f199060031b1c19161760058201555b60c0840151600682015560e084015160078201556101008401516008820155019101516104d0816112e5565b6104d9816112e5565b60ff801983541691161790556104ee866113a1565b6104f881546116a0565b9055845f52600360205260405f2061051081546116a0565b905561051d600f546116a0565b600f55610529816112e5565b60038114801561068d575b610585575b6105807f35419cc669ae692664b2971f9150e580159ee0da04ca9b97064bff6caecd7cb993604051938361056d86956112e5565b8452604060208501526040840191611680565b0390a4005b6040519260608401908482106001600160401b03831117610679577f523ad613567fbc3e5ab031387463d6181666216d2aff6391c50871593021ef1e6106607f35419cc669ae692664b2971f9150e580159ee0da04ca9b97064bff6caecd7cb99661058094604052602c81527f437269746963616c206572726f72206f72206661696c7572652074687265736860208201526b1bdb1908195e18d95959195960a21b6040820152600160ff19600a541617600a5542600b55610648600c546116a0565b80600c55604051928392606084526060840190611363565b90602083015261070860408301520390a1935050610539565b634e487b7160e01b5f52604160045260245ffd5b50845f526003602052600a60405f20541015610534565b015190508c8061048d565b90600584015f5260205f20915f5b601f1985168110610709575092610120949260019260099583601f198116106106f1575b505050811b0160058201556104a4565b01515f1960f88460031b161c191690558c80806106e1565b919260206001819286850151815501940192016106bd565b600584015f5260205f20601f840160051c81016020851061075e575b601f830160051c8201811061075357505061046d565b5f815560010161073d565b508061073d565b634e487b7160e01b5f52602160045260245ffd5b60405163066fba9760e41b8152600490fd5b90506001541633141587610377565b3461024a5760a036600319011261024a57608036602319011261024a57335f52601260205260ff60405f2054161580610881575b6107795760ff600a54166107f4575b60206107ea6004356116ae565b6040519015158152f35b600b54610708810180911161086d5742101561081f57604051600162fc891960e01b03198152600490fd5b60ff600e5416156107dd5761086860405161083981611327565b601981527f4175746f2d726573657420616674657220636f6f6c646f776e0000000000000060208201526117f3565b6107dd565b634e487b7160e01b5f52601160045260245ffd5b506001546001600160a01b03163314156107ce565b3461024a575f36600319011261024a576020604051662386f26fc100008152f35b3461024a57602036600319011261024a576001600160a01b036108d86112cf565b165f526003602052602060405f2054604051908152f35b3461024a575f36600319011261024a576020600f54604051908152f35b3461024a575f36600319011261024a576011546040516001600160a01b039091168152602090f35b3461024a57604036600319011261024a576004356024356001600160401b03811161024a576109679036906004016113b8565b9190335f52601260205260ff60405f2054161580610a17575b61077957815f52600260205260405f20600181015415610a05576004019081549060ff82166109f3577f25937f853004b3d65ea0fea7a030a298fbcf7a1f5a328043453f8749dc59dd3c9260016109ee9360ff19161790556040519182916020835233966020840191611680565b0390a3005b6040516308ada83760e21b8152600490fd5b60405163166a8f0760e01b8152600490fd5b506001546001600160a01b0316331415610980565b3461024a57602036600319011261024a57610a456112cf565b610a4d6117c7565b601180546001600160a01b0319166001600160a01b0392909216919091179055005b3461024a575f36600319011261024a576020601054604051908152f35b3461024a575f36600319011261024a576001546040516001600160a01b039091168152602090f35b3461024a575f36600319011261024a576020604051683635c9adc5dea000008152f35b3461024a57606036600319011261024a57600435600481101561024a5760243590335f52601260205260ff60405f2054161580610c07575b61077957610b1c816112e5565b60018111159081610bf7575b60405160a08101938185106001600160401b038611176106795760ff6060947f6272ac92e5f1b6d79285ab393b44cc437b8e21dff6e8ca44ee0f4b29d1a4241996604052610b75856112e5565b8484526020840193838552604081016044358152608088830192428452019215158352610ba1876112e5565b610baa876112e5565b831995866005541685891617600555516006555160075551600855511515926009541692168092176009554260105560405192610be6816112e5565b8352602083015215156040820152a1005b64174876e8008311159150610b28565b506001546001600160a01b0316331415610b0f565b3461024a575f36600319011261024a57610c346117c7565b60015460ff8160a01c16610c805760ff60a01b1916600160a01b176001556040513381527f62e78cea01bee320cd4e420270b5ea74000d11b0c9f74754ebdbfc544b05a25890602090a1005b60405163d93c066560e01b8152600490fd5b3461024a57602036600319011261024a57610cab6112cf565b610cb36117c7565b6001600160a01b03165f908152601260205260409020805460ff19166001179055005b3461024a57602036600319011261024a576001600160a01b03610cf76112cf565b165f526014602052608060405f20805490600181015490600360ff600283015416910154916040519384526020840152151560408301526060820152f35b3461024a57602036600319011261024a576004356001600160401b03811161024a57610d7a610d6b610d7f9236906004016113b8565b610d736117c7565b369161163b565b6117f3565b005b3461024a575f36600319011261024a576020604051610e108152f35b3461024a575f36600319011261024a57610db56117c7565b600180546001600160a01b031981169091555f906001600160a01b03167f8be0079c531659141344cd1fd0a4f28419497f9722a3daafe3b4186f6b6457e08280a3005b3461024a575f36600319011261024a57602060405164174876e8008152f35b3461024a575f36600319011261024a57602060ff60015460a01c166040519015158152f35b3461024a575f36600319011261024a576040516101808082018281106001600160401b0382111761067957604052368237600f545f5b600c8110610ebd575060ff60095416604051918252602080830193905f945b600c8610610ea8576101c0858515156101a0820152f35b81806001928551815201930195019491610e91565b80610ec96001926113a1565b548160051b85015201610e72565b3461024a57602036600319011261024a57610ef06112cf565b610ef86117c7565b6001600160a01b03165f908152601360205260409020805460ff19169055005b3461024a57606036600319011261024a57610f41610f346112cf565b60443590602435906113e5565b90610f6060405192839215158352604060208401526040830190611363565b0390f35b3461024a57602036600319011261024a57610f7d6112cf565b610f856117c7565b6001600160a01b03165f908152601360205260409020805460ff19166001179055005b3461024a575f36600319011261024a57610fc06117c7565b60015460ff8160a01c16156110075760ff60a01b19166001556040513381527f5db9ee0a495bf2e6ff9c91a7834c1ba4fdd244a5e8aa4e537bd38aeae4b073aa90602090a1005b604051638dfc202b60e01b8152600490fd5b3461024a575f36600319011261024a5760206040516107088152f35b3461024a575f36600319011261024a5760a060ff600a5416600b54600c54600d549060ff600e541692604051941515855260208501526040840152606083015215156080820152f35b3461024a57602036600319011261024a57600435600c81101561024a576110a66020916113a1565b54604051908152f35b3461024a575f36600319011261024a576020604051603c8152f35b3461024a5760208060031936011261024a576004355f526002815260405f209060ff8254169160019260018201549160028101549460038201549260ff600484015416916005840160405180925f90835493611125856112ef565b948585528c6001821691825f146112035750506001146111c7575b505061114e92500382611342565b60068401549560078501549360ff6009600888015497015416966040519a61014093600c871015610765578c9b6111a3978d528c015260408b015260608a0152151560808901528060a0890152870190611363565b9360c086015260e08501526101008401526111bd816112e5565b6101208301520390f35b8b92505f52815f20905f915b8583106111eb57505061114e93508201018b80611140565b80548388018501528694508c939092019181016111d3565b925093505061114e94915060ff191682840152151560051b8201018b80611140565b3461024a575f36600319011261024a5760a060ff600554166006546007546008549060ff60095416926040519461125b816112e5565b855260208501526040840152606083015215156080820152f35b3461024a57602036600319011261024a5761128e6112cf565b6112966117c7565b6001600160a01b03165f908152601260205260409020805460ff19169055005b3461024a575f36600319011261024a5780600a60209252f35b600435906001600160a01b038216820361024a57565b6004111561076557565b90600182811c9216801561131d575b602083101461130957565b634e487b7160e01b5f52602260045260245ffd5b91607f16916112fe565b604081019081106001600160401b0382111761067957604052565b90601f801991011681019081106001600160401b0382111761067957604052565b91908251928382525f5b84811061138d575050825f602080949584010152601f8019910116010190565b60208183018101518483018201520161136d565b600c811015610765575f52600460205260405f2090565b9181601f8401121561024a578235916001600160401b03831161024a576020838186019501011161024a57565b929160018060a01b03841693845f526020926013845260409560ff875f2054166116065760ff600a54166115b4575b5f5260148452855f2092865193608085016001600160401b039580821087831117610679576060918a5282548152600183015488820152600360ff600285015416151593848c84015201549182910152816115aa575b506115815760ff60095416156115585764746a5288001061152857683635c9adc5dea00000106114ee57662386f26fc100009031106114be576001938051928301918383109083111761067957525f815290565b5073496e73756666696369656e742062616c616e636560601b5f9351916114e483611327565b6014835282015290565b50507f5472616e73616374696f6e2076616c756520746f6f20686967680000000000005f93519161151e83611327565b601a835282015290565b5050507108ec2e640e0e4d2c6ca40e8dede40d0d2ced60731b5f93519161154e83611327565b6012835282015290565b50505050734e6574776f726b20697320756e6865616c74687960601b5f9351916114e483611327565b5050505073155cd95c881a5cc81c985d19481b1a5b5a5d195960621b5f9351916114e483611327565b905042105f61146a565b600b54610708810180911161086d5742101561141457505050507f4369726375697420627265616b657220697320616374697665000000000000005f9351916115fc83611327565b6019835282015290565b50505050751059191c995cdcc81a5cc8189b1858dadb1a5cdd195960521b5f93519161163183611327565b6016835282015290565b9291926001600160401b0382116106795760405191611664601f8201601f191660200184611342565b82948184528183011161024a578281602093845f960137010152565b908060209392818452848401375f828201840152601f01601f1916010190565b5f19811461086d5760010190565b805f5260026020526040805f20916001830154156117b6576004830180549360ff85166117a557600281019081549060243582101561179457600381018054604435810180911161086d5742106117885761171a9361170e60ff946116a0565b9055429055541661183e565b9384611728575b5050505090565b60019060ff1916179055714175746f6d61746963207265636f7665727960701b82519260208452601260208501528301527f25937f853004b3d65ea0fea7a030a298fbcf7a1f5a328043453f8749dc59dd3c60603393a35f808080611721565b50505050505050505f90565b85516312f6147760e01b8152600490fd5b83516308ada83760e21b8152600490fd5b815163166a8f0760e01b8152600490fd5b6001546001600160a01b031633036117db57565b60405163118cdaa760e01b8152336004820152602490fd5b60ff19600a5416600a5542600d557fd1e11adb7bbbfe86f1aae2f52d244a38b3ea02de865468234e0903a10dcd35f5604051602081528061183933946020830190611363565b0390a2565b600c811015610765578015611875576008811461186857600214611860575f90565b602435151590565b5064174876e8003a111590565b50600160ff60055416611887816112e5565b111590565b90600c821015908161076557600383148015611915575b61190d57816107655782159081156118ff575b81156118f2575b506118eb5761076557600281149081156118e0575b506118db575f90565b600190565b60019150145f6118d2565b5050600290565b6207a1209150115f6118bd565b5f92506008841491506118b6565b505050600390565b505f9150600583146118a356fea264697066735822122094c521ced07e47b83bd98f4c4ee6e7b22e095fc101eb48e099eb83e700b49c2f64736f6c63430008170033","linkReferences":{}},"methodIdentifiers":{"BASE_RETRY_DELAY()":"30a1f2a9","CIRCUIT_BREAKER_COOLDOWN()":"3ec2c3f6","CIRCUIT_BREAKER_THRESHOLD()":"0ca55cd7","CONGESTION_THRESHOLD()":"62279750","CRITICAL_GAS_THRESHOLD()":"d866cf23","MAX_RETRY_ATTEMPTS()":"e29b3521","MAX_RETRY_DELAY()":"7191c904","MAX_TRANSACTION_VALUE()":"8c8c4cf5","MIN_BALANCE_THRESHOLD()":"c442daee","addAuthorizedResolver(address)":"7e788685","addToBlacklist(address)":"44337ea1","attemptRecovery(bytes32,(uint256,uint256,uint256,bool))":"d27c0dfb","authorizedResolvers(address)":"d794d2d9","blacklistedAddresses(address)":"d5749d42","checkOperationAllowed(address,uint256,uint256)":"4abdd406","circuitBreakerStatus()":"3b7f3d65","currentNetworkStatus()":"1c4be228","emergencyContact()":"a939e8ef","errorTypeCounts(uint8)":"3982e1a7","getErrorStatistics()":"5a82b399","lastNetworkUpdate()":"90097500","owner()":"8da5cb5b","pause()":"8456cb59","paused()":"5c975abb","rateLimits(address)":"7a14c7d2","recordError(bytes32,address,uint8,string,uint256)":"d3f3e547","removeAuthorizedResolver(address)":"155fa052","removeFromBlacklist(address)":"537df3b6","renounceOwnership()":"715018a6","resetCircuitBreaker(string)":"775f5d3c","resolveError(bytes32,string)":"96b8e78e","setEmergencyContact(address)":"91284a89","totalErrors()":"b55c3ba1","transactionErrors(bytes32)":"25e311aa","transferOwnership(address)":"f2fde38b","unpause()":"3f4ba83a","updateNetworkStatus(uint8,uint256,uint256)":"87142c39","userFailureCounts(address)":"be946db3"},"id":31}