{"abi":[{"type":"constructor","inputs":[{"name":"_ethUsdPriceFeed","type":"address","internalType":"address"},{"name":"_owner","type":"address","internalType":"address"}],"stateMutability":"nonpayable"},{"type":"receive","stateMutability":"payable"},{"type":"function","name":"ARBITRUM_INBOX","inputs":[],"outputs":[{"name":"","type":"address","internalType":"address"}],"stateMutability":"view"},{"type":"function","name":"BASE_SUBMISSION_COST","inputs":[],"outputs":[{"name":"","type":"uint256","internalType":"uint256"}],"stateMutability":"view"},{"type":"function","name":"BRIDGE_FEE_BPS","inputs":[],"outputs":[{"name":"","type":"uint256","internalType":"uint256"}],"stateMutability":"view"},{"type":"function","name":"DEFAULT_GAS_LIMIT","inputs":[],"outputs":[{"name":"","type":"uint256","internalType":"uint256"}],"stateMutability":"view"},{"type":"function","name":"DEFAULT_GAS_PRICE_BID","inputs":[],"outputs":[{"name":"","type":"uint256","internalType":"uint256"}],"stateMutability":"view"},{"type":"function","name":"L1_GATEWAY_ROUTER","inputs":[],"outputs":[{"name":"","type":"address","internalType":"address"}],"stateMutability":"view"},{"type":"function","name":"MAX_BRIDGE_AMOUNT","inputs":[],"outputs":[{"name":"","type":"uint256","internalType":"uint256"}],"stateMutability":"view"},{"type":"function","name":"MAX_GAS_MULTIPLIER","inputs":[],"outputs":[{"name":"","type":"uint256","internalType":"uint256"}],"stateMutability":"view"},{"type":"function","name":"MIN_BRIDGE_AMOUNT","inputs":[],"outputs":[{"name":"","type":"uint256","internalType":"uint256"}],"stateMutability":"view"},{"type":"function","name":"accumulatedFees","inputs":[],"outputs":[{"name":"","type":"uint256","internalType":"uint256"}],"stateMutability":"view"},{"type":"function","name":"bridgeETHToArbitrum","inputs":[{"name":"to","type":"address","internalType":"address"}],"outputs":[{"name":"l2TxHash","type":"bytes32","internalType":"bytes32"}],"stateMutability":"payable"},{"type":"function","name":"bridgeETHWithParams","inputs":[{"name":"params","type":"tuple","internalType":"struct ETHBridge.BridgeParams","components":[{"name":"to","type":"address","internalType":"address"},{"name":"amount","type":"uint256","internalType":"uint256"},{"name":"gasLimit","type":"uint256","internalType":"uint256"},{"name":"gasPriceBid","type":"uint256","internalType":"uint256"},{"name":"data","type":"bytes","internalType":"bytes"}]}],"outputs":[{"name":"l2TxHash","type":"bytes32","internalType":"bytes32"}],"stateMutability":"payable"},{"type":"function","name":"bridgeTransactions","inputs":[{"name":"","type":"bytes32","internalType":"bytes32"}],"outputs":[{"name":"user","type":"address","internalType":"address"},{"name":"amount","type":"uint256","internalType":"uint256"},{"name":"destination","type":"address","internalType":"address"},{"name":"timestamp","type":"uint256","internalType":"uint256"},{"name":"status","type":"uint8","internalType":"enum ETHBridge.BridgeStatus"},{"name":"l2TxHash","type":"bytes32","internalType":"bytes32"},{"name":"gasUsed","type":"uint256","internalType":"uint256"},{"name":"feesPaid","type":"uint256","internalType":"uint256"}],"stateMutability":"view"},{"type":"function","name":"completeWithdrawal","inputs":[{"name":"withdrawalId","type":"bytes32","internalType":"bytes32"},{"name":"amount","type":"uint256","internalType":"uint256"},{"name":"proof","type":"bytes32[]","internalType":"bytes32[]"}],"outputs":[],"stateMutability":"nonpayable"},{"type":"function","name":"dynamicGasPricingEnabled","inputs":[],"outputs":[{"name":"","type":"bool","internalType":"bool"}],"stateMutability":"view"},{"type":"function","name":"emergencyWithdraw","inputs":[{"name":"to","type":"address","internalType":"address"},{"name":"amount","type":"uint256","internalType":"uint256"}],"outputs":[],"stateMutability":"nonpayable"},{"type":"function","name":"estimateBridgeCost","inputs":[{"name":"amount","type":"uint256","internalType":"uint256"},{"name":"gasLimit","type":"uint256","internalType":"uint256"},{"name":"gasPriceBid","type":"uint256","internalType":"uint256"}],"outputs":[{"name":"totalCost","type":"uint256","internalType":"uint256"},{"name":"bridgeFee","type":"uint256","internalType":"uint256"},{"name":"gasCost","type":"uint256","internalType":"uint256"}],"stateMutability":"view"},{"type":"function","name":"ethUsdPriceFeed","inputs":[],"outputs":[{"name":"","type":"address","internalType":"contract AggregatorV3Interface"}],"stateMutability":"view"},{"type":"function","name":"getCurrentETHPrice","inputs":[],"outputs":[{"name":"price","type":"uint256","internalType":"uint256"}],"stateMutability":"view"},{"type":"function","name":"getUserBridgeHistory","inputs":[{"name":"user","type":"address","internalType":"address"}],"outputs":[{"name":"transactions","type":"bytes32[]","internalType":"bytes32[]"}],"stateMutability":"view"},{"type":"function","name":"owner","inputs":[],"outputs":[{"name":"","type":"address","internalType":"address"}],"stateMutability":"view"},{"type":"function","name":"pause","inputs":[],"outputs":[],"stateMutability":"nonpayable"},{"type":"function","name":"paused","inputs":[],"outputs":[{"name":"","type":"bool","internalType":"bool"}],"stateMutability":"view"},{"type":"function","name":"renounceOwnership","inputs":[],"outputs":[],"stateMutability":"nonpayable"},{"type":"function","name":"setDynamicGasPricing","inputs":[{"name":"enabled","type":"bool","internalType":"bool"}],"outputs":[],"stateMutability":"nonpayable"},{"type":"function","name":"totalBridgedToArbitrum","inputs":[],"outputs":[{"name":"","type":"uint256","internalType":"uint256"}],"stateMutability":"view"},{"type":"function","name":"totalWithdrawnFromArbitrum","inputs":[],"outputs":[{"name":"","type":"uint256","internalType":"uint256"}],"stateMutability":"view"},{"type":"function","name":"transferOwnership","inputs":[{"name":"newOwner","type":"address","internalType":"address"}],"outputs":[],"stateMutability":"nonpayable"},{"type":"function","name":"unpause","inputs":[],"outputs":[],"stateMutability":"nonpayable"},{"type":"function","name":"userBridgeHistory","inputs":[{"name":"","type":"address","internalType":"address"},{"name":"","type":"uint256","internalType":"uint256"}],"outputs":[{"name":"","type":"bytes32","internalType":"bytes32"}],"stateMutability":"view"},{"type":"function","name":"withdrawFees","inputs":[{"name":"to","type":"address","internalType":"address"}],"outputs":[],"stateMutability":"nonpayable"},{"type":"function","name":"withdrawalClaimed","inputs":[{"name":"","type":"bytes32","internalType":"bytes32"}],"outputs":[{"name":"","type":"bool","internalType":"bool"}],"stateMutability":"view"},{"type":"event","name":"ETHBridgedToL2","inputs":[{"name":"user","type":"address","indexed":true,"internalType":"address"},{"name":"to","type":"address","indexed":true,"internalType":"address"},{"name":"amount","type":"uint256","indexed":false,"internalType":"uint256"},{"name":"l2TxHash","type":"bytes32","indexed":true,"internalType":"bytes32"},{"name":"totalCost","type":"uint256","indexed":false,"internalType":"uint256"}],"anonymous":false},{"type":"event","name":"FeesCollected","inputs":[{"name":"amount","type":"uint256","indexed":false,"internalType":"uint256"},{"name":"totalAccumulated","type":"uint256","indexed":false,"internalType":"uint256"}],"anonymous":false},{"type":"event","name":"GasPricingUpdated","inputs":[{"name":"gasLimit","type":"uint256","indexed":false,"internalType":"uint256"},{"name":"gasPriceBid","type":"uint256","indexed":false,"internalType":"uint256"}],"anonymous":false},{"type":"event","name":"OwnershipTransferred","inputs":[{"name":"previousOwner","type":"address","indexed":true,"internalType":"address"},{"name":"newOwner","type":"address","indexed":true,"internalType":"address"}],"anonymous":false},{"type":"event","name":"Paused","inputs":[{"name":"account","type":"address","indexed":false,"internalType":"address"}],"anonymous":false},{"type":"event","name":"Unpaused","inputs":[{"name":"account","type":"address","indexed":false,"internalType":"address"}],"anonymous":false},{"type":"event","name":"WithdrawalCompleted","inputs":[{"name":"user","type":"address","indexed":true,"internalType":"address"},{"name":"amount","type":"uint256","indexed":false,"internalType":"uint256"},{"name":"withdrawalId","type":"bytes32","indexed":true,"internalType":"bytes32"}],"anonymous":false},{"type":"event","name":"WithdrawalInitiated","inputs":[{"name":"user","type":"address","indexed":true,"internalType":"address"},{"name":"amount","type":"uint256","indexed":false,"internalType":"uint256"},{"name":"withdrawalId","type":"bytes32","indexed":true,"internalType":"bytes32"}],"anonymous":false},{"type":"error","name":"BridgeTransactionFailed","inputs":[]},{"type":"error","name":"EnforcedPause","inputs":[]},{"type":"error","name":"ExpectedPause","inputs":[]},{"type":"error","name":"GasPriceTooHigh","inputs":[]},{"type":"error","name":"InsufficientFunds","inputs":[]},{"type":"error","name":"InvalidAmount","inputs":[]},{"type":"error","name":"InvalidGasParameters","inputs":[]},{"type":"error","name":"InvalidRecipient","inputs":[]},{"type":"error","name":"InvalidWithdrawal","inputs":[]},{"type":"error","name":"OwnableInvalidOwner","inputs":[{"name":"owner","type":"address","internalType":"address"}]},{"type":"error","name":"OwnableUnauthorizedAccount","inputs":[{"name":"account","type":"address","internalType":"address"}]},{"type":"error","name":"PriceFeedError","inputs":[]},{"type":"error","name":"ReentrancyGuardReentrantCall","inputs":[]},{"type":"error","name":"TransferFailed","inputs":[]},{"type":"error","name":"WithdrawalAlreadyClaimed","inputs":[]}],"bytecode":{"object":"0x60a03461010657601f61157d38819003918201601f19168301916001600160401b0383118484101761010a57808492604094855283398101031261010657610052602061004b8361011e565b920161011e565b60015f556001600160a01b039081169182156100ee57600180546001600160a01b031981168517909155604051939083167f8be0079c531659141344cd1fd0a4f28419497f9722a3daafe3b4186f6b6457e05f80a3600160ff196008541617600855169081156100df575060805260405161144a90816101338239608051818181610e3001526112350152f35b634e46966960e11b8152600490fd5b604051631e4fbdf760e01b81525f6004820152602490fd5b5f80fd5b634e487b7160e01b5f52604160045260245ffd5b51906001600160a01b03821682036101065756fe6080604081815260049182361015610021575b505050361561001f575f80fd5b005b5f3560e01c90816304a9593214611043575080630ed6118814610fec578063164e68de14610f5f5780631fedcffd14610f2757806327bd466714610efc5780633aeafbb214610ece5780633f4ba83a14610e5f57806342f6fb2914610e1c578063587f5ed714610dfe5780635aa6be9d14610ddb5780635b65966b14610dc05780635c975abb14610d9a5780636c63f97114610cfd578063715018a614610ca257806371bad47d14610c7f57806372714cf614610c5e5780637fce000214610c3b5780638456cb5914610bdc578063886688c114610bbc5780638da5cb5b14610b9457806395ccea6714610b2e57806398b1e02c146108e75780639aa6188f1461083d5780639e90686a146106f7578063a604eca6146106c9578063b69fc2e9146106ab578063cc75ee3514610690578063d6be695a14610673578063dff5c1801461063c578063e4ed92091461061e578063f2fde38b1461058f5763fcaa9dca1461018d5780610012565b6020806003193601126104df576101a261105d565b6101aa611314565b6101b2611335565b825182810181811067ffffffffffffffff82111761057c5784525f81526001600160a01b0391821690633b9aca00821561056c57655af3107a4000341061055c5768056bc75e2d63100000341161055c57600a3402348104600a143415171561054957612710900466071afd498d00009485820192838311610536578334106105265761023f8334611213565b66071afd498cffff198101959086116105135760ff60085416610503575b8a899188938c5194859363679b6ded60e01b855284015288602484015266038d7ea4c680006044840152336064840152336084840152620f424060a484015260c483015261010060e4830152805190816101048401525f5b8281106104ea57505081610124915f838284010152601f801991011681010301813473aae29b0366299461418f5324a79afc425be5ae215af15f91816104b7575b5061030b57885163412846f360e01b81528a90fd5b6002838b929a98999a998a8c8b8b8b898351858101903360601b825242603482015287605482015260548152610340816110cd565b5190209a848c95519a8b976103548961109c565b338952808901958652828901968752606089019742895260e060808b019a5f8c5260a081019c8d5260c081019d8e52019c8d525f52525f20995116916bffffffffffffffffffffffff60a01b92838b5416178a555160018a015560028901925116908254161790555160038601558585019051868110156104a4579060079493929160ff8019835416911617905551600585015551600684015551910155335f5260038952865f208054916801000000000000000083101561049157509161042a826104569460018c9a99989795018155611073565b819291549060031b91821b915f19901b191617905561044b84600554611156565b600555600754611156565b6007558451918252868201527fdad23c5ea55de5d4ff0dc0b4bc6183dc42494e713fc84adaf8581dcb9e4c18a5843392a460015f5551908152f35b604190634e487b7160e01b5f525260245ffd5b602187634e487b7160e01b5f525260245ffd5b9091508881813d83116104e3575b6104cf81836110e9565b810103126104df5751905f6102f6565b5f80fd5b503d6104c5565b81810185015186820161012401528c94869450016102b5565b905061050d611356565b9061025d565b60118b634e487b7160e01b5f525260245ffd5b885163356680b760e01b81528a90fd5b60118a634e487b7160e01b5f525260245ffd5b601188634e487b7160e01b5f525260245ffd5b855163162908e360e11b81528790fd5b8551634e46966960e11b81528790fd5b604186634e487b7160e01b5f525260245ffd5b5090346104df5760203660031901126104df576105aa61105d565b906105b3611177565b6001600160a01b03918216928315610608575050600154826bffffffffffffffffffffffff60a01b821617600155167f8be0079c531659141344cd1fd0a4f28419497f9722a3daafe3b4186f6b6457e05f80a3005b905f6024925191631e4fbdf760e01b8352820152fd5b50346104df575f3660031901126104df576020906005549051908152f35b82346104df5760203660031901126104df57358015158091036104df57610661611177565b60ff8019600854169116176008555f80f35b50346104df575f3660031901126104df5760209051620f42408152f35b50346104df575f3660031901126104df576020905160058152f35b50346104df575f3660031901126104df5760209051633b9aca008152f35b50346104df575f3660031901126104df576020905173aae29b0366299461418f5324a79afc425be5ae218152f35b5090346104df5760603660031901126104df578035916024359167ffffffffffffffff6044358181116104df57366023820112156104df57808301359182116104df57602436918360051b0101116104df57610751611314565b610759611335565b845f528160205260ff835f20541661082e57831561081f57610793835186602082015285858201523360601b6060820152605481526110cd565b1561081157835f5280602052815f20600160ff198254161790556107b983600654611156565b6006555f80808086335af16107cc611127565b50156108035750519081527fd4aa3e7ecfcdc8de5c81726637cae2cf3c707df7503c88a378ff1476077e3f2360203392a360015f55005b90516312171d8360e31b8152fd5b905163c945242d60e01b8152fd5b50905163162908e360e11b8152fd5b509051632f29b3db60e01b8152fd5b50346104df576020806003193601126104df57906001600160a01b0361086161105d565b165f5260038252805f208151928381835491828152019081935f52825f20905f5b8181106108d357505050846108989103856110e9565b825181815293518185018190528493840192915f5b8281106108bc57505050500390f35b8351855286955093810193928101926001016108ad565b825484529284019260019283019201610882565b50602060031981813601126104df5767ffffffffffffffff84358181116104df5760a0813603938401126104df5761091d611314565b610925611335565b808601356001600160a01b0381811693918490036104df57604483013594606484013593608481013591602219018212156104df570191888301359081116104df576024830181360381136104df5761097d8261110b565b9361098a8a5195866110e9565b82855260248336920101116104df57815f928992838701378401015282908415610b1e57655af3107a40003410610b0e5768056bc75e2d631000003411610b0e5785158015610b02575b610af2576109e38487346111b6565b9791949093853410610ae257610a02896109fd8734611213565b611213565b9660ff60085416610ad2575b5089918c9189948d5195869463679b6ded60e01b865285015289602485015266038d7ea4c68000604485015233606485015233608485015260a484015260c483015261010060e4830152805190816101048401525f5b828110610ab957505081610124915f838284010152601f801991011681010301813473aae29b0366299461418f5324a79afc425be5ae215af15f91816104b7575061030b57885163412846f360e01b81528a90fd5b81810185015186820161012401528c9486945001610a64565b610adc91506113af565b5f610a0e565b8a5163356680b760e01b81528c90fd5b875163b4d1a4bb60e01b81528990fd5b506298968086116109d4565b875163162908e360e11b81528990fd5b8751634e46966960e11b81528990fd5b50346104df57806003193601126104df57610b4761105d565b610b4f611177565b6001600160a01b03168015610b86575f80808093602435905af1610b71611127565b5015610b7957005b516312171d8360e31b8152fd5b5051634e46966960e11b8152fd5b50346104df575f3660031901126104df5760015490516001600160a01b039091168152602090f35b50346104df575f3660031901126104df5760209051655af3107a40008152f35b50346104df575f3660031901126104df5760207f62e78cea01bee320cd4e420270b5ea74000d11b0c9f74754ebdbfc544b05a25891610c19611177565b610c21611335565b6001805460ff60a01b1916600160a01b17905551338152a1005b50346104df575f3660031901126104df576020905168056bc75e2d631000008152f35b50346104df575f3660031901126104df576020905166038d7ea4c680008152f35b50346104df575f3660031901126104df57602090610c9b611220565b9051908152f35b346104df575f3660031901126104df57610cba611177565b600180546001600160a01b031981169091555f906001600160a01b03167f8be0079c531659141344cd1fd0a4f28419497f9722a3daafe3b4186f6b6457e08280a3005b50346104df5760203660031901126104df5781355f526002602052805f2060018060a01b03908181541692600182015492600283015416600383015460ff878501541691600585015493600760068701549601549681519889526020890152870152606086015285811015610d87576101009550608085015260a084015260c083015260e0820152f35b602186634e487b7160e01b5f525260245ffd5b50346104df575f3660031901126104df5760209060ff60015460a01c1690519015158152f35b50346104df575f3660031901126104df5760209051600a8152f35b50346104df575f3660031901126104df5760209060ff6008541690519015158152f35b50346104df575f3660031901126104df576020906007549051908152f35b50346104df575f3660031901126104df57517f00000000000000000000000000000000000000000000000000000000000000006001600160a01b03168152602090f35b50346104df575f3660031901126104df57610e78611177565b6001549160ff8360a01c1615610ec05760ff60a01b19831660015581513381527f5db9ee0a495bf2e6ff9c91a7834c1ba4fdd244a5e8aa4e537bd38aeae4b073aa90602090a1005b9051638dfc202b60e01b8152fd5b50346104df575f3660031901126104df576020905173ce18836b233c83325cc8848ca4487e94c62882648152f35b50346104df5760203660031901126104df5781602092355f52825260ff815f20541690519015158152f35b50346104df5760603660031901126104df57610f4d6060926044359060243590356111b6565b91929081519384526020840152820152f35b50346104df5760203660031901126104df57610f7961105d565b610f81611177565b6001600160a01b03168015610b86575f8080806007548095826007555af1610fa7611127565b5015610fde577f49d512bf9cb224241c05691e73eb9fab078cf350c7dbcbcf66788f1fc0cc8b0b925081519081525f6020820152a1005b50516312171d8360e31b8152fd5b50346104df57806003193601126104df5761100561105d565b6001600160a01b03165f908152600360205281902080546024359291908310156104df5760209261103591611073565b90549060031b1c9051908152f35b346104df575f3660031901126104df576020906006548152f35b600435906001600160a01b03821682036104df57565b8054821015611088575f5260205f2001905f90565b634e487b7160e01b5f52603260045260245ffd5b610100810190811067ffffffffffffffff8211176110b957604052565b634e487b7160e01b5f52604160045260245ffd5b6080810190811067ffffffffffffffff8211176110b957604052565b90601f8019910116810190811067ffffffffffffffff8211176110b957604052565b67ffffffffffffffff81116110b957601f01601f191660200190565b3d15611151573d906111388261110b565b9161114660405193846110e9565b82523d5f602084013e565b606090565b9190820180921161116357565b634e487b7160e01b5f52601160045260245ffd5b6001546001600160a01b0316330361118b57565b60405163118cdaa760e01b8152336004820152602490fd5b8181029291811591840414171561116357565b909291600a820291808304600a1490151715611163576127106111da9204936111a3565b9066038d7ea4c68000918201809211611163576111f78284611156565b929190565b519069ffffffffffffffffffff821682036104df57565b9190820391821161116357565b604051633fabe5a360e21b815260a0816004817f00000000000000000000000000000000000000000000000000000000000000006001600160a01b03165afa805f925f926112be575b5061128057604051637dfa876360e01b8152600490fd5b5f82138015906112b6575b6112a45761129c610e109142611213565b116112a45790565b604051637dfa876360e01b8152600490fd5b50801561128b565b9250905060a0823d60a01161130c575b816112db60a093836110e9565b810103126104df576112ec826111fc565b5060208201516113036080606085015194016111fc565b5091905f611269565b3d91506112ce565b60025f54146113235760025f55565b604051633ee5aeb560e01b8152600490fd5b60ff60015460a01c1661134457565b60405163d93c066560e01b8152600490fd5b3a156113a75760643a023a810460640361116357633b9aca008091046101f480821161139f575b50808202908282040361116357606490049080821061139a575090565b905090565b90505f61137d565b633b9aca0090565b3a156114115760643a023a81046064036111635781156113fd57816064926113e49204906101f48083116113f5575b506111a3565b04633b9aca0080821061139a575090565b91505f6113de565b634e487b7160e01b5f52601260045260245ffd5b9056fea2646970667358221220d371e669b3e26739d21524658cff4172a668acac7946bff569af3dc2345a91c664736f6c63430008170033","linkReferences":{}},"methodIdentifiers":{"ARBITRUM_INBOX()":"a604eca6","BASE_SUBMISSION_COST()":"72714cf6","BRIDGE_FEE_BPS()":"5b65966b","DEFAULT_GAS_LIMIT()":"d6be695a","DEFAULT_GAS_PRICE_BID()":"b69fc2e9","L1_GATEWAY_ROUTER()":"3aeafbb2","MAX_BRIDGE_AMOUNT()":"7fce0002","MAX_GAS_MULTIPLIER()":"cc75ee35","MIN_BRIDGE_AMOUNT()":"886688c1","accumulatedFees()":"587f5ed7","bridgeETHToArbitrum(address)":"fcaa9dca","bridgeETHWithParams((address,uint256,uint256,uint256,bytes))":"98b1e02c","bridgeTransactions(bytes32)":"6c63f971","completeWithdrawal(bytes32,uint256,bytes32[])":"9e90686a","dynamicGasPricingEnabled()":"5aa6be9d","emergencyWithdraw(address,uint256)":"95ccea67","estimateBridgeCost(uint256,uint256,uint256)":"1fedcffd","ethUsdPriceFeed()":"42f6fb29","getCurrentETHPrice()":"71bad47d","getUserBridgeHistory(address)":"9aa6188f","owner()":"8da5cb5b","pause()":"8456cb59","paused()":"5c975abb","renounceOwnership()":"715018a6","setDynamicGasPricing(bool)":"dff5c180","totalBridgedToArbitrum()":"e4ed9209","totalWithdrawnFromArbitrum()":"04a95932","transferOwnership(address)":"f2fde38b","unpause()":"3f4ba83a","userBridgeHistory(address,uint256)":"0ed61188","withdrawFees(address)":"164e68de","withdrawalClaimed(bytes32)":"27bd4667"},"id":32}