{"abi":[{"type":"constructor","inputs":[],"stateMutability":"nonpayable"},{"type":"receive","stateMutability":"payable"},{"type":"function","name":"ammPools","inputs":[{"name":"","type":"uint256","internalType":"uint256"},{"name":"","type":"address","internalType":"address"}],"outputs":[{"name":"hopTokenReserve","type":"uint256","internalType":"uint256"},{"name":"canonicalReserve","type":"uint256","internalType":"uint256"},{"name":"totalLiquidity","type":"uint256","internalType":"uint256"},{"name":"feeRate","type":"uint256","internalType":"uint256"}],"stateMutability":"view"},{"type":"function","name":"config","inputs":[],"outputs":[{"name":"baseFee","type":"uint256","internalType":"uint256"},{"name":"feePercentage","type":"uint256","internalType":"uint256"},{"name":"minTransferAmount","type":"uint256","internalType":"uint256"},{"name":"maxTransferAmount","type":"uint256","internalType":"uint256"},{"name":"avgCompletionTime","type":"uint256","internalType":"uint256"},{"name":"bondingPeriod","type":"uint256","internalType":"uint256"},{"name":"isActive","type":"bool","internalType":"bool"}],"stateMutability":"view"},{"type":"function","name":"emergencyWithdraw","inputs":[{"name":"token","type":"address","internalType":"address"},{"name":"amount","type":"uint256","internalType":"uint256"}],"outputs":[],"stateMutability":"nonpayable"},{"type":"function","name":"estimateGas","inputs":[{"name":"route","type":"tuple","internalType":"struct IBridgeAdapter.Route","components":[{"name":"adapter","type":"address","internalType":"address"},{"name":"tokenIn","type":"address","internalType":"address"},{"name":"tokenOut","type":"address","internalType":"address"},{"name":"amountIn","type":"uint256","internalType":"uint256"},{"name":"amountOut","type":"uint256","internalType":"uint256"},{"name":"srcChainId","type":"uint256","internalType":"uint256"},{"name":"dstChainId","type":"uint256","internalType":"uint256"},{"name":"metrics","type":"tuple","internalType":"struct IBridgeAdapter.RouteMetrics","components":[{"name":"estimatedGasCost","type":"uint256","internalType":"uint256"},{"name":"bridgeFee","type":"uint256","internalType":"uint256"},{"name":"totalCostWei","type":"uint256","internalType":"uint256"},{"name":"estimatedTimeMinutes","type":"uint256","internalType":"uint256"},{"name":"liquidityAvailable","type":"uint256","internalType":"uint256"},{"name":"successRate","type":"uint256","internalType":"uint256"},{"name":"congestionLevel","type":"uint256","internalType":"uint256"}]},{"name":"adapterData","type":"bytes","internalType":"bytes"},{"name":"deadline","type":"uint256","internalType":"uint256"}]}],"outputs":[{"name":"gasEstimate","type":"uint256","internalType":"uint256"}],"stateMutability":"view"},{"type":"function","name":"executeBridge","inputs":[{"name":"route","type":"tuple","internalType":"struct IBridgeAdapter.Route","components":[{"name":"adapter","type":"address","internalType":"address"},{"name":"tokenIn","type":"address","internalType":"address"},{"name":"tokenOut","type":"address","internalType":"address"},{"name":"amountIn","type":"uint256","internalType":"uint256"},{"name":"amountOut","type":"uint256","internalType":"uint256"},{"name":"srcChainId","type":"uint256","internalType":"uint256"},{"name":"dstChainId","type":"uint256","internalType":"uint256"},{"name":"metrics","type":"tuple","internalType":"struct IBridgeAdapter.RouteMetrics","components":[{"name":"estimatedGasCost","type":"uint256","internalType":"uint256"},{"name":"bridgeFee","type":"uint256","internalType":"uint256"},{"name":"totalCostWei","type":"uint256","internalType":"uint256"},{"name":"estimatedTimeMinutes","type":"uint256","internalType":"uint256"},{"name":"liquidityAvailable","type":"uint256","internalType":"uint256"},{"name":"successRate","type":"uint256","internalType":"uint256"},{"name":"congestionLevel","type":"uint256","internalType":"uint256"}]},{"name":"adapterData","type":"bytes","internalType":"bytes"},{"name":"deadline","type":"uint256","internalType":"uint256"}]},{"name":"recipient","type":"address","internalType":"address"},{"name":"permitData","type":"bytes","internalType":"bytes"}],"outputs":[{"name":"transferId","type":"bytes32","internalType":"bytes32"}],"stateMutability":"payable"},{"type":"function","name":"getAvailableLiquidity","inputs":[{"name":"tokenIn","type":"address","internalType":"address"},{"name":"tokenOut","type":"address","internalType":"address"},{"name":"srcChainId","type":"uint256","internalType":"uint256"},{"name":"dstChainId","type":"uint256","internalType":"uint256"}],"outputs":[{"name":"liquidity","type":"uint256","internalType":"uint256"}],"stateMutability":"view"},{"type":"function","name":"getBridgeName","inputs":[],"outputs":[{"name":"","type":"string","internalType":"string"}],"stateMutability":"pure"},{"type":"function","name":"getBridgeStats","inputs":[],"outputs":[{"name":"_totalTransfers","type":"uint256","internalType":"uint256"},{"name":"_successfulTransfers","type":"uint256","internalType":"uint256"},{"name":"_totalVolume","type":"uint256","internalType":"uint256"},{"name":"_successRate","type":"uint256","internalType":"uint256"}],"stateMutability":"view"},{"type":"function","name":"getHopBridgeInfo","inputs":[{"name":"chainId","type":"uint256","internalType":"uint256"},{"name":"token","type":"address","internalType":"address"}],"outputs":[{"name":"bridge","type":"tuple","internalType":"struct HopProtocolAdapter.HopBridge","components":[{"name":"l1Token","type":"address","internalType":"address"},{"name":"l2Token","type":"address","internalType":"address"},{"name":"hopToken","type":"address","internalType":"address"},{"name":"liquidityPool","type":"uint256","internalType":"uint256"},{"name":"bondingCurveRate","type":"uint256","internalType":"uint256"},{"name":"isActive","type":"bool","internalType":"bool"}]},{"name":"pool","type":"tuple","internalType":"struct HopProtocolAdapter.AmmPool","components":[{"name":"hopTokenReserve","type":"uint256","internalType":"uint256"},{"name":"canonicalReserve","type":"uint256","internalType":"uint256"},{"name":"totalLiquidity","type":"uint256","internalType":"uint256"},{"name":"feeRate","type":"uint256","internalType":"uint256"}]}],"stateMutability":"view"},{"type":"function","name":"getRouteMetrics","inputs":[{"name":"tokenIn","type":"address","internalType":"address"},{"name":"tokenOut","type":"address","internalType":"address"},{"name":"amount","type":"uint256","internalType":"uint256"},{"name":"srcChainId","type":"uint256","internalType":"uint256"},{"name":"dstChainId","type":"uint256","internalType":"uint256"}],"outputs":[{"name":"metrics","type":"tuple","internalType":"struct IBridgeAdapter.RouteMetrics","components":[{"name":"estimatedGasCost","type":"uint256","internalType":"uint256"},{"name":"bridgeFee","type":"uint256","internalType":"uint256"},{"name":"totalCostWei","type":"uint256","internalType":"uint256"},{"name":"estimatedTimeMinutes","type":"uint256","internalType":"uint256"},{"name":"liquidityAvailable","type":"uint256","internalType":"uint256"},{"name":"successRate","type":"uint256","internalType":"uint256"},{"name":"congestionLevel","type":"uint256","internalType":"uint256"}]}],"stateMutability":"view"},{"type":"function","name":"getSuccessRate","inputs":[{"name":"srcChainId","type":"uint256","internalType":"uint256"},{"name":"dstChainId","type":"uint256","internalType":"uint256"}],"outputs":[{"name":"successRate","type":"uint256","internalType":"uint256"}],"stateMutability":"view"},{"type":"function","name":"getTransfer","inputs":[{"name":"transferId","type":"bytes32","internalType":"bytes32"}],"outputs":[{"name":"transfer","type":"tuple","internalType":"struct IBridgeAdapter.Transfer","components":[{"name":"transferId","type":"bytes32","internalType":"bytes32"},{"name":"sender","type":"address","internalType":"address"},{"name":"recipient","type":"address","internalType":"address"},{"name":"route","type":"tuple","internalType":"struct IBridgeAdapter.Route","components":[{"name":"adapter","type":"address","internalType":"address"},{"name":"tokenIn","type":"address","internalType":"address"},{"name":"tokenOut","type":"address","internalType":"address"},{"name":"amountIn","type":"uint256","internalType":"uint256"},{"name":"amountOut","type":"uint256","internalType":"uint256"},{"name":"srcChainId","type":"uint256","internalType":"uint256"},{"name":"dstChainId","type":"uint256","internalType":"uint256"},{"name":"metrics","type":"tuple","internalType":"struct IBridgeAdapter.RouteMetrics","components":[{"name":"estimatedGasCost","type":"uint256","internalType":"uint256"},{"name":"bridgeFee","type":"uint256","internalType":"uint256"},{"name":"totalCostWei","type":"uint256","internalType":"uint256"},{"name":"estimatedTimeMinutes","type":"uint256","internalType":"uint256"},{"name":"liquidityAvailable","type":"uint256","internalType":"uint256"},{"name":"successRate","type":"uint256","internalType":"uint256"},{"name":"congestionLevel","type":"uint256","internalType":"uint256"}]},{"name":"adapterData","type":"bytes","internalType":"bytes"},{"name":"deadline","type":"uint256","internalType":"uint256"}]},{"name":"status","type":"uint8","internalType":"enum IBridgeAdapter.TransferStatus"},{"name":"initiatedAt","type":"uint256","internalType":"uint256"},{"name":"completedAt","type":"uint256","internalType":"uint256"}]}],"stateMutability":"view"},{"type":"function","name":"getTransferLimits","inputs":[{"name":"token","type":"address","internalType":"address"},{"name":"srcChainId","type":"uint256","internalType":"uint256"},{"name":"dstChainId","type":"uint256","internalType":"uint256"}],"outputs":[{"name":"minAmount","type":"uint256","internalType":"uint256"},{"name":"maxAmount","type":"uint256","internalType":"uint256"}],"stateMutability":"view"},{"type":"function","name":"healthyStatus","inputs":[],"outputs":[{"name":"","type":"bool","internalType":"bool"}],"stateMutability":"view"},{"type":"function","name":"hopBridges","inputs":[{"name":"","type":"uint256","internalType":"uint256"},{"name":"","type":"address","internalType":"address"}],"outputs":[{"name":"l1Token","type":"address","internalType":"address"},{"name":"l2Token","type":"address","internalType":"address"},{"name":"hopToken","type":"address","internalType":"address"},{"name":"liquidityPool","type":"uint256","internalType":"uint256"},{"name":"bondingCurveRate","type":"uint256","internalType":"uint256"},{"name":"isActive","type":"bool","internalType":"bool"}],"stateMutability":"view"},{"type":"function","name":"isHealthy","inputs":[],"outputs":[{"name":"healthy","type":"bool","internalType":"bool"}],"stateMutability":"view"},{"type":"function","name":"lastHealthCheck","inputs":[],"outputs":[{"name":"","type":"uint256","internalType":"uint256"}],"stateMutability":"view"},{"type":"function","name":"owner","inputs":[],"outputs":[{"name":"","type":"address","internalType":"address"}],"stateMutability":"view"},{"type":"function","name":"renounceOwnership","inputs":[],"outputs":[],"stateMutability":"nonpayable"},{"type":"function","name":"successfulTransfers","inputs":[],"outputs":[{"name":"","type":"uint256","internalType":"uint256"}],"stateMutability":"view"},{"type":"function","name":"supportsRoute","inputs":[{"name":"tokenIn","type":"address","internalType":"address"},{"name":"tokenOut","type":"address","internalType":"address"},{"name":"srcChainId","type":"uint256","internalType":"uint256"},{"name":"dstChainId","type":"uint256","internalType":"uint256"}],"outputs":[{"name":"supported","type":"bool","internalType":"bool"}],"stateMutability":"view"},{"type":"function","name":"totalTransfers","inputs":[],"outputs":[{"name":"","type":"uint256","internalType":"uint256"}],"stateMutability":"view"},{"type":"function","name":"totalVolume","inputs":[],"outputs":[{"name":"","type":"uint256","internalType":"uint256"}],"stateMutability":"view"},{"type":"function","name":"transferHistory","inputs":[{"name":"","type":"uint256","internalType":"uint256"}],"outputs":[{"name":"","type":"bytes32","internalType":"bytes32"}],"stateMutability":"view"},{"type":"function","name":"transferOwnership","inputs":[{"name":"newOwner","type":"address","internalType":"address"}],"outputs":[],"stateMutability":"nonpayable"},{"type":"function","name":"transfers","inputs":[{"name":"","type":"bytes32","internalType":"bytes32"}],"outputs":[{"name":"transferId","type":"bytes32","internalType":"bytes32"},{"name":"sender","type":"address","internalType":"address"},{"name":"recipient","type":"address","internalType":"address"},{"name":"route","type":"tuple","internalType":"struct IBridgeAdapter.Route","components":[{"name":"adapter","type":"address","internalType":"address"},{"name":"tokenIn","type":"address","internalType":"address"},{"name":"tokenOut","type":"address","internalType":"address"},{"name":"amountIn","type":"uint256","internalType":"uint256"},{"name":"amountOut","type":"uint256","internalType":"uint256"},{"name":"srcChainId","type":"uint256","internalType":"uint256"},{"name":"dstChainId","type":"uint256","internalType":"uint256"},{"name":"metrics","type":"tuple","internalType":"struct IBridgeAdapter.RouteMetrics","components":[{"name":"estimatedGasCost","type":"uint256","internalType":"uint256"},{"name":"bridgeFee","type":"uint256","internalType":"uint256"},{"name":"totalCostWei","type":"uint256","internalType":"uint256"},{"name":"estimatedTimeMinutes","type":"uint256","internalType":"uint256"},{"name":"liquidityAvailable","type":"uint256","internalType":"uint256"},{"name":"successRate","type":"uint256","internalType":"uint256"},{"name":"congestionLevel","type":"uint256","internalType":"uint256"}]},{"name":"adapterData","type":"bytes","internalType":"bytes"},{"name":"deadline","type":"uint256","internalType":"uint256"}]},{"name":"status","type":"uint8","internalType":"enum IBridgeAdapter.TransferStatus"},{"name":"initiatedAt","type":"uint256","internalType":"uint256"},{"name":"completedAt","type":"uint256","internalType":"uint256"}],"stateMutability":"view"},{"type":"function","name":"updateAmmPool","inputs":[{"name":"chainId","type":"uint256","internalType":"uint256"},{"name":"token","type":"address","internalType":"address"},{"name":"pool","type":"tuple","internalType":"struct HopProtocolAdapter.AmmPool","components":[{"name":"hopTokenReserve","type":"uint256","internalType":"uint256"},{"name":"canonicalReserve","type":"uint256","internalType":"uint256"},{"name":"totalLiquidity","type":"uint256","internalType":"uint256"},{"name":"feeRate","type":"uint256","internalType":"uint256"}]}],"outputs":[],"stateMutability":"nonpayable"},{"type":"function","name":"updateConfig","inputs":[{"name":"newConfig","type":"tuple","internalType":"struct HopProtocolAdapter.BridgeConfig","components":[{"name":"baseFee","type":"uint256","internalType":"uint256"},{"name":"feePercentage","type":"uint256","internalType":"uint256"},{"name":"minTransferAmount","type":"uint256","internalType":"uint256"},{"name":"maxTransferAmount","type":"uint256","internalType":"uint256"},{"name":"avgCompletionTime","type":"uint256","internalType":"uint256"},{"name":"bondingPeriod","type":"uint256","internalType":"uint256"},{"name":"isActive","type":"bool","internalType":"bool"}]}],"outputs":[],"stateMutability":"nonpayable"},{"type":"function","name":"updateHealthStatus","inputs":[{"name":"healthy","type":"bool","internalType":"bool"}],"outputs":[],"stateMutability":"nonpayable"},{"type":"function","name":"updateHopBridge","inputs":[{"name":"chainId","type":"uint256","internalType":"uint256"},{"name":"token","type":"address","internalType":"address"},{"name":"bridge","type":"tuple","internalType":"struct HopProtocolAdapter.HopBridge","components":[{"name":"l1Token","type":"address","internalType":"address"},{"name":"l2Token","type":"address","internalType":"address"},{"name":"hopToken","type":"address","internalType":"address"},{"name":"liquidityPool","type":"uint256","internalType":"uint256"},{"name":"bondingCurveRate","type":"uint256","internalType":"uint256"},{"name":"isActive","type":"bool","internalType":"bool"}]}],"outputs":[],"stateMutability":"nonpayable"},{"type":"event","name":"AmmSwap","inputs":[{"name":"token","type":"address","indexed":true,"internalType":"address"},{"name":"amountIn","type":"uint256","indexed":false,"internalType":"uint256"},{"name":"amountOut","type":"uint256","indexed":false,"internalType":"uint256"},{"name":"hopToCanonical","type":"bool","indexed":false,"internalType":"bool"}],"anonymous":false},{"type":"event","name":"HopBridgeAdded","inputs":[{"name":"chainId","type":"uint256","indexed":true,"internalType":"uint256"},{"name":"token","type":"address","indexed":true,"internalType":"address"},{"name":"bridge","type":"tuple","indexed":false,"internalType":"struct HopProtocolAdapter.HopBridge","components":[{"name":"l1Token","type":"address","internalType":"address"},{"name":"l2Token","type":"address","internalType":"address"},{"name":"hopToken","type":"address","internalType":"address"},{"name":"liquidityPool","type":"uint256","internalType":"uint256"},{"name":"bondingCurveRate","type":"uint256","internalType":"uint256"},{"name":"isActive","type":"bool","internalType":"bool"}]}],"anonymous":false},{"type":"event","name":"LiquidityUpdated","inputs":[{"name":"chainId","type":"uint256","indexed":true,"internalType":"uint256"},{"name":"token","type":"address","indexed":true,"internalType":"address"},{"name":"newLiquidity","type":"uint256","indexed":false,"internalType":"uint256"}],"anonymous":false},{"type":"event","name":"OwnershipTransferred","inputs":[{"name":"previousOwner","type":"address","indexed":true,"internalType":"address"},{"name":"newOwner","type":"address","indexed":true,"internalType":"address"}],"anonymous":false},{"type":"event","name":"TransferCompleted","inputs":[{"name":"transferId","type":"bytes32","indexed":true,"internalType":"bytes32"},{"name":"actualAmountOut","type":"uint256","indexed":false,"internalType":"uint256"},{"name":"actualCost","type":"uint256","indexed":false,"internalType":"uint256"},{"name":"actualTime","type":"uint256","indexed":false,"internalType":"uint256"}],"anonymous":false},{"type":"event","name":"TransferFailed","inputs":[{"name":"transferId","type":"bytes32","indexed":true,"internalType":"bytes32"},{"name":"reason","type":"string","indexed":false,"internalType":"string"}],"anonymous":false},{"type":"event","name":"TransferInitiated","inputs":[{"name":"transferId","type":"bytes32","indexed":true,"internalType":"bytes32"},{"name":"sender","type":"address","indexed":true,"internalType":"address"},{"name":"recipient","type":"address","indexed":true,"internalType":"address"},{"name":"route","type":"tuple","indexed":false,"internalType":"struct IBridgeAdapter.Route","components":[{"name":"adapter","type":"address","internalType":"address"},{"name":"tokenIn","type":"address","internalType":"address"},{"name":"tokenOut","type":"address","internalType":"address"},{"name":"amountIn","type":"uint256","internalType":"uint256"},{"name":"amountOut","type":"uint256","internalType":"uint256"},{"name":"srcChainId","type":"uint256","internalType":"uint256"},{"name":"dstChainId","type":"uint256","internalType":"uint256"},{"name":"metrics","type":"tuple","internalType":"struct IBridgeAdapter.RouteMetrics","components":[{"name":"estimatedGasCost","type":"uint256","internalType":"uint256"},{"name":"bridgeFee","type":"uint256","internalType":"uint256"},{"name":"totalCostWei","type":"uint256","internalType":"uint256"},{"name":"estimatedTimeMinutes","type":"uint256","internalType":"uint256"},{"name":"liquidityAvailable","type":"uint256","internalType":"uint256"},{"name":"successRate","type":"uint256","internalType":"uint256"},{"name":"congestionLevel","type":"uint256","internalType":"uint256"}]},{"name":"adapterData","type":"bytes","internalType":"bytes"},{"name":"deadline","type":"uint256","internalType":"uint256"}]}],"anonymous":false},{"type":"error","name":"BridgeInactive","inputs":[]},{"type":"error","name":"InsufficientLiquidity","inputs":[]},{"type":"error","name":"OwnableInvalidOwner","inputs":[{"name":"owner","type":"address","internalType":"address"}]},{"type":"error","name":"OwnableUnauthorizedAccount","inputs":[{"name":"account","type":"address","internalType":"address"}]},{"type":"error","name":"ReentrancyGuardReentrantCall","inputs":[]},{"type":"error","name":"SafeERC20FailedOperation","inputs":[{"name":"token","type":"address","internalType":"address"}]},{"type":"error","name":"SlippageTooHigh","inputs":[]},{"type":"error","name":"TransferAmountTooHigh","inputs":[]},{"type":"error","name":"TransferAmountTooLow","inputs":[]},{"type":"error","name":"UnsupportedRoute","inputs":[]}],"bytecode":{"object":"0x6080806040523462000f7d57331562000f68575f8054336001600160a01b0319821681178355916001600160a01b03909116907f8be0079c531659141344cd1fd0a4f28419497f9722a3daafe3b4186f6b6457e09080a360017f9b779b17422d0df92223018b32b4d1fa46e071723d6817e2486d003becc55f008190556009805460ff1916909117905560405160e081016001600160401b0381118282101762000f545760019160c09160405266038d7ea4c68000815260046020820152670de0b6b3a76400006040820152690a968163f0a57b400000606082015261012c60808201526201518060a0820152015266038d7ea4c68000600a556004600b55670de0b6b3a7640000600c55690a968163f0a57b400000600d5561012c600e5562015180600f55600160ff196010541617601055620002b06200014062000f81565b600180825260208083018281526011604085019081526969e10de76676d0800000606086019081526126de6080870190815260a087018681525f969096525f805160206200342283398151915290945294517fb62b070af7e1c2e4d36a8bc978f24c95d09be2fd271fd05523f86808c42bd4d780546001600160a01b039283166001600160a01b03199182161790915592517fb62b070af7e1c2e4d36a8bc978f24c95d09be2fd271fd05523f86808c42bd4d8805491831691851691909117905590517fb62b070af7e1c2e4d36a8bc978f24c95d09be2fd271fd05523f86808c42bd4d9805491909216921691909117905591517fb62b070af7e1c2e4d36a8bc978f24c95d09be2fd271fd05523f86808c42bd4da5590517fb62b070af7e1c2e4d36a8bc978f24c95d09be2fd271fd05523f86808c42bd4db55517fb62b070af7e1c2e4d36a8bc978f24c95d09be2fd271fd05523f86808c42bd4dc805460ff191691151560ff16919091179055565b6200042e620002be62000f81565b60018082526020808301828152601160408501908152693f870857a3e0e3800000606086019081526126e86080870190815260a087018681525f969096525f805160206200344283398151915290945294517f6a0f406481cba950a49fb552ad586dfe3fc51beece0dc10757529ee13a04a31680546001600160a01b039283166001600160a01b03199182161790915592517f6a0f406481cba950a49fb552ad586dfe3fc51beece0dc10757529ee13a04a317805491831691851691909117905590517f6a0f406481cba950a49fb552ad586dfe3fc51beece0dc10757529ee13a04a318805491909216921691909117905591517f6a0f406481cba950a49fb552ad586dfe3fc51beece0dc10757529ee13a04a3195590517f6a0f406481cba950a49fb552ad586dfe3fc51beece0dc10757529ee13a04a31a55517f6a0f406481cba950a49fb552ad586dfe3fc51beece0dc10757529ee13a04a31b805460ff191691151560ff16919091179055565b620005ac6200043c62000f81565b60018082526020808301828152601160408501908152692a5a058fc295ed000000606086019081526126d46080870190815260a087018681525f969096525f805160206200346283398151915290945294517f95d83ce8946e6e15843843f37579584e975924554f0788119c8296ebe491047b80546001600160a01b039283166001600160a01b03199182161790915592517f95d83ce8946e6e15843843f37579584e975924554f0788119c8296ebe491047c805491831691851691909117905590517f95d83ce8946e6e15843843f37579584e975924554f0788119c8296ebe491047d805491909216921691909117905591517f95d83ce8946e6e15843843f37579584e975924554f0788119c8296ebe491047e5590517f95d83ce8946e6e15843843f37579584e975924554f0788119c8296ebe491047f55517f95d83ce8946e6e15843843f37579584e975924554f0788119c8296ebe4910480805460ff191691151560ff16919091179055565b620005b662000fa1565b69152d02c7e14af680000080825260208083018281526040840192835260046060850190815260015f525f805160206200348283398151915290925292517f95bdd5161e5869e1f42e411136c3da2e7168f1f2d7ba3877224221be2973b2085591517f95bdd5161e5869e1f42e411136c3da2e7168f1f2d7ba3877224221be2973b20955517f95bdd5161e5869e1f42e411136c3da2e7168f1f2d7ba3877224221be2973b20a55517f95bdd5161e5869e1f42e411136c3da2e7168f1f2d7ba3877224221be2973b20b556200068a62000fa1565b690cb49b44ba602d80000080825260208083018281526040840192835260046060850190815260015f525f805160206200340283398151915290925292517fce942f4159b752c2f8d61ab52dca244a01f5a8739f7c71cb4e719fcc1f1488875591517fce942f4159b752c2f8d61ab52dca244a01f5a8739f7c71cb4e719fcc1f14888855517fce942f4159b752c2f8d61ab52dca244a01f5a8739f7c71cb4e719fcc1f14888955517fce942f4159b752c2f8d61ab52dca244a01f5a8739f7c71cb4e719fcc1f14888a556200075e62000fa1565b690878678326eac900000080825260208083018281526040840192835260046060850190815260015f527f2af04f721798314fc694a46b3db9f8005ee5d928ceb0c93e438e01e3ac240ed490925292517f2a68a4d5ae5cad3762cf0f3276d342f984fdb18610e7c352e899dfede55a86415591517f2a68a4d5ae5cad3762cf0f3276d342f984fdb18610e7c352e899dfede55a864255517f2a68a4d5ae5cad3762cf0f3276d342f984fdb18610e7c352e899dfede55a864355517f2a68a4d5ae5cad3762cf0f3276d342f984fdb18610e7c352e899dfede55a864455620009b96200084862000f81565b60028082526020808301828152602260408501908152683635c9adc5dea00000606086019081526126f260808701908152600160a088019081525f969096525f805160206200342283398151915290945294517f1f2d7c7485c1895556f5eb05f4f5b173fdc3dcef99c1585d5e5b9f38240b66bd80546001600160a01b039283166001600160a01b03199182161790915592517f1f2d7c7485c1895556f5eb05f4f5b173fdc3dcef99c1585d5e5b9f38240b66be805491831691851691909117905590517f1f2d7c7485c1895556f5eb05f4f5b173fdc3dcef99c1585d5e5b9f38240b66bf805491909216921691909117905591517f1f2d7c7485c1895556f5eb05f4f5b173fdc3dcef99c1585d5e5b9f38240b66c05590517f1f2d7c7485c1895556f5eb05f4f5b173fdc3dcef99c1585d5e5b9f38240b66c155517f1f2d7c7485c1895556f5eb05f4f5b173fdc3dcef99c1585d5e5b9f38240b66c2805460ff191691151560ff16919091179055565b62000b38620009c762000f81565b60028082526020808301828152602260408501908152682b5e3af16b18800000606086019081526126f760808701908152600160a088019081525f969096525f805160206200344283398151915290945294517f029f298465675071f063e62472c8ecc3942c25aa0e6ad10ec3f68ee15fcf014380546001600160a01b039283166001600160a01b03199182161790915592517f029f298465675071f063e62472c8ecc3942c25aa0e6ad10ec3f68ee15fcf0144805491831691851691909117905590517f029f298465675071f063e62472c8ecc3942c25aa0e6ad10ec3f68ee15fcf0145805491909216921691909117905591517f029f298465675071f063e62472c8ecc3942c25aa0e6ad10ec3f68ee15fcf01465590517f029f298465675071f063e62472c8ecc3942c25aa0e6ad10ec3f68ee15fcf014755517f029f298465675071f063e62472c8ecc3942c25aa0e6ad10ec3f68ee15fcf0148805460ff191691151560ff16919091179055565b62000cb762000b4662000f81565b60028082526020808301828152602260408501908152682086ac351052600000606086019081526126ed60808701908152600160a088019081525f969096525f805160206200346283398151915290945294517f087f3cadd341aff197e2a11bb88717a5407e36bfbf298483fa799e20f49e6ab480546001600160a01b039283166001600160a01b03199182161790915592517f087f3cadd341aff197e2a11bb88717a5407e36bfbf298483fa799e20f49e6ab5805491831691851691909117905590517f087f3cadd341aff197e2a11bb88717a5407e36bfbf298483fa799e20f49e6ab6805491909216921691909117905591517f087f3cadd341aff197e2a11bb88717a5407e36bfbf298483fa799e20f49e6ab75590517f087f3cadd341aff197e2a11bb88717a5407e36bfbf298483fa799e20f49e6ab855517f087f3cadd341aff197e2a11bb88717a5407e36bfbf298483fa799e20f49e6ab9805460ff191691151560ff16919091179055565b62000cc162000fa1565b69152d02c7e14af680000080825260208083018281526040840192835260046060850190815260025f525f805160206200348283398151915290925292517f3464a2fe2e860a50a71098aa766d3746ddcbbd669b2fb701b6f49dd4511b9d4f5591517f3464a2fe2e860a50a71098aa766d3746ddcbbd669b2fb701b6f49dd4511b9d5055517f3464a2fe2e860a50a71098aa766d3746ddcbbd669b2fb701b6f49dd4511b9d5155517f3464a2fe2e860a50a71098aa766d3746ddcbbd669b2fb701b6f49dd4511b9d525562000d9562000fa1565b690cb49b44ba602d80000080825260208083018281526040840192835260046060850190815260025f525f805160206200340283398151915290925292517f086293413c334ed23d22a21c975b8216f3b28323eb87bbbfc4f15926c800bffe5591517f086293413c334ed23d22a21c975b8216f3b28323eb87bbbfc4f15926c800bfff55517f086293413c334ed23d22a21c975b8216f3b28323eb87bbbfc4f15926c800c00055517f086293413c334ed23d22a21c975b8216f3b28323eb87bbbfc4f15926c800c0015562000e6962000fa1565b690878678326eac90000008082526020808301828152604080850193845260046060860190815260025f527f2af04f721798314fc694a46b3db9f8005ee5d928ceb0c93e438e01e3ac240ed490935293517fa0b805d8e49e99f9fe4f7ac51b1e1868b5b9d5eaeb04ba62d8fb98b240eb17c855517fa0b805d8e49e99f9fe4f7ac51b1e1868b5b9d5eaeb04ba62d8fb98b240eb17c95590517fa0b805d8e49e99f9fe4f7ac51b1e1868b5b9d5eaeb04ba62d8fb98b240eb17ca55517fa0b805d8e49e99f9fe4f7ac51b1e1868b5b9d5eaeb04ba62d8fb98b240eb17cb5551612440908162000fc28239f35b634e487b7160e01b5f52604160045260245ffd5b631e4fbdf760e01b81525f6004820152602490fd5b5f80fd5b6040519060c082016001600160401b0381118382101762000f5457604052565b60405190608082016001600160401b0381118382101762000f545760405256fe608080604052600436101561001c575b50361561001a575f80fd5b005b5f3560e01c9081630127012e146119cb5750806315a3d37a146117695780631d635756146117235780631e04a56f146117015780632165cbb71461167b578063260958a51461150a57806326c35644146114ce5780633542284b146114b3578063390f41851461148a5780633bf477201461146d5780633c64f04b146113d257806344eda5a31461134a5780634a514425146112d75780635f81a57c146112ba578063715018a61461125657806379502c55146112015780637cab5d5c1461116a578063816c99de146111335780638da5cb5b1461110e5780638f20a7f7146106ab57806395ccea67146105c15780639ce3f4b2146105a4578063b1e475a51461040f578063b8b2233d14610387578063d51aa0cb14610350578063e4020804146102fb578063e77fa67614610261578063e9dd08741461023b578063f2fde38b146101935763f9e5051a14610172575f61000f565b3461018f575f36600319011261018f576020600654604051908152f35b5f80fd5b3461018f57602036600319011261018f576101ac611b04565b6101b46123f0565b6001600160a01b0380911690811561020b575f548273ffffffffffffffffffffffffffffffffffffffff198216175f55167f8be0079c531659141344cd1fd0a4f28419497f9722a3daafe3b4186f6b6457e05f80a3005b60246040517f1e4fbdf70000000000000000000000000000000000000000000000000000000081525f6004820152fd5b3461018f57602061025761024e36611e1a565b929190916122ce565b6040519015158152f35b3461018f5760e036600319011261018f5760405161027e81611b66565b60043581526020810160243581526040820160443581526060830160643581526080840191608435835260a085019360a435855260c43595861515870361018f5760c081019687526102ce6123f0565b51600a5551600b5551600c5551600d5551600e5551600f5551151560ff8019601054169116176010555f80f35b3461018f575f36600319011261018f5760ff6009541680610344575b8061032a575b6020906040519015158152f35b50602061070861033c6008544261214c565b10905061031d565b5060ff60105416610317565b3461018f57606036600319011261018f57604061037b61036e611b04565b6044359060243590612242565b82519182526020820152f35b3461018f575f36600319011261018f57604051604081019080821067ffffffffffffffff8311176103fb576103f791604052600c81527f486f702050726f746f636f6c00000000000000000000000000000000000000006020820152604051918291602083526020830190611d08565b0390f35b634e487b7160e01b5f52604160045260245ffd5b3461018f5761010036600319011261018f5760043561042c611aee565b9060c036604319011261018f5760405161044581611b2e565b6001600160a01b03604435818116810361018f57825260643591818316830361018f576020810192835260843591808316830361018f5760408201928352606082019360a4358552608083019160c435835260e43592831515840361018f577f6c009579e37dd8ec18c3e729b8ae5cfc881a45944aa06577ee70a4dbd60eb7499660c09660059460a088019687526104db6123f0565b8a5f5260016020528460405f209c169b8c5f5260205260405f2094808951169173ffffffffffffffffffffffffffffffffffffffff1992838854161787558160018801915116838254161790556002860192511690825416179055516003830155516004820155019051151560ff801983541691161790556105a1604051809260a080916001600160a01b038082511685528060208301511660208601526040820151166040850152606081015160608501526080810151608085015201511515910152565ba3005b3461018f575f36600319011261018f576020600854604051908152f35b3461018f57604036600319011261018f576105da611b04565b6024356105e56123f0565b6001600160a01b039182169182610625575f8093508092819282541682821561061c575bf11561061157005b6040513d5f823e3d90fd5b506108fc610609565b5f541690604051917fa9059cbb000000000000000000000000000000000000000000000000000000005f5260045260245260205f60448180865af160015f511481161561068c575b816040521561067857005b602491635274afe760e01b82526004820152fd5b60018115166106a257823b15153d15161661066d565b503d5f823e3d90fd5b606036600319011261018f5760043567ffffffffffffffff811161018f576106d7903690600401611bc1565b6106df611aee565b60443567ffffffffffffffff811161018f573660238201121561018f57806004013567ffffffffffffffff811161018f573691016024011161018f5760027f9b779b17422d0df92223018b32b4d1fa46e071723d6817e2486d003becc55f0054146110e45760027f9b779b17422d0df92223018b32b4d1fa46e071723d6817e2486d003becc55f005560ff60105416156110ba5760208281015160408085015160a086015160c08701519251633a77421d60e21b81526001600160a01b039485166004820152939091166024840152604483015260648201529081608481305afa908115610611575f9161108b575b5015611061576060820151600c5411611037576060820151600d541061100d5760c08201515f52600160205260405f206001600160a01b036040840151165f5260205261081d60405f20612036565b60c08301515f52600260205260405f206001600160a01b036040850151165f526020526020606061085060405f2061208e565b9201519101518082101561100657505b606083015111610fdc57606082015160a083015160c084015190604051927f484f50000000000000000000000000000000000000000000000000000000000060208501523360601b60238501526bffffffffffffffffffffffff198560601b166037850152604b840152606b830152608b8201524260ab82015260ab81526108e781611b66565b60208151910120906001600160a01b0360208401511615155f14610f72576001600160a01b03602084015116606084015190604051917f23b872dd000000000000000000000000000000000000000000000000000000005f52336004523060245260445260205f60648180855af160015f5114811615610f53575b826040525f60605215610f3e5750505b6001600160a01b03602084015116610a4f60016001600160a01b036040870151169260608701519360a08801519160c089015192805f528460205260405f20825f52602052600360405f20016109c988825461213f565b9055835f528460205260405f20835f52602052600360405f20016109ee88825461214c565b90555f52600260205260405f20905f5260205260405f20915f52600260205260405f20905f5260205260405f2090828101610a2a86825461214c565b9055610a3785825461213f565b9055610a4484825461214c565b81550191825461213f565b9055604051610a5d81611b66565b8281523360208201526001600160a01b03821660408201528360608201525f60808201524260a08201525f60c0820152825f52600360205260405f209080518255600182016001600160a01b036020830151169073ffffffffffffffffffffffffffffffffffffffff199182825416179055600283016001600160a01b036040840151168282541617905560038301906060830151916001600160a01b0383511682825416179055600484016001600160a01b036020840151168282541617905560058401906001600160a01b0360408401511690825416179055606081015160068401556080810151600784015560a0810151600884015560c0810151600984015560c060e08201518051600a8601556020810151600b8601556040810151600c8601556060810151600d8601556080810151600e86015560a0810151600f8601550151601084015561010081015180519067ffffffffffffffff82116103fb57610bcc6011860154611e53565b601f8111610efa575b50602090601f8311600114610e8a576101209392915f9183610e7f575b50508160011b915f199060031b1c19161760118501555b01516012830155608081015160138301916005821015610e6b5760159260c09260ff8019835416911617905560a081015160148501550151910155600454680100000000000000008110156103fb57806001610c689201600455611fed565b81549060031b9084821b915f19901b1916179055610c87600554612234565b600555610c9a606084015160075461213f565b600755815f526003602052601360405f2001600160ff198254161790556040519260208401838152426040860152604085526060850185811067ffffffffffffffff8211176103fb57602095606260648794846040528351902006105f14610df85750505f5260038452601360405f2001600260ff19825416179055610d22600e544261213f565b835f5260038552601560405f200155610d3c600654612234565b600655825f5260038452827ff8b93d99f828ea6dc825a1d9830dd368efbe210896261ba9ddf4b8c2db7c11df6060600760405f200154600e546040519182525f898301526040820152a25b827f56ca1441c76a98845661e51ce81568a517265ae9ab2f9871a232c11a9208a9f06001600160a01b0360405194878652169380610dc9339589830190611d46565b0390a460017f9b779b17422d0df92223018b32b4d1fa46e071723d6817e2486d003becc55f0055604051908152f35b7fede47e73e6c8536d5351df6e9a76853cc1ba236bc23132185ee92fa0afa9e7e1917f414d4d20736c697070616765206578636565646564000000000000000000000060a0606093865f5260038b52601360405f2001600360ff198254161790558a8452601560808201520152a2610d87565b634e487b7160e01b5f52602160045260245ffd5b015190508980610bf2565b90601186015f5260205f20915f5b601f1985168110610ee257509183916001936101209695601f19811610610eca575b505050811b016011850155610c09565b01515f1960f88460031b161c19169055898080610eba565b91926020600181928685015181550194019201610e98565b601186015f5260205f20601f840160051c810160208510610f37575b601f830160051c82018110610f2c575050610bd5565b5f8155600101610f16565b5080610f16565b60249250635274afe760e01b82526004820152fd5b6001811516610f6957813b15153d151616610962565b823d5f823e3d90fd5b60608301513410156109725760646040517f08c379a000000000000000000000000000000000000000000000000000000000815260206004820152601060248201527f496e73756666696369656e7420455448000000000000000000000000000000006044820152fd5b60046040517fbb55fd27000000000000000000000000000000000000000000000000000000008152fd5b9050610860565b60046040517fb44042ee000000000000000000000000000000000000000000000000000000008152fd5b60046040517f2b069ba2000000000000000000000000000000000000000000000000000000008152fd5b60046040517f5d5fe824000000000000000000000000000000000000000000000000000000008152fd5b6110ad915060203d6020116110b3575b6110a58183611b9f565b8101906120f6565b836107ce565b503d61109b565b60046040517f87cb8cfe000000000000000000000000000000000000000000000000000000008152fd5b60046040517f3ee5aeb5000000000000000000000000000000000000000000000000000000008152fd5b3461018f575f36600319011261018f5760206001600160a01b035f5416604051908152f35b3461018f57602036600319011261018f5760043560045481101561018f5761115c602091611fed565b90546040519160031b1c8152f35b3461018f5760c036600319011261018f57611183611aee565b608036604319011261018f5760036040519161119e83611b4a565b604435835260208301606435815260408401906084358252606085019260a43584526111c86123f0565b6004355f5260026020526001600160a01b0360405f2091165f5260205260405f2094518555516001850155516002840155519101555f80f35b3461018f575f36600319011261018f5760e0600a54600b54600c54600d54600e5490600f549260ff6010541694604051968752602087015260408601526060850152608084015260a0830152151560c0820152f35b3461018f575f36600319011261018f5761126e6123f0565b5f6001600160a01b03815473ffffffffffffffffffffffffffffffffffffffff1981168355167f8be0079c531659141344cd1fd0a4f28419497f9722a3daafe3b4186f6b6457e08280a3005b3461018f575f36600319011261018f576020600754604051908152f35b3461018f57604036600319011261018f576112f0611aee565b6004355f5260026020526001600160a01b0360405f2091165f5260205260405f2080546103f76001830154926003600282015491015490604051948594859094939260609260808301968352602083015260408201520152565b3461018f57604036600319011261018f5760c0611365611aee565b6004355f52600160205260405f206001600160a01b038092165f5260205260405f20908082541691816001820154169160028201541660038201549060ff6005600485015494015416936040519586526020860152604085015260608401526080830152151560a0820152f35b3461018f57602036600319011261018f576004355f52600360205260405f2080546001600160a01b0391826001820154169260028201541661141660038301611e8b565b9161145f61145460ff60138401541694601560148501549401549460405198899889526020890152604088015260e0606088015260e0870190611d46565b936080860190611e0d565b60a084015260c08301520390f35b3461018f575f36600319011261018f576020600554604051908152f35b3461018f57604036600319011261018f5760206114ab6024356004356121ca565b604051908152f35b3461018f5760206114ab6114c636611e1a565b929050612159565b3461018f57602036600319011261018f5760043580151580910361018f576114f46123f0565b60ff801960095416911617600955426008555f80f35b3461018f5760208060031936011261018f576040519061152982611b66565b5f82525f818301525f60408301525f60c06040519361154785611b82565b82855282848601528260408601528260608601528260808601528260a086015282828601526115746120c0565b60e0860152610100946060868201528361012082015260608201528260808201528260a082015201526004355f526003815260405f2091604051926115b884611b66565b805484526001600160a01b039182600183015416918486019283528360028201541691604087019283526115ee60038301611e8b565b906060880191825260ff6013840154169160808901966005841015610e6b57899581601561166b9761165f978c5260a060148201549a01998a5201549860c08d01998a528b6040519d8e9d8e5251908d0152511660408b015251166060890152519060e06080890152870190611d46565b935160a0860190611e0d565b5160c08401525160e08301520390f35b3461018f575f36600319011261018f5760055460065460075490919081156116f6576064830290838204606414841517156116e2576116bd836103f793612121565b905b604051948594859094939260609260808301968352602083015260408201520152565b634e487b7160e01b5f52601160045260245ffd5b6103f7905f906116bf565b3461018f575f36600319011261018f57602060ff600954166040519015158152f35b3461018f57602036600319011261018f5760043567ffffffffffffffff811161018f576114ab6117596020923690600401611bc1565b60c060a082015191015190612343565b3461018f5760a036600319011261018f57611782611b04565b61178a611aee565b6044359160649282843592608435906117a16120c0565b50604051633a77421d60e21b81526001600160a01b0391821660048201529216602483015260448201849052606482018190526020918281608481305afa908115610611575f916119ae575b501561106157805f52600182526001600160a01b0360405f20951694855f52825261181a60405f20612036565b94815f526002835260405f20905f52825281606061187a61183d60405f2061208e565b9361187461271061186e81611855878a01518c61210e565b0491600a5490611867600b548d61210e565b049061213f565b9061213f565b97612343565b960151910151808210156119a65750905b600554801561199d5760065490878202918083048914901517156116e2576118b291612121565b925b821561199657868102908082048814901517156116e257826118d591612121565b604681111561198a5760451981019081116116e2578681029681880414901517156116e257601e60e09604935b61190c818761213f565b90603c600e5404926040519761192189611b66565b885287015260408601526060850152608084015260a083015260c0820152611988604051809260c08091805184526020810151602085015260408101516040850152606081015160608501526080810151608085015260a081015160a08501520151910152565bf35b5060e095505f93611902565b50856118d5565b506062926118b4565b90509061188b565b6119c59150833d85116110b3576110a58183611b9f565b876117ed565b3461018f57604036600319011261018f57610140906060600435916119ee611aee565b6119f782611b2e565b5f82525f60a06020938285820152826040820152828682015282608082015201525f83604051611a2681611b4a565b82815282858201528260408201520152835f52600182526001600160a01b0360405f20911690815f52825260405f20935f526002825260405f20905f528152611a7b611a7560405f2094612036565b9361208e565b90611aca604051809560a080916001600160a01b038082511685528060208301511660208601526040820151166040850152606081015160608501526080810151608085015201511515910152565b815160c085015281015160e084015260408101516101008401520151610120820152f35b602435906001600160a01b038216820361018f57565b600435906001600160a01b038216820361018f57565b35906001600160a01b038216820361018f57565b60c0810190811067ffffffffffffffff8211176103fb57604052565b6080810190811067ffffffffffffffff8211176103fb57604052565b60e0810190811067ffffffffffffffff8211176103fb57604052565b610140810190811067ffffffffffffffff8211176103fb57604052565b90601f8019910116810190811067ffffffffffffffff8211176103fb57604052565b919091808303610200811261018f57604090815192611bdf84611b82565b8395611bea82611b1a565b855260e0602093611bfc858501611b1a565b85880152611c0b868501611b1a565b86880152606084013560608801526080840135608088015260a084013560a088015260c084013560c088015260df19011261018f57835193611c4c85611b66565b60e083013585526101009081840135858701526101209586850135828201526101408501356060820152610160850135608082015261018085013560a08201526101a085013560c082015260e08801526101c08401359467ffffffffffffffff9586811161018f5785019184601f8401121561018f5782359687116103fb575193611ce0601f8801601f1916830186611b9f565b86855281878401011161018f57856101e096825f940183870137840101528501520135910152565b91908251928382525f5b848110611d32575050825f602080949584010152601f8019910116010190565b602081830181015184830182015201611d12565b906101e0610120611e046102006001600160a01b038087511686528060208801511660208701526040870151166040860152606086015160608601526080860151608086015260a086015160a086015260c086015160c0860152611dee60e087015160e087019060c08091805184526020810151602085015260408101516040850152606081015160608501526080810151608085015260a081015160a08501520151910152565b61010086015190806101c0870152850190611d08565b93015191015290565b906005821015610e6b5752565b608090600319011261018f576001600160a01b0390600435828116810361018f5791602435908116810361018f57906044359060643590565b90600182811c92168015611e81575b6020831014611e6d57565b634e487b7160e01b5f52602260045260245ffd5b91607f1691611e62565b90604051611e9881611b82565b80926001600160a01b03808254168352600181600184015416916020928386015260028401541660408501526003830154606085015260048301546080850152600583015460a0850152600683015460c0850152604051611ef881611b66565b6007840154815260088401548382015260098401546040820152600a8401546060820152600b8401546080820152600c84015460a0820152600d84015460c082015260e0850152600e830191604051925f92815491611f5683611e53565b8087529260018116908115611fcb5750600114611f92575b505050509181611f85600f93610120950382611b9f565b6101008501520154910152565b5f908152838120939450925b828410611fb85750505082010181611f8581610120611f6e565b8054868501860152928401928101611f9e565b60ff191685880152505050151560051b830101905081611f8581610120611f6e565b6004548110156120225760045f527f8a35acfbc15ff81a39ae7d344fd709f28e8600b4aa8c65c6b64bfe7fe36bd19b01905f90565b634e487b7160e01b5f52603260045260245ffd5b9060405161204381611b2e565b60a060ff600583956001600160a01b03808254168652806001830154166020870152600282015416604086015260038101546060860152600481015460808601520154161515910152565b9060405161209b81611b4a565b6060600382948054845260018101546020850152600281015460408501520154910152565b604051906120cd82611b66565b5f60c0838281528260208201528260408201528260608201528260808201528260a08201520152565b9081602091031261018f5751801515810361018f5790565b818102929181159184041417156116e257565b811561212b570490565b634e487b7160e01b5f52601260045260245ffd5b919082018092116116e257565b919082039182116116e257565b6001600160a01b0380921691829116036121c457815f52600160205260405f20815f5260205261218b60405f20612036565b915f52600260205260405f20905f52602052602060606121ad60405f2061208e565b920151910151808210156121bf575090565b905090565b50505f90565b62aa36a781148080612228575b6122205780612214575b61220d5762066eee149081612200575b506121fb57606290565b606390565b620138819150145f6121f1565b5050606290565b506201388182146121e1565b505050606390565b5062066eee83146121d7565b5f1981146116e25760010190565b905f5260016020526001600160a01b0360405f20911690815f5260205261226b60405f20612036565b915f52600160205260405f20905f5260205260a061228b60405f20612036565b9101511580156122c2575b6122bb5760600151600d54808210156122b35750905b600c549190565b9050906122ac565b505f905f90565b5060a081015115612296565b6001600160a01b039182169291169082820361233b575f52600160205260405f20905f5260205261230160405f20612036565b915f52600160205260405f20905f5260205260a061232160405f20612036565b91015115159081612330575090565b60a091500151151590565b505050505f90565b9062aa36a78083036123885750905062066eee811461237c576201388114612371575b66071afd498d000090565b6608e1bc9bf0400090565b5066071afd498d000090565b62066eee928084036123be575090809250146123b2576201388103612366576605543df729c00090565b506602d79883d2000090565b62013881146123d0575b505050612366565b81146123e35714612366575f80806123c8565b5050660aa87bee53800090565b6001600160a01b035f5416330361240357565b60246040517f118cdaa7000000000000000000000000000000000000000000000000000000008152336004820152fdfea164736f6c6343000818000af5bfa79321a657aaa0339aa7944ec820e285a16766fc7a85e446ff3fdf2081b4d0ca2b9e48613413ba8bd488b2bc9928edc96f8f17ec2af94a885da5292afebbc9f67f25c901b9944d4f155866de98249444082c5aef4a85958cd69c7d860ab1a8c57e13d49dd6e2870c5d5f809130d4d18970dd320604381d96a20d80a714f4e11a92942536b845da9a1f431f37793176a4b22e5871c079dbb83bc320163350","linkReferences":{}},"methodIdentifiers":{"ammPools(uint256,address)":"4a514425","config()":"79502c55","emergencyWithdraw(address,uint256)":"95ccea67","estimateGas((address,address,address,uint256,uint256,uint256,uint256,(uint256,uint256,uint256,uint256,uint256,uint256,uint256),bytes,uint256))":"1d635756","executeBridge((address,address,address,uint256,uint256,uint256,uint256,(uint256,uint256,uint256,uint256,uint256,uint256,uint256),bytes,uint256),address,bytes)":"8f20a7f7","getAvailableLiquidity(address,address,uint256,uint256)":"3542284b","getBridgeName()":"b8b2233d","getBridgeStats()":"2165cbb7","getHopBridgeInfo(uint256,address)":"0127012e","getRouteMetrics(address,address,uint256,uint256,uint256)":"15a3d37a","getSuccessRate(uint256,uint256)":"390f4185","getTransfer(bytes32)":"260958a5","getTransferLimits(address,uint256,uint256)":"d51aa0cb","healthyStatus()":"1e04a56f","hopBridges(uint256,address)":"44eda5a3","isHealthy()":"e4020804","lastHealthCheck()":"9ce3f4b2","owner()":"8da5cb5b","renounceOwnership()":"715018a6","successfulTransfers()":"f9e5051a","supportsRoute(address,address,uint256,uint256)":"e9dd0874","totalTransfers()":"3bf47720","totalVolume()":"5f81a57c","transferHistory(uint256)":"816c99de","transferOwnership(address)":"f2fde38b","transfers(bytes32)":"3c64f04b","updateAmmPool(uint256,address,(uint256,uint256,uint256,uint256))":"7cab5d5c","updateConfig((uint256,uint256,uint256,uint256,uint256,uint256,bool))":"e77fa676","updateHealthStatus(bool)":"26c35644","updateHopBridge(uint256,address,(address,address,address,uint256,uint256,bool))":"b1e475a5"},"storageLayout":{"storage":[{"astId":40138,"contract":"src/adapters/HopProtocolAdapter.sol:HopProtocolAdapter","label":"_owner","offset":0,"slot":"0","type":"t_address"},{"astId":56613,"contract":"src/adapters/HopProtocolAdapter.sol:HopProtocolAdapter","label":"hopBridges","offset":0,"slot":"1","type":"t_mapping(t_uint256,t_mapping(t_address,t_struct(HopBridge)56595_storage))"},{"astId":56620,"contract":"src/adapters/HopProtocolAdapter.sol:HopProtocolAdapter","label":"ammPools","offset":0,"slot":"2","type":"t_mapping(t_uint256,t_mapping(t_address,t_struct(AmmPool)56605_storage))"},{"astId":56625,"contract":"src/adapters/HopProtocolAdapter.sol:HopProtocolAdapter","label":"transfers","offset":0,"slot":"3","type":"t_mapping(t_bytes32,t_struct(Transfer)67618_storage)"},{"astId":56628,"contract":"src/adapters/HopProtocolAdapter.sol:HopProtocolAdapter","label":"transferHistory","offset":0,"slot":"4","type":"t_array(t_bytes32)dyn_storage"},{"astId":56631,"contract":"src/adapters/HopProtocolAdapter.sol:HopProtocolAdapter","label":"totalTransfers","offset":0,"slot":"5","type":"t_uint256"},{"astId":56633,"contract":"src/adapters/HopProtocolAdapter.sol:HopProtocolAdapter","label":"successfulTransfers","offset":0,"slot":"6","type":"t_uint256"},{"astId":56635,"contract":"src/adapters/HopProtocolAdapter.sol:HopProtocolAdapter","label":"totalVolume","offset":0,"slot":"7","type":"t_uint256"},{"astId":56637,"contract":"src/adapters/HopProtocolAdapter.sol:HopProtocolAdapter","label":"lastHealthCheck","offset":0,"slot":"8","type":"t_uint256"},{"astId":56640,"contract":"src/adapters/HopProtocolAdapter.sol:HopProtocolAdapter","label":"healthyStatus","offset":0,"slot":"9","type":"t_bool"},{"astId":56659,"contract":"src/adapters/HopProtocolAdapter.sol:HopProtocolAdapter","label":"config","offset":0,"slot":"10","type":"t_struct(BridgeConfig)56656_storage"}],"types":{"t_address":{"encoding":"inplace","label":"address","numberOfBytes":"20"},"t_array(t_bytes32)dyn_storage":{"encoding":"dynamic_array","label":"bytes32[]","numberOfBytes":"32","base":"t_bytes32"},"t_bool":{"encoding":"inplace","label":"bool","numberOfBytes":"1"},"t_bytes32":{"encoding":"inplace","label":"bytes32","numberOfBytes":"32"},"t_bytes_storage":{"encoding":"bytes","label":"bytes","numberOfBytes":"32"},"t_enum(TransferStatus)67600":{"encoding":"inplace","label":"enum IBridgeAdapter.TransferStatus","numberOfBytes":"1"},"t_mapping(t_address,t_struct(AmmPool)56605_storage)":{"encoding":"mapping","key":"t_address","label":"mapping(address => struct HopProtocolAdapter.AmmPool)","numberOfBytes":"32","value":"t_struct(AmmPool)56605_storage"},"t_mapping(t_address,t_struct(HopBridge)56595_storage)":{"encoding":"mapping","key":"t_address","label":"mapping(address => struct HopProtocolAdapter.HopBridge)","numberOfBytes":"32","value":"t_struct(HopBridge)56595_storage"},"t_mapping(t_bytes32,t_struct(Transfer)67618_storage)":{"encoding":"mapping","key":"t_bytes32","label":"mapping(bytes32 => struct IBridgeAdapter.Transfer)","numberOfBytes":"32","value":"t_struct(Transfer)67618_storage"},"t_mapping(t_uint256,t_mapping(t_address,t_struct(AmmPool)56605_storage))":{"encoding":"mapping","key":"t_uint256","label":"mapping(uint256 => mapping(address => struct HopProtocolAdapter.AmmPool))","numberOfBytes":"32","value":"t_mapping(t_address,t_struct(AmmPool)56605_storage)"},"t_mapping(t_uint256,t_mapping(t_address,t_struct(HopBridge)56595_storage))":{"encoding":"mapping","key":"t_uint256","label":"mapping(uint256 => mapping(address => struct HopProtocolAdapter.HopBridge))","numberOfBytes":"32","value":"t_mapping(t_address,t_struct(HopBridge)56595_storage)"},"t_struct(AmmPool)56605_storage":{"encoding":"inplace","label":"struct HopProtocolAdapter.AmmPool","numberOfBytes":"128","members":[{"astId":56598,"contract":"src/adapters/HopProtocolAdapter.sol:HopProtocolAdapter","label":"hopTokenReserve","offset":0,"slot":"0","type":"t_uint256"},{"astId":56600,"contract":"src/adapters/HopProtocolAdapter.sol:HopProtocolAdapter","label":"canonicalReserve","offset":0,"slot":"1","type":"t_uint256"},{"astId":56602,"contract":"src/adapters/HopProtocolAdapter.sol:HopProtocolAdapter","label":"totalLiquidity","offset":0,"slot":"2","type":"t_uint256"},{"astId":56604,"contract":"src/adapters/HopProtocolAdapter.sol:HopProtocolAdapter","label":"feeRate","offset":0,"slot":"3","type":"t_uint256"}]},"t_struct(BridgeConfig)56656_storage":{"encoding":"inplace","label":"struct HopProtocolAdapter.BridgeConfig","numberOfBytes":"224","members":[{"astId":56643,"contract":"src/adapters/HopProtocolAdapter.sol:HopProtocolAdapter","label":"baseFee","offset":0,"slot":"0","type":"t_uint256"},{"astId":56645,"contract":"src/adapters/HopProtocolAdapter.sol:HopProtocolAdapter","label":"feePercentage","offset":0,"slot":"1","type":"t_uint256"},{"astId":56647,"contract":"src/adapters/HopProtocolAdapter.sol:HopProtocolAdapter","label":"minTransferAmount","offset":0,"slot":"2","type":"t_uint256"},{"astId":56649,"contract":"src/adapters/HopProtocolAdapter.sol:HopProtocolAdapter","label":"maxTransferAmount","offset":0,"slot":"3","type":"t_uint256"},{"astId":56651,"contract":"src/adapters/HopProtocolAdapter.sol:HopProtocolAdapter","label":"avgCompletionTime","offset":0,"slot":"4","type":"t_uint256"},{"astId":56653,"contract":"src/adapters/HopProtocolAdapter.sol:HopProtocolAdapter","label":"bondingPeriod","offset":0,"slot":"5","type":"t_uint256"},{"astId":56655,"contract":"src/adapters/HopProtocolAdapter.sol:HopProtocolAdapter","label":"isActive","offset":0,"slot":"6","type":"t_bool"}]},"t_struct(HopBridge)56595_storage":{"encoding":"inplace","label":"struct HopProtocolAdapter.HopBridge","numberOfBytes":"192","members":[{"astId":56584,"contract":"src/adapters/HopProtocolAdapter.sol:HopProtocolAdapter","label":"l1Token","offset":0,"slot":"0","type":"t_address"},{"astId":56586,"contract":"src/adapters/HopProtocolAdapter.sol:HopProtocolAdapter","label":"l2Token","offset":0,"slot":"1","type":"t_address"},{"astId":56588,"contract":"src/adapters/HopProtocolAdapter.sol:HopProtocolAdapter","label":"hopToken","offset":0,"slot":"2","type":"t_address"},{"astId":56590,"contract":"src/adapters/HopProtocolAdapter.sol:HopProtocolAdapter","label":"liquidityPool","offset":0,"slot":"3","type":"t_uint256"},{"astId":56592,"contract":"src/adapters/HopProtocolAdapter.sol:HopProtocolAdapter","label":"bondingCurveRate","offset":0,"slot":"4","type":"t_uint256"},{"astId":56594,"contract":"src/adapters/HopProtocolAdapter.sol:HopProtocolAdapter","label":"isActive","offset":0,"slot":"5","type":"t_bool"}]},"t_struct(Route)67593_storage":{"encoding":"inplace","label":"struct IBridgeAdapter.Route","numberOfBytes":"512","members":[{"astId":67573,"contract":"src/adapters/HopProtocolAdapter.sol:HopProtocolAdapter","label":"adapter","offset":0,"slot":"0","type":"t_address"},{"astId":67575,"contract":"src/adapters/HopProtocolAdapter.sol:HopProtocolAdapter","label":"tokenIn","offset":0,"slot":"1","type":"t_address"},{"astId":67577,"contract":"src/adapters/HopProtocolAdapter.sol:HopProtocolAdapter","label":"tokenOut","offset":0,"slot":"2","type":"t_address"},{"astId":67579,"contract":"src/adapters/HopProtocolAdapter.sol:HopProtocolAdapter","label":"amountIn","offset":0,"slot":"3","type":"t_uint256"},{"astId":67581,"contract":"src/adapters/HopProtocolAdapter.sol:HopProtocolAdapter","label":"amountOut","offset":0,"slot":"4","type":"t_uint256"},{"astId":67583,"contract":"src/adapters/HopProtocolAdapter.sol:HopProtocolAdapter","label":"srcChainId","offset":0,"slot":"5","type":"t_uint256"},{"astId":67585,"contract":"src/adapters/HopProtocolAdapter.sol:HopProtocolAdapter","label":"dstChainId","offset":0,"slot":"6","type":"t_uint256"},{"astId":67588,"contract":"src/adapters/HopProtocolAdapter.sol:HopProtocolAdapter","label":"metrics","offset":0,"slot":"7","type":"t_struct(RouteMetrics)67570_storage"},{"astId":67590,"contract":"src/adapters/HopProtocolAdapter.sol:HopProtocolAdapter","label":"adapterData","offset":0,"slot":"14","type":"t_bytes_storage"},{"astId":67592,"contract":"src/adapters/HopProtocolAdapter.sol:HopProtocolAdapter","label":"deadline","offset":0,"slot":"15","type":"t_uint256"}]},"t_struct(RouteMetrics)67570_storage":{"encoding":"inplace","label":"struct IBridgeAdapter.RouteMetrics","numberOfBytes":"224","members":[{"astId":67557,"contract":"src/adapters/HopProtocolAdapter.sol:HopProtocolAdapter","label":"estimatedGasCost","offset":0,"slot":"0","type":"t_uint256"},{"astId":67559,"contract":"src/adapters/HopProtocolAdapter.sol:HopProtocolAdapter","label":"bridgeFee","offset":0,"slot":"1","type":"t_uint256"},{"astId":67561,"contract":"src/adapters/HopProtocolAdapter.sol:HopProtocolAdapter","label":"totalCostWei","offset":0,"slot":"2","type":"t_uint256"},{"astId":67563,"contract":"src/adapters/HopProtocolAdapter.sol:HopProtocolAdapter","label":"estimatedTimeMinutes","offset":0,"slot":"3","type":"t_uint256"},{"astId":67565,"contract":"src/adapters/HopProtocolAdapter.sol:HopProtocolAdapter","label":"liquidityAvailable","offset":0,"slot":"4","type":"t_uint256"},{"astId":67567,"contract":"src/adapters/HopProtocolAdapter.sol:HopProtocolAdapter","label":"successRate","offset":0,"slot":"5","type":"t_uint256"},{"astId":67569,"contract":"src/adapters/HopProtocolAdapter.sol:HopProtocolAdapter","label":"congestionLevel","offset":0,"slot":"6","type":"t_uint256"}]},"t_struct(Transfer)67618_storage":{"encoding":"inplace","label":"struct IBridgeAdapter.Transfer","numberOfBytes":"704","members":[{"astId":67603,"contract":"src/adapters/HopProtocolAdapter.sol:HopProtocolAdapter","label":"transferId","offset":0,"slot":"0","type":"t_bytes32"},{"astId":67605,"contract":"src/adapters/HopProtocolAdapter.sol:HopProtocolAdapter","label":"sender","offset":0,"slot":"1","type":"t_address"},{"astId":67607,"contract":"src/adapters/HopProtocolAdapter.sol:HopProtocolAdapter","label":"recipient","offset":0,"slot":"2","type":"t_address"},{"astId":67610,"contract":"src/adapters/HopProtocolAdapter.sol:HopProtocolAdapter","label":"route","offset":0,"slot":"3","type":"t_struct(Route)67593_storage"},{"astId":67613,"contract":"src/adapters/HopProtocolAdapter.sol:HopProtocolAdapter","label":"status","offset":0,"slot":"19","type":"t_enum(TransferStatus)67600"},{"astId":67615,"contract":"src/adapters/HopProtocolAdapter.sol:HopProtocolAdapter","label":"initiatedAt","offset":0,"slot":"20","type":"t_uint256"},{"astId":67617,"contract":"src/adapters/HopProtocolAdapter.sol:HopProtocolAdapter","label":"completedAt","offset":0,"slot":"21","type":"t_uint256"}]},"t_uint256":{"encoding":"inplace","label":"uint256","numberOfBytes":"32"}}},"id":56}