{"abi":[{"type":"constructor","inputs":[{"name":"_decimals","type":"uint8","internalType":"uint8"},{"name":"_description","type":"string","internalType":"string"},{"name":"_initialPrice","type":"int256","internalType":"int256"}],"stateMutability":"nonpayable"},{"type":"function","name":"batchUpdatePrices","inputs":[{"name":"_prices","type":"int256[]","internalType":"int256[]"},{"name":"_timestamps","type":"uint256[]","internalType":"uint256[]"}],"outputs":[],"stateMutability":"nonpayable"},{"type":"function","name":"checkStaleness","inputs":[],"outputs":[{"name":"isStale","type":"bool","internalType":"bool"},{"name":"staleness","type":"uint256","internalType":"uint256"}],"stateMutability":"view"},{"type":"function","name":"currentRoundData","inputs":[],"outputs":[{"name":"roundId","type":"uint80","internalType":"uint80"},{"name":"answer","type":"int256","internalType":"int256"},{"name":"startedAt","type":"uint256","internalType":"uint256"},{"name":"updatedAt","type":"uint256","internalType":"uint256"},{"name":"answeredInRound","type":"uint80","internalType":"uint80"}],"stateMutability":"view"},{"type":"function","name":"currentRoundId","inputs":[],"outputs":[{"name":"","type":"uint80","internalType":"uint80"}],"stateMutability":"view"},{"type":"function","name":"decimals","inputs":[],"outputs":[{"name":"","type":"uint8","internalType":"uint8"}],"stateMutability":"view"},{"type":"function","name":"description","inputs":[],"outputs":[{"name":"","type":"string","internalType":"string"}],"stateMutability":"view"},{"type":"function","name":"getFeedConfig","inputs":[],"outputs":[{"name":"feedDecimals","type":"uint8","internalType":"uint8"},{"name":"feedDescription","type":"string","internalType":"string"},{"name":"feedVersion","type":"uint256","internalType":"uint256"},{"name":"feedActive","type":"bool","internalType":"bool"},{"name":"currentRound","type":"uint256","internalType":"uint256"},{"name":"historyLength","type":"uint256","internalType":"uint256"}],"stateMutability":"view"},{"type":"function","name":"getPriceHistory","inputs":[],"outputs":[{"name":"prices","type":"int256[]","internalType":"int256[]"}],"stateMutability":"view"},{"type":"function","name":"getPriceStatistics","inputs":[],"outputs":[{"name":"min","type":"int256","internalType":"int256"},{"name":"max","type":"int256","internalType":"int256"},{"name":"avg","type":"int256","internalType":"int256"},{"name":"current","type":"int256","internalType":"int256"}],"stateMutability":"view"},{"type":"function","name":"getRoundData","inputs":[{"name":"_roundId","type":"uint80","internalType":"uint80"}],"outputs":[{"name":"roundId","type":"uint80","internalType":"uint80"},{"name":"answer","type":"int256","internalType":"int256"},{"name":"startedAt","type":"uint256","internalType":"uint256"},{"name":"updatedAt","type":"uint256","internalType":"uint256"},{"name":"answeredInRound","type":"uint80","internalType":"uint80"}],"stateMutability":"view"},{"type":"function","name":"isActive","inputs":[],"outputs":[{"name":"","type":"bool","internalType":"bool"}],"stateMutability":"view"},{"type":"function","name":"lastVolatilityUpdate","inputs":[],"outputs":[{"name":"","type":"uint256","internalType":"uint256"}],"stateMutability":"view"},{"type":"function","name":"latestRoundData","inputs":[],"outputs":[{"name":"roundId","type":"uint80","internalType":"uint80"},{"name":"answer","type":"int256","internalType":"int256"},{"name":"startedAt","type":"uint256","internalType":"uint256"},{"name":"updatedAt","type":"uint256","internalType":"uint256"},{"name":"answeredInRound","type":"uint80","internalType":"uint80"}],"stateMutability":"view"},{"type":"function","name":"maxHistoryLength","inputs":[],"outputs":[{"name":"","type":"uint256","internalType":"uint256"}],"stateMutability":"view"},{"type":"function","name":"owner","inputs":[],"outputs":[{"name":"","type":"address","internalType":"address"}],"stateMutability":"view"},{"type":"function","name":"priceDeviationBps","inputs":[],"outputs":[{"name":"","type":"uint256","internalType":"uint256"}],"stateMutability":"view"},{"type":"function","name":"priceHistory","inputs":[{"name":"","type":"uint256","internalType":"uint256"}],"outputs":[{"name":"","type":"int256","internalType":"int256"}],"stateMutability":"view"},{"type":"function","name":"renounceOwnership","inputs":[],"outputs":[],"stateMutability":"nonpayable"},{"type":"function","name":"reset","inputs":[{"name":"_initialPrice","type":"int256","internalType":"int256"}],"outputs":[],"stateMutability":"nonpayable"},{"type":"function","name":"rounds","inputs":[{"name":"","type":"uint80","internalType":"uint80"}],"outputs":[{"name":"roundId","type":"uint80","internalType":"uint80"},{"name":"answer","type":"int256","internalType":"int256"},{"name":"startedAt","type":"uint256","internalType":"uint256"},{"name":"updatedAt","type":"uint256","internalType":"uint256"},{"name":"answeredInRound","type":"uint80","internalType":"uint80"}],"stateMutability":"view"},{"type":"function","name":"setActive","inputs":[{"name":"_isActive","type":"bool","internalType":"bool"}],"outputs":[],"stateMutability":"nonpayable"},{"type":"function","name":"setPriceDeviation","inputs":[{"name":"_deviationBps","type":"uint256","internalType":"uint256"}],"outputs":[],"stateMutability":"nonpayable"},{"type":"function","name":"setShouldReturnStaleData","inputs":[{"name":"_shouldReturnStale","type":"bool","internalType":"bool"}],"outputs":[],"stateMutability":"nonpayable"},{"type":"function","name":"setShouldRevert","inputs":[{"name":"_shouldRevert","type":"bool","internalType":"bool"}],"outputs":[],"stateMutability":"nonpayable"},{"type":"function","name":"setStalenessThreshold","inputs":[{"name":"_threshold","type":"uint256","internalType":"uint256"}],"outputs":[],"stateMutability":"nonpayable"},{"type":"function","name":"setVolatility","inputs":[{"name":"_enabled","type":"bool","internalType":"bool"},{"name":"_percentage","type":"uint256","internalType":"uint256"},{"name":"_interval","type":"uint256","internalType":"uint256"}],"outputs":[],"stateMutability":"nonpayable"},{"type":"function","name":"shouldReturnStaleData","inputs":[],"outputs":[{"name":"","type":"bool","internalType":"bool"}],"stateMutability":"view"},{"type":"function","name":"shouldRevert","inputs":[],"outputs":[{"name":"","type":"bool","internalType":"bool"}],"stateMutability":"view"},{"type":"function","name":"simulateNetworkDelay","inputs":[{"name":"_delaySeconds","type":"uint256","internalType":"uint256"}],"outputs":[],"stateMutability":"nonpayable"},{"type":"function","name":"simulatePriceCrash","inputs":[{"name":"_crashPercentage","type":"uint256","internalType":"uint256"}],"outputs":[],"stateMutability":"nonpayable"},{"type":"function","name":"simulatePricePump","inputs":[{"name":"_pumpPercentage","type":"uint256","internalType":"uint256"}],"outputs":[],"stateMutability":"nonpayable"},{"type":"function","name":"stalenessThreshold","inputs":[],"outputs":[{"name":"","type":"uint256","internalType":"uint256"}],"stateMutability":"view"},{"type":"function","name":"transferOwnership","inputs":[{"name":"newOwner","type":"address","internalType":"address"}],"outputs":[],"stateMutability":"nonpayable"},{"type":"function","name":"updatePrice","inputs":[{"name":"_price","type":"int256","internalType":"int256"}],"outputs":[],"stateMutability":"nonpayable"},{"type":"function","name":"version","inputs":[],"outputs":[{"name":"","type":"uint256","internalType":"uint256"}],"stateMutability":"view"},{"type":"function","name":"volatilityEnabled","inputs":[],"outputs":[{"name":"","type":"bool","internalType":"bool"}],"stateMutability":"view"},{"type":"function","name":"volatilityInterval","inputs":[],"outputs":[{"name":"","type":"uint256","internalType":"uint256"}],"stateMutability":"view"},{"type":"function","name":"volatilityPercentage","inputs":[],"outputs":[{"name":"","type":"uint256","internalType":"uint256"}],"stateMutability":"view"},{"type":"event","name":"AnswerUpdated","inputs":[{"name":"current","type":"int256","indexed":true,"internalType":"int256"},{"name":"roundId","type":"uint256","indexed":true,"internalType":"uint256"},{"name":"updatedAt","type":"uint256","indexed":false,"internalType":"uint256"}],"anonymous":false},{"type":"event","name":"ConfigUpdated","inputs":[{"name":"parameter","type":"string","indexed":false,"internalType":"string"},{"name":"value","type":"uint256","indexed":false,"internalType":"uint256"}],"anonymous":false},{"type":"event","name":"NewRound","inputs":[{"name":"roundId","type":"uint256","indexed":true,"internalType":"uint256"},{"name":"startedBy","type":"address","indexed":true,"internalType":"address"},{"name":"startedAt","type":"uint256","indexed":false,"internalType":"uint256"}],"anonymous":false},{"type":"event","name":"OwnershipTransferred","inputs":[{"name":"previousOwner","type":"address","indexed":true,"internalType":"address"},{"name":"newOwner","type":"address","indexed":true,"internalType":"address"}],"anonymous":false},{"type":"error","name":"InvalidRoundId","inputs":[]},{"type":"error","name":"OwnableInvalidOwner","inputs":[{"name":"owner","type":"address","internalType":"address"}]},{"type":"error","name":"OwnableUnauthorizedAccount","inputs":[{"name":"account","type":"address","internalType":"address"}]},{"type":"error","name":"PriceFeedInactive","inputs":[]},{"type":"error","name":"RoundNotComplete","inputs":[]},{"type":"error","name":"StalePrice","inputs":[]}],"bytecode":{"object":"0x60806040818152346200057a576200209b80380380916200002182866200057e565b84398201916060818403126200057a5780519060ff821682036200057a5760208181015190926001600160401b03918281116200057a57830192601f908782860112156200057a5784518481116200041b57601f19958851996200008c898987860116018c6200057e565b828b528883830101116200057a5788929188915f5b82811062000562575050905f918b01015201519333156200054b575f54913360018060a01b0384167f8be0079c531659141344cd1fd0a4f28419497f9722a3daafe3b4186f6b6457e05f80a3600160028190556009805462ffffff191682179055610e10600a555f600b819055600c80546001600160501b031990811684179091556064600e55600f805460ff191690556101f460105561012c6012556001600160a81b03199095163360ff60a01b19161760a09690961b60ff60a01b16959095179094558851929392918583116200041b5783548481811c9116801562000540575b898210146200052c57828111620004e4575b508791831160011462000482575081929394959697985f9262000476575b50505f19600383901b1c191690821b1781555b8360ff600f5416806200045c575b62000443575b50600c546001600160501b039384821692918386146200042f5784169282018516928317600c558751929360a08401918211848310176200041b57858786958a948c528681528b858201838152818301904282528560608501934285526008608087019a8d8c5260039d8b600354161760035560049e8f998a554260055542600655808c60075416176007555f52525f209451168785541617845551888401555160028301555160038201550192511690825416179055600d918254680100000000000000008110156200040857620002d4620002be82858a94018755620005a2565b819391549060031b91821b915f19901b19161790565b90558254600e54106200034c575b50505050600c541680917f0559884fd3a460db3073b7fc896cc77986f16e378210ded43186175bf646fc5f848651428152a37f0109fc6f55cf40689f02fbaad7af7fe7bbac8a3d2186600afc7d3e10cac602718351924284523393a351611a299081620006728239f35b5f825b6200039f575b50505080549182156200038c57505f19918201916200037483620005a2565b909182549160031b1b19169055555f808080620002e2565b603190634e487b7160e01b5f525260245ffd5b83545f198101908111620003ef578110156200040257828101808211620003ef57839291620003cf8492620005a2565b905490841b1c620003e4620002be83620005a2565b90550190916200034f565b601186634e487b7160e01b5f525260245ffd5b62000355565b604185634e487b7160e01b5f525260245ffd5b634e487b7160e01b5f52604160045260245ffd5b634e487b7160e01b5f52601160045260245ffd5b62000450919450620005cf565b92426011555f620001db565b5060115460125481018091116200042f57421015620001d5565b015190505f80620001b4565b821690835f52875f20915f5b818110620004ce5750998385969798999a9b10620004b5575b505050811b018155620001c7565b01515f1960f88460031b161c191690555f8080620004a7565b8b8301518455928501929189019189016200048e565b845f52885f208380860160051c8201928b871062000522575b0160051c019085905b8281106200051657505062000196565b5f815501859062000506565b92508192620004fd565b634e487b7160e01b5f52602260045260245ffd5b90607f169062000184565b8651631e4fbdf760e01b81525f6004820152602490fd5b8181018401518d82018501528b95508a9301620000a1565b5f80fd5b601f909101601f19168101906001600160401b038211908210176200041b57604052565b600d54811015620005bb57600d5f5260205f2001905f90565b634e487b7160e01b5f52603260045260245ffd5b6010549081156200066c576040516020810190428252446040820152826060820152606081526080810181811060018060401b038211176200041b5760405261271091829151902006928306908183029183830414831517156200042f5790049160011662000652575f82820192831291129080158216911516176200042f5790565b5f82820392128183128116918313901516176200042f5790565b90509056fe60406080815260049081361015610014575f80fd5b5f3560e01c806309b1d3b6146111565780631b1c12651461112257806322f3e2d4146110ff57806324c3c861146110dc5780632ede662f14611056578063313ce5671461103357806339cbe9e5146110155780633f2fb3be14610f7557806354fd4d5014610f57578063659ff79914610f395780636813d78714610e8f578063715018a614610e1e5780637284e41614610dee578063768a612914610dd0578063847c8a5314610db25780638d367fc014610bba5780638da5cb5b14610b87578063929f037914610ad757806394e82eb914610a675780639a6fc8f5146109275780639cbe5efd14610900578063a84f6ebb146108e2578063acec338a1461083e578063adecd71414610772578063b27a04841461073a578063b5aaeae9146106e9578063b6e8597b14610699578063c8931eed1461066a578063d3072d8214610644578063d4c19bda14610620578063e7196b2914610599578063eaf70d7814610573578063f2fde38b146104ba578063f31f93881461040e578063f865895c14610380578063fb01e7f214610302578063fc1906f6146102e45763feaf968c146101be575f80fd5b346102e0575f3660031901126102e05760095460ff8160081c166102d25760ff8116156102d2578151916101f1836112e4565b6001600160501b039182600354168452845494602085019586526005549383860194855260065491606087019280845260ff83600754169560808a0196875260101c169081156102bd575b5061029657508061025261029296979851611944565b9751169551915192511692519586958693608093969591929660a08601976001600160501b03809516875260208701526040860152606085015216910152565b0390f35b84517f19abf40e000000000000000000000000000000000000000000000000000000008152fd5b6102c891504261165c565b600a54105f61023c565b5051630fbe60cf60e11b8152fd5b5f80fd5b50346102e0575f3660031901126102e0576020906010549051908152f35b5090346102e05760203660031901126102e0577f12c9dccd129ff783f1c8228eacdfa8e334ddecb7ec5c9a79ec662a4aed3d012a91608091356103436116a3565b80600a5560128251928084528301527f7374616c656e6573735468726573686f6c64000000000000000000000000000060608301526020820152a1005b5090346102e05760203660031901126102e05780359161039e6116a3565b61232883116103cb576103c96103c4846127106103bd86549283611669565b059061168b565b6116f3565b005b906020606492519162461bcd60e51b8352820152601060248201527f437261736820746f6f20736576657265000000000000000000000000000000006044820152fd5b50346102e05760203660031901126102e05760807f12c9dccd129ff783f1c8228eacdfa8e334ddecb7ec5c9a79ec662a4aed3d012a9161044c6112d5565b6104546116a3565b60095462ff000082151560101b169062ff00001916176009555f146104b25760ff60015b60158351938085528401527f73686f756c6452657475726e5374616c654461746100000000000000000000006060840152166020820152a1005b60ff5f610478565b50346102e05760203660031901126102e05781359173ffffffffffffffffffffffffffffffffffffffff918284168094036102e0576104f76116a3565b83156105445750505f548273ffffffffffffffffffffffffffffffffffffffff198216175f55167f8be0079c531659141344cd1fd0a4f28419497f9722a3daafe3b4186f6b6457e05f80a3005b905f60249251917f1e4fbdf7000000000000000000000000000000000000000000000000000000008352820152fd5b50346102e0575f3660031901126102e05760209060ff60095460101c1690519015158152f35b5090346102e05760203660031901126102e0578035916105b76116a3565b61138883116105dd576103c96103c4846127106105d686549283611669565b0590611506565b906020606492519162461bcd60e51b8352820152600d60248201527f50756d7020746f6f2068696768000000000000000000000000000000000000006044820152fd5b82346102e05760203660031901126102e0576103c99061063e6116a3565b356116f3565b50346102e0575f3660031901126102e05760209060ff60095460081c1690519015158152f35b50346102e0575f3660031901126102e0576106876006544261165c565b600a5481119082519182526020820152f35b5090346102e0575f3660031901126102e057600354905460055460065460075494516001600160501b0394851681526020810193909352604083019190915260608201529116608082015260a090f35b5090346102e05760203660031901126102e05761071e6003913561070b6116a3565b610715814261165c565b6006554261165c565b916001600160501b03600c54165f5260086020525f2001555f80f35b5090346102e05760203660031901126102e0573590600d548210156102e05761076460209261148b565b91905490519160031b1c8152f35b5090346102e05760203660031901126102e0578035906107906116a3565b61138882116107fb577f12c9dccd129ff783f1c8228eacdfa8e334ddecb7ec5c9a79ec662a4aed3d012a6080848480600b5560118251928084528301527f7072696365446576696174696f6e42707300000000000000000000000000000060608301526020820152a1005b606490602084519162461bcd60e51b8352820152601260248201527f446576696174696f6e20746f6f206869676800000000000000000000000000006044820152fd5b50346102e05760203660031901126102e05760807f12c9dccd129ff783f1c8228eacdfa8e334ddecb7ec5c9a79ec662a4aed3d012a9161087c6112d5565b6108846116a3565b60ff196009541660ff82151516176009555f146108da5760ff60015b60088351938085528401527f69734163746976650000000000000000000000000000000000000000000000006060840152166020820152a1005b60ff5f6108a0565b50346102e0575f3660031901126102e057602090600a549051908152f35b50346102e0575f3660031901126102e0576020906001600160501b03600c54169051908152f35b50346102e05760203660031901126102e0578135906001600160501b03918281168091036102e05760ff60095460081c16610a585782600c541681118015610a50575b610a28575f526008602052805f2090805193610985856112e4565b83835416855260018301549260208601938452600281015494838701958652600382015492818160608a0194868652015416936080890194855215610a0157509551935194519051915192519386166001600160501b03908116855260208501959095526040840152606083015290921616608082015260a090f35b84517f159c98a0000000000000000000000000000000000000000000000000000000008152fd5b8382517fbfbe031f000000000000000000000000000000000000000000000000000000008152fd5b50801561096a565b838251630fbe60cf60e11b8152fd5b50346102e0575f3660031901126102e05760ff905f549060025483600954166001600160501b03600c541690600d5492610abe610aa2611336565b865198899860a01c16885260c0602089015260c088019061141c565b9486015215156060850152608084015260a08301520390f35b50346102e0575f3660031901126102e05780519081600d549081815260208091018092600d5f527fd7b6990105719101dabeb77144f2a3385c8033acd3af97e9423a695e81ad1eb5905f5b818110610b735750505084610b38910385611314565b825181815293518185018190528493840192915f5b828110610b5c57505050500390f35b835185528695509381019392810192600101610b4d565b825484529284019260019283019201610b22565b50346102e0575f3660031901126102e05760209073ffffffffffffffffffffffffffffffffffffffff5f54169051908152f35b50346102e057806003193601126102e05767ffffffffffffffff82358181116102e057610bea903690850161145a565b916024359081116102e057610c02903690860161145a565b610c0d9291926116a3565b808403610d6f575f5b848110610ca65750505050610c2757005b6001600160501b039081600c54165f5260086020525f209182600303610c4957005b82610c70836103c99554166001600160501b03166001600160501b03196003541617600355565b60018101548255600281015460055560038101546006550154166001600160501b03166001600160501b03196007541617600755565b600190600c80546001600160501b0380610cc18184166115f4565b1692836001600160501b03198094161790558a8a610ce0868c8b61160c565b358a610cf9888b610cf282828661160c565b359361160c565b359185845194610d08866112e4565b8986526008602080880194855282880195865260608801968752608088019b808d525f52525f209451168785541617845551898401555160028301555160038201550192511690825416179055610d69610d6382888761160c565b3561161c565b01610c16565b606486602087519162461bcd60e51b8352820152601560248201527f4172726179206c656e677468206d69736d6174636800000000000000000000006044820152fd5b50346102e0575f3660031901126102e057602090600b549051908152f35b50346102e0575f3660031901126102e0576020906011549051908152f35b50346102e0575f3660031901126102e05761029290610e0b611336565b905191829160208352602083019061141c565b346102e0575f3660031901126102e057610e366116a3565b5f73ffffffffffffffffffffffffffffffffffffffff815473ffffffffffffffffffffffffffffffffffffffff1981168355167f8be0079c531659141344cd1fd0a4f28419497f9722a3daafe3b4186f6b6457e08280a3005b50346102e05760203660031901126102e05760807f12c9dccd129ff783f1c8228eacdfa8e334ddecb7ec5c9a79ec662a4aed3d012a91610ecd6112d5565b610ed56116a3565b60095461ff0082151560081b169061ff001916176009555f14610f315760ff60015b600c8351938085528401527f73686f756c6452657665727400000000000000000000000000000000000000006060840152166020820152a1005b60ff5f610ef7565b50346102e0575f3660031901126102e0576020906012549051908152f35b50346102e0575f3660031901126102e0576020906002549051908152f35b82346102e05760203660031901126102e057610f8f6116a3565b6001600160501b0319600c5416600c55600d545f600d5580610fd3575b6103c982600162ffffff1960095416176009555f600b5560ff19600f5416600f55356116f3565b600d5f527fd7b6990105719101dabeb77144f2a3385c8033acd3af97e9423a695e81ad1eb5908101905b81811061100a5750610fac565b5f8155600101610ffd565b50346102e0575f3660031901126102e057602090600e549051908152f35b50346102e0575f3660031901126102e05760209060ff5f5460a01c169051908152f35b5090346102e05760203660031901126102e05780356001600160501b03928382168092036102e057610292915f526008602052805f20848154169360018201549560028301549160038401549301541692519586958693608093969591929660a08601976001600160501b03809516875260208701526040860152606085015216910152565b50346102e0575f3660031901126102e05760209060ff600f541690519015158152f35b50346102e0575f3660031901126102e05760209060ff6009541690519015158152f35b50346102e0575f3660031901126102e05760809061113e611535565b92939091815194855260208501528301526060820152f35b5090346102e05760603660031901126102e0576111716112d5565b60243590604435926111816116a3565b6107d08311611292576080808686868660ff19600f541660ff8215151617600f558160105582601255426011555f1461128a57836001915b60ff8551938685526011878601527f766f6c6174696c697479456e61626c656400000000000000000000000000000060608601521660208401527f12c9dccd129ff783f1c8228eacdfa8e334ddecb7ec5c9a79ec662a4aed3d012a80978194a18451908582526014868301527f766f6c6174696c69747950657263656e7461676500000000000000000000000060608301526020820152a160128251928084528301527f766f6c6174696c697479496e74657276616c000000000000000000000000000060608301526020820152a1005b835f916111b9565b606490602086519162461bcd60e51b8352820152601360248201527f566f6c6174696c69747920746f6f2068696768000000000000000000000000006044820152fd5b6004359081151582036102e057565b60a0810190811067ffffffffffffffff82111761130057604052565b634e487b7160e01b5f52604160045260245ffd5b90601f8019910116810190811067ffffffffffffffff82111761130057604052565b604051905f60018054918260011c60018416928315611412575b60209485831085146113fe5782885287949081156113de5750600114611381575b505061137f92500383611314565b565b9093915060015f527fb10e2d527612073b26eecdfd717e6a320cf44b4afac2b0732d9fcbe2b7fa0cf6935f915b8183106113c657505061137f93508201015f80611371565b855488840185015294850194879450918301916113ae565b91505061137f94925060ff191682840152151560051b8201015f80611371565b634e487b7160e01b5f52602260045260245ffd5b90607f1690611350565b91908251928382525f5b848110611446575050825f602080949584010152601f8019910116010190565b602081830181015184830182015201611426565b9181601f840112156102e05782359167ffffffffffffffff83116102e0576020808501948460051b0101116102e057565b600d548110156114c057600d5f527fd7b6990105719101dabeb77144f2a3385c8033acd3af97e9423a695e81ad1eb501905f90565b634e487b7160e01b5f52603260045260245ffd5b600d54156114c057600d5f527fd7b6990105719101dabeb77144f2a3385c8033acd3af97e9423a695e81ad1eb5905f90565b9190915f838201938412911290801582169115161761152157565b634e487b7160e01b5f52601160045260245ffd5b600d549081156115d4576115476114d4565b91905460039260031b1c9061155a6114d4565b90549060031b1c935f935f905b82821061158b575050600160ff1b84145f1982141661152157600454929493059190565b90946115968661148b565b905490831b1c908582126115cb575b8782136115c1575b6001916115b991611506565b950190611567565b90965086906115ad565b945080946115a5565b6004545f92508291829190565b8181029291811591840414171561152157565b6001600160501b038091169081146115215760010190565b91908110156114c05760051b0190565b600d5490680100000000000000008210156113005761164482600161137f9401600d5561148b565b90919082549060031b91821b915f19901b1916179055565b9190820391821161152157565b81810292915f8212600160ff1b82141661152157818405149015171561152157565b81810392915f13801582851316918412161761152157565b73ffffffffffffffffffffffffffffffffffffffff5f541633036116c357565b60246040517f118cdaa7000000000000000000000000000000000000000000000000000000008152336004820152fd5b60ff600f54168061192c575b61191a575b600c546001600160501b03908161171c8183166115f4565b16806001600160501b031980931617600c5560405161173a816112e4565b8181526020810192858452604082019042825285600460608501944286526080810194878652611780886001600160501b03166001600160501b03196003541617600355565b6117ac83988c855542600555426006556001600160501b03166001600160501b03196007541617600755565b83600c54165f5260086020528360405f209251168583541617825560019851600183015551600282015560039551600382015501925116908254161790556117f38561161c565b600d91600d54600e5410611865575b50505050600c541680917f0559884fd3a460db3073b7fc896cc77986f16e378210ded43186175bf646fc5f6020604051428152a3604051904282527f0109fc6f55cf40689f02fbaad7af7fe7bbac8a3d2186600afc7d3e10cac6027160203393a3565b90915f845b6118b9575b5050505050600d5480156118a5575f199081019061188c8261148b565b909182549160031b1b19169055600d555f808080611802565b634e487b7160e01b5f52603160045260245ffd5b81545f19810190811161190257811015611915578481018082116119025785949392916118f86118e9879361148b565b905490871b1c6116448361148b565b019091929361186a565b601184634e487b7160e01b5f525260245ffd5b61186f565b611923906119b5565b42601155611704565b506011546012548101809111611521574210156116ff565b600b5480156119b1576040516020810190428252446040820152604081526060810181811067ffffffffffffffff8211176113005760405251902061271090819006600116159161199590846115e1565b0490156119a8576119a591611506565b90565b6119a59161168b565b5090565b60105480156119b15760405160208101428152446040830152836060830152606082526080820182811067ffffffffffffffff82111761130057600192611a0c9160405261271092839151902006938406856115e1565b0491166119a8576119a59161150656fea164736f6c6343000818000a","linkReferences":{}},"methodIdentifiers":{"batchUpdatePrices(int256[],uint256[])":"8d367fc0","checkStaleness()":"c8931eed","currentRoundData()":"b6e8597b","currentRoundId()":"9cbe5efd","decimals()":"313ce567","description()":"7284e416","getFeedConfig()":"94e82eb9","getPriceHistory()":"929f0379","getPriceStatistics()":"1b1c1265","getRoundData(uint80)":"9a6fc8f5","isActive()":"22f3e2d4","lastVolatilityUpdate()":"768a6129","latestRoundData()":"feaf968c","maxHistoryLength()":"39cbe9e5","owner()":"8da5cb5b","priceDeviationBps()":"847c8a53","priceHistory(uint256)":"b27a0484","renounceOwnership()":"715018a6","reset(int256)":"3f2fb3be","rounds(uint80)":"2ede662f","setActive(bool)":"acec338a","setPriceDeviation(uint256)":"adecd714","setShouldReturnStaleData(bool)":"f31f9388","setShouldRevert(bool)":"6813d787","setStalenessThreshold(uint256)":"fb01e7f2","setVolatility(bool,uint256,uint256)":"09b1d3b6","shouldReturnStaleData()":"eaf70d78","shouldRevert()":"d3072d82","simulateNetworkDelay(uint256)":"b5aaeae9","simulatePriceCrash(uint256)":"f865895c","simulatePricePump(uint256)":"e7196b29","stalenessThreshold()":"a84f6ebb","transferOwnership(address)":"f2fde38b","updatePrice(int256)":"d4c19bda","version()":"54fd4d50","volatilityEnabled()":"24c3c861","volatilityInterval()":"659ff799","volatilityPercentage()":"fc1906f6"},"storageLayout":{"storage":[{"astId":40138,"contract":"src/mocks/MockPriceFeed.sol:MockPriceFeed","label":"_owner","offset":0,"slot":"0","type":"t_address"},{"astId":70440,"contract":"src/mocks/MockPriceFeed.sol:MockPriceFeed","label":"decimals","offset":20,"slot":"0","type":"t_uint8"},{"astId":70442,"contract":"src/mocks/MockPriceFeed.sol:MockPriceFeed","label":"description","offset":0,"slot":"1","type":"t_string_storage"},{"astId":70445,"contract":"src/mocks/MockPriceFeed.sol:MockPriceFeed","label":"version","offset":0,"slot":"2","type":"t_uint256"},{"astId":70448,"contract":"src/mocks/MockPriceFeed.sol:MockPriceFeed","label":"currentRoundData","offset":0,"slot":"3","type":"t_struct(RoundData)70438_storage"},{"astId":70453,"contract":"src/mocks/MockPriceFeed.sol:MockPriceFeed","label":"rounds","offset":0,"slot":"8","type":"t_mapping(t_uint80,t_struct(RoundData)70438_storage)"},{"astId":70456,"contract":"src/mocks/MockPriceFeed.sol:MockPriceFeed","label":"isActive","offset":0,"slot":"9","type":"t_bool"},{"astId":70459,"contract":"src/mocks/MockPriceFeed.sol:MockPriceFeed","label":"shouldRevert","offset":1,"slot":"9","type":"t_bool"},{"astId":70462,"contract":"src/mocks/MockPriceFeed.sol:MockPriceFeed","label":"shouldReturnStaleData","offset":2,"slot":"9","type":"t_bool"},{"astId":70465,"contract":"src/mocks/MockPriceFeed.sol:MockPriceFeed","label":"stalenessThreshold","offset":0,"slot":"10","type":"t_uint256"},{"astId":70468,"contract":"src/mocks/MockPriceFeed.sol:MockPriceFeed","label":"priceDeviationBps","offset":0,"slot":"11","type":"t_uint256"},{"astId":70471,"contract":"src/mocks/MockPriceFeed.sol:MockPriceFeed","label":"currentRoundId","offset":0,"slot":"12","type":"t_uint80"},{"astId":70474,"contract":"src/mocks/MockPriceFeed.sol:MockPriceFeed","label":"priceHistory","offset":0,"slot":"13","type":"t_array(t_int256)dyn_storage"},{"astId":70477,"contract":"src/mocks/MockPriceFeed.sol:MockPriceFeed","label":"maxHistoryLength","offset":0,"slot":"14","type":"t_uint256"},{"astId":70480,"contract":"src/mocks/MockPriceFeed.sol:MockPriceFeed","label":"volatilityEnabled","offset":0,"slot":"15","type":"t_bool"},{"astId":70483,"contract":"src/mocks/MockPriceFeed.sol:MockPriceFeed","label":"volatilityPercentage","offset":0,"slot":"16","type":"t_uint256"},{"astId":70485,"contract":"src/mocks/MockPriceFeed.sol:MockPriceFeed","label":"lastVolatilityUpdate","offset":0,"slot":"17","type":"t_uint256"},{"astId":70488,"contract":"src/mocks/MockPriceFeed.sol:MockPriceFeed","label":"volatilityInterval","offset":0,"slot":"18","type":"t_uint256"}],"types":{"t_address":{"encoding":"inplace","label":"address","numberOfBytes":"20"},"t_array(t_int256)dyn_storage":{"encoding":"dynamic_array","label":"int256[]","numberOfBytes":"32","base":"t_int256"},"t_bool":{"encoding":"inplace","label":"bool","numberOfBytes":"1"},"t_int256":{"encoding":"inplace","label":"int256","numberOfBytes":"32"},"t_mapping(t_uint80,t_struct(RoundData)70438_storage)":{"encoding":"mapping","key":"t_uint80","label":"mapping(uint80 => struct MockPriceFeed.RoundData)","numberOfBytes":"32","value":"t_struct(RoundData)70438_storage"},"t_string_storage":{"encoding":"bytes","label":"string","numberOfBytes":"32"},"t_struct(RoundData)70438_storage":{"encoding":"inplace","label":"struct MockPriceFeed.RoundData","numberOfBytes":"160","members":[{"astId":70429,"contract":"src/mocks/MockPriceFeed.sol:MockPriceFeed","label":"roundId","offset":0,"slot":"0","type":"t_uint80"},{"astId":70431,"contract":"src/mocks/MockPriceFeed.sol:MockPriceFeed","label":"answer","offset":0,"slot":"1","type":"t_int256"},{"astId":70433,"contract":"src/mocks/MockPriceFeed.sol:MockPriceFeed","label":"startedAt","offset":0,"slot":"2","type":"t_uint256"},{"astId":70435,"contract":"src/mocks/MockPriceFeed.sol:MockPriceFeed","label":"updatedAt","offset":0,"slot":"3","type":"t_uint256"},{"astId":70437,"contract":"src/mocks/MockPriceFeed.sol:MockPriceFeed","label":"answeredInRound","offset":0,"slot":"4","type":"t_uint80"}]},"t_uint256":{"encoding":"inplace","label":"uint256","numberOfBytes":"32"},"t_uint8":{"encoding":"inplace","label":"uint8","numberOfBytes":"1"},"t_uint80":{"encoding":"inplace","label":"uint80","numberOfBytes":"10"}}},"id":67}