{"abi":[{"type":"constructor","inputs":[],"stateMutability":"nonpayable"},{"type":"receive","stateMutability":"payable"},{"type":"function","name":"challengeWithdrawal","inputs":[{"name":"transferId","type":"bytes32","internalType":"bytes32"}],"outputs":[],"stateMutability":"nonpayable"},{"type":"function","name":"config","inputs":[],"outputs":[{"name":"baseFee","type":"uint256","internalType":"uint256"},{"name":"feePercentage","type":"uint256","internalType":"uint256"},{"name":"minTransferAmount","type":"uint256","internalType":"uint256"},{"name":"maxTransferAmount","type":"uint256","internalType":"uint256"},{"name":"avgDepositTime","type":"uint256","internalType":"uint256"},{"name":"avgWithdrawTime","type":"uint256","internalType":"uint256"},{"name":"challengePeriod","type":"uint256","internalType":"uint256"},{"name":"isActive","type":"bool","internalType":"bool"}],"stateMutability":"view"},{"type":"function","name":"currentBatch","inputs":[],"outputs":[{"name":"","type":"uint256","internalType":"uint256"}],"stateMutability":"view"},{"type":"function","name":"emergencyWithdraw","inputs":[{"name":"amount","type":"uint256","internalType":"uint256"}],"outputs":[],"stateMutability":"nonpayable"},{"type":"function","name":"estimateGas","inputs":[{"name":"route","type":"tuple","internalType":"struct IBridgeAdapter.Route","components":[{"name":"adapter","type":"address","internalType":"address"},{"name":"tokenIn","type":"address","internalType":"address"},{"name":"tokenOut","type":"address","internalType":"address"},{"name":"amountIn","type":"uint256","internalType":"uint256"},{"name":"amountOut","type":"uint256","internalType":"uint256"},{"name":"srcChainId","type":"uint256","internalType":"uint256"},{"name":"dstChainId","type":"uint256","internalType":"uint256"},{"name":"metrics","type":"tuple","internalType":"struct IBridgeAdapter.RouteMetrics","components":[{"name":"estimatedGasCost","type":"uint256","internalType":"uint256"},{"name":"bridgeFee","type":"uint256","internalType":"uint256"},{"name":"totalCostWei","type":"uint256","internalType":"uint256"},{"name":"estimatedTimeMinutes","type":"uint256","internalType":"uint256"},{"name":"liquidityAvailable","type":"uint256","internalType":"uint256"},{"name":"successRate","type":"uint256","internalType":"uint256"},{"name":"congestionLevel","type":"uint256","internalType":"uint256"}]},{"name":"adapterData","type":"bytes","internalType":"bytes"},{"name":"deadline","type":"uint256","internalType":"uint256"}]}],"outputs":[{"name":"gasEstimate","type":"uint256","internalType":"uint256"}],"stateMutability":"view"},{"type":"function","name":"executeBridge","inputs":[{"name":"route","type":"tuple","internalType":"struct IBridgeAdapter.Route","components":[{"name":"adapter","type":"address","internalType":"address"},{"name":"tokenIn","type":"address","internalType":"address"},{"name":"tokenOut","type":"address","internalType":"address"},{"name":"amountIn","type":"uint256","internalType":"uint256"},{"name":"amountOut","type":"uint256","internalType":"uint256"},{"name":"srcChainId","type":"uint256","internalType":"uint256"},{"name":"dstChainId","type":"uint256","internalType":"uint256"},{"name":"metrics","type":"tuple","internalType":"struct IBridgeAdapter.RouteMetrics","components":[{"name":"estimatedGasCost","type":"uint256","internalType":"uint256"},{"name":"bridgeFee","type":"uint256","internalType":"uint256"},{"name":"totalCostWei","type":"uint256","internalType":"uint256"},{"name":"estimatedTimeMinutes","type":"uint256","internalType":"uint256"},{"name":"liquidityAvailable","type":"uint256","internalType":"uint256"},{"name":"successRate","type":"uint256","internalType":"uint256"},{"name":"congestionLevel","type":"uint256","internalType":"uint256"}]},{"name":"adapterData","type":"bytes","internalType":"bytes"},{"name":"deadline","type":"uint256","internalType":"uint256"}]},{"name":"recipient","type":"address","internalType":"address"},{"name":"permitData","type":"bytes","internalType":"bytes"}],"outputs":[{"name":"transferId","type":"bytes32","internalType":"bytes32"}],"stateMutability":"payable"},{"type":"function","name":"getAvailableLiquidity","inputs":[{"name":"tokenIn","type":"address","internalType":"address"},{"name":"tokenOut","type":"address","internalType":"address"},{"name":"srcChainId","type":"uint256","internalType":"uint256"},{"name":"dstChainId","type":"uint256","internalType":"uint256"}],"outputs":[{"name":"liquidity","type":"uint256","internalType":"uint256"}],"stateMutability":"view"},{"type":"function","name":"getBridgeName","inputs":[],"outputs":[{"name":"","type":"string","internalType":"string"}],"stateMutability":"pure"},{"type":"function","name":"getBridgeStats","inputs":[],"outputs":[{"name":"_totalTransfers","type":"uint256","internalType":"uint256"},{"name":"_successfulTransfers","type":"uint256","internalType":"uint256"},{"name":"_totalVolume","type":"uint256","internalType":"uint256"},{"name":"_successRate","type":"uint256","internalType":"uint256"}],"stateMutability":"view"},{"type":"function","name":"getRetryableTicket","inputs":[{"name":"ticketId","type":"bytes32","internalType":"bytes32"}],"outputs":[{"name":"ticket","type":"tuple","internalType":"struct ArbitrumBridgeAdapter.RetryableTicket","components":[{"name":"transferId","type":"bytes32","internalType":"bytes32"},{"name":"sender","type":"address","internalType":"address"},{"name":"recipient","type":"address","internalType":"address"},{"name":"amount","type":"uint256","internalType":"uint256"},{"name":"maxGas","type":"uint256","internalType":"uint256"},{"name":"gasPriceBid","type":"uint256","internalType":"uint256"},{"name":"submissionFee","type":"uint256","internalType":"uint256"},{"name":"createdAt","type":"uint256","internalType":"uint256"},{"name":"isRedeemed","type":"bool","internalType":"bool"},{"name":"isExpired","type":"bool","internalType":"bool"}]}],"stateMutability":"view"},{"type":"function","name":"getRouteMetrics","inputs":[{"name":"tokenIn","type":"address","internalType":"address"},{"name":"tokenOut","type":"address","internalType":"address"},{"name":"amount","type":"uint256","internalType":"uint256"},{"name":"srcChainId","type":"uint256","internalType":"uint256"},{"name":"dstChainId","type":"uint256","internalType":"uint256"}],"outputs":[{"name":"metrics","type":"tuple","internalType":"struct IBridgeAdapter.RouteMetrics","components":[{"name":"estimatedGasCost","type":"uint256","internalType":"uint256"},{"name":"bridgeFee","type":"uint256","internalType":"uint256"},{"name":"totalCostWei","type":"uint256","internalType":"uint256"},{"name":"estimatedTimeMinutes","type":"uint256","internalType":"uint256"},{"name":"liquidityAvailable","type":"uint256","internalType":"uint256"},{"name":"successRate","type":"uint256","internalType":"uint256"},{"name":"congestionLevel","type":"uint256","internalType":"uint256"}]}],"stateMutability":"view"},{"type":"function","name":"getSuccessRate","inputs":[{"name":"srcChainId","type":"uint256","internalType":"uint256"},{"name":"dstChainId","type":"uint256","internalType":"uint256"}],"outputs":[{"name":"successRate","type":"uint256","internalType":"uint256"}],"stateMutability":"pure"},{"type":"function","name":"getTransfer","inputs":[{"name":"transferId","type":"bytes32","internalType":"bytes32"}],"outputs":[{"name":"transfer","type":"tuple","internalType":"struct IBridgeAdapter.Transfer","components":[{"name":"transferId","type":"bytes32","internalType":"bytes32"},{"name":"sender","type":"address","internalType":"address"},{"name":"recipient","type":"address","internalType":"address"},{"name":"route","type":"tuple","internalType":"struct IBridgeAdapter.Route","components":[{"name":"adapter","type":"address","internalType":"address"},{"name":"tokenIn","type":"address","internalType":"address"},{"name":"tokenOut","type":"address","internalType":"address"},{"name":"amountIn","type":"uint256","internalType":"uint256"},{"name":"amountOut","type":"uint256","internalType":"uint256"},{"name":"srcChainId","type":"uint256","internalType":"uint256"},{"name":"dstChainId","type":"uint256","internalType":"uint256"},{"name":"metrics","type":"tuple","internalType":"struct IBridgeAdapter.RouteMetrics","components":[{"name":"estimatedGasCost","type":"uint256","internalType":"uint256"},{"name":"bridgeFee","type":"uint256","internalType":"uint256"},{"name":"totalCostWei","type":"uint256","internalType":"uint256"},{"name":"estimatedTimeMinutes","type":"uint256","internalType":"uint256"},{"name":"liquidityAvailable","type":"uint256","internalType":"uint256"},{"name":"successRate","type":"uint256","internalType":"uint256"},{"name":"congestionLevel","type":"uint256","internalType":"uint256"}]},{"name":"adapterData","type":"bytes","internalType":"bytes"},{"name":"deadline","type":"uint256","internalType":"uint256"}]},{"name":"status","type":"uint8","internalType":"enum IBridgeAdapter.TransferStatus"},{"name":"initiatedAt","type":"uint256","internalType":"uint256"},{"name":"completedAt","type":"uint256","internalType":"uint256"}]}],"stateMutability":"view"},{"type":"function","name":"getTransferLimits","inputs":[{"name":"token","type":"address","internalType":"address"},{"name":"srcChainId","type":"uint256","internalType":"uint256"},{"name":"dstChainId","type":"uint256","internalType":"uint256"}],"outputs":[{"name":"minAmount","type":"uint256","internalType":"uint256"},{"name":"maxAmount","type":"uint256","internalType":"uint256"}],"stateMutability":"view"},{"type":"function","name":"getWithdrawalProof","inputs":[{"name":"transferId","type":"bytes32","internalType":"bytes32"}],"outputs":[{"name":"proof","type":"tuple","internalType":"struct ArbitrumBridgeAdapter.WithdrawalProof","components":[{"name":"transferId","type":"bytes32","internalType":"bytes32"},{"name":"batchNumber","type":"uint256","internalType":"uint256"},{"name":"merkleProof","type":"bytes32[]","internalType":"bytes32[]"},{"name":"challengeableUntil","type":"uint256","internalType":"uint256"},{"name":"isChallenged","type":"bool","internalType":"bool"},{"name":"isConfirmed","type":"bool","internalType":"bool"}]}],"stateMutability":"view"},{"type":"function","name":"healthyStatus","inputs":[],"outputs":[{"name":"","type":"bool","internalType":"bool"}],"stateMutability":"view"},{"type":"function","name":"isHealthy","inputs":[],"outputs":[{"name":"healthy","type":"bool","internalType":"bool"}],"stateMutability":"view"},{"type":"function","name":"lastHealthCheck","inputs":[],"outputs":[{"name":"","type":"uint256","internalType":"uint256"}],"stateMutability":"view"},{"type":"function","name":"owner","inputs":[],"outputs":[{"name":"","type":"address","internalType":"address"}],"stateMutability":"view"},{"type":"function","name":"renounceOwnership","inputs":[],"outputs":[],"stateMutability":"nonpayable"},{"type":"function","name":"retryableTickets","inputs":[{"name":"","type":"bytes32","internalType":"bytes32"}],"outputs":[{"name":"transferId","type":"bytes32","internalType":"bytes32"},{"name":"sender","type":"address","internalType":"address"},{"name":"recipient","type":"address","internalType":"address"},{"name":"amount","type":"uint256","internalType":"uint256"},{"name":"maxGas","type":"uint256","internalType":"uint256"},{"name":"gasPriceBid","type":"uint256","internalType":"uint256"},{"name":"submissionFee","type":"uint256","internalType":"uint256"},{"name":"createdAt","type":"uint256","internalType":"uint256"},{"name":"isRedeemed","type":"bool","internalType":"bool"},{"name":"isExpired","type":"bool","internalType":"bool"}],"stateMutability":"view"},{"type":"function","name":"successfulTransfers","inputs":[],"outputs":[{"name":"","type":"uint256","internalType":"uint256"}],"stateMutability":"view"},{"type":"function","name":"supportsRoute","inputs":[{"name":"tokenIn","type":"address","internalType":"address"},{"name":"tokenOut","type":"address","internalType":"address"},{"name":"srcChainId","type":"uint256","internalType":"uint256"},{"name":"dstChainId","type":"uint256","internalType":"uint256"}],"outputs":[{"name":"supported","type":"bool","internalType":"bool"}],"stateMutability":"pure"},{"type":"function","name":"totalTransfers","inputs":[],"outputs":[{"name":"","type":"uint256","internalType":"uint256"}],"stateMutability":"view"},{"type":"function","name":"totalVolume","inputs":[],"outputs":[{"name":"","type":"uint256","internalType":"uint256"}],"stateMutability":"view"},{"type":"function","name":"transferHistory","inputs":[{"name":"","type":"uint256","internalType":"uint256"}],"outputs":[{"name":"","type":"bytes32","internalType":"bytes32"}],"stateMutability":"view"},{"type":"function","name":"transferOwnership","inputs":[{"name":"newOwner","type":"address","internalType":"address"}],"outputs":[],"stateMutability":"nonpayable"},{"type":"function","name":"transfers","inputs":[{"name":"","type":"bytes32","internalType":"bytes32"}],"outputs":[{"name":"transferId","type":"bytes32","internalType":"bytes32"},{"name":"sender","type":"address","internalType":"address"},{"name":"recipient","type":"address","internalType":"address"},{"name":"route","type":"tuple","internalType":"struct IBridgeAdapter.Route","components":[{"name":"adapter","type":"address","internalType":"address"},{"name":"tokenIn","type":"address","internalType":"address"},{"name":"tokenOut","type":"address","internalType":"address"},{"name":"amountIn","type":"uint256","internalType":"uint256"},{"name":"amountOut","type":"uint256","internalType":"uint256"},{"name":"srcChainId","type":"uint256","internalType":"uint256"},{"name":"dstChainId","type":"uint256","internalType":"uint256"},{"name":"metrics","type":"tuple","internalType":"struct IBridgeAdapter.RouteMetrics","components":[{"name":"estimatedGasCost","type":"uint256","internalType":"uint256"},{"name":"bridgeFee","type":"uint256","internalType":"uint256"},{"name":"totalCostWei","type":"uint256","internalType":"uint256"},{"name":"estimatedTimeMinutes","type":"uint256","internalType":"uint256"},{"name":"liquidityAvailable","type":"uint256","internalType":"uint256"},{"name":"successRate","type":"uint256","internalType":"uint256"},{"name":"congestionLevel","type":"uint256","internalType":"uint256"}]},{"name":"adapterData","type":"bytes","internalType":"bytes"},{"name":"deadline","type":"uint256","internalType":"uint256"}]},{"name":"status","type":"uint8","internalType":"enum IBridgeAdapter.TransferStatus"},{"name":"initiatedAt","type":"uint256","internalType":"uint256"},{"name":"completedAt","type":"uint256","internalType":"uint256"}],"stateMutability":"view"},{"type":"function","name":"updateConfig","inputs":[{"name":"newConfig","type":"tuple","internalType":"struct ArbitrumBridgeAdapter.BridgeConfig","components":[{"name":"baseFee","type":"uint256","internalType":"uint256"},{"name":"feePercentage","type":"uint256","internalType":"uint256"},{"name":"minTransferAmount","type":"uint256","internalType":"uint256"},{"name":"maxTransferAmount","type":"uint256","internalType":"uint256"},{"name":"avgDepositTime","type":"uint256","internalType":"uint256"},{"name":"avgWithdrawTime","type":"uint256","internalType":"uint256"},{"name":"challengePeriod","type":"uint256","internalType":"uint256"},{"name":"isActive","type":"bool","internalType":"bool"}]}],"outputs":[],"stateMutability":"nonpayable"},{"type":"function","name":"updateHealthStatus","inputs":[{"name":"healthy","type":"bool","internalType":"bool"}],"outputs":[],"stateMutability":"nonpayable"},{"type":"function","name":"withdrawalProofs","inputs":[{"name":"","type":"bytes32","internalType":"bytes32"}],"outputs":[{"name":"transferId","type":"bytes32","internalType":"bytes32"},{"name":"batchNumber","type":"uint256","internalType":"uint256"},{"name":"challengeableUntil","type":"uint256","internalType":"uint256"},{"name":"isChallenged","type":"bool","internalType":"bool"},{"name":"isConfirmed","type":"bool","internalType":"bool"}],"stateMutability":"view"},{"type":"event","name":"OwnershipTransferred","inputs":[{"name":"previousOwner","type":"address","indexed":true,"internalType":"address"},{"name":"newOwner","type":"address","indexed":true,"internalType":"address"}],"anonymous":false},{"type":"event","name":"RetryableTicketCreated","inputs":[{"name":"transferId","type":"bytes32","indexed":true,"internalType":"bytes32"},{"name":"ticketId","type":"bytes32","indexed":true,"internalType":"bytes32"}],"anonymous":false},{"type":"event","name":"TransferCompleted","inputs":[{"name":"transferId","type":"bytes32","indexed":true,"internalType":"bytes32"},{"name":"actualAmountOut","type":"uint256","indexed":false,"internalType":"uint256"},{"name":"actualCost","type":"uint256","indexed":false,"internalType":"uint256"},{"name":"actualTime","type":"uint256","indexed":false,"internalType":"uint256"}],"anonymous":false},{"type":"event","name":"TransferFailed","inputs":[{"name":"transferId","type":"bytes32","indexed":true,"internalType":"bytes32"},{"name":"reason","type":"string","indexed":false,"internalType":"string"}],"anonymous":false},{"type":"event","name":"TransferInitiated","inputs":[{"name":"transferId","type":"bytes32","indexed":true,"internalType":"bytes32"},{"name":"sender","type":"address","indexed":true,"internalType":"address"},{"name":"recipient","type":"address","indexed":true,"internalType":"address"},{"name":"route","type":"tuple","indexed":false,"internalType":"struct IBridgeAdapter.Route","components":[{"name":"adapter","type":"address","internalType":"address"},{"name":"tokenIn","type":"address","internalType":"address"},{"name":"tokenOut","type":"address","internalType":"address"},{"name":"amountIn","type":"uint256","internalType":"uint256"},{"name":"amountOut","type":"uint256","internalType":"uint256"},{"name":"srcChainId","type":"uint256","internalType":"uint256"},{"name":"dstChainId","type":"uint256","internalType":"uint256"},{"name":"metrics","type":"tuple","internalType":"struct IBridgeAdapter.RouteMetrics","components":[{"name":"estimatedGasCost","type":"uint256","internalType":"uint256"},{"name":"bridgeFee","type":"uint256","internalType":"uint256"},{"name":"totalCostWei","type":"uint256","internalType":"uint256"},{"name":"estimatedTimeMinutes","type":"uint256","internalType":"uint256"},{"name":"liquidityAvailable","type":"uint256","internalType":"uint256"},{"name":"successRate","type":"uint256","internalType":"uint256"},{"name":"congestionLevel","type":"uint256","internalType":"uint256"}]},{"name":"adapterData","type":"bytes","internalType":"bytes"},{"name":"deadline","type":"uint256","internalType":"uint256"}]}],"anonymous":false},{"type":"event","name":"WithdrawalChallenged","inputs":[{"name":"transferId","type":"bytes32","indexed":true,"internalType":"bytes32"},{"name":"challenger","type":"address","indexed":false,"internalType":"address"}],"anonymous":false},{"type":"event","name":"WithdrawalConfirmed","inputs":[{"name":"transferId","type":"bytes32","indexed":true,"internalType":"bytes32"}],"anonymous":false},{"type":"event","name":"WithdrawalInitiated","inputs":[{"name":"transferId","type":"bytes32","indexed":true,"internalType":"bytes32"},{"name":"batchNumber","type":"uint256","indexed":false,"internalType":"uint256"}],"anonymous":false},{"type":"error","name":"BridgeInactive","inputs":[]},{"type":"error","name":"InsufficientFee","inputs":[]},{"type":"error","name":"OwnableInvalidOwner","inputs":[{"name":"owner","type":"address","internalType":"address"}]},{"type":"error","name":"OwnableUnauthorizedAccount","inputs":[{"name":"account","type":"address","internalType":"address"}]},{"type":"error","name":"ReentrancyGuardReentrantCall","inputs":[]},{"type":"error","name":"TicketExpired","inputs":[]},{"type":"error","name":"TransferAmountTooHigh","inputs":[]},{"type":"error","name":"TransferAmountTooLow","inputs":[]},{"type":"error","name":"UnsupportedRoute","inputs":[]},{"type":"error","name":"WithdrawalChallengedError","inputs":[]},{"type":"error","name":"WithdrawalNotReady","inputs":[]}],"bytecode":{"object":"0x6080806040523461014e573315610139575f8054336001600160a01b03198216811783556040519290916001600160a01b0316907f8be0079c531659141344cd1fd0a4f28419497f9722a3daafe3b4186f6b6457e09080a360017f9b779b17422d0df92223018b32b4d1fa46e071723d6817e2486d003becc55f005560ff19600181600a541617600a5561010082019180831060018060401b0384111761012557600192604052660aa87bee5380008082525f602083015266038d7ea4c6800080604084015269010f0cf064dd5920000090816060850152610384928360808601528660e062093a80968760a08201528760c08201520152600b555f600c55600d55600e55600f5580601055601155601254161760125560405161249290816101538239f35b634e487b7160e01b5f52604160045260245ffd5b631e4fbdf760e01b81525f6004820152602490fd5b5f80fdfe608080604052600436101561001c575b50361561001a575f80fd5b005b5f3560e01c9081630e0d665f14611b155750806315a3d37a1461196e5780631d6357561461192f5780631e04a56f1461190d5780632165cbb714611896578063260958a51461172557806326c35644146116e95780633542284b146116c5578063390f4185146116a95780633bf477201461168c5780633c64f04b146115f15780635312ea8e146115ad5780635f81a57c14611590578063715018a61461153957806376cd940e1461151c57806379502c55146114be578063816c99de146114875780638da5cb5b146114625780638f20a7f71461078257806393d9a1e6146106c85780639ce3f4b2146106ab578063aed14a491461055b578063b8b2233d146104d3578063bad0604f14610475578063c03202181461036c578063d51aa0cb14610335578063e402080414610300578063e9dd0874146102da578063f2fde38b1461023f578063f35442f81461019e5763f9e5051a1461017d575f61000f565b3461019a575f36600319011261019a576020600754604051908152f35b5f80fd5b3461019a57602036600319011261019a576004355f52600260205261014060405f2060ff8154916001600160a01b03908160018201541691600282015416600382015460048301546005840154916006850154936008600787015496015496604051998a5260208a015260408901526060880152608087015260a086015260c085015260e0840152818116151561010084015260081c161515610120820152f35b3461019a57602036600319011261019a57610258611c79565b610260612442565b6001600160a01b038091169081156102aa575f54826001600160a01b03198216175f55167f8be0079c531659141344cd1fd0a4f28419497f9722a3daafe3b4186f6b6457e05f80a3005b60246040517f1e4fbdf70000000000000000000000000000000000000000000000000000000081525f6004820152fd5b3461019a5760206102f66102ed36611fa5565b9291909161234b565b6040519015158152f35b3461019a575f36600319011261019a5760ff600a541680610329575b6020906040519015158152f35b5060125460ff1661031c565b3461019a57606036600319011261019a576040610360610353611c79565b60443590602435906122ca565b82519182526020820152f35b3461019a5760208060031936011261019a576004359061038a612442565b815f526003815260405f206003810154421161044b577fede47e73e6c8536d5351df6e9a76853cc1ba236bc23132185ee92fa0afa9e7e19160046060920160ff1990600182825416179055845f52600182526003601360405f200191825416179055837f9819832005830849310071fb6fcb111b2153f6334b30d9791aaea3ec1c318d1182604051338152a26015604051918083528201527f5769746864726177616c206368616c6c656e67656400000000000000000000006040820152a2005b60046040517f0f2ca6e7000000000000000000000000000000000000000000000000000000008152fd5b3461019a57602036600319011261019a576004355f52600360205260a060405f2060ff8154916001810154906004600382015491015491604051948552602085015260408401528181161515606084015260081c1615156080820152f35b3461019a575f36600319011261019a57604051604081019080821067ffffffffffffffff8311176105475761054391604052601681527f417262697472756d204e617469766520427269646765000000000000000000006020820152604051918291602083526020830190611e93565b0390f35b634e487b7160e01b5f52604160045260245ffd5b3461019a5760208060031936011261019a575f60a060405161057c81611cf2565b82815282848201526060604082015282606082015282608082015201526004355f526003815260405f206040516105b281611cf2565b81548152600192600183015492818301938452600281019060405191828482549182815201915f52845f2090885f5b8281106106985750505050826105f8910383611d2a565b60408401918252600460038201549160608601928352015492608085019260ff85161515845260ff60a087019560081c16151585526040519682885260e08801965183890152516040880152519460c0606088015285518091528161010088019601915f5b828110610685575050505084955051608085015251151560a084015251151560c08301520390f35b835188529681019692810192890161065d565b83548552938701939281019281016105e1565b3461019a575f36600319011261019a576020600954604051908152f35b3461019a576101008060031936011261019a5760405190810181811067ffffffffffffffff8211176105475760405260043581526020810160243581526040820160443581526060830160643581526080840190608435825260a085019260a435845260c086019460c435865260e43596871515880361019a5760e08101978852610751612442565b51600b5551600c5551600d5551600e5551600f55516010555160115551151560ff8019601254169116176012555f80f35b606036600319011261019a5760043567ffffffffffffffff811161019a576107ae903690600401611d4c565b6107b6611c8f565b60443567ffffffffffffffff811161019a573660238201121561019a57806004013567ffffffffffffffff811161019a573691016024011161019a5760027f9b779b17422d0df92223018b32b4d1fa46e071723d6817e2486d003becc55f0054146114385760027f9b779b17422d0df92223018b32b4d1fa46e071723d6817e2486d003becc55f005560ff601254161561140e5760208281015160408085015160a086015160c08701519251633a77421d60e21b81526001600160a01b039485166004820152939091166024840152604483015260648201529081608481305afa908115611403575f916113d4575b50156113aa576060820151600d5411611380576060820151600e5410611356576108d66060830151600b549061222d565b341061132c57606082015160a083015160c084015190604051927f415242495452554d00000000000000000000000000000000000000000000000060208501523360601b60288501526bffffffffffffffffffffffff198560601b16603c8501526050840152607083015260908201524260b082015260b0815261095981611cd6565b602081519101209060a083015162aa36a78114908115611321575b5060405161098181611cd6565b8381523360208201526001600160a01b03831660408201528460608201525f60808201524260a08201525f60c0820152835f52600160205260405f2090805182556001600160a01b036020820151166001600160a01b0319600184015416176001830155600282016001600160a01b036040830151166001600160a01b031982541617905560608101516001600160a01b038151166001600160a01b0319600385015416176003840155600483016001600160a01b036020830151166001600160a01b0319825416179055600583016001600160a01b036040830151166001600160a01b0319825416179055606081015160068401556080810151600784015560a0810151600884015560c0810151600984015560c060e08201518051600a8601556020810151600b8601556040810151600c8601556060810151600d8601556080810151600e86015560a0810151600f8601550151601084015561010081015180519067ffffffffffffffff821161054757610b016011860154611fde565b601f81116112dd575b50602090601f831160011461126d576101209392915f9183611262575b50508160011b915f199060031b1c19161760118501555b015160128301556080810151600581101561124e5760159160c09160ff8019601387015416911617601385015560a0810151601485015501519101556004546801000000000000000081101561054757806001610b9e9201600455612178565b81549060031b9085821b915f19901b1916179055610bbd6006546122bc565b600655610bd0606085015160085461222d565b60085515610f4d578260606020940151610d3f604051868101908682527f7469636b65740000000000000000000000000000000000000000000000000000604082015260268152610c2081611d0e565b5190209160405190610c3182611cb9565b86825233888301526001600160a01b03861660408301526060820152620186a06080820152633b9aca0060a082015266038d7ea4c6800060c08201524260e08201525f6101008201525f610120820152825f5260028752610120600860405f2083518155600181016001600160a01b038b860151166001600160a01b0319825416179055600281016001600160a01b036040860151166001600160a01b0319825416179055606084015160038201556080840151600482015560a0840151600582015560c0840151600682015560e084015160078201550191610d276101008201511515849060ff801983541691151516179055565b0151815461ff00191690151560081b61ff0016179055565b835f5260018552601360405f2001600160ff19825416179055606260646040518781019087825242604082015260408152610d7981611d0e565b519020061015610ebd57805f5260028552600860405f2001600160ff19825416179055835f5260018552601360405f2001600260ff19825416179055610dc1600f544261222d565b845f5260018652601560405f200155610ddb6007546122bc565b600755835f5260018552837ff8b93d99f828ea6dc825a1d9830dd368efbe210896261ba9ddf4b8c2db7c11df6060600760405f200154600f546040519182525f8a8301526040820152a25b837ff3ba304a9a8fdf0aca39fd7bb16e80aa2892b7b14a8cf0b7ac02d5d78ef1da795f80a35b827f56ca1441c76a98845661e51ce81568a517265ae9ab2f9871a232c11a9208a9f06001600160a01b0360405194878652169380610e8e339589830190611ed1565b0390a460017f9b779b17422d0df92223018b32b4d1fa46e071723d6817e2486d003becc55f0055604051908152f35b805f5260028552600860405f200161010061ff0019825416179055835f5260018552601360405f2001600360ff19825416179055837fede47e73e6c8536d5351df6e9a76853cc1ba236bc23132185ee92fa0afa9e7e160606040518881526018898201527f526574727961626c65207469636b6574206578706972656400000000000000006040820152a2610e26565b610f586005546122bc565b928360055560405180602081011067ffffffffffffffff60208301111761054757602081016040525f8152610f8f6011544261222d565b9060405191610f9d83611cf2565b858352602083019687526040830191825260608301525f60808301525f60a0830152845f52600360205260405f209582518755516001870155519485519567ffffffffffffffff871161054757680100000000000000008711610547576002820154876002840155808810611224575b5060200195600282015f5260205f20965f5b82811061121057505050602095509060a0600461105e93606084015160038201550191610d2760808201511515849060ff801983541691151516179055565b825f5260018452601360405f2001600160ff1982541617905560626064604051868101908682524260408201526040815261109881611d0e565b51902006101561119b57825f5260018452601360405f2001600260ff198254161790556110c76010544261222d565b835f5260018552601560405f20015560038452600460405f200161010061ff00198254161790556110f96007546122bc565b600755825f5260018452827ff8b93d99f828ea6dc825a1d9830dd368efbe210896261ba9ddf4b8c2db7c11df6060600760405f2001546010546040519182525f898301526040820152a2827f15e760d8de07a35cf5462bd696cb02fffcf16526e1837525df153fe664ac6efd5f80a25b827f12b1fcbd3318b46ecce64362755f37184cae80ec9a1707446b4962b8d44938d985600554604051908152a2610e4c565b825f5260018452601360405f2001600360ff19825416179055827fede47e73e6c8536d5351df6e9a76853cc1ba236bc23132185ee92fa0afa9e7e160606040518781526018888201527f5769746864726177616c2070726f6f6620696e76616c696400000000000000006040820152a2611169565b60019060208351930192818b01550161101f565b600283015f5260205f20908882015b818301811061124357505061100d565b5f8155600101611233565b634e487b7160e01b5f52602160045260245ffd5b015190508a80610b27565b90601186015f5260205f20915f5b601f19851681106112c557509183916001936101209695601f198116106112ad575b505050811b016011850155610b3e565b01515f1960f88460031b161c191690558a808061129d565b9192602060018192868501518155019401920161127b565b601186015f5260205f20601f840160051c81016020851061131a575b601f830160051c8201811061130f575050610b0a565b5f81556001016112f9565b50806112f9565b600191501484610974565b60046040517f025dbdd4000000000000000000000000000000000000000000000000000000008152fd5b60046040517fb44042ee000000000000000000000000000000000000000000000000000000008152fd5b60046040517f2b069ba2000000000000000000000000000000000000000000000000000000008152fd5b60046040517f5d5fe824000000000000000000000000000000000000000000000000000000008152fd5b6113f6915060203d6020116113fc575b6113ee8183611d2a565b8101906121f7565b836108a5565b503d6113e4565b6040513d5f823e3d90fd5b60046040517f87cb8cfe000000000000000000000000000000000000000000000000000000008152fd5b60046040517f3ee5aeb5000000000000000000000000000000000000000000000000000000008152fd5b3461019a575f36600319011261019a5760206001600160a01b035f5416604051908152f35b3461019a57602036600319011261019a5760043560045481101561019a576114b0602091612178565b90546040519160031b1c8152f35b3461019a575f36600319011261019a57610100600b54600c54600d54600e54600f54601054916011549360ff6012541695604051978852602088015260408701526060860152608085015260a084015260c0830152151560e0820152f35b3461019a575f36600319011261019a576020600554604051908152f35b3461019a575f36600319011261019a57611551612442565b5f6001600160a01b0381546001600160a01b031981168355167f8be0079c531659141344cd1fd0a4f28419497f9722a3daafe3b4186f6b6457e08280a3005b3461019a575f36600319011261019a576020600854604051908152f35b3461019a57602036600319011261019a575f8080806004356115cd612442565b6001600160a01b038254168282156115e8575bf11561140357005b506108fc6115e0565b3461019a57602036600319011261019a576004355f52600160205260405f2080546001600160a01b0391826001820154169260028201541661163560038301612016565b9161167e61167360ff60138401541694601560148501549401549460405198899889526020890152604088015260e0606088015260e0870190611ed1565b936080860190611f98565b60a084015260c08301520390f35b3461019a575f36600319011261019a576020600654604051908152f35b3461019a57604036600319011261019a57602060405160628152f35b3461019a5760206116e16116d836611fa5565b9291909161223a565b604051908152f35b3461019a57602036600319011261019a5760043580151580910361019a5761170f612442565b60ff8019600a5416911617600a55426009555f80f35b3461019a5760208060031936011261019a576040519061174482611cd6565b5f82525f818301525f60408301525f60c06040519361176285611cb9565b82855282848601528260408601528260608601528260808601528260a0860152828286015261178f6121c1565b60e0860152610100946060868201528361012082015260608201528260808201528260a082015201526004355f526001815260405f2091604051926117d384611cd6565b805484526001600160a01b0391826001830154169184860192835283600282015416916040870192835261180960038301612016565b906060880191825260ff601384015416916080890196600584101561124e5789958160156118869761187a978c5260a060148201549a01998a5201549860c08d01998a528b6040519d8e9d8e5251908d0152511660408b015251166060890152519060e06080890152870190611ed1565b935160a0860190611f98565b5160c08401525160e08301520390f35b3461019a575f36600319011261019a5760065460075460085491908115611903576064810292818404606414821517156118ef576118d68360809561220f565b915b604051938452602084015260408301526060820152f35b634e487b7160e01b5f52601160045260245ffd5b6080925f916118d8565b3461019a575f36600319011261019a57602060ff600a54166040519015158152f35b3461019a57602036600319011261019a5760043567ffffffffffffffff811161019a576116e160a06119676020933690600401611d4c565b015161240d565b3461019a5760a036600319011261019a57611987611c79565b61198f611c8f565b906020606435809361199f6121c1565b50604051633a77421d60e21b81526001600160a01b039485166004820152931660248401526044830152608480356064840152829081305afa908115611403575f91611af6575b50156113aa57600b54906119f98161240d565b9062aa36a78114908115611aeb575b5015611ae257600f54915b6006548015611ad457600754936064850294808604606414901517156118ef57611a41603c9260e09661220f565b925b611a4d818661222d565b9060405195611a5b87611cd6565b86526020860152604085015204606083015269152d02c7e14af6800000608083015260a0820152600a60c0820152611ad2604051809260c08091805184526020810151602085015260408101516040850152606081015160608501526080810151608085015260a081015160a08501520151910152565bf35b50603c60e093606292611a43565b60105491611a13565b600191501483611a08565b611b0f915060203d6020116113fc576113ee8183611d2a565b826119e6565b3461019a57602036600319011261019a5780611b3361014092611cb9565b5f81525f60208201525f60408201525f60608201525f60808201525f60a08201525f60c08201525f60e08201525f61012061010092828482015201526004355f52600260205261012060405f209160405190611b8e82611cb9565b60ff60088554958685526001600160a01b0360018201541660208601526001600160a01b0360028201541660408601526003810154606086015260048101546080860152600581015460a0860152600681015460c0860152600781015460e0860152015481811615158385015260081c161515838301526040519384526001600160a01b0360208301511660208501526001600160a01b036040830151166040850152606082015160608501526080820151608085015260a082015160a085015260c082015160c085015260e082015160e08501528082015115159084015201511515610120820152f35b600435906001600160a01b038216820361019a57565b602435906001600160a01b038216820361019a57565b35906001600160a01b038216820361019a57565b610140810190811067ffffffffffffffff82111761054757604052565b60e0810190811067ffffffffffffffff82111761054757604052565b60c0810190811067ffffffffffffffff82111761054757604052565b6060810190811067ffffffffffffffff82111761054757604052565b90601f8019910116810190811067ffffffffffffffff82111761054757604052565b919091808303610200811261019a57604090815192611d6a84611cb9565b8395611d7582611ca5565b855260e0602093611d87858501611ca5565b85880152611d96868501611ca5565b86880152606084013560608801526080840135608088015260a084013560a088015260c084013560c088015260df19011261019a57835193611dd785611cd6565b60e083013585526101009081840135858701526101209586850135828201526101408501356060820152610160850135608082015261018085013560a08201526101a085013560c082015260e08801526101c08401359467ffffffffffffffff9586811161019a5785019184601f8401121561019a578235968711610547575193611e6b601f8801601f1916830186611d2a565b86855281878401011161019a57856101e096825f940183870137840101528501520135910152565b91908251928382525f5b848110611ebd575050825f602080949584010152601f8019910116010190565b602081830181015184830182015201611e9d565b906101e0610120611f8f6102006001600160a01b038087511686528060208801511660208701526040870151166040860152606086015160608601526080860151608086015260a086015160a086015260c086015160c0860152611f7960e087015160e087019060c08091805184526020810151602085015260408101516040850152606081015160608501526080810151608085015260a081015160a08501520151910152565b61010086015190806101c0870152850190611e93565b93015191015290565b90600582101561124e5752565b608090600319011261019a576001600160a01b0390600435828116810361019a5791602435908116810361019a57906044359060643590565b90600182811c9216801561200c575b6020831014611ff857565b634e487b7160e01b5f52602260045260245ffd5b91607f1691611fed565b9060405161202381611cb9565b80926001600160a01b03808254168352600181600184015416916020928386015260028401541660408501526003830154606085015260048301546080850152600583015460a0850152600683015460c085015260405161208381611cd6565b6007840154815260088401548382015260098401546040820152600a8401546060820152600b8401546080820152600c84015460a0820152600d84015460c082015260e0850152600e830191604051925f928154916120e183611fde565b8087529260018116908115612156575060011461211d575b505050509181612110600f93610120950382611d2a565b6101008501520154910152565b5f908152838120939450925b8284106121435750505082010181612110816101206120f9565b8054868501860152928401928101612129565b60ff191685880152505050151560051b830101905081612110816101206120f9565b6004548110156121ad5760045f527f8a35acfbc15ff81a39ae7d344fd709f28e8600b4aa8c65c6b64bfe7fe36bd19b01905f90565b634e487b7160e01b5f52603260045260245ffd5b604051906121ce82611cd6565b5f60c0838281528260208201528260408201528260608201528260808201528260a08201520152565b9081602091031261019a5751801515810361019a5790565b8115612219570490565b634e487b7160e01b5f52601260045260245ffd5b919082018092116118ef57565b604051633a77421d60e21b81526001600160a01b0391821660048201529116602482015260448101919091526064810191909152602081608481305afa908115611403575f9161229d575b50156122995769152d02c7e14af680000090565b5f90565b6122b6915060203d6020116113fc576113ee8183611d2a565b5f612285565b5f1981146118ef5760010190565b604051633a77421d60e21b81526001600160a01b039190911660048201819052602482015260448101919091526064810191909152602081608481305afa908115611403575f9161232c575b501561232657600d5490600e5490565b5f905f90565b612345915060203d6020116113fc576113ee8183611d2a565b5f612316565b9192909262aa36a7918282149182612400575b82156123e3575b62066eee811493846123d9575b5083156123b6575b50501590816123ad575b506123a7576001600160a01b038091161591826123a057505090565b1615919050565b50505f90565b9050155f612384565b61a4b1919293501490816123ce575b50905f8061237a565b60019150145f6123c5565b821493505f612372565b915060018214806123f5575b91612365565b5061a4b181146123ef565b62066eee8214925061235e565b62aa36a78114908115612437575b501561242c576611c37937e0800090565b6601c6bf5263400090565b60019150145f61241b565b6001600160a01b035f5416330361245557565b60246040517f118cdaa7000000000000000000000000000000000000000000000000000000008152336004820152fdfea164736f6c6343000818000a","linkReferences":{}},"methodIdentifiers":{"challengeWithdrawal(bytes32)":"c0320218","config()":"79502c55","currentBatch()":"76cd940e","emergencyWithdraw(uint256)":"5312ea8e","estimateGas((address,address,address,uint256,uint256,uint256,uint256,(uint256,uint256,uint256,uint256,uint256,uint256,uint256),bytes,uint256))":"1d635756","executeBridge((address,address,address,uint256,uint256,uint256,uint256,(uint256,uint256,uint256,uint256,uint256,uint256,uint256),bytes,uint256),address,bytes)":"8f20a7f7","getAvailableLiquidity(address,address,uint256,uint256)":"3542284b","getBridgeName()":"b8b2233d","getBridgeStats()":"2165cbb7","getRetryableTicket(bytes32)":"0e0d665f","getRouteMetrics(address,address,uint256,uint256,uint256)":"15a3d37a","getSuccessRate(uint256,uint256)":"390f4185","getTransfer(bytes32)":"260958a5","getTransferLimits(address,uint256,uint256)":"d51aa0cb","getWithdrawalProof(bytes32)":"aed14a49","healthyStatus()":"1e04a56f","isHealthy()":"e4020804","lastHealthCheck()":"9ce3f4b2","owner()":"8da5cb5b","renounceOwnership()":"715018a6","retryableTickets(bytes32)":"f35442f8","successfulTransfers()":"f9e5051a","supportsRoute(address,address,uint256,uint256)":"e9dd0874","totalTransfers()":"3bf47720","totalVolume()":"5f81a57c","transferHistory(uint256)":"816c99de","transferOwnership(address)":"f2fde38b","transfers(bytes32)":"3c64f04b","updateConfig((uint256,uint256,uint256,uint256,uint256,uint256,uint256,bool))":"93d9a1e6","updateHealthStatus(bool)":"26c35644","withdrawalProofs(bytes32)":"bad0604f"},"storageLayout":{"storage":[{"astId":40138,"contract":"src/adapters/ArbitrumBridgeAdapter.sol:ArbitrumBridgeAdapter","label":"_owner","offset":0,"slot":"0","type":"t_address"},{"astId":53862,"contract":"src/adapters/ArbitrumBridgeAdapter.sol:ArbitrumBridgeAdapter","label":"transfers","offset":0,"slot":"1","type":"t_mapping(t_bytes32,t_struct(Transfer)67618_storage)"},{"astId":53867,"contract":"src/adapters/ArbitrumBridgeAdapter.sol:ArbitrumBridgeAdapter","label":"retryableTickets","offset":0,"slot":"2","type":"t_mapping(t_bytes32,t_struct(RetryableTicket)53842_storage)"},{"astId":53872,"contract":"src/adapters/ArbitrumBridgeAdapter.sol:ArbitrumBridgeAdapter","label":"withdrawalProofs","offset":0,"slot":"3","type":"t_mapping(t_bytes32,t_struct(WithdrawalProof)53857_storage)"},{"astId":53875,"contract":"src/adapters/ArbitrumBridgeAdapter.sol:ArbitrumBridgeAdapter","label":"transferHistory","offset":0,"slot":"4","type":"t_array(t_bytes32)dyn_storage"},{"astId":53877,"contract":"src/adapters/ArbitrumBridgeAdapter.sol:ArbitrumBridgeAdapter","label":"currentBatch","offset":0,"slot":"5","type":"t_uint256"},{"astId":53879,"contract":"src/adapters/ArbitrumBridgeAdapter.sol:ArbitrumBridgeAdapter","label":"totalTransfers","offset":0,"slot":"6","type":"t_uint256"},{"astId":53881,"contract":"src/adapters/ArbitrumBridgeAdapter.sol:ArbitrumBridgeAdapter","label":"successfulTransfers","offset":0,"slot":"7","type":"t_uint256"},{"astId":53883,"contract":"src/adapters/ArbitrumBridgeAdapter.sol:ArbitrumBridgeAdapter","label":"totalVolume","offset":0,"slot":"8","type":"t_uint256"},{"astId":53885,"contract":"src/adapters/ArbitrumBridgeAdapter.sol:ArbitrumBridgeAdapter","label":"lastHealthCheck","offset":0,"slot":"9","type":"t_uint256"},{"astId":53888,"contract":"src/adapters/ArbitrumBridgeAdapter.sol:ArbitrumBridgeAdapter","label":"healthyStatus","offset":0,"slot":"10","type":"t_bool"},{"astId":53891,"contract":"src/adapters/ArbitrumBridgeAdapter.sol:ArbitrumBridgeAdapter","label":"config","offset":0,"slot":"11","type":"t_struct(BridgeConfig)53820_storage"}],"types":{"t_address":{"encoding":"inplace","label":"address","numberOfBytes":"20"},"t_array(t_bytes32)dyn_storage":{"encoding":"dynamic_array","label":"bytes32[]","numberOfBytes":"32","base":"t_bytes32"},"t_bool":{"encoding":"inplace","label":"bool","numberOfBytes":"1"},"t_bytes32":{"encoding":"inplace","label":"bytes32","numberOfBytes":"32"},"t_bytes_storage":{"encoding":"bytes","label":"bytes","numberOfBytes":"32"},"t_enum(TransferStatus)67600":{"encoding":"inplace","label":"enum IBridgeAdapter.TransferStatus","numberOfBytes":"1"},"t_mapping(t_bytes32,t_struct(RetryableTicket)53842_storage)":{"encoding":"mapping","key":"t_bytes32","label":"mapping(bytes32 => struct ArbitrumBridgeAdapter.RetryableTicket)","numberOfBytes":"32","value":"t_struct(RetryableTicket)53842_storage"},"t_mapping(t_bytes32,t_struct(Transfer)67618_storage)":{"encoding":"mapping","key":"t_bytes32","label":"mapping(bytes32 => struct IBridgeAdapter.Transfer)","numberOfBytes":"32","value":"t_struct(Transfer)67618_storage"},"t_mapping(t_bytes32,t_struct(WithdrawalProof)53857_storage)":{"encoding":"mapping","key":"t_bytes32","label":"mapping(bytes32 => struct ArbitrumBridgeAdapter.WithdrawalProof)","numberOfBytes":"32","value":"t_struct(WithdrawalProof)53857_storage"},"t_struct(BridgeConfig)53820_storage":{"encoding":"inplace","label":"struct ArbitrumBridgeAdapter.BridgeConfig","numberOfBytes":"256","members":[{"astId":53805,"contract":"src/adapters/ArbitrumBridgeAdapter.sol:ArbitrumBridgeAdapter","label":"baseFee","offset":0,"slot":"0","type":"t_uint256"},{"astId":53807,"contract":"src/adapters/ArbitrumBridgeAdapter.sol:ArbitrumBridgeAdapter","label":"feePercentage","offset":0,"slot":"1","type":"t_uint256"},{"astId":53809,"contract":"src/adapters/ArbitrumBridgeAdapter.sol:ArbitrumBridgeAdapter","label":"minTransferAmount","offset":0,"slot":"2","type":"t_uint256"},{"astId":53811,"contract":"src/adapters/ArbitrumBridgeAdapter.sol:ArbitrumBridgeAdapter","label":"maxTransferAmount","offset":0,"slot":"3","type":"t_uint256"},{"astId":53813,"contract":"src/adapters/ArbitrumBridgeAdapter.sol:ArbitrumBridgeAdapter","label":"avgDepositTime","offset":0,"slot":"4","type":"t_uint256"},{"astId":53815,"contract":"src/adapters/ArbitrumBridgeAdapter.sol:ArbitrumBridgeAdapter","label":"avgWithdrawTime","offset":0,"slot":"5","type":"t_uint256"},{"astId":53817,"contract":"src/adapters/ArbitrumBridgeAdapter.sol:ArbitrumBridgeAdapter","label":"challengePeriod","offset":0,"slot":"6","type":"t_uint256"},{"astId":53819,"contract":"src/adapters/ArbitrumBridgeAdapter.sol:ArbitrumBridgeAdapter","label":"isActive","offset":0,"slot":"7","type":"t_bool"}]},"t_struct(RetryableTicket)53842_storage":{"encoding":"inplace","label":"struct ArbitrumBridgeAdapter.RetryableTicket","numberOfBytes":"288","members":[{"astId":53823,"contract":"src/adapters/ArbitrumBridgeAdapter.sol:ArbitrumBridgeAdapter","label":"transferId","offset":0,"slot":"0","type":"t_bytes32"},{"astId":53825,"contract":"src/adapters/ArbitrumBridgeAdapter.sol:ArbitrumBridgeAdapter","label":"sender","offset":0,"slot":"1","type":"t_address"},{"astId":53827,"contract":"src/adapters/ArbitrumBridgeAdapter.sol:ArbitrumBridgeAdapter","label":"recipient","offset":0,"slot":"2","type":"t_address"},{"astId":53829,"contract":"src/adapters/ArbitrumBridgeAdapter.sol:ArbitrumBridgeAdapter","label":"amount","offset":0,"slot":"3","type":"t_uint256"},{"astId":53831,"contract":"src/adapters/ArbitrumBridgeAdapter.sol:ArbitrumBridgeAdapter","label":"maxGas","offset":0,"slot":"4","type":"t_uint256"},{"astId":53833,"contract":"src/adapters/ArbitrumBridgeAdapter.sol:ArbitrumBridgeAdapter","label":"gasPriceBid","offset":0,"slot":"5","type":"t_uint256"},{"astId":53835,"contract":"src/adapters/ArbitrumBridgeAdapter.sol:ArbitrumBridgeAdapter","label":"submissionFee","offset":0,"slot":"6","type":"t_uint256"},{"astId":53837,"contract":"src/adapters/ArbitrumBridgeAdapter.sol:ArbitrumBridgeAdapter","label":"createdAt","offset":0,"slot":"7","type":"t_uint256"},{"astId":53839,"contract":"src/adapters/ArbitrumBridgeAdapter.sol:ArbitrumBridgeAdapter","label":"isRedeemed","offset":0,"slot":"8","type":"t_bool"},{"astId":53841,"contract":"src/adapters/ArbitrumBridgeAdapter.sol:ArbitrumBridgeAdapter","label":"isExpired","offset":1,"slot":"8","type":"t_bool"}]},"t_struct(Route)67593_storage":{"encoding":"inplace","label":"struct IBridgeAdapter.Route","numberOfBytes":"512","members":[{"astId":67573,"contract":"src/adapters/ArbitrumBridgeAdapter.sol:ArbitrumBridgeAdapter","label":"adapter","offset":0,"slot":"0","type":"t_address"},{"astId":67575,"contract":"src/adapters/ArbitrumBridgeAdapter.sol:ArbitrumBridgeAdapter","label":"tokenIn","offset":0,"slot":"1","type":"t_address"},{"astId":67577,"contract":"src/adapters/ArbitrumBridgeAdapter.sol:ArbitrumBridgeAdapter","label":"tokenOut","offset":0,"slot":"2","type":"t_address"},{"astId":67579,"contract":"src/adapters/ArbitrumBridgeAdapter.sol:ArbitrumBridgeAdapter","label":"amountIn","offset":0,"slot":"3","type":"t_uint256"},{"astId":67581,"contract":"src/adapters/ArbitrumBridgeAdapter.sol:ArbitrumBridgeAdapter","label":"amountOut","offset":0,"slot":"4","type":"t_uint256"},{"astId":67583,"contract":"src/adapters/ArbitrumBridgeAdapter.sol:ArbitrumBridgeAdapter","label":"srcChainId","offset":0,"slot":"5","type":"t_uint256"},{"astId":67585,"contract":"src/adapters/ArbitrumBridgeAdapter.sol:ArbitrumBridgeAdapter","label":"dstChainId","offset":0,"slot":"6","type":"t_uint256"},{"astId":67588,"contract":"src/adapters/ArbitrumBridgeAdapter.sol:ArbitrumBridgeAdapter","label":"metrics","offset":0,"slot":"7","type":"t_struct(RouteMetrics)67570_storage"},{"astId":67590,"contract":"src/adapters/ArbitrumBridgeAdapter.sol:ArbitrumBridgeAdapter","label":"adapterData","offset":0,"slot":"14","type":"t_bytes_storage"},{"astId":67592,"contract":"src/adapters/ArbitrumBridgeAdapter.sol:ArbitrumBridgeAdapter","label":"deadline","offset":0,"slot":"15","type":"t_uint256"}]},"t_struct(RouteMetrics)67570_storage":{"encoding":"inplace","label":"struct IBridgeAdapter.RouteMetrics","numberOfBytes":"224","members":[{"astId":67557,"contract":"src/adapters/ArbitrumBridgeAdapter.sol:ArbitrumBridgeAdapter","label":"estimatedGasCost","offset":0,"slot":"0","type":"t_uint256"},{"astId":67559,"contract":"src/adapters/ArbitrumBridgeAdapter.sol:ArbitrumBridgeAdapter","label":"bridgeFee","offset":0,"slot":"1","type":"t_uint256"},{"astId":67561,"contract":"src/adapters/ArbitrumBridgeAdapter.sol:ArbitrumBridgeAdapter","label":"totalCostWei","offset":0,"slot":"2","type":"t_uint256"},{"astId":67563,"contract":"src/adapters/ArbitrumBridgeAdapter.sol:ArbitrumBridgeAdapter","label":"estimatedTimeMinutes","offset":0,"slot":"3","type":"t_uint256"},{"astId":67565,"contract":"src/adapters/ArbitrumBridgeAdapter.sol:ArbitrumBridgeAdapter","label":"liquidityAvailable","offset":0,"slot":"4","type":"t_uint256"},{"astId":67567,"contract":"src/adapters/ArbitrumBridgeAdapter.sol:ArbitrumBridgeAdapter","label":"successRate","offset":0,"slot":"5","type":"t_uint256"},{"astId":67569,"contract":"src/adapters/ArbitrumBridgeAdapter.sol:ArbitrumBridgeAdapter","label":"congestionLevel","offset":0,"slot":"6","type":"t_uint256"}]},"t_struct(Transfer)67618_storage":{"encoding":"inplace","label":"struct IBridgeAdapter.Transfer","numberOfBytes":"704","members":[{"astId":67603,"contract":"src/adapters/ArbitrumBridgeAdapter.sol:ArbitrumBridgeAdapter","label":"transferId","offset":0,"slot":"0","type":"t_bytes32"},{"astId":67605,"contract":"src/adapters/ArbitrumBridgeAdapter.sol:ArbitrumBridgeAdapter","label":"sender","offset":0,"slot":"1","type":"t_address"},{"astId":67607,"contract":"src/adapters/ArbitrumBridgeAdapter.sol:ArbitrumBridgeAdapter","label":"recipient","offset":0,"slot":"2","type":"t_address"},{"astId":67610,"contract":"src/adapters/ArbitrumBridgeAdapter.sol:ArbitrumBridgeAdapter","label":"route","offset":0,"slot":"3","type":"t_struct(Route)67593_storage"},{"astId":67613,"contract":"src/adapters/ArbitrumBridgeAdapter.sol:ArbitrumBridgeAdapter","label":"status","offset":0,"slot":"19","type":"t_enum(TransferStatus)67600"},{"astId":67615,"contract":"src/adapters/ArbitrumBridgeAdapter.sol:ArbitrumBridgeAdapter","label":"initiatedAt","offset":0,"slot":"20","type":"t_uint256"},{"astId":67617,"contract":"src/adapters/ArbitrumBridgeAdapter.sol:ArbitrumBridgeAdapter","label":"completedAt","offset":0,"slot":"21","type":"t_uint256"}]},"t_struct(WithdrawalProof)53857_storage":{"encoding":"inplace","label":"struct ArbitrumBridgeAdapter.WithdrawalProof","numberOfBytes":"160","members":[{"astId":53845,"contract":"src/adapters/ArbitrumBridgeAdapter.sol:ArbitrumBridgeAdapter","label":"transferId","offset":0,"slot":"0","type":"t_bytes32"},{"astId":53847,"contract":"src/adapters/ArbitrumBridgeAdapter.sol:ArbitrumBridgeAdapter","label":"batchNumber","offset":0,"slot":"1","type":"t_uint256"},{"astId":53850,"contract":"src/adapters/ArbitrumBridgeAdapter.sol:ArbitrumBridgeAdapter","label":"merkleProof","offset":0,"slot":"2","type":"t_array(t_bytes32)dyn_storage"},{"astId":53852,"contract":"src/adapters/ArbitrumBridgeAdapter.sol:ArbitrumBridgeAdapter","label":"challengeableUntil","offset":0,"slot":"3","type":"t_uint256"},{"astId":53854,"contract":"src/adapters/ArbitrumBridgeAdapter.sol:ArbitrumBridgeAdapter","label":"isChallenged","offset":0,"slot":"4","type":"t_bool"},{"astId":53856,"contract":"src/adapters/ArbitrumBridgeAdapter.sol:ArbitrumBridgeAdapter","label":"isConfirmed","offset":1,"slot":"4","type":"t_bool"}]},"t_uint256":{"encoding":"inplace","label":"uint256","numberOfBytes":"32"}}},"id":54}