{"abi":[{"type":"constructor","inputs":[],"stateMutability":"nonpayable"},{"type":"receive","stateMutability":"payable"},{"type":"function","name":"addTokenMapping","inputs":[{"name":"rootToken","type":"address","internalType":"address"},{"name":"childToken","type":"address","internalType":"address"},{"name":"tokenMapping","type":"tuple","internalType":"struct PolygonBridgeAdapter.TokenMapping","components":[{"name":"rootToken","type":"address","internalType":"address"},{"name":"childToken","type":"address","internalType":"address"},{"name":"isSupported","type":"bool","internalType":"bool"},{"name":"minAmount","type":"uint256","internalType":"uint256"},{"name":"maxAmount","type":"uint256","internalType":"uint256"},{"name":"dailyLimit","type":"uint256","internalType":"uint256"},{"name":"dailyTransferred","type":"uint256","internalType":"uint256"},{"name":"lastResetTime","type":"uint256","internalType":"uint256"}]}],"outputs":[],"stateMutability":"nonpayable"},{"type":"function","name":"challengePeriod","inputs":[],"outputs":[{"name":"","type":"uint256","internalType":"uint256"}],"stateMutability":"view"},{"type":"function","name":"checkpointInterval","inputs":[],"outputs":[{"name":"","type":"uint256","internalType":"uint256"}],"stateMutability":"view"},{"type":"function","name":"checkpoints","inputs":[{"name":"","type":"uint256","internalType":"uint256"}],"outputs":[{"name":"blockNumber","type":"uint256","internalType":"uint256"},{"name":"rootHash","type":"bytes32","internalType":"bytes32"},{"name":"timestamp","type":"uint256","internalType":"uint256"},{"name":"isFinalized","type":"bool","internalType":"bool"}],"stateMutability":"view"},{"type":"function","name":"config","inputs":[],"outputs":[{"name":"baseFee","type":"uint256","internalType":"uint256"},{"name":"feePercentage","type":"uint256","internalType":"uint256"},{"name":"minTransferAmount","type":"uint256","internalType":"uint256"},{"name":"maxTransferAmount","type":"uint256","internalType":"uint256"},{"name":"avgDepositTime","type":"uint256","internalType":"uint256"},{"name":"avgWithdrawTime","type":"uint256","internalType":"uint256"},{"name":"isActive","type":"bool","internalType":"bool"}],"stateMutability":"view"},{"type":"function","name":"currentCheckpoint","inputs":[],"outputs":[{"name":"","type":"uint256","internalType":"uint256"}],"stateMutability":"view"},{"type":"function","name":"emergencyWithdraw","inputs":[{"name":"token","type":"address","internalType":"address"},{"name":"amount","type":"uint256","internalType":"uint256"}],"outputs":[],"stateMutability":"nonpayable"},{"type":"function","name":"estimateGas","inputs":[{"name":"route","type":"tuple","internalType":"struct IBridgeAdapter.Route","components":[{"name":"adapter","type":"address","internalType":"address"},{"name":"tokenIn","type":"address","internalType":"address"},{"name":"tokenOut","type":"address","internalType":"address"},{"name":"amountIn","type":"uint256","internalType":"uint256"},{"name":"amountOut","type":"uint256","internalType":"uint256"},{"name":"srcChainId","type":"uint256","internalType":"uint256"},{"name":"dstChainId","type":"uint256","internalType":"uint256"},{"name":"metrics","type":"tuple","internalType":"struct IBridgeAdapter.RouteMetrics","components":[{"name":"estimatedGasCost","type":"uint256","internalType":"uint256"},{"name":"bridgeFee","type":"uint256","internalType":"uint256"},{"name":"totalCostWei","type":"uint256","internalType":"uint256"},{"name":"estimatedTimeMinutes","type":"uint256","internalType":"uint256"},{"name":"liquidityAvailable","type":"uint256","internalType":"uint256"},{"name":"successRate","type":"uint256","internalType":"uint256"},{"name":"congestionLevel","type":"uint256","internalType":"uint256"}]},{"name":"adapterData","type":"bytes","internalType":"bytes"},{"name":"deadline","type":"uint256","internalType":"uint256"}]}],"outputs":[{"name":"gasEstimate","type":"uint256","internalType":"uint256"}],"stateMutability":"view"},{"type":"function","name":"executeBridge","inputs":[{"name":"route","type":"tuple","internalType":"struct IBridgeAdapter.Route","components":[{"name":"adapter","type":"address","internalType":"address"},{"name":"tokenIn","type":"address","internalType":"address"},{"name":"tokenOut","type":"address","internalType":"address"},{"name":"amountIn","type":"uint256","internalType":"uint256"},{"name":"amountOut","type":"uint256","internalType":"uint256"},{"name":"srcChainId","type":"uint256","internalType":"uint256"},{"name":"dstChainId","type":"uint256","internalType":"uint256"},{"name":"metrics","type":"tuple","internalType":"struct IBridgeAdapter.RouteMetrics","components":[{"name":"estimatedGasCost","type":"uint256","internalType":"uint256"},{"name":"bridgeFee","type":"uint256","internalType":"uint256"},{"name":"totalCostWei","type":"uint256","internalType":"uint256"},{"name":"estimatedTimeMinutes","type":"uint256","internalType":"uint256"},{"name":"liquidityAvailable","type":"uint256","internalType":"uint256"},{"name":"successRate","type":"uint256","internalType":"uint256"},{"name":"congestionLevel","type":"uint256","internalType":"uint256"}]},{"name":"adapterData","type":"bytes","internalType":"bytes"},{"name":"deadline","type":"uint256","internalType":"uint256"}]},{"name":"recipient","type":"address","internalType":"address"},{"name":"permitData","type":"bytes","internalType":"bytes"}],"outputs":[{"name":"transferId","type":"bytes32","internalType":"bytes32"}],"stateMutability":"payable"},{"type":"function","name":"exitProofs","inputs":[{"name":"","type":"bytes32","internalType":"bytes32"}],"outputs":[{"name":"transferId","type":"bytes32","internalType":"bytes32"},{"name":"checkpointIndex","type":"uint256","internalType":"uint256"},{"name":"isProcessed","type":"bool","internalType":"bool"},{"name":"exitableAt","type":"uint256","internalType":"uint256"}],"stateMutability":"view"},{"type":"function","name":"getAvailableLiquidity","inputs":[{"name":"tokenIn","type":"address","internalType":"address"},{"name":"tokenOut","type":"address","internalType":"address"},{"name":"srcChainId","type":"uint256","internalType":"uint256"},{"name":"dstChainId","type":"uint256","internalType":"uint256"}],"outputs":[{"name":"liquidity","type":"uint256","internalType":"uint256"}],"stateMutability":"view"},{"type":"function","name":"getBridgeName","inputs":[],"outputs":[{"name":"","type":"string","internalType":"string"}],"stateMutability":"pure"},{"type":"function","name":"getBridgeStats","inputs":[],"outputs":[{"name":"_totalTransfers","type":"uint256","internalType":"uint256"},{"name":"_successfulTransfers","type":"uint256","internalType":"uint256"},{"name":"_totalVolume","type":"uint256","internalType":"uint256"},{"name":"_successRate","type":"uint256","internalType":"uint256"}],"stateMutability":"view"},{"type":"function","name":"getCheckpoint","inputs":[{"name":"checkpointId","type":"uint256","internalType":"uint256"}],"outputs":[{"name":"checkpoint","type":"tuple","internalType":"struct PolygonBridgeAdapter.Checkpoint","components":[{"name":"blockNumber","type":"uint256","internalType":"uint256"},{"name":"rootHash","type":"bytes32","internalType":"bytes32"},{"name":"timestamp","type":"uint256","internalType":"uint256"},{"name":"isFinalized","type":"bool","internalType":"bool"}]}],"stateMutability":"view"},{"type":"function","name":"getExitProof","inputs":[{"name":"transferId","type":"bytes32","internalType":"bytes32"}],"outputs":[{"name":"exitProof","type":"tuple","internalType":"struct PolygonBridgeAdapter.ExitProof","components":[{"name":"transferId","type":"bytes32","internalType":"bytes32"},{"name":"merkleProof","type":"bytes32[]","internalType":"bytes32[]"},{"name":"checkpointIndex","type":"uint256","internalType":"uint256"},{"name":"isProcessed","type":"bool","internalType":"bool"},{"name":"exitableAt","type":"uint256","internalType":"uint256"}]}],"stateMutability":"view"},{"type":"function","name":"getRouteMetrics","inputs":[{"name":"tokenIn","type":"address","internalType":"address"},{"name":"tokenOut","type":"address","internalType":"address"},{"name":"amount","type":"uint256","internalType":"uint256"},{"name":"srcChainId","type":"uint256","internalType":"uint256"},{"name":"dstChainId","type":"uint256","internalType":"uint256"}],"outputs":[{"name":"metrics","type":"tuple","internalType":"struct IBridgeAdapter.RouteMetrics","components":[{"name":"estimatedGasCost","type":"uint256","internalType":"uint256"},{"name":"bridgeFee","type":"uint256","internalType":"uint256"},{"name":"totalCostWei","type":"uint256","internalType":"uint256"},{"name":"estimatedTimeMinutes","type":"uint256","internalType":"uint256"},{"name":"liquidityAvailable","type":"uint256","internalType":"uint256"},{"name":"successRate","type":"uint256","internalType":"uint256"},{"name":"congestionLevel","type":"uint256","internalType":"uint256"}]}],"stateMutability":"view"},{"type":"function","name":"getSuccessRate","inputs":[{"name":"srcChainId","type":"uint256","internalType":"uint256"},{"name":"dstChainId","type":"uint256","internalType":"uint256"}],"outputs":[{"name":"successRate","type":"uint256","internalType":"uint256"}],"stateMutability":"view"},{"type":"function","name":"getTokenMapping","inputs":[{"name":"token","type":"address","internalType":"address"}],"outputs":[{"name":"tokenMapping","type":"tuple","internalType":"struct PolygonBridgeAdapter.TokenMapping","components":[{"name":"rootToken","type":"address","internalType":"address"},{"name":"childToken","type":"address","internalType":"address"},{"name":"isSupported","type":"bool","internalType":"bool"},{"name":"minAmount","type":"uint256","internalType":"uint256"},{"name":"maxAmount","type":"uint256","internalType":"uint256"},{"name":"dailyLimit","type":"uint256","internalType":"uint256"},{"name":"dailyTransferred","type":"uint256","internalType":"uint256"},{"name":"lastResetTime","type":"uint256","internalType":"uint256"}]}],"stateMutability":"view"},{"type":"function","name":"getTransfer","inputs":[{"name":"transferId","type":"bytes32","internalType":"bytes32"}],"outputs":[{"name":"transfer","type":"tuple","internalType":"struct IBridgeAdapter.Transfer","components":[{"name":"transferId","type":"bytes32","internalType":"bytes32"},{"name":"sender","type":"address","internalType":"address"},{"name":"recipient","type":"address","internalType":"address"},{"name":"route","type":"tuple","internalType":"struct IBridgeAdapter.Route","components":[{"name":"adapter","type":"address","internalType":"address"},{"name":"tokenIn","type":"address","internalType":"address"},{"name":"tokenOut","type":"address","internalType":"address"},{"name":"amountIn","type":"uint256","internalType":"uint256"},{"name":"amountOut","type":"uint256","internalType":"uint256"},{"name":"srcChainId","type":"uint256","internalType":"uint256"},{"name":"dstChainId","type":"uint256","internalType":"uint256"},{"name":"metrics","type":"tuple","internalType":"struct IBridgeAdapter.RouteMetrics","components":[{"name":"estimatedGasCost","type":"uint256","internalType":"uint256"},{"name":"bridgeFee","type":"uint256","internalType":"uint256"},{"name":"totalCostWei","type":"uint256","internalType":"uint256"},{"name":"estimatedTimeMinutes","type":"uint256","internalType":"uint256"},{"name":"liquidityAvailable","type":"uint256","internalType":"uint256"},{"name":"successRate","type":"uint256","internalType":"uint256"},{"name":"congestionLevel","type":"uint256","internalType":"uint256"}]},{"name":"adapterData","type":"bytes","internalType":"bytes"},{"name":"deadline","type":"uint256","internalType":"uint256"}]},{"name":"status","type":"uint8","internalType":"enum IBridgeAdapter.TransferStatus"},{"name":"initiatedAt","type":"uint256","internalType":"uint256"},{"name":"completedAt","type":"uint256","internalType":"uint256"}]}],"stateMutability":"view"},{"type":"function","name":"getTransferLimits","inputs":[{"name":"token","type":"address","internalType":"address"},{"name":"srcChainId","type":"uint256","internalType":"uint256"},{"name":"dstChainId","type":"uint256","internalType":"uint256"}],"outputs":[{"name":"minAmount","type":"uint256","internalType":"uint256"},{"name":"maxAmount","type":"uint256","internalType":"uint256"}],"stateMutability":"view"},{"type":"function","name":"healthyStatus","inputs":[],"outputs":[{"name":"","type":"bool","internalType":"bool"}],"stateMutability":"view"},{"type":"function","name":"isHealthy","inputs":[],"outputs":[{"name":"healthy","type":"bool","internalType":"bool"}],"stateMutability":"view"},{"type":"function","name":"lastHealthCheck","inputs":[],"outputs":[{"name":"","type":"uint256","internalType":"uint256"}],"stateMutability":"view"},{"type":"function","name":"owner","inputs":[],"outputs":[{"name":"","type":"address","internalType":"address"}],"stateMutability":"view"},{"type":"function","name":"processExit","inputs":[{"name":"transferId","type":"bytes32","internalType":"bytes32"}],"outputs":[],"stateMutability":"nonpayable"},{"type":"function","name":"renounceOwnership","inputs":[],"outputs":[],"stateMutability":"nonpayable"},{"type":"function","name":"submitCheckpoint","inputs":[{"name":"rootHash","type":"bytes32","internalType":"bytes32"}],"outputs":[],"stateMutability":"nonpayable"},{"type":"function","name":"successfulTransfers","inputs":[],"outputs":[{"name":"","type":"uint256","internalType":"uint256"}],"stateMutability":"view"},{"type":"function","name":"supportedTokens","inputs":[{"name":"","type":"uint256","internalType":"uint256"}],"outputs":[{"name":"","type":"address","internalType":"address"}],"stateMutability":"view"},{"type":"function","name":"supportsRoute","inputs":[{"name":"tokenIn","type":"address","internalType":"address"},{"name":"tokenOut","type":"address","internalType":"address"},{"name":"srcChainId","type":"uint256","internalType":"uint256"},{"name":"dstChainId","type":"uint256","internalType":"uint256"}],"outputs":[{"name":"supported","type":"bool","internalType":"bool"}],"stateMutability":"view"},{"type":"function","name":"tokenMappings","inputs":[{"name":"","type":"address","internalType":"address"}],"outputs":[{"name":"rootToken","type":"address","internalType":"address"},{"name":"childToken","type":"address","internalType":"address"},{"name":"isSupported","type":"bool","internalType":"bool"},{"name":"minAmount","type":"uint256","internalType":"uint256"},{"name":"maxAmount","type":"uint256","internalType":"uint256"},{"name":"dailyLimit","type":"uint256","internalType":"uint256"},{"name":"dailyTransferred","type":"uint256","internalType":"uint256"},{"name":"lastResetTime","type":"uint256","internalType":"uint256"}],"stateMutability":"view"},{"type":"function","name":"totalTransfers","inputs":[],"outputs":[{"name":"","type":"uint256","internalType":"uint256"}],"stateMutability":"view"},{"type":"function","name":"totalVolume","inputs":[],"outputs":[{"name":"","type":"uint256","internalType":"uint256"}],"stateMutability":"view"},{"type":"function","name":"transferHistory","inputs":[{"name":"","type":"uint256","internalType":"uint256"}],"outputs":[{"name":"","type":"bytes32","internalType":"bytes32"}],"stateMutability":"view"},{"type":"function","name":"transferOwnership","inputs":[{"name":"newOwner","type":"address","internalType":"address"}],"outputs":[],"stateMutability":"nonpayable"},{"type":"function","name":"transfers","inputs":[{"name":"","type":"bytes32","internalType":"bytes32"}],"outputs":[{"name":"transferId","type":"bytes32","internalType":"bytes32"},{"name":"sender","type":"address","internalType":"address"},{"name":"recipient","type":"address","internalType":"address"},{"name":"route","type":"tuple","internalType":"struct IBridgeAdapter.Route","components":[{"name":"adapter","type":"address","internalType":"address"},{"name":"tokenIn","type":"address","internalType":"address"},{"name":"tokenOut","type":"address","internalType":"address"},{"name":"amountIn","type":"uint256","internalType":"uint256"},{"name":"amountOut","type":"uint256","internalType":"uint256"},{"name":"srcChainId","type":"uint256","internalType":"uint256"},{"name":"dstChainId","type":"uint256","internalType":"uint256"},{"name":"metrics","type":"tuple","internalType":"struct IBridgeAdapter.RouteMetrics","components":[{"name":"estimatedGasCost","type":"uint256","internalType":"uint256"},{"name":"bridgeFee","type":"uint256","internalType":"uint256"},{"name":"totalCostWei","type":"uint256","internalType":"uint256"},{"name":"estimatedTimeMinutes","type":"uint256","internalType":"uint256"},{"name":"liquidityAvailable","type":"uint256","internalType":"uint256"},{"name":"successRate","type":"uint256","internalType":"uint256"},{"name":"congestionLevel","type":"uint256","internalType":"uint256"}]},{"name":"adapterData","type":"bytes","internalType":"bytes"},{"name":"deadline","type":"uint256","internalType":"uint256"}]},{"name":"status","type":"uint8","internalType":"enum IBridgeAdapter.TransferStatus"},{"name":"initiatedAt","type":"uint256","internalType":"uint256"},{"name":"completedAt","type":"uint256","internalType":"uint256"}],"stateMutability":"view"},{"type":"function","name":"updateConfig","inputs":[{"name":"newConfig","type":"tuple","internalType":"struct PolygonBridgeAdapter.BridgeConfig","components":[{"name":"baseFee","type":"uint256","internalType":"uint256"},{"name":"feePercentage","type":"uint256","internalType":"uint256"},{"name":"minTransferAmount","type":"uint256","internalType":"uint256"},{"name":"maxTransferAmount","type":"uint256","internalType":"uint256"},{"name":"avgDepositTime","type":"uint256","internalType":"uint256"},{"name":"avgWithdrawTime","type":"uint256","internalType":"uint256"},{"name":"isActive","type":"bool","internalType":"bool"}]}],"outputs":[],"stateMutability":"nonpayable"},{"type":"function","name":"updateHealthStatus","inputs":[{"name":"healthy","type":"bool","internalType":"bool"}],"outputs":[],"stateMutability":"nonpayable"},{"type":"event","name":"CheckpointSubmitted","inputs":[{"name":"checkpointId","type":"uint256","indexed":true,"internalType":"uint256"},{"name":"rootHash","type":"bytes32","indexed":false,"internalType":"bytes32"}],"anonymous":false},{"type":"event","name":"DepositInitiated","inputs":[{"name":"transferId","type":"bytes32","indexed":true,"internalType":"bytes32"},{"name":"user","type":"address","indexed":true,"internalType":"address"},{"name":"amount","type":"uint256","indexed":false,"internalType":"uint256"}],"anonymous":false},{"type":"event","name":"ExitProcessed","inputs":[{"name":"transferId","type":"bytes32","indexed":true,"internalType":"bytes32"},{"name":"user","type":"address","indexed":true,"internalType":"address"}],"anonymous":false},{"type":"event","name":"OwnershipTransferred","inputs":[{"name":"previousOwner","type":"address","indexed":true,"internalType":"address"},{"name":"newOwner","type":"address","indexed":true,"internalType":"address"}],"anonymous":false},{"type":"event","name":"TokenMappingAdded","inputs":[{"name":"rootToken","type":"address","indexed":true,"internalType":"address"},{"name":"childToken","type":"address","indexed":true,"internalType":"address"}],"anonymous":false},{"type":"event","name":"TransferCompleted","inputs":[{"name":"transferId","type":"bytes32","indexed":true,"internalType":"bytes32"},{"name":"actualAmountOut","type":"uint256","indexed":false,"internalType":"uint256"},{"name":"actualCost","type":"uint256","indexed":false,"internalType":"uint256"},{"name":"actualTime","type":"uint256","indexed":false,"internalType":"uint256"}],"anonymous":false},{"type":"event","name":"TransferFailed","inputs":[{"name":"transferId","type":"bytes32","indexed":true,"internalType":"bytes32"},{"name":"reason","type":"string","indexed":false,"internalType":"string"}],"anonymous":false},{"type":"event","name":"TransferInitiated","inputs":[{"name":"transferId","type":"bytes32","indexed":true,"internalType":"bytes32"},{"name":"sender","type":"address","indexed":true,"internalType":"address"},{"name":"recipient","type":"address","indexed":true,"internalType":"address"},{"name":"route","type":"tuple","indexed":false,"internalType":"struct IBridgeAdapter.Route","components":[{"name":"adapter","type":"address","internalType":"address"},{"name":"tokenIn","type":"address","internalType":"address"},{"name":"tokenOut","type":"address","internalType":"address"},{"name":"amountIn","type":"uint256","internalType":"uint256"},{"name":"amountOut","type":"uint256","internalType":"uint256"},{"name":"srcChainId","type":"uint256","internalType":"uint256"},{"name":"dstChainId","type":"uint256","internalType":"uint256"},{"name":"metrics","type":"tuple","internalType":"struct IBridgeAdapter.RouteMetrics","components":[{"name":"estimatedGasCost","type":"uint256","internalType":"uint256"},{"name":"bridgeFee","type":"uint256","internalType":"uint256"},{"name":"totalCostWei","type":"uint256","internalType":"uint256"},{"name":"estimatedTimeMinutes","type":"uint256","internalType":"uint256"},{"name":"liquidityAvailable","type":"uint256","internalType":"uint256"},{"name":"successRate","type":"uint256","internalType":"uint256"},{"name":"congestionLevel","type":"uint256","internalType":"uint256"}]},{"name":"adapterData","type":"bytes","internalType":"bytes"},{"name":"deadline","type":"uint256","internalType":"uint256"}]}],"anonymous":false},{"type":"event","name":"WithdrawalInitiated","inputs":[{"name":"transferId","type":"bytes32","indexed":true,"internalType":"bytes32"},{"name":"user","type":"address","indexed":true,"internalType":"address"},{"name":"amount","type":"uint256","indexed":false,"internalType":"uint256"}],"anonymous":false},{"type":"error","name":"BridgeInactive","inputs":[]},{"type":"error","name":"DailyLimitExceeded","inputs":[]},{"type":"error","name":"ExitAlreadyProcessed","inputs":[]},{"type":"error","name":"ExitNotReady","inputs":[]},{"type":"error","name":"InvalidExitProof","inputs":[]},{"type":"error","name":"OwnableInvalidOwner","inputs":[{"name":"owner","type":"address","internalType":"address"}]},{"type":"error","name":"OwnableUnauthorizedAccount","inputs":[{"name":"account","type":"address","internalType":"address"}]},{"type":"error","name":"ReentrancyGuardReentrantCall","inputs":[]},{"type":"error","name":"SafeERC20FailedOperation","inputs":[{"name":"token","type":"address","internalType":"address"}]},{"type":"error","name":"TokenNotMapped","inputs":[]},{"type":"error","name":"TransferAmountTooHigh","inputs":[]},{"type":"error","name":"TransferAmountTooLow","inputs":[]},{"type":"error","name":"UnsupportedRoute","inputs":[]}],"bytecode":{"object":"0x60808060405234620007f4573315620007df575f8054336001600160a01b03198216811783556040519290916001600160a01b0316907f8be0079c531659141344cd1fd0a4f28419497f9722a3daafe3b4186f6b6457e09080a360017f9b779b17422d0df92223018b32b4d1fa46e071723d6817e2486d003becc55f005561010060085562093a809081600955600160ff19600e541617600e5560e0810181811060018060401b03821117620007b7576040526611c37937e080008082525f6020830152662386f26fc100006040830152683635c9adc5dea000006060830152600160c0610708938460808201528560a08201520152600f555f601055662386f26fc10000601155683635c9adc5dea00000601255601355601455600160ff1960155416176015556040516200013581620007f8565b5f80825260036020808401918252600160408501818152662386f26fc1000060608701908152683635c9adc5dea000006080880190815269021e19e0c9bab240000060a0808a0191825260c08a018981524260e08c019081529980529590965297517fa6eef7e35abe7026729641147f7915573c7e97b47efa546f5f6e3230263bcb4980546001600160a01b039283166001600160a01b031990911617905595517fa6eef7e35abe7026729641147f7915573c7e97b47efa546f5f6e3230263bcb4a80549451151590961b60ff60a01b1696166001600160a81b0319909316929092179490941790925591517fa6eef7e35abe7026729641147f7915573c7e97b47efa546f5f6e3230263bcb4b55517fa6eef7e35abe7026729641147f7915573c7e97b47efa546f5f6e3230263bcb4c5591517fa6eef7e35abe7026729641147f7915573c7e97b47efa546f5f6e3230263bcb4d5590517fa6eef7e35abe7026729641147f7915573c7e97b47efa546f5f6e3230263bcb4e55517fa6eef7e35abe7026729641147f7915573c7e97b47efa546f5f6e3230263bcb4f5560065468010000000000000000811015620007b7576001810180600655811015620007cb5760065f525f805160206200342a8339815191520180546001600160a01b03191690556040516200032681620007f8565b60018082526004602080840191825260408401838152670de0b6b3a76400006060860190815269d3c21bcecceda1000000608087019081526a0422ca8b0a00a42500000060a08089019182525f60c08a018181524260e08c01908152918a90529890965297517fcc69885fda6bcc1a4ace058b4a62bf5e179ea78fd58a1ccd71c22cc9b688792f80546001600160a01b0319166001600160a01b0392831617905595517fcc69885fda6bcc1a4ace058b4a62bf5e179ea78fd58a1ccd71c22cc9b6887930805495516001600160a81b0319909616919097161793151590971b60ff60a01b169290921790935591517fcc69885fda6bcc1a4ace058b4a62bf5e179ea78fd58a1ccd71c22cc9b68879315590517fcc69885fda6bcc1a4ace058b4a62bf5e179ea78fd58a1ccd71c22cc9b68879325591517fcc69885fda6bcc1a4ace058b4a62bf5e179ea78fd58a1ccd71c22cc9b688793355517fcc69885fda6bcc1a4ace058b4a62bf5e179ea78fd58a1ccd71c22cc9b688793455517fcc69885fda6bcc1a4ace058b4a62bf5e179ea78fd58a1ccd71c22cc9b68879355560065468010000000000000000811015620007b7576001810180600655811015620007cb5760065f525f805160206200342a8339815191520180546001600160a01b03191660011790556040516200051c81620007f8565b600280825260056020808401918252600160408501818152662386f26fc1000060608701908152683635c9adc5dea000006080880190815269010f0cf064dd5920000060a0808a019182525f60c08b018181524260e08d019081529a9091529590965297517fd9d16d34ffb15ba3a3d852f0d403e2ce1d691fb54de27ac87cd2f993f3ec330f80546001600160a01b0319166001600160a01b0392831617905595517fd9d16d34ffb15ba3a3d852f0d403e2ce1d691fb54de27ac87cd2f993f3ec3310805494516001600160a81b0319909516919097161792151590941b60ff60a01b169190911790935591517fd9d16d34ffb15ba3a3d852f0d403e2ce1d691fb54de27ac87cd2f993f3ec331155517fd9d16d34ffb15ba3a3d852f0d403e2ce1d691fb54de27ac87cd2f993f3ec33125591517fd9d16d34ffb15ba3a3d852f0d403e2ce1d691fb54de27ac87cd2f993f3ec33135590517fd9d16d34ffb15ba3a3d852f0d403e2ce1d691fb54de27ac87cd2f993f3ec331455517fd9d16d34ffb15ba3a3d852f0d403e2ce1d691fb54de27ac87cd2f993f3ec33155560065468010000000000000000811015620007b7576001810180600655811015620007cb5760065f525f805160206200342a8339815191520180546001600160a01b0319166002179055604080516667656e6573697360c81b6020820190815260078252918101916001600160401b03831182841017620007b7576040839052815190209160c08201916001600160401b03831182841017620007b7576003926040524382526060810193845260a060808201914283520193600185525f8052600460205260405f2092518355516001830155516002820155019051151560ff801983541691161790555f600755604051612c149081620008168239f35b634e487b7160e01b5f52604160045260245ffd5b634e487b7160e01b5f52603260045260245ffd5b631e4fbdf760e01b81525f6004820152602490fd5b5f80fd5b61010081019081106001600160401b03821117620007b75760405256fe6080604052600436101561001a575b3615610018575f80fd5b005b5f3560e01c806315a3d37a14611ea35780631d63575614611e645780631e04a56f14611e4257806320fc488114611daa5780632165cbb714611d47578063260958a514611bd657806326c3564414611b9a5780632f33a7ce14611b495780633542284b14611b25578063390f418514611b095780633a18d8c014611aec5780633bf4772014611acf5780633c64f04b14611a3457806347d2837214611a17578063508d0a5f1461198a5780635f81a57c1461196d578063685c764814611838578063715018a6146117d457806379502c551461177f578063816c99de1461174857806383b11e5b146115a65780638da5cb5b146115815780638f20a7f71461093b57806395ccea67146108ca5780639ce3f4b2146108ad5780639d5460cb146107ad578063b66df0311461069b578063b8a242521461064a578063b8b2233d146105d6578063c625562614610595578063c8096ff9146103d2578063d51aa0cb1461039b578063e402080414610366578063e77fa676146102cc578063e9dd0874146102a6578063f2fde38b146101fe578063f3f480d9146101e15763f9e5051a0361000e57346101dd575f3660031901126101dd576020600b54604051908152f35b5f80fd5b346101dd575f3660031901126101dd576020600954604051908152f35b346101dd5760203660031901126101dd5761021761212e565b61021f612ad8565b6001600160a01b03809116908115610276575f548273ffffffffffffffffffffffffffffffffffffffff198216175f55167f8be0079c531659141344cd1fd0a4f28419497f9722a3daafe3b4186f6b6457e05f80a3005b60246040517f1e4fbdf70000000000000000000000000000000000000000000000000000000081525f6004820152fd5b346101dd5760206102c26102b936612493565b9291909161296b565b6040519015158152f35b346101dd5760e03660031901126101dd576040516102e98161218b565b60043581526020810160243581526040820160443581526060830160643581526080840191608435835260a085019360a435855260c4359586151587036101dd5760c08101968752610339612ad8565b51600f55516010555160115551601255516013555160145551151560ff8019601554169116176015555f80f35b346101dd575f3660031901126101dd5760ff600e54168061038f575b6020906040519015158152f35b5060155460ff16610382565b346101dd5760603660031901126101dd5760406103c66103b961212e565b6044359060243590612875565b82519182526020820152f35b346101dd576101403660031901126101dd576103ec61212e565b6103f4612144565b6101003660431901126101dd576040519061040e8261216e565b6001600160a01b039160443583811681036101dd57815260643583811681036101dd57602082019081526084359485151586036101dd57600691604084019687526060840160a43581526080850160c435815260a086019160e435835260c08701936101043585528960e089019661012435885261048a612ad8565b169a8b5f5260016020528a60405f2099511673ffffffffffffffffffffffffffffffffffffffff198a54161789558a60018a019251167fffffffffffffffffffffff00000000000000000000000000000000000000000074ff000000000000000000000000000000000000000084549351151560a01b1692161717905551600287015551600386015551600485015551600584015551910155600654680100000000000000008110156105815780600161054792016006556126af565b81549060031b908486831b921b191617905516907ffca71f69ee02fdd2c9c3c63a565a60a97c9b08040df5683d31715b28359534565f80a3005b634e487b7160e01b5f52604160045260245ffd5b346101dd5760203660031901126101dd576004356006548110156101dd576001600160a01b036105c66020926126af565b9190546040519260031b1c168152f35b346101dd575f3660031901126101dd57604051604081019080821067ffffffffffffffff8311176105815761064691604052601281527f506f6c79676f6e20506f532042726964676500000000000000000000000000006020820152604051918291602083526020830190612381565b0390f35b346101dd5760203660031901126101dd576004355f526004602052608060405f2080549060018101549060ff6003600283015492015416916040519384526020840152604083015215156060820152f35b346101dd5760203660031901126101dd576101006106b761212e565b5f60e06040516106c68161216e565b8281528260208201528260408201528260608201528260808201528260a08201528260c082015201526001600160a01b038091165f52600160205260405f20604051906107128261216e565b82815416928383526001820154906020840191818116835260ff604086019160a01c1615158152600284015490606086019182526003850154926080870193845260048601549460a0880195865260e0600660058901549860c08b01998a52015498019788526040519889525116602088015251151560408701525160608601525160808501525160a08401525160c08301525160e0820152f35b346101dd5760203660031901126101dd576004356107c9612ad8565b6108356107d7600754612867565b806007556003604051916107ea836121a7565b43835260208301858152604084019042825260608501925f84525f52600460205260405f209451855551600185015551600284015551151591019060ff801983541691151516179055565b6007548061086f575b507f30ee1014521e39eadbffcdfec23c004f87a8fe18328f4add4478c08d3c1f653e602060075492604051908152a2005b5f198101908111610899575f526004602052600360405f2001600160ff198254161790558161083e565b634e487b7160e01b5f52601160045260245ffd5b346101dd575f3660031901126101dd576020600d54604051908152f35b346101dd5760403660031901126101dd576108e361212e565b602435906108ef612ad8565b6001600160a01b039081168061092d57505f8080938193825416828215610924575bf11561091957005b6040513d5f823e3d90fd5b506108fc610911565b61001892915f541690612b75565b60603660031901126101dd5760043567ffffffffffffffff81116101dd5761096790369060040161223a565b61096f612144565b60443567ffffffffffffffff81116101dd57366023820112156101dd57806004013567ffffffffffffffff81116101dd57369101602401116101dd576109b3612b1b565b60ff60155416156115575760208281015160408085015160a086015160c08701519251633a77421d60e21b81526001600160a01b039485166004820152939091166024840152604483015260648201529081608481305afa908115610919575f91611528575b50156114fe576001600160a01b036020830151165f52600160205260405f209060ff600183015460a01c16156114d457600682018054620151808101809111610899574210156114c5575b50606083015160028301541161149b57606083015160038301541061147157610a96600583015460608501519061275d565b60048301541061144757606083015160a084015160c085015190604051927f504f4c59474f4e0000000000000000000000000000000000000000000000000060208501523360601b60278501526bffffffffffffffffffffffff198560601b16603b850152604f840152606f830152608f8201524260af82015260af8152610b1d8161218b565b60208151910120916001600160a01b0360208501511615155f146113d1576001600160a01b03602085015116606085015190604051917f23b872dd000000000000000000000000000000000000000000000000000000005f52336004523060245260445260205f60648180855af160015f51148116156113b2575b826040525f6060521561139d5750505b6005610bbb60608601518284015461275d565b91015560a083015162aa36a78114908115611392575b50604051610bde8161218b565b8381523360208201526001600160a01b03831660408201528460608201525f60808201524260a08201525f60c0820152835f52600260205260405f209080518255600182016001600160a01b036020830151169073ffffffffffffffffffffffffffffffffffffffff199182825416179055600283016001600160a01b036040840151168282541617905560038301906060830151916001600160a01b0383511682825416179055600484016001600160a01b036020840151168282541617905560058401906001600160a01b0360408401511690825416179055606081015160068401556080810151600784015560a0810151600884015560c0810151600984015560c060e08201518051600a8601556020810151600b8601556040810151600c8601556060810151600d8601556080810151600e86015560a0810151600f8601550151601084015561010081015180519067ffffffffffffffff821161058157610d4d60118601546124cc565b601f811161134e575b50602090601f83116001146112de576101209392915f91836112d3575b50508160011b915f199060031b1c19161760118501555b015160128301556080810151601383019160058210156112bf5760159260c09260ff8019835416911617905560a0810151601485015501519101556005546801000000000000000081101561058157806001610de99201600555612666565b81549060031b9085821b915f19901b1916179055610e08600a54612867565b600a55610e1b6060850151600c5461275d565b600c551561100e57602092825f5260028452601360405f2001600160ff198254161790556103e36103e86040518681019086825242604082015260408152610e62816121fc565b519020061015610f9957825f5260028452601360405f2001600260ff19825416179055610e916013544261275d565b835f5260028552601560405f200155610eab600b54612867565b600b55825f5260028452827ff8b93d99f828ea6dc825a1d9830dd368efbe210896261ba9ddf4b8c2db7c11df6060600760405f2001546013546040519182525f898301526040820152a25b6060810151604051908152837f3a3d96329ab996e0ede9bbe72bd071c3ccd134108f5cfe579da8e91a32c01c0f863393a35b827f56ca1441c76a98845661e51ce81568a517265ae9ab2f9871a232c11a9208a9f06001600160a01b0360405194878652169380610f6a3395898301906123bf565b0390a460017f9b779b17422d0df92223018b32b4d1fa46e071723d6817e2486d003becc55f0055604051908152f35b825f5260028452601360405f2001600360ff19825416179055827fede47e73e6c8536d5351df6e9a76853cc1ba236bc23132185ee92fa0afa9e7e160606040518781526019888201527f4465706f736974206661696c6564206f6e20506f6c79676f6e000000000000006040820152a2610ef6565b815f526002602052601360405f2001600160ff198254161790556040519283602081011067ffffffffffffffff60208601111761058157602084016040525f84526007549361105f6009544261275d565b6040519561106c876121e0565b8587526020870192835260408701525f60608701526080860152835f52600360205260405f209085518255519485519567ffffffffffffffff871161058157680100000000000000008711610581576001830154876001850155808810611295575b5060200195600183015f5260205f20965f5b828110611281575050506020955060808160406004930151600285015561111c60608201511515600386019060ff801983541691151516179055565b0151910155606360646040518681019086825242604082015260408152611142816121fc565b51902006101561120c57825f5260028452601360405f2001600260ff198254161790556111716014544261275d565b835f5260028552601560405f20015561118b600b54612867565b600b55825f5260028452827ff8b93d99f828ea6dc825a1d9830dd368efbe210896261ba9ddf4b8c2db7c11df6060600760405f2001546014546040519182525f898301526040820152a25b6060810151604051908152837ff966226666bdb2bc2f79ad476eb39c82d8668fabd37e3d27998e5225d4d2a88a863393a3610f28565b825f5260028452601360405f2001600360ff19825416179055827fede47e73e6c8536d5351df6e9a76853cc1ba236bc23132185ee92fa0afa9e7e160606040518781526018888201527f5769746864726177616c2070726f6f6620696e76616c696400000000000000006040820152a26111d6565b60019060208351930192818b0155016110e0565b600184015f5260205f20908882015b81830181106112b45750506110ce565b5f81556001016112a4565b634e487b7160e01b5f52602160045260245ffd5b015190508a80610d73565b90601186015f5260205f20915f5b601f198516811061133657509183916001936101209695601f1981161061131e575b505050811b016011850155610d8a565b01515f1960f88460031b161c191690558a808061130e565b919260206001819286850151815501940192016112ec565b601186015f5260205f20601f840160051c81016020851061138b575b601f830160051c82018110611380575050610d56565b5f815560010161136a565b508061136a565b600191501484610bd1565b60249250635274afe760e01b82526004820152fd5b60018115166113c857813b15153d151616610b98565b823d5f823e3d90fd5b6113e26060850151600f549061275d565b341015610ba85760646040517f08c379a000000000000000000000000000000000000000000000000000000000815260206004820152601060248201527f496e73756666696369656e7420455448000000000000000000000000000000006044820152fd5b60046040517f194bd314000000000000000000000000000000000000000000000000000000008152fd5b60046040517fb44042ee000000000000000000000000000000000000000000000000000000008152fd5b60046040517f2b069ba2000000000000000000000000000000000000000000000000000000008152fd5b5f600584015542905583610a64565b60046040517f828d5663000000000000000000000000000000000000000000000000000000008152fd5b60046040517f5d5fe824000000000000000000000000000000000000000000000000000000008152fd5b61154a915060203d602011611550575b6115428183612218565b81019061271a565b83610a19565b503d611538565b60046040517f87cb8cfe000000000000000000000000000000000000000000000000000000008152fd5b346101dd575f3660031901126101dd5760206001600160a01b035f5416604051908152f35b346101dd5760203660031901126101dd576004356115c2612b1b565b805f52600360205260405f20600260205260405f209080541561171e576003810180549160ff83166116f4576004015442106116ca5760ff19918216600117905560138201805490911660021790554260158201556005810180546001600160a01b0392918391821615611699576002929161164b915416848484015416600784015491612b75565b015416907f3d804e33357d8a3aea14100fc2aed56df6ce2ca3bff3ea50a0a07772dd715ac95f80a360017f9b779b17422d0df92223018b32b4d1fa46e071723d6817e2486d003becc55f0055005b505f808080936002860154166007860154908282156116c1575bf1156109195760029061164b565b506108fc6116b3565b60046040517f53d8d5b9000000000000000000000000000000000000000000000000000000008152fd5b60046040517f6d8751c5000000000000000000000000000000000000000000000000000000008152fd5b60046040517ffb6140ed000000000000000000000000000000000000000000000000000000008152fd5b346101dd5760203660031901126101dd576004356005548110156101dd57611771602091612666565b90546040519160031b1c8152f35b346101dd575f3660031901126101dd5760e0600f54601054601154601254601354906014549260ff6015541694604051968752602087015260408601526060850152608084015260a0830152151560c0820152f35b346101dd575f3660031901126101dd576117ec612ad8565b5f6001600160a01b03815473ffffffffffffffffffffffffffffffffffffffff1981168355167f8be0079c531659141344cd1fd0a4f28419497f9722a3daafe3b4186f6b6457e08280a3005b346101dd576020806003193601126101dd575f6080604051611859816121e0565b82815260608482015282604082015282606082015201526004355f526003815260405f20604051611889816121e0565b815481526001926001830192604051809485918482549182815201915f52845f2090885f5b8281106119575750505050906118c5910385612218565b818301938452600281015460408401908152600460ff60038401541692606086019315158452015492608085019384526040519581875260c08701955182880152519460a0604088015285518091528160e088019601915f5b828110611944575050505084955051606085015251151560808401525160a08301520390f35b835188529681019692810192890161191e565b83548552899550938701939281019281016118ae565b346101dd575f3660031901126101dd576020600c54604051908152f35b346101dd5760203660031901126101dd576101006001600160a01b03806119af61212e565b165f52600160205260405f209080825416916001810154600282015460038301549060ff60048501549360066005870154960154966040519889528116602089015260a01c16151560408701526060860152608085015260a084015260c083015260e0820152f35b346101dd575f3660031901126101dd576020600754604051908152f35b346101dd5760203660031901126101dd576004355f52600260205260405f2080546001600160a01b03918260018201541692600282015416611a7860038301612504565b91611ac1611ab660ff60138401541694601560148501549401549460405198899889526020890152604088015260e0606088015260e08701906123bf565b936080860190612486565b60a084015260c08301520390f35b346101dd575f3660031901126101dd576020600a54604051908152f35b346101dd575f3660031901126101dd576020600854604051908152f35b346101dd5760403660031901126101dd57602060405160638152f35b346101dd576020611b41611b3836612493565b9291909161276a565b604051908152f35b346101dd5760203660031901126101dd576004355f526003602052608060405f20805490600281015490600460ff600383015416910154916040519384526020840152151560408301526060820152f35b346101dd5760203660031901126101dd576004358015158091036101dd57611bc0612ad8565b60ff8019600e5416911617600e5542600d555f80f35b346101dd576020806003193601126101dd5760405190611bf58261218b565b5f82525f818301525f60408301525f60c060405193611c13856121c3565b82855282848601528260408601528260608601528260808601528260a08601528282860152611c406126e4565b60e0860152610100946060868201528361012082015260608201528260808201528260a082015201526004355f526002815260405f209160405192611c848461218b565b805484526001600160a01b03918260018301541691848601928352836002820154169160408701928352611cba60038301612504565b906060880191825260ff60138401541691608089019660058410156112bf578995816015611d3797611d2b978c5260a060148201549a01998a5201549860c08d01998a528b6040519d8e9d8e5251908d0152511660408b015251166060890152519060e060808901528701906123bf565b935160a0860190612486565b5160c08401525160e08301520390f35b346101dd575f3660031901126101dd57600a54600b54600c5491908115611da05760648102928184046064148215171561089957611d878360809561273f565b915b604051938452602084015260408301526060820152f35b6080925f91611d89565b346101dd5760203660031901126101dd575f6060604051611dca816121a7565b82815282602082015282604082015201526004355f526004602052608060405f20604051611df7816121a7565b815491828252600181015460208301908152606060ff600360028501549460408701958652015416930192151583526040519384525160208401525160408301525115156060820152f35b346101dd575f3660031901126101dd57602060ff600e54166040519015158152f35b346101dd5760203660031901126101dd5760043567ffffffffffffffff81116101dd57611b4160a0611e9c602093369060040161223a565b0151612aa3565b346101dd5760a03660031901126101dd57611f19611ebf61212e565b611ec7612144565b906064803592611ed56126e4565b50604051633a77421d60e21b81526001600160a01b038085166004830152909116602482015260448101849052608480356064830152602095869183918291820190565b0381305afa908115610919575f91612111575b50156114fe576001600160a01b038092165f526001845260405f209060ff60405193611f578561216e565b80845416855260018401549081168786015260a01c1615156040840152600282015460608401526003820154608084015260048201549060a084019180835260058401549460e0600660c08301968888520154910152611fdb600f5495611fbd88612aa3565b9762aa36a78114908115612106575b50156120fd5760135492612732565b600a5490939080156120f457600b549084820291808304861490151715610899576120059161273f565b945b8151156120ec5751838102908082048514901517156108995761202b91519061273f565b60508111156120dd57604f198101908111610899578281029281840414901517156108995760e0966014603c9304955b612065818961275d565b91604051986120738a61218b565b89528801526040870152046060850152608084015260a083015260c08201526120db604051809260c08091805184526020810151602085015260408101516040850152606081015160608501526080810151608085015260a081015160a08501520151910152565bf35b50603c915060e0965f9561205b565b50505f61202b565b50606394612007565b60145492612732565b60019150148a611fcc565b6121289150853d8711611550576115428183612218565b85611f2c565b600435906001600160a01b03821682036101dd57565b602435906001600160a01b03821682036101dd57565b35906001600160a01b03821682036101dd57565b610100810190811067ffffffffffffffff82111761058157604052565b60e0810190811067ffffffffffffffff82111761058157604052565b6080810190811067ffffffffffffffff82111761058157604052565b610140810190811067ffffffffffffffff82111761058157604052565b60a0810190811067ffffffffffffffff82111761058157604052565b6060810190811067ffffffffffffffff82111761058157604052565b90601f8019910116810190811067ffffffffffffffff82111761058157604052565b91909180830361020081126101dd57604090815192612258846121c3565b83956122638261215a565b855260e060209361227585850161215a565b8588015261228486850161215a565b86880152606084013560608801526080840135608088015260a084013560a088015260c084013560c088015260df1901126101dd578351936122c58561218b565b60e083013585526101009081840135858701526101209586850135828201526101408501356060820152610160850135608082015261018085013560a08201526101a085013560c082015260e08801526101c08401359467ffffffffffffffff958681116101dd5785019184601f840112156101dd578235968711610581575193612359601f8801601f1916830186612218565b8685528187840101116101dd57856101e096825f940183870137840101528501520135910152565b91908251928382525f5b8481106123ab575050825f602080949584010152601f8019910116010190565b60208183018101518483018201520161238b565b906101e061012061247d6102006001600160a01b038087511686528060208801511660208701526040870151166040860152606086015160608601526080860151608086015260a086015160a086015260c086015160c086015261246760e087015160e087019060c08091805184526020810151602085015260408101516040850152606081015160608501526080810151608085015260a081015160a08501520151910152565b61010086015190806101c0870152850190612381565b93015191015290565b9060058210156112bf5752565b60809060031901126101dd576001600160a01b039060043582811681036101dd579160243590811681036101dd57906044359060643590565b90600182811c921680156124fa575b60208310146124e657565b634e487b7160e01b5f52602260045260245ffd5b91607f16916124db565b90604051612511816121c3565b80926001600160a01b03808254168352600181600184015416916020928386015260028401541660408501526003830154606085015260048301546080850152600583015460a0850152600683015460c08501526040516125718161218b565b6007840154815260088401548382015260098401546040820152600a8401546060820152600b8401546080820152600c84015460a0820152600d84015460c082015260e0850152600e830191604051925f928154916125cf836124cc565b8087529260018116908115612644575060011461260b575b5050505091816125fe600f93610120950382612218565b6101008501520154910152565b5f908152838120939450925b82841061263157505050820101816125fe816101206125e7565b8054868501860152928401928101612617565b60ff191685880152505050151560051b8301019050816125fe816101206125e7565b60055481101561269b5760055f527f036b6384b5eca791c62761152d0c79bb0604c104a5fb6f4eb0703f3154bb3db001905f90565b634e487b7160e01b5f52603260045260245ffd5b60065481101561269b5760065f527ff652222313e28459528d920b65115c16c04f3efc82aaedc97be59f3f377c0d3f01905f90565b604051906126f18261218b565b5f60c0838281528260208201528260408201528260608201528260808201528260a08201520152565b908160209103126101dd575180151581036101dd5790565b9190820391821161089957565b8115612749570490565b634e487b7160e01b5f52601260045260245ffd5b9190820180921161089957565b604051633a77421d60e21b81526001600160a01b0382811660048301529290921660248301526044820192909252606481019290925290602081608481305afa908115610919575f91612848575b501561284357612840906001600160a01b038091165f52600160205260405f209060ff604051916127e88361216e565b8084541683526001840154908116602084015260a01c161515604082015260028201546060820152600382015460808201526004820154908160a082015260e060066005850154948560c08501520154910152612732565b90565b505f90565b612861915060203d602011611550576115428183612218565b5f6127b8565b5f1981146108995760010190565b604051633a77421d60e21b81526001600160a01b03821660048201819052602482015260448101929092526064820192909252909190602081608481305afa908115610919575f9161294c575b5015612945576001600160a01b038092165f52600160205260405f209160ff604051916128ee8361216e565b8085541683526001850154908116602084015260a01c161515604082015260028301549081606082015260e06006600386015495866080850152600481015460a0850152600581015460c085015201549101529190565b5f91508190565b612965915060203d602011611550576115428183612218565b5f6128c2565b919262aa36a7908185149485612a96575b8515612a7a575b6201388181149283612a70575b508215612a52575b505083159081612a49575b50612a42576001600160a01b038092165f52600160205260405f20604051936129cb8561216e565b838254169182865260018101549560e0600660ff888a16998a602086015260a01c161593841560408501526002810154606085015260038101546080850152600481015460a0850152600581015460c08501520154910152612a395715612a325750161490565b9250161490565b50505050505f90565b5050505f90565b9050155f6129a3565b608914915081612a65575b505f80612998565b60019150145f612a5d565b821492505f612990565b94506001851480612a8c575b94612983565b5060898114612a86565b620138818214955061297c565b62aa36a78114908115612acd575b5015612ac257661c6bf52634000090565b66038d7ea4c6800090565b60019150145f612ab1565b6001600160a01b035f54163303612aeb57565b60246040517f118cdaa7000000000000000000000000000000000000000000000000000000008152336004820152fd5b7f9b779b17422d0df92223018b32b4d1fa46e071723d6817e2486d003becc55f006002815414612b4b5760029055565b60046040517f3ee5aeb5000000000000000000000000000000000000000000000000000000008152fd5b604051927fa9059cbb000000000000000000000000000000000000000000000000000000005f526001600160a01b0380931660045260245260205f60448180855af160015f5114811615612be8575b8360405215612bd257505050565b60249350635274afe760e01b8352166004820152fd5b6001811516612bfe57813b15153d151616612bc4565b833d5f823e3d90fdfea164736f6c6343000818000af652222313e28459528d920b65115c16c04f3efc82aaedc97be59f3f377c0d3f","linkReferences":{}},"methodIdentifiers":{"addTokenMapping(address,address,(address,address,bool,uint256,uint256,uint256,uint256,uint256))":"c8096ff9","challengePeriod()":"f3f480d9","checkpointInterval()":"3a18d8c0","checkpoints(uint256)":"b8a24252","config()":"79502c55","currentCheckpoint()":"47d28372","emergencyWithdraw(address,uint256)":"95ccea67","estimateGas((address,address,address,uint256,uint256,uint256,uint256,(uint256,uint256,uint256,uint256,uint256,uint256,uint256),bytes,uint256))":"1d635756","executeBridge((address,address,address,uint256,uint256,uint256,uint256,(uint256,uint256,uint256,uint256,uint256,uint256,uint256),bytes,uint256),address,bytes)":"8f20a7f7","exitProofs(bytes32)":"2f33a7ce","getAvailableLiquidity(address,address,uint256,uint256)":"3542284b","getBridgeName()":"b8b2233d","getBridgeStats()":"2165cbb7","getCheckpoint(uint256)":"20fc4881","getExitProof(bytes32)":"685c7648","getRouteMetrics(address,address,uint256,uint256,uint256)":"15a3d37a","getSuccessRate(uint256,uint256)":"390f4185","getTokenMapping(address)":"b66df031","getTransfer(bytes32)":"260958a5","getTransferLimits(address,uint256,uint256)":"d51aa0cb","healthyStatus()":"1e04a56f","isHealthy()":"e4020804","lastHealthCheck()":"9ce3f4b2","owner()":"8da5cb5b","processExit(bytes32)":"83b11e5b","renounceOwnership()":"715018a6","submitCheckpoint(bytes32)":"9d5460cb","successfulTransfers()":"f9e5051a","supportedTokens(uint256)":"c6255626","supportsRoute(address,address,uint256,uint256)":"e9dd0874","tokenMappings(address)":"508d0a5f","totalTransfers()":"3bf47720","totalVolume()":"5f81a57c","transferHistory(uint256)":"816c99de","transferOwnership(address)":"f2fde38b","transfers(bytes32)":"3c64f04b","updateConfig((uint256,uint256,uint256,uint256,uint256,uint256,bool))":"e77fa676","updateHealthStatus(bool)":"26c35644"},"storageLayout":{"storage":[{"astId":40138,"contract":"src/adapters/PolygonBridgeAdapter.sol:PolygonBridgeAdapter","label":"_owner","offset":0,"slot":"0","type":"t_address"},{"astId":59233,"contract":"src/adapters/PolygonBridgeAdapter.sol:PolygonBridgeAdapter","label":"tokenMappings","offset":0,"slot":"1","type":"t_mapping(t_address,t_struct(TokenMapping)59204_storage)"},{"astId":59238,"contract":"src/adapters/PolygonBridgeAdapter.sol:PolygonBridgeAdapter","label":"transfers","offset":0,"slot":"2","type":"t_mapping(t_bytes32,t_struct(Transfer)67618_storage)"},{"astId":59243,"contract":"src/adapters/PolygonBridgeAdapter.sol:PolygonBridgeAdapter","label":"exitProofs","offset":0,"slot":"3","type":"t_mapping(t_bytes32,t_struct(ExitProof)59227_storage)"},{"astId":59248,"contract":"src/adapters/PolygonBridgeAdapter.sol:PolygonBridgeAdapter","label":"checkpoints","offset":0,"slot":"4","type":"t_mapping(t_uint256,t_struct(Checkpoint)59214_storage)"},{"astId":59251,"contract":"src/adapters/PolygonBridgeAdapter.sol:PolygonBridgeAdapter","label":"transferHistory","offset":0,"slot":"5","type":"t_array(t_bytes32)dyn_storage"},{"astId":59254,"contract":"src/adapters/PolygonBridgeAdapter.sol:PolygonBridgeAdapter","label":"supportedTokens","offset":0,"slot":"6","type":"t_array(t_address)dyn_storage"},{"astId":59256,"contract":"src/adapters/PolygonBridgeAdapter.sol:PolygonBridgeAdapter","label":"currentCheckpoint","offset":0,"slot":"7","type":"t_uint256"},{"astId":59259,"contract":"src/adapters/PolygonBridgeAdapter.sol:PolygonBridgeAdapter","label":"checkpointInterval","offset":0,"slot":"8","type":"t_uint256"},{"astId":59262,"contract":"src/adapters/PolygonBridgeAdapter.sol:PolygonBridgeAdapter","label":"challengePeriod","offset":0,"slot":"9","type":"t_uint256"},{"astId":59265,"contract":"src/adapters/PolygonBridgeAdapter.sol:PolygonBridgeAdapter","label":"totalTransfers","offset":0,"slot":"10","type":"t_uint256"},{"astId":59267,"contract":"src/adapters/PolygonBridgeAdapter.sol:PolygonBridgeAdapter","label":"successfulTransfers","offset":0,"slot":"11","type":"t_uint256"},{"astId":59269,"contract":"src/adapters/PolygonBridgeAdapter.sol:PolygonBridgeAdapter","label":"totalVolume","offset":0,"slot":"12","type":"t_uint256"},{"astId":59271,"contract":"src/adapters/PolygonBridgeAdapter.sol:PolygonBridgeAdapter","label":"lastHealthCheck","offset":0,"slot":"13","type":"t_uint256"},{"astId":59274,"contract":"src/adapters/PolygonBridgeAdapter.sol:PolygonBridgeAdapter","label":"healthyStatus","offset":0,"slot":"14","type":"t_bool"},{"astId":59293,"contract":"src/adapters/PolygonBridgeAdapter.sol:PolygonBridgeAdapter","label":"config","offset":0,"slot":"15","type":"t_struct(BridgeConfig)59290_storage"}],"types":{"t_address":{"encoding":"inplace","label":"address","numberOfBytes":"20"},"t_array(t_address)dyn_storage":{"encoding":"dynamic_array","label":"address[]","numberOfBytes":"32","base":"t_address"},"t_array(t_bytes32)dyn_storage":{"encoding":"dynamic_array","label":"bytes32[]","numberOfBytes":"32","base":"t_bytes32"},"t_bool":{"encoding":"inplace","label":"bool","numberOfBytes":"1"},"t_bytes32":{"encoding":"inplace","label":"bytes32","numberOfBytes":"32"},"t_bytes_storage":{"encoding":"bytes","label":"bytes","numberOfBytes":"32"},"t_enum(TransferStatus)67600":{"encoding":"inplace","label":"enum IBridgeAdapter.TransferStatus","numberOfBytes":"1"},"t_mapping(t_address,t_struct(TokenMapping)59204_storage)":{"encoding":"mapping","key":"t_address","label":"mapping(address => struct PolygonBridgeAdapter.TokenMapping)","numberOfBytes":"32","value":"t_struct(TokenMapping)59204_storage"},"t_mapping(t_bytes32,t_struct(ExitProof)59227_storage)":{"encoding":"mapping","key":"t_bytes32","label":"mapping(bytes32 => struct PolygonBridgeAdapter.ExitProof)","numberOfBytes":"32","value":"t_struct(ExitProof)59227_storage"},"t_mapping(t_bytes32,t_struct(Transfer)67618_storage)":{"encoding":"mapping","key":"t_bytes32","label":"mapping(bytes32 => struct IBridgeAdapter.Transfer)","numberOfBytes":"32","value":"t_struct(Transfer)67618_storage"},"t_mapping(t_uint256,t_struct(Checkpoint)59214_storage)":{"encoding":"mapping","key":"t_uint256","label":"mapping(uint256 => struct PolygonBridgeAdapter.Checkpoint)","numberOfBytes":"32","value":"t_struct(Checkpoint)59214_storage"},"t_struct(BridgeConfig)59290_storage":{"encoding":"inplace","label":"struct PolygonBridgeAdapter.BridgeConfig","numberOfBytes":"224","members":[{"astId":59277,"contract":"src/adapters/PolygonBridgeAdapter.sol:PolygonBridgeAdapter","label":"baseFee","offset":0,"slot":"0","type":"t_uint256"},{"astId":59279,"contract":"src/adapters/PolygonBridgeAdapter.sol:PolygonBridgeAdapter","label":"feePercentage","offset":0,"slot":"1","type":"t_uint256"},{"astId":59281,"contract":"src/adapters/PolygonBridgeAdapter.sol:PolygonBridgeAdapter","label":"minTransferAmount","offset":0,"slot":"2","type":"t_uint256"},{"astId":59283,"contract":"src/adapters/PolygonBridgeAdapter.sol:PolygonBridgeAdapter","label":"maxTransferAmount","offset":0,"slot":"3","type":"t_uint256"},{"astId":59285,"contract":"src/adapters/PolygonBridgeAdapter.sol:PolygonBridgeAdapter","label":"avgDepositTime","offset":0,"slot":"4","type":"t_uint256"},{"astId":59287,"contract":"src/adapters/PolygonBridgeAdapter.sol:PolygonBridgeAdapter","label":"avgWithdrawTime","offset":0,"slot":"5","type":"t_uint256"},{"astId":59289,"contract":"src/adapters/PolygonBridgeAdapter.sol:PolygonBridgeAdapter","label":"isActive","offset":0,"slot":"6","type":"t_bool"}]},"t_struct(Checkpoint)59214_storage":{"encoding":"inplace","label":"struct PolygonBridgeAdapter.Checkpoint","numberOfBytes":"128","members":[{"astId":59207,"contract":"src/adapters/PolygonBridgeAdapter.sol:PolygonBridgeAdapter","label":"blockNumber","offset":0,"slot":"0","type":"t_uint256"},{"astId":59209,"contract":"src/adapters/PolygonBridgeAdapter.sol:PolygonBridgeAdapter","label":"rootHash","offset":0,"slot":"1","type":"t_bytes32"},{"astId":59211,"contract":"src/adapters/PolygonBridgeAdapter.sol:PolygonBridgeAdapter","label":"timestamp","offset":0,"slot":"2","type":"t_uint256"},{"astId":59213,"contract":"src/adapters/PolygonBridgeAdapter.sol:PolygonBridgeAdapter","label":"isFinalized","offset":0,"slot":"3","type":"t_bool"}]},"t_struct(ExitProof)59227_storage":{"encoding":"inplace","label":"struct PolygonBridgeAdapter.ExitProof","numberOfBytes":"160","members":[{"astId":59217,"contract":"src/adapters/PolygonBridgeAdapter.sol:PolygonBridgeAdapter","label":"transferId","offset":0,"slot":"0","type":"t_bytes32"},{"astId":59220,"contract":"src/adapters/PolygonBridgeAdapter.sol:PolygonBridgeAdapter","label":"merkleProof","offset":0,"slot":"1","type":"t_array(t_bytes32)dyn_storage"},{"astId":59222,"contract":"src/adapters/PolygonBridgeAdapter.sol:PolygonBridgeAdapter","label":"checkpointIndex","offset":0,"slot":"2","type":"t_uint256"},{"astId":59224,"contract":"src/adapters/PolygonBridgeAdapter.sol:PolygonBridgeAdapter","label":"isProcessed","offset":0,"slot":"3","type":"t_bool"},{"astId":59226,"contract":"src/adapters/PolygonBridgeAdapter.sol:PolygonBridgeAdapter","label":"exitableAt","offset":0,"slot":"4","type":"t_uint256"}]},"t_struct(Route)67593_storage":{"encoding":"inplace","label":"struct IBridgeAdapter.Route","numberOfBytes":"512","members":[{"astId":67573,"contract":"src/adapters/PolygonBridgeAdapter.sol:PolygonBridgeAdapter","label":"adapter","offset":0,"slot":"0","type":"t_address"},{"astId":67575,"contract":"src/adapters/PolygonBridgeAdapter.sol:PolygonBridgeAdapter","label":"tokenIn","offset":0,"slot":"1","type":"t_address"},{"astId":67577,"contract":"src/adapters/PolygonBridgeAdapter.sol:PolygonBridgeAdapter","label":"tokenOut","offset":0,"slot":"2","type":"t_address"},{"astId":67579,"contract":"src/adapters/PolygonBridgeAdapter.sol:PolygonBridgeAdapter","label":"amountIn","offset":0,"slot":"3","type":"t_uint256"},{"astId":67581,"contract":"src/adapters/PolygonBridgeAdapter.sol:PolygonBridgeAdapter","label":"amountOut","offset":0,"slot":"4","type":"t_uint256"},{"astId":67583,"contract":"src/adapters/PolygonBridgeAdapter.sol:PolygonBridgeAdapter","label":"srcChainId","offset":0,"slot":"5","type":"t_uint256"},{"astId":67585,"contract":"src/adapters/PolygonBridgeAdapter.sol:PolygonBridgeAdapter","label":"dstChainId","offset":0,"slot":"6","type":"t_uint256"},{"astId":67588,"contract":"src/adapters/PolygonBridgeAdapter.sol:PolygonBridgeAdapter","label":"metrics","offset":0,"slot":"7","type":"t_struct(RouteMetrics)67570_storage"},{"astId":67590,"contract":"src/adapters/PolygonBridgeAdapter.sol:PolygonBridgeAdapter","label":"adapterData","offset":0,"slot":"14","type":"t_bytes_storage"},{"astId":67592,"contract":"src/adapters/PolygonBridgeAdapter.sol:PolygonBridgeAdapter","label":"deadline","offset":0,"slot":"15","type":"t_uint256"}]},"t_struct(RouteMetrics)67570_storage":{"encoding":"inplace","label":"struct IBridgeAdapter.RouteMetrics","numberOfBytes":"224","members":[{"astId":67557,"contract":"src/adapters/PolygonBridgeAdapter.sol:PolygonBridgeAdapter","label":"estimatedGasCost","offset":0,"slot":"0","type":"t_uint256"},{"astId":67559,"contract":"src/adapters/PolygonBridgeAdapter.sol:PolygonBridgeAdapter","label":"bridgeFee","offset":0,"slot":"1","type":"t_uint256"},{"astId":67561,"contract":"src/adapters/PolygonBridgeAdapter.sol:PolygonBridgeAdapter","label":"totalCostWei","offset":0,"slot":"2","type":"t_uint256"},{"astId":67563,"contract":"src/adapters/PolygonBridgeAdapter.sol:PolygonBridgeAdapter","label":"estimatedTimeMinutes","offset":0,"slot":"3","type":"t_uint256"},{"astId":67565,"contract":"src/adapters/PolygonBridgeAdapter.sol:PolygonBridgeAdapter","label":"liquidityAvailable","offset":0,"slot":"4","type":"t_uint256"},{"astId":67567,"contract":"src/adapters/PolygonBridgeAdapter.sol:PolygonBridgeAdapter","label":"successRate","offset":0,"slot":"5","type":"t_uint256"},{"astId":67569,"contract":"src/adapters/PolygonBridgeAdapter.sol:PolygonBridgeAdapter","label":"congestionLevel","offset":0,"slot":"6","type":"t_uint256"}]},"t_struct(TokenMapping)59204_storage":{"encoding":"inplace","label":"struct PolygonBridgeAdapter.TokenMapping","numberOfBytes":"224","members":[{"astId":59189,"contract":"src/adapters/PolygonBridgeAdapter.sol:PolygonBridgeAdapter","label":"rootToken","offset":0,"slot":"0","type":"t_address"},{"astId":59191,"contract":"src/adapters/PolygonBridgeAdapter.sol:PolygonBridgeAdapter","label":"childToken","offset":0,"slot":"1","type":"t_address"},{"astId":59193,"contract":"src/adapters/PolygonBridgeAdapter.sol:PolygonBridgeAdapter","label":"isSupported","offset":20,"slot":"1","type":"t_bool"},{"astId":59195,"contract":"src/adapters/PolygonBridgeAdapter.sol:PolygonBridgeAdapter","label":"minAmount","offset":0,"slot":"2","type":"t_uint256"},{"astId":59197,"contract":"src/adapters/PolygonBridgeAdapter.sol:PolygonBridgeAdapter","label":"maxAmount","offset":0,"slot":"3","type":"t_uint256"},{"astId":59199,"contract":"src/adapters/PolygonBridgeAdapter.sol:PolygonBridgeAdapter","label":"dailyLimit","offset":0,"slot":"4","type":"t_uint256"},{"astId":59201,"contract":"src/adapters/PolygonBridgeAdapter.sol:PolygonBridgeAdapter","label":"dailyTransferred","offset":0,"slot":"5","type":"t_uint256"},{"astId":59203,"contract":"src/adapters/PolygonBridgeAdapter.sol:PolygonBridgeAdapter","label":"lastResetTime","offset":0,"slot":"6","type":"t_uint256"}]},"t_struct(Transfer)67618_storage":{"encoding":"inplace","label":"struct IBridgeAdapter.Transfer","numberOfBytes":"704","members":[{"astId":67603,"contract":"src/adapters/PolygonBridgeAdapter.sol:PolygonBridgeAdapter","label":"transferId","offset":0,"slot":"0","type":"t_bytes32"},{"astId":67605,"contract":"src/adapters/PolygonBridgeAdapter.sol:PolygonBridgeAdapter","label":"sender","offset":0,"slot":"1","type":"t_address"},{"astId":67607,"contract":"src/adapters/PolygonBridgeAdapter.sol:PolygonBridgeAdapter","label":"recipient","offset":0,"slot":"2","type":"t_address"},{"astId":67610,"contract":"src/adapters/PolygonBridgeAdapter.sol:PolygonBridgeAdapter","label":"route","offset":0,"slot":"3","type":"t_struct(Route)67593_storage"},{"astId":67613,"contract":"src/adapters/PolygonBridgeAdapter.sol:PolygonBridgeAdapter","label":"status","offset":0,"slot":"19","type":"t_enum(TransferStatus)67600"},{"astId":67615,"contract":"src/adapters/PolygonBridgeAdapter.sol:PolygonBridgeAdapter","label":"initiatedAt","offset":0,"slot":"20","type":"t_uint256"},{"astId":67617,"contract":"src/adapters/PolygonBridgeAdapter.sol:PolygonBridgeAdapter","label":"completedAt","offset":0,"slot":"21","type":"t_uint256"}]},"t_uint256":{"encoding":"inplace","label":"uint256","numberOfBytes":"32"}}},"id":58}